:020000040800F2
:10800000B89E0020ADDC0108A1DB0108A3DB01085C
:10801000A5DB0108A7DB0108A9DB010800000000BF
:10802000000000000000000000000000ABDB0108C1
:10803000ADDB010800000000AFDB0108B1DB010887
:10804000EDDC0108F1DC0108F5DC0108F9DC0108D0
:10805000FDDC010801DD010805DD010809DD01087D
:108060000DDD010811DD010815DD010819DD01082C
:108070001DDD010821DD010825DD010829DD0108DC
:108080002DDD010831DD010835DD010839DD01088C
:10809000CDDB010841DD010845DD0108D1DB010828
:1080A0004DDD010851DD010855DD010859DD0108EC
:1080B0005DDD010861DD010865DD010869DD01089C
:1080C0006DDD010871DD010875DD010879DD01084C
:1080D0007DDD010881DD010885DD010889DD0108FC
:1080E0008DDD010891DD010895DD010899DD0108AC
:1080F0009DDD0108A1DD0108A5DD0108A9DD01085C
:10810000000000000000000000000000ADDD0108DC
:10811000B1DD0108B5DD0108B5DB0108BDDD0108F1
:10812000C1DD0108C5DD0108C9DD0108CDDD01089B
:10813000D1DD0108D5DD01080000000000000000CD
:10814000D9DD0108DDDD0108E1DD010800000000E6
:10815000000000000000000000000000000000001F
:108160000000000000000000E5DD0108E9DD010875
:10817000EDDD01080000000000000000000000002C
:1081800000000000F1DD01081D226C214E2007F0E7
:108190007BBF10B582B0012300AA7C214E2007F0DE
:1081A00075FF002840D180225C214E2007F06CFF33
:1081B000002839D1022300AA5D214E2007F066FF76
:1081C00090BB9DF8000080280CD1DFF860460523A5
:1081D00004F135025D214E2007F058FF20BB606995
:1081E00001210FE040280FD1DFF84046022304F1BF
:1081F0003A025D214E2007F049FFA8B96069017875
:1082000041F00201017013BD70B9DFF820466069CA
:10821000017841F004010170E169E06A0988018098
:10822000216A206B0988018013BD80B555227B210E
:108230004E2007F029FF052007F040FF99227B21FF
:108240004E2007F021FFBDE80240642007F036BF52
:108250002DE9F041DFF8D8750026F878002548B9F7
:108260003879DFF8D015405CDFF8CC1509780818AC
:10827000451EADB2DFF8B445A069B4F9041000782A
:10828000814212D0A080A06A0078E0806069007806
:108290002081E069815FE181216A8A5F2282805FBB
:1082A0006081885FA081667054E22089012840F0D7
:1082B0000F82216AB4F910000988303088425BDAF5
:1082C000E069B4F90E100088401A08F0D1F921F0E5
:1082D00000410022DFF8643508F0E2F94CD2226A4E
:1082E000B4F91000128800F1400191422DDAA17812
:1082F00059B3397849BBB4F90E10613989B29F2955
:108300003FBFA13840F23F1180B2884280F08680A2
:10831000DFF82C05417B71B1DFF82815098851B9C8
:10832000007B00EB80014900072007F0A3FE4021FD
:10833000132007F09FFEDFF81005DFF81025815F9E
:10834000925F914263DA491C60E0DFF8F404407CFC
:10835000002804BFF87800280CD1B4F90E0070286A
:1083600008DA01200AF06EFB6078002840F0F28104
:108370000120ABE1082688E1206AB4F910100088DA
:10838000303988425DDAE069B4F90E100088401A8D
:1083900008F06EF921F000410022DFF8B43408F053
:1083A0007FF94ED2216AB4F910000988A0F1400289
:1083B000914236DAA178A1B3397891BBB4F90E10A5
:1083C000613989B29F293FBFA13840F23F1180B285
:1083D000884223D2DFF86804417B71B1DFF864146E
:1083E000098851B9007B00EB80014900072007F0A4
:1083F00041FE4021132007F03DFEDFF84C04DFF87A
:108400005424815F925F8A4201DA491E018008F09C
:10841000D7FE0CF0DFF8322007F092FF4FF6FF7620
:1084200033E1DFF81C04407C002804BFF878002802
:1084300005D1B4F90E007028B8BF022092DB1026D7
:1084400023E1DFF8148498F80000002840F08280CF
:10845000E169B4F90E0009884030884280F27F80DB
:10846000206AB4F910100088401A08F001F921F0D0
:1084700000410022DFF8D83308F012F96AD2E0692F
:10848000B4F90E10008801F15002824251DAA2784C
:10849000002A4ED0DFF8C423462312781A4248D16E
:1084A000B4F91020531E9BB2FF2B03D340F271137B
:1084B0009A4211DB3878012840F0CF80DFF8A00322
:1084C000FB210068A0F84010F878022828BFFE7051
:1084D00080F08480401C80E03B78012B38D0002B5A
:1084E00040F0CC807031814280F2C88040F20110AF
:1084F000101A80B26F2880F0C180D148417B69B1E9
:10850000D049098851B9007B00EB80014900072060
:1085100007F0B0FD4021132007F0ACFDCA48CB4A5C
:10852000B0F91A10B2F91A20914280F28F80491CDA
:108530008BE0CA4846210078084200F09F80B4F9D9
:10854000100040F20111401A80B26F2880F096802E
:10855000402693E098F8000000287FF405AFE0691A
:10856000B4F90E10008840398842BFF6FDAE206A8B
:10857000B4F910100088401A08F07AF821F0004190
:108580000022AE4B08F08CF8BFF4EEAEE069B4F90F
:108590000E100088A1F15002904261DAA278002A00
:1085A0005ED0AE4A462312781A4259D1B4F910204F
:1085B000531E9BB2FF2B03D340F271139A421CDB74
:1085C0003878012849D1A648FB210068A0F840105E
:1085D000F87800280CBF0220401EF87008F088F8D8
:1085E0007878A67040F001007870642007F0A8FE4B
:1085F0009C4841F2707101802FE03B78012B3CD008
:10860000002B3BD17039884238DA40F20110101A41
:1086100080B26F2832D28A48417B69B18949098882
:1086200051B9007B00EB80014900072007F022FDD3
:108630004021132007F01EFD8348864AB0F91A1026
:10864000B2F91A208A4201DA491E418308F0B8FDC6
:108650000BF0C0FF322007F073FE4FF6FF760DE0FF
:108660007E4846210078084208D0B4F9100040F254
:108670000111401A80B26F2800D22026206A002EF5
:10868000B0F9000020823FF46FAE462173480078B5
:10869000084210D0012D18BF062D10D00B2D18BF89
:1086A000122D0CD0152D18BF162D08D0182D1CBF5B
:1086B000192D1B2D03D0E069B0F90000E081206A7C
:1086C000B0F900002082012060700020207041E09D
:1086D000207801283CD1606A0078012838D0B4F9AC
:1086E0000A00A0F1610189B29F2904D2B4F90C10EB
:1086F0008029B8BF8026A0F1710189B27F2914D2E8
:10870000B4F90C0040F2F1118842A8BF04261BDA2C
:1087100040F271118842A8BF082615DA802813DBC1
:10872000B0F5807F10DA10260EE0B4F90C1040F29C
:108730000112891A89B26F2906D2E128A8BF402602
:1087400002DA7028B8BF2026002020700120607057
:108750000120A070A06AB4F906100278914250D0AE
:10876000616A0978032925D1B4F90A10A1F17102CF
:1087700092B27F2A0FD2B4F90C1040F2F11291425A
:10878000BCBF40F2711291423BDA8029A8BFB1F51B
:10879000807F36DB0BE0B4F90C2040F20113D21AD3
:1087A00092B26F2A03D2E1292BDA702929DB4FF428
:1087B000006626E0052924D1B4F90A10A1F171025E
:1087C00092B27F2A0FD2B4F90C1040F2F11291420A
:1087D000BCBF40F27112914213DA8029A8BFB1F5F3
:1087E000807F0EDB0BE0B4F90C2040F20113D21AAB
:1087F00092B26F2A03D2E12903DA702901DB4FF428
:108800008066A169002E0978A1800078E080606907
:10881000007820811CBF4FF6FF70864203D041F2E2
:108820007071104801803046BDE8F081BC00002026
:108830009C0100201C2C0108A401002000004840DD
:1088400088010020A29800207C000020242C010830
:1088500000008440642C0108CC9700206E020020A8
:1088600078020020989800202DE9F04F0FF268411F
:108870001CC9ABB004A80FF26C411CC019A8482257
:108880000CF050F90AA80FF2A4413C220CF04AF96E
:108890000FF2D4411CC907A875211CC000248DF813
:1088A0000440012300AA4E2007F0F0FB01230DF144
:1088B000050273214E2007F0E9FB9DF800002728F0
:1088C00080F0B580262804D19DF80500062880F0A8
:1088D000AE804FF6FF7100200CF078F90FF294454E
:1088E0002B4622465A2108200CF0A0FC2B4622469B
:1088F000462108200CF09AFC0FF2A44322465A218C
:1089000008200CF093FC0FF2C443224646210820B5
:108910000CF08CFC04AD03262879AF7995F805801E
:1089200095F801908DF80300E8788DF80200A8789A
:108930008DF801009DF810207B214E2007F0A4FB4C
:10894000012007F0BBFB4A467B214E2007F09CFB31
:1089500028200FE09DF810207B214E2007F094FB8B
:108960000A2007F0ABFB4A467B214E2007F08CFB28
:108970004FF4967007F0A2FB012300AA01214E20BC
:1089800007F084FB9DF800002128E3D19DF8012029
:1089900002214E2007F078FB9DF8022004214E2092
:1089A00007F072FB012300AA05214E2007F06EFBA1
:1089B0009DF8032003214E2007F066FB42463D212F
:1089C0004E2007F061FB3A4652214E2007F05CFB37
:1089D000642007F073FB012300AA52214E2007F008
:1089E00055FB9DF800002E2821D1012300AA052166
:1089F0004E2007F04BFB0FF2044A47F2181B1AF8FF
:108A0000012B53214E2007F03FFB80B9BBF1010B36
:108A1000F5D14FF4487007F051FB012300AA04215F
:108A20004E2007F033FB9DF80000800701D40120A1
:108A30004EE1012300AA01214E2007F027FB9DF8FB
:108A400000002F2802D0761E7FF474AF13480390E5
:108A5000032613480290029F9DF8012002214E2018
:108A600007F012FB9DF8022004214E2007F00CFBBA
:108A70009DF8032003214E2007F006FB4FF0040869
:108A80000398874200F09680387829280AD02A284F
:108A900028D02C2848D02D285FD077E0E3FF0008AD
:108AA00016FF0008F878B978204341EA002429220B
:108AB00052214E2007F0E8FA601C02280BDB07F178
:108AC0000109A24619F8012B53214E2007F0DCFAC8
:108AD000BAF1010AF6D1EA7967214E2007F0D4FAFB
:108AE000E0191FE0F878B97841EA00292A225221DA
:108AF0004E2007F0C9FA09F1010002280BDB07F14B
:108B0000010ACB461AF8012B53214E2007F0BCFA7C
:108B1000BBF1010BF6D12A7A67214E2007F0B4FA97
:108B200009EB0700471C31E02C2252214E2007F0B0
:108B3000ABFA07F101094FF01B0A19F8012B532179
:108B40004E2007F0A1FABAF1010AF6D16A7A67213C
:108B50004E2007F099FA1C3718E02D2252214E20A2
:108B600007F092FA07F1010940F2E11A19F8012B16
:108B700053214E2007F088FABAF1010AF6D1AA7AF9
:108B800067214E2007F080FA07F2E217642007F011
:108B900095FA012300AA04214E2007F077FA9DF8E8
:108BA000000040065CBF01208DF80400B8F1010808
:108BB0007FF466AF9DF8040010B1761E7FF44BAFD2
:108BC0004FF4967007F07AFA0221AA784E2007F047
:108BD0005BFAEA7804214E2007F056FA2A7903213D
:108BE0004E2007F051FA1D4C19AE452714F8012B01
:108BF00016F8011B4E2007F047FA7F1EF6D1EC7ADB
:108C0000224667214E2007F03FFAC82007F056FAA7
:108C1000AA7802214E2007F037FAEA7804214E2084
:108C200007F032FA2A7903214E2007F02DFA07AE19
:108C30000B4F4FF00A0816F8012B50214E2007F079
:108C400023FA17F8012B51214E2007F01DFAB8F135
:108C50000108F0D10AAE034F06E000BFE4FF0008B0
:108C60002A000108340001084FF03B081722502168
:108C70004E2007F009FA16F8012B51214E2007F07B
:108C800003FA192250214E2007F0FEF917F8012BA4
:108C900051214E2007F0F8F9B8F10108E6D122463B
:108CA00067214E2007F0F0F9C82007F007FAEA78AC
:108CB00003214E2007F0E8F9EA7802214E2007F060
:108CC000E3F9FFF7B2FA4FF4967007F0F7F90020D6
:108CD0002BB0BDE8F08F00005577AA00E3082EA066
:108CE000908488827315141328292A2B2C2D25246F
:108CF00027261A1B1C2F303132331E1F222311123C
:108D00007F7D7E5B681716191808090A0B0D0C0F7A
:108D10000E1040414443424847464D4B4A5C34356F
:108D200036375E61606C79787000000017181A1988
:108D30001C1B1D0608071F1E090A0B15200C1621F7
:108D40002223240D0E26252A292C2B0F1011122D3B
:108D50002E13142F303231343337360100050435E9
:108D600038394342454447001D1E1F202122232439
:108D70002526000020202020202020202020202028
:108D800020202020202020202020202020202020E3
:108D90002020202020202020202020200000000053
:108DA000202020202020546F7563682070726F6728
:108DB00072616D2020697320757067726164696EDD
:108DC000672E2E2E202020200000000020202020B2
:108DD00020202020506C65617365207761697420C4
:108DE0006120666577207365636F6E647320202051
:108DF000202020200000000026067118526BFE0083
:108E0000CB7C98D9AB78BC3424D9FEB01C5C1677E7
:108E1000047B4AF1500E55CF945B0A71FD54C8F49F
:108E2000724DC63A7EE62728DF979046EB929A521B
:108E30007EEB6E8F84F7561F64E2114492A3934039
:108E40002F88AA32FE57C9D9E80EA62AA3ED15919C
:108E5000CDB68D4118A99BA5E533D2C29E9049D9C4
:108E600068FD61A427E3708656DC2375C57252172E
:108E7000C9BCC8DB01F942373446D1C4928A59D4FF
:108E800047A1A52CC246D31545F007BD606F6CBE47
:108E900024E9D1DF1D62B3E3659253A3E5E7290F0F
:108EA000BD77094E3D77493B79DD267AEB8CB97C5D
:108EB000FAED62A15FCB42CDDB2648CA40BCF897F1
:108EC000EA8EC8C13F6CEBB285369026CA896D1612
:108ED0007DF7BA08387B906C975D3E053D8A7B0F25
:108EE000F1E29C499F9C86C0C0F18A2D707C9268FB
:108EF000CA891041F4D68797E5548BAF0D7431833E
:108F00003221829DDADB8DABC56DD1432851D73735
:108F1000B0BA9DF62EB84021849618FC1C71BFB2E1
:108F200020F460E17A1B87C25B9889DE69D50ED098
:108F300071C0793E2D570EA52F432680A1AB5E70E0
:108F40007450E5DB38CCFD36D9FFCE503AD0E5067B
:108F5000EA257A0D57FF2163A2D9829D41BF4C2992
:108F6000CAB55851CF211BFA2841B5FB273A7C09D5
:108F700030F7B228F045DEF54B9D6655168C21D3AF
:108F80007325EB9AB9DAB5CBE9072B1AB5A7EFA28F
:108F90004D7185E1A5A1F00B5A46F902283C363403
:108FA000BCA0E85D379AAC8DE039FF23FD97ACA7F4
:108FB000621B031C1D5A0530506E73FAB720A7F7C9
:108FC000BBDA3833C78867EAB755B3900AC49EA2A4
:108FD000E1ED67A26DBD3CEE076FC7710D38EF077D
:108FE000681FE25F3185E71CEED8E3AAD53D97C93B
:108FF000F13CFEBDC6B04153705D91C66A15B669BD
:10900000D46E6A556842185263C7FE9E189EB78791
:10901000A896FEC993DAF0A8F451262E9A9FEE671F
:109020001112ED07FAF1253D94AEFE1009F49EDA17
:10903000C08E843E8CCC306E7BA42207B5677F1235
:10904000F8E127ABC9C8156C0C540C6F4AA241E576
:10905000003D954D4003E844E7260554E97A9151D7
:10906000CBD2ADF66E0B7417D34A90D2CB42FC2D07
:1090700068D1A0D53E0B015CC1C6F41804BB097DC4
:10908000D67A9C6021FB1AC93777308859BC8ECCC0
:10909000C9D6423CB38D5EF8E192C6E143E81CAA12
:1090A00038C5FC547403C4C4DC9A7E806123CFB2FB
:1090B0009AB84B3398E0412FC1E5E1F607DA94B650
:1090C00015FA882C86BB7E0F6DD577F5A5F467F071
:1090D0000C462427555E01510E7140BA824F60FD47
:1090E0009D9B4D4398AF263A3BC84C4EA670E0DDA1
:1090F0007B3F66BF6B8F3EFA11294CB0975667E0F5
:109100004DF538731E7AFDE30D5CAA9954319C1B12
:10911000073D352D730743D22576B05D52087CE2BA
:109120007CC53F7F4FA06FE4E4F62C205CC23F5F1C
:109130001E503FA6EE4B84FD9F6F68B3768A283F92
:109140006DE7C8A38315C710C81B1B5DFF4D2AFF21
:10915000262768745A14F19C3BD7CDE8A15EC43130
:109160005AA095D3EBB7FAB1F1286554F9A585312A
:109170008DFE89ABA3D72E6DB312E757B7F76737CC
:1091800063A2DDC694EC8E15461546C070D8B90EA4
:109190004921E943D0E06BAAE9A6EF57C1B72238CD
:1091A00020F9798E854BC0911BEA41DF37D0B0059D
:1091B000F2EADA84A0F81A44BC4D69E1AC915F0090
:1091C0000306A5FAFB0D235CF9D866E03C86C2CD08
:1091D000D45CC56C28F6370C103FA4BAE56FF47068
:1091E0003C86A83F54EE7E990035E40D97434C86AB
:1091F000D4AB43AB49A2EC409334A5C20E86A9D0B0
:10920000126B768920F74AF9C0B6B96693E87154B3
:10921000EAFA4B9CBDD5174CEDD5AD80C2A9996536
:10922000C50115A9484E6618E1AF4928B6EB13C32E
:1092300040A4A108988DE6F17F753A2E65C54C9B38
:10924000D5258C1BD5E013E23E7E8037CF4C2E0611
:10925000293094DA8F3FB0CA6F9EFA6E5595D56269
:109260002250CCD26BDD1871DBEB1D8A9668EFD7EC
:109270005493887FB7D505671A22E9BB929F60F4A3
:109280004482A0F8A9996344949098122D637D4A72
:10929000DD3689593B4FF58AB7132F603F1B406F6E
:1092A00072AED59472ADE6AFF8CD312B718A8935A7
:1092B000E0FD3E21DD07EB3E76D2A63B3CF3AA580B
:1092C0000F5DBF45406B00820E5E6B5DC5607DB972
:1092D000471F5D2A301CF5C570ACE1BBE3A768EA07
:1092E0003FD940BA5FDC9943B8F8EDFB1DB281333A
:1092F000D838B8817C6A9FB69914C97EC30C5D4684
:1093000090CCEF5444BB6AC8540BCBDDADD3089E60
:10931000E80C6FBBAB3955B38F90D4B38FE5ADD7A5
:1093200079CC215B2AEA94B525C6D087E934EEA72B
:10933000D27BFB9B703C4D15B99D3C583A44766DF1
:10934000371ECBB61BB579B33C8DCDEB6F98EE5A7B
:109350002938876F6C8814399E8DC2E53BFB3AFD36
:109360000502CF2B220BBD02AF9B903794C5ECAF0B
:1093700064F0C5D3320FB3DCB751DBC651B8232834
:1093800049BF882FEDAEC462DDF827473400B673BD
:10939000290FC5FD40E8E6EE134E125B0C45513532
:1093A00010482663BC65111057C750E1E10A18E068
:1093B000744B1C383DBECC2889701633F9E5ECEFB0
:1093C0006A800B5AADABFFD2D49249EEC88C4EE006
:1093D000F164734FB2F996B57ABA0D660D36001185
:1093E0002CFFEC946459FE800323DFC2B9A7F54B30
:1093F000B335115E4B4EFABD13E367B2737B7596BE
:109400006F41D4D49B49C4A95E881B4A9931090392
:10941000DDBFFDBBB5EA57D2C1FBA0D1F352C7A750
:10942000A6FAA2ED587FA6D5250252D80E44B31A4B
:109430007E666F57C3EF8801121C41934221EBAA4D
:109440003CA9096E9DD3955665F3807CB8F159E32C
:109450006A789650F5768A68699C33CF11579D4695
:1094600089778F1717B7029DE7BA120D133A120DBD
:10947000173AE76797E2A2EDE1BA1258BA61A4344D
:109480003C46EA5D138E4D9BC6728278B13F105CFC
:10949000E48CDE76FFB13E580C7CB1EE0F337C5588
:1094A0009E988601F0A7B8A0D5015C87889FA6F298
:1094B000C72D3EE809242CCC84F3D3AD5F19C2A29A
:1094C0002413332F4918F1BD18C22B85398F5CE85E
:1094D0001B18B41EE0D194467B8EB8ACE1E785D270
:1094E0001ABCDE9211DE72ED6FA6DACC44B4B99BE1
:1094F000EA0441A373E0C3F238903D1FC9B955D8BF
:10950000F3811295FBA44530700B5DDBBB219022EB
:109510006898ED4E9590B2669091E8E5B8ADCBEEC7
:10952000368D48FD88DF7B913FFF381102F039C945
:109530001F3D76DD67604DD1B33880535BCDE9E2E6
:10954000E69EF756016F926E52B9668B0098F6E56B
:10955000A62FA2C81739B3977863DD803A05AE28E5
:10956000210B200F88FC7EDD27F4AF57EE16935AAF
:109570003831413E21052CB17E6FC6D257604EF77F
:10958000B24E3044EB188734930D3A306FAEDC3175
:10959000BC8198B6E14163BFC5B76A2DF780D91386
:1095A00007652BF0CD91E04161AB193BB5232F1737
:1095B0003BDF42EDA691A441F25EFB2A14378CB941
:1095C0005FF7073ADD4DA332AA20DDD5B0B8386F7A
:1095D0003C045F1E8463C79AEAF458AEF1C45D256B
:1095E0003F50315A4A5EC316CEFDFBEFDA08D5A5CF
:1095F00053217ED447A7C4F15E2593AFA7FFB127BF
:10960000470E8A4B6C8549EAD5B95983FAA90409F2
:10961000FB4EF6D0FB83F4F1B78CC5F11AA30622FA
:109620009C1E07EC736D0F79E6B9EA0CD037D99818
:109630008E0CEE7444F113F418CE4B3429C8402339
:10964000DAD5CBEA0801671463F815D8B769E00EDC
:109650008D9F0514C0B2A6E6F494F37C44404BCB36
:109660005844DB8E9A7A2EE33574CB328CD1BEBA55
:10967000FB4624B3CEF03A9B653ABF653A02B91F68
:10968000C3354B55258E33D584CD49F85E9C73D0B8
:109690003D67354F65A40EE42EC7718AD61CA656C9
:1096A000D7D30564D5D700A5A4A60981B87B6B4F95
:1096B000446670CD24663071AB9B20AE690F17EA0B
:1096C000C7974178268D1BD3DADD3E9DE14A059888
:1096D000E571C7550E88A28BC760402D90EC4711ED
:1096E000D7EDE3EC469C5A96AA5C160CD60551DFE2
:1096F0003A95F63ECCE6A31615D24E513ABDCE5D54
:1097000071BFE6B8CD8B3679B809A93EF1E663A7FB
:109710005B0BF4E044A6A898CAB2CDE4E4B5F967BF
:10972000FD933D91B71BF6E466EC4EDA7CD0233610
:1097300082C7AFDF59B9C2BD559026B4A3BDF7C8E3
:109740005E44A8506BF80C09E9C610715362F0151D
:109750003C63E303FA900680D9C75290B05CADD465
:10976000347BE0BDBC486AB376DA745B2EC75543E0
:109770000C5A188CD1E7C86B7439E689C9E45F1AB2
:10978000281539A2D963D38FD0795488B44D1B06DC
:10979000FCC698E99917B57BCF1A276B1C0C0D9C5A
:1097A0005D9973FAE7BD6A4F65A33C702193FD1282
:1097B00046CDB9EB54B1BC142C6409EEBD4E43FD4B
:1097C000661DF52AA415A81CD074935ADA51EE55DB
:1097D0004CEB66802BE35FF78AC4DCC49C0844F43E
:1097E000C4C4D484CBC49963B6987C8470041963D0
:1097F0009B3228C1D64AADDBC2789173DB47C2F8F1
:109800001CC9936A18F1C39AF2DCC3AF3A7DB61053
:10981000522DD33F3B4C9D7BAA781EC1776119B175
:1098200037B729A088E2513CEBE3FA8A8C568B8E3D
:109830001C7B9B84F55FBE3737D45691062E862954
:1098400099C5908D01201ACCFE839C741101EF27DD
:10985000AA1AC1FBA79E726B6C214B46F29E5EEC6E
:109860004BD988EAB63C86AB51947A0E76879C76C3
:109870001905DA4FC32567B5CADD012C8DBEEAA8EC
:109880007E05F11E5200566F7B8AD01F33E2A7B2CD
:109890008F18A239F36027EE55AE1F7ED8B2499AD1
:1098A0005017BE022E7C7B087A544BE807E798FBE2
:1098B000A9666FDCC007F33490A77399FFF9A2D6AD
:1098C00030C00D2275C9592CCE01B06A0A19B520D5
:1098D000DB61C917449790057D313B213C09BA8271
:1098E000555B1E2B48E12AEEDF4FB656CFECB6FB98
:1098F00045AD411E01287B84F3F26955113EC17DBF
:1099000084AE30FC1DFC54C1AD29DBAE535583C37E
:109910001C4C2A4D9FCA53934C878D9B31DF0429E1
:10992000E00F80759A5C8F195972C1BF847D0A8FD0
:109930009FE6698E74C2FA82F25098C6B46D3C20DC
:109940005AC232A618C60F5EF985E68CC892083D49
:1099500007799991751315665E84205313A57710C6
:10996000211D4045F7C8205373BB74F34E972E0159
:10997000B87BEBA87A8AC3D5F74550C62EAFC32C67
:109980006193C723FD6D359381D468C257FB22795B
:10999000BCEF64646F086DDBB839A6616175E530B2
:1099A000C139A26DD634BC7DB40AAEDB17F8A03D38
:1099B0007288C458D3C4B29F60FB0B6BF1A79AC9DD
:1099C000DCDA23D003A5374165F304538E131C0161
:1099D000B87BEBAC4C8A963F23E9D6E61B10BD0161
:1099E000384D4DBCA5ECCFA364EE948E2144229754
:1099F00086222CBED5E8D48E81971419C8DB6B2E35
:109A000065FD2DA15FF3DFDC3242D967F62C52B73A
:109A1000F39F0400D7BDFA0D2F753D813248900B9E
:109A200094333B8F9C00EBC61271B54039E09B2606
:109A3000A7EBEFC73997C5277617D9D7F018863225
:109A4000FC813FA38C3DF93E35485AA483AF578C27
:109A5000D344B2F9F4C3EF3EEA7DB954561361B270
:109A60001A1C770E5F14DBAC9234236CFDE60641C2
:109A7000F477CB8AB26B44CDC9BBA38B55344982F2
:109A8000CF41C5FA0A3DB78E8AD2871AD3DB005977
:109A90009E2A73F61AB52B95E0D0963D3460FFEE02
:109AA000AAF8AEB9B8605B9B160BB1A7B80830BF77
:109AB00069C2B249B1B38112A71E1F07B9976D21C0
:109AC00033BDB07016BF5A8FD4B846DF9D3AB7D8B1
:109AD0008C08A6991C0F8902F24C8B14D64EDBC65B
:109AE0002283B6AE3A947ED4A6B496936187609FE3
:109AF00080B5BC50711EAA9B2438E36C662CD38FB2
:109B0000CB4B31A78DE619C223569A30D995D5BAD9
:109B100002AD8E33AC480B3CA9A68641594D4BB7DC
:109B2000992247A4CD6CC7C3C5557A02A37B40AB2D
:109B30008BC34C88E69A0435A0853C86D09FF508F7
:109B40003A049B9F86EC8E30ED19AC8F59C2FA77A0
:109B50000DFAF7C25246476C42F47B755C2DD1BAC0
:109B6000D79DA4AA1356BF0C81E2E71EF432AFBC06
:109B70003FD3189F7F1E3F50B9F11D2AF7404C4636
:109B8000469C0E32AF8E8B2B75712982A28B51D2DF
:109B9000F7FE2177CD605EBD642A13567FD3169100
:109BA00099C855B7AB6BDFD3E5E2216A4B3678A491
:109BB000D269EB0BCDF7AEC86A91686974E15FE7D3
:109BC000C9789D15E8EC59A3552EB2991E0BCC2CE3
:109BD00005106ACE20FCE965498F9D4B2AB03B5A9F
:109BE000AFA34294F28D77FB4C04D29D5D13EC87BA
:109BF0000F14C77B498FD7663B4E3D560438D4259A
:109C00005A76AD247AA4A1374943B00193B706250B
:109C10003B0F3742C2D1C9838F8A42AD3AA2E76770
:109C20008C50CB9F7D65719E6261940967679861D6
:109C3000B5C7D8CC1F53F09C8C69847403738576A8
:109C40005EACE36F6270B610706E8A1D79626767F2
:109C500071855CC43009194E9A4BC0912E28DBCA1D
:109C600099310903DDBFFD86F3F363BAF90460BCE3
:109C700081AB130FD10537C7A065A2ED13BDE7B2C5
:109C800091CEC9EE1F897A88E71B331A31799A7D04
:109C900063FE67B281CDF494CE559963267C9650CD
:109CA000AF9F50F117CFC7A7B24CCBEA1FC7B5CBB8
:109CB0003A370278073EE56B4DA83C049C171963C0
:109CC0006B23FD86981C29C3130B51DEB09740917E
:109CD000D8340625EC1E2732C55ADAFD12FF67B2CA
:109CE000A766754B5536027802E579A38A7C6B5FCF
:109CF000DC47E2B88D131F772A725DFB64DDABDFB2
:109D0000702C0B6A1B8043FA12066051A34FC7A741
:109D1000D3E6A2ED2EBE120DC53F1258A1931F77B8
:109D20007F242238F7134A9D218A788CB3202A2871
:109D3000C7A7F98E8C3FE943C19442F8713D105C8E
:109D40008F8D70B11BD3F298444D936A15DE983E07
:109D50009D05C29EC0D91659C069A32733E21028B9
:109D6000579F89A7936B57DA958315DEDDCE9A75D9
:109D70009E94982B6855CB5F901ABE0D3BE15D7E9B
:109D80009510FFB26D95606449A9EFACF755B79C8B
:109D90009223610A8F6CB6AED23961DF10D2E3AC88
:109DA000D2EC4B08BC3AFA048B5EA7E0F0FB896169
:109DB000B2E7A1E44DE040F49EBABCB9C4B46ED59C
:109DC000B1DEFA2D6CE44E145C046205C77B755558
:109DD0008FCF98704CC319C757209785A04C5E77DA
:109DE000D4870E6AAE2E1CCE83532852D410031C87
:109DF000C059B44A3934AB97A82026FE3C88F69E59
:109E00003C081B54DE67F318CC1B26DC3D0594414F
:109E10002AF9C42C6886A0D8CF0254D2B16D36C6B8
:109E20001FFF46D868AF7BACAD382EDD17D1DC8183
:109E3000475BF4B991F905E8A3663EB5AA70B80C82
:109E4000ED936B2A4CD12F5626E81DEA4367D67B4B
:109E5000282D3BAF78A2B78CCE94BF6ABC023A3BA8
:109E6000C27D6197B506FFF1BC027A3B9A16FC8A67
:109E7000B1916F5957654728F7F1407359C39F5007
:109E800060DE5FD0B5AD7584F82EFB1F4AE444D484
:109E9000647BDB46E9817AE656C269CF7F96676BC1
:109EA00032385CAA3B32FE9304CFE47A174037CABB
:109EB0000FA51A451C2101F3748D124A1385CA2F70
:109EC000ACB77E001536D33F06E8C3A25DA12819C2
:109ED0007BDF62DD3F5BCD86D131F2743B9FC31DDA
:109EE0006A24E6D042C498957903DCF8206659AE1E
:109EF000B8FBECE9DBF89891E41F4BE298BCC12475
:109F00006FCB4EA716956A2E9B1737825530478127
:109F1000AB186D563F5DC5A32FA7CA66D1E3126A81
:109F2000BCC9D4B98B6298910BE3DFDD37F5B288F9
:109F3000BD7F6AC0C14302D17ED64DA9CFE78860FC
:109F4000666D8680B24418918414CA9962107B1F92
:109F50000077C327DDA627B1B246011E012621E006
:109F600060F1DFEF53B1C2CD9B1005A8F011F3C033
:109F70005083A45456B4F87E5ED58E3F2F443A37B2
:109F800050BC275478F95ED55685EFAFF2F8BC6423
:109F90009839B37AD49B26E87C19120FCEB9DCA489
:109FA00032744D625FA263D6C1CAEFF7C8D7BE0C48
:109FB000B670C6E3FBD0FDE67D81A24BB47EAC7EDD
:109FC000092362275E1A9C24B14582504FD0A58B8D
:109FD00010B6BBF77F02C0A770EFD9FC9D9BB0F60F
:109FE00046F894A99C3AA46874297CCF5333B7A748
:109FF0006A2177EB0C2B06F0669563B2F5163D8669
:10A00000F119BD094278DB3E8F5F8FE2F4167CD9EF
:10A01000C98ECC6621E355B6BB86DC9A498EFE51CB
:10A0200032C62C4483D9B77907478DE8C022E409AA
:10A03000EA2065E9255679069CC62E7563052FA88A
:10A04000A787BF08003D823921733DE7E3E25DDB6E
:10A05000A71FF402AB82CE80D9A3FBD2FD1B520016
:10A06000BC36E113601422875DCEAD7B875F7056EE
:10A070004BADFFD7A8F04CD1ABAA9029AC81AD1461
:10A080002D7B707546F879E3E767E3E368CC596E9A
:10A0900091AAAF4244BB269C4BBFCB48D532CABD28
:10A0A000BDAA69194F8216C112B7C6C591F0B04654
:10A0B000192E9ACB86AAD1BEB98BABA4E20DE210C1
:10A0C000B0EA53BA256D08C729F16707DD4C321095
:10A0D0004474ACA59BFB0121C74788B4CCD1C670A2
:10A0E000095F6913FC8B46704B5FCFDF8FB72AA0E7
:10A0F000ABE4E755AF773D0A676F6F22804C70AED7
:10A100005BCDCA3DC152027084F425F43852F90384
:10A1100024CD0AE35BAAA3F68120D5B65D4560464F
:10A1200056E294A9140FBC0C219322123C256755CA
:10A13000A77729A2D3B7F7D72AF709BD71E352054C
:10A1400094BB4CE7E8CF11939285E26F9A2B49E3D9
:10A1500072C55F65C7835FF27DB6E5E6EDB73A3D50
:10A1600027E292581644B3CFC2F0B6C5D70D4CE4DF
:10A170008A8944F4ABC9996398957CB92AFD811307
:10A18000A9FF7D86B6EC636F5FCF9D7B351F68416D
:10A1900030E886705CA41E401043D0DCFB7E7F82DA
:10A1A000BB114983BEE09605E4B70D66C06C8E1501
:10A1B000FAF78D1BCD6A57872465A23888E6798E19
:10A1C000E513233AFBF96F5780A5F79205E4A0D178
:10A1D000BA9858CC6E3604744241EA5D4A2726305C
:10A1E00084B81E40650564B48ED5C4A99FFB6D5B21
:10A1F000545CAB2ACCAC34C96E212C24EB026A5DD2
:10A200002325263097F38A1DA1708C645C4AFEB525
:10A21000CF5EA7E75A985CC41DCAFE80F905646941
:10A2200028A12C24EE2F301C318F45F679B1E36F35
:10A230007DD29D7B00DCAB2AA6AD09031F961707D4
:10A2400099185CF962E0ACD92360AC24DA9444F448
:10A2500026D5994E660A7ABDE9F061539FE2A82C93
:10A26000ADCFF0B1ABB40625A845E6656B2A0D1B52
:10A27000F25ED6D04A39F34F7838F19EAA52A3EF56
:10A280007CD19D46C968BA08AF7D656B0FC1BD3BE7
:10A29000C9013D3B62A556E5675A35FBB2C9045C6E
:10A2A000F8B276054A8B894EE8D184D15B95B374B8
:10A2B000F5CD3EFDDEFC5F024C80BA102DE4D94E98
:10A2C000A0D8995E7E525B9DD557F15F7773CCB075
:10A2D000839968FA18CD8A8C2588F9A1251ADCCFD4
:10A2E000DB3A05C92262D1F94E2D4A4F096EF6A616
:10A2F000E3E0633BF418FBD8BAD089263D411B2428
:10A3000055B05F2945A3F25F114FEC9189BB4BA972
:10A310005FEF84E71D3F23A4BFA8A863DEB67E2AB3
:10A320006C40C9FFE6BEF17A56CB7A24D269658AC1
:10A330004FCEF42A7C147CF9CEEB188E75EEC0A4B7
:10A34000E55EF35F73412BFB48B9A785642A8E2530
:10A350008B12B91DC034225B6CD4892E2F87FFCDA0
:10A3600023A18A5B5AB56E49B5039758DDDE607646
:10A37000D5047FB9AA90B5DF9E7B395E6DA8936D39
:10A380006D9937D3AFDF9BFD07ADDB3F667108A743
:10A390000697F8DCDB7112572760C03C0FFBFEEF1D
:10A3A000CB984D0E08E10B6CFA6B4CC3BD7246F4B2
:10A3B00023BDE23E3563B2600D67F3CC140C2BBDB8
:10A3C000AE7E985DC82C4E735EED9DAA6C4ACA277E
:10A3D00053CC2B1FEFB7D6C07494F25F4A407BEF8B
:10A3E00045DBC42FB3F08A56DA6A007EF8012D1AD5
:10A3F00015F0327B9659785B7038A236B0B61604E9
:10A400007B17F3DD8345542FE6106B1B8C30A22D98
:10A410002565F2558993372B6D58242CC5E5907826
:10A42000B86F34593302E4853DB89A6D0B7231949C
:10A430004BDC67A22D0E91A78F78C372DF6A824131
:10A44000141E365D3F06A0CB88FCEA02874B61DB19
:10A450000680DB929979C11BDB4911922405927A1F
:10A460009C810527F644EFB84E7220D3E2C03AD65D
:10A4700086D0233E410F810B0D88F1AB4AA812B460
:10A4800098748C28DEED76D61B5A08B17F1F569F34
:10A490002DD9CE22DC9368DF631EEA91DE440F0FD4
:10A4A0000598FC9CF9966E4C44E3F736E2A0816D6A
:10A4B000300C6EC38F0F0D3ED5489167A3EB1AB7D2
:10A4C000EBF5B79B6F5577EB22BA37B2FC5BDE7AC0
:10A4D000505E13B16A04D15C9ED3A72B407936FE3F
:10A4E00091BA1A7B1B3CA002D1F6E0E9D257F2BC2C
:10A4F000D15BF9116696F3A4B9A132E814322405B0
:10A500006452748FABF9DFDF422F132A19F8DC682D
:10A51000F90C28AE963E11EFB0FA1955728BC3D2E2
:10A520002B5990B22389CED7CF352A986C8F4C1AED
:10A53000FE4C09ECA82E6B74A8C8FEB36BB1BA1B15
:10A54000A312AD59C2FA94D3DF6E2843B666D9FD83
:10A55000BAEC8B5962A363692AF51187E439323169
:10A56000DB49DC41FB8CA2DB1AFF8E3679BD02860B
:10A570006266F1507B67F6388CE6E1BD028B51874D
:10A580005A3B8081B2874E4BCC61023EDEB19FAB1D
:10A59000DAD94CEEC2B6CC07A1911D0E20E680851B
:10A5A000139EA4BCF23CB489A610610CEC0417CB3A
:10A5B000B7864EEE1B92F8014552DA08FEC967A530
:10A5C0006B17D23A38F5F3A3EE7F701572871CAF84
:10A5D000B76C2A5DC242C557B988C81ABDA6F33EFA
:10A5E000D7123141797539169046D605F58651B89E
:10A5F000EAD78EC21C07C9A7AD0A288EB53D5D3BC0
:10A6000032A034B525F9DBCC1CB58BBFE1CFB50347
:10A610003A582114F5CC05664B54FB2E6AFA65AE08
:10A62000F5200E992B4EC3C56E51AD085B6C64C20C
:10A630005B6A69F392CCDA934E2B8AC8D75B9DB3E1
:10A64000F732BEB3BA101BDAE0E71DA85CD110F8F0
:10A65000107698E4DD64040A94F9CC9BBE99C67226
:10A66000CD48641A204E5D0B121D36DEAAAD6B85F7
:10A670004A0C45B45B880B7981288FADB8E471EA48
:10A68000D5E2B695155CAAE232655ADB773762F8F7
:10A69000022C29A833339B0B9F829AA788A509CE49
:10A6A000034BC1E49FB3B2A8468A61F8C756661E41
:10A6B0002FA8DC58640D7E85A376B80C09333A5870
:10A6C00091EE451BCF07021885221071C4A8DBFA52
:10A6D000B01C6EA07DAF0A68D196D06C741E19FEB6
:10A6E000B050546445AEAA6D764B6600850325369E
:10A6F000FCC2D4D4D0F3B031FECDF298F1A0D39502
:10A700002582AA8163207A070E44C26447A3964F2C
:10A710005A6811C517F3A56F7F31BEA005BBDD33A5
:10A720000731B94B1F0ABD8D5018BFA6AD0E1D1DB8
:10A730009DE68EA00323E9DC64C9D72705E381DB0E
:10A740006A2DAF12E17CAED5FFC2A7E75E8631333A
:10A75000BA6D5A5E9061CE40C033DD6257BB89DA74
:10A76000BCB59D98801707DF29DB7C96E2A74507DB
:10A7700020FE9607AE97138EE6A066EF91C137EDE7
:10A78000D2D752D9D409A34901AD3810C4A946166D
:10A79000CBD1BBEF0F29B38B1B6F60B86FAF18AF76
:10A7A0009BD7728B1A677E1D12DFD69CCC705363C9
:10A7B0000EBE1449DD17D6549CE3B10BAE24BFFF87
:10A7C0001C3D7BBAA8D0F9C4E544202DDB90387E2F
:10A7D000897E91F95E866D2B7377EC2D7F06AB3801
:10A7E000E2CF4652DB6EE4BA9E12A37D9A1AFF684E
:10A7F000C592D3CF303406D1223293073B61B001EA
:10A80000A0770786486ECA2A2CEC873B440E971225
:10A81000BAFD0682DADA3657733148128AB1473AFE
:10A820006EFE00D5C99A27E34CF8B1D9287F579618
:10A83000F6431CF460ECE4670D6BC7741E45E369D6
:10A840001163D7545EC5E36A084CC3196E4261A216
:10A850007B109FDDA3636AEF62149D50300F71C0BF
:10A860003C862449D0A760E103BD3E99FADB7381A1
:10A87000B977525A9DD983DDAF636AEF6214DD6404
:10A880008CAA7C634F15E5C05D2B13F26A0C5E58F1
:10A890001C6E6010AD43CA2613F32FA0620C4893C0
:10A8A0002AF851CE31E035E1FF7A518DAF55262798
:10A8B0002BA037B3FE160652D67AC38E399A7EC2C3
:10A8C000974A8DE10381450F67CDF73FEBFB576258
:10A8D000CCFEF5DB15E1BBF14C17B2981CFC0B90DC
:10A8E000D39D8D1CAC905309ABE23C74507424CEC4
:10A8F000F4DE9CE10AE7AE7A673C149DE7E1D543BC
:10A90000F9240AA0EF4FA34DF2ED781EA6405301A3
:10A91000FCE2DD67C20167E17A0BDF50D804CDB6F7
:10A92000D58793998AEBF237E3AF892A49163DBD63
:10A93000787C51A61C7C649BE7F92C343163A64FCC
:10A9400016BF62EA9DFBAE6743C44BD106BE84D5F9
:10A950002A732A670E5536FB0C7CED55951BFF5C60
:10A9600042B54E7E99754B01F8B96F41C4EB4C7EF0
:10A970006D27EACB0883CE23236078181686916E64
:10A98000A1F65224C8F555503CEFF18B3C977287E5
:10A990004D1D67CA2C9068B60208CCACC97D36F54F
:10A9A0004528C088A643F2A0660AD7217E262478CF
:10A9B000EA054756181DE62DCB793DE5939A8706A3
:10A9C000CB316E0FCFD8D3466488CC4AED659A312F
:10A9D000EB5E0B992A281FE01CB7F126E5C5AEE90E
:10A9E000A3F76D11382E86BF436756E6C1BE519A54
:10A9F0009DFDD0A9ABEE751097BF1A0CB1A500252F
:10AA000004B0944635C809CAA880890196FBFDA9FF
:10AA1000297708164CB6A40363593998011360D9F5
:10AA20000C3D9E950ED765AE7521D436AA4C7FD1CC
:10AA3000E39275B35ACAD7356093C0A2D4F11EC24F
:10AA4000C715A3FE3623E7AAE89B4866281D416286
:10AA500050E9AE9668BC29378660C9C9125C46E7E2
:10AA600012E086E77C6E83ED1523636CDAC74496AB
:10AA7000D505FFBD77C28CE358EFC7A31003082BA1
:10AA8000EB9D789E64B109E08EBB3DAEA1870C16AC
:10AA9000D4CE5B09FABD7CA8311FB20DBD71F0B3F5
:10AAA000747A7DCB1AD0647A3C3EDEF12428831F71
:10AAB000BF0498ECCC2AA0646A99D92F55E7753F5A
:10AAC000EE5B289240D4F98346E6F3B9BD4B5B05B3
:10AAD000AB72B8946C446D49EE253E7DF6E0FC8A7D
:10AAE000E51B972F90C4AE347381AA21C316EB598E
:10AAF000A8ADEA95E1C232FE74EC47AF22FE4B43AB
:10AB0000CFF5E2A9FAADEF4727AF03375778CB402F
:10AB100055E6CA2D799477251222367384850FED78
:10AB2000B2911E8210028AA18AC09CEA71136178D8
:10AB30004094D0D52BDB76C162E7CE8D6713870BAF
:10AB400008A25E9F0E431FCF8B7AC0E28C71C5C3F3
:10AB500018AA1D211C84A7719F66FF7DA3D8F88CBD
:10AB6000A33AFFB7233222ED1277A630C0D0B92323
:10AB7000F67D6B5F3C789C4414C9D3DAC7863516E2
:10AB800079F655D665AE0F1793A2223804DCDEC0E5
:10AB9000ED36DFC228097494F9D3AF728811498366
:10ABA0002BED6B5FBC7D719E719340FC3CE6AADD92
:10ABB00000758C1919A8184CF624D9E3B53228C1B0
:10ABC0000947ADDB159F3D3B56EA822DF6A02C6967
:10ABD000BA48C6A5070327E79B0378E285F27A59AE
:10ABE00022273B1A35755A5352A28C8EC7F49225F0
:10ABF000AF5B6208CE81D390A647C9BDF78FE274E0
:10AC00006B1988CE0F299316C7BAC1A4C9FD8481D8
:10AC100094F0D37BFB9C013DB9D3FCEB55D01BA139
:10AC20000EABB8CD0082A6FE9F2FC35A445EDFB2A2
:10AC3000BA4018166579BB97BEFDB2A68F084D7154
:10AC4000DE119832ABE4D46A39A76C9BE7276654CF
:10AC5000DD6C9D21BB70F92A7DA2021DF57719BE1E
:10AC600093C3EE8888557CCC06BED005B10DD9C6FD
:10AC700037096AA322F4D87AFF0F1FE25E3F6332DE
:10AC800029173AABBDCA34F9B127C0969FB512381F
:10AC9000A517F4D4EA9F837FCF3E74CEFF6EA82C15
:10ACA000E1EF1559179EAF8476C4F3748AD70B9DD4
:10ACB0000242C6642A1B2CC5310410A614F32FCE01
:10ACC0008CCD63A28BD0B72F0F74D832AB3AAF3F85
:10ACD0003322AA400E215215F4B560B5E6758EF008
:10ACE0005DD137E2ED13EED03EE6307C31766585FE
:10ACF000D8ACA45929B9C0463E979CD349541A2AC6
:10AD0000D827B20D378A0DFCAFEBB161552ED32B8E
:10AD1000B1221E05C7C2658FEDAA5F967F2F97DB14
:10AD200085AE55D7FD1EB5C282D6CBD2F639699015
:10AD30003603D0B19ED71C2E8B1F4D239A5DD61C97
:10AD4000D24DA77BFBAE23EB370F7AC875082BFFDC
:10AD50009A68915D4F59269EECA9F28B692AAED96B
:10AD6000B36102B6E14FA39FD223112EF0E7F97829
:10AD70007952072AC1CBD7247FFF30695096C4F39C
:10AD8000ED9DB433F773D4D3C623A536C8BE75CEB4
:10AD90009F06691A414FDBEE49AA8359105C71483E
:10ADA0008D3DE4F60E2E067804322C7D3974E317BF
:10ADB0004E169AD9087AC3173FE5EFE5C28ABF1647
:10ADC000372077B791E2DD94A063E3246117904DBB
:10ADD000763C0551F6399E6ED57DC8D49D19EE4A54
:10ADE000FCFBE4E79CAF3EC489E9694880984FF1D9
:10ADF0003EAC37EB617FE6FE61473820688CD9882E
:10AE00007AC67E5EC9737006B4206C03A399F55FA1
:10AE10009E556B0158F22CCDA90EEDC52FBDF20D3C
:10AE200060680B0EC66248FA883221673A4ED53503
:10AE3000E95ADDD9D6B61B0E342B38D630F9A30922
:10AE4000B5E842D39FDB9DD72C2B17B73FC14837BE
:10AE500004F739D4E99E6DB8D7A11DC546DCBAC840
:10AE60004FA16FB6B13DD970A0C12CFF9C75F805FC
:10AE7000EA4F73B7ECAB7A40845FD914A6481C1E26
:10AE8000406C8970C7FD91743F14ED6B21C525A1FD
:10AE90000CD31080BE446318258CCDD9C6BCA11537
:10AEA000BAF34C358281DE8894F10563444FE6693C
:10AEB0004651AC326B969E8A86841E38959AE35929
:10AEC000622FB2E5B9C612D9950BB0953CD2029B60
:10AED0006BA072BB5D5DB726E5B66E8A32B63CBF2D
:10AEE0004D55B9A5D23936FDE0D69F6C5D7D14CAAB
:10AEF000D22E68F788CA4FE2B53BB7E4F77D24F954
:10AF0000DCE3283288C0A4AF3F351F1F0F71C5B3E3
:10AF10002F147C4979A6D0F147162DCB2B2A5C0241
:10AF2000095C80C7BFF969D5499D01F00521FAA0E8
:10AF30004CE6D1E7CF4E282E45DC51914FE1E5CECE
:10AF4000E0E794F0CB82AD26847D8E04C91A8B761F
:10AF50008DB0C76417FA1EB3F988D2CBFC37814095
:10AF6000C7C37D802F6190DA98D9EE9A4CE55D0ECB
:10AF7000762E3404E5DE8163E7F6C0B2B854C931F9
:10AF80002CCD49A79829A2FDE0AB0C0ABB4AE0C131
:10AF9000A06CD8BBEBBA83C18E317CEBA270C4A984
:10AFA000690B5ED0AFB530A28645255D184652C507
:10AFB000032AC0E951BE7A3E8E50F4E90E86194E3E
:10AFC0002F4F950B6C270278BDC9B31A4D9B35CB1B
:10AFD0008F27C7A23FF6754BEF27D78780055CF90F
:10AFE00036C79B7F9B0E48ECF1D2F09C146459D27B
:10AFF0008B37282C40D3C5F66A243A383C0913BF56
:10B00000B2293C34A4DAFEB57EC0B1A35BFFA8C16F
:10B01000AEE54BFA35281A488837F9A3A707170772
:10B020004D79A238A9CBB31A1B696F57754AB13352
:10B0300048D4D1DEB14BFABD16EF6767DE5DF690FE
:10B040001CE11DCD1970B466D0B8823D7EF534B5D3
:10B050003243405412CDDB7EE134A00F5F5251EAFF
:10B060009BA2348D66E91EA04C9FBF5A911CCC490F
:10B0700054B11F384064E9E6F0876C7037B57D56EF
:10B08000753F519AF83509B1B1C1BDA69164CE584A
:10B0900049299B07C0450B7CC7E6BC6F84DC650C67
:10B0A000ED8798D3D21756332D015D47460242C42F
:10B0B000A6DC046EC14913E3826AF37E202A6B93F7
:10B0C0003BE6A35788E4CFD9ABE1186B3A5299130A
:10B0D000EEBC5EED06F439D6AF5CBE2E5181118513
:10B0E00026241B7AC7CB540A8382CA488B0A311F95
:10B0F0009B640D2C71D441340F8AC6B38F6F28D94D
:10B10000D9CF32AE12A1A8DB3F1E96497FA4DF1E25
:10B11000FA8B54ED9A292E298F04D94773FDBCB6BA
:10B12000790F26F22814CAFAF134A973F7F008CC83
:10B130004424BF150148604E4318A9EA5F82A966FE
:10B140004853FFAB7CF50F54C2C19CF39166D0EE1F
:10B15000E64742F18B19AF74306844310EB60017E0
:10B160001B907CFB9480E3236488D77E3206833374
:10B17000A7F7A62A5DB35BCBBACEC0F50026F0A830
:10B1800026DB9A5F69F454CD9494049F5D6B87B578
:10B19000B68D06424604C41F01477EEB3FF3CD2522
:10B1A0006B124DFEB72B9A4BA9429970175F9D7099
:10B1B000A2D909588F5B50C67723D64F1760DF2E70
:10B1C00017B539D0FCBFFC7CDDBC86DC9C79FE4A1F
:10B1D0005385C09BC0133B0BC0EEFE8C4BD01D773C
:10B1E000B52888192D35966D46719B4C37A7B70B3E
:10B1F0000BE11332C8F0CBDC620DB6D87E5FAB9F9B
:10B20000B758DDCCDB2D9063870285362A7950ACA8
:10B210000A64D2F6A6903B8277ED124B193C9E71E0
:10B220009D2CFB2859960B3AF4ABFF9BDF05A87ABF
:10B23000C7E7BB3F60AABB28031DEF1B0A3126F2FC
:10B24000DE609D1DBB40CD50DFB4E7C258A9C1E20E
:10B25000E32CB4DDA78A6CB4E5C144A2F993C7E539
:10B260001073FB2F107E1D2911722604B3FEB42922
:10B270003DA759DE793448BD1AC74247860AB8D37C
:10B2800041B5B653FAF6B9434415A83BEDC1169D36
:10B29000C74737D5E214F1B1980578EF22F7C37F9D
:10B2A0008F1E825DCB8DA44FED5200000B8E3D951D
:10B2B0009CB1EE081DD20ACE9110AFB24CED67F8EA
:10B2C000839AB6E9C5E57FB0B8535AE99000EF61BB
:10B2D0001E088366DA3C0FD5718C0FECF9BE9D59C0
:10B2E0006D5D7D51535ED0CF4C3928D07FA09F50EB
:10B2F0008BC67081A19CF8FDEB69E8EB57B0832108
:10B30000D35612A81C6B9DE8DB53D79B6895230985
:10B31000579BD66CCC3FEFE016E10FA34FEC8BAB05
:10B3200071A3C0C05D95AA85EA50A8AB8EA0BDF1FF
:10B330003E41259113328A9792A7269E8B9915A894
:10B34000C1E5A00ACEF16331BF03A29E0E65DE66A1
:10B35000C03DCE978057D3E2694A04D3BA6F8E833B
:10B360001D53F747BF2A0D68DCD7F43BA9B098F10D
:10B370009404D1489F490C3D999A437BD268F19B34
:10B380008AA37CB3FA6B2C0EC2291F13ED14495407
:10B39000CFB241DBDFE9061F586C377736007F7B81
:10B3A000698CC6DBF696160A94DE3E2261E8B8B9CF
:10B3B000E308B51D9D46E801851D156AB4DD758D50
:10B3C0007E7EC8C00F7FA1DA2DC20AE8474D29FF53
:10B3D000E1A31D931E95CDC330D1AF5A7EDD62A18E
:10B3E000BB240881E26BF28056C95E20988E966479
:10B3F000FE807F3F8AF413486CC9789BAD7223FAB4
:10B400009AE706412F1D867FC4F417EA12E8C8E9BF
:10B410007311F6AA0FB7A293FEA58562AF5A6AD63A
:10B42000EC5F6921D5F737F7F1657747D9B0DDC60D
:10B430001CEF636F646FB610B73B1E403531DFF70A
:10B44000728F7690E638F34F46FFB6C5DFB70D1B17
:10B4500043806841AC1C6CA41F2C057629293A084E
:10B460008A26F98E871323EFC39A3712E9CEDAFDC5
:10B4700019FD676711E5A2ED63BD120DDC220C64B6
:10B48000131A3F377EEBF9B224FDFC0D7E233E28D4
:10B490000BBFE911A1EF3209B42C1D662B2272B843
:10B4A000A84C2A2098ED0E1B4317C633174A3A01C1
:10B4B000CE75E28F61A7401422A556395CD6505C48
:10B4C0008F755CD0DFE29FB8B8D53A7752D7BF5BB3
:10B4D000BC140A6721DE2416AB8FDF4E15C99D5FB1
:10B4E0000239D8DDE3448ADB77109E6ED145755270
:10B4F000B2EF5F2CECB2B6FD30A599B11288718C19
:10B50000EFB62720CF229AB600CAAFE2E3D6B798AB
:10B51000402CA9D155EF404B24F1D33A9958A97545
:10B520003A509B2F7DD7AC658987B5CF235E9DB2FE
:10B530000F5017EF26EEB2BBCA72033DEB9A4B6475
:10B5400031298CAD345639BADD1EE0F454913ABA43
:10B550009878C51A63A39B59FC63ED07113D319E92
:10B56000ED93665114893B70AC6F266BA25B8957D3
:10B57000BCABB91613CB87EFD79A0837831044EAD0
:10B58000CC0C0F96C41374CE50609133E193CE5A15
:10B59000E632859F84DFA8039DAB7DE66CAF2CA3CC
:10B5A00047224DB6E985D6CFE60622DAEEA495B15C
:10B5B0001D299ED178D7D8E3DD2BA84CE5F06A276A
:10B5C0004F32B50D253A194B51F4185757BD223E4D
:10B5D000B601627AFED2B8EAD19B367A1CD96BE703
:10B5E00012CD09576244A6B7BC0C40C81BD4810BCE
:10B5F0002AE07C9C3008D29F9757CE17D952E8FE9C
:10B600003A281F4AC672F65CE61AC405B905C0900E
:10B61000E3A88263974E5A2F24516D0513AC77022D
:10B6200001C03D16549167DFB220D7E97EAC589C2B
:10B63000082D8D456FF0B3A38F0015C52F725CD414
:10B640007655ACAD3046D70D0B70CE7B5002AE0EAA
:10B650005E24ADC9130F9B6BB7A764C05430A5FF20
:10B660004159D67459FBBCE2A3B9AE9D0646A0DA97
:10B6700024FBF8283C29B42541DD64F8B1E5998C18
:10B6800070C1D08C9B37DB9079C028A2F5C3AAAEDD
:10B6900082657FFCE1A7200BFBACAAAF1A20730BDD
:10B6A0005BEEEAEF978DFBE7CD4EF4267504A1061D
:10B6B00030D4E95BACC97C2FF8B3F22D10D15623FE
:10B6C000020FB03F66A44844FAF5A9583F8C521FB8
:10B6D000D0E764C126F6C7AA78F083D7C04B358D72
:10B6E000A6C3B7A4BAC8BBBCE4582A8DCD98995755
:10B6F000B4FC6F33D85050666BC513BB526ED7C2C3
:10B700008125723F97FB0D7660400216ED481F05BC
:10B71000903CAE694DA9DF7F3F85FEAE229FCF4CA6
:10B720002BC3AC8459339A34CDC6D86CA826E0B765
:10B730005451FA595D5E12FDC64C16089C678E0B7B
:10B740009D2975FF4431AA0806EA88702928AF3779
:10B75000FD8832DDC472655B765A736B922DE9B257
:10B760000BAF4844F4D238DB5DD77DD9D5655D9306
:10B770006980F3754E2B14C83E98C9CBB0CF2EED1F
:10B780001A66CE30212C5ED1423E463B064B6DF709
:10B79000F95FAEB0449FE244731969F1B90E14F039
:10B7A000312D1C9683D340283F6BF77ADB25FD0BA8
:10B7B00090597E5658C1D145D1683D9E683F8FF261
:10B7C000EEF2C9F1B2109DEA60BE2D8759E39526CD
:10B7D0001EC10EC31B6790D218D5F651BCD545E8E3
:10B7E0008B33BBCDC827501EF759D78E304E312A28
:10B7F000865264A5C21CD5DD9C577485CF1DFA52B4
:10B800006ED1AB53B7F5E01719DDCB75DA63F9608C
:10B810004358F1181CDEAE3DB40D9A379BA10A2A9D
:10B82000B85B3C89B57606373DAA75B6B04F217333
:10B83000425F946D826F6985876009A3DF4079F567
:10B840001DC9BA19EEB4F2B9C2050BB327E5B5BBF1
:10B8500008CC7CE6D92CBFCBCD948F07283BFDC903
:10B86000BEA72D7E703D1CEBB418C00CEE46D7E28F
:10B870002238037A64F2B41425F2B0312E0758CC82
:10B880008753C5F62AB0E36F6D8562B8E1DBB31A62
:10B890008E43EE557DE88D1BA15FD6D0D59C50DC44
:10B8A000247659CE03097ABDFEA7FB8A8A2E34146A
:10B8B0006EECB01CA22B130FAE40C88192F75BFF59
:10B8C0007EAF0B1F5D9048EC71CCF09C6DD8F0877B
:10B8D00020DEA3B4F479D9D6DBCBB5EDEA48301B32
:10B8E0004249D9929DCD00A7A351C0521137C7122A
:10B8F0006C4F20C7960E4D2B989D6F06DB35BF927F
:10B900000AC51710DA3710A2DCFDD6E24E5ABEF691
:10B9100006649BC4D3F57F80EC0029836C80FACB4E
:10B920008B16426A604BACD04948A683FD0AFAC325
:10B93000A8828BDE2BB6B934602C27DDDDA1E26254
:10B94000283DF080F68A07F91E6BABAAB91EAB73CF
:10B95000CAA694F27AEBC5B16F8F48C1B43F416279
:10B9600048F2D00E128C8541FA0B3ECF4E021225C2
:10B97000DF0973362D243D73D7058DA15A126DBF93
:10B980006A5C45FD04754DE2F6C74344B5C820C264
:10B990005D7ADCF631A262DFB88BC8457043D87A95
:10B9A0002C7F4047BD9479BCB8885C14799803DC3F
:10B9B000508EF929BCCE682BFFD8227918CBCE3512
:10B9C00061A04811CD0F161DC2E31FEE6843931FFF
:10B9D00019B6132B786051C4858BF3A1BC0570C5D3
:10B9E000B86E324FCDC8222A5259638ABDA892F848
:10B9F00061D4F9900397A18A20184613BD7DF0A564
:10BA0000B8F7FBF2A89A800A688E80FC6719EFD11C
:10BA1000C8D5F4CAB003A56E60A45E69702C075E39
:10BA20009A737CF0F85A9FAD833D5BAAF8B14BEF57
:10BA3000FA22C89F489A70B4E83322F529170611F4
:10BA40007DAB45B42E9B913B6DB721112D18C0EFF6
:10BA5000049BCD5A3BEBFFB2C3391AAC13E1AC6C7B
:10BA60005FF5F67E081B0297FFF7C02D916D95A23A
:10BA70003656262493409EAC14782BCF8DE8C323F2
:10BA8000906E702488BD696940619EE6A62E15AF50
:10BA900009511CA92A413D6AAE74F37F00D6395C76
:10BAA000735CAB482CCB61F48EB5830AF2530AC7A2
:10BAB000B304369D68897DF82C6EE4831AAA8DDE66
:10BAC000551DC04AA730FA513E910A0DE6537B86B8
:10BAD000080EB8390151791C5B2D0514D2FB80008A
:10BAE000791AE72ACD10C6EEA2335D5E961EF97272
:10BAF000DF2BBABE114599A6C8B72EEC8590CE4C67
:10BB0000BD1602FC218471B87AEC574473D450926C
:10BB1000D29EA6572DAA061AE2E64CC8F0372A098B
:10BB2000B64104CBAE84DFCD26FC57EA8C991B6D61
:10BB300016B6FACC07911D7FFDFF4A8508BFFD753B
:10BB4000368D2606CCA6F05783C70F15F728EFCD04
:10BB500023866C2CF656718EE8FB71C411E20283C9
:10BB60007D113C834BBB90EE44BB919ABD732FCFAC
:10BB700054672045F388E55E490CBC7FC1C779E96D
:10BB800071B9D3C48BACE26D053977388C5431511F
:10BB90006749008AFD722C931380BC1DFE42707BA6
:10BBA0002179A6524272DEE6BF71DD2A7126958D9B
:10BBB000AE2D03DE3F5B75B4F0A98E28C17A5A140E
:10BBC000E8152433BC2D4811C4EF5F0BC86BDFBFF1
:10BBD00043DF4303F80943B777ADB267E61B08803C
:10BBE000499222AE7BEA4FDA5BE6CA3F92FEA61E7E
:10BBF000E2A839735ADDF215AE51F088CFEADBC204
:10BC0000347E36430D77F132AE3944732F5DFB1F1E
:10BC10005A1FB75A223C2002A10BCA50D1EBCA08C6
:10BC2000F4B396C28D36A24DA90B9F6056186EBC18
:10BC3000A905201F61F178EC0F6D3B1331ED28173A
:10BC400006E145A872DE4D0FC2CAA9A5E9D06BC1B5
:10BC5000637F2A158920B107B2583A19C3BE73D839
:10BC60003D01F08EC7E5451D9B770C5B3F05EBD191
:10BC7000934D226713BD2168E00E2D9DEAF2390F26
:10BC80008E263F8BFB9FC6F9BF871A68B92E842387
:10BC9000A271D1E7D06F1B63F54EE68737BEC8832C
:10BCA0003E388747B4F33F23C428DBBDA4F9B5EA87
:10BCB000E5389431B463F9BB5E4211F26DD34CDBCD
:10BCC0008940E8ACC8AA042958971B4A1A0143AF17
:10BCD000D46DB610BC46B90EEF57950B882A3C3987
:10BCE0009938EDA6D69E548982171B4A2E0343FA33
:10BCF0000BF96FA2D28E74492E786D5B215FABDF9A
:10BD0000262F0B1FAA7A9C44CEAC0576F53B1F6705
:10BD10007FE0886C63DCC5F63B7480114842C1FE4D
:10BD2000C3C9FA88D97FC504D3662150B2E7FBEEB8
:10BD300016E1F023641E6C81777C9E8117FAC80798
:10BD4000DFB6ABD2911D0B39780C2EC3BCC74F3177
:10BD5000F71DCF27E244BC7ABE09CB140FF8683038
:10BD6000203E2EFB5753569826DA4CF1347C35F69C
:10BD7000141110E3D35F62A95D9CA81FF85E62F9FD
:10BD80007E5B366BF5508C837A0A514C0AF2BEAC5E
:10BD90007079E35FB361AA7FDA72B3631CCED2C459
:10BDA00092E2177604AF705E0DAF08D6CFC4361797
:10BDB000BE3FF2F16C2DCAA2AC238E3C3B0DD231BA
:10BDC000EFAE18B8ACCD772ADD197F87DC7C4C7BD1
:10BDD000FEA146B818BC7D13FB4F461DB23DA255CF
:10BDE000221DE200C874E14EF9E3E286F4D809139B
:10BDF000D22521731F1A9C0C897E31E53B4015DF4B
:10BE0000F2636AD6BE19C486A95F6F0EFD84A7A32C
:10BE10007888C1EE6C881E909E04BCC04F29F388C0
:10BE2000C34899EF40EEFA26671B69CE16A92D800C
:10BE30008C1B773D759A65CBB0B98956C4C84E58EE
:10BE400049E1C523075434495345F22F099921325A
:10BE500071840874345CD9FBB0E35AFEF5038F0F8C
:10BE6000DC32A2018F5AFFD60A7186A36F1FD7E476
:10BE70005C1E250F59F0CCDD2085A499214B3F4E47
:10BE80001AA4C7EBBEA6D6EE0059E3A2323B9A6DC8
:10BE9000EE04D6980E83B32BE4912DA75A2BC750EE
:10BEA000B32F897ABED92EC50008A0411FA39DA536
:10BEB000EEF99B483C53B3126486771347C0BDBC70
:10BEC000AE3069D32005100EAFC5738A044ECC99ED
:10BED000FCF10B1BEA151D2E041BA46FA4F20766D0
:10BEE0009D63D929B9E61A251C7B20BA92B78CCA62
:10BEF000C870159AD2BC8FAD060F757A10CE9C56BD
:10BF0000A4B7B10CE1EE07C91F7A5C8C0D16AB89A2
:10BF1000914B8B6FADF926AD75E88EC5215B80C561
:10BF20003CAD88D4B9330F27523584CD441BA94882
:10BF30000911C5D35637105C6B512F9496DB3CA288
:10BF40008B66A7098BC15FACB1FF12F45CFBA30247
:10BF5000F18216D8738048630C2DBA30C8D983E2B9
:10BF600041378D2EAAD31CF7151EFF0994EB0295BD
:10BF70005E47719AB3777757223DBE898AAF466F85
:10BF80006708AD9CC1A91D5F85A0B208C3F6C7496B
:10BF900011986169E26001BF1F75D2B5A77C1F3F90
:10BFA000B6044501D8D82D5CD5D787C397AAECB481
:10BFB000486A303C186943BCD6EDA3D60A9563B4F1
:10BFC0007175F2BA197B47BFAA5F77A5BAF1B16064
:10BFD000386BC51050AC91BC7457FB0D96408CB9B2
:10BFE000F23AEF06746CE8F3B6AAA696845792EC80
:10BFF000273372C2864AB54CAC3F43B628910A3605
:10C0000049BE8AE190C13C94C7329B0F8FBBC2AF3F
:10C01000CEEDFAB09C689D1FDF5A1D462077FCA626
:10C02000580AF4BC7D23A49E8AE8949BFF600130EB
:10C03000426450B936F3EFF1D25F411E5EF30293D2
:10C04000C7F5F37059E55FF790BC625671E20DF8E1
:10C05000D85B92F762A83BE3C29AD73E8F74345301
:10C06000E6AB287029CF6797F552BD979A4A172CEF
:10C0700062B4DD25F7B70A310769D7A0BC2522FADB
:10C08000CBDE61AD55947BEE7015B018E60DDBFF8D
:10C09000BFC55F82F8C4F0889B029973BC927CD7BD
:10C0A000315EFBA6529ABD17217C2DBBB2A46AEF6C
:10C0B00086219C339EF40EB25FB325DB73A9027810
:10C0C00013134A9DDF6F67B29B64A03C6F0C70B185
:10C0D00045CDC7A7F120086CEFCCF09CA076847406
:10C0E00076D6C4F4788B53DAC18460BCFEAB130FF0
:10C0F000A105626D63BD120DB23D120D80E77BBFDD
:10C10000B1C5E26DD6A01C1409016A5D818B4DE6B4
:10C110001EE80021A627DBFF1CC5E26DB4A0E15399
:10C12000E5E0A8C13B58AD26CE738E60F9AF0A1D7D
:10C1300006D59E287564F1E79BE0611C1B17CF8F25
:10C14000D26CB39FCA09F9B1678584353CDA78535C
:10C15000C32D6A2870EC1192A02A5831EAB0E1D3BD
:10C16000CA2A14B094A19E7180C38259E53C20F084
:10C170005D651397079BDD5650A88679E630DC692C
:10C18000A98BDC482B57C7EA929BDA7F3CF9FB92DC
:10C190002EF610904FE2D60DA7FDF7504EFCF55449
:10C1A0001A56A2FC10111BE112C33E8FC215771262
:10C1B000E1A72406D7AD46082628DD330D0DFB2761
:10C1C000ADAECB816E5D81DB95CBE56C4B970E669A
:10C1D000C168BCB12CFD86C8B5EE65444821F1A705
:10C1E000665C7F8AA9344E0EF2A94300EF41909518
:10C1F000C2BD6985E675ABB2C7AF03D6AA12F021FE
:10C200001859E31A9863D37738A9B45580A04176BA
:10C21000E4F1CD453BB72D9C391104335E4DD62852
:10C22000C38FFF596E1D8468B2052714FE97C4059D
:10C23000CA7685E8BBD5FA28D803477ABD69E922D2
:10C2400051DAEEAE805613BD8A6DCE7ABCD41B7324
:10C25000D33B7B8A710E8100F0D9B019C18B148851
:10C26000F1D9970214B9833198D7C21EA26602563B
:10C27000D59B0704FB3BA23A694F7BD4ED8E07495F
:10C2800023FABF2AB65864CC521D8EE75EB89E8C46
:10C29000066F08590C78C8730E0515E52AE043D9D6
:10C2A000C70F6D1A19680C2C645ED63F9271E6E0D8
:10C2B000C5DC64FF449F363F3F19EE1EDBFCC2FE27
:10C2C0004FDAF4D7F5F18ABF9E080839139FD98851
:10C2D0008FFE314E5560B71F1B9ADC3103F80A0AF6
:10C2E0000C38743EA84E28C7309B4E45D3E09DD6EF
:10C2F000E088E815FFE4E9164DDED5330F26028D00
:10C30000E3E86C6CB99860B95537D3897CF0209418
:10C31000501011286D24EB28703CA76DD386B02BEC
:10C320004E740E65AB730DB67C6C208BFDF869EB1B
:10C33000523BE4596F4E83C74A8C414DBDBF2A4BD7
:10C340003376B44417E1684FBA58480A31B1AB7537
:10C350002933654149E3A5C6B46F0934ADDA6657A0
:10C36000682A8824FE518AE07DC3A1BB74F3A6E04D
:10C37000783744B3DAE0D0308E7DCE5D45B867C003
:10C38000555D314E20A689BD2A38346665484386FE
:10C39000F65CA7507C63E2D1646D0CB2E401B30B90
:10C3A000E8F6642B950912489932D8A3C3E868537C
:10C3B0001D445F9661CBB649F445B3C6222B0637C0
:10C3C000594F076A9DA6A1C1611C8DB2C9FCD1C39A
:10C3D000350DF7288D2FF0152EB8C12966415582ED
:10C3E000656D7DC373F642E67673716F69591D8082
:10C3F000AD638A3DA3CD984DC32B85AEE08D616EB4
:10C4000045268FBC1CC074482CC19EA0ADC99C069B
:10C41000D13F8AA0738FE7FE06EDE9C92F9BD33089
:10C42000D14F92142B38A0AE9410A31B55B1BFC6A8
:10C43000629D691CB009CF65660A5A39EE98E571AC
:10C4400079AEAFDF3CAE40390F215619460005A545
:10C45000270FDF4031935FF8ADC6E4D7DDEC05CAA6
:10C460000E07FAF5DCE92678F48896A85D4FF5D535
:10C470006F28E1EB001AFD500FDFC675B2208C6902
:10C48000E44E0D7F0A46E0965C1B6830B676F8678E
:10C49000545CC041873F5AB88CF6EF4727A55CEB48
:10C4A000AABF997CB8C732551D660D5CB834A1810E
:10C4B000E2A647EE6B5FFEB81160FBFFA60ABF3F26
:10C4C000F5F3B2B84C4E4E7086328D531B65C731B2
:10C4D000402B5F89281B44660BA1B64D2FFDB0EAA7
:10C4E000C7E6B19A7F87BE9EE2D5FEF5844DB1A91D
:10C4F000B50E019CA93E60111D191E40315C3B31F7
:10C500003E7F44EBCDB778E3317ABDAA58B5DCA3C2
:10C5100063139DBF9D218078EC95508AC7263773A1
:10C520008556C5A5BD066280B9721F550AEC6E4FCF
:10C530002545B7C7621A5CC48EBC301C800A19D36B
:10C5400074151752BC59C983940A7CB9F7EDB2CD62
:10C550004248F88CCF212A2831EE751B219F56D0F6
:10C56000B39C50DCB561AADDAC7D67B29DCEC983BA
:10C57000E2FF960522D8BB3F9CAF0B6A00F432065F
:10C58000043E9670AE7403412FFD283E6011112BBE
:10C59000B18E35EBE327E2D805CB4AD61632FA6ED8
:10C5A000383153BA5F59C66B26F206753D97921D16
:10C5B0002379EE2F561FC808CD831BA9BD1D30D48B
:10C5C000F719E8487917D24F5BC0A79535A54823DE
:10C5D000F2915C3380CD7255B7F0E1A739D6A283D2
:10C5E0001D5C6C1595122AF7F157085552A32C962D
:10C5F00020D27A3019EE6F9B5E8CAAC56DBF66772C
:10C60000556BF5BBD2BDABCFAA18406395E5ABB86F
:10C6100079E95289AC664D6CF1564DBA4DD7DA00C6
:10C62000D984A3DB6BE8A6C136DEB358C430BC099D
:10C63000EB4981ADD69D20D0EDAB5FBC1730EE77D6
:10C640002201E1F3D14EB6FA2867347EAED01B6FDB
:10C650009F7282F9293143D3C365104264FEEE4EC6
:10C66000144BF170154F911CF10AA53B827EAF0F60
:10C67000866265F6DAD869FE8FF206D16BD7526E04
:10C680006F7AAB24572E5886A279DFE7D81D68F45D
:10C690000222F8953E2941F21FB01D4A4939B902DC
:10C6A000AC6B65BA374B26284A04E7B9D59E138D83
:10C6B0008B0EE6F249913E587BB7E723153555D6E8
:10C6C000006CB94E6F0784B98332D9D4B2E2D51A5F
:10C6D0008364E39A95830F21E263583FDDEBDD43EA
:10C6E000A767A81549CF2ECD722A2C63B104D6981E
:10C6F000852C6CC663179C5E905C49D672A322722F
:10C700002E352465D4CBA470514F9239A99CC5B263
:10C710005F0EAA4FCAAD9B8E8E36DF16D7330556F5
:10C72000C5A568AC0B279A19719182DC672768A1AF
:10C730005D0F7384D6C7AB11B7BCD5992E8D215B25
:10C740002A79D980BF027DAB4A4544BCB9B7873A44
:10C75000C999699B5D98CBB16DEC62B7D3FF7CE959
:10C76000DFB35585AF6260C496BBB6D60B589D68E3
:10C77000023DA361CDD1EDF3FFD6ABDBFEA8FB09F3
:10C780000169C902282B3C47D5A29DC1C878066F14
:10C79000DCE2BDD5FA98C572667CA495FAEDE88C0A
:10C7A000B3040FBC48AED8B6CA417F4ACA1C887CC5
:10C7B00036DA4683527D949863602D2953C86F976B
:10C7C000C3A0728DD1F4A5A4A0B4873D6805A1587B
:10C7D0005D724B629E81CFB2A595CAB9A0F5C647DE
:10C7E0007052D22BED6A07483C07D6C7E897F60788
:10C7F0006AD214BC40C4E713EBCF38C162C40A1933
:10C80000FA5704B855465B2DE88A154C7987CE5106
:10C81000C1E9AF1BEDEA6C132616743A0A8FE4F8EF
:10C820001CABBA36DAB2AE3F34F6D5C6AD5B06F213
:10C83000307519AC9818CE3D39B1611585236A134E
:10C84000948A6EF53E0BC56E056D42D726F2593EB1
:10C85000AFC2A3F25EDE881202455B7C5BED5352F1
:10C860009F370AF90131EB5A8ADBAE5F4506DD8955
:10C8700099889B6FA7FDB42748ED302C97DCD41E18
:10C88000B56B5BFDDBFA76B32CD37E704C08BE1221
:10C89000668CE9923F8A0F8BFA119652E221AD1F06
:10C8A000A22ACC16F40181126FBE3623F8732771C9
:10C8B0005EEE939FD29D06858770F0E45D16EED400
:10C8C0005E0573CAC08107818C381BB689FA60F790
:10C8D0007CCB6C45A24ECDA0E5978D0BA31B00171A
:10C8E000784D14ACEF7165107C582D8E312FAE6FE2
:10C8F000627411710D75FACE44E3880E9F71212286
:10C900005300F3EF5FE0F6DE3D246E03C59D391161
:10C910008EFFDAF1909A8009375B4FB4B481921799
:10C92000D79328C92FE38E94FBD9D3070DDCBE60C3
:10C93000C1138565ECEA57CCF18EFEA6261250BFD6
:10C94000AF91CE71E4D70C2951C0C36499B62D378D
:10C9500095743D97B56EFD978033E6542372A7D743
:10C96000532F086C13A1FF8237995AC8DC094EB0C7
:10C9700064FB9E7500873B3F99FA719E1461945445
:10C980006DD6BF378C8F4B9F2345E2B88EDBDEC060
:10C990005BEB739A358460BC98F659E33C8A7CB9AA
:10C9A000E738184C7436D9CE3B094F9707F05DFB3A
:10C9B00018EA915E4C53CEE04496390ECC094FE212
:10C9C0002F63AE20408B0EF41615CBFF0672CC4CB5
:10C9D000922D98A88CCDB84EFAECCD463C21E314AC
:10C9E000D035B5502F61819D4EF42653EB47D2864A
:10C9F0008F59485BCA0B3A6C457356C82285FC5B5D
:10CA00003F4A28D904345BD88A6163E7CD89F9C3EA
:10CA10003F023CFE2099A38DF82D9E8946B81A67E7
:10CA2000006CCE9DE0A6EAD72C733A76ABE86ABDDF
:10CA30008E740350EE88139DBBA30C264AD1724618
:10CA4000F79A281565CA2E3896450B7630794CF83A
:10CA50001A4464A474B4B82B55BA6DC97FB5B50631
:10CA6000AE7AD471755251E91479CB97C6DF39DBB0
:10CA7000B27D7DFFEB9B1C5BC5D843D76409A81230
:10CA80001B3EFA8BB37A07A1906DBB9F4E1FE32D1F
:10CA9000E293EAB16615AF09C7F4EC29CDA36FB6EE
:10CAA0003D56A5A1F0F98FBA7FA71F12AD7891C6A8
:10CAB0008C38B6AF45879D4736949649AE7003AA29
:10CAC0007C89CAED6AE6EFF25094CCA6D0271E45C9
:10CAD00087ED3B15F03F895AF0A124B92B4D5B8EB1
:10CAE000A4760550F09912B7C2B8AADE7671A6D81E
:10CAF000D6D5B1473F4C180E552DDFC75612071932
:10CB0000E8620E54C1AEEF47E7DF885C3C6BBE3590
:10CB10007B7A9D6BD16ABC0425AC3031F0CDC7F275
:10CB20004964754B6F1F2B2A9BB9EF57555AB11E9D
:10CB30003D9440913A4DF2982BBCE5B69BB3E3BAD5
:10CB40008AEEB414EDFBB01CDD2B3E00F64CD0F1A8
:10CB500002B7067002BBF34F62EFB6C52BA7506C4D
:10CB6000F413F8B126E431895B9232ED52354D7FF2
:10CB7000B6AA1E9AFF9B17E5C83E2695F607A99B05
:10CB8000DA599B286A77C06B1DA14E58ABC435ACEF
:10CB90004015C12F7680FD892751781C04E3D1D937
:10CBA000E7736770D2972591E9345976C24B1EFA24
:10CBB000ECA0A61A3515737DBABE9BAF627A522ED1
:10CBC000BDECF0325A4222A24879C41A89D48D8F22
:10CBD000A8FD8762EC96317D159B0ACA5EBF7E7404
:10CBE00051A468120FA5740E108909F55768A53273
:10CBF00057F824F75AFAB44A4E70DC533D2D8EC2D2
:10CC0000C00605F766DDA0D01DFCBAC23A119E45EC
:10CC1000FE4944A594C3112BEF736770F497F65443
:10CC2000B4F15C08E5D38882EC1E24DD0C98906199
:10CC3000EA6F9E239CD494C34C930B9E1DD1FB6C36
:10CC4000D5C792F05E79879FFFA7F3F5F3711E4376
:10CC50008A2FEADA20C035BA82BF770591C5730DF5
:10CC60001EB4B5DB9047C15EA527091A25C102DBBA
:10CC7000DDD9A0202D6842E5D53D571C80327C547B
:10CC800046B9C9811DA0A47C741AF6E536D2336773
:10CC9000C2AB8B646FF2C3BFCFECB462CB758102C1
:10CCA000026BF539042A797F597020C17DAE464662
:10CCB0006BB2E5E8CFF23C1685C6CF3B42AF738836
:10CCC000E38FEB22629EEC59966F089906534CF461
:10CCD00064798E38467508AAFEB82DA3561DFAC78A
:10CCE0009BB9CC0839B94549C8BC560479126B4781
:10CCF0006653E281151E8E980E6D7B08670D4D02FE
:10CD0000A05C63EA5A8B5EFB53377EADE708E85FB1
:10CD100000BD8ED781C1ED76EA913CB3A936444A75
:10CD2000857AB510928043228DD1F5F4DF26BD8B34
:10CD300020B9BB57CFD12AA55A3030A62CD7451AD7
:10CD400015E1C0435C94A60915FE4EF8C01F5A2C8D
:10CD50007D722B52EFFA5D71E0EE332BC72A37421A
:10CD6000F13EDD979BF2F46C650CD02FD53A80CB69
:10CD700094B6DB1A9261BBD9D5CE819D2B4E63C090
:10CD800007FF00C96E172C66CE319BF2A7B733F8A8
:10CD90005D5A11E6DC119FF8C81F80BD8EA2464F78
:10CDA000A97FAF36B95ADBD2B9C0916735969ECD0F
:10CDB000A4903378C74DCD0275C6EA2554644E9CC5
:10CDC000BB2F1A9CEC33CB93B6F6573F6558602BBC
:10CDD0004E09B4F50ED8ADC6716F7A1DE67236AD48
:10CDE000F37B22AF16CA2292F5CC794FCDC494B111
:10CDF0007B607DC171AEEA81E7AD73CA487B59069D
:10CE0000F0D4B1070FF549BBD603FD3E64B1DF0D89
:10CE1000DA1E9AC1665291240FBD8AE93B9DA1F6A4
:10CE20004617A0A9240FA380F552573BC71F23DA4A
:10CE300079520031D34D4884C12A80C65E6595E998
:10CE40008FBB6ECD53B5EDA3B20E6438B1A629D613
:10CE50001189EA8ECDBE675B48DD7A6D14284F7666
:10CE6000323C1ADD47AB72F921BE156EC74E625CCB
:10CE7000A5069F130CF8DBBB3CE4650283B2892254
:10CE80005328891D2E09C8AC119FE5C17B535F5BF8
:10CE900042CE99C92AF8C9BDFF3387DF85888E9CA9
:10CEA000A247C5EE6B55EF9BBD1A203D5EB3736C78
:10CEB00002D09FEF303E6F8D8BF3166E694FFA9F55
:10CEC00086DDEC558606919E6A51CE169CE9D942C4
:10CED000285BF9CE1FFB1AEA661D221E9977556E54
:10CEE000CF71B2A25400A6195AE7D03039D245AE5C
:10CEF00014BEC830B983885050AB1F65D38BDDA9F1
:10CF0000C36DFD1327E61836A05567E14C61BC2FB1
:10CF1000E3D587FEAF2BE3A05E2C31EF9F2F16BA2F
:10CF2000158AB091986DDA9238337FD36D0903ED8D
:10CF300008298BEB37D07B17C2E6B7AA780C989BF1
:10CF4000263CDE1C8D01F1A7FA811608E0BB17BB59
:10CF5000871283792F78C1ECB498FBD84C7324D90D
:10CF600093EA883CA2F4930F8F42C8EC4FB32A286F
:10CF70006D84331A2D6B4FD2047CAE20F494646917
:10CF8000EBE66DA651FB8F17DA26F12EAC629454B6
:10CF90002049C4F44A41BF0229A4F54B6F2A3C043E
:10CFA000E9C67875F9ED6CA22ED86D2326C26C1EE9
:10CFB000F4DD04C51B1A52DE61E4D49B2F732D8966
:10CFC00052A29302E8658A787C8BF1FB7E38481E7A
:10CFD000F4F3395C7B6670E17582AC7EE0AE45A708
:10CFE00058B304D5F5F37F66D07B7D97F5D11F8FBD
:10CFF0000B988DDC16D514B8CCE97DA299140911D3
:10D000003BAE6A0F38DA0322A8C8931E927904A3B4
:10D0100023821181BFB8E0728FBB9F127883DB90AF
:10D020003C2B22BC8622513BC1A6A0F5B5ED085F82
:10D030002A6C85CE899CF836E050737650A1F32D8A
:10D04000877DE6A25D97E5395B580F6F32294E3D2B
:10D05000D09FF72BDE0D0F90F02623D710B0DC9475
:10D0600090517FED9B6DC3AB70CE67A6C6A891BAF9
:10D07000D13CD99BB37CA58EDC3604CE5337059AC0
:10D08000883CA5BB7EEF9715339EF715C032EEF8AE
:10D090007197E9CAE5D278C42E1B2F3F66D3CDD64F
:10D0A000E9D424BB7FFF1F707A3AF6A0DA3B1E401A
:10D0B000C1231A18E9CFCAE806FC905C4C2B3E004D
:10D0C000D85CD0F114C2ECA4BF4BD38FEE3A1C4411
:10D0D00003936A5D07EA38BC725EC5AB0A3828EE76
:10D0E000DF4434D96C2365EB0B467D57B4E4F62757
:10D0F000B8D5B878300C1BCD12CECE39C349D35930
:10D100009B9193295FEA8272B4900937B3EA6FB2B8
:10D11000017B731EE2578F95A083B3233C3B54AE33
:10D12000876CBC73E50ECEB82685B80BCCE6CE6A0C
:10D13000F968C20AD7A78B799DB403F24C0B5B3810
:10D14000E8276FDB03C741C19D2440741C3A6BFD87
:10D15000AEFF30A54345439889E7E90BA85FC4B605
:10D1600026878F3DB2AD0EEA1D241CCD110E4865F9
:10D170001C49EB2367030464185E41BAC7C3B47744
:10D18000180BD6A947B5A28D813256AB75D162FC7A
:10D19000BBF92BCE851093C417C88449CF4F52E5F5
:10D1A000971F2BB9EC929FDA52D3FB670245D74AFF
:10D1B00058A448599ED442B33A92E9C4D44E54B4C8
:10D1C000348EE64436D5A2F510A8EE38599C125C90
:10D1D0001BD281E636B9CD49EA309A91B1D350FDE0
:10D1E00079100DF0192E37D16AC8E309DAA851ABCE
:10D1F000115AEA369F2E378CD3BCDE8C1F1DE4F308
:10D20000267494CDBBBB5BCFDDB4821DEF270DC070
:10D210005D41A2BC8697479FCD43768FFBC02CB45F
:10D22000234A5960F0FCA1E71615365EC4CA5E2396
:10D2300094C292887827981C772D8C6113F665E646
:10D24000FAB35D713F7133DF873C798DFEF53AA506
:10D2500029BCD0B0BF1324697D0C7D05D99892CA32
:10D2600017F24BB88A673BB4E0F3FC3B77E333E15A
:10D2700075A1823C2897CDEB9AEF222DB70ABF43C8
:10D280008DA3A9AE6ABB8AAD76DBF238E07D2C7443
:10D29000547989CBB3F52E2709DF37D6E3565CE006
:10D2A000B12578E0DFA2E61DEA42431BFD3435F7E5
:10D2B00030212B8A3DAB7039FBBB7E3BFABD575505
:10D2C0006617E5BE65DA0124C9B794D84C53BD1979
:10D2D0005878AEA26414450C44B0506F8F55618FDE
:10D2E000CB8F02803647B668A64FB8CE68D0E39F92
:10D2F000E1DB590D06A312D4BC3D210770EBC1F050
:10D3000069C395F33F56D9AF28DD6C0409EEFAD80E
:10D31000946DBA2921294C19ECE17BFF0FB54A66BF
:10D3200012E0792EF5E6EA0DC3C3CF2645CC1B5A91
:10D33000B04F2ED64EBA81DC75E6D9248D5DC2F28F
:10D340003C15A94F480DA47F5778901D89ABFF006D
:10D3500098B8939FC136BCA869C24964B01C0BE45D
:10D36000A70791B917A5675C32428569E6BDDF550D
:10D370004B528DAD1FAC43C377264BF63A859B6A63
:10D38000C5DBFFDA2455EEE612B503DA88FB19EBAC
:10D390003A6CEB728AA6924A16173168EFB192CDB9
:10D3A000D7C09CE9B9332FBA812A09BB9D02AC6B67
:10D3B000E720F6D5415E6EE5E1F3DAAA6BDA0320E9
:10D3C0009CC022B6B8A073C14E01F434DBF3F5ACB7
:10D3D000EB4D96DD61AE25BB058EF0D0BB1D07156C
:10D3E000C99175EC7FF4223D86A50760DC69E4797C
:10D3F000EE380BFAA344E281FEF3DCF03E27CCCBFF
:10D400006F4C50E9E5C148771EB527205C69B91E0D
:10D4100015FB858E0B612840B95D5CBF75845FE5A7
:10D420006E7B3E356DD168B79EB5FAAF376AB702ED
:10D43000CD765F532AFC89EAC743AD67F800DD7CEF
:10D44000BD59A3A103F68ADE83E772E570AA6600E0
:10D45000C146A8A3648456C98F4C5B74AF7BA1F00E
:10D46000F9F3176FE2F5F57850EC154E5D3F1801B2
:10D47000C6194DDE0011EE444FA799E4C833FEF003
:10D48000EC517487BA67D22716B43BA21DD6E0418F
:10D490005B0A68B4B54C0566569A6FC647A0515FE3
:10D4A0002F8067DE08D643034A2809645A6DDBA83B
:10D4B0006573EF5D3294BACCADC8239F6E42F8B26B
:10D4C00080BEA8060A81FE92A6FCF4E099BB1B0967
:10D4D00074DE74770C5F1AA3CEF0C798F5C6572A8E
:10D4E000CE685CF46EC9D3DA5040EE554F51A13E80
:10D4F0009AD0A3EF0B86626D38B1E1BEF5CACFE2D8
:10D500006F27203CFDE27F82289A5AC86A1833CFE1
:10D5100065ECB6C5A3AB38214EDE6C94E3023F0246
:10D52000219A2F22B660837A38EDB414E6087E8003
:10D53000E25FD0F12AC1C1933AD69707CA193133B5
:10D54000AF61A82CDBB7D9E3587E6BAAFCB81A7D73
:10D5500018094DE6DC8029C31EFE96058E1321D3E3
:10D56000234BD1DE3C7F9409B41446F074BA1E40BC
:10D5700015073923D27D9605409C27E75E9B313302
:10D58000DD5497074ACDF675C59C528DBF3BE782A7
:10D59000DD65754B002B1173D5DCD1EEAB4BCFE2C3
:10D5A000CF30F57B6A1D56D0899D25EB0CB4D7870B
:10D5B00033647747B264A2ED0DC9CD9B09813D0666
:10D5C0004EB6D58BFD2B11737262A8C1455AADDBE7
:10D5D000BA78812EA74BFA8804094E85776A8D6642
:10D5E00071EBBA08E953CA9DBA718C1937A8ED5B83
:10D5F000E840ABDFF6821D46980054D4C9D3BF374C
:10D60000E12722385CC8FEB027300A68F1B924341B
:10D61000175EBF37AB735DC6757FAF125326F596A5
:10D62000F0310E15B851A13E95CAFABDE4F18C193E
:10D63000AA54C6A5D044BB0A044C4933FEA70C7AB1
:10D640008E15E6C8339D309FE95551E76E5CDEB418
:10D65000A8D18A1E8EDB016ED63F8C722C38B700A3
:10D66000CEED33B680778E7451DC69730E5ED35283
:10D670009B1DFE130DE8E7E7A3AB5DE7A86113CDA3
:10D68000A06430D481E1EB0B1E547D1954BD445687
:10D69000789D6800C5E3951336E83C1D2CD9F73713
:10D6A00059645E3BD658BA49526224756EE7A7C8E2
:10D6B000DDD45C649AF64C16D76A036C91CF0A6D80
:10D6C0009CFC3C3C42B7D4C09986F7ED73E7133815
:10D6D00037F40875D8668BD163F22984A4D093B847
:10D6E0003F7D6B13F5118ED961E993E3E0EB7A048A
:10D6F000A66F727406DA18F539A439B7BD8125DB37
:10D700008799C3E8AC6EEA6E003456E9DC64775A58
:10D71000699B72AD4F23B021930080C3C884FF4A38
:10D720006BDCC10470A5D13A33F43A2891201FFC78
:10D73000389794543C97A10F51207C4F9CD6653864
:10D740003E5BB16F15B2C4FD5221EBD2EFA76ADA8E
:10D7500054D1CC1AF11598C9DE3CCECC4AFB2AB084
:10D76000CB5DF3002A2268D2BB2560B64E626B09FE
:10D77000701CF9C847CCC9ABED4E869DFB1963A15F
:10D78000692CD22DDCC64D85EDE3591B604953C988
:10D790000D968546A3374C13E7F17DB005C5CA0049
:10D7A000B6305C4128FC5599DD4BC302F39C1461F3
:10D7B00053072B25AAD178E95BB83564781BA3C63B
:10D7C0000D9BF71D3D5653AAF8240C79B6583CAA78
:10D7D000961011A19B003C6BCB27E0AD5136C4EDF8
:10D7E000E3B7AFAC191995588F0767FF5C6E924D80
:10D7F000A0302460D1D4765563B6AF8215F7E732F6
:10D8000087AF4256B9AEE57BBF9567D475F1F72E69
:10D810002D9464A4693909537B30752A258444B951
:10D8200023F8076AC90CF559CE77866AD77AE8EFEC
:10D830008B9F47E2ED3124A98FD8A577722AEDB6E8
:10D8400010260F18EDE1D76E80CEA526657CFF92DD
:10D850007F5108385A07BE99AB43FCC702F10D0A45
:10D8600086CC28AA71E5F084F34EC00BBA90CD2087
:10D87000A43670661D60779017BED50CD6EFBE1229
:10D88000C2457C22D5C2B388578238A29AF099EE5D
:10D890000424FCD770094650E3230A0DC31A5971BA
:10D8A00028D7474ADD7077AE98B811636FFA974B67
:10D8B000511B1F6DDAAB81B98B08B56D3D294F4EF9
:10D8C000B01E2B39965E1BD3CA9B7A634A8D108893
:10D8D000D2213B08E35648BAE3C332703A022E1114
:10D8E0003CBAFC3B0E07275F0A83AE9A218248337D
:10D8F0002A382184BA6D9DFDF99C8F18BC85D9C149
:10D900008D3CCB1FBF182CC1745B31341213EE4A0F
:10D910004DE9D23A8000E7C86BCB037CBADC2839EA
:10D920004D83C84348C212C6A788438ED665464C6D
:10D930005239FDAC8F93DD09A3A0DA2E0E14E6BD9B
:10D9400022C25974C02D2B987CA913AA68C13C66C9
:10D95000059E8972B6E7044AFF0F5765E6565421C3
:10D96000F320B571321FF3E7EF7C5D5A4F3EF7B0FD
:10D970008CB53EC5C7E0D1B36589A382AD133C2FFA
:10D98000F47010398A5BAD28BBC45ABD539A4AE77C
:10D990002261C6509CD3175B3FBA7DB32935C96D50
:10D9A000076F2B133DC853EBD9A342B8EB98FA4548
:10D9B0008E954B7DC0A46687D8D8AA10D9DE4E8D2F
:10D9C0001790A1273A0BE29DF67F18BE875D53B8EA
:10D9D000BA8CB70F1DF02B327E7B22F0D1725D0620
:10D9E0001C4695A51AC1F9C2587434FCBBD02BF261
:10D9F000F80F5E106D4ED0E15B62C7BE3526B39561
:10DA0000F3E289DE6387AF068157187AF2CD1B9E59
:10DA1000A82179FB5F5B9F4720299C522A77268D9E
:10DA20007AA75607B5DFD0D845D449E18F40188B87
:10DA30008D5964E489691C4E4AED5E284C35DBFF44
:10DA4000DCC874A98B2ECD2BAD77822DB265A630A4
:10DA5000E7F38A6850A5F9A36A7C9650999E50F125
:10DA6000591A2DDB665DAB2AB3BB1A7DA90B78A1D1
:10DA700047DBADDB9C5CD6D069725FC27AE1832F55
:10DA8000CA6DB6C512C5E6B0F9C4B90EFC3C145453
:10DA9000BC15538F32281C751214194E581023EFE1
:10DAA000138637121A51F4492A7A984C0E340474AA
:10DAB0007FD4994E914B950BB142BD3B9ACD8B5A79
:10DAC00042DBB5161041A9C33AED6B5FD2688C34C6
:10DAD00056C9FE80DD5FA536EA618021E040EC5941
