:020000040802F0
:10000000889C00209D0102080D3D02083331020842
:10001000953C02085B150208519D02080000000093
:10002000000000000000000000000000C15F0208A6
:100030006523020800000000C9470208B9830208CE
:10004000B7010208B7010208B7010208B7010208A8
:10005000B7010208B7010208B7010208B701020898
:10006000B7010208B7010208B7010208B701020888
:10007000B7010208B7010208B7010208B701020878
:10008000B7010208B7010208B7010208B701020868
:10009000218E0208B7010208B7010208272B0208C7
:1000A000B7010208B7010208B7010208B701020848
:1000B000B7010208B7010208B7010208B701020838
:1000C000B7010208B7010208B7010208B701020828
:1000D000B7010208B7010208B7010208B701020818
:1000E000B7010208B7010208B7010208B701020808
:1000F000B7010208B7010208B7010208B7010208F8
:10010000000000000000000000000000B70102082D
:10011000B7010208B701020819850208B7010208F1
:10012000B7010208B7010208B7010208B7010208C7
:10013000B7010208B701020800000000000000003B
:10014000B7010208B7010208B70102080000000069
:10015000000000000000000000000000000000009F
:100160000000000000000000B7010208B70102080B
:10017000B7010208000000000000000000000000BD
:1001800000000000B7010208DFF80CD000F048F9C9
:1001900000480047C9A50208889C002006488047FF
:1001A00006480047FEE7FEE7FEE7FEE7FEE7FEE75C
:1001B000FEE7FEE7FEE7FEE7498402088901020840
:1001C0002DE9F05F0546002092469B46884606468C
:1001D000814640241BE0284641464746224600F01F
:1001E000B2F853465A46C01A914110D311461846E8
:1001F000224600F099F82D1A67EB01084F46224677
:100200000120002100F090F817EB00094E41201E5C
:10021000A4F10104DFDC484631462A464346BDE8E6
:10022000F09F40EA01039B0703D009E008C9121FB1
:1002300008C0042AFAD203E011F8013B00F8013BA0
:10024000521EF9D27047D2B201E000F8012B491ECC
:10025000FBD270470022F6E710B513460A46044663
:100260001946FFF7F0FF204610BD421E12F8013F6D
:10027000002BFBD111F8013B02F8013B002BF9D117
:1002800070470EB5C10F80EAE0700844CA0700212C
:1002900040F233438DE80E000A460B4600F072F838
:1002A00003B000BD3EB5CA17CB0F002450405140EB
:1002B000C0186141DA0740F233430094CDE90123CD
:1002C0002246234600F05EF803B030BD30B5041E70
:1002D00071F1000404DB4FF00044404264EB010183
:1002E000141E73F1000405DB1C464FF0004352421C
:1002F00063EB04038B4208BF824230BD30B50B462E
:10030000014600202022012409E021FA02F59D4245
:1003100005D303FA02F5491B04FA02F52844151E19
:10032000A2F10102F1DC30BD202A04DB203A00FA00
:1003300002F1002070479140C2F1200320FA03F33C
:10034000194390407047202A04DB203A21FA02F03A
:100350000021704721FA02F3D040C2F120029140FF
:1003600008431946704710B5141E73F1000408DAEB
:10037000401C41F1000192185B411A4301D120F069
:10038000010010BD2DE9F04D92469B4611B1B1FA26
:1003900081F202E0B0FA80F220329046FFF7C4FF0B
:1003A00004460F4640EA0A0041EA0B0153465A460A
:1003B000084313D0114653EA010019D0C8F1400296
:1003C0005046FFF7C0FF05460E4650465946424686
:1003D000FFF7AAFF084305D0012004E02046394674
:1003E000BDE8F08D0020054346EAE0762C43374314
:1003F0000A986305E40AA0EB08000022FD0A44EA1B
:1004000047540A3002D500200146E9E701051019DA
:100410006941DDE9084500196941BDE8F04DA2E7F1
:10042000064C074D06E0E06840F0010394E8070041
:1004300098471034AC42F6D3FFF7AAFEA44703084E
:10044000C447030870B58C1810F8015B15F007035A
:1004500001D110F8013B2A1106D110F8012B03E05D
:1004600010F8016B01F8016B5B1EF9D12B0705D465
:100470000023521E0DD401F8013BFAE710F8013BAE
:10048000CB1A921C03E013F8015B01F8015B521ECA
:10049000F9D5A142D8D3002070BD000000000000B3
:1004A000DFF776BEDFF776BEDFF776BEDFF776BE24
:1004B000DFF776BEDFF776BEDFF776BEDFF776BE14
:1004C000DFF776BEDFF776BEDFF776BEDFF776BE04
:1004D000DFF776BEDFF776BEDFF776BEDFF776BEF4
:1004E000DFF776BEDFF776BEAFF30080AFF30080B4
:1004F0002DE9F05FAFF30080B0F8DA114FF00002A1
:10050000B0F8DEB1B0F8E0C1DC4400F5AF6A002A13
:1005100008BF00F0CDF908BF2CE08B1C9A4208BF41
:1005200000F0C6F908BF25E0012A08BF00F0EDF988
:1005300008BF1FE04B1C9A4208BF00F0E6F908BF55
:1005400018E0531E1926B3FBF6F505FB06F55D1BF7
:1005500008BF00F0BFF908BF0CE00526B3FBF6F5B5
:1005600005FB06F55D1B08BF00F0C4F908BF01E0FC
:1005700000F0A4F9032A22D38A4220D2B0F89A319B
:1005800013F0040F02BF4FF4DF7300F5FA7400F0AC
:1005900058F8B0F89C3113F0040F02BF4FF4E07329
:1005A00000F5487400F04DF8B0F89E3113F0040FD8
:1005B00002BF4FF4E17300F24C4400F042F8002A0D
:1005C00008BF00F0E2F808BF20E08B1C9A4208BF89
:1005D00000F0DBF808BF19E0012A08BF00F0F5F8C9
:1005E00008BF13E04B1C9A4208BF00F0EEF808BFAA
:1005F0000CE0022A08BF00F008F908BF06E08A42B2
:1006000008BF00F002F901D000F0A7F800F04CF8A4
:10061000B0F8DC3113F0010F05D15A4503DB624518
:10062000B8BF00F01AF900F08BF98B1C9A421CBF7E
:10063000521C6CE7BDE8F09FAFF30080AFF3008081
:1006400000BF1444257814F8014CC72C88BF7047AC
:10065000002C08BF7047A54227BF26462D1B2E46FB
:10066000651BC62E88BF7047AC19C62C88BFC6F163
:10067000C6050BDC012C98BF7047022E9EBF0226D8
:10068000A51E03E0002D04BF761EAD1C142DA8BFCF
:100690001233C35A4FEA4606064426F8023B6D1E43
:1006A000FBD27047AFF300805FF4D3730446C55AA2
:1006B00015F0010F4BD11233C55A1233C65A243BE1
:1006C000B5F10208424504D1268014F5CA7426808B
:1006D0003DE018F10108424508D124F8026B26805C
:1006E00014F5C87424F8026B268030E018F1010874
:1006F000424517D124F8026B24F8026B268014F5CA
:10070000C67424F8026B24F8026B2680C55A15F0D3
:10071000020F07D1040014F5C87724F8086BA7422C
:10072000FBD214E018F10108424508D124F8026B0D
:10073000268014F5C87424F8026B268007E018F1AF
:100740000108424503D1268014F5CA7426809B1CFB
:10075000B3F5D67FAAD1704700BF5FF4D27304000F
:10076000C55A15F0020F0AD1551E15F0030506D122
:100770001233C55A44191233C65A2680243B9B1E95
:10078000B3F5CD7FECD5704700BF5FF4D2730400A2
:10079000C55A15F0010F11D11233C55A441912333D
:1007A000C65AA4F1040424F8026B24F8026B24F85E
:1007B000026B24F8026B24F8026B243B9B1EB3F5FA
:1007C000CD7FE5D57047AFF300805FF4D2730400AE
:1007D000C55A15F0010F0CD11233C55A4419123302
:1007E000C65AA41E24F8026B24F8026B24F8026B8C
:1007F000243B9B1EB3F5CD7FEAD57047AFF3008055
:10080000AFF30080AFF3008000BF5FF4D273040049
:10081000C55A15F0010F06D11233C55A44191233C7
:10082000C65A2680243B9B1EB3F5CD7FF0D570477A
:1008300000BF4FEA00044FF0660544F8043B013D59
:10084000FBD100F1020447F6EF337047AFF30080AD
:10085000AFF30080AFF3008000BFB0F8E25145195C
:10086000B0F8E46100F5F2773AF8024B14F00E03A9
:100870001CBFFB5A2B80AD1C4FEA141414F00E035E
:100880001CBFFB5A2B80AD1C4FEA141414F00E034E
:100890001CBFFB5A2B80AD1C4FEA141414F00E033E
:1008A0001CBFFB5A2B80AD1C083EDDD1704700BF3A
:1008B00076464FF00003FFF7BCFF304776464FF017
:1008C0000003FFF7B6FFA4F8903123803047AFF361
:1008D000008000BF76464FF00003FFF7AAFF2925EE
:1008E00024F80A3B6D1EFBD13047AFF30080AFF315
:1008F000008000BF76464FF00003FFF79AFF0925FE
:1009000024F8323B6D1EFBD13047764647F6EF3375
:10091000C7F6EF33FFF78DFF4FF00003A4F89231D5
:1009200024F8023C3047AFF30080AFF3008000BFF3
:1009300040F8041B521EFBD17047AFF3008000BF8C
:1009400005000FB5B0F8D811B0F8D6018018FFF740
:10095000B9FD5FF40060C4F600005FF40061CB22D3
:1009600035F8023BA0F814380185521E0183F7D1F7
:100970000FBD000010B500211420FFF793FD1A48A9
:10098000B0F91E10042901D0032908D1B0F91A10BA
:100990000B2904DD00214FF49774018704E0B0F9BE
:1009A0003A10124A32F81140B0F91A00022809DA56
:1009B00006211420FFF776FD0D491620FFF772FD82
:1009C000610808E005211420FFF76CFD0849162096
:1009D000FFF768FD21461720FFF764FD0121BDE800
:1009E00010401420FFF75EBDD00100209CC5020816
:1009F00034140020816841F00401816070470000D8
:100A00002DE9F843124C8046DDF8209020780F46FF
:100A100040F0040020701D46164643F6E7114FF6DD
:100A2000FF7003F01FFF0120009009F0FF03EAB2FE
:100A3000F1B2F8B203F0ACFA4346002204210620DA
:100A400003F086FF61690020A1F84200BDE8F88349
:100A5000740100200C4A6438D178527801EB81038C
:100A60001A440A4B9A5C12FB00F0094A8002126891
:100A700032F9112090FBF2F0064A126832F9111097
:100A800001441A20FFF70EBD8C010020B4D30208E8
:100A900058020020500200202DE9F04100252E468A
:100AA00000F044F81E4C00276420FFF7D3FF6420B9
:100AB00000F018FD0A2009F0B7FA00F037F8A08F0F
:100AC000B4F84010A0F2FF704042A1F2FF71494219
:100AD00000B209B248B1134BE2691B7832F81350E7
:100AE000284422F81300002501E06D1C2DB249B105
:100AF0000D4A206A0026127830F81230194420F886
:100B0000121001E0761C36B2042D01DD042E04DC47
:100B10007F1C3FB2B7F5C87FC6DBBDE8F08100009F
:100B2000340200208F0100209001002070B50025C4
:100B30002C4629461420FFF7B5FC40F2671115201A
:100B4000FFF7B0FC4FF400511720FFF7ABFC012179
:100B50001420FFF7A7FC1A20FFF7A2FC20B11B20EE
:100B6000FFF79EFC0028F6D14FF47A620B4910463D
:100B70005FEA420331F81060354401EB400606F5A8
:100B80008046401C368898423444F3D3B5FBF2F1DA
:100B90000348C163B4FBF2F1016470BD341400205A
:100BA000340200202DE9F05FFF4900272DED028B74
:100BB000FE484A6A007832F9102000EB800093006A
:100BC000FB4A12781044FB4A105C93FBF0F5FA489C
:100BD0008B6A007833F9103000EB80009B00F74CF3
:100BE00024782044105C93FBF0F4F5480078022848
:100BF0007DD0DFF8D0830026894600BFD9F82C20AD
:100C0000D9F83410B8F80200A2F500626A43A1F5E1
:100C10000061C0EB22326943C0EB2130101A01B2EF
:100C200028290ADAB8F900004246022805DD401EEC
:100C300010806420A8F802000BE06E290FDDB8F9DF
:100C40000010404609290ADA491C01806421A8F8ED
:100C5000021004F005FA08F083FD07F0BFF8D9F898
:100C60003020D9F83810B8F80C30A2F50062A1F5A0
:100C7000006162436143C3EB2232C3EB2131511A5D
:100C800009B24046282906DAB0F90A20022A02DD14
:100C9000521E428107E06E290EDDB0F90A100929C3
:100CA0000ADA491C41815021A8F80C1004F0D8F947
:100CB00008F056FD07F092F8761CF6B2092E9DD387
:100CC00004F0CEF964210320FFF7ECFBD9F82C10D7
:100CD000B8F80220A1F500616943C2EB2133D9F8CD
:100CE00034104646A1F50061C846694300E064E25D
:100CF000C2EB2131591AD9F83030D8F83800B2890E
:100D0000A3F50063A0F5006063436043C2EB2333A7
:100D1000C2EB2030181A09B200B24FF0000A1429B1
:100D200004DC142802DD0120708401E0A6F822A072
:100D300004F096F908F014FD07F050F86421032040
:100D4000FFF7B0FB708C9FEDA08BDFF88492DFF88B
:100D500084B200287ED0D8F83020B6F90C00A2F575
:100D600000626243C0EB2233D8F83820A2F500625B
:100D70006243C0EB22329A1AD31702EB9372D8F86F
:100D8000583042F38F02A3F500636343C0EB233076
:100D90000244B6F92A3064329A421CD000F1730042
:100DA000FFF76FFA41EC100B09F04FFA53EC182BD8
:100DB00051EC100BFFF78AFA09D2D8F85810B28913
:100DC000A1F500616143C2EB21317331718504F0FB
:100DD00047F907F003F8D9F80000B6F82A10828A1C
:100DE00002EB410101839BF8031041F001018BF8F4
:100DF000031008F0DBF864210320FFF753FBD8F859
:100E00005810B6F90C00A1F500616143C0EB213127
:100E10006431B1464FF0070B0A297DDD0121A9F8A5
:100E2000221004F01DF908F09BFC06F0D7FF6421A6
:100E30000320FFF737FB002604F012F9D8F8301032
:100E4000B9F80C20A1F500616143C2EB213148469D
:100E5000643100E009E009B228294BDAB0F90A2030
:100E6000022A47DD521E42814CE0D8F82C20B6F908
:100E70000200A2F500626A43C0EB2233D8F83420A6
:100E8000A2F500626A43C0EB22329A1AD31702EB32
:100E90009372D8F8543042F38F02A3F500636B438A
:100EA000C0EB23300244B6F9243064329A421CD09D
:100EB00000F17300FFF7E5F941EC100B09F0C5F9FB
:100EC00053EC182B51EC100BFFF700FA09D2D8F8AD
:100ED00054107288A1F500616943C2EB213173316E
:100EE000B18404F0BDF806F079FFD9F80000B18CA8
:100EF000428A75E764290EDDB0F90A1009290ADA79
:100F0000491C41815021A9F80C1004F0A9F808F0FF
:100F100027FC06F063FF00E004E0761CF6B2092E21
:100F20008AD31EE0D8F83020D8F83810A2F5006235
:100F30006243A1F50061C0EB22326143C0EB213076
:100F4000101A0A280DDAA9F80AB004F089F808F096
:100F500007FC06F043FF06F041FF32210320FFF7B4
:100F6000A1FAD8F85400B9F90220A0F5006068434E
:100F7000C2EB203064300A2852DDA9F822A004F028
:100F80006FF808F0EDFB06F029FF64210320FFF75E
:100F900089FA002604F064F8D8F82C104846B9F80D
:100FA0000220A1F5006117E0340200208F0100202B
:100FB0008D010020B4D30208900100208E01002092
:100FC000B5010020D0010020000000000060684052
:100FD00088010020C70100206943C2EB2131643140
:100FE00009B2282906DAB0F90020022A02DD521ED1
:100FF000028007E064290EDDB0F9001009290ADA41
:10100000491C01806421A9F8021004F029F808F0B5
:10101000A7FB06F0E3FE761CF6B2092EBAD31CE05D
:10102000D8F82C00D8F83410A0F50060A1F50061C4
:1010300068436943C2EB2030C2EB2131401A0A28D1
:101040000BDAA9F800B004F00BF808F089FB06F001
:10105000C5FE32210320FFF725FA4E46B9F82200DB
:101060004FF005094FF0030AB0B1D8F83000B1894C
:10107000A0F500606043C1EB2032D8F83800454647
:10108000A0F500606043C1EB2030101A0FFA80F821
:10109000002403F0E5FF60E0D8F82C107088A1F57B
:1010A00000616943C0EB2132D8F834104446A1F501
:1010B00000616943C0EB2130101A0FFA80F8002557
:1010C00003F0CEFF03E000BF03F0CAFF87B9606FF3
:1010D0003C280DD2B6F91A00052809DD032005F0D9
:1010E00067FEA6F81AA003F0BBFF06F077FE012703
:1010F000606FB42807D9B6F91A10012903DD491E1B
:101100007183C8B208E050280ED2B6F91A000B2835
:101110000ADA401C7083C0B205F04AFE06F05EFE9B
:1011200032210320FFF7BEF96D1CEDB20B2DCBD39E
:10113000B8F1140F41DA4846A6F81A9005F038FEC7
:1011400006F04CFEBDEC028B3221BDE8F05F0320BF
:10115000FFF7A8B903F084FF87B9A86F3C280DD228
:10116000B6F91A00052809DD032005F021FEA6F8CE
:101170001AA003F075FF06F031FE0127A96FB4290C
:1011800005D9B6F91A00012801DD401E06E05029F4
:101190000ED2B6F91A000B280ADA401C7083C0B2CE
:1011A00005F006FE06F01AFE32210320FFF77AF959
:1011B000641CE4B20B2CCDD3BAE7BDEC028BBDE8C6
:1011C000F09F00002DE9FF4FDFF8E88185B04FF672
:1011D000FF7798F80010129E41F0040188F8001083
:1011E00043F6E7199A469346B5083946484603F050
:1011F00039FB06980124F3B20AF0FF020BF0FF015D
:101200000094C0B202F0C4FE3946484603F02AFBFF
:10121000002253212846059B03F09AFB1120FFF77B
:101220003FF9654D81B24FF47A702981414304231F
:10123000624A01A8009408F0A3FD61A300224621A0
:101240000E2003F085FB01AB002246214A2003F06B
:101250007FFB0E20FFF724F980B241F268070026D9
:101260002880B84208D91220FFF71AF981B2A98163
:101270004FF47A70009606E01320FFF711F981B25F
:1012800069815248009641430323514A01A808F05E
:1012900077FD50A300223B210E2003F059FB01AB48
:1012A00000223B214A2003F053FB2888B84206D98C
:1012B0001520FFF7F5F828610146009605E0162095
:1012C000FFF7EEF86861414200960323444A01A803
:1012D00008F056FD43A3002230210E2003F038FB16
:1012E00001AB002230214A2003F032FB0094298810
:1012F0004FF47A7041430423304A01A808F040FDBE
:101300003BA3002225210E2003F022FB01AB00228B
:1013100025214A2003F01CFB0F20FFF7C1F881B202
:1013200069804FF47A7041430323294A01A800944D
:1013300008F026FD31A300221A210E2003F008FB3D
:1013400001AB00221A214A2003F002FB1020FFF714
:10135000A7F8A88001B201A805F052FB43208DF840
:1013600009008DF80A6028A300220F210E2003F047
:10137000EFFA01AB00220F214A2003F0E9FA0D2019
:10138000FFF78EF8E880A98801A801F0A3FE21A349
:10139000002204210E2003F0DBFA01AB002204211D
:1013A000562003F0D5FAD8F81400A0F8426009B02E
:1013B000BDE8F08F74010020FC130020B6C50208C0
:1013C00020566F6C746167653A20000018FCFFFFBF
:1013D0001ED302082043757272656E743A200000B5
:1013E00030D3020843617061636974793A20000068
:1013F00020202020567573623A20000020202020F3
:10140000497573623A2000005077722054656D7000
:101410003A20000050777220537461743A2030787B
:10142000000000001CB54FF4FC6143F6E71005F026
:1014300061FB16210220CDE9000108480B23E122BF
:101440000321008801F008FA02B03022E121BDE852
:10145000104003A3062001F0EBB900008601002034
:101460003B2A40001FB5124C1048617830F811102B
:1014700043F6E71005F03EFB60780C4900EB800076
:10148000243908441621006802900220CDE90001A9
:1014900008480B23E1220321008801F0DDF902ABAB
:1014A0003022E121062001F0C3F91FBD16C6020853
:1014B000B001002086010020084910B508800848C6
:1014C000807A00EB800041000620FEF7EBFF01214F
:1014D000BDE810400520FEF7E5BF00001203002024
:1014E000100200200C4A64381179927801EB8103D4
:1014F0001A440A4B9A5C12FB00F0094A80021268F7
:1015000032F9112090FBF2F0064A126832F91110FC
:1015100001441B20FEF7C6BF8C010020B4D3020893
:101520005C0200205402002010B578B14FF48054C2
:10153000012805D002280FD11021012005F07CFBE5
:101540002146BDE81040022005F02EBB1021BDE869
:101550001040012005F070BB10BDFEE7C1B2000ACB
:1015600040EA01207047000070B55E485E4C0021E3
:101570004288A4F1400302E05D5C6554491C1546B5
:101580009142F9D35849636820311F2D4B60A368FD
:101590008B6006D00220FFF7C7FF00201A212060D1
:1015A00020E0E17B282901D02A290AD1D4F8112092
:1015B000237D12BA22F0FF021A434260E28A52BA35
:1015C00082604A4B22689A4252D1494B627B1B6827
:1015D0009A4203D8A27B0AB1102A0CD90220FFF745
:1015E000A3FF2421052005F01FFCBDE87040002169
:1015F000012005F0F5BB282960D01DDC1A2949D04F
:101600000DDC0A296AD005DCB9B3032936D00829D4
:101610002ED163E0122935D0152929D15EE01E298B
:1016200034D004DC1B2931D01D2921D156E02329D7
:1016300038D025291CD139E08A294FD00CDC552916
:101640004CD004DC2A293FD02F2911D142E05A295D
:1016500024D088290CD141E0A8293FD004DC8F296F
:101660003CD09E2904D139E0AA2937D0AF2935D002
:101670000220FFF759FF2021B4E71BE0BDE87040CE
:1016800004F0E6BBBDE8704004F058BBBDE8704014
:1016900004F0EABBBDE8704004F082BBBDE87040D6
:1016A00004F078BBBDE8704004F0C2BBBDE87040F8
:1016B00004F0ACBBBDE8704004F0DABB8168406860
:1016C000BDE8704004F072BB81684068BDE87040BE
:1016D00004F0ECBBBDE8704004F0CEBBBDE8704048
:1016E00004F040BB1C0000209003002055534243EF
:1016F0008000002010B555227B214E20FEF7DCFE35
:10170000052008F091FC99227B214E20FEF7D4FEA3
:10171000BDE81040642008F087BC00002DE9F04FC0
:10172000F3A0B9B0D0E90056806804904822F3498C
:101730000CA8FEF776FD3C22F1A11EA8FEF771FD74
:10174000FEA22DAB07CA83E807004FF00009CDF8D1
:10175000189001230BAA75214E20CDF8C890FEF7F2
:10176000ADFE012330AA73214E20FEF7A7FEF64CF2
:101770009DF82C10207888427DD304D160789DF8A4
:10178000C010884277D94FF6FF71002005F0B2F9FA
:10179000EEA300225A21082001F038F8EBA3002222
:1017A0004621082001F032F8F3A300225A21082034
:1017B00001F02CF8FBA300224621082001F026F8B6
:1017C000608804F1040440BA5FEA000871D0E8B20E
:1017D0004FF0000B07907B214E20079AFEF76CFE1E
:1017E000012008F021FCC5F307227B214E20FEF7E3
:1017F00063FE282008F018FC01230BAA19464E208E
:10180000FEF75CFE4FF4967716E07B214E20079A98
:10181000FEF752FE0A2008F007FCC5F307227B21E1
:101820004E20FEF749FE384608F0FEFB01230BAAC6
:1018300019464E20FEF742FE9DF82C002128E4D1E7
:10184000C5F3074202214E20FEF736FE2A0E042180
:101850004E20FEF731FE01230BAA05214E20FEF794
:101860002DFEF2B203214E20FEF726FE3D21C6F3E7
:1018700007224E2000E034E0FEF71EFEC6F30742CA
:1018800052214E20FEF718FE642008F0CDFB012304
:101890000BAA52214E20FEF711FE9DF82C002E2897
:1018A0001FD101230BAA05214E20FEF707FE0027BA
:1018B00007E02CE0E25D53214E20FEF7FDFD80B9EC
:1018C0007F1C4745F6DB4FF4487008F0ADFB012361
:1018D0000BAA04214E20FEF7F1FD9DF82C00800795
:1018E00003D4012039B0BDE8F08F01230BAA1946BB
:1018F0004E20FEF7E3FD9DF82C002F2807D00BF1BA
:10190000010000F0FF0BBBF1030FFFF464AF8E4941
:1019100001EB0800808840BA0A90002879D00020A6
:10192000319004EB080034900A99801C00EB010907
:10193000C5F307403590DDE9344202214E20A41C56
:10194000FEF7BAFD2A0E04214E20FEF7B5FDF2B2D5
:1019500003214E20FEF7B0FD4FF0000A4C457DD02C
:101960002278292A06D02A2A23D02C2A3ED02D2AB2
:1019700067D14FE0E078069908430102A078084358
:10198000069052214E20FEF797FD0698012700F1A0
:10199000010B05E0E25D53214E20FEF78DFD7F1C1B
:1019A0005F45F7DB320E67214E20FEF785FD069876
:1019B00019E06088099052214E20FEF77DFD0998BC
:1019C000012700F1010B05E0E25D53214E20FEF7F7
:1019D00073FD7F1C5F45F7DB04986721C2B24E2080
:1019E000FEF76AFD09980444641C2AE04FF01C0BC2
:1019F00052214E20FEF760FD01275321E25D4E206B
:101A0000FEF75AFD7F1C5F45F7DB0498C0F3072201
:101A100012E036E04FF4F17B52214E20FEF74CFDF0
:101A200001275321E25D4E20FEF746FD7F1C5F45F6
:101A3000F7DB0498C0F3074267214E20FEF73CFD18
:101A40005C44642008F0F0FA01230BAA04214E2024
:101A5000FEF734FD9DF82C00400600E008E001D4BC
:101A6000012032900AF1010ABAF1040FFFF676AFB5
:101A7000329830B13198401CC0B231900328FFF445
:101A80005AAF4FF4967008F0CFFA0A99DFF8B8B061
:101A900008EB010A0AEB0B0009F1010884792CB369
:101AA000C5F3074202214E20FEF706FD2A0E04214F
:101AB0004E20FEF701FDF2B203214E20FEF7FCFCA2
:101AC00000270DF1300907E018F8072019F8071072
:101AD0004E20FEF7F1FC7F1CA742F5DB049867213E
:101AE000020E4E20FEF7E8FCC82071E072E0000014
:101AF0005577AA00E3082EA0908488825C470308EB
:101B000017181A191C1B1D0608071F1E090A0B159A
:101B1000200C16212223240D0E26252A292C2B0FDA
:101B20001011122D2E13142F303231343337360169
:101B30000005043538394342454447001D1E1F2027
:101B40002122232425260000E4D40208202020207E
:101B50002020202020202020202020202020202085
:101B60002020202020202020202020202020202075
:101B70002020202000000000202020202020546F62
:101B80007563682070726F6772616D2020697320C1
:101B9000757067726164696E672E2E2E202020207A
:101BA000000000002020202020202020506C6561B3
:101BB000736520776169742061206665772073659D
:101BC000636F6E647320202020202020000000001E
:101BD00008F02AFA0AEB040101EB0B004444C77930
:101BE000641CEFB34FF0170A4FF01909C5F3074211
:101BF00002214E20FEF760FC2A0E04214E20FEF743
:101C00005BFCF2B203214E20FEF756FC00260DF1DC
:101C1000B40800BF18F8062050214E20FEF74CFCF7
:101C2000A25D51214E20FEF747FC761C0A2EF1DB07
:101C30000A260DF1780819E0524650214E20FEF791
:101C40003BFC08EB0600512110F80A2C4E20FEF751
:101C500033FC4A4650214E20FEF72EFCA25D00E0E8
:101C60000FE051214E20FEF727FC761CBE42E3DB3D
:101C700004986721020E4E20FEF71EFCC82008F0D3
:101C8000D3F92A0E144603214E20FEF715FC2246F6
:101C900002214E20FEF710FCFFF72CFD4FF496704A
:101CA00008F0C2F900201DE62DE9F84F0020ADF83C
:101CB0000000DFF834A14BF6BF7648F280074A4DAA
:101CC0004A4C40F68F7848F60F7BDFF824910AF1F2
:101CD000440A31E00888474A10F00F00107034D0F1
:101CE000454901EB8001D1F8002CADF80020BDF88A
:101CF000002012040BD5D1F8002C02EA0802C1F82A
:101D0000002C3E4901EB800050F8040C8047BDF8E0
:101D10000000000610D537483749007801EB8001F4
:101D2000D1F8002C02EA0B02C1F8002C344901EB77
:101D3000800050F8040C8047DAF800004946A9F802
:101D400000000004C6D4BDE8F88F286820802088F1
:101D500000F030006080208800F440502080286827
:101D6000304080F4005080F020003843286008881C
:101D7000C006286815D400EA0B00286001F0DAF9E3
:101D800026E02188890401D580F400506188C906C5
:101D900026D46188890601D580F020003843286068
:101DA000D1E7ADF80000BDF80000000506D52868B1
:101DB00000EA0800286005F03DF809E0BDF80000E1
:101DC0000004B9D5286800EA0800286002F0B6FAD5
:101DD000286821883040C904D3D580F48050D0E7EA
:101DE00080F01000D5E70000005C004016000020E5
:101DF0007C00002004000020005000406000002013
:101E000044000020810008480844D0F8001C490420
:101E100009D5D0F8001C48F68F7211404CF28002B0
:101E20001143C0F8001C7047005000408100084872
:101E30000844D0F8001C490609D5D0F8001C48F623
:101E40008F72114048F2C0021143C0F8001C704765
:101E5000005000402DE9F0410027804613263C4603
:101E60003846791C8FB2314604F01AFF00254046EF
:101E700004F008FF6D1CADB2CC2DF8D3641CA4B2E5
:101E8000072CEDD3BDE8F0812DE9F0411426804602
:101E900040F2051700243846791C8FB2314604F011
:101EA000FFFE0025404604F0EDFE6D1CADB2CC2DCA
:101EB000F8D3641CA4B23B2CEDD3BDE8F081000044
:101EC000810006480144D1F8000C48F68F621040AA
:101ED00048F280021043C1F8000C704700500040E7
:101EE0002DE9F041064640F6FF700F4610801D4672
:101EF0001146304604F0C6FD154CA08A82B228680F
:101F0000010B0903304603F09FFDF0B9298820201A
:101F1000C1F30B013144C8722888C0F30B00304470
:101F2000C7612868010B0903304603F049FD60B919
:101F3000A08A216882B2304603F086FD28B9304677
:101F4000616803F03DFD002800D00120BDE8F0816C
:101F5000141400200648017821F046010170090799
:101F600004D440690121A0F84210704700F0FCB988
:101F70007401002070B506460021084604F090FE6A
:101F800000244FF49635304604F07CFE641CAC42CD
:101F9000F9D370BD2DE9F0410A270E2680460024B2
:101FA0003846791C8FB2314604F07AFE002540464F
:101FB00004F068FE6D1CADB2062DF8D3641CA4B20B
:101FC000FA2CEDD3BDE8F081A0F57F41FF3906D0B2
:101FD00040F2FF71B1EB501F03D101207047002088
:101FE00070474BF6E051814305D01F49B1EB405F8C
:101FF00003D1032070470220704740F2F75181431C
:1020000020D04FF61F0181431ED04BF617018143AC
:102010001CD0C0F345113F291AD04FF4BC61814355
:1020200018D047F6EF31814316D040F21F5181435B
:1020300014D04FF61041814312D0C043C00611D0D6
:102040000D20704704207047052070470620704718
:102050000720704708207047092070470A20704702
:102060000B2070470C2070470000E0FF03F0B0BD6C
:102070002DE9F047DFF89480254F4FF03009D8F86C
:10208000001001F11005088A0E7A08B9042E04D058
:10209000AC88A04215D8042614E01E480178012916
:1020A00003D00726102038802BE01B4A002112683D
:1020B0001A4B120403EBD2325160A7F80090017062
:1020C0001FE00226844200D90446A96820468847BA
:1020D0008246002000F09CFF01462246504607F051
:1020E00039FE2146002004F099FD2888001B288035
:1020F000688820446880A7F8009009494FF4405050
:102100000880D8F800000672BDE8F08708000020BB
:102110001800002000000020505C004000600040DB
:10212000160000202DE9F047224EDFF88C80302782
:10213000356835F8100FA968A9B100B3AC8884429E
:1021400000D904462046884781462888001B2880FD
:10215000688820446880002000F03AFF014622464B
:10216000484602F00FF9288848B114494FF440500E
:1021700008800021084604F051FDA8F80070288866
:10218000A988884201D3032001E020B105203168ED
:102190000872BDE8F08731680620087208490020FF
:1021A0000968084A090402EBD1314860A8F80070B8
:1021B000EFE70000080000201800002016000020B3
:1021C000505C004000600040F8B55D4C5D4D092654
:1021D0002068002729684278062A05D0AAB1082A73
:1021E0004DD00A2A50D06BE00278520668D1807830
:1021F000012804D0022804D0032804D060E0C96973
:1022000056E0096A54E0496A52E04288B2BBC2888B
:10221000022A55D102798ABB0278530601D18388FC
:1022200033B102F07F02012A04D0022A0CD047E029
:1022300045493DE08A69407900219047F0B920681E
:10224000807A0028F4D13BE0417901F00F0001F0E1
:1022500070020B063D4901EB8001D1F8001C03D54B
:10226000C1F30111090102E0C1F301310903384B47
:102270001B78834224D90AB90029D9D120E00078FB
:1022800040061DD1334913E0027802F07F02012A93
:1022900016D1827AA2B1428892B9027982B9C288F3
:1022A000012A0DD18A6940790021904740B92A4915
:1022B00031B120684782816100208847002006E014
:1022C00029682068096940788847032813D0216865
:1022D0000A8AA2F57F43FF3B0BD002280ED06AB1D9
:1022E0000878000626D5C888009082420AD908825C
:1022F00018E00E72F8BD20680672F8BD4FF00800B5
:102300000872F8BD0ED22868144B90F82C00824257
:1023100001D21F7006E0B2FBF0F400FB142008B9F4
:1023200001201870286890F82C008882BDE8F840D9
:10233000FFF79EBE03200872094900030880F8BD1C
:10234000080000200C000020F98102080050004025
:10235000EC0000208D810208D181020800000020DD
:10236000160000207047000008B54FF6FF710020EE
:1023700002F078FA114908202923087000200A2168
:1023800000903022084601F003FE4FF6E071002075
:1023900002F068FA0AA310221A21042002F0B2FA0D
:1023A00040F21F51002002F05DFA01B000220A2124
:1023B00005A304205DF804EB02F0A4BA7401002028
:1023C00044656D6F000000006F6E6C7900000000C6
:1023D0002DE9F84F82460A9D234EA5F1660000EBD9
:1023E000D070C0F34F043078894640F0040030705C
:1023F0001F46904643F6E7114FF6FF7002F032FA9F
:1024000001200090EBB2FAB208F0FF0109F0FF00E2
:1024100001F0BEFD534600221021062002F098FA7A
:1024200012A320220421204602F092FA04F10C00AB
:1024300080B20FA30022042102F08AFA04F13C00CA
:1024400080B20DA32022042102F082FA4834A0B207
:102450000AA30022042102F07BFA71690020A1F88E
:102460004200BDE8F88F0000740100205B5C0000B2
:102470003A59657300000000282900003A4E6F00A9
:1024800038B51B4C054643F6E711207840F00200B2
:1024900020704FF6FF7002F0E5F9012000907823DC
:1024A000202232217D2001F073FD2B4600221021D5
:1024B000062002F04DFA0FA3202204210C2002F086
:1024C00047FA0DA300220421182002F041FA0CA3C0
:1024D00020220421422002F03BFA0AA30022042118
:1024E0004E2002F035FA61690020A1F8420038BDA3
:1024F000740100205B5C00003A5965730000000025
:10250000282900003A4E6F0008480749416101F54B
:10251000805101F1200282610932C0E907210020C7
:10252000C861886170470000C0030020500100208E
:102530004FF48052FDF7BEBFFDF7BABF2DE9F0475B
:10254000DFF81081894605460026A80608D54FEA1F
:10255000C900A0F500704049304431F8104004E053
:102560003146484600F0A4FD0446680607D5F0074A
:1025700002D04AF6AA2001E045F255500440B8F8CE
:102580000E10B8F80C0004F08BFBA8060BD5B9F1BF
:10259000610F12D0B9F1620F0FD0B9F14C0F23D0F7
:1025A000B9F1480F20D0002760074FEAC5604DD52C
:1025B000002837DAB8F8100036E0002760074FEA45
:1025C000C5600ED5002802DAB8F8100001E0B8F8AE
:1025D000120004F057FB7F1C6408BFB20B2FEDD331
:1025E00029E00028F3DBEFE7B8F80E10B8F80C008C
:1025F00004F056FB002760074FEAC5600FD500289E
:1026000003DA00BFB8F8100001E0B8F8120004F0D7
:1026100039FB7F1C6408BFB20B2FECD30BE0002802
:10262000F3DBEFE7B8F8120004F02CFB7F1C640822
:10263000BFB20E2FB8D3B8F80C10761C491CB6B236
:10264000A8F80C10082E80D3BDE8F0870028E9DB3D
:10265000B0E700007401002064B302082DE9F047E0
:10266000DFF84481894605460026A80609D5A9F168
:10267000210000EB40004D4906EB400031F81040CE
:1026800004E03146484600F001FD0446680607D5DF
:10269000F00702D04AF6AA2001E045F25550044066
:1026A000B8F80E10B8F80C0004F0FAFAA8060BD52A
:1026B000B9F1610F13D0B9F1620F10D0B9F1630F06
:1026C00024D0B9F1640F21D04746B8F80E10B8F8FD
:1026D0000C0004F0E5FAE80638D5788A37E00027E0
:1026E00060074FEAC5600ED5002802DAB8F810007E
:1026F00001E0B8F8120004F0C5FA7F1C6408BFB20C
:102700000A2FEDD340E00028F3DBEFE7B8F80E0026
:10271000093081B2B8F80C0004F0C2FA0027600753
:102720004FEAC5600FD5002803DA00BFB8F81000E3
:1027300001E0B8F8120004F0A5FA7F1C6408BFB2EB
:10274000052FECD320E00028F3DBEFE7388A04F014
:1027500099FAF989B846491C89B2B88904F0A0FAF7
:102760000027E0074FEAC5601AD0002803DA00BF4F
:10277000B8F8100001E0B8F8120004F083FA7F1CEA
:102780006408BFB20A2FECD3B8F80C10761C491CB1
:10279000B6B2A8F80C10062EFFF467AFBDE8F087BC
:1027A0000028E8DBE4E7000074010020ACBA02086E
:1027B00010B504461F2143F6E71004F09BF90EA361
:1027C00000220221FC2000F021F80F49C4EBC400D4
:1027D00001EB400300220321FC2000F029F84FF414
:1027E0007A710320FDF75EFE00220221BDE8104051
:1027F00001A3FC2000F00AB8202020202020202067
:102800002020202020000000FCC6020870B51546DC
:10281000024606481C468281C18103E02846641CAA
:10282000FFF78CFE21780029F8D170BD74010020DB
:1028300070B51546074A1C469081D181FDF742FECE
:1028400003E02846641CFFF709FF21780029F8D12E
:1028500070BD0000740100202DE9FF5F8846084626
:10286000DDE90EA9911C89B21C4615468B4604F081
:1028700017FA0027261F04E0009804F003FA7F1CD3
:10288000BFB2B742F8DBC1441FFA89F0594604F0E1
:1028900007FA002704E0009804F0F4F97F1CBFB2A7
:1028A000B742F8DB691C08F1010089B280B28B469F
:1028B00004F0F6F90027A61E04E0009804F0E2F9FF
:1028C0007F1CBFB2B742F8DBA9F1010080B25946C4
:1028D00004F0E6F9002704E0009804F0D3F97F1C27
:1028E000BFB2B742F8DBA9F1020080B2294604F07A
:1028F000D7F9002604E0009804F0C4F9761CB6B2BB
:10290000A642F8D308F1020086B2A846002710E0DC
:102910003046761CB6B2414604F0C2F9002504E008
:10292000009804F0AFF96D1CADB2A542F8D37F1C3E
:10293000BFB25745ECD3BDE8FF9F2DE9F05F83465A
:102940000D4608461C4690461146DDF8289004F0D6
:10295000A7F943F6E71A5646504604F093F9304675
:1029600004F090F90026271F04E0584604F08AF985
:10297000761CB6B2BE42F8DB5646504604F082F9E9
:10298000304604F07FF9681C80B2414604F088F9B3
:10299000304604F077F90026A71E04E0584604F0FC
:1029A00071F9761CB6B2BE42F8DB504604F06AF903
:1029B000AD1CADB24146284604F072F9002710E084
:1029C00028466D1CADB2414604F06AF9002604E0C9
:1029D000584604F057F9761CB6B2A642F8D37F1CCD
:1029E000BFB24F45ECD3BDE8F09F2DE9FF4F81B05A
:1029F0008946DDE90EB50C461E4611464846009252
:102A000004F04EF9002011E02046641CA4B20099A5
:102A100004F046F9002704E0019804F033F97F1C24
:102A2000BFB2B742F8D308F1010080B28046A84295
:102A3000EAD309EB050080B2009904F031F968424D
:102A40004FF000080BEB400A22E02046009904F00A
:102A500027F9002704E0019804F014F97F1CBFB2A5
:102A6000AF42F8D300983044401B81B22046641C2A
:102A7000A4B204F015F9002704E0019804F002F96B
:102A80007F1CBFB2AF42F8D308F101001FFA80F8F3
:102A9000C245DADC09EB0B00401B84B220460099EA
:102AA00004F0FEF8002011E02046641CA4B2009956
:102AB00004F0F6F8002704E0019804F0E3F87F1C26
:102AC000BFB2B742F8D308F1010080B28046A842F5
:102AD000EAD305B0BDE8F08F2DE9F0470C468246F9
:102AE0001F46914611462046DDF8208004F0D8F8B4
:102AF000002610E02046641CA4B2494604F0D0F839
:102B0000002504E0504604F0BDF86D1CADB2BD4296
:102B1000F8D3761CB6B24645ECD3BDE8F08700F09A
:102B200091BE00F0B9BE10B5082000F005F8BDE870
:102B30001040FFF79BBA000000F01F0201219140F6
:102B4000034A20F01F001044C0F81414704700001E
:102B5000000001400146012003E000BF00EB8000BF
:102B60004000491EC9B2F9D2704700002DE9F0417A
:102B700015460C46074600F0C5F811484FF480662C
:102B80000680032000F090F8C4F3074000F08CF8B2
:102B9000C4F3072000F088F8E0B200F085F80024C4
:102BA00006E000BF00F03EF8C0433855641CA4B2F4
:102BB000AC42F7D3024810380660BDE8F08100004F
:102BC000280C00482DE9F04117460C46054600F058
:102BD00099F8012000F0B2F811484FF480660680A1
:102BE000384600F061F8C4F3074000F05DF8C4F324
:102BF000072000F059F8E0B200F056F80024285DF4
:102C0000C043C0B200F050F8641CA4B2FF2CF6D947
:102C1000034810380660BDE8F041002000F08EB88F
:102C2000280C0048A52000F03FB82DE9F0410746E8
:102C30000D460920FDF734FC86B2701E85432846F8
:102C400000F00EF8002406E0291938190222FFF7D7
:102C5000B9FF04F58074B442F6D3BDE8F0810000FA
:102C600070B5044600F04EF8012000F067F80D48FA
:102C70004FF480650580202000F016F8C4F307406B
:102C800000F012F8C4F3072000F00EF8E0B200F0F4
:102C90000BF8044810380560BDE87040002000F0D3
:102CA0004DB80000280C00482DE9F04107460024EB
:102CB000124D134E03E02046641CA8420FD8022197
:102CC000304603F02DF90028F5D03946304603F0A0
:102CD00075F9002406E02046641CA84202D9FF20B2
:102CE000BDE8F0810121304603F01AF90028F2D046
:102CF0003046BDE8F04103F057B90000A08601005E
:102D00000038004070B50B484FF480650024058002
:102D10000520FFF7C9FF084E03E02046641CB042BF
:102D200006D8FFF77FFFC007F7D1024810380560CB
:102D300070BD0000280C0048A086010010B50749AE
:102D40004FF480640C80012806D00420FFF7ACFF0C
:102D500002481038046010BD0620F7E7280C004830
:102D600070B505464FF43026304600F05DF8042873
:102D700010D1094C206940F0020020616561206992
:102D800040F040002061304600F04EF8216921F00B
:102D90000201216170BD00000020024008490420AA
:102DA000CA68D20701D001207047CA68D20601D58F
:102DB00002207047C9684907FBD50320704700000F
:102DC000002002400248016941F080010161704722
:102DD00000200240F0B506464FF430270D46384635
:102DE00000F022F804280CD1064C206940F00100C4
:102DF00020613580384600F017F8216921F0010183
:102E00002161F0BD0020024004480169090603D594
:102E100003494160034941607047000000200240BF
:102E200023016745AB89EFCD00B50346FFF7B6FF39
:102E300003E000BFFFF7B2FF5B1E012803D0002BA9
:102E400000D1052000BD002BF4D1FAE72DE9F74FA2
:102E5000DFF8BC8082B008F1040998F80310A8F1EB
:102E60001000154611F80940867943F6E7114FF630
:102E7000FF7001F0F7FC274804275423017841F044
:102E8000400101700120009007EB0610C2B22248F9
:102E9000015D0E30005D01F07BF801242EE0311B56
:102EA00007EB011189B20091039906208C4201D1F0
:102EB000102100E000218B460A462B46009901F0C4
:102EC00047FD4FF0240A012C15D998F80310124839
:102ED00011F809101A38405C0D4950310144601E48
:102EE0000A5C0EA10F4807F079F90E4B5A4650467E
:102EF000009901F02DFD641CE4B20D35B442CED929
:102F0000094941F28830088005B0BDE8F08F000023
:102F1000C0010020740100207FC502082530326402
:102F2000000000004094002098010020F0B500222D
:102F3000012503240E6805FA02F31E409E422DD19E
:102F40000E79012E01D0022E13D18768560004FAA3
:102F500006FC27EA0C0787604F79B740866837433D
:102F6000876086889E43868086888B7993401E433F
:102F700086800768560004FA06F39F4307600F79BE
:102F8000D0F800C0B74047EA0C070760C7689F4306
:102F9000C760CB79B340C6683343C360521C102A64
:102FA000C8D3F0BD4B07DB0E9A40C90810B500EB43
:102FB0008100016A0F249C40A1430162016A114310
:102FC000016210BD1D226C214E20FDF775BA000074
:102FD0000549096889B201EBC000044901EB4000D2
:102FE000008980B270470000505C004000600040E3
:102FF0000549096889B201EBC000044901EB4000B2
:103000008089C0F309007047505C004000600040B8
:103010000449096889B201EBC000034931F8100086
:1030200080B27047505C00400060004008B1044826
:103030007047044901200968088200207047000099
:1030400080000020080000200E4810B50068021D16
:10305000111D002815D00C4B040A98701C71040C2B
:103060009C71000E18729A72100A1873100C9873E3
:10307000100E18749974080A1875080C9875080EC3
:10308000187610BDACF7FF1F2800002021385E28FD
:1030900009D2062907D200EB400001EB40000349AA
:1030A00031F81000704700207047000044B6020855
:1030B000A0F121025E2A09D2082907D2C000A0F59A
:1030C00084700844024931F81000704700207047AE
:1030D00014BF020810B537223023B1F5204F02D3B8
:1030E00002EB113401E003EB1134C1F30B0100F8E2
:1030F000014BB1F5206F02D302EB112401E003EB89
:103100001124C9B200F8014B9F2902D902EB111218
:1031100001E003EB111201F00F0100F8012B092966
:1031200001D9373100E0303100F8011B0021017076
:1031300010BDFEE710B5134C2068017A022904D0B7
:10314000042902D0062905D015E0FEF791FF20687A
:10315000007A11E04178052909D10178490606D1A4
:10316000C07803F0CDFC08480068006A8047074833
:10317000006880688047082021680872BDE8104018
:1031800001F050BC08000020100000200C000020BE
:103190000A484FF480514A00C0E900124FF44052EF
:1031A00082604FF4E042C2600122027742774161BF
:1031B000016140F2FF71816100207047141400200A
:1031C00070B53A498A7842F001028A70CA78091DBE
:1031D00001F14C039B7B12B1012A62D141E0545CA6
:1031E0003349324A095DD21D34B1012C08D0032C79
:1031F0000AD0042C55D1891C147944F001041471AF
:10320000147944F001041471D47944F00104D471A8
:10321000264A284C1032012832F9110004F14005E9
:1032200005D035F91150A84212DD401E0DE034F9E9
:103230001140A04201DA401C07E093BB89B3052985
:103240002FD00D292DD035F8110022F8110028E0DB
:103250003BBB31B3052924D00D2922D034F811000D
:10326000F3E7515C114A01EB41016132491C01282D
:10327000114C505C05D034F81140A04209D9401ED1
:103280000CE0062801D2401C08E043B914F81100F4
:1032900004E023B90848243810F81100505404F011
:1032A00083F8BDE8704005F08BBF0000C00100202E
:1032B00071C5020852D10208FAD202082DE9F05F66
:1032C000274C00262078012848D14FF0000984F8C7
:1032D00000901C20FDF7E4F885B22089DFF8848097
:1032E000214F35EA00004FF0320A4FF0030B0BD0AC
:1032F000A8F800A0A7F800B0E80700D00126A807AA
:103300002AD50220E08027E005F014FA064620893D
:1033100005421AD0B8F80000192806D2398821B918
:1033200015F03C0F01D0A7F800B03988084313D13D
:10333000A807002804DA4FF40076A4F8069000E00D
:103340000AD04FF01900388006E0E08810B1064638
:10335000A4F80690A8F800A025816681BDE8F09F3A
:103360008C0100201403002016030020044801787B
:1033700041F00201017040690021A0F8421070473D
:10338000740100202DE9F0413AA186B00EC98DE804
:103390000E00694600F038FA05AB03AA69463848C2
:1033A00000F082FD00282FD10427BE02DFF8D48070
:1033B000354C002503A9324802F062FB18BBB8F86F
:1033C0003A00032802D0022D0AD201E0042D07D2D0
:1033D00005FB06F020F0010020443246284908E0B1
:1033E00005FB06F020F0010020443246244900F598
:1033F0000050FCF716FF6D1CBD42DBD303A920482B
:1034000002F03EFB18B1032006B0BDE8F0811F4872
:103410004AF6552101802188418061888180B8F871
:103420000020C280B8F80A200281B8F83A20428110
:10343000B8F81A20828112484146028822804288C8
:1034400062808288A8F80020C2884A8102894A875F
:103450004089A8F81A000E48017841F00201017075
:1034600006F066FB0B488179632901D2491C817102
:103470000020C9E744415441202020204255460005
:10348000C0030020D0010020341400200298002046
:10349000B501002010020020F0B51DA387B00ECBAF
:1034A0008DE80E00694600F0AFF905AB03AA694646
:1034B0001A4800F0F9FC002805D103A9174802F0CA
:1034C000DFFA10B1032007B0F0BD144D144E0024F4
:1034D0004FF49677C4EB041000EB800005EB8001FD
:1034E00006EB80003A46FCF79CFE641CA4B2032C59
:1034F000F0D30C48E978418329790180A979418189
:1035000009484179632901D2491C41710020DAE759
:1035100046494C452020202044415400C00300204F
:1035200074940020D001002010020020F0B587B074
:103530000026324C0B20FCF7B3FF0146684606F02C
:1035400097FD50208DF8080041208DF80900522089
:103550008DF80A0000208DF80B0005AB03AA694620
:10356000204600F0A1FC050004D103A9204602F08A
:1035700087FA10B1032007B0F0BD2188C8B2062831
:1035800001D00120F7E71D4A00204FF40073175CBB
:10359000401C3E4480B2F6B29842F8D30EB10620E9
:1035A000E9E7080A1649C8700020241D0B18401CC2
:1035B00014F8022B80B21A710A28F7D3114900209F
:1035C00034F8022B21F81020401C80B22128F7D3B8
:1035D0000D49002014F8022B0A54401C80B2122816
:1035E000F8D30A49002000BF14F8022B0A54401CEB
:1035F00080B21128F8D32846BDE70000C0030020A0
:10360000C0010020D0010020210200201002002073
:103610000D4900B509680A7802F07F02212A08D115
:10362000FE2806D1488820B9888810B9C8880128A2
:1036300001D0022000BD0548886100204882FFF7C4
:10364000F5FC002000BD0000080000202D3002081D
:10365000014904F0AFBD00008C000020014904F0D6
:10366000A9BD00008400002005490968C978052922
:1036700001D900207047034A02EBC10104F09ABD52
:1036800008000020C400002009B9002800D0022052
:10369000704700000F4910B509680A7802F07F02F0
:1036A000212A07D1FF2805D1488818B9888808B988
:1036B000C88808B1022010BD0120FEF7B7FB022028
:1036C000FEF7A0FB05490448086005490020087082
:1036D00010BD000008000020555342439003002015
:1036E0001C00002070B530480025314985722F48F4
:1036F0000968C0794872284603F07AF94FF40071DE
:10370000002003F0B1FA2021002003F095FA1821DF
:10371000002003F019FA274C002014F82C1F03F0A6
:1037200023FA5821002003F069FA0020FEF7C8FBB5
:10373000002003F051FA0021012003F095FA9821AE
:10374000012003F05BFA2021012003F075FA00212B
:10375000012003F029FA0021022003F085FAD82184
:10376000022003F0F1F92178022003F0FDF94FF473
:103770004051022003F018FA0021022003F05CFA05
:103780002178002003F0F0F9002003F025FA002052
:1037900003F0B6F9084901200860094907480860A4
:1037A0000848057070BD00003403002088B202088C
:1037B00008000020940000201401002055534243CB
:1037C000900300201C0000207047704710B5FFF7E1
:1037D0003BFC094800240068847201F045F9074861
:1037E000046007494FF4044008800449091F086039
:1037F0000448046010BD000008000020445C004044
:10380000140000201401002038B50C46C1B26846EF
:1038100007F01AFD9DF8000020719DF8010060710D
:103820009DF80200A07138BD04480549006888422F
:1038300002D00220FDF778BE704700009003002000
:1038400055534243124810B5017802290AD04FF46B
:103850004054032910D0042901D0052916D1002194
:1038600001700DE00B49C97B28290FD181684068A0
:10387000BDE8104002F09ABA0121002003F0B0FA2E
:103880002146BDE81040022003F08EB910BD0000B3
:103890001C0000209003002070B51648C57B022054
:1038A000FFF7A6FB144C0246D8216080114840382F
:1038B00000F068FD207818B1012805D0022006E04C
:1038C000BDE87040FDF750BE2A2D0CD00120FDF759
:1038D0002BFE2421052003F0A7FABDE8704000214B
:1038E000022003F07DBAD4E90101BDE8704002F086
:1038F000DDBA0000900300201C000020094810B52C
:103900000068807A00280BD0074905200860012054
:10391000FEF78CFA0220FEF775FA044900200870C1
:1039200010BD000008000020140100201C00002031
:103930000149042008607047140100202DE9F04F70
:10394000B94A2DED028B87B01368B84A127833F963
:1039500012309E0002EB8203B54A12781344B54A36
:10396000D55C96FBF5F30693B34B1F68B34B1C78FD
:1039700037F9143004EB8407B14C9B0024783C44A5
:10398000B04F125DBC4693FBF2F40594B7F91E40AC
:10399000BCF91A90042C01D0032C05D1B9F10B0FFE
:1039A00002DD4FF4977404E0B7F93A40A64F37F8B8
:1039B00014400494A34C8C46DFF890A2B4F9007034
:1039C000B4F90A10B4F902E0B4F90CB0A04C2468C0
:1039D000A4F5006403949F4C2468A4F50064029449
:1039E0009D4C2468A4F5006401949C4C2468A4F5C3
:1039F000006400940024BCF1080F54D2DFE80CF0FE
:103A000004415E7390D5F1EF98B1954846F2A81144
:103A10000068484340082146B9F1090F0BDA914C80
:103A20000023A0FB042501FB045100FB03111046F9
:103A30000EE08D48EAE7B9F1120F09DA02464FF4B9
:103A40007A73A2FB030501FB0351002402FB04115E
:103A50007E4B2A3B33F819200023FCF7B1FB0023EF
:103A6000049AFCF7ADFBB9F1020F00DA00184FF031
:103A70000101754A00914FF0030302F12C02014647
:103A80000EE0A8B179486421794A00684143126880
:103A900002231044B1FBF0F101206B4A00903C3A44
:103AA000744806F06DF907B0BDEC028BBDE8F08FED
:103AB00071486421714A00684143E8E750B15AF8FF
:103AC00021006F4900EB8000059A0968C00051434E
:103AD0000D1321E05AF827006A4900EB8000C0006E
:103AE0000968069AF3E758B15AF8210093FBF2F1FE
:103AF000654A00EB8000C0001268A2F500625DE03C
:103B000096FBF5F1614A5AF82700126800EB800035
:103B1000C000A2F500625DE04543EE17FA2114E013
:103B200088B35AF8210093FBF2F1019D00EB80006D
:103B300069430D1393FBF2F1009AC0005143A5EBCA
:103B400021354543EE174FF4FA714843642190FB49
:103B5000F1F0FCF796FB41EC180B28463146FCF7D8
:103B6000A1FB41EC100B06F070FB53EC182B51EC51
:103B7000100BFCF7ABFB4FF00303009444D2324A26
:103B8000214644328CE7FFE796FBF5F1039A5AF899
:103B9000270051430B1396FBF5F100EB8000029ACE
:103BA000C0005143A3EB2135CBE758B15AF82100AF
:103BB00093FBF2F100EB8000019AC0005143CBEB84
:103BC00021350AE096FBF5F15AF82700039A00EB3D
:103BD0008000C0005143CEEB213564359CE717E0EF
:103BE000FFE740B15AF8210093FBF2F100EB8000AF
:103BF000C000009AE2E796FBF5F15AF82700029A16
:103C000000EB8000C000E5E70F4A29461A3247E77B
:103C10001F480D4A032301894FF47A704143012064
:103C20001A3200903CE70000580200208F0100206B
:103C30008D010020B4D302085C0200209001002016
:103C40008E010020D00100209CC5020800CE020891
:103C50006002002068020020640200206C02002044
:103C6000AC02002040420F00A80200209C0200206D
:103C7000A40200204094002098020020A00200200E
:103C80007C020020780200207402002070020020D4
:103C9000FC130020FEE700001A4810B504781A480B
:103CA000018949420BB24169B1F844203CB1032A71
:103CB0000DD9B1F846401444FC2C08D208E0032A80
:103CC00005D9B1F846401444B4F5967F00D9038174
:103CD00003891A44A1F84420B1F84820062A05D9DE
:103CE000B1F84A301344B3F5C97F02D343895B422C
:103CF000438140891044A1F848000020A1F8420007
:103D000010BD0000C0010020740100207047704702
:103D100070B50F23C47801780122F4B1144C2468E3
:103D2000457804F4E064C4F5E064240AC4F10406B0
:103D3000E3408478B5401C402C4301F1E02123018D
:103D400081F80034007800F01F018A4040098000AB
:103D500000F1E020C0F8002170BD01F01F0082409A
:103D60004809800000F1E020C0F8802170BD00000B
:103D70000CED00E00249084302490860704700006A
:103D80000000FA050CED00E038B504461048228822
:103D900000230168628023808069114401EB520195
:103DA000824206D2022A04D30222684601F04CFE67
:103DB00008B1012038BDA078C007BDF8000001D0CF
:103DC000000901E0C0F30B002080002038BD000096
:103DD0001414002070B52F4D2868017844784A06E5
:103DE00006D001F07F00012828D002282BD035E032
:103DF000092C06D0052C07D0032C0ED0012C14D092
:103E00002CE004F043FA28E0C1787F292ED881788D
:103E100061BB818851BB807A27E0C17801291DD11F
:103E20008088D8B904F04EFA17E0C178012915D17D
:103E3000818899B9407A80060AD40FE00B2C0DD105
:103E400004F096FA09E0012C02D0032C03D005E01F
:103E500004F01EF901E004F047FA58B10E4920467B
:103E6000096849698847032802D018B108200DE085
:103E700009200BE0094A062000211268084B1204B1
:103E800003EBD2325160074A302111802968087251
:103E900070BD0000080000200C000020505C0040B5
:103EA00000600040180000202DE9F0410546002088
:103EB00010801D480F461C468168164680461960D2
:103EC00023E000BFB8F8140082B2284601F0BCFD20
:103ED00010B10120BDE8F0810021434612E000202E
:103EE0000A18AA5CEAB117F800C0624505D10A2891
:103EF00012D0401C80B20B28F2D320682030203131
:103F000089B2206058698842E9D82168D8F80C2025
:103F10009142D7D30320DDE76818408B3080002022
:103F2000D8E70420D6E70000141400202DE9F04162
:103F30001C4616460F460546FFF7B6FF042805D176
:103F40003146284602F020FD10B10320BDE8F08183
:103F50002068C0F30B04A0EB04080C484146808A9B
:103F600082B2284601F070FD70B9395C2218401CFD
:103F7000A9540B28F9D3291930884883414628468B
:103F800001F01EFD0028E1D00120DFE7141400201D
:103F90002DE9F047844600248148089FB42A00D9BF
:103FA000B422F02B00D9F02312FB03F643F248456C
:103FB000AE4202D9B5FBF2F3DBB27A4D49006E692D
:103FC00026F844CFB18051007380F18041F624215E
:103FD000012F16D05FF00002FCF735F94FF0000812
:103FE0004646A5F80480A5F80680304600F05CFC43
:103FF000304600F059FC304600F056FC0026B71F52
:1040000008E06A7802EB0212E6E7A87800F04CFCC0
:10401000761CB6B26869B0F84A0007EB5000B042AF
:10402000F3DC204600F040FC204600F03DFC20463A
:1040300000F03AFC0120A8804646A5F806802046FC
:1040400000F032FC204600F02FFCA87800F02CFC99
:1040500068696FF00209B0F84A1009EB5100E88076
:10406000A87800F021FC204600F01EFC204600F05D
:104070001BFC0220A880EE80204600F015FCA878EA
:1040800000F012FC68696FF00108B0F84A1008EB04
:104090005100E880A87800F007FC204600F004FCFE
:1040A0000320A8804FF0FF3A0FE0EE80A87800F0E0
:1040B000FBFB6869B0F84A100AEB5100E880A87869
:1040C00000F0F2FBA888401CA8806869A988B0F8B5
:1040D0004600801E8842E8DC6869B0F84600C01ED1
:1040E000A880EE80204600F0DFFBA87800F0DCFB23
:1040F000686930F8461FC91EA980818808EB510005
:10410000E880A87800F0D0FB204600F0CDFB68697D
:10411000B0F84600801EA880EE80204600F0C4FB68
:10412000204600F0C1FBA87800F0BEFB686930F8BB
:10413000461F891EA980818809EB5100E880A87874
:1041400000F0B2FB204600F0AFFB204600F0ACFBD5
:104150006869B0F84600401EA880EE80204600F056
:10416000A3FB204600F0A0FB204600F09DFB0026AC
:1041700004E0A87800F098FB761CB6B26869B0F845
:104180004A0007EB5000B042F3DC204600F08CFB05
:10419000204600F089FB2046BDE8F04700F084BBD4
:1041A00078050010740100202DE9F04F51A289B06C
:1041B00007CA02AC07AB84E8070005AA02A9504869
:1041C000FFF772FE4F4D002448B18A200090102363
:1041D000142269214CA0FCF713FCEC707BE005A9CC
:1041E000474801F04DFC002875D1454EDFF830916D
:1041F00036214FF478434FF4FC6C00BF01EB800292
:10420000B75C324403EA072792F8018092780CEAFF
:10421000C80847EA080747EAD20229F81020401CDC
:1042200080B24F461028E9D3B07CB17DFA2801D185
:10423000C8290CD08420009010231422692139A0B1
:10424000FCF7DEFBEC70002009B0BDE8F08F43F610
:10425000E710FDF7FFFD0221FE20CDE90001CB2391
:10426000142207214FF6E070FEF7BFFB76254FF0D2
:1042700016080924B346BA4603E0092401E04C4578
:1042800020D841462046FCF71DF91BF805005E4684
:10429000000957463AF81000FCF716F9601C80B286
:1042A0004146FCF70FF9705D0109494200EB01102E
:1042B00037F81000FCF708F94FF481794FF4805675
:1042C0004FF484776D1CADB2B54207D305A90C48F5
:1042D00001F0D6FB08B10320B6E70025A41CA4B268
:1042E000BC42CCD908F101001FFA80F8B8F1DD0F0B
:1042F000C3D3A8E741424F55545F4620424D50007A
:10430000C0030020180300202041626F75742E66E0
:10431000696C65206973204572726F72200000001D
:10432000549400202041626F75742E426D70206994
:1043300073204572726F72200000000010B50F4CA0
:104340002068007A022811D004280FD0032804D056
:10435000052802D0072805D008E0FDF7E3FE206815
:10436000007A04E006480068C06880470820216899
:104370000872BDE8104000F055BB000008000020A6
:104380000C000020064B521C520803EB410105D0E3
:1043900031F8043B20F8023B521EF9D1704700006F
:1043A000006000402DE9F84F2C488B4643F6E71497
:1043B000C178001D4FF6FF780D5C14389A46877956
:1043C000164621464046DDF8289000F04BFA244876
:1043D0006223017841F0020101700120009007EB97
:1043E00047000C2101EB8000C2B21E48415DC01D98
:1043F000405DFFF7CDFD35464E462146404600F074
:1044000031FA012404210AEB4A0001EB40081DE0C7
:10441000391B01EB810202EBC101091D04201FFAC7
:1044200081FA5C4501D1102100E0002189460A464D
:104430002B46514600F08CFA404633464A465146D8
:1044400000F086FA641C0D35E4B20936BC42DFD9AF
:10445000054941F288300880BDE8F88FC00100208E
:10446000740100207FC50208980100202DE9F04F5B
:10447000D14985B001F11003CC783CB99C7844F067
:1044800001049C700C7A44F001040C72DD78CA4B74
:10449000C949DC7960331431A646DF7B641E25B13F
:1044A000012D77D0022D68D14AE1695CC34B595C7C
:1044B0000B19C1492031B1F92460B1F902A0741E71
:1044C00024B20494B1F92A50B1F90CB06C1E24B294
:1044D0000394B1F9224002946C1C24B20194741C20
:1044E00024B20094B1F91EC0B1F9384006EB0A09B4
:1044F00005EB0B08012818D0501D122B71D0142B7E
:1045000000DD5B1CAE4D012B35F8135015442DB268
:1045100068D0062B67D01C2B70D031F91300A8424D
:104520006DDD002A6CD0801AB0E002F1C300122BBE
:1045300068D0142B00DD5B1CA14D403D35F81350B5
:10454000AD1A2DB2012B0AD0062B17D01C2B25D06B
:1045500031F91300A84249DA82B3104496E0964A32
:1045600020325288521C12B2BAF1C30F03DA8145CD
:1045700001DD049861E0AA4563DB15E18E4A203233
:104580009289521C12B2BBF1C30F04DA804502DDDE
:10459000039863E0B0E0AB4566DB05E1B1F93A00B2
:1045A00030B1012807D0022809D003280CD109E036
:1045B00040F2CF2508E040F2CF6505E014E040F678
:1045C000CF6501E041F6CC65BCF1040F3AD0BCF1F7
:1045D000030F37D00AB1A01850E0AC4232DA641DA4
:1045E00051E067E01EE02EE0401C4FE0C7BBC3B3C4
:1045F000052B72D00D2B78D0714856E036E048E09C
:1046000043E0FFE7029B33B180451BDA0AB1A818EB
:1046100058E0019856E0814514DA0AB1B01859E023
:10462000009857E0644A20325288521E12B2BAF102
:10463000050F04DD814502DA0098888401E0AA456F
:1046400000DD4A80B0E05C4A20329289521E12B2EC
:10465000BBF1050F06DD804504DA0198488503E0CB
:1046600018E03AE0AB4500DD8A819DE0BCF1040F23
:1046700005D0BCF1030F02D012B1A01A088793E055
:10468000AC4201DD641F0C878EE0401E21F8130050
:1046900000E01FB10BB3052B1FD024E0EBB1052BBD
:1046A0001BD00D2B21D04648403830F8130021F89C
:1046B000130079E0029B3BB1804575DD0AB1A81A71
:1046C00000E0039848856FE081456DDD0AB1B01ABE
:1046D00000E00498888467E007E0374817300179E4
:1046E00041F0010101710D2B5ED133481730C179C2
:1046F00041F00101C17157E0695C324B01EB4102AD
:1047000002EB0E012C4A491E7132012804D0505C84
:10471000002810DD401E11E003EB4E0030F9023C92
:10472000505C984201DA401C08E087BB25482430E1
:1047300010F8110002E057BB13F81100505433E099
:10474000695C1E4D0C3D0128695C214405F66D44F1
:1047500004F1220509D035F81100104405B2585C67
:10476000A8421DDDD2B1801A1DE0D87908B1082910
:1047700009D034F81100801A04B2585CA04209DA5A
:1047800032B110440FE0208A801A401FF4E70BE09A
:10479000401C08E047B915F8110004E0401E02E093
:1047A00017B914F811005854704602F0DFFF05B035
:1047B000BDE8F04F04F004BDB001002071C502084F
:1047C00092D10208D6D20208704700002DE9F047C6
:1047D000DFF88880894607460025B80608D54FEAE5
:1047E000C900A0F500701E49284431F8104004E0CB
:1047F00029464846FBF770FE0446780607D5E807C9
:1048000002D04AF6AA2001E045F2555004400026A5
:1048100060074FEAC7601DD5002802DA98F801004A
:1048200001E098F8020000F03FF8761C6408B6B288
:104830000E2EEDD3B8F804106D1C491CA8F8041016
:10484000B8F80610ADB20E39A8F80610082DC4D37A
:10485000BDE8F0870028E4DBE0E7000074010020F9
:1048600064B3020870B50F4B0E225C6922F001069A
:104870003519B5F84A50854203D0921E12F0FF0256
:10488000F4D15A705FF00E0020F001022244B2F819
:104890004A208A4203D0801E10F0FF00F4D19870A5
:1048A00070BD00007401002070B5154C134B616998
:1048B000A58831F8462FB5FBF2F602FB1655A58008
:1048C0008A88E188B1FBF2F602FB16116A43D5171C
:1048D00002EB9572921002EB510211F0010F92B2AD
:1048E00001F10101E180995C02D060F31F1102E047
:1048F00001F0F0010143995470BD000078050010EB
:10490000740100202DE9F041104C1E469046A08015
:104910000F46E1805FF000055FEAC86001D5A0782E
:1049200000E06078FFF7C0FF6D1CEDB20E2DF3D3F1
:10493000A088401CA080E78003E04046761CFFF77B
:1049400045FF31780029F8D1BDE8F08174010020DD
:104950002DE9FF4FDFF8C48099461646A8F80400F9
:104960000198A8F806004FE0834601980025401CF6
:1049700009F101091FFA80FAB00609D5ABF121004F
:1049800000EB4000264905EB400031F8104004E000
:1049900029465846FEF77AFB0446700607D5E80715
:1049A00002D04AF6AA2001E045F255500440F00634
:1049B00002D598F8020001E098F80100FFF774FFB3
:1049C000A8F806A00027E0074FEAC66022D000281A
:1049D00003DA00BF98F8010001E098F80200FFF741
:1049E00063FF7F1C6408BFB20A2FECD3B8F8041031
:1049F0006D1C491CA8F80410B8F80610ADB20B39AC
:104A0000A8F80610062DB7D399F800000028ABD1FE
:104A1000BDE8FF8F0028E0DBDCE700007401002028
:104A2000ACBA02080C4810B590F82C10002002F027
:104A30009BF80A480068007A082802D0092809D0A3
:104A400006E007494FF4805008800649102008808E
:104A5000002010BD012010BD94000020080000209F
:104A600016000020180000200648012101600021E6
:104A7000054A0160031D19604FF4E0511180016087
:104A800000207047405C0040140000202DE9F843EE
:104A9000244C8046DDF8209020780F4640F010002E
:104AA00020701D4616464FF6FF7143F6E710FFF7DC
:104AB000D9FE0120009009F0FF03EAB2F1B2F8B28A
:104AC000FFF766FA4346002229211820FFF740FF2E
:104AD00015A320221D210620FFF73AFF13A3002271
:104AE0001D211E20FFF734FF13A3202211210620D1
:104AF000FFF72EFF11A3002211211E20FFF728FF30
:104B000013A3202205210620FFF722FF11A3002274
:104B100005211E20FFF71CFF61690020A1F842005B
:104B2000BDE8F883740100207B7C3A005077724F17
:104B30006666204F6E6C79005B5C3A005077724F6E
:104B4000666620262053617665506172616D0000B3
:104B50007D7E3A0045786974000000002DE9F05F21
:104B60008B4614464FF488784FF6FF7143F6E710F2
:104B700001F0C0FFFC2018A300220221FDF746FE31
:104B800004EB4400DFF85CA0002500EBC40900BF83
:104B9000154809EB0501002430F811700BEB0506F0
:104BA000761C08EB0400B1B280B2FBF78BFC27FA4D
:104BB00004F0C00701D01F2001E0BAF80000FBF7A5
:104BC00083FC641CA4B20B2CEBD36D1CADB20B2D7B
:104BD000DED3BDE8F09F00002020202020202020F0
:104BE00020200000840100206CD402082DE9F04749
:104BF0002F4D88460646E989A88902F051F800241D
:104C0000F00601D5688A00E0288A02F03BF8641CAF
:104C1000A4B20E2CF4D3A889A946401CA8813EE07A
:104C20000025B00698F8000004D42946FEF740FAA3
:104C3000044606E0C000A0F500701E49284431F883
:104C40001040700607D5E80702D04AF6AA2001E016
:104C500045F255500440B9F80E10B9F80C0002F0B6
:104C60001FF8002720074FEAC6601ED5002802DA89
:104C7000B9F8100001E0B9F8120002F003F87F1C47
:104C80006408BFB20E2FEDD3B9F80C106D1C491C8F
:104C9000ADB2A9F80C10082DC3D308F1010898F89B
:104CA00000000028BCD1BDE8F0870028E3DBDFE787
:104CB0007401002064B302082DE9F047DFF8C480D6
:104CC00089460646B8F80E10B8F80C0001F0E8FF67
:104CD0004FE0824609F101090025B00605D42946B6
:104CE0005046FEF7D3F9044608E0AAF1210000EB94
:104CF0004000254905EB400031F81040700607D50B
:104D0000E80702D04AF6AA2001E045F255500440D7
:104D10004746B8F80E10B8F80C0001F0C1FFF006D5
:104D200001D5788A00E0388A01F0ACFFF989B846ED
:104D3000491C89B2B88901F0B3FF0027E0074FEAA8
:104D4000C6601CD0002802DAB8F8100001E0B8F8FC
:104D5000120001F097FF7F1C6408BFB20A2FEDD349
:104D6000B8F80C106D1C491CADB2A8F80C10062D3B
:104D7000B3D399F800000028ABD1BDE8F087002834
:104D8000E5DBE1E774010020ACBA02082DE9F04749
:104D9000DFF894900F468046B9F80E10B9F80C0071
:104DA00001F07EFF38E0DFF884A000253878313844
:104DB000C0EBC00041195FEA48603AF8114007D5DE
:104DC000E80702D04AF6AA2001E045F25550044017
:104DD000B9F80E10B9F80C0001F062FF0026E007E8
:104DE0004FEAC8601DD0002803DA00BFB9F81200EE
:104DF00001E0B9F8100001F045FF761C6408B6B276
:104E0000092EECD3B9F80C106D1C491CADB2A9F8F1
:104E10000C10072DCAD37F1C38780028C3D1BDE8F9
:104E2000F0870028E5DBE1E7740100202CB30208DD
:104E30002DE9FC4781461E4801EB41019846455C3F
:104E40000844144641781B4800EBC1062846FEF78B
:104E500075FD194F194837F81510008801F04AFE02
:104E6000174818490B230480A1F800805221022022
:104E7000CDE90001E01E81B237F815004246FDF78A
:104E8000EBFC33464A4641462046FDF7D1FC1E3432
:104E9000A0B20DA34A464146FDF7CAFC02B0A0B23B
:104EA0004A464146BDE8F0470A4BFDF7C1BC000049
:104EB0002102002042C7020886CE02088401002099
:104EC000800100208201002020202020202020209E
:104ED00000000000409400207CB505462048214990
:104EE0000024B0F91A00032351F820001E49096874
:104EF0004A8C098C0094511A4143192091FBF0F11E
:104F00001A4A1B4804F03CFF1A4804801A480480DF
:104F100040F21F54214643F6E71001F0EBFD40211B
:104F20000220CDE900010B230322FC212046FDF7DE
:104F300093FC12A310220321FF20FDF779FC12A39A
:104F400030220321FF20FDF773FC02B02A46BDE8A2
:104F50007040074B03214FF48770FDF769BC0000D8
:104F6000D001002028CE020888010020A4C5020834
:104F70004094002080010020820100202020202079
:104F800020202020202000005D543A007CB5284CD1
:104F90000646E08E10B1B4F90A0001E0B4F9000051
:104FA0002449C0B2002551F8200023490323096891
:104FB0004A8B898B0095511A01EBD17149104143FD
:104FC000192091FBF0F11D4A1D4804F0D9FE1D483F
:104FD00005801D480580174DB4F93600863535F833
:104FE00010101A48008801F085FD40210220CDE90B
:104FF0000001B4F9360003220B2335F810001146E6
:10500000FDF72AFC12A3102203210620FDF710FC55
:1050100012A3302203210620FDF70AFC02B032461B
:10502000BDE870400321064B1820FDF701BC0000CD
:10503000D001002000CE020888010020BCC5020873
:105040004094002080010020820100208401002083
:105050002020202020202020202000005D563A0023
:105060002DE9F04FFE4AB5B0906900F5FA71129142
:1050700000F5487100F24C40CDE91010F9480E904F
:1050800000F580400B90F848516A007831F9101013
:1050900000EB80008B00F54909780844F449085C6E
:1050A00093FBF0F9F348936A007833F9103000EB82
:1050B00080009B00F04C0025022724784FF0FF3E33
:1050C0002044BB46085C229593FBF0F60023219513
:1050D0001895179509932095CDE91C350C950A95DF
:1050E0001E9516951A9528931C4608931B931F9599
:1050F000CDE925E4E14BE24C294633F816CF94F88C
:1051000000802846ACEB0808A2F8068094F80180DD
:10511000ACEB0808A2F80880A478ACEB0404548136
:10512000B3F92440DFF85CC33CF81440641EA4B219
:105130000794B2F804A09A7ACD4C02F001023092A2
:10514000B3F904205A342E9234F8122024921A898A
:105150002F92CD4AD2F800C0BCF812205408069411
:10516000BCF81420240352080F92BCF816C0120396
:105170004FEA5C0CCDF8B4C01B7BA2F5C82203F04B
:1051800001033193C14BA4F5C8241B78022B41D0F5
:10519000BA4B94FBF9F4B3F924C0B3F9028004F5D7
:1051A0000064C4444FEA0C3CACF5C82C9CFBF9F8F5
:1051B0009CFBF9FC0CF5006C08F500680FFA8CFC00
:1051C0000FFA88F824B2CDF834C0CDF864802B945F
:1051D000B3F92A40B3F90C3023441B03A3F5C823C9
:1051E00093FBF6F493FBF6F392FBF6F204F50064FE
:1051F00024B203F5006302F500621BB212B22C94D4
:10520000CDE929329D4AB2F91E20042A24D0032A6E
:1052100022D02CE0924BB3F914C0B3F90E306344A2
:105220001B03A3F5C82393FBF9F893FBF9F303F5EC
:1052300000631BB20D9394FBF9F303F500631BB2FB
:105240002B9308F50068864B0FFA88F8CDF8648038
:10525000B3F910306344C0E72E9B884A0B2B06DD60
:105260004FF497730793002313871C4601E0002433
:10527000A7E0874AD26812B20292079B9A1AA2420A
:105280007EDD0E9A0B9BDDF8A0C032F9142033F9B5
:105290001430944500D22892DDF898C09C4500D285
:1052A0002693964500D99646DDF894C09C4500D9D2
:1052B0002593DDF824C0022F9444CDF824C0DDF8F6
:1052C00020C09C44CDF820C0DDF8ACC0DDF8708073
:1052D000A2EB0C0C0CFB0C8CCDF870C0DDF8A8C058
:1052E000DDF86C80A3EB0C0C0CFB0C8CCDF86CC0C7
:1052F0000ED0491C1FFA81F1BBF1020F0AD0401CED
:105300001FFA80F0DDF834C0624515DD27B111E0E9
:105310000021F1E70020F5E7229A11440A9A89B2A8
:10532000521C92B20A9222911F9A0021524501D238
:10533000A2B21F92012714E0DDF864C0624510DAC2
:10534000012F0DD1219A11441A9A89B2521C92B29E
:105350001A9221911E9A0021524501D2A2B21E92A8
:105360000027299A934214DDBBF1000F0FD1209A38
:10537000104480B22090169A0020521C92B200E095
:1053800023E01692189A524501D2A2B21892012235
:1053900014E02C9A934212DABBF1010F0DD10C9A52
:1053A0001044179A80B2521C92B217920C901D9A18
:1053B0000020524501D2A2B21D9200229346641CE5
:1053C00024B2079A9442FFF651AF0298F0BB244FE3
:1053D0002898611CC7F834E0F8620998B0FBF4F033
:1053E000F8631C98B0FBF1F0F865269A3A63259AA9
:1053F000BA63089AB2FBF4F23A641B9AB2FBF1F179
:10540000396602F033FE7864F96A786B0A1802EBA9
:10541000D2725210081A7A65F864386E02F026FECD
:10542000B864396BB86B0A1802EBD2725210081AC2
:10543000BA6538651A992198B0FBF1F0786622991F
:105440000A98B1FBF0F0F8660A9900E02AE01A9891
:105450000844786717990C98B0FBF1F0B86619E02A
:1054600034020020341400208F0100208D01002020
:10547000B4D30208900100208E010020D00100204A
:10548000749400209CC5020888010020B50100200A
:105490000000024016992098B0FBF1F03867179889
:1054A0000844B8672F98042812D0032810D03198E8
:1054B0000028309802D048B11D9801E020B11E9814
:1054C000A0EB0A0007B204E01F98F9E71898F7E785
:1054D0000127029810B92F98022802D02F9840B1C6
:1054E00010E0002F0EDDCB480221017004F020FBFC
:1054F00008E0002F06DA0798B4EB900F01DD0127D2
:1055000000E00027C448002F878101DD0121817060
:10551000C1484078A8B1BF480078022811D1BF48DF
:10552000BD494288CA8182890A82C28A4A82428CE3
:1055300012B1B0F92A0001E0B0F9240088820020FD
:1055400048704FF49673002F75DD2498B349C0F569
:10555000806000FB0AF000F500704FEAE072098FEE
:1055600000EB925007EBA020084407B20E984FF0D2
:10557000000230F817104FF06400A1F5006101FB44
:1055800009F100EB21310FFA81FA0B9931F817106C
:10559000A1F5006101FB06F100EB21310FFA81F862
:1055A0000E9830F817104FF06400A1F5006101FB70
:1055B00009F100EB213109B213910B9931F8171061
:1055C00007F10107A1F5006101FB06F100EB2130B5
:1055D0000FFA80FB3FB2B2E01398C5F58061A0EBF3
:1055E0000A0000FB01F04FEAE07300EB93530AEB73
:1055F000A32000B20390ABEB080000FB01F04FEAE0
:10560000E07100EB915108EBA12000B209908148B4
:105610000078022816D012980399104404F00CFD6B
:1056200010980999104404F007FD7C48B0F9140063
:1056300007287BD200E093E0DFE800F026294E56F1
:105640005E646C007548744B4088D989411A039890
:10565000084401B21298104404F0EEFC6F48198A15
:105660008089411A0998084401B21098104404F046
:10567000E3FC6A48B0F91400072857D2DFE800F0CD
:1056800004070C141A1F2600039906980AE00999CA
:105690000F9807E02D9843E0D9890398411A09989B
:1056A0000844198A411AF5E7D9890398081A198A12
:1056B000411A1EE05A48D9881044007A04E058483C
:1056C0001989104490F8340108442AE05448598953
:1056D000104490F86002F7E706990398411A099878
:1056E00001440F98091AD5E703990698411A0F98B3
:1056F000091A09980144CDE749481044017A4648FF
:10570000C0880DE04648104490F8341142480089A2
:1057100006E00BE04248104490F860123E48408991
:10572000084401B21198104404F086FC1046521C43
:1057300012B2B0F5967F05DA2498281A05B2002D2A
:105740003FF74AAF05F58065DDF84CA02DB2D8468D
:10575000B2F5967FFFF624AF2F490020087042E093
:1057600041DA2F98012802D12B480078D8B30022C3
:1057700034E012984FF0FF361044314604F05CFCE0
:1057800010983146104404F057FC2448B0F9140036
:10579000042807D005280BD0062830D011983146B0
:1057A00010440FE01E481044017A1B48C08805E0F1
:1057B0001B48104490F8341117480089084401B27E
:1057C0001198104404F038FC1046521C12B2984252
:1057D00004DA2498281A05B2002DCADC05F5806584
:1057E0002DB29A42F8DB079884420FD1094800781D
:1057F00002280BD035B0BDE8F04FFBF7BBB8084826
:10580000104490F8601204484089D7E735B0BDE8ED
:10581000F08F0000B501002034020020D0010020EC
:10582000749400202DE9FF4F85B00520129F4C4C49
:10583000B7FBF0F520788B4640F0040020704FF65F
:10584000FF7643F6E7189946924631464046FFF701
:1058500009F801200090FBB209F0FF020AF0FF01F5
:105860000BF0FF00FEF794FB31464046FEF7FAFFCF
:10587000002253212846059BFFF76AF80B20FAF710
:105880000FFE014601A804F0F3FB36A300224621D7
:105890000420FFF75DF801AB002246214020FFF70E
:1058A00057F833A300223B210420FFF751F80120D1
:1058B000FAF7F6FD034600223B215820FFF748F88F
:1058C0002FA3002230210420FFF742F80220FAF72C
:1058D000E7FD0346002230214020FFF739F82BA3D3
:1058E000002225210420FFF733F80320FAF7D8FD22
:1058F0000346002225214020FFF72AF826A3002294
:105900001A210420FFF724F80820FAF7C9FD0346FE
:1059100000221A214020FFF71BF822A300220F21AA
:105920000420FFF715F80620FAF7BAFD0346002217
:105930000F214020FFF70CF804211DA30022084688
:10594000FFF706F81D4B002204214020FFF700F866
:1059500061690020A1F8420009B0BDE8F08F0000A5
:1059600074010020446576696365534E3A20000057
:1059700048617264776172653A2056657220000052
:105980004D435520547970653A2000004C43442023
:10599000547970653A200000555342204469736B76
:1059A0003A20000044465520547970653A200000A2
:1059B00041505020547970653A20000001030020C6
:1059C0002DE9F04100240A4D0F46804626462E70F0
:1059D00039464046FDF729F92046641CE4B2062802
:1059E00002D90120BDE8F08128780028EFD1F9E73D
:1059F000AE01002070B5054612480C464269C168E8
:105A00002088801E02FB00112846FFF7D9FFA8B9A5
:105A10002046FEF7B9F908B1022070BD60882188E0
:105A200071B920802146284600F0AEFF08B103205E
:105A300070BD2146284601F025F808B1012070BD4F
:105A4000002070BD141400202DE9F04700240B4DF8
:105A500017468846814626462E703A4641464846B5
:105A6000FDF784F82046641CE4B2062802D9012020
:105A7000BDE8F08728780028EED1F9E7AE010020D4
:105A800010B503460A480C460988C2684069891E59
:105A900000FB012182B21846FFF7D6FF08B10120B2
:105AA00010BD2046FEF770F90028F9D0022010BD85
:105AB0001414002008480088A0F52A41553909D15E
:105AC000054814380188801CB1F5407F02D1034994
:105AD0000078087070470000147800081803002050
