:020000040800F2
:10800000209D00209D81000825BE0008C7B1000802
:1080100079BD00082B950008E51E0108000000004E
:108020000000000000000000000000009DE00008CB
:1080300039A3000800000000E1C80008210501087C
:10804000B7810008B7810008B7810008B781000830
:10805000B7810008B7810008B7810008B781000820
:10806000B7810008B7810008B7810008B781000810
:10807000B7810008B7810008B7810008B781000800
:10808000B7810008B7810008B7810008B7810008F0
:10809000B50F0108B7810008B7810008F1AB0008EF
:1080A000B7810008B7810008B7810008B7810008D0
:1080B000B7810008B7810008B7810008B7810008C0
:1080C000B7810008B7810008B7810008B7810008B0
:1080D000B7810008B7810008B7810008B7810008A0
:1080E000B7810008B7810008B7810008B781000890
:1080F000B7810008B7810008B7810008B781000880
:10810000000000000000000000000000B78100082F
:10811000B7810008B781000881060108B78100080F
:10812000B7810008B7810008B7810008B78100084F
:10813000B7810008B78100080000000000000000BF
:10814000B7810008B7810008B7810008000000006F
:10815000000000000000000000000000000000001F
:108160000000000000000000B7810008B78100088F
:10817000B7810008000000000000000000000000BF
:1081800000000000B7810008DFF80CD000F048F9CB
:108190000048004765270108209D002006488047C9
:1081A00006480047FEE7FEE7FEE7FEE7FEE7FEE7DC
:1081B000FEE7FEE7FEE7FEE7B1050108898100085A
:1081C0002DE9F05F0546002092469B46884606460C
:1081D000814640241BE0284641464746224600F09F
:1081E000B2F853465A46C01A914110D31146184668
:1081F000224600F099F82D1A67EB01084F462246F7
:108200000120002100F090F817EB00094E41201EDC
:10821000A4F10104DFDC484631462A464346BDE866
:10822000F09F40EA01039B0703D009E008C9121F31
:1082300008C0042AFAD203E011F8013B00F8013B20
:10824000521EF9D27047D2B201E000F8012B491E4C
:10825000FBD270470022F6E710B513460A460446E3
:108260001946FFF7F0FF204610BD421E12F8013FED
:10827000002BFBD111F8013B02F8013B002BF9D197
:1082800070470EB5C10F80EAE0700844CA070021AC
:1082900040F233438DE80E000A460B4600F072F8B8
:1082A00003B000BD3EB5CA17CB0F0024504051406B
:1082B000C0186141DA0740F233430094CDE901234D
:1082C0002246234600F05EF803B030BD30B5041EF0
:1082D00071F1000404DB4FF00044404264EB010103
:1082E000141E73F1000405DB1C464FF0004352429C
:1082F00063EB04038B4208BF824230BD30B50B46AE
:10830000014600202022012409E021FA02F59D42C5
:1083100005D303FA02F5491B04FA02F52844151E99
:10832000A2F10102F1DC30BD202A04DB203A00FA80
:1083300002F1002070479140C2F1200320FA03F3BC
:10834000194390407047202A04DB203A21FA02F0BA
:108350000021704721FA02F3D040C2F1200291407F
:1083600008431946704710B5141E73F1000408DA6B
:10837000401C41F1000192185B411A4301D120F0E9
:10838000010010BD2DE9F04D92469B4611B1B1FAA6
:1083900081F202E0B0FA80F220329046FFF7C4FF8B
:1083A00004460F4640EA0A0041EA0B0153465A468A
:1083B000084313D0114653EA010019D0C8F1400216
:1083C0005046FFF7C0FF05460E4650465946424606
:1083D000FFF7AAFF084305D0012004E020463946F4
:1083E000BDE8F08D0020054346EAE0762C43374394
:1083F0000A986305E40AA0EB08000022FD0A44EA9B
:1084000047540A3002D500200146E9E7010510195A
:108410006941DDE9084500196941BDE8F04DA2E771
:10842000064C074D06E0E06840F0010394E80700C1
:1084300098471034AC42F6D3FFF7AAFE6CC9010886
:108440008CC9010870B58C1810F8015B15F0070392
:1084500001D110F8013B2A1106D110F8012B03E0DD
:1084600010F8016B01F8016B5B1EF9D12B0705D4E5
:108470000023521E0DD401F8013BFAE710F8013B2E
:10848000CB1A921C03E013F8015B01F8015B521E4A
:10849000F9D5A142D8D3002070BD00000000000033
:1084A000F7F776BEF7F776BEF7F77EBEF7F77EBE34
:1084B000F7F788BE00000000AFF30080AFF3008044
:1084C0002DE9F05FAFF30080B0F8DA114FF0000251
:1084D000B0F8DEB1B0F8E0C1DC4400F5AF6A002AC4
:1084E00008BF00F0CDF908BF2CE08B1C9A4208BFF2
:1084F00000F0C6F908BF25E0012A08BF00F0EDF939
:1085000008BF1FE04B1C9A4208BF00F0E6F908BF05
:1085100018E0531E1926B3FBF6F505FB06F55D1BA7
:1085200008BF00F0BFF908BF0CE00526B3FBF6F565
:1085300005FB06F55D1B08BF00F0C4F908BF01E0AC
:1085400000F0A4F9032A22D38A4220D2B0F89A314B
:1085500013F0040F02BF4FF4DF7300F5FA7400F05C
:1085600058F8B0F89C3113F0040F02BF4FF4E073D9
:1085700000F5487400F04DF8B0F89E3113F0040F88
:1085800002BF4FF4E17300F24C4400F042F8002ABD
:1085900008BF00F0E2F808BF20E08B1C9A4208BF39
:1085A00000F0DBF808BF19E0012A08BF00F0F5F879
:1085B00008BF13E04B1C9A4208BF00F0EEF808BF5A
:1085C0000CE0022A08BF00F008F908BF06E08A4262
:1085D00008BF00F002F901D000F0A7F800F04CF855
:1085E000B0F8DC3113F0010F05D15A4503DB6245C9
:1085F000B8BF00F01AF900F08BF98B1C9A421CBF2F
:10860000521C6CE7BDE8F09FAFF30080AFF3008031
:1086100000BF1444257814F8014CC72C88BF70475C
:10862000002C08BF7047A54227BF26462D1B2E46AB
:10863000651BC62E88BF7047AC19C62C88BFC6F113
:10864000C6050BDC012C98BF7047022E9EBF022688
:10865000A51E03E0002D04BF761EAD1C142DA8BF7F
:108660001233C35A4FEA4606064426F8023B6D1EF3
:10867000FBD27047AFF300805FF4D3730446C55A52
:1086800015F0010F4BD11233C55A1233C65A243B91
:10869000B5F10208424504D1268014F5CA7426803B
:1086A0003DE018F10108424508D124F8026B26800C
:1086B00014F5C87424F8026B268030E018F1010824
:1086C000424517D124F8026B24F8026B268014F57A
:1086D000C67424F8026B24F8026B2680C55A15F084
:1086E000020F07D1040014F5C87724F8086BA742DD
:1086F000FBD214E018F10108424508D124F8026BBE
:10870000268014F5C87424F8026B268007E018F15F
:108710000108424503D1268014F5CA7426809B1CAB
:10872000B3F5D67FAAD1704700BF5FF4D2730400BF
:10873000C55A15F0020F0AD1551E15F0030506D1D2
:108740001233C55A44191233C65A2680243B9B1E45
:10875000B3F5CD7FECD5704700BF5FF4D273040052
:10876000C55A15F0010F11D11233C55A44191233ED
:10877000C65AA4F1040424F8026B24F8026B24F80E
:10878000026B24F8026B24F8026B243B9B1EB3F5AA
:10879000CD7FE5D57047AFF300805FF4D27304005E
:1087A000C55A15F0010F0CD11233C55A44191233B2
:1087B000C65AA41E24F8026B24F8026B24F8026B3C
:1087C000243B9B1EB3F5CD7FEAD57047AFF3008005
:1087D000AFF30080AFF3008000BF5FF4D2730400FA
:1087E000C55A15F0010F06D11233C55A4419123378
:1087F000C65A2680243B9B1EB3F5CD7FF0D570472B
:1088000000BF4FEA00044FF0660544F8043B013D09
:10881000FBD100F1020447F6EF337047AFF300805D
:10882000AFF30080AFF3008000BFB0F8E25145190C
:10883000B0F8E46100F5F2773AF8024B14F00E0359
:108840001CBFFB5A2B80AD1C4FEA141414F00E030E
:108850001CBFFB5A2B80AD1C4FEA141414F00E03FE
:108860001CBFFB5A2B80AD1C4FEA141414F00E03EE
:108870001CBFFB5A2B80AD1C083EDDD1704700BFEA
:1088800076464FF00003FFF7BCFF304776464FF0C7
:108890000003FFF7B6FFA4F8903123803047AFF311
:1088A000008000BF76464FF00003FFF7AAFF29259E
:1088B00024F80A3B6D1EFBD13047AFF30080AFF3C5
:1088C000008000BF76464FF00003FFF79AFF0925AE
:1088D00024F8323B6D1EFBD13047764647F6EF3326
:1088E000C7F6EF33FFF78DFF4FF00003A4F8923186
:1088F00024F8023C3047AFF30080AFF3008000BFA4
:1089000040F8041B521EFBD17047AFF3008000BF3C
:1089100005000FB5B0F8D811B0F8D601801806F0F0
:1089200073FA5FF40060C4F600005FF40061CB22CC
:1089300035F8023BA0F814380185521E0183F7D1A7
:108940000FBD000010B500211420FFF7ABFD1A4841
:10895000B0F91E10042901D0032908D1B0F91A106A
:108960000B2904DD00214FF49774018704E0B0F96E
:108970003A10124A32F81140B0F91A00022809DA06
:1089800006211420FFF78EFD0D491620FFF78AFD02
:10899000610808E005211420FFF784FD084916202E
:1089A000FFF780FD21461720FFF77CFD0121BDE880
:1089B00010401420FFF776BDE80100205C47010855
:1089C00050140020816841F004018160704700006C
:1089D0002DE9F843124C8046DDF8209020780F46B0
:1089E00040F0040020701D46164643F6E7114FF68E
:1089F000FF7003F0C3FF0120009009F0FF03EAB20B
:108A0000F1B2F8B203F050FB4346002204210620E5
:108A100004F02AF861690020A1F84200BDE8F8835B
:108A20008C0100200C4A6438D178527801EB810324
:108A30001A440A4B9A5C12FB00F0094A8002126841
:108A400032F9112090FBF2F0064A126832F9111047
:108A500001441A20FFF726BDA4010020CA550108D1
:108A6000740200206C0200202DE9F04100252E4602
:108A700000F044F81E4C00276420FFF7D3FF642069
:108A800000F018FD0A2009F099FB00F037F8A08FDC
:108A9000B4F84010A0F2FF704042A1F2FF714942C9
:108AA00000B209B248B1134BE2691B7832F8135097
:108AB000284422F81300002501E06D1C2DB249B1B5
:108AC0000D4A206A0026127830F81230194420F836
:108AD000121001E0761C36B2042D01DD042E04DCF8
:108AE0007F1C3FB2B7F5C87FC6DBBDE8F081000050
:108AF00050020020A7010020A801002070B5002529
:108B00002C4629461420FFF7CDFC40F267111520B2
:108B1000FFF7C8FC4FF400511720FFF7C3FC0121F9
:108B20001420FFF7BFFC1A20FFF7BAFC20B11B206E
:108B3000FFF7B6FC0028F6D14FF47A620B491046D5
:108B40005FEA420331F81060354401EB400606F558
:108B50008046401C368898423444F3D3B5FBF2F18A
:108B60000348C163B4FBF2F1016470BD50140020EE
:108B7000500200202DE9F05FFF4900272DED028B08
:108B8000FE484A6A007832F9102000EB800093001A
:108B9000FB4A12781044FB4A105C93FBF0F5FA484C
:108BA0008B6A007833F9103000EB80009B00F74CA3
:108BB00024782044105C93FBF0F4F54800780228F8
:108BC0007DD0DFF8D0830026894600BFD9F82C205D
:108BD000D9F83410B8F80200A2F500626A43A1F592
:108BE0000061C0EB22326943C0EB2130101A01B2A0
:108BF00028290ADAB8F900004246022805DD401E9D
:108C000010806420A8F802000BE06E290FDDB8F98F
:108C10000010404609290ADA491C01806421A8F89D
:108C2000021004F0A9FA08F065FE07F08BF9D9F8F4
:108C30003020D9F83810B8F80C30A2F50062A1F550
:108C4000006162436143C3EB2232C3EB2131511A0D
:108C500009B24046282906DAB0F90A20022A02DDC4
:108C6000521E428107E06E290EDDB0F90A10092973
:108C70000ADA491C41815021A8F80C1004F07CFA52
:108C800008F038FE07F05EF9761CF6B2092E9DD387
:108C900004F072FA64210320FFF704FCD9F82C10C9
:108CA000B8F80220A1F500616943C2EB2133D9F87D
:108CB00034104646A1F50061C846694300E064E20D
:108CC000C2EB2131591AD9F83030D8F83800B289BE
:108CD000A3F50063A0F5006063436043C2EB233358
:108CE000C2EB2030181A09B200B24FF0000A142962
:108CF00004DC142802DD0120708401E0A6F822A023
:108D000004F03AFA08F0F6FD07F01CF9642103209C
:108D1000FFF7C8FB708C9FEDA08BDFF88492DFF823
:108D200084B200287ED0D8F83020B6F90C00A2F525
:108D300000626243C0EB2233D8F83820A2F500620B
:108D40006243C0EB22329A1AD31702EB9372D8F81F
:108D5000583042F38F02A3F500636343C0EB233026
:108D60000244B6F92A3064329A421CD000F17300F2
:108D7000FFF787FA41EC100B09F035FB53EC182B89
:108D800051EC100BFFF7A2FA09D2D8F85810B289AB
:108D9000A1F500616143C2EB21317331718504F0AB
:108DA000EBF907F0CFF8D9F80000B6F82A10828A5C
:108DB00002EB410101839BF8031041F001018BF8A4
:108DC000031008F0BDF964210320FFF76BFBD8F80E
:108DD0005810B6F90C00A1F500616143C0EB2131D8
:108DE0006431B1464FF0070B0A297DDD0121A9F856
:108DF000221004F0C1F908F07DFD07F0A3F864210A
:108E00000320FFF74FFB002604F0B6F9D8F8301026
:108E1000B9F80C20A1F500616143C2EB213148464D
:108E2000643100E009E009B228294BDAB0F90A20E0
:108E3000022A47DD521E42814CE0D8F82C20B6F9B8
:108E40000200A2F500626A43C0EB2233D8F8342056
:108E5000A2F500626A43C0EB22329A1AD31702EBE2
:108E60009372D8F8543042F38F02A3F500636B433A
:108E7000C0EB23300244B6F9243064329A421CD04D
:108E800000F17300FFF7FDF941EC100B09F0ABFAAC
:108E900053EC182B51EC100BFFF718FA09D2D8F845
:108EA00054107288A1F500616943C2EB213173311E
:108EB000B18404F061F907F045F8D9F80000B18CED
:108EC000428A75E764290EDDB0F90A1009290ADA29
:108ED000491C41815021A9F80C1004F04DF908F00B
:108EE00009FD07F02FF800E004E0761CF6B2092E29
:108EF0008AD31EE0D8F83020D8F83810A2F50062E6
:108F00006243A1F50061C0EB22326143C0EB213026
:108F1000101A0A280DDAA9F80AB004F02DF908F0A1
:108F2000E9FC07F00FF807F00DF832210320FFF7F6
:108F3000B9FAD8F85400B9F90220A0F500606843E6
:108F4000C2EB203064300A2852DDA9F822A004F0D8
:108F500013F908F0CFFC06F0F5FF64210320FFF7BA
:108F6000A1FA002604F008F9D8F82C104846B9F800
:108F70000220A1F5006117E050020020A7010020A7
:108F8000A5010020CA550108A8010020A601002063
:108F9000CD010020E80100200000000000606840D2
:108FA000A0010020DF0100206943C2EB21316431C0
:108FB00009B2282906DAB0F90020022A02DD521E81
:108FC000028007E064290EDDB0F9001009290ADAF1
:108FD000491C01806421A9F8021004F0CDF808F0C2
:108FE00089FC06F0AFFF761CF6B2092EBAD31CE05E
:108FF000D8F82C00D8F83410A0F50060A1F5006175
:1090000068436943C2EB2030C2EB2131401A0A2881
:109010000BDAA9F800B004F0AFF808F06BFC06F02A
:1090200091FF32210320FFF73DFA4E46B9F82200A6
:109030004FF005094FF0030AB0B1D8F83000B189FC
:10904000A0F500606043C1EB2032D8F838004546F7
:10905000A0F500606043C1EB2030101A0FFA80F8D1
:10906000002404F089F860E0D8F82C107088A1F58D
:1090700000616943C0EB2132D8F834104446A1F5B1
:1090800000616943C0EB2130101A0FFA80F8002507
:1090900004F072F803E000BF04F06EF887B9606F67
:1090A0003C280DD2B6F91A00052809DD032005F089
:1090B00033FFA6F81AA004F05FF806F043FF01277B
:1090C000606FB42807D9B6F91A10012903DD491ECB
:1090D0007183C8B208E050280ED2B6F91A000B28E6
:1090E0000ADA401C7083C0B205F016FF06F02AFFB2
:1090F00032210320FFF7D6F96D1CEDB20B2DCBD337
:10910000B8F1140F41DA4846A6F81A9005F004FFAA
:1091100006F018FFBDEC028B3221BDE8F05F0320A2
:10912000FFF7C0B904F028F887B9A86F3C280DD222
:10913000B6F91A00052809DD032005F0EDFEA6F8B2
:109140001AA004F019F806F0FDFE0127A96FB42952
:1091500005D9B6F91A00012801DD401E06E05029A4
:109160000ED2B6F91A000B280ADA401C7083C0B27E
:1091700005F0D2FE06F0E6FE32210320FFF792F959
:10918000641CE4B20B2CCDD3BAE7BDEC028BBDE876
:10919000F09F00002DE9FF4FDFF8E88185B04FF622
:1091A000FF7798F80010129E41F0040188F8001033
:1091B00043F6E7199A469346B5083946484603F000
:1091C000DDFB06980124F3B20AF0FF020BF0FF0169
:1091D0000094C0B202F068FF3946484603F0CEFB67
:1091E000002253212846059B03F03EFC1120FFF787
:1091F00057F9654D81B24FF47A70298141430423B8
:10920000624A01A8009408F085FE61A3002246216D
:109210000E2003F029FC01AB002246214A2003F076
:1092200023FC0E20FFF73CF980B241F268070026CC
:109230002880B84208D91220FFF732F981B2A981FB
:109240004FF47A70009606E01320FFF729F981B2F7
:1092500069815248009641430323514A01A808F00E
:1092600059FE50A300223B210E2003F0FDFB01AB71
:1092700000223B214A2003F0F7FB2888B84206D998
:109280001520FFF70DF928610146009605E016202C
:10929000FFF706F96861414200960323444A01A89A
:1092A00008F038FE43A3002230210E2003F0DCFB3F
:1092B00001AB002230214A2003F0D6FB009429881C
:1092C0004FF47A7041430423304A01A808F022FE8B
:1092D0003BA3002225210E2003F0C6FB01AB002298
:1092E00025214A2003F0C0FB0F20FFF7D9F881B2F7
:1092F00069804FF47A7041430323294A01A80094FE
:1093000008F008FE31A300221A210E2003F0ACFB66
:1093100001AB00221A214A2003F0A6FB1020FFF720
:10932000BFF8A88000B201A905F0C8FB43208DF862
:1093300009008DF80A6028A300220F210E2003F0F7
:1093400093FB01AB00220F214A2003F08DFB0D207F
:10935000FFF7A6F8E880A98801A801F005FF21A37E
:10936000002204210E2003F07FFB01AB0022042128
:10937000562003F079FBD8F81400A0F8426009B039
:10938000BDE8F08F8C0100201814002076470108FA
:1093900020566F6C746167653A20000018FCFFFF6F
:1093A000E25401082043757272656E743A20000021
:1093B000F454010843617061636974793A200000D4
:1093C00020202020567573623A20000020202020A3
:1093D000497573623A2000005077722054656D70B1
:1093E0003A20000050777220537461743A2030782C
:1093F000000000001CB54FF4FC6143F6E71005F0D7
:109400002DFC16210220CDE9000108480B23E122A2
:109410000321008801F000FA02B03022E121BDE80A
:10942000104003A3062001F0E3B900009E010020D4
:109430003B2A40001FB5124C1048617830F81110DB
:1094400043F6E71005F00AFC60780C4900EB800059
:10945000243908441621006802900220CDE9000159
:1094600008480B23E1220321008801F0D5F902AB63
:109470003022E121062001F0BBF91FBDD6470108CB
:10948000C80100209E010020084910B50880084846
:10949000807A00EB800041000620FFF703F80121ED
:1094A000BDE810400520FEF7FDBF00002E030020A0
:1094B0002A0200200C4A64381179927801EB81036A
:1094C0001A440A4B9A5C12FB00F0094A80021268A7
:1094D00032F9112090FBF2F0064A126832F91110AD
:1094E00001441B20FEF7DEBFA4010020CA5501087D
:1094F000780200207002002010B578B14FF480543B
:10950000012805D002280FD11021012005F048FCC8
:109510002146BDE81040022005F0FABB1021BDE84D
:109520001040012005F03CBC10BDFEE7C1B2000AAE
:1095300040EA01207047000070B55E485E4C002193
:109540004288A4F1400302E05D5C6554491C154665
:109550009142F9D35849636820311F2D4B60A368AD
:109560008B6006D00220FFF7C7FF00201A21206081
:1095700020E0E17B282901D02A290AD1D4F8112042
:10958000237D12BA22F0FF021A434260E28A52BAE5
:1095900082604A4B22689A4252D1494B627B1B68D7
:1095A0009A4203D8A27B0AB1102A0CD90220FFF7F5
:1095B000A3FF2421052005F0EBFCBDE8704000214D
:1095C000012005F0C1BC282960D01DDC1A2949D032
:1095D0000DDC0A296AD005DCB9B3032936D0082985
:1095E0002ED163E0122935D0152929D15EE01E293C
:1095F00034D004DC1B2931D01D2921D156E0232988
:1096000038D025291CD139E08A294FD00CDC5529C6
:109610004CD004DC2A293FD02F2911D142E05A290D
:1096200024D088290CD141E0A8293FD004DC8F291F
:109630003CD09E2904D139E0AA2937D0AF2935D0B2
:109640000220FFF759FF2021B4E71BE0BDE870407E
:1096500004F06CBCBDE8704004F0DEBBBDE87040B7
:1096600004F070BCBDE8704004F008BCBDE8704078
:1096700004F0FEBBBDE8704004F048BCBDE870409B
:1096800004F032BCBDE8704004F060BC8168406802
:10969000BDE8704004F0F8BB81684068BDE87040E8
:1096A00004F072BCBDE8704004F054BCBDE87040EA
:1096B00004F0C6BB20000020AC03002055534243F9
:1096C0008400002010B555227B214E20FEF7ECFED1
:1096D000052008F073FD99227B214E20FEF7E4FE61
:1096E000BDE81040642008F069BD00002DE9F04F8E
:1096F000F3A0B9B0D0E90056806804904822F3493D
:109700000CA8FEF78EFD3C22F1A11EA8FEF789FDF4
:10971000FEA22DAB07CA83E807004FF00009CDF881
:10972000189001230BAA75214E20CDF8C890FEF7A2
:10973000BDFE012330AA73214E20FEF7B7FEF64C82
:109740009DF82C10207888427DD304D160789DF854
:10975000C010884277D94FF6FF71002005F07EFADD
:10976000EEA300225A21082001F030F8EBA30022DA
:109770004621082001F02AF8F3A300225A210820EC
:1097800001F024F8FBA300224621082001F01EF876
:10979000608804F1040440BA5FEA000871D0E8B2BE
:1097A0004FF0000B07907B214E20079AFEF77CFEBE
:1097B000012008F003FDC5F307227B214E20FEF7B0
:1097C00073FE282008F0FAFC01230BAA19464E204C
:1097D000FEF76CFE4FF4967716E07B214E20079A39
:1097E000FEF762FE0A2008F0E9FCC5F307227B21A0
:1097F0004E20FEF759FE384608F0E0FC01230BAA84
:1098000019464E20FEF752FE9DF82C002128E4D187
:10981000C5F3074202214E20FEF746FE2A0E042120
:109820004E20FEF741FE01230BAA05214E20FEF734
:109830003DFEF2B203214E20FEF736FE3D21C6F377
:1098400007224E2000E034E0FEF72EFEC6F307426A
:1098500052214E20FEF728FE642008F0AFFC0123C1
:109860000BAA52214E20FEF721FE9DF82C002E2837
:109870001FD101230BAA05214E20FEF717FE00275A
:1098800007E02CE0E25D53214E20FEF70DFE80B98B
:109890007F1C4745F6DB4FF4487008F08FFC01232E
:1098A0000BAA04214E20FEF701FE9DF82C00800734
:1098B00003D4012039B0BDE8F08F01230BAA19466B
:1098C0004E20FEF7F3FD9DF82C002F2807D00BF15A
:1098D000010000F0FF0BBBF1030FFFF464AF8E49F2
:1098E00001EB0800808840BA0A90002879D0002057
:1098F000319004EB080034900A99801C00EB0109B8
:10990000C5F307403590DDE9344202214E20A41C06
:10991000FEF7CAFD2A0E04214E20FEF7C5FDF2B265
:1099200003214E20FEF7C0FD4FF0000A4C457DD0CC
:109930002278292A06D02A2A23D02C2A3ED02D2A62
:1099400067D14FE0E078069908430102A078084308
:10995000069052214E20FEF7A7FD0698012700F140
:10996000010B05E0E25D53214E20FEF79DFD7F1CBB
:109970005F45F7DB320E67214E20FEF795FD069816
:1099800019E06088099052214E20FEF78DFD09985C
:10999000012700F1010B05E0E25D53214E20FEF7A7
:1099A00083FD7F1C5F45F7DB04986721C2B24E2020
:1099B000FEF77AFD09980444641C2AE04FF01C0B62
:1099C00052214E20FEF770FD01275321E25D4E200B
:1099D000FEF76AFD7F1C5F45F7DB0498C0F30722A2
:1099E00012E036E04FF4F17B52214E20FEF75CFD91
:1099F00001275321E25D4E20FEF756FD7F1C5F4597
:109A0000F7DB0498C0F3074267214E20FEF74CFDB8
:109A10005C44642008F0D2FB01230BAA04214E20F1
:109A2000FEF744FD9DF82C00400600E008E001D45C
:109A3000012032900AF1010ABAF1040FFFF676AF65
:109A4000329830B13198401CC0B231900328FFF4F5
:109A50005AAF4FF4967008F0B1FB0A99DFF8B8B02E
:109A600008EB010A0AEB0B0009F1010884792CB319
:109A7000C5F3074202214E20FEF716FD2A0E0421EF
:109A80004E20FEF711FDF2B203214E20FEF70CFD31
:109A900000270DF1300907E018F8072019F8071022
:109AA0004E20FEF701FD7F1CA742F5DB04986721DD
:109AB000020E4E20FEF7F8FCC82071E072E00000B4
:109AC0005577AA00E3082EA09084888224C9010853
:109AD00017181A191C1B1D0608071F1E090A0B154B
:109AE000200C16212223240D0E26252A292C2B0F8B
:109AF0001011122D2E13142F30323134333736011A
:109B00000005043538394342454447001D1E1F20D7
:109B10002122232425260000AA56010820202020E7
:109B20002020202020202020202020202020202035
:109B30002020202020202020202020202020202025
:109B40002020202000000000202020202020546F12
:109B50007563682070726F6772616D202069732071
:109B6000757067726164696E672E2E2E202020202A
:109B7000000000002020202020202020506C656163
:109B8000736520776169742061206665772073654D
:109B9000636F6E64732020202020202000000000CE
:109BA00008F00CFB0AEB040101EB0B004444C779FD
:109BB000641CEFB34FF0170A4FF01909C5F30742C1
:109BC00002214E20FEF770FC2A0E04214E20FEF7E3
:109BD0006BFCF2B203214E20FEF766FC00260DF16D
:109BE000B40800BF18F8062050214E20FEF75CFC98
:109BF000A25D51214E20FEF757FC761C0A2EF1DBA8
:109C00000A260DF1780819E0524650214E20FEF741
:109C10004BFC08EB0600512110F80A2C4E20FEF7F1
:109C200043FC4A4650214E20FEF73EFCA25D00E078
:109C30000FE051214E20FEF737FC761CBE42E3DBDD
:109C400004986721020E4E20FEF72EFCC82008F073
:109C5000B5FA2A0E144603214E20FEF725FC2246B3
:109C600002214E20FEF720FCFFF72CFD4FF49670EA
:109C700008F0A4FA00201DE62DE9F84F0020ADF809
:109C80000000DFF834A14BF6BF7648F280074A4D5A
:109C90004A4C40F68F7848F60F7BDFF824910AF1A2
:109CA000440A31E00888474A10F00F00107034D0A1
:109CB000454901EB8001D1F8002CADF80020BDF83A
:109CC000002012040BD5D1F8002C02EA0802C1F8DA
:109CD000002C3E4901EB800050F8040C8047BDF891
:109CE0000000000610D537483749007801EB8001A5
:109CF000D1F8002C02EA0B02C1F8002C344901EB28
:109D0000800050F8040C8047DAF800004946A9F8B2
:109D100000000004C6D4BDE8F88F286820802088A1
:109D200000F030006080208800F4405020802868D7
:109D3000304080F4005080F02000384328600888CC
:109D4000C006286815D400EA0B00286001F03CFA30
:109D500026E02188890401D580F400506188C90675
:109D600026D46188890601D580F020003843286018
:109D7000D1E7ADF80000BDF80000000506D5286861
:109D800000EA0800286005F009F909E0BDF80000C4
:109D90000004B9D5286800EA0800286002F05AFBE0
:109DA000286821883040C904D3D580F48050D0E79A
:109DB00080F01000D5E70000005C00401A00002091
:109DC00080000020080000200050004064000020B7
:109DD00048000020810008480844D0F8001C4904CD
:109DE00009D5D0F8001C48F68F7211404CF2800261
:109DF0001143C0F8001C7047005000408100084823
:109E00000844D0F8001C490609D5D0F8001C48F6D3
:109E10008F72114048F2C0021143C0F8001C704715
:109E2000005000402DE9F0410027804613263C46B3
:109E30003846791C8FB2314604F0E6FF00254046D3
:109E400004F0D4FF6D1CADB2CC2DF8D3641CA4B2C9
:109E5000072CEDD3BDE8F0812DE9F04114268046B2
:109E600040F2051700243846791C8FB2314604F0C1
:109E7000CBFF0025404604F0B9FF6D1CADB2CC2DE0
:109E8000F8D3641CA4B23B2CEDD3BDE8F0810000F4
:109E9000810006480144D1F8000C48F68F6210405A
:109EA00048F280021043C1F8000C70470050004097
:109EB0002DE9F041064640F6FF700F4610801D4622
:109EC0001146304604F092FE154CA08A82B22868F2
:109ED000010B0903304603F023FEF0B92988202046
:109EE000C1F30B013144C8722888C0F30B00304421
:109EF000C7612868010B0903304603F0CDFD60B946
:109F0000A08A216882B2304603F00AFE28B93046A2
:109F1000616803F0C1FD002800D00120BDE8F08198
:109F2000301400200648017821F04601017009072D
:109F300004D440690121A0F84210704700F0FEB936
:109F40008C01002010B504460021084604F05CFF97
:109F500000224FF49633204604F048FF521C9A42E8
:109F6000F9D310BD2DE9F0410A270E2680460024C2
:109F70003846791C8FB2314604F046FF0025404632
:109F800004F034FF6D1CADB2062DF8D3641CA4B2EE
:109F9000FA2CEDD3BDE8F081A0F57F41FF3906D062
:109FA00040F2FF71B1EB501F03D101207047002038
:109FB00070474BF6E051814305D01F49B1EB405F3C
:109FC00003D1032070470220704740F2F7518143CC
:109FD00020D04FF61F0181431ED04BF6170181435D
:109FE0001CD0C0F345113F291AD04FF4BC61814306
:109FF00018D047F6EF31814316D040F21F5181430C
:10A0000014D04FF61041814312D0C043C00611D086
:10A010000D207047042070470520704706207047C8
:10A020000720704708207047092070470A207047B2
:10A030000B2070470C2070470000E0FF03F036BE95
:10A040002DE9F047DFF89480254F4FF03009D8F81C
:10A05000001001F11005088A0E7A08B9042E04D008
:10A06000AC88A04215D8042614E01E484168491C5B
:10A0700003D00726102038802BE01B4A00211268ED
:10A080001A4B120403EBD2325160A7F800904160E2
:10A090001FE00226844200D90446A968204688476A
:10A0A0008246002000F0FEFF01462246504607F09F
:10A0B0001BFF2146002004F065FE2888001B288035
:10A0C000688820446880A7F8009009494FF4405000
:10A0D0000880D8F800000672BDE8F0870C00002068
:10A0E0001C00002000000020505C00400060004088
:10A0F0001A0000202DE9F047224EDFF88C8030272F
:10A10000356835F8100FA968A9B100B3AC8884424E
:10A1100000D904462046884781462888001B2880AD
:10A12000688820446880002000F09CFF0146224699
:10A13000484602F0B3F9288848B114494FF440501A
:10A1400008800021084604F01DFEA8F80070288849
:10A15000A988884201D3032001E020B1052031689D
:10A160000872BDE8F08731680620087208490020AF
:10A170000968084A090402EBD1314860A8F8007068
:10A18000EFE700000C0000201C0000201A00002057
:10A19000505C004000600040F8B55E4C5E4D092602
:10A1A0002068002729684278062A05D0AAB1082A23
:10A1B0004DD00A2A50D06BE00278520668D18078E0
:10A1C000012804D0022804D0032804D060E0C96923
:10A1D00056E0096A54E0496A52E04288B2BBC2883C
:10A1E000022A55D102798ABB0278530601D18388AD
:10A1F00033B102F07F02012A04D0022A0CD047E0DA
:10A2000046493DE08A69407900219047F0B92068CD
:10A21000807A0028F4D13BE0417901F00F0001F091
:10A2200070020B063E4901EB8001D1F8001C03D5FA
:10A23000C1F30111090102E0C1F301310903394BF6
:10A240001B78834224D90AB90029D9D120E00078AB
:10A2500040061DD1344913E0027802F07F02012A42
:10A2600016D1827AA2B1428892B9027982B9C288A3
:10A27000012A0DD18A6940790021904740B92B49C4
:10A2800031B120684782816100208847002006E0C4
:10A2900029682068096940788847032813D0216815
:10A2A0000A8AA2F57F43FF3B0BD002280ED06AB189
:10A2B0000878000627D5C888009082420AD908820B
:10A2C00019E00E72F8BD20680672F8BD4FF0080064
:10A2D0000872F8BD0FD22868154B90F82C00824206
:10A2E00001D25F6007E0B2FBF0F400FB142010B96C
:10A2F0004FF0FF305860286890F82C008882BDE845
:10A30000F840FFF79DBE032008720A490003088049
:10A31000F8BD00000C0000201000002061030108BF
:10A3200000500040F0000020F50201083903010848
:10A33000000000201A0000207047000008B54FF60A
:10A34000FF71002002F01AFB114908202923087030
:10A3500000200A2100903022084601F0A5FE4FF6A9
:10A36000E071002002F00AFB0AA310221A21042047
:10A3700002F054FB40F21F51002002F0FFFA01B03E
:10A3800000220A2105A304205DF804EB02F046BB7D
:10A390008C01002044656D6F000000006F6E6C79C9
:10A3A000000000002DE9F84F82460A9D234EA5F1DA
:10A3B000660000EBD070C0F34F043078894640F05F
:10A3C000040030701F46904643F6E7114FF6FF70C9
:10A3D00002F0D4FA01200090EBB2FAB208F0FF01CB
:10A3E00009F0FF0001F060FE534600221021062014
:10A3F00002F03AFB12A320220421204602F034FB93
:10A4000004F10C0080B20FA30022042102F02CFB07
:10A4100004F13C0080B20DA32022042102F024FBB1
:10A420004834A0B20AA30022042102F01DFB716986
:10A430000020A1F84200BDE8F88F00008C01002048
:10A440005B5C00003A596573000000002829000099
:10A450003A4E6F0038B51B4C054643F6E71120789D
:10A4600040F0020020704FF6FF7002F087FA0120E2
:10A4700000907823202232217D2001F015FE2B460A
:10A4800000221021062002F0EFFA0FA3202204215F
:10A490000C2002F0E9FA0DA300220421182002F09A
:10A4A000E3FA0CA320220421422002F0DDFA0AA3E1
:10A4B000002204214E2002F0D7FA61690020A1F8A1
:10A4C000420038BD8C0100205B5C00003A59657386
:10A4D00000000000282900003A4E6F0003480021C8
:10A4E0004268D1614068816170470000E034010832
:10A4F0004FF4805200F09EBB00F0CCBB2DE9F0473A
:10A50000DFF81081894605460026A80608D54FEADF
:10A51000C900A0F500704049304431F8104004E013
:10A520003146484600F00EFE0446680607D5F0079F
:10A5300002D04AF6AA2001E045F255500440B8F88E
:10A540000E10B8F80C0004F05FFCA8060BD5B9F1AA
:10A55000610F12D0B9F1620F0FD0B9F14C0F23D0B7
:10A56000B9F1480F20D0002760074FEAC5604DD5EC
:10A57000002837DAB8F8100036E0002760074FEA05
:10A58000C5600ED5002802DAB8F8100001E0B8F86E
:10A59000120004F02BFC7F1C6408BFB20B2FEDD31C
:10A5A00029E00028F3DBEFE7B8F80E10B8F80C004C
:10A5B00004F02AFC002760074FEAC5600FD5002889
:10A5C00003DA00BFB8F8100001E0B8F8120004F098
:10A5D0000DFC7F1C6408BFB20B2FECD30BE00028EE
:10A5E000F3DBEFE7B8F8120004F000FC7F1C64080E
:10A5F000BFB20E2FB8D3B8F80C10761C491CB6B2F7
:10A60000A8F80C10082E80D3BDE8F0870028E9DBFD
:10A61000B0E700008C010020243501082DE9F04747
:10A62000DFF84481894605460026A80609D5A9F128
:10A63000210000EB40004D4906EB400031F810408E
:10A6400004E03146484600F06BFD0446680607D535
:10A65000F00702D04AF6AA2001E045F25550044026
:10A66000B8F80E10B8F80C0004F0CEFBA8060BD515
:10A67000B9F1610F13D0B9F1620F10D0B9F1630FC6
:10A6800024D0B9F1640F21D04746B8F80E10B8F8BD
:10A690000C0004F0B9FBE80638D5788A37E00027CB
:10A6A00060074FEAC5600ED5002802DAB8F810003E
:10A6B00001E0B8F8120004F099FB7F1C6408BFB2F7
:10A6C0000A2FEDD340E00028F3DBEFE7B8F80E00E7
:10A6D000093081B2B8F80C0004F096FB002760073F
:10A6E0004FEAC5600FD5002803DA00BFB8F81000A4
:10A6F00001E0B8F8120004F079FB7F1C6408BFB2D7
:10A70000052FECD320E00028F3DBEFE7388A04F0D4
:10A710006DFBF989B846491C89B2B88904F074FB0D
:10A720000027E0074FEAC5601AD0002803DA00BF0F
:10A73000B8F8100001E0B8F8120004F057FB7F1CD5
:10A740006408BFB20A2FECD3B8F80C10761C491C71
:10A75000B6B2A8F80C10062EFFF467AFBDE8F0877C
:10A760000028E8DBE4E700008C0100205C420108DF
:10A7700010B504461F2143F6E71004F06FFA0EA34C
:10A7800000220221FC2000F021F80F49C4EBC40094
:10A7900001EB400300220321FC2000F029F84FF4D4
:10A7A0007A710320FDF77EFE00220221BDE81040F1
:10A7B00001A3FC2000F00AB8202020202020202027
:10A7C0002020202020000000BC48010870B515465C
:10A7D000024606481C468281C18103E02846641C6B
:10A7E000FFF78CFE21780029F8D170BD8C01002084
:10A7F00070B51546074A1C469081D18104F004FBD0
:10A8000003E02846641CFFF709FF21780029F8D1EE
:10A8100070BD00008C0100202DE9FF5F88460846CE
:10A82000DDE90EA9911C89B21C4615468B4604F041
:10A83000EBFA0027261F04E0009804F0D7FA7F1CEB
:10A84000BFB2B742F8DBC1441FFA89F0594604F0A1
:10A85000DBFA002704E0009804F0C8FA7F1CBFB2BE
:10A86000B742F8DB691C08F1010089B280B28B465F
:10A8700004F0CAFA0027A61E04E0009804F0B6FA15
:10A880007F1CBFB2B742F8DBA9F1010080B2594684
:10A8900004F0BAFA002704E0009804F0A7FA7F1C3D
:10A8A000BFB2B742F8DBA9F1020080B2294604F03A
:10A8B000ABFA002604E0009804F098FA761CB6B2D1
:10A8C000A642F8D308F1020086B2A846002710E09D
:10A8D0003046761CB6B2414604F096FA002504E0F4
:10A8E000009804F083FA6D1CADB2A542F8D37F1C2A
:10A8F000BFB25745ECD3BDE8FF9F2DE9F05F83461B
:10A900000D4608461C4690461146DDF8289004F096
:10A910007BFA43F6E71A5646504604F067FA30468B
:10A9200004F064FA0026271F04E0584604F05EFA9B
:10A93000761CB6B2BE42F8DB5646504604F056FAD4
:10A94000304604F053FA681C80B2414604F05CFAC9
:10A95000304604F04BFA0026A71E04E0584604F0E7
:10A9600045FA761CB6B2BE42F8DB504604F03EFA19
:10A97000AD1CADB24146284604F046FA002710E06F
:10A9800028466D1CADB2414604F03EFA002604E0B4
:10A99000584604F02BFA761CB6B2A642F8D37F1CB8
:10A9A000BFB24F45ECD3BDE8F09F2DE9FF4F81B01A
:10A9B0008946DDE90EB50C461E4611464846009212
:10A9C00004F022FA002011E02046641CA4B2009991
:10A9D00004F01AFA002704E0019804F007FA7F1C3B
:10A9E000BFB2B742F8D308F1010080B28046A84256
:10A9F000EAD309EB050080B2009904F005FA684239
:10AA00004FF000080BEB400A22E02046009904F0CA
:10AA1000FBF9002704E0019804F0E8F97F1CBFB2BD
:10AA2000AF42F8D300983044401B81B22046641CEA
:10AA3000A4B204F0E9F9002704E0019804F0D6F983
:10AA40007F1CBFB2AF42F8D308F101001FFA80F8B3
:10AA5000C245DADC09EB0B00401B84B220460099AA
:10AA600004F0D2F9002011E02046641CA4B2009941
:10AA700004F0CAF9002704E0019804F0B7F97F1C3C
:10AA8000BFB2B742F8D308F1010080B28046A842B5
:10AA9000EAD305B0BDE8F08F2DE9F0470C468246B9
:10AAA0001F46914611462046DDF8208004F0ACF99F
:10AAB000002610E02046641CA4B2494604F0A4F924
:10AAC000002504E0504604F091F96D1CADB2BD4282
:10AAD000F8D3761CB6B24645ECD3BDE8F08700004B
:10AAE00010B50A490A4B00204FF47F4403EBC01213
:10AAF000B2F80028A24202D10880012010BD401CFB
:10AB000080B21028F2D30020088010BD100300206E
:10AB1000007000080B4810B501780B4A01F00F01D6
:10AB200001800020094BC90101EB40041444B4F832
:10AB3000024823F81040401C80B23F28F4D3002084
:10AB400010BD000010030020007000085C9400207D
:10AB50002DE9F041204D0024287800F00F002880D6
:10AB600000F09CF928881D4E002106EBC01000F073
:10AB70007BF928781A4A401C00F00F0002EBC01144
:10AB80002880B1F80018A1F57F42FF3A05D006EB06
:10AB9000C01000F02FF90020288080B206EBC01012
:10ABA0004FF47F4100F060F90C4FDFF83880BF1C94
:10ABB000288838F81410C00100EB4400384400F035
:10ABC00053F9641CA4B206463F2CF1D300F044F9BB
:10ABD0003046BDE8F0810000100300200078000836
:10ABE000007000085C94002000F09EBE00F0C6BE1D
:10ABF00010B5082000F004F8BDE81040FFF71EBAB9
:10AC000000F01F0201219140034A20F01F00104470
:10AC1000C0F81414704700000000014001460120F4
:10AC200003E000BF00EB80004000491EC9B2F9D22A
:10AC3000704700002DE9F04115460C46074600F02C
:10AC4000AFF811484FF480660680032000F07AF8D0
:10AC5000C4F3074000F076F8C4F3072000F072F860
:10AC6000E0B200F06FF8002406E000BF00F00EF83C
:10AC7000C0433855641CA4B2AC42F7D30248103824
:10AC80000660BDE8F0810000280C0048A52000F017
:10AC900059B800002DE9F05F0D0B82462D0300F03E
:10ACA0007FF8062000F098F8254F4FF480663E802C
:10ACB000202000F047F8C5F3074000F043F8C5F343
:10ACC000072000F03FF8002000F03CF8DFF870901B
:10ACD000A9F11009C9F80060042000F07DF80024F3
:10ACE000BB46B0460AEB04072E1900F059F80620BF
:10ACF00000F072F8ABF80080022000F023F8C6F3F1
:10AD0000074000F01FF8C6F3072000F01BF8F0B270
:10AD100000F018F80026B85DC043C0B200F012F889
:10AD2000761CB6B2FF2EF6D9C9F80080042000F0D8
:10AD300053F804F58074B4F5805FD3D3BDE8F09F79
:10AD4000280C00482DE9F04107460024124D134E0F
:10AD500003E02046641CA8420FD80221304603F0CD
:10AD60004DF90028F5D03946304603F095F9002416
:10AD700006E02046641CA84202D9FF20BDE8F0810D
:10AD80000121304603F03AF90028F2D03046BDE800
:10AD9000F04103F077B90000A086010000380040C0
:10ADA00070B50B484FF48065002405800520FFF73F
:10ADB000C9FF084E03E02046641CB04206D8FFF7E6
:10ADC00065FFC007F7D102481038056070BD00006C
:10ADD000280C0048A086010010B505494FF4806496
:10ADE0000C80FFF7AFFF02481038046010BD000070
:10ADF000280C004870B505464FF43026304600F068
:10AE00005DF8042810D1094C206940F0020020614F
:10AE10006561206940F040002061304600F04EF846
:10AE2000216921F00201216170BD00000020024073
:10AE300008490420CA68D20701D001207047CA68B7
:10AE4000D20601D502207047C9684907FBD5032007
:10AE500070470000002002400248016941F0800173
:10AE60000161704700200240F0B506464FF43027DC
:10AE70000D46384600F022F804280CD1064C206913
:10AE800040F0010020613580384600F017F8216954
:10AE900021F001012161F0BD002002400448016958
:10AEA000090603D50349416003494160704700002A
:10AEB0000020024023016745AB89EFCD00B5034672
:10AEC000FFF7B6FF03E000BFFFF7B2FF5B1E0128EC
:10AED00003D0002B00D1052000BD002BF4D1FAE7F0
:10AEE0002DE9F74FDFF8BC8082B008F1040998F82B
:10AEF0000310A8F11000154611F80940867943F6B1
:10AF0000E7114FF6FF7001F039FD2748042754235D
:10AF1000017841F0400101700120009007EB06101C
:10AF2000C2B22248015D0E30005D01F0BDF801247F
:10AF30002EE0311B07EB011189B200910399062025
:10AF40008C4201D1102100E000218B460A462B469D
:10AF5000009901F089FD4FF0240A012C15D998F8C9
:10AF60000310124811F809101A38405C0D4952318B
:10AF70000144601E0A5C0EA10F4807F0FDF90E4B5C
:10AF80005A465046009901F06FFD641CE4B20D353D
:10AF9000B442CED9094941F28830088005B0BDE8F5
:10AFA000F08F0000D80100208C0100203F470108ED
:10AFB0002530326400000000DC940020B001002045
:10AFC000F0B50022012503240E6805FA02F31E40A5
:10AFD0009E422DD10E79012E01D0022E13D1876809
:10AFE000560004FA06FC27EA0C0787604F79B74041
:10AFF00086683743876086889E43868086888B79FB
:10B0000093401E4386800768560004FA06F39F4368
:10B0100007600F79D0F800C0B74047EA0C07076017
:10B02000C7689F43C760CB79B340C6683343C360EA
:10B03000521C102AC8D3F0BD4B07DB0E9A40C9083A
:10B0400010B500EB8100016A0F249C40A14301620E
:10B05000016A1143016210BD1D226C214E20FDF7D3
:10B0600023BA00000549096889B201EBC000044910
:10B0700001EB4000008980B270470000505C004046
:10B08000006000400549096889B201EBC00004492D
:10B0900001EB40008089C0F309007047505C00401C
:10B0A000006000400449096889B201EBC00003490F
:10B0B00031F8100080B27047505C004000600040E2
:10B0C00008B104487047044901200968088200203B
:10B0D00070470000840000200C0000200E4810B5CE
:10B0E0000068021D111D002815D00C4B040A987031
:10B0F0001C71040C9C71000E18729A72100A18735D
:10B10000100C9873100E18749974080A1875080CAE
:10B110009875080E187610BDACF7FF1F2C000020A4
:10B1200021385E2809D2062907D200EB400001EB46
:10B130004000034931F810007047002070470000BC
:10B14000F43D0108A0F121025E2A09D2082907D2A4
:10B15000C000A0F584700844024931F8100070471F
:10B16000002070470438010810B537223023B1F5AC
:10B17000204F02D302EB113401E003EB1134C1F391
:10B180000B0100F8014BB1F5206F02D302EB112443
:10B1900001E003EB1124C9B200F8014B9F2902D949
:10B1A00002EB111201E003EB111201F00F0100F8A4
:10B1B000012B092901D9373100E0303100F8011B9A
:10B1C0000021017010BDFEE710B5134C2068017A14
:10B1D000022904D0042902D0062905D015E0FEF783
:10B1E0002FFF2068007A11E04178052909D1017804
:10B1F000490606D1C07803F037FD08480068006AA8
:10B2000080470748006880688047082021680872E6
:10B21000BDE8104001F092BC0C000020140000209A
:10B22000100000200A484FF480514A00C0E9001283
:10B230004FF4405282604FF4E042C2600122027734
:10B2400042774161016140F2FF71816100207047E6
:10B250003014002070B53A498A7842F001028A70B1
:10B26000CA78091D01F14E039B7B12B1012A62D1FC
:10B2700041E0545C3349324A095DD21D34B1012C9E
:10B2800008D0032C0AD0042C55D1891C147944F021
:10B2900001041471147944F001041471D47944F058
:10B2A0000104D471264A284C1032012832F91100C9
:10B2B00004F1420505D035F91150A84212DD401EB7
:10B2C0000DE034F91140A04201DA401C07E093BBC5
:10B2D00089B305292FD00D292DD035F8110022F87A
:10B2E000110028E03BBB31B3052924D00D2922D021
:10B2F00034F81100F3E7515C114A01EB410163326C
:10B30000491C0128114C505C05D034F81140A04272
:10B3100009D9401E0CE0062801D2401C08E043B9C0
:10B3200014F8110004E023B90848243810F811007B
:10B33000505404F0EDF8BDE8704006F00BB8000082
:10B34000D80100203147010812530108BE540108FA
:10B350002DE9F05F294C0026207801284CD14FF0D0
:10B36000000984F800901C20FDF79AF885B2208926
:10B37000DFF88C80234F35EA00004FF0320A4FF09F
:10B38000030B0BD0A8F800A0A7F800B0E80700D086
:10B390000126A8072ED50220E0802BE01A4800786D
:10B3A000400727D405F07AFA0646208905421AD0CC
:10B3B000B8F80000192806D2398821B915F03C0FD9
:10B3C00001D0A7F800B03988084313D1A807002896
:10B3D00004DA4FF40076A4F8069000E00AD04FF0AB
:10B3E0001900388006E0E08810B10646A4F80690FF
:10B3F000A8F800A025816681BDE8F09FA401002087
:10B400003003002032030020CD01002004480178E1
:10B4100041F00201017040690021A0F8421070471C
:10B420008C01002070B50E4D0024FFF773FB0A213C
:10B43000284600F0A2FC18B92888B0F5407F01D05A
:10B44000002070BD074800BF05EB4401498820F883
:10B450001410641CA4B2082CF6D34FF0FF3070BD5A
:10B460005C940020CC0200202DE9F0413AA186B086
:10B470000EC98DE80E00694600F038FA05AB03AA44
:10B480006946384800F09CFD00282FD10427BE02F1
:10B49000DFF8D480354C002503A9324802F05CFB6C
:10B4A00018BBB8F83A00032802D0022D0AD201E0F6
:10B4B000042D07D205FB06F020F00100204432469F
:10B4C000284908E005FB06F020F001002044324640
:10B4D000244900F50050FCF7A4FE6D1CBD42DBD3EF
:10B4E00003A9204802F038FB18B1032006B0BDE8DC
:10B4F000F0811F484AF655210180218841806188EA
:10B500008180B8F80020C280B8F80A200281B8F81B
:10B510003A204281B8F81A208281124841460288B6
:10B520002280428862808288A8F80020C2884A81EE
:10B5300002894A874089A8F81A000E48017841F02C
:10B540000201017006F0BEFB0B488179632901D22C
:10B55000491C81710020C9E744415441202020202A
:10B5600042554600DC030020E80100205014002072
:10B570009E980020CD0100202A020020F0B51DA3D6
:10B5800087B00ECB8DE80E00694600F0AFF905AB31
:10B5900003AA69461A4800F013FD002805D103A943
:10B5A000174802F0D9FA10B1032007B0F0BD144DCE
:10B5B000144E00244FF49677C4EB041000EB800087
:10B5C00005EB800106EB80003A46FCF72AFE641C7E
:10B5D000A4B2032CF0D30C48E97841832979018087
:10B5E000A979418109484179632901D2491C4171F6
:10B5F0000020DAE746494C452020202044415400F1
:10B60000DC03002010950020E80100202A02002021
:10B61000F0B587B00026324C0B20FCF741FF014605
:10B62000684606F0EFFD50208DF8080041208DF8A7
:10B63000090052208DF80A0000208DF80B0005ABA0
:10B6400003AA6946204600F0BBFC050004D103A90B
:10B65000204602F081FA10B1032007B0F0BD218826
:10B66000C8B2062801D00120F7E71D4A00204FF498
:10B670000073175C401C3E4480B2F6B29842F8D387
:10B680000EB10620E9E7080A1649C8700020241DFB
:10B690000B18401C14F8022B80B21A710A28F7D339
:10B6A0001149002034F8022B21F81020401C80B2F0
:10B6B0002128F7D30D49002014F8022B0A54401C0E
:10B6C00080B21228F8D30A49002000BF14F8022BD8
:10B6D0000A54401C80B21128F8D32846BDE7000068
:10B6E000DC030020D8010020E80100203B020020FC
:10B6F0002A0200200D4900B509680A7802F07F028D
:10B70000212A08D1FE2806D1488820B9888810B996
:10B71000C888012801D0022000BD054888610020AA
:10B720004882FFF7CDFC002000BD00000C00002087
:10B73000C1B00008014904F0F1BD000090000020F4
:10B74000014904F0EBBD00008800002005490968AC
:10B75000C978052901D900207047034A02EBC101CD
:10B7600004F0DCBD0C000020C800002009B900284E
:10B7700000D00220704700000F4910B509680A7810
:10B7800002F07F02212A07D1FF2805D1488818B985
:10B79000888808B9C88808B1022010BD0120FEF7CA
:10B7A0002DFB0220FEF716FB0549044808600549F9
:10B7B0000020087010BD00000C00002055534243CB
:10B7C000AC0300202000002070B53048002531492E
:10B7D00085722F480968C0794872284603F066F9D7
:10B7E0004FF40071002003F0F3FA2021002003F051
:10B7F000D7FA1821002003F05BFA274C002014F838
:10B800002C1F03F065FA5821002003F0ABFA00204A
:10B81000FEF73EFB002003F093FA0021012003F025
:10B82000D7FA9821012003F09DFA2021012003F08E
:10B83000B7FA0021012003F06BFA0021022003F087
:10B84000C7FAD821022003F033FA2178022003F04E
:10B850003FFA4FF44051022003F05AFA002102202F
:10B8600003F09EFA2178002003F032FA002003F062
:10B8700067FA002003F0F8F9084901200860094937
:10B88000074808600848057070BD0000500300209C
:10B89000603401080C0000209800002018010020EE
:10B8A00055534243AC0300202000002070477047EE
:10B8B00010B5FFF713FC094800240068847201F0FA
:10B8C0005FF90748046007494FF4044008800449C1
:10B8D000091F08600448046010BD00000C0000202F
:10B8E000445C0040180000201801002038B50C46C8
:10B8F000C1B2684607F094FD9DF8000020719DF8E4
:10B90000010060719DF80200A07138BD044805492E
:10B910000068884202D00220FDF7EEBD70470000AB
:10B92000AC03002055534243124810B50178022958
:10B930000AD04FF44054032910D0042901D005291E
:10B9400016D1002101700DE00B49C97B28290FD1C8
:10B9500081684068BDE8104002F096BA01210020DD
:10B9600003F0F2FA2146BDE81040022003F0D0B9FE
:10B9700010BD000020000020AC03002070B5164868
:10B98000C57B0220FFF77EFB144C0246D821608065
:10B990001148403800F082FD207818B1012805D008
:10B9A000022006E0BDE87040FDF7C6BD2A2D0CD090
:10B9B0000120FDF7A1FD2421052003F0E9FABDE8EF
:10B9C00070400021022003F0BFBAD4E90101BDE8B4
:10B9D000704002F0D9BA0000AC0300202000002023
:10B9E000094810B50068807A00280BD00749052067
:10B9F00008600120FEF702FA0220FEF7EBF9044985
:10BA00000020087010BD00000C000020180100206C
:10BA10002000002001490420086070471801002020
:10BA20002DE9F04FB94A2DED028B87B01368B84A63
:10BA3000127833F912309E0002EB8203B54A127875
:10BA40001344B54AD55C96FBF5F30693B34B1F68D8
:10BA5000B34B1C7837F9143004EB8407B14C9B00CE
:10BA600024783C44B04F125DBC4693FBF2F405943D
:10BA7000B7F91E40BCF91A90042C01D0032C05D153
:10BA8000B9F10B0F02DD4FF4977404E0B7F93A40B7
:10BA9000A64F37F814400494A34C8C46DFF890A2CC
:10BAA000B4F90070B4F90A10B4F902E0B4F90CB0BA
:10BAB000A04C2468A4F5006403949F4C2468A4F56A
:10BAC000006402949D4C2468A4F5006401949C4C8D
:10BAD0002468A4F5006400940024BCF1080F54D23B
:10BAE000DFE80CF004415E7390D5F1EF98B1954812
:10BAF00046F2A8110068484340082146B9F1090FF1
:10BB00000BDA914C0023A0FB042501FB045100FB40
:10BB1000031110460EE08D48EAE7B9F1120F09DA79
:10BB200002464FF47A73A2FB030501FB0351002484
:10BB300002FB04117E4B2A3B33F819200023FCF74B
:10BB40003FFB0023049AFCF73BFBB9F1020F00DA3C
:10BB500000184FF00101754A00914FF0030302F104
:10BB60002C0201460EE0A8B179486421794A0068A8
:10BB70004143126802231044B1FBF0F101206B4AEB
:10BB800000903C3A744806F0C5F907B0BDEC028B52
:10BB9000BDE8F08F71486421714A00684143E8E7CD
:10BBA00050B15AF821006F4900EB8000059A0968EE
:10BBB000C00051430D1321E05AF827006A4900EBF9
:10BBC0008000C0000968069AF3E758B15AF82100CE
:10BBD00093FBF2F1654A00EB8000C0001268A2F509
:10BBE00000625DE096FBF5F1614A5AF827001268A1
:10BBF00000EB8000C000A2F500625DE04543EE1757
:10BC0000FA2114E088B35AF8210093FBF2F1019D68
:10BC100000EB800069430D1393FBF2F1009AC00022
:10BC20005143A5EB21354543EE174FF4FA714843D4
:10BC3000642190FBF1F0FCF724FB41EC180B284643
:10BC40003146FCF72FFB41EC100B06F0CCFB53EC1C
:10BC5000182B51EC100BFCF739FB4FF00303009449
:10BC600044D2324A214644328CE7FFE796FBF5F195
:10BC7000039A5AF8270051430B1396FBF5F100EB9A
:10BC80008000029AC0005143A3EB2135CBE758B1A5
:10BC90005AF8210093FBF2F100EB8000019AC000FA
:10BCA0005143CBEB21350AE096FBF5F15AF827001A
:10BCB000039A00EB8000C0005143CEEB2135643580
:10BCC0009CE717E0FFE740B15AF8210093FBF2F13F
:10BCD00000EB8000C000009AE2E796FBF5F15AF80D
:10BCE0002700029A00EB8000C000E5E70F4A2946D2
:10BCF0001A3247E71F480D4A032301894FF47A702F
:10BD0000414301201A3200903CE7000074020020F9
:10BD1000A7010020A5010020CA55010878020020D3
:10BD2000A8010020A6010020E80100205C470108CE
:10BD3000C04F01087C020020840200208002002005
:10BD400088020020C802002040420F00C4020020E8
:10BD5000B8020020C0020020DC940020B4020020C1
:10BD6000BC020020980200209402002090020020D3
:10BD70008C02002018140020FEE770B50646002251
:10BD80004FF6FF704AF201040FE036F812305840C7
:10BD9000002310F0010F4FEA500000D060405B1C00
:10BDA0009BB2082BF5D3521C92B28A42EDD370BDE0
:10BDB0001A4810B504781A48018949420BB2416902
:10BDC000B1F844203CB1032A0DD9B1F846401444DF
:10BDD000FC2C08D208E0032A05D9B1F846401444E7
:10BDE000B4F5967F00D9038103891A44A1F8442051
:10BDF000B1F84820062A05D9B1F84A301344B3F502
:10BE0000C97F02D343895B42438140891044A1F832
:10BE100048000020A1F8420010BD0000D801002019
:10BE20008C0100207047704770B50F23C4780178EB
:10BE30000122F4B1144C2468457804F4E064C4F59C
:10BE4000E064240AC4F10406E3408478B5401C4051
:10BE50002C4301F1E021230181F80034007800F047
:10BE60001F018A404009800000F1E020C0F8002155
:10BE700070BD01F01F0082404809800000F1E02001
:10BE8000C0F8802170BD00000CED00E002490843BD
:10BE900002490860704700000000FA050CED00E060
:10BEA00038B5044610482288002301686280238048
:10BEB0008069114401EB5201824206D2022A04D366
:10BEC0000222684601F02CFE08B1012038BDA0789E
:10BED000C007BDF8000001D0000901E0C0F30B006D
:10BEE0002080002038BD00003014002070B52F4D98
:10BEF0002868017844784A0606D001F07F000128BE
:10BF000028D002282BD035E0092C06D0052C07D0EC
:10BF1000032C0ED0012C14D02CE004F06BFA28E096
:10BF2000C1787F292ED8817861BB818851BB807A06
:10BF300027E0C17801291DD18088D8B904F076FAAC
:10BF400017E0C178012915D1818899B9407A800616
:10BF50000AD40FE00B2C0DD104F0BEFA09E0012C3D
:10BF600002D0032C03D005E004F046F901E004F010
:10BF70006FFA58B10E492046096849698847032875
:10BF800002D018B108200DE009200BE0094A062074
:10BF900000211268084B120403EBD2325160074AA9
:10BFA000302111802968087270BD00000C0000204B
:10BFB00010000020505C0040006000401C00002089
:10BFC0002DE9F0410546002010801D480F461C4613
:10BFD000816816468046196023E000BFB8F8140057
:10BFE00082B2284601F09CFD10B10120BDE8F0812D
:10BFF0000021434612E000200A18AA5CEAB117F8B3
:10C0000000C0624505D10A2812D0401C80B20B281E
:10C01000F2D320682030203189B2206058698842EC
:10C02000E9D82168D8F80C209142D7D30320DDE766
:10C030006818408B30800020D8E70420D6E7000045
:10C04000301400202DE9F0411C4616460F460546E7
:10C05000FFF7B6FF042805D13146284602F0F2FC6E
:10C0600010B10320BDE8F0812068C0F30B04A0EB01
:10C0700004080C484146808A82B2284601F050FDEF
:10C0800070B9395C2218401CA9540B28F9D329191E
:10C09000308848834146284601F0FEFC0028E1D064
:10C0A0000120DFE7301400202DE9F047844600240A
:10C0B0008148089FB42A00D9B422F02B00D9F0237C
:10C0C00012FB03F643F24845AE4202D9B5FBF2F348
:10C0D000DBB27A4D49006E6926F844CFB180510039
:10C0E0007380F18041F62421012F16D05FF0000209
:10C0F000FCF7A9F84FF000084646A5F80480A5F81B
:10C100000680304600F05CFC304600F059FC3046BA
:10C1100000F056FC0026B71F08E06A7802EB021216
:10C12000E6E7A87800F04CFC761CB6B26869B0F877
:10C130004A0007EB5000B042F3DC204600F040FC20
:10C14000204600F03DFC204600F03AFC0120A8808B
:10C150004646A5F80680204600F032FC204600F056
:10C160002FFCA87800F02CFC68696FF00209B0F889
:10C170004A1009EB5100E880A87800F021FC204625
:10C1800000F01EFC204600F01BFC0220A880EE8080
:10C19000204600F015FCA87800F012FC68696FF0EA
:10C1A0000108B0F84A1008EB5100E880A87800F0C8
:10C1B00007FC204600F004FC0320A8804FF0FF3A63
:10C1C0000FE0EE80A87800F0FBFB6869B0F84A1039
:10C1D0000AEB5100E880A87800F0F2FBA888401C28
:10C1E000A8806869A988B0F84600801E8842E8DC0B
:10C1F0006869B0F84600C01EA880EE80204600F0B6
:10C20000DFFBA87800F0DCFB686930F8461FC91E28
:10C21000A980818808EB5100E880A87800F0D0FB65
:10C22000204600F0CDFB6869B0F84600801EA8806B
:10C23000EE80204600F0C4FB204600F0C1FBA87849
:10C2400000F0BEFB686930F8461F891EA98081880E
:10C2500009EB5100E880A87800F0B2FB204600F01E
:10C26000AFFB204600F0ACFB6869B0F84600401E0A
:10C27000A880EE80204600F0A3FB204600F0A0FB43
:10C28000204600F09DFB002604E0A87800F098FB13
:10C29000761CB6B26869B0F84A0007EB5000B042AD
:10C2A000F3DC204600F08CFB204600F089FB2046A2
:10C2B000BDE8F04700F084BB780500108C01002039
:10C2C0002DE9F04F51A289B007CA02AC07AB84E850
:10C2D000070005AA02A95048FFF772FE4F4D00243F
:10C2E00048B18A2000901023142269214CA0FCF749
:10C2F0006FFBAC707BE005A9474801F02DFC0028DE
:10C3000075D1454EDFF8309136214FF478434FF424
:10C31000FC6C00BF01EB8002B75C324403EA0727E4
:10C3200092F8018092780CEAC80847EA080747EAC1
:10C33000D20229F81020401C80B24F461028E9D3C1
:10C34000B07CB17DFA2801D1C8290CD0842000909E
:10C3500010231422692139A0FCF73AFBAC700020AD
:10C3600009B0BDE8F08F43F6E710FDF75BFD022151
:10C37000FE20CDE90001CB23142207214FF6E07007
:10C38000FEF713FB76254FF016080924B346BA468C
:10C3900003E0092401E04C4520D84146204602F044
:10C3A00033FD1BF805005E46000957463AF81000B9
:10C3B00002F01CFD601C80B2414602F025FD705D5C
:10C3C0000109494200EB011037F8100002F00EFDA0
:10C3D0004FF481794FF480564FF484776D1CADB2E1
:10C3E000B54207D305A90C4801F0B6FB08B10320FC
:10C3F000B6E70025A41CA4B2BC42CCD908F10100C8
:10C400001FFA80F8B8F1DD0FC3D3A8E741424F55BA
:10C41000545F4620424D5000DC03002034030020CE
:10C420002041626F75742E66696C652069732045C2
:10C4300072726F7220000000F09400202041626F41
:10C4400075742E426D70206973204572726F722070
:10C450000000000010B50F4C2068007A022811D0AF
:10C4600004280FD0032804D0052802D0072805D0BF
:10C4700008E0FDF73FFE2068007A04E00648006807
:10C48000C0688047082021680872BDE8104000F0AD
:10C4900055BB00000C00002010000020064B521C71
:10C4A000520803EB410105D031F8043B20F8023B70
:10C4B000521EF9D170470000006000402DE9F84F8E
:10C4C0002C488B4643F6E714C178001D4FF6FF78E1
:10C4D0000D5C14389A468779164621464046DDF8A9
:10C4E000289000F04BFA24486223017841F00201C1
:10C4F00001700120009007EB47000C2101EB800048
:10C50000C2B21E48415DC01D405DFFF7CDFD3546FE
:10C510004E462146404600F031FA012404210AEB40
:10C520004A0001EB40081DE0391B01EB810202EBE0
:10C53000C101091D04201FFA81FA5C4501D11021B7
:10C5400000E0002189460A462B46514600F08CFA4D
:10C55000404633464A46514600F086FA641C0D3583
:10C56000E4B20936BC42DFD9054941F2883008807F
:10C57000BDE8F88FD80100208C0100203F4701085A
:10C58000B00100202DE9F04FD14985B001F1100331
:10C59000CC783CB99C7844F001049C700C7A44F04F
:10C5A00001040C72DD78CA4BC949DC79623314315D
:10C5B000A646DF7B641E25B1012D77D0022D68D100
:10C5C0004AE1695CC34B595C0B19C1492031B1F98F
:10C5D0002460B1F902A0741E24B20494B1F92A5067
:10C5E000B1F90CB06C1E24B20394B1F9224002944C
:10C5F0006C1C24B20194741C24B20094B1F91EC0C6
:10C60000B1F9384006EB0A0905EB0B08012818D0F0
:10C61000501D122B71D0142B00DD5B1CAE4D012B75
:10C6200035F8135015442DB268D0062B67D01C2B5B
:10C6300070D031F91300A8426DDD002A6CD0801A49
:10C64000B0E002F1C300122B68D0142B00DD5B1C9C
:10C65000A14D423D35F81350AD1A2DB2012B0AD031
:10C66000062B17D01C2B25D031F91300A84249DA2C
:10C6700082B3104496E0964A20325288521C12B27D
:10C68000BAF1C30F03DA814501DD049861E0AA45E0
:10C6900063DB15E18E4A20329289521C12B2BBF143
:10C6A000C30F04DA804502DD039863E0B0E0AB45D8
:10C6B00066DB05E1B1F93A0030B1012807D0022864
:10C6C00009D003280CD109E040F2CF2508E040F260
:10C6D000CF6505E014E040F6CF6501E041F6CC659A
:10C6E000BCF1040F3AD0BCF1030F37D00AB1A01847
:10C6F00050E0AC4232DA641D51E067E01EE02EE00B
:10C70000401C4FE0C7BBC3B3052B72D00D2B78D0B4
:10C71000714856E036E048E043E0FFE7029B33B162
:10C7200080451BDA0AB1A81858E0019856E0814507
:10C7300014DA0AB1B01859E0009857E0644A203280
:10C740005288521E12B2BAF1050F04DD814502DA99
:10C750000098888401E0AA4500DD4A80B0E05C4A88
:10C7600020329289521E12B2BBF1050F06DD8045C0
:10C7700004DA0198488503E018E03AE0AB4500DDB3
:10C780008A819DE0BCF1040F05D0BCF1030F02D0FB
:10C7900012B1A01A088793E0AC4201DD641F0C8738
:10C7A0008EE0401E21F8130000E01FB10BB3052BF3
:10C7B0001FD024E0EBB1052B1BD00D2B21D0464818
:10C7C000423830F8130021F8130079E0029B3BB1A6
:10C7D000804575DD0AB1A81A00E0039848856FE02E
:10C7E00081456DDD0AB1B01A00E00498888467E0E5
:10C7F00007E037481730017941F0010101710D2B35
:10C800005ED133481730C17941F00101C17157E061
:10C81000695C324B01EB410202EB0E012C4A491ECE
:10C820007332012804D0505C002810DD401E11E056
:10C8300003EB4E0030F9023C505C984201DA401C98
:10C8400008E087BB2548243010F8110002E057BBF0
:10C8500013F81100505433E0695C1E4D0C3D012863
:10C86000695C214405F6714404F1220509D035F8CC
:10C870001100104405B2585CA8421DDDD2B1801AE7
:10C880001DE0D87908B1082909D034F81100801AC0
:10C8900004B2585CA04209DA32B110440FE0208A99
:10C8A000801A401FF4E70BE0401C08E047B915F878
:10C8B000110004E0401E02E017B914F811005854AA
:10C8C000704603F007F805B0BDE8F04F04F042BD34
:10C8D000C801002031470108545301089A54010847
:10C8E000704700002DE9F043DFF8848007460025FB
:10C8F0004FEAC109B80604D5A9F5007028441D49BE
:10C9000003E0A9F584701C49284431F810407806EA
:10C9100007D5E80702D04AF6AA2001E045F25550B3
:10C920000440002660074FEAC7601DD5002802DAE0
:10C9300098F8010001E098F8020000F041F8761C38
:10C940006408B6B20E2EEDD3B8F804106D1C491C65
:10C95000A8F80410B8F80610ADB20E39A8F8061001
:10C96000082DC7D3BDE8F0830028E4DBE0E7000032
:10C970008C010020243501080438010870B50F4BE4
:10C980000E225C6922F001063519B5F84A5085423D
:10C9900003D0921E12F0FF02F4D15A705FF00E0025
:10C9A00020F001022244B2F84A208A4203D0801EBD
:10C9B00010F0FF00F4D1987070BD00008C010020D1
:10C9C00070B5154C134B6169A58831F8462FB5FB3E
:10C9D000F2F602FB1655A5808A88E188B1FBF2F6D3
:10C9E00002FB16116A43D51702EB9572921002EB07
:10C9F000510211F0010F92B201F10101E180995C45
:10CA000002D060F31F1102E001F0F00101439954DC
:10CA100070BD0000780500108C0100202DE9F04168
:10CA2000104C1E469046A0800F46E1805FF0000546
:10CA30005FEAC86001D5A07800E06078FFF7C0FF2A
:10CA40006D1CEDB20E2DF3D3A088401CA080E780B2
:10CA500003E04046761CFFF745FF31780029F8D106
:10CA6000BDE8F0818C0100202DE9FF4FDFF8C48084
:10CA700099461646A8F804000198A8F806004FE069
:10CA8000834601980025401C09F101091FFA80FA2C
:10CA9000B00609D5ABF1210000EB4000264905EBBB
:10CAA000400031F8104004E029465846FEF738FBB4
:10CAB0000446700607D5E80702D04AF6AA2001E02E
:10CAC00045F255500440F00602D598F8020001E006
:10CAD00098F80100FFF774FFA8F806A00027E00708
:10CAE0004FEAC66022D0002803DA00BF98F80100A0
:10CAF00001E098F80200FFF763FF7F1C6408BFB2F3
:10CB00000A2FECD3B8F804106D1C491CA8F80410C7
:10CB1000B8F80610ADB20B39A8F80610062DB7D339
:10CB200099F800000028ABD1BDE8FF8F0028E0DBBA
:10CB3000DCE700008C0100205C4201080C4810B5C5
:10CB400090F82C10002002F0C3F80A480068007A20
:10CB5000082802D0092809D006E007494FF4805080
:10CB60000880064910200880002010BD012010BD5B
:10CB7000980000200C0000201A0000201C0000205B
:10CB80000648012101600021054A0160031D19606A
:10CB90004FF4E0511180016000207047405C00407C
:10CBA000180000202DE9F843244C8046DDF8209041
:10CBB00020780F4640F0100020701D4616464FF6B4
:10CBC000FF7143F6E710FFF7D9FE0120009009F04E
:10CBD000FF03EAB2F1B2F8B2FFF766FA4346002269
:10CBE00029211820FFF740FF15A320221D21062030
:10CBF000FFF73AFF13A300221D211E20FFF734FF89
:10CC000013A3202211210620FFF72EFF11A30022DB
:10CC100011211E20FFF728FF13A320220521062043
:10CC2000FFF722FF11A3002205211E20FFF71CFFA2
:10CC300061690020A1F84200BDE8F8838C01002062
:10CC40007B7C3A005077724F6666204F6E6C79009D
:10CC50005B5C3A005077724F6666202620536176FF
:10CC600065506172616D00007D7E3A005374616EA3
:10CC7000646279002DE9F05F8B4614464FF48878A2
:10CC80004FF6FF7143F6E71001F0E8FFFC2018A310
:10CC900000220221FDF79AFD04EB4400DFF85CA0BE
:10CCA000002500EBC40900BF154809EB050100246D
:10CCB00030F811700BEB0506761C08EB0400B1B2DE
:10CCC00080B202F0A1F827FA04F0C00701D01F20BB
:10CCD00001E0BAF8000002F089F8641CA4B20B2C41
:10CCE000EBD36D1CADB20B2DDED3BDE8F09F000081
:10CCF0002020202020202020202000009C01002037
:10CD0000325601082DE9F0472F4D88460646E9893D
:10CD1000A88902F079F80024F00601D5688A00E0BD
:10CD2000288A02F063F8641CA4B20E2CF4D3A889FC
:10CD3000A946401CA8813EE00025B00698F80000F6
:10CD400004D42946FEF7FEF9044606E0C000A0F52B
:10CD500000701E49284431F81040700607D5E807D6
:10CD600002D04AF6AA2001E045F255500440B9F835
:10CD70000E10B9F80C0002F047F8002720074FEA20
:10CD8000C6601ED5002802DAB9F8100001E0B9F833
:10CD9000120002F02BF87F1C6408BFB20E2FEDD3F7
:10CDA000B9F80C106D1C491CADB2A9F80C10082D77
:10CDB000C3D308F1010898F800000028BCD1BDE8F1
:10CDC000F0870028E3DBDFE78C0100202435010831
:10CDD0002DE9F047DFF8C48089460646B8F80E1002
:10CDE000B8F80C0002F010F84FE0824609F1010992
:10CDF0000025B00605D429465046FEF791F90446B1
:10CE000008E0AAF1210000EB4000254905EB4000B5
:10CE100031F81040700607D5E80702D04AF6AA207C
:10CE200001E045F2555004404746B8F80E10B8F8F6
:10CE30000C0001F0E9FFF00601D5788A00E0388A9D
:10CE400001F0D4FFF989B846491C89B2B88901F0CC
:10CE5000DBFF0027E0074FEAC6601CD0002802DA9B
:10CE6000B8F8100001E0B8F8120001F0BFFF7F1C15
:10CE70006408BFB20A2FEDD3B8F80C106D1C491C22
:10CE8000ADB2A8F80C10062DB3D399F80000002815
:10CE9000ABD1BDE8F0870028E5DBE1E78C0100209D
:10CEA0005C4201082DE9F047DFF894900F46804678
:10CEB000B9F80E10B9F80C0001F0A6FF38E0DFF861
:10CEC00084A0002538783138C0EBC00041195FEAF2
:10CED00048603AF8114007D5E80702D04AF6AA2080
:10CEE00001E045F255500440B9F80E10B9F80C00B5
:10CEF00001F08AFF0026E0074FEAC8601DD0002835
:10CF000003DA00BFB9F8120001E0B9F8100001F02F
:10CF10006DFF761C6408B6B2092EECD3B9F80C107C
:10CF20006D1C491CADB2A9F80C10072DCAD37F1C8B
:10CF300038780028C3D1BDE8F0870028E5DBE1E7B9
:10CF40008C010020EC3401082DE9FC4781461E4885
:10CF500001EB41019846455C0844144641781B4862
:10CF600000EBC1062846FEF75BFD194F194837F85C
:10CF70001510008801F072FE174818490B23048031
:10CF8000A1F8008052210220CDE90001E01E81B20B
:10CF900037F815004246FDF73FFC33464A46414606
:10CFA0002046FDF725FC1E34A0B20DA34A4641469B
:10CFB000FDF71EFC02B0A0B24A464146BDE8F0476C
:10CFC0000A4BFDF715BC00003B0200200249010896
:10CFD000465001089C010020980100209A01002081
:10CFE000202020202020202000000000DC940020B1
:10CFF0007CB50546204821490024B0F91A000323D6
:10D0000051F820001E4909684A8C098C0094511A75
:10D010004143192091FBF0F11A4A1B4804F07AFFB2
:10D020001A4804801A48048040F21F54214643F6EF
:10D03000E71001F013FE40210220CDE900010B238F
:10D040000322FC212046FDF7E7FB12A31022032157
:10D05000FF20FDF7CDFB12A330220321FF20FDF7B7
:10D06000C7FB02B02A46BDE87040074B03214FF4CE
:10D070008770FDF7BDBB0000E8010020E84F010804
:10D08000A001002064470108DC94002098010020E2
:10D090009A01002020202020202020202020000095
:10D0A0005D543A007CB5284C0646E08E10B1B4F9C8
:10D0B0000A0001E0B4F900002449C0B2002551F88B
:10D0C00020002349032309684A8B898B0095511A54
:10D0D00001EBD17149104143192091FBF0F11D4A38
:10D0E0001D4804F017FF1D4805801D480580174D99
:10D0F000B4F93600863535F810101A48008801F06A
:10D10000ADFD40210220CDE90001B4F93600032233
:10D110000B2335F810001146FDF77EFB12A31022F9
:10D1200003210620FDF764FB12A330220321062011
:10D13000FDF75EFB02B03246BDE870400321064BAE
:10D140001820FDF755BB0000E8010020C04F010882
:10D15000A00100207C470108DC94002098010020F9
:10D160009A0100209C010020202020202020202047
:10D17000202000005D563A002DE9F04FFE49B5B081
:10D18000886900F5FA72129200F5487200F24C407C
:10D19000CDE91020F9480E9000F580400B90F8483A
:10D1A0004A6A007800EB800332F91020F5489200BB
:10D1B00000780344F448C35C92FBF3FAF34A8B6AA9
:10D1C000127833F9123002EB82029B00F04C0026F9
:10D1D0000025247822440224805C0A9693FBF0F90F
:10D1E00022961E96002021961896289017961D9636
:10D1F000401E209609951C950C96CDE92650169652
:10D200001B95089525901A96E248E34D1F9630F835
:10D21000167F95F800C03346A7EB0C0CA1F806C0AA
:10D2200095F801C03246A7EB0C0CA1F808C0AD7808
:10D23000A6467D1B4D81B0F92450D84F37F81550C4
:10D240006D1EADB20795B1F804B0817ACE4D01F0F4
:10D2500001013091B0F904100A352E9135F8111002
:10D26000249101892F91CE490F68798A4908069146
:10D27000BD8A09036D080F95FF8AA1F5C8217F08B3
:10D280002D97007B00F001003190C64807782803F5
:10D29000A0F5C820022F3DD0BE4D91FBFAF1B5F9A3
:10D2A0002470B5F902C001F5006167443F03A7F59A
:10D2B000C82797FBFAFC97FBFAF707F500670CF510
:10D2C000006C3FB20FFA8CFC0D97CDF864C00FB222
:10D2D000B5F92A10B5F90C5029440903A1F5C82164
:10D2E00091FBF9F591FBF9F190FBF9F005F500657B
:10D2F0002DB201F5006100F5006009B200B22C9575
:10D30000CDE92910A348B0F91E00042821D0032834
:10D310001FD029E0DFF8608291FBFAF1B8F914C060
:10D32000B8F90E5001F5006165442D03A5F5C82537
:10D3300095FBFAF795FBFAF507F500673FB205F59F
:10D3400000652DB219970D950FB2B8F91010614410
:10D35000C3E72E998F480B2906DD4FF4977107918B
:10D36000002101870D4601E00025A6E08E48C06837
:10D3700000B202900799081AA8427DDD0E980B9919
:10D38000DDF8A0C030F9150031F91510844500D240
:10D390002890DDF898C08C4500D22691DDF89CC01D
:10D3A000844500D92790DDF894C08C4500D925919B
:10D3B000DDF824C0022C8444CDF824C0DDF820C060
:10D3C0008C44CDF820C0DDF87080A0EB070C0CFB7E
:10D3D0000C8CCDF870C0DDF8A8C0DDF86C80A1EB36
:10D3E0000C0C0CFB0C8CCDF86CC00DD05B1C9BB2F4
:10D3F000BEF1020F0AD0521C1FFA82F2DDF834C0CF
:10D40000604515DD24B111E00023F1E70022F5E7C6
:10D410002298184480B222900A980023401C80B2BF
:10D420000A901F98584501D2A8B21F90012414E019
:10D43000DDF864C0604510DA012C0DD12198184444
:10D4400080B221901A980023401C80B21A901E9836
:10D45000584501D2A8B21E9000242998814214DDBB
:10D46000BEF1000F0FD12098104480B22090169882
:10D470000022401C80B200E023E016901898584526
:10D4800001D2A8B21890012014E02C98814212DA3F
:10D49000BEF1010F0DD10C98104480B20C9017987A
:10D4A0000022401C80B217901D98584501D2A8B2A6
:10D4B0001D90002086466D1C2DB207988542FFF610
:10D4C00052AF0298F0BB2C4C2898E062279860631A
:10D4D0000998B0FBF5F0E0631C99681CB1FBF0F112
:10D4E000E165269A2263259AA263089AB2FBF5F2B7
:10D4F00022641B9AB2FBF0F02066084602F06AFE36
:10D500006064E16A606B0A1802EBD2725210081A6A
:10D510006265E064206E02F05DFEA064A16B206B8A
:10D52000421802EBD2725210401AA26520651A9975
:10D530002198B0FBF1F060660A992298B0FBF1F0F7
:10D54000E06600E00FE01A980844606717990C98AD
:10D55000B0FBF1F0A06616992098B0FBF1F02067BF
:10D5600017980844A0672F9804282DD003282BD0A3
:10D5700031980028309819E0500200205014002003
:10D58000A7010020A5010020CA550108A80100201C
:10D59000A6010020E8010020109500205C4701084A
:10D5A000A0010020CD0100200000024002D048B1BF
:10D5B0001D9801E020B11E98A0EB0B0004B204E01E
:10D5C0001F98F9E71898F7E70124029810B92F98E7
:10D5D000022802D02F9840B110E0002C0EDDC34885
:10D5E0000221017004F06EFB08E0002C06DA0798B7
:10D5F000B5EB900F01DD012400E00024BC48002CB5
:10D60000848101DD01218170B9484078A8B1B74813
:10D610000078022811D1B748B5494288CA81828969
:10D620000A82C28A4A82428C12B1B0F92A0001E011
:10D63000B0F924008882002048704FF49671002CC5
:10D6400076DD2498AB4AC0F5806000FB0BF000F556
:10D6500000704FEAE073128F00EB935004EBA020B0
:10D66000104407B20E984FF0000430F817204FF026
:10D670006400A2F5006202FB0AF200EB22320FFA0C
:10D6800082FB0B9A32F81720A2F5006202FB09F226
:10D6900000EB22320FFA82F80E9830F817104FF094
:10D6A0006400A1F5006101FB0AF100EB213109B230
:10D6B00013910B9931F8171007F10107A1F50061DB
:10D6C00001FB09F100EB213000B23FB2009091E084
:10D6D0001398C6F58061A0EB0B0000FB01F04FEA48
:10D6E000E07200EB92520BEBA22000B20390009884
:10D6F000A0EB080000FB01F04FEAE07100EB915154
:10D7000008EBA12000B2099078480078022816D0D2
:10D7100012980399204404F059FD10980999204467
:10D7200004F054FD7348B0F91400072859D200E002
:10D7300082E0DFE800F0272A71793D434A006D4816
:10D7400041886B48C089091A0398084401B21298AD
:10D75000204404F03BFD674881896548008A091A26
:10D760000998084401B21098204404F02FFD614844
:10D77000B0F91400072834D2DFE800F004070C14D5
:10D780001A2027000399069801E009990F98411A79
:10D790002D9820E056480399C289008A8A1A09996F
:10D7A00011443FE052480399C289008A511A3FE070
:10D7B00051482044017A4E48C0880CE04E4820442D
:10D7C00090F834114A48008905E04B48204490F80D
:10D7D000601247484089084401B21198204404F07F
:10D7E000F5FC2046641C24B2B0F5967F05DA249837
:10D7F000301A06B2002E3FF76BAF06F58066DDF8F3
:10D800004CB0DDF8008036B2B4F5967FFFF644AF39
:10D8100037490020087053E006990398411A099887
:10D8200001440F98091AB3E706990398091A0F984B
:10D83000091A09980144ABE742DA2F98012802D16E
:10D840002B480078E0B30024884634E012984FF06B
:10D85000FF372044394604F0B9FC1098394620447B
:10D8600004F0B4FC2348B0F91400042807D00528BC
:10D870000BD0062830D01198394620440FE01E48BE
:10D880002044017A1A48C08805E01B48204490F8DB
:10D89000341117480089084401B21198204404F05B
:10D8A00095FC2046641C24B2404504DA2498301AC2
:10D8B00006B2002ECADC06F5806636B24445F8DBB7
:10D8C000079885420FD10948007802280BD035B05F
:10D8D000BDE8F04FFBF736B80748204490F86012D7
:10D8E00003484089D7E735B0BDE8F08FCD0100206F
:10D8F00050020020E8010020109500202DE9FF4F84
:10D9000085B00520129F4C4CB7FBF0F520788B4674
:10D9100040F0040020704FF6FF7643F6E718994672
:10D92000924631464046FFF729F801200090FBB2AD
:10D9300009F0FF020AF0FF010BF0FF00FEF7B4FB55
:10D9400031464046FFF71AF8002253212846059B2E
:10D95000FFF78AF80B20FAF7A3FD014601A804F0AF
:10D9600051FC36A3002246210420FFF77DF801ABCD
:10D97000002246214020FFF777F833A300223B2105
:10D980000420FFF771F80120FAF78AFD0346002210
:10D990003B215820FFF768F82FA3002230210420F4
:10D9A000FFF762F80220FAF77BFD034600223021E0
:10D9B0004020FFF759F82BA3002225210420FFF770
:10D9C00053F80320FAF76CFD03460022252140207E
:10D9D000FFF74AF826A300221A210420FFF744F893
:10D9E0000820FAF75DFD034600221A214020FFF7C8
:10D9F0003BF822A300220F210420FFF735F8062070
:10DA0000FAF74EFD034600220F214020FFF72CF8C5
:10DA100004211DA300220846FFF726F81D4B002213
:10DA200004214020FFF720F861690020A1F842009E
:10DA300009B0BDE8F08F00008C01002044657669D4
:10DA40006365534E3A2000004861726477617265E5
:10DA50003A205665722000004D4355205479706578
:10DA60003A2000004C434420547970653A2000006D
:10DA7000555342204469736B3A20000044465520B8
:10DA8000547970653A2000004150502054797065F7
:10DA90003A2000001F0300202DE9F04100240A4D28
:10DAA0000F46804626462E7039464046FDF7F2F86E
:10DAB0002046641CE4B2062802D90120BDE8F081AA
:10DAC00028780028EFD1F9E7C601002070B5054697
:10DAD00012480C464269C1682088801E02FB001172
