:020000040800F2
:10400000E8340020D1BA000871BA000873BA000879
:1040100075BA000877BA000879BA000800000000F5
:104020000000000000000000000000007BBA000853
:104030007DBA0008000000007FBA000881BA0008BD
:1040400011BB000815BB000819BB00081DBB000808
:1040500021BB000825BB000829BB00082DBB0008B8
:1040600031BB000835BB000839BB00083DBB000868
:1040700041BB000845BB000849BB00084DBB000818
:1040800051BB000855BB000859BB00085DBB0008C8
:1040900083BA000865BB000869BB00086DBB000857
:1040A00071BB000875BB000879BB00087DBB000828
:1040B00087BA00088BBA000889BB00088DBB0008CE
:1040C00091BB000895BB000899BB00089DBB000888
:1040D000A1BB0008A5BB0008A9BB0008ADBB000838
:1040E000B1BB0008B5BB0008B9BB0008BDBB0008E8
:1040F000C1BB0008C5BB0008C9BB0008CDBB000898
:10410000D1BB0008D5BB0008D9BB0008DDBB000847
:10411000E1BB0008E5BB0008E9BB0008EDBB0008F7
:10412000F1BB0008F5BB0008F9BB0008FDBB0008A7
:10413000DFF8240B40697047DFF81C1B48617047AB
:10414000DFF8141B08707047DFF80C0B007870471D
:1041500038B901EBC100052190FBF1F000F5A0702A
:1041600006E001EB8100A0F5C860092190FBF1F0A9
:1041700000B2704710B5DFF8E44A00206060A0612B
:1041800001F0BDFE08B9082005E0042807DB012086
:1041900001F0AFFE0620BDE8104002F029B8012072
:1041A00002F026F8DFF87C0EC06A606110BD30B501
:1041B00083B004460D46062100A802F029FA2A46DB
:1041C0003FA100A802F038FA05F1090100A8DFF8C4
:1041D000882A12786AB9642D07DA0A2D03DA002DCD
:1041E00005D5002901D443210CE0432113E04321EC
:1041F0000EE0642D09DA0A2D03DA002D07D5002917
:1042000003D445218170202105E0452103E04521AB
:10421000417020218170C17000A9204601F0AFF9E2
:10422000DFF8380A1421016037BD70B582B0DFF8BD
:10423000F84D60780FF28C0120B9009110236022B4
:1042400000210BE0012802D16068009002E0022802
:1042500008D10091102360220021002002F052FAC0
:10426000606025E0032823D10025542616E01C2099
:104270000FF2F01100FB051060600E21F01D02F03E
:1042800068FA6068009010230E220021F0B202F05C
:1042900039FA6060F61F0A2002F0ECFB20788642B3
:1042A000E5DA0E3020706D1C062DDEDB002020705C
:1042B0006078401CC0B2042808BF0020607073BD45
:1042C0002564000000000000000000000000000065
:1042D00000000000000000000000000000000000DE
:1042E00000000000000000000000000000000000CE
:1042F0000000008898BFBF98880000000080808080
:10430000808080000000000000000000000000002D
:10431000000000000000000000000000000000009D
:1043200000000000002060606060606090909090ED
:10433000909090909090909090909090909090907D
:104340009090909090606060606060606070F888AD
:104350008482828383838383838282828283838332
:104360008383838282828282868484848484848418
:104370008484848484848484848482828282828209
:104380008282FE000000000000000000000000002B
:10439000000000000000000000000000000000001D
:1043A000000000000000000000000000000000000D
:1043B00000000090B0FEFEB0900000000080808001
:1043C000808080000000000000000000000000006D
:1043D00000000000000000000000000000000000DD
:1043E000000000000020606060606060909090902D
:1043F00090909090909090909090909090909090BD
:104400009090909090606060606060606070F888EC
:104410008482828383838383838282828283838371
:104420008383838282828282868484848484848457
:104430008484848484848484848482828282828248
:104440008282FE0000F0F00000F0F0F00000FCF8C6
:10445000F0E0C080000F0F00000F0F0F00003F1FA3
:104460000F07030100000000000000000000000032
:10447000000000000000000000000000000000003C
:104480000001FFFF01010101010181C67E380080AA
:10449000FFFF8181010101010000000000202020B8
:1044A000E0E0008040402060C04000808080FFFF4E
:1044B00081808080000000000000008040402020BB
:1044C00020404080000000003F7F44848484848436
:1044D000844727000000008040402020204040C04A
:1044E0000000000020C3828684848C8C8878300091
:1044F0000000008040402020204040C0000000001C
:1045000020C3828684848C8C887830000000000070
:104510000000008080C0602010180C86E0E0E0EC15
:10452000FCF2F3F1F0F8ECE4E4E2E3010000000057
:10453000000000000080C0402030180CC0C0C0D86F
:10454000F8E4E6E3E1F1D8C8C8C4C603FCFCFC000B
:10455000000000C03826250101010101010101020E
:104560007F7F7F0609090909090939484848483009
:1045700010080804FCFC00000000C03826250101DA
:1045800001010101010102027F7F060909090909F0
:104590000939484848483010080804040000000061
:1045A000000000008080C06030180C8600E0E0EC65
:1045B000F4F6F6FBF5E8E8E4E2E2E10000000000D2
:1045C00000000000000080C06030180C00C0C0D89F
:1045D000E8ECECF6EBD1D1C8C4C4C201FEFEFE800B
:1045E0004040605854020202020202843F3F3F00F2
:1045F000010101010107050506020100FEFE8040E0
:104600004060585402020202020284843F3F0001CB
:10461000010101010705050602010000F8B50C467D
:104620008578303DEDB20A2D38BF2A46C578303D39
:10463000EDB20A2D38BF2B4600783038C0B20A28B8
:1046400038BF01460026DFF8D45C18200FF2780747
:1046500000FB016C1CF807C006EB050E8EF860C06D
:1046600000FB026C1CF807C08EF890C000FB036CC6
:104670001CF807C08EF8A8C0761C182EE8DB10279F
:1046800044B902230C220821284600F0ABFD05F1B5
:10469000D80000E028460026009010230C220021BC
:1046A0000C2000F095F8761C082EF5DB7F1EE7D174
:1046B0004CB94FF47A7002F0DDF902F091F8BDE8E0
:1046C000F14001F088BDF1BD00E010080810E000E5
:1046D00000000000000F102020100F00000000005C
:1046E000001010F800000000000000000020203F33
:1046F00020200000000000000070080808887000FA
:1047000000000000003028242221300000000000BA
:104710000030088888483000000000000018202081
:1047200020110E00000000000000C02010F8000062
:104730000000000000070424243F240000000000C3
:1047400000F80888880808000000000000192120EF
:1047500020110E000000000000E010888818000002
:1047600000000000000F112020110E0000000000CA
:1047700000380808C8380800000000000000003FAA
:104780000000000000000000007088080888700029
:1047900000000000001C222121221C00000000005B
:1047A00000E010080810E0000000000000003122C6
:1047B00022110F00000000000000000000000000B7
:1047C0000000000000303000000000000000000089
:1047D0007043C0B201F096BF10B582B00FF2100066
:1047E000002400F0F5F9641C062CFAD313BD000078
:1047F000000000C0F038080404040408081C00008D
:104800000000000F1F306040404040203008000092
:10481000000000C0F0180C0404040C18F0C00000E4
:10482000000000071F306040404060301F0700005C
:1048300000000004FC1C38E0C0000004FC04000080
:10484000000000407F40000001071E387F0000008C
:1048500000000004FCFC84848484E4040C10000048
:10486000000000407F7F40000000030000000000C7
:104870000000000000040404FCFC04040400000028
:1048800000000000004040407F7F404040000000AA
:10489000000000C0F03808040404040C1C000000F0
:1048A000000000071F3860404042423E3E020200C6
:1048B0002DE9F04184B004468846062101A801F0A4
:1048C000A7FEE4A62246314601A801F0B5FEDFF8B6
:1048D0005C7701AD387828B9642CA8BF432008DA8A
:1048E000432004E0642CA8BF452002DA4520A870CC
:1048F0002020E87001A9012000F06AFEB878411C70
:10490000B9700FF2540100F0F3FD292001F0FAFE16
:10491000B878032804BF0020B870062101A801F070
:1049200077FE4246314601A801F086FE387828B964
:10493000642CA8BF432008DA432004E0642CA8BFFD
:10494000452002DA4520A8702020E87001A938200F
:1049500000F03EFEBDE8FF8100003060C080000036
:1049600000000000000000000000180C0603010019
:10497000000000000000000000003060C0803060D7
:10498000C0800000000000000000180C0603190C95
:10499000060301000000000000003060C0803060AD
:1049A000C0803060C08000000000180C0603190CA5
:1049B0000603190C060301000000183060C08000D7
:1049C000000000000000000000000C0603010000D1
:1049D00000000000000000000000183060C09830A7
:1049E00060C080000000000000000C0603010C06FF
:1049F00003010000000000000000183060C0983083
:104A000060C0983060C0800000000C0603010C06F6
:104A100003010C060301000010B582B0012808BF95
:104A20000FF22C0103D0022808BF0FF2E40100911D
:104A300000F03EFA012400F0CBF8641C062CFAD3F7
:104A40004FF47A7002F016F8BDE8134001F0C3BBD2
:104A5000E01864E282010101010182E26418E000D1
:104A6000030C1021274E5850584E2721100C0300DC
:104A7000F00C0201010101020F0000000000000023
:104A8000030C0810101010080600000000000000C1
:104A900000601010909090E0000000000000000006
:104AA000000E11111010081F101800000000000067
:104AB00000010101FF0000000000000000000000F4
:104AC000001010101F101010000000000000000067
:104AD00000000000000000000000000000000000D6
:104AE00080808080808080808080000000000000C6
:104AF00001077980008079070100000000000000B4
:104B0000000000071C07000000000000000000007B
:104B1000E018040212214181814122120418E000B0
:104B2000030C10202844424141422428100C030069
:104B3000F00C0201010101020F0000000000000062
:104B4000030C081010101008060000000000000000
:104B500000601010909090E0000000000000000045
:104B6000000E11111010081F1018000000000000A6
:104B700000010101FF000000000000000000000033
:104B8000001010101F1010100000000000000000A6
:104B90000000000000000000000000000000000015
:104BA0008080808080808080808000000000000005
:104BB00000010719E0B00D03010000000000000033
:104BC0000010181700011618100000000000000067
:104BD00000901023102200212001C0B201F092BDEC
:104BE00070B582B00FF2780501F086F9022808D07E
:104BF0000ED304280AD006D3052808BF0FF20C14E0
:104C000006E02C4604E00FF2901401E00FF21424A9
:104C100005F18C00009000F04BF9DFF8EC5B287890
:104C200080B90226142000FB06402838009010238B
:104C30000A2200210A20FFF7CBFD761C092EF1DBAA
:104C4000012004E05021102001F083FD0020287095
:104C500073BD0000256400002003002014300020F4
:104C600001FF00E11FE000FF010000011E01000143
:104C70001E010000006010109090E0000000000E87
:104C8000111110081F1800001010F04020101030F3
:104C9000000010101F1010000000000010F0201085
:104CA000101010E00000101F10000000101F100076
:104CB00000001013F30000000000000010101F108F
:104CC0001000000010F02010101010E00000101F65
:104CD00010000000101F100000E010101010F01065
:104CE0000000007D8A8A8A8A91700000000000809E
:104CF000E0F8FE0707FEF8E080000000101C1F1F10
:104D00001F1F1F12121F1F1F1F1F1C1001FF01005A
:104D1000000000000000101F1010101010180400F8
:104D200000C0201010101020C00000070810101044
:104D30001008070010F00010F01000F01000000341
:104D40001C0300031C030000002020202020202042
:104D50002000000000000000000000000107798032
:104D6000008079070100000000071C070000000018
:104D700000C0201010101020C000000708101010F4
:104D80001008070000001010FE10101000000000B6
:104D900000000F1010080000001C22214141418238
:104DA0000700001E081010101008070000C0A09097
:104DB000909090A0C0000007081010101008040088
:104DC00010F02010101010E00000101F1000000064
:104DD000101F100000202020202020202000000094
:104DE000000000000000000001FF21212121F90343
:104DF0000400101F1010101010180400001010F004
:104E00004020101030000010101F10100000000093
:104E1000001010F04020101030000010101F101073
:104E20000000000001FF4140404041FF0100101F11
:104E300010000000101F100000001013F30000000D
:104E40000000000010101F10100000000000E01013
:104E5000101010F0100000609D8A8A8A8A917000FC
:104E600001FF2010101010E00000101F10000000C3
:104E7000101F1000002020202020202020000000F3
:104E80000000000000000000010779800080790721
:104E90000100000000071C070000000000001010C7
:104EA000FE1010100000000000000F10100800009D
:104EB000102310220021084601F024BC38B50FF25F
:104EC000701451EA000213D100250CE0012D05D128
:104ED000009400F048F801F015FC04466D1C022D0A
:104EE0003FDA002DF2D1009400F005FB0846F2E70E
:104EF000C8B1002935D101280AD104F12000009061
:104F000010231022502001F0FDFB04F1400015E0B9
:104F1000022826D1009410231022002001F0F2FB79
:104F200004F1600019E0E1B101290DD104F1200084
:104F300000F018F801F0E6FB04F180000090102367
:104F40001A46002108460AE002290AD1009400F01E
:104F5000D2FA01F0D7FB04F1A00000F003F801F051
:104F6000D1FB31BD0090102310220021502070474A
:104F700070B582B0044650250E01F6B20EE0102145
:104F800005F1100001F0E5FB009400F0B4FAE8B27E
:104F900001F0B8FB103D192001F06CFDB542EEDACE
:104FA00073BD2DE9F0411F48B0F91A80DFF8140BEA
:104FB0000078012803D1414600F053FB80460FF2F0
:104FC000700400212046FFF7D3FF4FF47A7798FB57
:104FD000F7F6F6B20FF62435012105EB4610FFF780
:104FE000C7FF07FB1688642798FBF7F6F6B2022185
:104FF00005EB4610FFF7BCFF032107FB16800A22D2
:1050000090FBF2F0C0B205EB4010FFF7B1FF0421B6
:1050100005F5D070FFF7ACFF052104F12000BDE8D5
:10502000F041A5E760020020B430002020030020FA
:10503000808040402020101008080404FE0000007A
:105040000000010102020404080810103F000000E3
:105050000000FE040408081010202040408080005A
:1050600000003F10100808040402020101000000C3
:10507000008080C0C06060303018180C0CFE00004A
:10508000000101030306060C0C181830307F0000E5
:105090000000FE0C0C181830306060C0C08080002A
:1050A00000007F303018180C0C06060303010100C5
:1050B0008080C0C0E0E0F0F0F8F8FCFCFE000000EA
:1050C00000000101030307070F0F1F1F3F0000002F
:1050D0000000FEFCFCF8F8F0F0E0E0C0C0808000CA
:1050E00000003F1F1F0F0F0707030301010000000F
:1050F0002DE9F0411318DFF82482DFF8D0198D78FC
:105100005DB90125CD7000250D7108254D71002573
:105110000D704D7001258D7028E0CD7825BB0E797E
:105120004F7906EB000EAE449EF833E005EB080421
:1051300084F8D8E002EB050EC644F4182C1994F854
:1051400033408EF8D8406D1CEDB2AF42E9D27D1CE1
:105150004D71761E0E71EDB20B2D05D10A204871EE
:1051600000200871012025E00D7925BB0125CE78AE
:105170004F7911E006EB050EC6442C1894F8334025
:105180008EF8D84006EB020EAE44C644EC1894F8F4
:1051900033408EF8D8406D1CEDB2BD42EAD3781E84
:1051A0004871721CCA70C0B228B901204871092028
:1051B00008710020C870BDE8F08110B50021002200
:1051C0000123934003405400042AB9BFC4F10704EB
:1051D000A340E41FE3405918C9B2521C082AEFDB70
:1051E000084610BD2DE9F44F82B082465FEA0308FD
:1051F000DFF8D8580AD1287828B9002600270120DE
:1052000028706E700CE0AE686F6910E0B8F1010FA5
:105210000BD1687830B9002600272870012068700B
:10522000AE7004E0EE68AF6901E02E69EF6900241A
:105230009DF80800484340000090DFF8E09008E047
:1052400014F80A00FFF7B9FF04EB090181F8D80050
:10525000641C00988442F3D300229DF80800DFF814
:10526000701803E09DF8083002EB4302009B9A425D
:105270002FD200240AE021F81EA031F81EE04FEAE8
:105280001E2A83F8D8A08CF8D8E0641C8442E9D2A6
:105290001318E31803EB090C02EB040E0EEB0903E1
:1052A00093F8D8A09CF8D8B04BEA0A2A21F81EA09F
:1052B000B8F1010F06D1002E14BF2AFA06FA0AFA35
:1052C00007FAD8E7002F0CBF0AFA06FA2AFA07FAFB
:1052D000D1E7002408E004EB090A9AF8D800FFF7A8
:1052E0006CFF8AF8D800641C00988442F3D31FB97D
:1052F000102E08D1002610277F1EB8F1000F04D110
:10530000AE606F6108E0761CF7E7B8F1010F07BFE8
:10531000EE60AF612E61EF61BDE8F78F0000002005
:105320002DE9FD4E81B08946DFF8A807B0F91A10C3
:10533000DFF890572878012802D100F092F9014651
:105340000A2091FBF0F109B2642291FBF2F6F6B269
:1053500002FB161393FBF0FA5FFA8AFA02FB1611AE
:1053600000FB1A10C0B200906878012803D1E861F0
:105370000020286206E0022805D10020E861102004
:105380002862002068700020A8610FF2707405E0A8
:10539000FFF713FF8BF83801781CA861AF69DFF8BD
:1053A00038B7B7EB490F1FDABB4404EB4610385C43
:1053B000FFF703FF8BF8D80004EB4A10385CFFF7C7
:1053C000FCFE8BF8F800009804EB4010385CFFF707
:1053D000F4FE8BF818013819297801290CBF90F8D0
:1053E000E00190F8A001D3E79DF80400C0F10300AC
:1053F00009FB00F04300E869296ADFF8D42601E0E0
:1054000003EB4903062606FB09F6B3422BDA002616
:1054100009E022F81E4032F81E703C0A8AF8D84093
:105420008CF8D870761C4E45EADA03EB090AB244D0
:105430000AEB0B0C03EB060E0EEB0B0A9AF8D840A6
:105440009CF8D87047EA042422F81E409DF80870A2
:1054500027B9002914BFCC408440DAE700280CBFEC
:105460008C40C440D5E700201AE006EB0B0494F80A
:10547000D800FFF7A2FE84F8D80094F8F800FFF7F0
:105480009CFE84F8F80094F81801FFF796FE84F863
:10549000180194F83801FFF790FE84F83801701C69
:1054A000A861AE69B6EB490FDFDB0BF1D800012133
:1054B000A96100F01FF8A8690007000E01F022F9A9
:1054C000A969491CA9610529F3DBE869296A50EA41
:1054D000010202D019B9102804D1002005E0481EAD
:1054E000286201E0401CE861012004B0BDE8F08EB4
:1054F00001EB401000901023102200217047F8B5F6
:1055000004460D46DFF8D4651421304601F080F8DA
:105510000FF6200724B900230A220121384606E0AD
:10552000012C07D101230A22012107F12000FFF7F6
:1055300059FE06E0022C04D10A2201213846FFF769
:10554000D7FD009610230A220021562001F0DAF838
:105550000FF2C87400F048FE042803D104F10C00D7
:10556000009005E0002D06BF07F1140000900094A4
:10557000102306220021502001F0C4F8F1BD38B5F7
:105580000C46451EEDB2082D0BD3002509E0363838
:10559000C0B20FF26851FFF7ABFF2801FFF719F90E
:1055A0006D1C207898B114F8010B202808BF0A2040
:1055B000EFD02D2808BF0C20EBD0A0F130010A2934
:1055C00038BF3038E4D3A0F141010629DFD331BD23
:1055D000F8B504460D4600260FF600070DE014212D
:1055E00001FB0070009010230A220021F6B20A206D
:1055F00000FB0640FFF7EDF8761C287888B115F817
:10560000010B432808BF0B20E9D0452808BF0C2018
:10561000E5D0A0F130010A293ABF3038C0B20A20E3
:10562000DDE7F1BD38B50446DFF8A804B0F9205035
:10563000B0F91A10DFF88C04007801280BD100F0C3
:1056400010F8002C0CBF2918411B09B20120BDE83D
:105650003440FEF77DBD0CB9681832BD481B32BD21
:1056600029460020FEF774BD70B504460D46DFF8EC
:105670006404B0F91A00DFF84C140978012902D14A
:105680000146FFF7EEFF4FF47A7190FBF1F26423CD
:1056900090FBF3F6B6B24DB9201890FBF3F390FBF4
:1056A000F1F080B292B2904209D10AE0001B90FB67
:1056B000F3F390FBF1F080B292B2904201D003205C
:1056C00070BD9BB2B34201D0022070BD012070BDFD
:1056D000F8B5DFF8F043DFF8FC53B5F920000A28ED
:1056E00004BF0120A081DFF8F863F068002800F013
:1056F0008980606938B10020606100F0FAFB01F038
:105700006FF8FFF74EFC00F0EEFB40282DD0B0F50F
:10571000807F58D16089B5F91A1088421EDA0120BD
:1057200060700121288CFFF79FFF074600F06EF89C
:105730000028FBD10120FFF775FF68836089B5F968
:105740001A108142B8BF68830220607000F05EF8D2
:105750000028FBD100210120FFF7B0FBB5F91A00AA
:10576000618988422FD101212AE0B5F91A002189E7
:1057700088421FDA012060700021288CFFF774FF37
:105780000746002200F043F80028FAD1FFF74AFF4D
:1057900068832089B5F91A108842B8BF688302204F
:1057A0006070002200F033F80028FAD100210220B6
:1057B000FFF784FBB5F91A002189884203D1022141
:1057C0000020FFF77BFB40F2051700F08CFB80B157
:1057D000A08940B1F168B94205D3322141430A3171
:1057E0002984401CA0814FF49670F060002000F0E6
:1057F0007DFBA08930B1F068B84203D20A2028842A
:105800000120A081F1BD0000E43000200122102120
:10581000384685E52DE9F0474FF00A09B04EA94C0E
:10582000AC4F00F0E1FC401E072867D8DFE810F01D
:105830000800C3004200F5008F0092004701E50018
:105840006069012801D100F055F9207940B900F0D4
:10585000DEFF00213846FEF7E1FE0120207105E061
:10586000B06918B9FEF7E1FC3220B061706978B90F
:10587000608A401C608280B2322805D1208A411E95
:105880002182C0B200F0F2FE208A08B900F002FFC7
:1058900001F01AFB012803D000F025FB00282DD0D1
:1058A000F86A70613320208200F0E0FEBDE8F04726
:1058B00000F0EABE606928B90120606100F019FBC0
:1058C00000F08EFF00F098FC8046E078B8F1010F00
:1058D00006D008B100F084FF0020E081E07023E0F2
:1058E000E1894B2908BF002804D100F079FF01208D
:1058F000E07000E0C0B1B06908B13068DFE000F0EE
:105900007FFC0546B7F91AA02078012806D1FFF7D9
:10591000A7FE05465146FFF7A4FE8246514628469B
:10592000FEF7C6FF3220B0613068002804BFE0787F
:105930000028E3D100F064FC0546B7F91A00A8423C
:10594000B4BF291A411B122900DA0546A6E0BDE8BA
:10595000F047BDE66069012801D100F0CBF800F006
:10596000C2FA48F24001401A07D0C03802D040388D
:1059700006D007E0012060710BE0022060710DE0AD
:10598000607101E0607910B9FEF726FF0AE0012896
:1059900002D100F03CFF05E0022803D10121384686
:1059A000FEF73CFE6079032804D0002000F09EFA48
:1059B0000320607183E0606910B9012000F09BF85A
:1059C000484F387828B1FFF727F80020387000F0EA
:1059D00007FFB069002872D100F087FB05462078E8
:1059E000012802D1FFF73CFE054600F07DF836A104
:1059F0000620FFF7C4FD14200DE0606910B90120F6
:105A000000F079F86069012804BFB069002856D118
:105A1000FFF7E6F83220B06151E000F0F1FB0546F7
:105A2000B7F91800A842B4BF291A411B1329B8BFFF
:105A3000054600F0E1FB8046E078B8F1010F06D0A2
:105A400008B100F0CDFE0020E081E07020E0E189A7
:105A5000322908BF002804D100F0C2FE0120E07006
:105A600000E0A8B1B06900287FF447AFB7F918A0EB
:105A70002078012806D1FFF7F3FD05465146FFF7D0
:105A8000F0FD824651462846FEF712FF3220B061F3
:105A90003068002804BFE078002810D12078012861
:105AA00002D1FFF7DDFD054600F01EF801F00CFA0B
:105AB00001464046FFF723FDE089401CE081BDE838
:105AC000F08700002003002046000000680300204B
:105AD000982E00206002002000000020D800002046
:105AE000143000202004002095FBF9F109B20120B8
:105AF000FEF75DBB0020606100F072BE000000F8A0
:105B0000FE0301010103FEFCF00000000000003F65
:105B10007FE0808080C07F3F070000000000000819
:105B2000040406FFFF000000000000000000000069
:105B3000808080FFFF808080000000000000000661
:105B40000701010181C37F3E00000000000000E06A
:105B5000F0D8CCC6C3C0C0E00000000000000006C2
:105B600007818181C1633F1E00000000000000E04A
:105B7000C080808181C37F3E0000000000000000E3
:105B8000C060380CFFFF00000000000000000607A6
:105B900005040484FFFFC48406000000000000FF29
:105BA000FF8383838383830300000000000000E001
:105BB000C080808080C17F3F08000000000000E0BE
:105BC000F89C8EC2C3C18181000000000000003F2C
:105BD0007FC080808080C17F3F0000000000000FF8
:105BE0000303030383E33B0F0300000000000000F6
:105BF00080E0781E07010000000000000000187E11
:105C00007EC381818181677E3C00000000001C7E94
:105C1000FFC180808081E37F3C000000000078FEAF
:105C2000C603010101039EFCF0000000000000011A
:105C3000018383C361713F0F010000000000000079
:105C40000000000000000000000000000000000054
:105C50000000000000000000000000000000000044
:105C600000000000F0000000000000000000010142
:105C7000010101011F0101010101010000000000FB
:105C80000000000000000000000000000001010111
:105C90000101010101010101010101000E11110EBB
:105CA000E0F80C060301010101021E0000000000E3
:105CB0000F3F70C080808080804020000000000086
:105CC0000000C0C0C0C000000000000000000000D4
:105CD00000003030303000000000000008142214B2
:105CE000080202FE06020202C202061E00000000B6
:105CF000008080FF8181010103000000C0300804A2
:105D00000402FAAAFA0204040830C000071820406E
:105D100058A4DBDEDBA458402018070000F0FEFF8B
:105D2000F000007F7F7F7F00FF0FE1E00FFFFF802B
:105D3000BFBF80FF10188CC66363C68C1810426307
:105D400031180C0C1831634200F01E1FF00000FFE8
:105D50008080FF0042C68C183030188CC64208186C
:105D60003163C6C6633118088C8CC6C68C8CC6C617
:105D70008C8C31311818313118183131008C8C8CE1
:105D80008C8C8C8C8C8C8C8C8C8C8C00003131317C
:105D900031313131313131313131310080C0603018
:105DA00098CC66333366CC983060C08088CC66333C
:105DB000190C060303060C193366CC88113366CC24
:105DC000983060C0C0603098CC6633110103060C77
:105DD000193366CCCC6633190C06030100E01804B5
:105DE00004040418E000000F3040404040300F0031
:105DF00000000808FC0000000000000040407F4058
:105E0000400000000078040404040488700000606E
:105E10005048444241407000003804048484C83033
:105E2000000000384040404040211E0000008060DB
:105E30001008FE0000000007040444447F444400AE
:105E40000000FC0484848404040000384141404084
:105E500040211E0000C03088848484041800000F94
:105E60003140404040211E00001C04048444340C96
:105E700004000000007E01000000000000708804A3
:105E8000040404887000001C2241414141221C008E
:105E900000F0080404040418E000003041424242CB
:105EA00022190700000000000000000000000000B0
:105EB00000000000000000001C1CC03008040404A6
:105EC0000830000007182040404020101C120C022F
:105ED00002FE8282E20200000000407F40000300D8
:105EE000AA4800787047AA4840687047A8494860A7
:105EF0007047A74908707047A4484078704770B54C
:105F0000044600250A26A34801F030F94519761EFB
:105F1000F9D10A20B5FBF0F19C4AB1F5736F03D3B8
:105F200004205070002070BD48439021B0FBF1F177
:105F300000200FF2AC2333F81050A942D56808D2E4
:105F4000401C042805D20228F5D1002CF3D0A94228
:105F5000F6D3401C70BD00208F490A68D2439205D9
:105F600048BF4FF480700968C943490648BF40F0F4
:105F7000400090B186490A78012A04BFCA6882426B
:105F800007D18A68521C8A60162A06D340F4004062
:105F900002E000228A60C8604860704770B57F499F
:105FA0004A68D3089CB2C5000E781EB94D60012026
:105FB000087009E0844234BF041B241AA4B23D2CAB
:105FC0003CBF8018C51A4D60E80870BD38B5002088
:105FD00000F043FD724810210160192000F04EFDD1
:105FE000704D0A2021E0002000F032FD6968411860
:105FF000AA68824238BF0246AA60EA68904288BF17
:106000001046E860288801280CD1A868081AE968B9
:10601000401AC008FFF7C2FF0446002141F2883051
:10602000E860A96069602888401E288028880028C8
:10603000D9D1204632BD5C490A7822B9C0004860F7
:1060400001220A7007E04A688018931002EB53722D
:10605000A0EBE2004860811000EB5170C010704767
:1060600038B500254F4C0A2026E0012000F0F0FC56
:10607000216941186269824238BF02466261A269A1
:10608000904288BF1046A0612088012811D1606924
:10609000081AA169401AC008FFF7CDFF40F6E44195
:1060A0004843000BA0F5FA75002141F28830A06149
:1060B000616121612088401E208020880028D4D181
:1060C000284632BD10B5FFF781FF0446FFF7C8FF31
:1060D0002E49B4F5C87F05D2B0F5967F02DA8C6000
:1060E000012000E00220087010BD70B50446FFF7E3
:1060F0006DFF0546FFF7B4FF24494A8840F6FF7359
:106100009D4202D18B885B1C07E00023A5F6D9666F
:10611000B6F5937F34BF521C00224A808B808A8858
:106120004B883C2A02D353B9032207E01AB90A2B41
:1061300028BF022202D20A2B01D201224A70A4F502
:106140007A7296235A4340F6B83392FBF3F25032F8
:106150008968B4F57A7F08BF0A3A00D01CB18B1861
:10616000AB42B8BFAD1AB0F5C87FC8BF4FF4C87016
:1061700040F22632691A4FF47A73504303FB010050
:1061800090FBF2F000B270BD00000000200400207F
:10619000703000200028014008080140A430002091
:1061A000140C014088030020AC30002010B50446D8
:1061B00045F2555000F0E8FF032000F0E8FF0A2008
:1061C00060434003000C00F0E5FF00F0E6FF00F044
:1061D000E9FF012010BD80B500F0DFFF012002BD06
:1061E0002C0196005A002800DFF8B00300787047B1
:1061F000DFF8A81308707047DFF8A003808E70479F
:10620000DFF89803B0F93600704710B5DFF88C431B
:1062100030220FF2CC31201D00F0D0FFB4F9200065
:1062200041F29B018842A4BF41F29A00208410BD34
:10623000DFF86C03002101604160416181600F2142
:1062400081810221C18101210182704730B5002284
:10625000D349488003468C5EE01A88804D6900B2BD
:10626000B0F5FA7FBCBF012245199C4205DA1B1B21
:106270001BB2152BA4BF002500224D611F28B4BFFF
:10628000002301238C89CD896A434D696A4300FB51
:1062900004220C8AB1F90650451B6C4303FB04220F
:1062A000C880012AB8BF002205DB41F2717082422A
:1062B000A8BF41F270728A6090B230BDB84A1180B6
:1062C000884204DA091A122904DB002105E0411A88
:1062D000132901DA022100E00121B04A9186B5E7D5
:1062E00070B5B04CAD4D287801280ED0022800F0D2
:1062F000F380032849D0042800F09880052800F096
:10630000E380082800F0178170BDFFF7ECFD4028FE
:1063100011D0B0F5807F18D16878012817D000F02F
:1063200052F9042811DA0320287000202887206001
:10633000A061606109E06878012808D00220287017
:106340000020A0610120FFF7D4FD687820B1E0694A
:1063500010B96870FFF7CAFD00F035F940B9FDF7D4
:10636000E7FE012804BF0020FDF7E6FE08202870A4
:10637000A878042818BF012806D0286B6061002087
:10638000FFF7B4FD0120A87070BDFFF7ACFD48F227
:106390004001401A04D0C03802D040380AD00FE083
:1063A00000F00BF905202870002060604FF4FA70AF
:1063B000E06005E000F051FB00F002F900F006F9A2
:1063C00000F001F9042805DB00F0F7F800F0F8F818
:1063D00000F0FCF8B5F91E60606848B93046FFF778
:1063E00084FE00F0E5F800B200F037FB1E2060608C
:1063F00000F037FB00B9606000F066FD98B9288FA7
:1064000018B901202887E86AA060A06800284DD14B
:10641000A886A06100F021FB0020FFF767FD286B34
:106420006061042041E0002028873FE0B5F91C604E
:10643000B5F91E10B142B8BF0E46606848B9304683
:10644000FFF753FE00F0B4F800B200F006FB1E2088
:10645000606000F0B8F804280DDB00F0AEF800F042
:10646000AFF801202870286B60610420A87001201B
:1064700068703220E061606958B900F0EEFA00F00F
:106480009FF801206870C820E0610420A8700120F6
:10649000287000F019FD012802D0FFF724FD28B173
:1064A0000020A0616061288703202870FFF724FD89
:1064B000022872D3FDF73CFE012804BF0020FDF73F
:1064C0003BFE0820287070BDE068002865D10320DD
:1064D00028700020206070BDE06920B10020BDE878
:1064E0007040FFF703BDFFF7FEFC48F24001401A81
:1064F00012D0C03810D040380BD1FFF7E3FDFFF7C2
:10650000EFFC012803D101F020F801F071F8C82058
:10651000E061E878002840D00020E87000F09DFAA3
:10652000012028700220A8700120687000F048F84F
:106530003220E06170BDFFF7DFFC801E012803D927
:10654000801E01280FD921E0B5F91E00FFF7CDFD0F
:10655000E886FFF7D1FC012818D10320287000201D
:10656000FDF7EAFD12E000F02EF801280EDB00F046
:106570002AF804280ADA00F020F800F021F80120B7
:1065800068700220A061A87001202870064820B120
:1065900000F013F805481021016070BD5C02002076
:1065A0003430002014300020636A0008140C0140CD
:1065B000E8863146B5F9360080E6002000F04DBA95
:1065C0000020FFF796BC0120FFF799BC012028703E
:1065D0000320A870012068703220E061704700003D
:1065E000322E3131000000000000000000000000E9
:1065F0003200000000000000D007B80B9A10E8033A
:1066000064000100190000007017000070170000FE
:10661000002201F0B1BD50F8041B61B150F8042B09
:10662000D30744BFA9F101039A18002342F8043BA1
:10663000091FFAD1EFE770470CB41CB5044604A853
:106640000190009401AB0A4600A90748784418302D
:1066500001F0ACFD009900220A7000285CBF009890
:10666000001B16BC5DF80CFBCB0B000080B500A92D
:106670000FF2F42213680B608DF803003C22042112
:1066800000A802F0E7FC01BD00B583B000A80FF23E
:10669000DC2104E000B583B000A80FF2D8210CC9BA
:1066A0000CC03C22062100A802F0D4FC07BD10B5A6
:1066B000A0B00C4640218DF80010411CC9B2012049
:1066C00000AA03E014F8013B8354401C8842F9DB24
:1066D0003C2200A802F0BEFC204620B010BD30B520
:1066E00083B000AA0FF2942330CB30C220308DF853
:1066F000050000A84278891841703C22082102F068
:10670000A9FC37BD2DE9F041044690465818C0B2A7
:10671000CE080722114218BF761C811000EB517180
:10672000CA10B0EBC2011ABF501CC5B2D5B2069F49
:1067300009E031462046FFF7D2FF39464046FFF7D1
:10674000B6FF0746761CF6B2AE42F2DB3846BDE82D
:10675000F08130B5A1B004460D4601A8FFF758FFFF
:1067600000F051F82A460021E0B2FFF7CBFF00F01D
:106770004AF82A460821E0B2FFF7C4FF21B030BD35
:1067800080B54FF48070ADF8000003208DF8020052
:1067900010208DF8030000A90E4802F097FC01BDFF
:1067A00010B50D4C4FF48071204602F0F6FC02202B
:1067B00000F060F94FF48071204602F0ECFC0220FA
:1067C00000F058F93C222E210448BDE8104002F0A8
:1067D00041BC0000000C014000080140980200206C
:1067E00000B5A1B0802101A8FFF712FF00F00BF85F
:1067F000802200F0B5F800F006F88022194600F07B
:10680000B0F821B000BD01A80090082370472DE921
:10681000F041A2B00125002201A90FF2681000F09A
:10682000B4FE040000F07F802078422804BF607826
:106830004D2840F0878094F83600FF2804BF94F874
:106840003700FF2804D194F83800FF2808BF00253E
:1068500000F081F801260F27002000210C2202FB06
:106860000712121992F83E2080234FF0080C03EA19
:10687000020E1DB1BEF1000F0CD102E0BEF1000FFF
:1068800008D00DF1080E86449EF8018046EA0808FB
:106890008EF8018000F059F8E9D1491C0C29DDD3AC
:1068A0007606360E7F1E082FD6DA02A8009008233F
:1068B000602200F055F8FFF78EFC00F04CF801263E
:1068C0000027002000216FF00B0202FB07121219B3
:1068D00092F8922080234FF0080C03EA020E1DB1BB
:1068E000BEF1000F0CD102E0BEF1000F08D00DF197
:1068F000080E86449EF8018046EA08088EF801805A
:1069000000F023F8E9D1491C0C29DCD37606360EB9
:106910007F1C082FD5DB02A80090082360220821E5
:1069200000F01FF808E00FF26800009010236022CA
:1069300000210020FFF7E6FE4FF47A7000F09AF88D
:10694000FFF749FC22B0BDE8F081401CC0B25B08F3
:10695000BCF1010C70477F210DF1090002F04ABC27
:1069600000210020CEE6000080818000808D801410
:1069700080AF0000808D801080AE000080B080214C
:106980008020807F4C4F474F494E2020424D500081
:1069900000000000000000000000000000000000F7
:1069A000000000000000000080C0E0F0F8FCFEFEE7
:1069B000FCF8F0E0C080C0E0F0F8FCFEFEFEFC78E1
:1069C0003080C0C000189CCEE6F0F8FCFEFEFCF85B
:1069D000F0E0C0E0F0F87C000000000000000000E3
:1069E00000000000000000000000000000000000A7
:1069F0000000000000000000000000000000000097
:106A0000000000000000001F0F07030103070F1F15
:106A10003F7F7F3F1F0F07030103070703191C0E6A
:106A20006773391C0E07030103070F1F3F7F7F3F6A
:106A30001F0F07030100000000000000000000001D
:106A40000000000000000000000000000000000046
:106A5000DFF8281431F810007047DFF82414C860FC
:106A60007047DFF81C04C06870472021DFF8140469
:106A700002F0C0BBDFF80814142202E0DFF80014B3
:106A80000A225043886088680028FCD17047DFF8EC
:106A9000F8134FF400620A614FF480520A61002833
:106AA00008680AD120F4404040F44050086008686B
:106AB00020F4402040F4403009E020F4804040F4CD
:106AC00030400860086820F4802040F430200860DE
:106AD000704780B502F092FB102002F053FC0120B9
:106AE00002F04AFCDFF8A4034168DFF8A423114355
:106AF0004160016841F080710160012002F097FB64
:106B0000012002F097FB392002F005FC0028FAD0A2
:106B1000022002F092FB02F097FB0828FBD1012132
:106B2000172002F0D4FB012140F20C6002F0D8FBE8
:106B30000121032002F0DDFB0120BDE8024002F04C
:106B400088BB80B501464FF0006002F0CEFC4FF4E8
:106B5000A06002F099FC14208DF8000002208DF84E
:106B6000010000208DF8020001208DF8030000A82C
:106B700002F08FFC01BD38B5C64C4FF6FF70E060E7
:106B8000C5492160C5496160C54DE860C5482860B8
:106B90004FF0883068608020ADF80000002000F0E1
:106BA0001FF84FF4807000F021F80121BE4802F078
:106BB000F6FA102000F01AF80120ADF800000020CD
:106BC00000F01AF80220ADF80000002000F014F8E0
:106BD0004FF41070ADF80000482000F001F831BD0E
:106BE0008DF8030000A9204602F070BAADF800004D
:106BF00003208DF8020010208DF8030000A928461C
:106C000002F064BA2DE9F04190B04FF420442546DB
:106C1000A64E304602F07EFCA548059097480690A7
:106C200000200790022008900020099080200A9000
:106C30004FF480700B904FF480600C9020200D90EA
:106C40004FF400500E9000200F9005A9304602F03E
:106C5000AEFC0121304602F0C5FC964E304600F0F5
:106C6000D9F900F05FF84FF46027029700200390F5
:106C700002208DF8100000A9304600F0F4F9DFF88A
:106C80003882404600F0C6F900F04CF80297002028
:106C9000039001208DF8100000A9404600F0E3F9B0
:106CA000072302220721304600F021FA07230122A0
:106CB0000821304600F01BFA052301220921404635
:106CC00000F015FA0121304600F0F4F901213046B8
:106CD00000F0E7F90121404600F0E3F9304600F00A
:106CE000F2F9304600F0F4F920B12846451E00289C
:106CF000F7D114E0404600F0E6F92546404600F0A2
:106D0000E7F920B12846451E0028F7D107E0012108
:106D1000304600F0E3F90121404600F0DFF910B001
:106D2000BDE8F0810020009001208DF804008DF86E
:106D30000500704700B585B04FF4E06002F0A4FB99
:106D40002F20ADF8040042F20F70ADF808000020CB
:106D5000ADF80A00ADF8060001A94FF0804002F03E
:106D600067FC00F061F802F0B9FC012200F05CF869
:106D700002F0ACFC00F058F802F09EFC1C2000F081
:106D80002AF805B000BD1FB54FF4E06002F07CFBAF
:106D90002F20ADF804003120ADF808004FF48070CA
:106DA000ADF80A000020ADF80600444C01A92046C9
:106DB00002F03EFC0121204602F090FC012201215C
:106DC000204602F083FC0121204602F075FC1D20C4
:106DD00000F001F81FBD8DF8000000208DF80100C3
:106DE00001208DF802008DF8030000A802F051BBCD
:106DF00080B500F019F802F07BFC0020304901EB6F
:106E00008002536813B153685B1E5360401C08280E
:106E1000F5DB0878401C08700321084204BFBDE878
:106E20000140FFF798B801BD01214FF08040704745
:106E300080B50121214802F05BFC1148416811B185
:106E40004168491E4160816811B18168491E8160B5
:106E5000C16802781B4B49B1C168491EC160002A54
:106E600019BF1021596010211960D243C16811B9AE
:106E7000102159600022027001BD0000CC300020BA
:106E8000603000201430002004080140001002404F
:106E90000A846800000801408888880883B8BB8B92
:106EA000000C0140008883440001300008000240CB
:106EB0004C2401400024014000280140000400400F
:106EC00010300020100C01405048C089704700B5B8
:106ED00085B08DF800008DF801101D22022100A858
:106EE00002F0B8F80DE000B585B08DF8000003465B
:106EF0001D22012100A802F0C2F844489DF80010AC
:106F00000173012005B000BD80B500212A20FFF7E4
:106F1000DEFF02210E20FFF7DAFF03212A20FFF710
:106F2000D6FF00212B20FFF7D2FF01212A20BDE848
:106F30000440CCE770B51C460023002500F1100684
:106F40009642A6BFA0F11006B242012301F110063D
:106F5000A642A6BFA1F11006B442012300F13006FB
:106F60009642A6BF30388242012501F13000A0428E
:106F7000A6BFA1F1300084420125254805801846AE
:106F800070BD22480178407802E0204801794079BC
:106F900040EA01200009802903D3C043401C0005BA
:106FA000000D704730B583B0184C06212046FFF71E
:106FB0002FFB0020FFF797FFE8B1207B00071AD5D1
:106FC0000120FFF790FFB0B1207B8DF8000020700A
:106FD00000A8417861709DF8021021719DF803109E
:106FE00061710179217240796072FFF7CAFF05462D
:106FF000FFF7CBFF00E0258A00232A460021208AE4
:10700000FFF798FFE081258237BD00004C3000205B
:107010005E30002080B55749884208D101214FF4E5
:10702000007002F06FF900214FF4007016E0524931
:10703000884208D101214FF4806002F063F90021F9
:107040004FF480600AE04D4988420BD101214FF492
:10705000004002F057F900214FF40040BDE8044021
:1070600002F050B901BD4268454B1A400B681A4303
:107070000B7942EA032242608268424B1A40CB6895
:107080001A438B681A434B7942EA43028260C26A10
:1070900022F47002097C491EC9B242EA0151C16260
:1070A00070470029816812BF41F001014908490079
:1070B000816070470029816814BF41F4807121F418
:1070C000807181607047816841F00801816070477C
:1070D0008068C008FFE700F0010070470029816860
:1070E00014BF41F4A00121F4A0018160704770B584
:1070F00007240A290BD3A1F10A0505EB4505C6684B
:10710000AC4026EA0404AB402343C36008E001EB33
:1071100041050669AC4026EA0404AB402343036101
:107120001F23072A0AD2521E02EB8202446B9340AD
:1071300024EA030391401943416370BD0D2A0AD22A
:10714000D21F02EB8202046B934024EA03039140B6
:107150001943016370BD0D3A02EB8202C46A934089
:1071600024EA030391401943C16270BDC06C80B230
:10717000704700000024014000280140003C01400D
:10718000FFFEF0FFFDF7F1FF09490860704709496C
:107190000860704708490860704705484AF6AA2108
:1071A0000160704702484CF6CC4101607047000016
:1071B00000300040043000400830004062B38B07CC
:1071C00008D0521E11F8013B00F8013B00F024806A
:1071D0008B07F6D1830740F0208000BF103A07D319
:1071E00030B4B1E83810103AA0E83810F9D230BC09
:1071F000530724BFB1E80810A0E8081044BF51F8B5
:10720000043B40F8043BD20724BF31F8022B20F89E
:10721000022B44BF0B7803707047083A07D3B1E8DC
:107220000810083A40F8043B40F804CBF7D2530763
:10723000E4E70268531C0360117070477047000058
:10724000F8B56424DFF8602C0A23072911D8DFE899
:1072500001F004111E537B8BC0C7017845785D4354
:1072600004FB01518078401841F2D041401A584344
:107270001083F1BD017845785D4304FB01518078AE
:10728000401841F2D041401A58435083F1BDC178B3
:1072900046788578A1F1300C5FFA8CFCBCF10A0FBE
:1072A0000CD200784FF47A77664307FB006003FB4B
:1072B0000500081800F53C57B03718E0A5F130017B
:1072C000C9B20A2909D2007803FB06F104FB0010B9
:1072D000281841F2D041471A09E0A6F13001C9B29D
:1072E0000A2904D2007803FB0060A0F504773FB2BE
:1072F00004FB07F09062F1BDC1788578A1F13006FA
:10730000F6B20A2E0DD206784FF47A7740786043B1
:1073100007FB060003FB0500081800F53C57B037D3
:107320000DE0A5F13001C9B20A2908D201784078F0
:10733000584304FB0100281841F2D041471A3FB2DC
:1073400004FB07F0D062F1BD46780778A6F1300063
:10735000C0B20A283ABF03FB0760A0F50477303FAC
:1073600003FB07F01084F1BDC17846780778857873
:10737000A1F13000C0B20A280CD24FF47A7004FB9D
:1073800006F200FB072003FB0500081800F53C5738
:10739000B03717E0A5F13000C0B20A2808D203FBCD
:1073A00006F004FB0700281841F2D041471A09E013
:1073B000A6F13000C0B20A283ABF03FB0760A0F56F
:1073C0000477303F3FB203FB07F0DFF8E01A0860B4
:1073D000F1BD00783038C0B2BDE8F240FCF7B0BE75
:1073E000467807788578A5F13000C0B20A2808D21F
:1073F00003FB06F004FB0700281841F2D041471AAE
:1074000009E0A6F13000C0B20A283ABF03FB0760CA
:10741000A0F50477303FDFF8980A007818B9DFF854
:10742000940A3FB20760F1BD30B507291DD8DFE8E7
:1074300001F004041E32415160658378A3F13001EC
:10744000C9B20A293FBF4478A4F13001C9B20A2960
:1074500079D20178A1F13100C0B2042873D2342965
:1074600003D1302C08BF302B6DD1012030BDC17845
:107470003039C9B20A2921BF81783039C9B20A2905
:10748000F3D341783039C9B20A295CD20078363852
:10749000C0B2042828E0C1783039C9B20A29E4D33F
:1074A00081783039C9B20A294DD200783338C0B258
:1074B000072819E0017840783038C0B2062804D295
:1074C000A1F13000C0B203280EE03529CDD2312918
:1074D00039D1CAE7017840783038C0B2032805D2E4
:1074E000A1F13000C0B20A28BFD32CE03929BCD2A8
:1074F00029E001783129B8D03029E9E744780178CA
:1075000083780A20A3F13005EDB20A2D08D2642554
:10751000604305FB0100181841F2D041401A0AE00F
:10752000A4F13003DBB20A2B3ABF00FB0140A0F507
:107530000470A1F13000012A97D180B2DFF87419EC
:107540000968884291D0002030BD10B54FF4185220
:10755000DFF86419DFF86409FFF740FEDFF860091F
:10756000002100220B460C461EC010BD10B50022A3
:1075700008E0135CA3F16104E4B21A2C3CBF203B89
:107580001354521C8A42F4DB10BD2DE9FF418046A2
:107590000E46DFF8284904F2004710250B22394631
:1075A00001A8FFF70BFE0B2101A8FFF7DFFF0B225D
:1075B000414601A802F0B4F898B907F11C0001781F
:1075C00031704178717007F11A0000A902780A70D1
:1075D00042784A70BDF8000004EB402000F50070CE
:1075E00003E020376D1ED9D1002004B0BDE8F08142
:1075F0002DE9F04FADF5097D0024ADF800400026DF
:107600000FF6E00700AA0DF102013846FFF7BDFFB3
:107610000190DFF8A89809F200400290DFF8A0A8D6
:107620000198002800F001814FF48C7143A8FEF707
:10763000EFFFDFF890784FF4007201993846FFF7BA
:10764000BDFDA0460025232043A900FB081B05E043
:10765000232D3CBF05F80B006D1C761C384602F04C
:1076600091F8864206D2F05D0D2802BFF1194978E3
:107670000A29EDD105F80B40B61C08F10108B8F154
:10768000080FDFD30027DFF820880AEB87056E6933
:10769000304602F077F8232143AA01FB072B02466C
:1076A0003146584602F03CF800286CD1686902F077
:1076B00069F8064604E0202818BF3D285DD1761CF5
:1076C00000F0BEFA864258D216F80B00A0F1300145
:1076D000C9B20A29EFD2302801D1062F4DD15E441C
:1076E0000022F9B23046FFF79FFE002845D0F9B2DC
:1076F0003046FFF7A5FD2FB9B8F9180000F092FA4F
:1077000043A837E0012F05D1B8F91A0000F084FA38
:107710004BA81DE0022F06D1D8F8280000F070FA1F
:107720000DF5A97026E0032F05D1D8F82C0000F044
:1077300061FA5DA81DE0042F05D1B8F9200000F022
:1077400065FA66A816E0052F04D100F071FA6EA85C
:10775000C01C0FE0062F07D1FCF7F6FC02460FF223
:10776000E8710DF5EF7005E0072F16D100F03DFA36
:1077700080A8401CFEF760FF0FE000F061FA0146B0
:10778000584601F037FD6C6B204601F0FBFF0246C6
:1077900021465846FFF712FD01247F1C082FFFF4F5
:1077A00074AF002C02BFDFF80807007800283BD038
:1077B000FE2103A8FEF72CFF0027232043A900FB8E
:1077C000071103A801F0F9FF0AEB8700416D03A838
:1077D00001F0F3FF7F1C082FEFD303A801F0D2FFC5
:1077E0000246BDF8000009EB4010FF2A80F81C2477
:1077F00000F21C4094BF0021110A417001980299C7
:10780000401A00F50070411200EB915080120121E6
:1078100000F80A1003A801F0B5FF024603A9019879
:10782000FFF7CCFC00F053FA5DE00FF2387500AAC8
:107830000DF102012846FFF7A8FE09F21644DFF811
:107840008886D0B1FE22014603A8FFF7B7FC00F0FE
:107850005CF809F584600ECD0EC0FE2203A909F57F
:107860000060FFF7BBFC6675C4F82080032089F830
:107870003A04FE2089F83C0401E000F046F8029842
:107880000ECF0EC00FF6E807062239464846FFF72E
:10789000A5FC0622394609F50070FFF79FFC00277A
:1078A0000AEB8705D5F834B000F0CAF900F032F8D9
:1078B000686B01F067FF8619D5F854B000F0C0F985
:1078C00000F028F8686D01F05DFF86197F1C082F15
:1078D000E6D3002089F80B04C9F816840220207131
:1078E000A67100F01DFA42F60C0000EB090100221F
:1078F000CA760A774A7640F8092000208860086135
:10790000C8600DF5097DBDE8F08F4FF41851484669
:10791000FEF77EBE0246594606EB090000F5C06040
:10792000FFF74CBC2DE9F04FADF50B7D06460F4639
:10793000DFF88C55DFF88495B7F5805F0BD14FF4F5
:107940000072494601F0ECFE002815D04FF4007299
:10795000314648460CE0B7F5205F0ED109F50074BA
:1079600000F071F9002807D04FF40072314620462C
:10797000FFF724FC0120287031E1B7F5804F22D1B8
:1079800009F2004400F05FF90028F5D04FF40072CE
:1079900031462046FFF712FC0120687010240FF2D8
:1079A00044570C22314600A8FFF708FC0B22394649
:1079B00000A801F0B5FE10B9B07E28820FE1203694
:1079C000641EEED10BE1A7F50044B4F5005FF9D8D1
:1079D00007EB0900A0F5F4484FF400724146304629
:1079E00001F09EFE08B100F033F9A7F5FC4005EB6D
:1079F000902A600A801C298A884240F0ED80002489
:107A00004FF48C7145A8FEF703FEDFF8B88400F050
:107A10001FF900260027232045A900FB061B05E0CF
:107A2000232F3CBF07F80B007F1C641C404601F06D
:107A3000A9FE844208D214F808000D2802BF04EB06
:107A4000080149780A29EBD1002007F80B00A41C93
:107A5000761C082EDED30026DFF84C7405EB860476
:107A6000D4F814B000F0ECF80246232045A900FB3E
:107A700006185946404601F053FE002840F0978012
:107A8000606901F07FFE044604E0202818BF3D280D
:107A900010D1641C404601F075FE844280F0A18044
:107AA00014F80800A0F13001C9B20A29EDD230283B
:107AB00002D1062E40F0958044440122F1B22046C6
:107AC000FFF7B2FC00287BD0F1B22046FFF7B8FBED
:107AD000404601F057FE0146404601F08BFB2EB9AF
:107AE000B7F9180000F09EF845A835E0012E05D141
:107AF000B7F91A0000F090F84DA81BE0022E05D14E
:107B0000B86A00F07DF80DF5AD7025E0032E04D1C4
:107B1000F86A00F06FF85FA81DE0042E05D1B7F9F0
:107B2000200000F073F868A816E0052E04D100F0DC
:107B30007FF870A8C01C0FE0062E07D1FCF704FBED
:107B400002460FF204410DF5F37005E0072E05D152
:107B500000F04BF882A8401CFEF76EFD761C082E44
:107B6000FFF47CAFFE2105A8FEF752FD002623207E
:107B700045A900FB061105A801F01FFE05EB8600D4
:107B8000416D05A801F019FE761C082EEFD305A85B
:107B900001F0F8FD0446288A09EB4010FF2C80F81C
:107BA000DC4300F5777094BF0021210A09E0646B83
:107BB000204601F0E7FD024621464046FFF7FEFA67
:107BC0000FE041704FF4007205A909F5C060FFF79E
:107BD00005FB0120687000E001208AF8010000F038
:107BE00076F80DF50B7DBDE8F08FB24802680FF214
:107BF000683170476421B0FBF1F20FF22031704719
:107C00006421B0FBF1F20FF2043170470A2190FBBE
:107C1000F1F20FF2183170470A2190FBF1F20FF2E6
:107C2000E02170470A2190FBF1F20FF2C421704766
:107C30009E4800680A21B0FBF1F20FF2FC21704768
:107C4000584601F09FBD4FF40072214601F068BD17
:107C50004FF4007231464046FFF7B0BA38B50446DB
:107C60000D46FFF7EBFA25B94FF400720FF2003121
:107C700021E09249B5F5805F08BF4FF400721AD039
:107C8000B5F5205F04D14FF4007201F5007112E0E8
:107C9000B5F5804F04D14FF4007201F580610AE020
:107CA000A5F50040B0F5005F0AD84FF4007205F169
:107CB000006101F58C412046BDE83840FFF77EBAEF
:107CC0004FF400712046BDE8344001F093BAF8B596
:107CD00001F062FB00207A49425CD2B1002242549A
:107CE0008402754D281901F088FD74482618002774
:107CF00036F8021B3819281801F06EFD042803D04D
:107D000001F054FB0420F2BDBF1CB7F5806FEFD328
:107D100002E0401C1028DFD301F048FB0020F2BD38
:107D200070B5664C01F038FB0025634E06EB8520EC
:107D300001F063FD6D1C092DF8DB002534F8021BF2
:107D4000701901F049FD042801D0042070BDAD1C5C
:107D5000B5F5185FF2DB01F029FB002070BD2DE9BD
:107D6000F04142F61804554D6619584F327A2AB937
:107D7000400238604802786001203072307A012871
:107D800031D1605978B905F5185839684046FFF780
:107D900065FF40229821404601F044FD4FF4E07019
:107DA000605140200CE040229821B868401900F54D
:107DB000185001F037FD605940386051B8684030C4
:107DC000B8604021012001F0D8FD3021012001F0F0
:107DD0005EFD3868403038607868403878603C48EC
:107DE000816840398160786838B96051B86038601E
:107DF00038480321017000203072BDE8F0812DE980
:107E0000F04142F61C042D4D625940326619324F42
:107E100033792BB940023860480278600120307114
:107E2000307901282FD100202C490AE05B1903F595
:107E3000185310F801C083F800C0401C63595B1C44
:107E4000635163599342F1D3DFF89480B8F800008E
:107E50003968411839607A68101A7860C00507D10E
:107E600000206051A1F5007105F51850FFF75AFD8B
:107E700017488168B8F80020891A81604FF4405192
:107E8000022001F015FD786800281EBF1148007817
:107E9000042806D100206051012101F0D5FE002008
:107EA0003071BDE8F0810000600200202C04002049
:107EB000200400202804002000C000085C040020EA
:107EC000E8010020982C0020188DDD409030002023
:107ED00080300020DC2F00209C3000207C2F0020F0
:107EE000DE2F0020434F4E4649472020545854006F
:107EF000545F5374616E6462793D25640000000034
:107F0000545F576F726B3D256400000057616974C0
:107F10005F54696D653D25640000000049646C652F
:107F20005F54696D653D256400000000545F537423
:107F300065703D25640000005475726E5F4F666683
:107F40005F763D256400000054656D7053686F775F
:107F5000466C61673D2564005A65726F505F4164ED
:107F60003D2564004C4F474F494E2020424D500064
:107F7000EB3C904D53444F53352E30000201080026
:107F80000200025000F80C00010001000000000097
:107F900000000000000029A298E46C4E4F204E41E2
:107FA0004D4520202020464154313220202033C925
:107FB0008ED1BCF07B8ED9B800208EC0FCBD007C79
:107FC000384E247D248BC199E83C01721C83EB3A26
:107FD00066A11C7C26663B07268A57FC750680CA6C
:107FE0000288560280C31073EB33C98A461098F793
:107FF000661603461C13561E03460E13D18B7611CC
:10800000608946FC8956FEB82000F7E68B5E0B03BC
:10801000C348F7F30146FC114EFE61BF0000E8E6DD
:1080200000723926382D741760B10BBEA17DF3A6FE
:108030006174324E740983C7203BFB72E6EBDCA00F
:10804000FB7DB47D8BF0AC9840740C487413B40E77
:10805000BB0700CD10EBEFA0FD7DEBE6A0FC7DEBB8
:10806000E1CD16CD19268B551A52B001BB0000E8A0
:108070003B0072E85B8A5624BE0B7C8BFCC746F043
:108080003D7DC746F4297D8CD9894EF2894EF6C6CE
:1080900006967DCBEA030000200FB6C8668B46F833
:1080A0006603461C668BD066C1EA10EB5E0FB6C84D
:1080B0004A4A8A460D32E4F7E20346FC1356FEEBC9
:1080C0004A525006536A016A10918B4618969233B1
:1080D000D2F7F691F7F64287CAF7761A8AF28AE85B
:1080E000C0CC020ACCB80102807E020E7504B442F4
:1080F0008BF48A5624CD136161720B4075014203E3
:108100005E0B497506F8C341BB000060666A00EB70
:10811000B04E544C44522020202020200D0A52659D
:108120006D6F7665206469736B73206F72206F7456
:10813000686572206D656469612EFF0D0A4469737C
:108140006B206572726F72FF0D0A50726573732037
:10815000616E79206B657920746F2072657374612C
:1081600072740D0A00000000000000ACCBD855AAC4
:10817000F8FFFFFFFFFF000000B500BF13009646A9
:108180009446103928BFA0E80C50FAD85FEA417C29
:1081900028BF0CC048BF40F8042BC90728BF20F8EF
:1081A000022B48BF00F8012B00BD00002DE9F04F65
:1081B000A1B0804617461D46029102AE00207062B3
:1081C00011AC6FF000490AE017F8011B0298C04794
:1081D0000290002800F06A82706A401C7062387851
:1081E00008B9706A64E22528EED10020F0603061A1
:1081F0007061B061F061306201E040F0010017F899
:10820000011F2029F9D023290DD02B2904D02D2995
:1082100006D030290AD00CE040F0020080B2EEE730
:1082200040F00400FAE740F00800F7E740F01000E3
:10823000F4E72A290DD129680A1D2A600968F1622C
:10824000002904D54942F16240F0040080B27F1C4D
:1082500012E00021F16209E0F16A494505D001EB25
:10826000810302EB43013039F1627F1C3A78A2F1BD
:108270003001C9B20A29EFD339782E2903D04FF043
:10828000FF31B1621DE017F8011F2A2906D12968C4
:108290000A1D2A600968B1627F1C12E00021B162E8
:1082A00009E0B16A494505D001EB810302EB4301C6
:1082B0003039B1627F1C3A78A2F13001C9B20A2983
:1082C000EFD3308639780FF6983001F0FFFC08B113
:1082D00017F8010B8DF83A009DF83A00682804D190
:1082E000387868280AD1622005E06C2804BF387805
:1082F0006C2803D171208DF83A007F1C11A8B06062
:108300003978B1F1250023D01C3871D0001F022824
:108310006ED9133800F09680093869D0801E00F0BD
:108320002781401E00F0D180401E022860D9001F26
:1083300000F0CB80401F30D0401E00F08380401EF4
:1083400020D0C01E09D0801E7CD0C01E7AD017E17C
:10835000F068411CF16025211BE12868011D29609E
:1083600000687060B26A002A02D501F00BFA07E0DB
:10837000002101F0B7FC00281ABF7168401AB06AEA
:10838000306107E12868011D296000680021CDE9FE
:10839000000111A870607821E6E09DF83A0062289B
:1083A00018D0682806D06A280BD06C2819D07128FC
:1083B00007D016E02868011D2960716A00680180F5
:1083C000E8E02A68101D2860706AC1171268C2E9C7
:1083D0000001DFE02868011D2960716A00680170F2
:1083E000D8E02868011D2960716A00680160D1E049
:1083F0002868C01D20F00700286000F108022A60EC
:10840000D0E90023CDE90023002B04D5F068421CFD
:10841000F2602D220DE0308E820704D5F068421CF8
:10842000F2602B2205E0C00704D5F068421CF26020
:1084300020220255F06811AA8018706000A800F090
:10844000C5F9A7E09DF83A006C2808BF2A6811D04A
:10845000712808BF2A6802D06A282A680AD1D21D6A
:1084600022F007022A6094460CF108022A60DCE937
:10847000002303E0131D2B6012680023CDE90023C5
:10848000682808BF92B207D0622808BFD2B203D0D2
:10849000742818BF7A2802D10023CDE9002396F86A
:1084A000300000075CD5DDE90023002B08BF002A5F
:1084B00056D041F02000782852D1F0683022025581
:1084C000401C421CF26001554AE09DF83A006228C7
:1084D0000CD0682810D06A281AD06C2823D07128B4
:1084E00016D074281FD07A280CD01CE02868021DF2
:1084F0002A6090F900201AE02868021D2A60B0F96D
:10850000002014E02868021D2A60026800230FE0A2
:108510002868C01D20F00700286000F108022A60CA
:10852000D0E9002304E02868021D2A600268D317FE
:10853000CDE90023002B04DAF068421CF2602D2202
:108540000DE0308E820704D5F068421CF2602B22C9
:1085500005E0C00704D5F068421CF26020220255F5
:10856000F06811AA8018706000A800F0A4F811E06B
:10857000F068411CF16029680A1D2A60096808E05A
:10858000F068421CF2602522025519B1F068421CC5
:10859000F26001557F1CF06AF168401AB169401A17
:1085A0003169401AF169401A7169401A316AA0EBC9
:1085B000010A96F83000400711D420208DF84000C1
:1085C000BAF1010F0BDBD346012310AA00A94046E4
:1085D00000F02FFC002869D1BBF1010BF4D1F36846
:1085E00011AA00A9404600F024FC00285ED13020EA
:1085F0008DF84000D6F818B0BBF1010F0ADB01235B
:1086000010AA00A9404600F014FC00284ED1BBF18E
:10861000010BF4D13369726800A9404600F009FCEF
:10862000002843D130208DF84000D6F81CB0BBF1B3
:10863000010F09DB012310AA00A9404600F0F9FB55
:10864000A0BBBBF1010BF5D17369306971684218A9
:1086500000A9404600F0EDFB40BB30208DF8400003
:10866000D6F820B0BBF1010F09DB012310AA00A945
:10867000404600F0DEFBC8B9BBF1010BF5D196F81E
:10868000300040077FF5ABAD20208DF84000BAF1F7
:10869000010FFFF6A4AD012310AA00A9404600F087
:1086A000C8FB18B9BAF1010AF5D198E54FF0FF30CF
:1086B00021B0BDE8F08F2DE9FA4782B00646356952
:1086C0006F2908BF082705D041F02000782814BF83
:1086D0000A2710273C24D6E90001804689469DF8E8
:1086E0000820642A18BF692A05D1002903DAD8F1C5
:1086F000000869EB4909B9F1000F08BFB8F1000F94
:108700000CD1306B50B9082F3BD196F838000007D8
:1087100037D53B24302085F83B0032E0A4F1010A34
:108720005446FB17404649463A4601F007FBCDE95F
:108730000089B846A8FB0023DDE90089A8EB020206
:108740003032D2B23A2A03D39DF80830513B9A18FE
:108750000AF8052080465FEA010908BFB8F1000F5A
:1087600003D0F06861198842D8D3082F09D196F850
:108770003800000705D5605D302802D0641E302027
:108780006055C4F13C00B0616119F160316B884201
:1087900007DA081A3062308F4FF6EF7108403087E1
:1087A00010E000290ED596F8381001F014011029B8
:1087B00008D1716B7269891A326A891A081A0128FC
:1087C000A8BF306204B0BDE8F08700002DE9F24F89
:1087D0008EB0044604AED4E90001CDE902019DF853
:1087E000380040F020008DF8000061280BD0206B8D
:1087F000002848BF062005D404BF9DF80000672864
:1088000001D1012020636168C1F30A5040F2FF7377
:1088100098421ED1080304BF206800280AD1032013
:10882000A0619DF838006138C0B21A2838D30FF221
:10883000446109E00320A0619DF838006138C0B2AE
:108840001A282AD30FF224610322E068FEF7B6FC4F
:10885000B9E1012817DA204601F0E7FA012812DB16
:10886000002700209DF80010612920D1E168302206
:1088700001F8012B4A1CE2609DF83820612A0CBFE8
:10888000782258220FE040F2FE31626861F31E52F6
:108890006260471A4FF0FF30E4E70FF2CC51D3E7A4
:1088A0000FF2CC51D0E70A706169891C616110B97F
:1088B000002500277EE19DF80000612840F09780A8
:1088C000206B00284CBF2125451C2DB26E1CD4E91D
:1088D0000089DDE902010022002301F0C7FA3ABF56
:1088E00089F00040CDE90280CDE902893F1F8DF873
:1088F00010200DF11108012E35DBDDE90201002207
:10890000002301F0CBFA2ED21C2102A801F0DEFADE
:10891000DDE9020101F060FB8146F61F012E09DB53
:1089200001F086FB02460B46DDE9020101F098FBEF
:10893000CDE9020108F20700072105E009F00F0266
:1089400000F8012D4FEA2919B9F1010F01DB491E89
:10895000F4D5491E5CBF002200F8012DF9D500F2C4
:108960000708012EC9DA0DF11100A8EB00010DF185
:108970001106A942B8BF0D462DB2002D30D42846AD
:10898000884206DA04A941184978082928BF0F212E
:1089900000D2002104AA821800E06D1E401E12F8C9
:1089A00001398B42F9D00F2904D104A941184A7822
:1089B000521C4A70002802D504AE6D1C3F1D2DB21A
:1089C000681E0DD481190A783032D2B23A2A03D304
:1089D0009DF838303A3B9A1801F80129401EF2D52B
:1089E000206B002840F1E680681E2063E2E0DDE9AC
:1089F00002010022002301F039FA3CBF81F000415E
:108A0000CDE902013FB247F297507843474990FBC6
:108A1000F1F73FB2C7F107069246DFF814B1012E15
:108A200019DBDDE90289F00707D552465B4640466F
:108A3000494601F0D5FB8046894676105046594696
:108A400052465B4601F0CCFB82468B46002EEAD1B3
:108A5000CDE9028921E076429046DFF8D89012E015
:108A6000F00707D552465B464046494601F0B8FB41
:108A70008046894676105046594652465B4601F07C
:108A8000AFFB82468B46002EEAD1DDE90201424669
:108A90004B4601F077FCCDE902019DF80000662805
:108AA0000CBF07F10A000620216B4518142DA8BF42
:108AB000132530208DF810000DF11106DFF87890A5
:108AC000012D3BDBDDE9020101F09CFA06F1080112
:108AD00004220A26B0FBF6F303EB830EA0EB4E0054
:108AE000303001F8010DB3FBF6F000EB8006A3EB8C
:108AF0004603303301F8013D521EEAD101F1080668
:108B0000083D012DDCDBDDE9020101F07BFA01F01B
:108B100099FA02460B46DDE9020101F0A1FA0022B2
:108B20004B4601F05DFBCDE90201CBE7A0860100D9
:108B3000000024400000F03F84D797410DF1110060
:108B4000301A0DF1110602E0401E7F1E761C3178AE
:108B50003029F9D09DF80010662902D13FB2791C66
:108B600003E065290CBF01210021226B8D182DB275
:108B7000A842B8BF05462DB2002D1BD4294681421C
:108B800004DA885D352828BF392000D230208A19C0
:108B9000521E00E06D1E491E12F801398342F9D0C1
:108BA000392802D1885D401C8855002902D5761EDF
:108BB0006D1C7F1C3FB200972BB232469DF83810D7
:108BC000204600F003F80FB0BDE8F08F2DE9F04328
:108BD00085B00546894617461E46D5F83080012ED9
:108BE00002DA01260FF2902749F02000BDF930404B
:108BF000662808BF641C18D0672840F082806FF098
:108C000003008442C0F28380444580F28080641C6B
:108C100095F83800000702D44645B8BFB04624B2E4
:108C2000B8EB040848BF4FF00008E868A96924B20F
:108C3000012C25DA4A1C30230B54B8F1010F03DA5A
:108C400095F83810090702D52E211154521CAA613B
:108C500018EB040FB8BFC8F1000424B26142696286
:108C6000A044B045B8BF464636B2EE6132463946FA
:108C7000AB691818FEF7A2FAA8EB0600A862C1E0DB
:108C80000818A64218DA32463946FEF797FAA9695B
:108C90007118A961A01B6862B8F1010F03DA95F899
:108CA0003800000705D5E8682E220A54E869401C00
:108CB000E861C5F82880A5E022463946FEF77EFA2D
:108CC000A8692018361BB8F1010F03DA95F838109F
:108CD000090703D5E9682E224254401CA86136B228
:108CE000B045B8BF464636B23246E119EB68C01807
:108CF000FEF764FAA8693018A861A8EB060068625C
:108D000080E0B9F1610F16D14FF0700918E04645C7
:108D100004DA95F83810090758BFB046B8F10108D1
:108D200048BF4FF00008B9F1670F14BF4FF0450975
:108D30004FF0650904E0B9F1410F08BF4FF0500949
:108D4000A9694A1CE86817F8013B0B54B8F1010FF8
:108D500005DA95F83810090758BFAA6117D52E21F2
:108D60001154531CAB61B8F1010F10DB761E36B203
:108D7000B045B8BF464636B2324639461818FEF7F7
:108D80001DFAA8693018A861A8EB06006862A869F6
:108D9000E968471807F8019B002C03D42B2007F83B
:108DA000010B03E02D2007F8010B644200260DF1B2
:108DB000080809E00A22214600A801F006FC0198F3
:108DC00008F8010B009C761C24B2012CF2DA022E6A
:108DD00006DA49F02000652804BF302007F8010BAF
:108DE0004EB9302007F8010B07E0761E02A8305C70
:108DF000303007F8010B012EF7DAA869E96840184E
:108E0000381AE86195F8380000F0140010280DD1E8
:108E10006869A9690818696A0818E9690818A96AD7
:108E20000818696B8842BCBF081A286205B0BDE803
:108E3000F083F8B504460D4616461F46002077B16C
:108E400016F8011BA868A047A86030B1E86A401C6A
:108E5000E86200207F1EF3D1F2BD4FF0FF30F2BD7B
:108E6000686A6C747A4C00006E616E004E414E0070
:108E7000696E6600494E460030000000002800E0A0
:108E8000401EFDD1704710B586B0FDF779FCC020BB
:108E9000ADF8000003208DF802001C208DF80300BF
:108EA00000F04CF80020ADF808004BF6FF70ADF86C
:108EB0000A003C20ADF80C004FF48060ADF80E00C5
:108EC0004FF48040ADF810005F4801905F4C01A95D
:108ED000204601F081FB0121204601F0DDFB06B0B8
:108EE00010BD5B4A012903D10146104600F053B979
:108EF00019B90146104600F050B9704780B50121FC
:108F0000082000F0EDF9C020ADF8000014208DF825
:108F1000030003208DF8020000F010F800F012F8B2
:108F200000F05BF800F05CF800F055F8002100F06C
:108F300055F800F050F800F005F801BD00A94448CC
:108F400000F0C4B800214020CBE780B5FFF7FAFF5E
:108F5000002100F043F800F03EF800F041F800F086
:108F60003AF800F03AF800F036F8FFF7EBFF02208D
:108F7000BDE8024082E738B50446082508E000F065
:108F80002DF800F028F800F02BF800F024F8640029
:108F90002846451EC0B230B1FFF7D4FF20064CBFB3
:108FA00001210021EBE7FFF7CDFF00F016F8FF24C9
:108FB00000F011F800F043F848B900F011F800F0A3
:108FC0000AF8FFF7BFFF00F006F8012032BD641E6B
:108FD000EED1002032BD022050E70121802080E741
:108FE000012140207DE770B5044608250026FFF7E3
:108FF000F4FF0DE0FFF7A6FFFFF7EDFFFFF7F0FF2F
:10900000FFF7E9FF760000F01AF808B146F0010614
:109010002846451EC0B20028ECD1FFF793FF002C74
:109020000CBF01210021FFF7D9FFFFF7D4FFFFF7A5
:10903000D7FFFFF7D0FFFFF785FFF0B270BD8021AB
:10904000034800F0A1B80000A086010000540040D1
:10905000000C014070B504460D461646FFF74EFF62
:109060007000C0B201E014F8010BFFF784FF28463E
:10907000451EC0B20028F6D1BDE8704065E7F8B5DE
:1090800004460D4616461F46FFF738FF7600F0B23D
:10909000FFF771FF3846FFF76EFFFFF72FFF46F02F
:1090A0000100C0B2FFF767FF03E0FFF79CFF04F881
:1090B000010B2846451E28B1EDB2002D0CBF002043
:1090C0000120F2E7BDE8F1403FE700002DE9F04163
:1090D0000022CC7804F00F03E40644BF8C782343CD
:1090E0000C8801250F26E7B217B3D0F800C005FAA7
:1090F00002F7BE460EEA0408F04514D14FEA820E8C
:1091000006FA0EF82CEA080C03FA0EFE4EEA0C0CD6
:1091100091F803E0BEF1280F08BF476103D0BEF10C
:10912000480F08BF0761521C082AE0D3C0F800C0EE
:10913000B4F5807F26D3D0F804C0002202F10807DE
:1091400005FA07F7BE460EEA0408F04515D14FEAC6
:10915000820E06FA0EF82CEA080C03FA0EFE4EEA0E
:109160000C0C91F803E0BEF1280F08BF476191F89D
:1091700003E0BEF1480F08BF0761521C082ADDD387
:10918000C0F804C0BDE8F08100228068084218BF22
:10919000012210467047016170474161704770B508
:1091A000134A00284CBF94691468C0F3034583B286
:1091B000460D3601B34000F44016B6F5401F06D107
:1091C00024F07064156825F07065156008E0C6022B
:1091D00043BF032606FA05F5AC439C4344F0706494
:1091E00001B11C43002801D5946170BD146070BDAD
:1091F00004000140002201F059BA00005048016803
:1092000041F00101016041684E4A1140416001682E
:109210004D4A11400160016821F4802101604168DC
:1092200021F4FE0141604FF41F01816070474749FE
:109230000860704747490860704745490A689208C6
:1092400050EA8200086070474148006800F00C0056
:10925000704741490860704730B53D490A683F4B47
:1092600002F00C02082A0ED10A680C68C2F383428D
:10927000921C3B4D5543E40302D50C68A40301D571
:109280002B4600E0534303600B68364A0468C3F37F
:1092900003139B5C24FA03F343600B684468C3F335
:1092A00002239B5C24FA03F383600B684468C3F3D6
:1092B000C2239B5C24FA03F3C3600968C368C1F34B
:1092C00081318918097CB3FBF1F1016130BD264A77
:1092D0000029116814BF084321EA0000106070479C
:1092E000224A0029116814BF084321EA00001060D7
:1092F00070471F4A0029116814BF084321EA000083
:10930000106070471B4A0029116814BF084321EA06
:1093100000001060704700214209094B012A08BF74
:109320001A6803D0022A0CBF1A6A5A6A012300F095
:109330001F0003FA00F0024218BF012108467047DF
:10934000001002400000FFF8FFFFF6FE000042425E
:109350000410024060004242D800424200127A00EB
:1093600000093D000C0400201410024018100240B7
:109370001C1002400C100240DFF8D4100A6802F002
:10938000380206E0DFF8C8100A6822F010020A600E
:109390000A68104308607047FFE7DFF8B800DFF89D
:1093A000B8100160DFF8B41001607047FFE7DFF824
:1093B000B000016841F080010160704738B5054692
:1093C00000F015F804280DD1DFF89440206840F033
:1093D00002002060656000F006F8216841F6FD7229
:1093E0001140216032BD206840F0400020604FF401
:1093F000302039E070B504460D4600F011F804281D
:109400000CD1174E306840F001003060258000F02C
:1094100007F8316841F6FE721140316070BD088076
:109420004FF4005020E00F490860704704200D49B8
:109430000A68D20701D5012070470A68520701D592
:10944000022070470968C90648BF03207047000022
:10945000002002400420024023016745AB89EFCD84
:10946000102002400C20024010B5FFE70446FFF731
:10947000DDFF03E02CB1FFF7D9FF641E0128F9D00E
:1094800004B9052010BD00001B4908431B490860B2
:10949000704770B503781A460121C478ECB1174BB8
:1094A0001B6803F4E063C3F5E0631B0A4478C3F16F
:1094B0000405AC4085780F2626FA03F32B4023439E
:1094C0001B010F4C1355007842110E4B00F01F008A
:1094D00001FA00F043F8220070BD50110A4A03F06F
:1094E0001F03994042F8201070BD084A11400843FC
:1094F00007490860704700000000FA050CED00E025
:1095000000E400E000E100E080E100E080FFFF1FF8
:1095100008ED00E001684FF6FE7211400160002185
:10952000016041608160C1603349344A90421DD07E
:10953000334A904221D0334A904225D0324A904259
:1095400029D0324A90422DD0314A904203D1086846
:1095500040F4700029E02F4A904203D1086840F09F
:10956000706022E02C492D4A904203D1086840F0F7
:109570000F001AE02A4A904203D1086840F0F00038
:1095800013E0284A904203D1086840F470600CE070
:10959000254A904203D1086840F4704005E0234A10
:1095A000904203D1086840F4702008607047026858
:1095B0006FF30E128B681A430B6A1A430B691A4336
:1095C0004B691A438B691A43CB691A434B6A1A4396
:1095D0008B6A1A430260CA6842600A6882604968FE
:1095E000C16070470029016812BF41F001014FF6C8
:1095F000FE72114001607047040002400800024002
:109600001C0002403000024044000240580002406A
:109610006C00024080000240040402400804024042
:109620001C0402403004024044040240580402403A
:1096300030B50488DFF8D820DFF8BC30984218BF76
:1096400090420ED0B0F1804F1CBFDFF8B050A8425E
:1096500007D0DFF8AC50A8421CBFDFF8A850A842E2
:1096600004D14FF68F752C404D882C43DFF898506D
:10967000A8421CBFDFF89450A84204D04FF6FF4523
:109680002C40CD882C4304808C8884850C880485EC
:10969000984218BF90420AD0DFF8782090421FBF4E
:1096A000DFF874209042DFF87420904201D1097AEB
:1096B00001860121818230BD0029018812BF41F05D
:1096C00001014FF6FE72114001807047002A828925
:1096D00014BF114322EA01018181704700290188EA
:1096E00012BF41F080014FF67F7211400180704738
:1096F00000BFC94301827047002C014000040040B4
:1097000000080040000C0040001000400014004021
:109710000034014000400140004401400048014045
:109720000300002013F0030F09D0521E22BF13F8CC
:10973000010B11F801CBB0EB0C00F3D07047121FF6
:1097400022BF53F8040B51F804CB6045F7D0121D2B
:109750000AD200BA9CFA8CFCB0EB0C0038BF6FF058
:10976000000088BF01207047521E22BF13F8010B72
:1097700011F801CBB0EB0C00F6D0521C08BF10461C
:109780007047000000F10103810704D010F8011BAD
:1097900089B18107FAD10268B2F10131914311F028
:1097A000803F04BF50F8042FF6E710F8011B11B1F9
:1097B00010F8011BFBE7C01A7047024600E0521C7C
:1097C0001378002BFBD111F8013B137012F8013B09
:1097D000002BF8D17047000038B504460D461048FC
:1097E000FFF742FE05281CBF3420FFF71CFE294668
:1097F0002046BDE83440FFF7FDBD10B50446A00586
:109800000CD10748FFF730FE05281CBF3420FFF7B6
:109810000AFE2046BDE81040FFF7D0BD10BD000095
:10982000A086010010B5490001F1804101F5C04159
:10983000521C521009E010F8013B10F8014B43EAAA
:10984000042321F8023B891C521EF4D110BD4900AB
:1098500001F1804101F5C041521C521004E051F861
:10986000043B20F8023B521EF9D170474FF6F871C5
:109870000840DFF890110860704710B5DFF88821C4
:1098800052F8203048F68F142340194324E010B5D5
:10989000DFF8742152F8203048F6BF742340CC061C
:1098A00048BF83F01003890648BF83F020030FE010
:1098B00010B5DFF8542152F820304BF68F74234056
:1098C000CC0448BF83F48053890448BF83F4005319
:1098D00043F4004141F0800142F8201010BDDFF850
:1098E000281151F820204BF68F731A4082F4405211
:1098F00042F4004209E0DFF8101151F8202048F648
:109900008F631A4042F40042FFE742F0800241F8C0
:1099100020207047DFF8F01051F8202052040AD5BB
:1099200051F8202048F68F731A4042F4404242F02A
:10993000800241F820207047334951F82020520618
:109940000AD551F8202048F68F731A4042F400429D
:1099500042F0C00241F82020704738E0294A1268DE
:1099600092B202EBC000294A37E03BE02549096882
:1099700089B201EBC00025493AE0224A126892B24E
:1099800002EBC000224A2AE01E4A126892B202EBA1
:10999000C000204A02EB40003F2909D34A091F2397
:1099A000194208BF521E1204910941F4004105E01A
:1099B0004A08C90748BF521C120491090160704748
:1099C0001049096889B201EBC000124914E00D4A40
:1099D000126892B202EBC0000F4A4908490042F8EF
:1099E000101070470749096889B201EBC0000A49A5
:1099F00051F8100080B2704751F810008005800DBA
:109A000070470000505C0040005C0040086000406F
:109A1000046000400C600040006000400106090C3A
:109A200041EA10207047000080B5964890F8201059
:109A3000022909D018D3042902D00ED3052913D145
:109A4000002180F820100CE0C17B28290CD1816A0C
:109A5000406ABDE8044000F09CBE0121002000F0F7
:109A6000F3F84FF440512BE101BD38B5854CE57B4F
:109A70000220FFF7A5FF60840246D8218248FFF745
:109A8000E6FE94F8200010B1012803D00AE0BDE8FA
:109A9000314013E02A2D06D1A16A606ABDE8344046
:109AA00000F0A1BE022000F0F9F82421052000F00A
:109AB0006BFE00210220BDE83440C5E010B5714CBA
:109AC000628C1AB170492046FDF788FB6F486168C7
:109AD0004160A1688160608C1F2806D0022000F0E0
