:020000040800F2
:10400000A8240020E9B6000889B600088BB600088D
:104010008DB600088FB6000891B6000800000000B9
:1040200000000000000000000000000093B600083F
:1040300095B600080000000097B6000899B6000881
:1040400029B700082DB7000831B7000835B70008B8
:1040500039B700083DB7000841B7000845B7000868
:1040600049B700084DB7000851B7000855B7000818
:1040700059B700085DB7000861B7000865B70008C8
:1040800069B700086DB7000871B7000875B7000878
:104090009BB600087DB7000881B7000885B7000807
:1040A00089B700088DB7000891B7000895B70008D8
:1040B0009FB60008A3B60008A1B70008A5B700087E
:1040C000A9B70008ADB70008B1B70008B5B7000838
:1040D000B9B70008BDB70008C1B70008C5B70008E8
:1040E000C9B70008CDB70008D1B70008D5B7000898
:1040F000D9B70008DDB70008E1B70008E5B7000848
:10410000E9B70008EDB70008F1B70008F5B70008F7
:10411000F9B70008FDB7000801B8000805B80008A5
:1041200009B800080DB8000811B8000815B8000853
:10413000DFF8740DC0687047DFF86C1DC860704709
:1041400080B5DFF8680D00214160816101F08BFDD1
:10415000002804D10820BDE8024001F0F7BE042881
:1041600004DB0620BDE8024001F0F0BE0120BDE8FE
:10417000024001F0EBBE30B583B004460D46062286
:10418000002100A802F0C0F82A4640A100A802F0D1
:10419000C5F800A8642D02D34321C17004E0432177
:1041A0008DF802102021C17000A9204601F066F9A7
:1041B000DFF8F80C1421016037BD70B5DFF8884EC8
:1041C000607800280DD160220FF2C401002002F0B7
:1041D000BFF860604FF4FA7002F0C9F901F0AAFE6E
:1041E0004AE001280CD160226168002002F0B0F89A
:1041F00060604FF4FA7002F0BAF901F09BFE3BE008
:1042000002280DD160220FF28801002002F0A0F8F0
:1042100060604FF4FA7002F0AAF901F08BFE2BE017
:10422000032829D100251BE0C5EBC5000FF20021B2
:1042300001EB800060600E21F01D02F0A5F80E2257
:1042400061683046C0B202F083F86060F61F0A2051
:1042500002F08DF920788642E6DA0E3020706D1C6F
:10426000062D01DA5426F5E74FF4FA7002F07FF9D3
:1042700001F060FE002020706078401C6070C0B2C9
:10428000042801D10020607070BD0000256400008A
:10429000000000000000000000000000000000001E
:1042A000000000000000000000000000000000000E
:1042B0000000000000000000000000000000008876
:1042C00098BFBF98880000000080808080808000B8
:1042D00000000000000000000000000000000000DE
:1042E00000000000000000000000000000000000CE
:1042F00000206060606060609090909090909090DE
:1043000090909090909090909090909090909090AD
:1043100090606060606060606070F8888482828312
:104320008383838383828282828383838383838262
:104330008282828286848484848484848484848443
:104340008484848484848282828282828282FE0047
:10435000000000000000000000000000000000005D
:10436000000000000000000000000000000000004D
:1043700000000000000000000000000000000090AD
:10438000B0FEFEB090000000008080808080800041
:10439000000000000000000000000000000000001D
:1043A000000000000000000000000000000000000D
:1043B000002060606060606090909090909090901D
:1043C00090909090909090909090909090909090ED
:1043D00090606060606060606070F8888482828352
:1043E00083838383838282828283838383838382A2
:1043F0008282828286848484848484848484848483
:104400008484848484848282828282828282FE0086
:1044100000F0F00000F0F0F00000FCF8F0E0C080E8
:10442000000F0F00000F0F0F00003F1F0F070301C9
:10443000000000000000000000000000000000007C
:104440000000000000000000000000000001FFFF6D
:1044500001010101010181C67E380080FFFF8181D9
:10446000010101010000000000202020E0E00080A8
:1044700040402060C04000808080FFFF81808080BD
:1044800000000000000000804040202020404080CC
:10449000000000003F7F4484848484848447270094
:1044A0000000008040402020204040C0000000006C
:1044B00020C3828684848C8C887830000000008041
:1044C00040402020204040C00000000020C38286E1
:1044D00084848C8C8878300000000000000000800C
:1044E00080C0602010180C86E0E0E0ECFCF2F3F1F4
:1044F000F0F8ECE4E4E2E30100000000000000005A
:104500000080C0402030180CC0C0C0D8F8E4E6E3FA
:10451000E1F1D8C8C8C4C603FCFCFC00000000C020
:104520003826250101010101010101027F7F7F067B
:104530000909090909093948484848301008080498
:10454000FCFC00000000C03826250101010101012A
:10455000010102027F7F0609090909090939484852
:104560004848301008080404000000000000000063
:104570008080C06030180C8600E0E0ECF4F6F6FBBA
:10458000F5E8E8E4E2E2E1000000000000000000DD
:10459000000080C06030180C00C0C0D8E8ECECF619
:1045A000EBD1D1C8C4C4C201FEFEFE8040406058B9
:1045B00054020202020202843F3F3F000101010156
:1045C0000107050506020100FEFE804040605854C8
:1045D00002020202020284843F3F00010101010144
:1045E00007050506020100002DE9F04107460FF21C
:1045F000D8004FF000080AE00C22014608EB480002
:1046000080001230C0B201F0A3FE08F10108B8F139
:10461000050FF1DB4FF47A7001F0A9FF01F08AFC7D
:10462000B8783038C0B20A2800D20646F878303858
:10463000C0B20A2800D2054638783038C0B20A28FD
:1046400000D204460027DFF8308E16E00FF2081083
:10465000182101FB0472125C07EB080383F8602049
:1046600001FB0672125C83F8902001FB0571085C67
:1046700007EB080181F8A8007F1C182FE6DB002457
:104680000CE00C220146384600EB40039800C0B213
:1046900001F05EFE7F1C082FF3DB641C102C09DA8E
:1046A00002230C220821404600F0E8FC08F1D80063
:1046B0000027F0E74FF47A7001F059FF01F0F9FE9E
:1046C000BDE8F04101F036BC000C020202FE02021D
:1046D000020C00000000000080FF800000000000CD
:1046E0000038448282020204041E000000F04040B0
:1046F00080818182443800000000000404FE000034
:10470000000000000000008080FF8080800000002A
:1047100000E018040202020418E00000000F30401C
:1047200080808040300F000000E018040202020484
:1047300018E00000000F304080808040300F000003
:104740000000000000000000000000000000000069
:10475000000000000000000000E010080810E00069
:1047600000000000000F102020100F0000000000CB
:10477000001010F800000000000000000020203FA2
:104780002020000000000000007008080888700069
:10479000000000000030282422213000000000002A
:1047A00000300888884830000000000000182020F1
:1047B00020110E00000000000000C02010F80000D2
:1047C0000000000000070424243F24000000000033
:1047D00000F808888808080000000000001921205F
:1047E00020110E000000000000E010888818000072
:1047F00000000000000F112020110E00000000003A
:1048000000380808C8380800000000000000003F19
:104810000000000000000000007088080888700098
:1048200000000000001C222121221C0000000000CA
:1048300000E010080810E000000000000000312235
:1048400022110F0000000000000000000000000026
:1048500000000000003030000000000000000000F8
:1048600038B50025DFF81C4D20780FF2540101EB1C
:10487000401106E010222801C0B201F069FD014696
:104880006D1C6078A8420BDB0528F3D21022C0F122
:10489000050028180001C0B201F05AFD0146EFE7FB
:1048A000052802D2401C607002E02078401C207075
:1048B00020780B2802D100202070607031BD0000EC
:1048C00001F9FF3FFFF0800080F07EFFFFFF010154
:1048D00080FFFF80831FFFF83F8780FFFFFF8080FE
:1048E00000000020202063E3E3030000000000003C
:1048F00000000080808080FFFF80808080000000BA
:104900000020E0E0E0C04060202060C0C000000067
:104910000080FFFFFF808000008080FFFF8080001C
:1049200000000020202063E3E303000000000000FB
:1049300000000080808080FFFF8080808000000079
:104940000080808080808080808080808080800067
:104950000000000000000000000000000000000057
:10496000000607030101FFFFFF010101030F0C0017
:10497000000000008080FFFFFF808000000000003A
:1049800000000080C0406020206040C08000000027
:10499000000E3F7FE18080808080C0717F3F0000FB
:1049A00000000080C0406020206040C08000000007
:1049B000000E3F7FE18080808080C0717F3F0000DB
:1049C00000000001010101FFFF00000000000000E5
:1049D00000000080808080FFFF80808080000000D9
:1049E00000000080C0406020206040C0C000000087
:1049F000000020E3C38686848C8C8CF8783000001D
:104A000000000000000000000000000000000000A6
:104A10000000000000000000000000000000000096
:104A20000000000000000000000000000000000086
:104A30000000000000000000000000000000000076
:104A40000000000000000000000000000000000066
:104A50000000000000000000000000000000000056
:104A60000000000000000000000000000000000046
:104A70000000000000000000000000000000000036
:104A80000000000000000000000000000000000026
:104A90000000000000000000000000000000000016
:104AA0000000000000000000000000000000000006
:104AB00000000000000000000000000000000000F6
:104AC0002DE9FC4104460D460622002100A801F014
:104AD0001BFC67A62246314600A801F01FFC00AF70
:104AE000642C02D34320F87003E04320B8702020E8
:104AF000F87000A9012000F0EAFCDFF8A88B98F814
:104B00000000411C88F8001010220FF24C0101EB4C
:104B10004011292001F01CFC98F80000032802D164
:104B2000002088F800000622002100A801F0ECFB1C
:104B30002A46314600A801F0F1FB642C02D3432041
:104B4000F87003E04320B8702020F87000A93820E6
:104B500000F0BDFCBDE8F38100003060C0800000C3
:104B600000000000000000000000180C0603010017
:104B7000000000000000000000003060C0803060D5
:104B8000C0800000000000000000180C0603190C93
:104B9000060301000000000000003060C0803060AB
:104BA000C0803060C08000000000180C0603190CA3
:104BB0000603190C060301000000183060C08000D5
:104BC000000000000000000000000C0603010000CF
:104BD00000000000000000000000183060C09830A5
:104BE00060C080000000000000000C0603010C06FD
:104BF00003010000000000000000183060C0983081
:104C000060C0983060C0800000000C0603010C06F4
:104C100003010C060301000070B50FF258051022C5
:104C200005F18C01002001F093FBDFF87C4C20782B
:104C3000002815D102260EE00A2206EB860005EBBD
:104C40008000A0F12801304600EB80035800C0B27C
:104C500001F07EFB761C092EEEDB0120207070BD7A
:104C60005021102001F090FB0020207070BD00004A
:104C70002564000001FF00E11FE000FF01000001CA
:104C80001E0100011E010000006010109090E00065
:104C90000000000E111110081F1800001010F04045
:104CA00020101030000010101F1010000000000035
:104CB00010F02010101010E00000101F1000000075
:104CC000101F100000001013F3000000000000008F
:104CD00010101F101000000010F02010101010E035
:104CE0000000101F10000000101F100000E0101046
:104CF0001010F0100000007D8A8A8A8A91700000EE
:104D000000000080E0F8FE0707FEF8E080000000E9
:104D1000101C1F1F1F1F1F12121F1F1F1F1F1C10E1
:104D200038B50FF28C1451EA000215D1002508E0C5
:104D3000012D05D110222146502001F009FB044627
:104D40006D1C022D4EDA002DF2D1102221460020DA
:104D500001F0FEFA0446F3E7002820D000291ED116
:104D600001280DD1102204F12001502001F0F0FAA9
:104D7000102204F140010020BDE8384001F0E8BAFB
:104D800002282FD110222146002001F0E1FA102242
:104D900004F160015020BDE8384001F0D9BA002884
:104DA00020D100291ED001290DD1102204F12001AB
:104DB000502001F0CDFA102204F180010020BDE85E
:104DC000384001F0C5BA02290CD11022214600203A
:104DD00001F0BEFA102204F1A0015020BDE83840D5
:104DE00001F0B6BA31BD70B5044650250E01F6B2D9
:104DF0000EE0102105F1100001F0C6FA1022214644
:104E00002846C0B201F0A4FA103D192001F0AFFB12
:104E1000B542EEDA70BD2DE9F8430FF2940400229A
:104E200011462046FFF7DFFF4FF47A77DFF87C5A10
:104E3000B5F91A0090FBF7F85FFA88F80FF690269C
:104E40000022012106EB4810FFF7CDFF07FB08F712
:104E50004FF06408B5F91A00C01B90FBF8F95FFA2F
:104E600089F90022022106EB4910FFF7BCFF00225E
:104E70000321B5F91A00C01B08FB19000A2390FB97
:104E8000F3F0C0B206EB4010FFF7ADFF00220421A3
:104E900006F5D070FFF7A7FF0022052104F12000DE
:104EA000BDE8F8439FE7000034030020DC1F00202A
:104EB000808040402020101008080404FE000000FC
:104EC0000000010102020404080810103F00000065
:104ED0000000FE04040808101020204040808000DC
:104EE00000003F1010080804040202010100000045
:104EF000008080C0C06060303018180C0CFE0000CC
:104F0000000101030306060C0C181830307F000066
:104F10000000FE0C0C181830306060C0C0808000AB
:104F200000007F303018180C0C0606030301010046
:104F30008080C0C0E0E0F0F0F8F8FCFCFE0000006B
:104F400000000101030307070F0F1F1F3F000000B0
:104F50000000FEFCFCF8F8F0F0E0E0C0C08080004B
:104F600000003F1F1F0F0F07070303010100000090
:104F7000F0B4DFF83C198B78002B0AD10123CB70F9
:104F800000230B7108238B7100230B704B700123DE
:104F90008B70CB78002B2AD100244C7114E0DFF801
:104FA000D8442F18F71997F8337006EB040C8CF8D7
:104FB000D8701718F719ED1995F8335097193C194F
:104FC00084F8D850741C4C710D794E798C79B442A8
:104FD000E5D2641C8C716D1E0D71E4B20B2C06D1F0
:104FE0000A208871002008710120C8702AE00C791D
:104FF000002C27D101244C7113E05E19DFF87844AE
:10500000371905EB000C9CF833C087F8D8C0961907
:1050100034191618AE1996F8336084F8D8606C1CF1
:105020004C718C794D79A542E7D3601E88715A1C6A
:10503000CA70C0B2002805D101208871092008710A
:105040000020C870F0BC70475C20002010B4002124
:105050000A4604E0E41FE3405918C9B2521C082A6A
:1050600009DA0123934003405400042AF2DAC4F120
:105070000704A340F0E7084610BC70472DE9F0474D
:1050800081468A4614461D00DFF8246810D1307826
:10509000002808D1002030627062012030700020AA
:1050A0007070B0701BE0B06830627069706216E0BA
:1050B000012D10D17078002808D100203062706274
:1050C0003070012070700020B07008E0F06830622D
:1050D000B069706203E030693062F06970624FF06D
:1050E00000080AE018F80900FFF7B0FFDFF888139E
:1050F000414481F8D80008F1010820460AFB00F17C
:105100004F00B845EED3002101E001EB4001B94268
:1051100043D24FF000080DE029FA0AF92EF8139057
:105120003EF813304FEA132E8CF8D8E082F8D830CE
:1051300008F1010822469045E7D201EB0803DFF8A9
:1051400038C3D21862449C449CF8D8E092F8D890B6
:1051500049EA0E29DFF85CE72EF81390012D10D1F3
:10516000D6F820A0BAF1000F06D1D6F824A009FA8B
:105170000AF92EF81390D3E729FA0AF92EF81390BA
:10518000CEE7D6F824A0BAF1000FC5D1D6F820A0FA
:1051900009FA0AF92EF81390C2E700240AE0DFF8B2
:1051A000D8C204EB0C0898F8D800FFF74FFF88F836
:1051B000D800641CBC42F2D3706A002806D1306A61
:1051C000102803D10020306210207062706A00281D
:1051D00003D1306A401C306201E0401E7062706A88
:1051E000316A002D02D1B160706106E0012D02D15B
:1051F000F160B06101E03161F061BDE8F0872DE957
:10520000F34F81B014460A20DFF8A016B1F91A1046
:1052100091FBF0F109B2642291FBF2F7FFB202FBBD
:10522000171393FBF0F85FFA88F802FB171100FBE5
:1052300018195FFA89F9DFF880562878012805D116
:10524000012068610020A861287007E0022805D1CC
:10525000002068611020A8610020287000202861CB
:105260000FF26C6B26E0DFF854C60AEB0C060BEB72
:1052700047101AF80000FFF7E9FE86F8D8000BEB9C
:1052800048101AF80000FFF7E1FE86F8F8000BEB73
:1052900049101AF80000FFF7D9FE86F818010AEB4A
:1052A0000B0090F8A001FFF7D1FE86F838010AF153
:1052B000010028619DF808004600D5F810A0B2450D
:1052C000D1DB9DF80410C1F1030141434900E961BC
:1052D00001E07118E961E96900EB4002B1EB420FAE
:1052E00042DA00222A610DE028FA09F82EF8178028
:1052F0003EF817704FEA172E8CF8D8E083F8D87074
:10530000521C2A612A698242E3DA8F18DFF8ACC5A1
:10531000C3196344BC449CF8D8E093F8D88048EAA9
:105320000E28DFF890E52EF81780002C10D1D5F864
:105330001890B9F1000F06D1D5F8149008FA09F8C1
:105340002EF81780D4E728FA09F82EF81780CFE74F
:10535000D5F81490B9F1000FC6D1D5F8189008FA15
:1053600009F82EF81780C3E7002028611BE007EB3F
:105370000C0494F8D800FFF769FE84F8D80094F87C
:10538000F800FFF763FE84F8F80094F81801FFF7BF
:105390005DFE84F8180194F83801FFF757FE84F891
:1053A0003801781C28612F69DFF810C5B742DEDBB1
:1053B0000CF1D8000121296108E0102201461801F2
:1053C000C0B200F0C5FF2969491C29612B69052B72
:1053D000F3DB6869A96950EA010203D0002903D10F
:1053E000102801D1002007E0002902D1401C68618B
:1053F00001E0481EA8610120BDE8FE8F70B504469B
:105400000D46DFF8BC6414220021304600F07CFF1A
:10541000002C07D100230A2201210FF2A060FFF720
:105420002DFE12E0012C07D101230A2219460FF2AA
:10543000AC60FFF723FE08E0022C06D102230A220B
:1054400001210FF27860FFF793FD0A2231465620C2
:1054500000F07EFF002D07D106220FF2746150206C
:10546000BDE8704000F074BF06220FF24461502086
:10547000BDE8704000F06CBF0000002038B50C465D
:10548000451EEDB2082D0DD300250BE03638C0B215
:1054900010220FF23C4101EB40112801C0B200F094
:1054A00057FF6D1C2078002810D014F8010B20281D
:1054B00001D10A20ECE7A0F130010A2902D23038EC
:1054C000C0B2E5E7A0F141010429DFD331BD70B5D9
:1054D00004460D46002610E00A200A2200EB800157
:1054E0000FF2806000EB8101F6B206EB860004EB60
:1054F0004000C0B200F02CFF761C287800280CD0A9
:1055000015F8010B432801D10B20E6E7A0F130018B
:105510000A29E1D23038C0B2DFE770BD70B4DFF8DD
:105520008C23B2F91A204FF47A7392FBF3F46425BA
:1055300092FBF5F6002910D1801890FBF3F189B2A7
:10554000A4B2A14210D190FBF5F080B2B6B2B04245
:1055500001D0022013E0012011E0101A90FBF3F1BA
:1055600089B2A4B2A14201D0032008E090FBF5F07B
:1055700080B2B6B2B04201D0022000E0012070BC7F
:10558000704700003D200020F8B5CE4CE0680028B0
:1055900000F08680C84DE868002807D00020E86049
:1055A00000F05EFB00F085FFFFF735FC00F052FBDA
:1055B000402836D0B0F5807F66D1BC4EE888B6F979
:1055C0001A10884223DA012028700146308CFFF738
:1055D000A5FF0746002210213846FFF710FE0028DD
:1055E000F8D1708B318C401A7083E98800B2884200
:1055F00000DA718302202870002210213846FFF75C
:10560000FEFD0028F8D100210220FFF789FBB6F942
:105610001A00E988884237D102210020FFF780FB79
:1056200032E0A24EB6F91A00A988884223DA012096
:1056300028700021308CFFF771FF074601221021EE
:105640003846FFF7DCFD0028F8D1708B318C081844
:105650007083A98800B2814200DA71830220287029
:10566000012210213846FFF7CAFD0028F8D1002199
:105670000120FFF755FBB6F91A00A988884203D12B
:1056800001210020FFF74CFB00F0E4FA002807D0CE
:105690004FF49670E0600020BDE8F24000F0DDBA03
:1056A000F1BD00009E2000202DE9F04100F04AFCF1
:1056B000401E072800F2F680DFE800F004F4189F8F
:1056C000797CF4887C4EB078002806D10FF2F8106F
:1056D000FEF78AFF0120B07001E0FEF76EFDF06872
:1056E000012840F0DF800020F060DBE0724EF068BF
:1056F000002805D10120F06000F0B2FA00F0D9FED8
:1057000000F02CFC0446694DB5F91A000146A1428F
:1057100005DA621A122A02DA0446A4B206E0A142AD
:1057200004DB091B122901DA0446A4B200F012FCC2
:105730000746012F07D07078012801D100F0B9FE8B
:1057400000203081707030894B2806D17078002895
:1057500003D100F0AEFE01207070DFF86881707830
:1057600000280BD0D8F81800002807D1B5F91A1076
:105770002046FFF7A5F93220C8F81800D8F8000035
:10578000002840F08F807078002840F08B800A203D
:1057900094FBF0F10120FEF7EEFC01F03FF9014629
:1057A0003846FFF72BFE3089401C30817AE0BDE897
:1057B000F041E9E6DFF80C81D8F81800002871D133
:1057C000FFF74EF83220C8F818006BE03A4EF06848
:1057D000002803D10120F06000F06BFEF068012882
:1057E00060D1DFF8E080D8F8180000285AD1FFF720
:1057F00013FA3220C8F8180054E000F0AFFB04465A
:105800002A4DB5F918000146A14205DA621A132A99
:1058100002DA0446A4B206E0A14204DB091B132904
:1058200001DA0446A4B200F095FB0746224E012F90
:1058300007D07078012801D100F03BFE00203081B4
:1058400070703089322806D17078002803D100F0BA
:1058500030FE01207070DFF86C80707800280BD06B
:10586000D8F81800002807D1B5F918102046FFF71E
:1058700027F93220C8F81800D8F80000002811D104
:10588000707800280ED10A2094FBF0F10120FEF779
:1058900072FC01F0C3F801463846FFF7AFFD3089CE
:1058A000401C3081BDE8F0819F200020580200207C
:1058B000C0020020601E00203403002000000020F1
:1058C000D8000020DC1F0020322E30310000000004
:1058D000000000F8FE0301010103FEFCF0000000DF
:1058E0000000003F7FE0808080C07F3F0700000015
:1058F00000000008040406FFFF0000000000000094
:1059000000000000808080FFFF8080800000000099
:10591000000000060701010181C37F3E0000000076
:10592000000000E0F0D8CCC6C3C0C0E0000000001A
:105930000000000607818181C1633F1E0000000056
:10594000000000E0C080808181C37F3E0000000035
:1059500000000000C060380CFFFF000000000000E5
:105960000000060705040484FFFFC484060000004D
:10597000000000FFFF838383838383030000000014
:10598000000000E0C080808080C17F3F08000000F0
:10599000000000E0F89C8EC2C3C1818100000000BD
:1059A0000000003F7FC080808080C17F3F000000FA
:1059B0000000000F0303030383E33B0F0300000019
:1059C0000000000080E0781E0701000000000000D9
:1059D0000000187E7EC381818181677E3C000000CB
:1059E00000001C7EFFC180808081E37F3C000000BE
:1059F000000078FEC603010101039EFCF0000000D8
:105A000000000001018383C361713F0F01000000AA
:105A10000000000000000000000000000000000086
:105A20000000000000000000000000000000000076
:105A30000000000000000000F00000000000000076
:105A400000000101010101011F010101010101002B
:105A50000000000000000000000000000000000046
:105A60000001010101010101010101010101010028
:105A70000E11110EE0F80C060301010101021E00D7
:105A8000000000000F3F70C08080808080402000B8
:105A9000000000000000C0C0C0C000000000000006
:105AA0000000000000003030303000000000000036
:105AB00000F0FEFFF000007F7F7F7F0010188CC693
:105AC0006363C68C1810426331180C0C18316342A2
:105AD00000F01E1FF00000FF8080FF0042C68C18FF
:105AE0003030188CC64208183163C6C663311808B6
:105AF0008C8CC6C68C8CC6C68C8C31311818313152
:105B000018183131008C8C8C8C8C8C8C8C8C8C8CFF
:105B10008C8C8C00003131313131313131313131C6
:105B20003131310080C0603098CC66333366CC9818
:105B30003060C08088CC6633190C060303060C194C
:105B40003366CC88113366CC983060C0C060309822
:105B5000CC6633110103060C193366CCCC663319BD
:105B60000C06030100E0180404040418E000000F10
:105B70003040404040300F0000000808FC000000AA
:105B80000000000040407F40400000000078040416
:105B90000404048870000060504844424140700092
:105BA000003804048484C83000000038404040407D
:105BB00040211E00000080601008FE000000000769
:105BC000040444447F4444000000FC0484848404AE
:105BD000040000384141404040211E0000C0308890
:105BE000848484041800000F3140404040211E008E
:105BF000001C04048444340C04000000007E0100F6
:105C00000000000000708804040404887000001C78
:105C10002241414141221C0000F008040404041800
:105C2000E00000304142424222190700000000001B
:105C30000000000000000000000000000000000064
:105C40001C1CC03008040404083000000718204061
:105C500040402010A048006870479F490860704786
:105C60009E490870704738B50024254604E09D48D9
:105C700001F068F804196D1C0A2DF8D30A20B4FB52
:105C8000F0F040F6A651884204D3954803210170F4
:105C9000002032BD9221B0FBF1F0002500E06D1C28
:105CA000042D04D20FF29821695C8842F7D3681C56
:105CB00032BD00208C490A68D243920501D54FF4C9
:105CC00080700968C943490601D540F040000028AA
:105CD00012D082490A78012A0AD18A68824207D101
:105CE0004A68521C4A60162A06D340F40040B4E7C2
:105CF00000224A608860B0E7704730B47B494A6848
:105D0000D3081C46A4B20D78002D05D1C000486010
:105D100001220A70C0080FE0844201D2041B00E097
:105D2000241AA4B23D2C02D3C000486002E08018BF
:105D3000C01A48604868C00830BC704738B50020B9
:105D400000F001FC6A4810210160062000F019FCF7
:105D5000684D0A20288025E0002000F0EFFB6968EC
:105D600042186A60A968814200D20146A960E968C8
:105D7000884200D90846E860288801280FD1002110
:105D8000A868101AEA68801AC008FFF7B6FF044630
:105D90000020686041F28830E8600020A860288810
:105DA000401E288028880028D6D1204632BD52497E
:105DB0000A78002A08D1C000486001220A708110C8
:105DC00000EB5170C01070474A688018931002EBC6
:105DD0005372A0EBE2004860811000EB5170C010DC
:105DE000704738B50025434C0A20208029E0012067
:105DF00000F0A4FB2169411821616269824200D24E
:105E000002466261A269904200D91046A0612088D2
:105E1000012813D16069081AA169401AC008FFF768
:105E2000C6FF40F6E4414843000BA0F5FA75002098
:105E3000206141F28830A061002060612088401E0E
:105E4000208020880028D2D1284632BD10B5FFF727
:105E500075FF0446FFF7C5FF2849B4F5C87F02D394
:105E6000D120486006E0B0F5967F01DA4C6001E091
:105E7000D12048600120087010BD10B50446FFF71E
:105E80005DFF40F6B8318C4201D2B42200E0D2224C
:105E9000A4F57A7387246343B3FBF1F18918184A98
:105EA00040F6FF73984203D113885B1C138001E016
:105EB000002313801288022A02D2814200DA401A9B
:105EC0004FF47A710F4A01FB00204FF4707190FB80
:105ED000F1F080B210BD00008020002040200020A2
:105EE0003F20002000280140080801404C200020ED
:105EF000140C01405403002054200020F80300201B
:105F00007A200020A035020010B5044645F2555015
:105F100000F026FF032000F026FF04EB8400400081
:105F2000C00880B200F022FF00F023FF00F026FF3F
:105F3000012010BD80B500F01CFF012002BD000053
:105F4000240F0904DFF8780300787047DFF8701336
:105F500008707047DFF86C03808E7047D948C08E98
:105F6000704710B5D74C30220FF26C31201D00F075
:105F700011FFB4F9200041F29B01884202DB41F29B
:105F80009A00208410BDD048002101604160016169
:105F900041610F21018102214181012181817047ED
:105FA00030B40022C849488003460C88E01A888033
:105FB00000B2B0F5FA7F03DA01224D6945194D614F
:105FC00040F6C975AB4201D300202AE09C4205D2BD
:105FD0001B1B9BB2332B01D300224A611F2801DA1D
:105FE000002300E001230C894D896A434D696A430F
:105FF00000FB04228C89B1F90650451B6C4303FB5E
:1060000004220A61C880012A02DA0020086106E041
:1060100041F27170824202DB41F2707008610869DE
:1060200080B230BC7047A84A1180A64A884208D284
:10603000091A122902D3002191860AE002219186D1
:1060400007E0411A132902D20221918601E00121C1
:10605000918680B2A4E770B59A4CFFF773FF0128D0
:106060000BD003282AD0042800F0A680052800F0D1
:10607000FA80082800F0018170BDFFF7EBFD402891
:1060800002D0B0F5807F0AD12078012807D0032004
:10609000FFF75CFF002020878C48002101602078FA
:1060A000002800F00B8189488069002840F00681B3
:1060B00000202070BDE87040FFF7CFBD834DFFF793
:1060C000C9FD48F24001401A04D0C03802D040381F
:1060D0000CD018E0002000F036FA0520FFF736FF5C
:1060E000002068604FF4FA70E8600CE0002000F0D7
:1060F0002AFA0020FFF7B4FD0120FFF727FF012057
:106100002070C820A861B4F91E60686800280AD110
:106110003046FFF7B2FEE0863146FFF784FF00F01D
:1061200012FA1E206860FFF79EFD04280CDB002099
:1061300000F009FA0020FFF793FD0120FFF706FFAA
:1061400001202070C820A86100F001FA002801D1C8
:106150000020686000F062FC00281AD1208F00281F
:1061600003D101202087E06AA860208F002812D088
:10617000A86800280FD10020A086A86100F0E3F9EC
:106180000020FFF76AFD206B68610420FFF7DEFE48
:1061900001E000202087E08EB4F920108842C0F290
:1061A0008D80FDF7C5FF012802D10020FDF7C4FF57
:1061B0000820BDE87040C9E6B4F91C60B4F91E10AF
:1061C0003046814200DA0E46404D686800280AD108
:1061D0003046FFF752FEE0863146FFF724FF00F01D
:1061E000B2F91E206860FFF73EFD04280CDB00209A
:1061F00000F0A9F90020FFF733FD0120FFF7A6FE0C
:1062000001202070C820A86100F008FC012803D0FC
:10621000FFF720FD002806D00020A8610320FFF72B
:1062200095FE00202087E08EB4F92010884209DB1B
:10623000FDF77EFF012802D10020FDF77DFF082039
:10624000FFF784FE6869002838D1002000F07BF950
:106250000020FFF705FD01202070C820A861012063
:10626000BDE8704072E6194DE868002826D1032089
:10627000FFF76CFE0020286070BD144D686900288F
:1062800013D1B4F91E100846FFF7F7FDE086B4F904
:106290002010884206DA0320FFF758FE0020FDF7A1
:1062A0004BFF02E04FF4FA7068610948002805D0FE
:1062B000002000F048F907481021016070BD00007F
:1062C0008E02002054020020F81F0020DC1F002056
:1062D0004F650008140C014056455220312E310004
:1062E000000000000000000032000000000000007C
:1062F000D007B80B9A10E8036400010019000000F1
:10630000701700007017000010B5044610460A46CA
:106310000146204600F044FD204610BD0CB41CB5DB
:10632000044604A80190009401AB0A4600A907485E
:106330007844183000F078FD009900220A70002897
:106340005CBF0098001B16BC5DF80CFBAB1700008F
:1063500070B50C46154600F1200600213046C0B24B
:1063600000F08CF86D1C21462846C0B200F075F88C
:10637000044601213046C0B200F080F8214628468C
:10638000C0B2BDE8704068E0F8B50D4600F12006E7
:1063900000213046C0B200F071F8554C402020700A
:1063A000012000216F1C01E00155401CB842FBDBBD
:1063B000384600F011F801213046C0B200F05EF816
:1063C000402020700120002101E00155401CB8420E
:1063D000FBDB3846BDE8F2404649086046483C22AF
:1063E00002700968C9B2424801F0BCBC80B54FF4E4
:1063F0008070ADF8000003208DF8020010208DF8A9
:10640000030000A93D4801F0F1FC01BD10B58CB0BE
:1064100000A80FF2F001302201F08AFD002034497B
:1064200003E000AA825C4254401C2E28F9DB344C65
:106430004FF48071204601F032FD022000F097F801
:106440004FF48071204601F028FD022000F08FF803
:106450002E20FFF7C1FF0CB010BD10B50C4624492B
:1064600040220A70012203E014F8013B5354521CED
:106470008242F9DBFFF7B0FF204610BD30B583B094
:1064800000AA0FF2B00330CB30C28DF8050001290D
:1064900002D1B1208DF801000020154903E000AAC7
:1064A000825C4254401C0828F9DB0820FFF794FF67
:1064B00037BD10B500212020FFF7E0FF0C4C402035
:1064C00020707F220021601CFFF71EFF8020FFF755
:1064D00083FF01212020FFF7D1FF402020707F2281
:1064E0000021601CFFF710FF8020BDE8104073E71B
:1064F000241400208420002020140020000C0140DF
:106500000008014080AE80D5805280A8800F80C0F6
:1065100080D38000804080A0808D801480DA80024B
:10652000808180E080D980F180DB803080A480A6EB
:1065300080AF000080B080218020807FDFF894143D
:1065400031F810007047DFF89014C8607047DFF82A
:106550008804C06870470020024605E0DFF87C141C
:1065600001EB80014A60401C0728F7D37047DFF831
:10657000681400EB80029000886088680028FCD1D5
:106580007047DFF8541400EB800250008860886880
:106590000028FCD17047DFF848144FF400620A610C
:1065A0004FF480520A61002808680BD120F4404063
:1065B00040F440500860086820F4402040F4403027
:1065C0000860704720F4804040F43040086008685C
:1065D00020F4802040F430200860704780B501F03E
:1065E000D3FC102001F0ACFD012001F0A1FDDFF88B
:1065F000F4034168DFF8F02311434160016841F082
:1066000080710160012001F0D8FC012001F0D8FC6C
:10661000392001F05AFD0028FAD0022001F0D3FC05
:1066200001F0D8FC0828FBD10121172001F021FD41
:10663000012140F20C6001F027FD0121032001F04F
:106640002EFD0120BDE8024001F0C9BC80B5014625
:106650004FF0006001F027FE4FF4A06001F0F0FD64
:1066600014208DF8000002208DF8010000208DF824
:10667000020001208DF8030000A801F0E6FD01BD35
:1066800038B5DA4C4FF6FF70E060D9492160D9493E
:106690006160D94DE860D94828604FF08830686063
:1066A0008020ADF8000000208DF8030000A92046EE
:1066B00001F09CFB4FF48070ADF8000003208DF8D2
:1066C000020010208DF8030000A9284601F08EFB7F
:1066D0000121CB4801F0E5FB1020ADF800000320BC
:1066E0008DF8020010208DF8030000A9284601F063
:1066F0007DFB0120ADF8000000208DF8030000A90B
:10670000284601F073FB0220ADF8000000208DF850
:10671000030000A9284601F069FB4FF41070ADF8A2
:10672000000048208DF8030000A9204601F05EFB20
:1067300031BD2DE9F04190B04FF420442546B14ED3
:10674000304601F0C5FDB0480590A24806900020F3
:106750000790022008900020099080200A904FF4B2
:1067600080700B904FF480600C9020200D904FF4BF
:1067700000500E9000200F9005A9304601F01EFE3B
:106780000121304601F035FEA04E304600F022FADD
:106790000020009001208DF804008DF805004FF4D2
:1067A000602702970020039002208DF8100000A9B6
:1067B000304600F03EFADFF85882404600F00AFA10
:1067C0000020009001208DF804008DF8050002974C
:1067D0000020039001208DF8100000A9404600F031
:1067E00028FA072302221946304600F06BFA0723E5
:1067F00001220821304600F065FA05230122092113
:10680000404600F05FFA0121304600F03BFA0121DA
:10681000304600F02CFA0121404600F028FA3046BC
:1068200000F03BFA304600F03DFA002804D028463C
:10683000451E0028F6D115E0404600F02EFA254608
:10684000404600F02FFA002804D02846451E0028B4
:10685000F6D107E00121304600F029FA0121404637
:1068600000F025FA10B0BDE8F08100B585B04FF416
:10687000E06001F0E5FC2F20ADF8040042F20F705B
:10688000ADF808000020ADF80A00ADF8060001A937
:106890004FF0804001F0D6FD01214FF0804001F023
:1068A0002FFE012211464FF0804001F01FFE012112
:1068B0004FF0804001F00EFE1C208DF800000020FB
:1068C0008DF8010001208DF802008DF8030000A86A
:1068D00001F0BBFC05B000BD1FB54FF4E06001F056
:1068E000AFFC2F20ADF804003120ADF808004FF4C4
:1068F0008070ADF80A000020ADF80600454C01A9F3
:10690000204601F09FFD0121204601F0F9FD012202
:106910001146204601F0EAFD0121204601F0DAFD92
:106920001D208DF8000000208DF8010001208DF859
:1069300002008DF8030000A801F087FC1FBD80B5A0
:1069400001214FF0804001F0E7FD002008E001EB5D
:1069500080014A68002A02D04A68521E4A60401CE0
:106960001E490728F3DB0878401C08700321084201
:1069700003D1BDE80140FFF79CB901BD80B50121FD
:10698000244801F0C9FD14484168002902D041683B
:10699000491E41608168002902D08168491E8160DA
:1069A000C16800290DD0C168491EC16001781A4A2A
:1069B000002902D01023536001E010231360C94363
:1069C0000170C168002904D1134910224A600021D6
:1069D000017001BD7C20002010200020D81F002065
:1069E00004080140001002400A84680000080140C9
:1069F0008888880883B8BB8B000C014000888344DA
:106A000000013000080002404C24014000240140F5
:106A10000028014000040040100C01406648008836
:106A2000704780B5664A1D231370664A02231360BF
:106A3000654A00231370654B187059701D2202219E
:106A4000184601F08FF9012002BD10B55D49012201
:106A50000A605D4900220A7059491D220A705B4C88
:106A6000207003460121204601F093F9584821780F
:106A70000173012010BD00212A20D2E701212A2024
:106A8000CFE780B5FFF7F7FF02210E20FFF7C9FF20
:106A900003212A20FFF7C5FF00212B20FFF7C1FFAC
:106AA000BDE80140EAE71CB5494C0622002120461A
:106AB000FFF72AFC0020FFF7C8FF00281AD0207B30
:106AC000000717D50120FFF7C0FF002812D0207B58
:106AD0008DF80000207000A8417861709DF80210C8
:106AE00021719DF803106171017921724079607202
:106AF000012016BD002016BD70B41C4600232F4D8A
:106B00001E462E8000F11006964203DBA0F110060F
:106B1000B24200DA012301F11006A64203DBA1F123
:106B20001006B44200DA012300F13006964202DB7F
:106B30003038824201DA0120288001F13000A04281
:106B400003DBA1F13000844201DA012028801846DD
:106B500070BC70471E480178407840EA0120000967
:106B6000802903D3C043401C0005000D704718481E
:106B70000179407940EA01200009802903D3C0430C
:106B8000401C0005000D704738B50B4CFFF78BFF1C
:106B9000002805D0FFF7DEFF0546FFF7E8FF00E01D
:106BA0006588A1880B462A466088FFF7A5FF2080EC
:106BB000658031BD00000000742000209820002076
:106BC0002014002084200020211400202414002000
:106BD0003020002080B55D4988420BD101214FF45F
:106BE000007001F067FA00214FF40070BDE8044026
:106BF00001F060BA564988420BD101214FF4806000
:106C000001F058FA00214FF48060BDE8044001F023
:106C100051BA504988420BD101214FF4004001F094
:106C200049FA00214FF40040BDE8044001F042BAA7
:106C300001BD4268484B1A400B681A430B7942EA7F
:106C4000032242608268454B1A40CB681A438B6826
:106C50001A434B7942EA43028260C26A22F470020C
:106C6000097C491EC9B242EA0151C162704700293C
:106C7000816803D041F001018160704749084900F3
:106C8000816070470029816803D041F48071816080
:106C9000704721F4807181607047816841F008017C
:106CA000816070478068C00800F0010070470029CB
:106CB000816803D041F4A0018160704721F4A001F4
:106CC0008160704770B407240A290BD3C568A1F10D
:106CD0000A0606EB4606B44025EA0404B340234303
:106CE000C36008E0056901EB4106B44025EA0404ED
:106CF000B340234303611F23072A0AD2446B521E69
:106D000002EB8202934024EA03039140194341635A
:106D100016E00D2A0AD2046BD21F02EB82029340C6
:106D200024EA030391401943016309E0C46A0D3A60
:106D300002EB8202934024EA030391401943C162AB
:106D400070BC7047C06C80B27047000000240140E6
:106D500000280140003C0140FFFEF0FFFDF7F1FF7D
:106D60000949086070470949086070470849086088
:106D7000704705484AF6AA210160704702484CF660
:106D8000CC410160704700000030004004300040FA
:106D90000830004010B5044601F0BAF8204610BD96
:106DA00062F30F2262F31F42401810F0030308D071
:106DB000C91A1FD3DB0748BF00F8012D28BF20F8F0
:106DC000022D130030B414461546103928BF20E9AF
:106DD0003C00FAD8490728BF20E90C0048BF40F81A
:106DE000042D890028BF20F8022D48BF00F8012D8E
:106DF00030BC7047C91818BF00F8012DCB0728BF59
:106E000000F8012D704750F8041B61B150F8042BB5
:106E1000D30744BFA9F101039A18002342F8043BA9
:106E2000091FFAD1EFE770472DE9F04FA1B0804676
:106E300017461D46029102AE0020706211AC6FF041
:106E400000490AE017F8011B0298C0470290002889
:106E500000F06A82706A401C7062387808B9706A03
:106E600064E22528EED10020F06030617061B061ED
:106E7000F061306201E040F0010017F8011F2029A5
:106E8000F9D023290DD02B2904D02D2906D0302963
:106E90000AD00CE040F0020080B2EEE740F00400BF
:106EA000FAE740F00800F7E740F01000F4E72A297D
:106EB0000DD129680A1D2A600968F162002904D5EC
:106EC0004942F16240F0040080B27F1C12E00021D0
:106ED000F16209E0F16A494505D001EB810302EB5B
:106EE00043013039F1627F1C3A78A2F13001C9B216
:106EF0000A29EFD339782E2903D04FF0FF31B16240
:106F00001DE017F8011F2A2906D129680A1D2A60E9
:106F10000968B1627F1C12E00021B16209E0B16A28
:106F2000494505D001EB810302EB43013039B162E1
:106F30007F1C3A78A2F13001C9B20A29EFD330861A
:106F400039780FF6983001F0FFFA08B117F8010B05
:106F50008DF83A009DF83A00682804D138786828FE
:106F60000AD1622005E06C2804BF38786C2803D170
:106F700071208DF83A007F1C11A8B0603978B1F10A
:106F8000250023D01C3871D0001F02286ED9133879
:106F900000F09680093869D0801E00F02781401EDD
:106FA00000F0D180401E022860D9001F00F0CB8085
:106FB000401F30D0401E00F08380401E20D0C01EF5
:106FC00009D0801E7CD0C01E7AD017E1F068411C29
:106FD000F16025211BE12868011D296000687060AF
:106FE000B26A002A02D501F0BBFA07E0002101F0E5
:106FF000D3FA00281ABF7168401AB06A306107E1FD
:107000002868011D296000680021CDE9000111A850
:1070100070607821E6E09DF83A00622818D0682870
:1070200006D06A280BD06C2819D0712807D016E03A
:107030002868011D2960716A00680180E8E02A68FB
:10704000101D2860706AC1171268C2E90001DFE0F4
:107050002868011D2960716A00680170D8E02868FD
:10706000011D2960716A00680160D1E02868C01DB7
:1070700020F00700286000F108022A60D0E9002310
:10708000CDE90023002B04D5F068421CF2602D22CC
:107090000DE0308E820704D5F068421CF2602B228E
:1070A00005E0C00704D5F068421CF26020220255BA
:1070B000F06811AA8018706000A800F0C5F9A7E078
:1070C0009DF83A006C2808BF2A6811D0712808BFC3
:1070D0002A6802D06A282A680AD1D21D22F0070243
:1070E0002A6094460CF108022A60DCE9002303E0E0
:1070F000131D2B6012680023CDE90023682808BF08
:1071000092B207D0622808BFD2B203D0742818BF49
:107110007A2802D10023CDE9002396F83000000739
:107120005CD5DDE90023002B08BF002A56D041F0D2
:107130002000782852D1F06830220255401C421CB1
:10714000F26001554AE09DF83A0062280CD06828A8
:1071500010D06A281AD06C2823D0712816D0742831
:107160001FD07A280CD01CE02868021D2A6090F9F4
:1071700000201AE02868021D2A60B0F9002014E0FF
:107180002868021D2A60026800230FE02868C01DDD
:1071900020F00700286000F108022A60D0E90023EF
:1071A00004E02868021D2A600268D317CDE9002395
:1071B000002B04DAF068421CF2602D220DE0308EC4
:1071C000820704D5F068421CF2602B2205E0C0075C
:1071D00004D5F068421CF26020220255F06811AA22
:1071E0008018706000A800F0A4F811E0F068411C5D
:1071F000F16029680A1D2A60096808E0F068421CED
:10720000F2602522025519B1F068421CF260015566
:107210007F1CF06AF168401AB169401A3169401A5E
:10722000F169401A7169401A316AA0EB010A96F8B7
:107230003000400711D420208DF84000BAF1010F32
:107240000BDBD346012310AA00A9404600F02FFC17
:10725000002869D1BBF1010BF4D1F36811AA00A990
:10726000404600F024FC00285ED130208DF840001C
:10727000D6F818B0BBF1010F0ADB012310AA00A950
:10728000404600F014FC00284ED1BBF1010BF4D1B4
:107290003369726800A9404600F009FC002843D118
:1072A00030208DF84000D6F81CB0BBF1010F09DB8F
:1072B000012310AA00A9404600F0F9FBA0BBBBF1D6
:1072C000010BF5D1736930697168421800A9404615
:1072D00000F0EDFB40BB30208DF84000D6F820B028
:1072E000BBF1010F09DB012310AA00A9404600F001
:1072F000DEFBC8B9BBF1010BF5D196F830004007B1
:107300007FF5ABAD20208DF84000BAF1010FFFF6FC
:10731000A4AD012310AA00A9404600F0C8FB18B98B
:10732000BAF1010AF5D198E54FF0FF3021B0BDE880
:10733000F08F2DE9FA4782B0064635696F2908BFFC
:10734000082705D041F02000782814BF0A2710270D
:107350003C24D6E90001804689469DF80820642A2D
:1073600018BF692A05D1002903DAD8F1000869EBB2
:107370004909B9F1000F08BFB8F1000F0CD1306B0B
:1073800050B9082F3BD196F83800000737D53B2479
:10739000302085F83B0032E0A4F1010A5446FB1787
:1073A000404649463A4601F023F9CDE90089B846FE
:1073B000A8FB0023DDE90089A8EB02023032D2B23B
:1073C0003A2A03D39DF80830513B9A180AF8052051
:1073D00080465FEA010908BFB8F1000F03D0F068EA
:1073E00061198842D8D3082F09D196F838000007D0
:1073F00005D5605D302802D0641E30206055C4F190
:107400003C00B0616119F160316B884207DA081AFB
:107410003062308F4FF6EF710840308710E000295E
:107420000ED596F8381001F01401102908D1716BAF
:107430007269891A326A891A081A0128A8BF30624B
:1074400004B0BDE8F08700002DE9F24F8EB004468D
:1074500004AED4E90001CDE902019DF8380040F006
:1074600020008DF8000061280BD0206B002848BF59
:10747000062005D404BF9DF80000672801D1012033
:1074800020636168C1F30A5040F2FF7398421ED135
:10749000080304BF206800280AD10320A0619DF8DA
:1074A00038006138C0B21A2838D30FF2446109E0BD
:1074B0000320A0619DF838006138C0B21A282AD391
:1074C0000FF224610322E06800F022FDB9E10128F7
:1074D00017DA204601F003F9012812DB002700200B
:1074E0009DF80010612920D1E168302201F8012BBC
:1074F0004A1CE2609DF83820612A0CBF782258228D
:107500000FE040F2FE31626861F31E526260471A7A
:107510004FF0FF30E4E70FF2CC51D3E70FF2CC513C
:10752000D0E70A706169891C616110B900250027E4
:107530007EE19DF80000612840F09780206B0028D4
:107540004CBF2125451C2DB26E1CD4E90089DDE914
:1075500002010022002301F0E3F83ABF89F0004065
:10756000CDE90280CDE902893F1F8DF810200DF191
:107570001108012E35DBDDE902010022002301F0B4
:10758000E7F82ED21C2102A801F0FAF8DDE9020189
:1075900001F07CF98146F61F012E09DB01F0A2F90A
:1075A00002460B46DDE9020101F0B4F9CDE9020122
:1075B00008F20700072105E009F00F0200F8012D8D
:1075C0004FEA2919B9F1010F01DB491EF4D5491E13
:1075D0005CBF002200F8012DF9D500F20708012E4A
:1075E000C9DA0DF11100A8EB00010DF11106A94255
:1075F000B8BF0D462DB2002D30D42846884206DA99
:1076000004A941184978082928BF0F2100D2002178
:1076100004AA821800E06D1E401E12F801398B4248
:10762000F9D00F2904D104A941184A78521C4A7094
:10763000002802D504AE6D1C3F1D2DB2681E0DD46E
:1076400081190A783032D2B23A2A03D39DF8383001
:107650003A3B9A1801F80129401EF2D5206B002808
:1076600040F1E680681E2063E2E0DDE902010022CD
:10767000002301F055F83CBF81F00041CDE9020143
:107680003FB247F297507843474990FBF1F73FB23A
:10769000C7F107069246DFF814B1012E19DBDDE9C8
:1076A0000289F00707D552465B464046494601F03D
:1076B000F1F98046894676105046594652465B4657
:1076C00001F0E8F982468B46002EEAD1CDE9028925
:1076D00021E076429046DFF8D89012E0F00707D517
:1076E00052465B464046494601F0D4F980468946F9
:1076F00076105046594652465B4601F0CBF9824619
:107700008B46002EEAD1DDE9020142464B4601F0EC
:1077100093FACDE902019DF8000066280CBF07F13D
:107720000A000620216B4518142DA8BF1325302010
:107730008DF810000DF11106DFF87890012D3BDB7C
:10774000DDE9020101F0B8F806F1080104220A2679
:10775000B0FBF6F303EB830EA0EB4E00303001F8E4
:10776000010DB3FBF6F000EB8006A3EB46033033CC
:1077700001F8013D521EEAD101F10806083D012D34
:10778000DCDBDDE9020101F097F801F0B5F8024613
:107790000B46DDE9020101F0BDF800224B4601F085
:1077A00079F9CDE90201CBE7A08601000000244071
:1077B0000000F03F84D797410DF11100301A0DF110
:1077C000110602E0401E7F1E761C31783029F9D068
:1077D0009DF80010662902D13FB2791C03E06529AB
:1077E0000CBF01210021226B8D182DB2A842B8BF19
:1077F00005462DB2002D1BD42946814204DA885D4E
:10780000352828BF392000D230208A19521E00E0C6
:107810006D1E491E12F801398342F9D0392802D170
:10782000885D401C8855002902D5761E6D1C7F1C82
:107830003FB200972BB232469DF83810204600F038
:1078400003F80FB0BDE8F08F2DE9F04385B0054691
:10785000894617461E46D5F83080012E02DA0126E9
:107860000FF2902749F02000BDF93040662808BF8C
:10787000641C18D0672840F082806FF003008442B7
:10788000C0F28380444580F28080641C95F8380003
:10789000000702D44645B8BFB04624B2B8EB04088E
:1078A00048BF4FF00008E868A96924B2012C25DA26
:1078B0004A1C30230B54B8F1010F03DA95F8381045
:1078C000090702D52E211154521CAA6118EB040F8E
:1078D000B8BFC8F1000424B261426962A044B04557
:1078E000B8BF464636B2EE6132463946AB69181823
:1078F00000F00EFBA8EB0600A862C1E00818A64243
:1079000018DA3246394600F003FBA9697118A961FB
:10791000A01B6862B8F1010F03DA95F83800000780
:1079200005D5E8682E220A54E869401CE861C5F8CC
:107930002880A5E02246394600F0EAFAA869201816
:10794000361BB8F1010F03DA95F83810090703D593
:10795000E9682E224254401CA86136B2B045B8BF37
:10796000464636B23246E119EB68C01800F0D0FA4C
:10797000A8693018A861A8EB0600686280E0B9F138
:10798000610F16D14FF0700918E0464504DA95F8FA
:107990003810090758BFB046B8F1010848BF4FF08A
:1079A0000008B9F1670F14BF4FF045094FF06509A2
:1079B00004E0B9F1410F08BF4FF05009A9694A1C12
:1079C000E86817F8013B0B54B8F1010F05DA95F898
:1079D0003810090758BFAA6117D52E211154531C1E
:1079E000AB61B8F1010F10DB761E36B2B045B8BFFF
:1079F000464636B232463946181800F089FAA86968
:107A00003018A861A8EB06006862A869E968471801
:107A100007F8019B002C03D42B2007F8010B03E08F
:107A20002D2007F8010B644200260DF1080809E03B
:107A30000A22214600A801F022FA019808F8010B59
:107A4000009C761C24B2012CF2DA022E06DA49F0F0
:107A50002000652804BF302007F8010B4EB9302004
:107A600007F8010B07E0761E02A8305C303007F8FB
:107A7000010B012EF7DAA869E9684018381AE861A5
:107A800095F8380000F0140010280DD16869A96934
:107A90000818696A0818E9690818A96A0818696B5A
:107AA0008842BCBF081A286205B0BDE8F083F8B56B
:107AB00004460D4616461F46002077B116F8011BF6
:107AC000A868A047A86030B1E86A401CE8620020BE
:107AD0007F1EF3D1F2BD4FF0FF30F2BD686A6C74C7
:107AE0007A4C00006E616E004E414E00696E660079
:107AF000494E460030000268531C03601170704705
:107B000010B586B0FEF772FC934C3C202070C0206C
:107B1000ADF8000003208DF802001C208DF8030052
:107B200000A98E4800F062F90020ADF808004BF67D
:107B3000FF70ADF80A002078ADF80C004FF48060BB
:107B4000ADF80E004FF48040ADF81000844801906D
:107B5000804C01A9204601F099F90121204601F04D
:107B6000F5F906B010BD022000E0401EFDD17047BF
:107B700038B504460D46012D03D12146774800F063
:107B80008CF9002D05D121467448BDE8344000F041
:107B900086B931BD80B50121082000F075FAC020FA
:107BA000ADF8000014208DF8030003208DF80200CA
:107BB00000A96A4800F01AF900214020FFF7D8FF19
:107BC00001218020FFF7D4FF01214020FFF7D0FFE3
:107BD0000520FFF7C8FF00218020FFF7C9FF05201F
:107BE000FFF7C1FF00214020FFF7C2FF01BD80B5B4
:107BF00000214020FFF7BCFF00218020FFF7B8FFE5
:107C00000520FFF7B0FF01214020FFF7B1FF05205D
:107C1000FFF7A9FF01218020FFF7AAFF0520FFF74A
:107C2000A2FF00214020FFF7A3FF0520BDE802408E
:107C300099E738B5044608250EE000218020FFF7BB
:107C400097FF0520FFF78FFF01214020FFF790FFEE
:107C50000520FFF788FF64002846451EC0B20028B3
:107C60000AD000214020FFF783FF2006E5D501213F
:107C70008020FFF77DFFE4E700214020FFF778FF39
:107C800001218020FFF774FFFF2400E0641EE4B2AE
:107C9000002C18D00520FFF766FF80212F4800F048
:107CA000F5F80028F2D101214020FFF761FF0520FF
:107CB000FFF759FF00214020FFF75AFF0520FFF78B
:107CC00052FF012032BD002032BD70B504460825A8
:107CD000002601218020FFF74BFF16E00021402005
:107CE000FFF746FF0520FFF73EFF01214020FFF789
:107CF0003FFF0520FFF737FF76008021174800F08F
:107D0000C5F8002801D046F001062846451EC0B23D
:107D10000028E3D100214020FFF72AFF002C04D1E6
:107D200001218020FFF724FF03E000218020FFF7DE
:107D30001FFF0520FFF717FF01214020FFF718FF65
:107D40000520FFF710FF00214020FFF711FF30460C
:107D5000C0B270BD0054004020140020000C01404F
:107D6000A086010070B504460D461646FFF712FFC7
:107D70007000C0B2FFF75DFF03E014F8010BFFF7DE
:107D800058FF2846451EC0B20028F6D1BDE8704015
:107D90002DE7F8B504460D4616461F46FFF7FAFED6
:107DA00076003046C0B2FFF744FF3846FFF741FF88
:107DB000FFF7F0FE46F00100C0B2FFF73AFF04E023
:107DC0000120FFF782FF04F8010B2846451E00281A
:107DD00008D0EDB2002DF3D10020FFF776FF04F8B4
:107DE000010BF2E7BDE8F14001E70000F0B4002329
:107DF000CC7804F00F02E40601D58C7822430C887D
:107E0000E4B2002C1CD0046803E0482D00D10661C8
:107E10005B1C082B13D2012505FA03F635460F88A3
:107E20002F40AF42F4D19D000F27AF40BC4302FA70
:107E300005F52C43CD78282DE7D14661E8E70460AD
:107E40000B88B3F5807F1FD34468002319E0012518
:107E500003F1080605FA06F635460F882F40AF42B3
:107E60000ED19D000F27AF40BC4302FA05F52C430D
:107E7000CD78282D00D14661CD78482D00D10661FE
:107E80005B1C082BE3D34460F0BC70470022806881
:107E9000084200D0012210467047016170474161DD
:107EA000704770B4194A002801D5946900E014683D
:107EB000C0F3034583B200F44016B6F5401F06D167
:107EC00024F07064156825F0706515600FE0C60237
:107ED00006D5032606FA05F5AC4344F0706406E0C7
:107EE000450D2D0103FA05F5AC4344F070640029FB
:107EF00004D0410D090103FA01F10C43002801D51A
:107F0000946100E0146070BC704700000400014000
:107F100062B38B0708D0521E11F8013B00F8013BF9
:107F200000F024808B07F6D1830740F0208000BF4B
:107F3000103A07D330B4B1E83810103AA0E838103E
:107F4000F9D230BC530724BFB1E80810A0E80810EC
:107F500044BF51F8043B40F8043BD20724BF31F83A
:107F6000022B20F8022B44BF0B7803707047083AAD
:107F700007D3B1E80810083A40F8043B40F804CBB6
:107F8000F7D25307E4E700005B48016841F00101C4
:107F900001604168594A114041600168584A1140E6
:107FA0000160016821F480210160416821F4FE0133
:107FB00041604FF41F01816070475249086070476B
:107FC00052490860704750490A68920850EA820096
:107FD000086070474C48006800F00C0070474C493E
:107FE0000860704710B448490A6802F00C02082A79
:107FF00018D10A6802F470120B6803F48033920CF3
:10800000921C002B03D1434B5A4302600CE00B68D7
:108010009B0303D53F4B5A43026005E03E4B5A4356
:10802000026001E03C4A02600A6802F0F0033B4A49
:108030001B099B5C046824FA03F343600C6804F496
:10804000E064240AA45CE34083600B6803F460539B
:10805000DB0A9B5C446824FA03F3C360096801F4FB
:10806000404102EB9131097CB3FBF1F1016110BC9D
:1080700070472B4A0029116802D0084310607047EE
:1080800021EA000010607047264A0029116802D0DA
:1080900008431060704721EA000010607047224AD0
:1080A0000029116802D008431060704721EA0000DF
:1080B000106070471D4A0029116802D00843106003
:1080C000704721EA000010607047002142090A4B06
:1080D000012A01D11A6804E0022A01D11A6A00E0DB
:1080E0005A6A012300F01F0003FA00F0024200D098
:1080F0001946084670470000001002400000FFF8D3
:10810000FFFFF6FE000042420410024060004242BF
:10811000D800424200093D0000127A00D803002036
:1081200014100240181002401C1002400C100240B3
:10813000DFF8D4100A6802F0380210430860704774
:10814000DFF8C4100A6822F010020A600A681043BF
:1081500008607047DFF8B400DFF8B4100160DFF8A2
:10816000B41001607047DFF8B000016841F0800191
:108170000160704738B505464FF4302000F050F8E4
:10818000042813D1DFF89040206840F002002060FE
:108190006560206840F0400020604FF4302000F01F
:1081A0003FF8216841F6FD721140216032BD70B583
:1081B00004460D464FF4005000F032F804280ED16A
:1081C000154E306840F00100306025804FF40050BB
:1081D00000F026F8316841F6FE721140316070BD42
:1081E0000E490860704704200C490A68D20701D57F
:1081F000012070470A68520701D5022070470968BC
:10820000C90600D503207047002002400420024028
:1082100023016745AB89EFCD102002400C200240BE
:1082200010B50446FFF7DFFF02E0FFF7DCFF641E36
:10823000012801D1002CF8D1002C00D1052010BD5F
:108240001C4908431C490860704770B403781A46FB
:108250000121C478002C1DD0174B1B6803F4E06388
:10826000C3F5E0631B0A4478C3F10405AC4085788C
:108270000F2626FA03F32B4023431B010F4C135503
:10828000007842110E4B00F01F0001FA00F043F895
:10829000220006E050110B4A03F01F03994042F8F8
:1082A000201070BC7047084A114008430749086015
:1082B000704700000000FA050CED00E000E400E06B
:1082C00000E100E080E100E080FFFF1F08ED00E03A
:1082D00001684FF6FE7211400160002101604160AB
:1082E0008160C1604949884205D14948016841F02F
:1082F0000F01016070474749884205D14448016831
:1083000041F0F001016070474349884205D140487F
:10831000016841F47061016070474049884205D1AD
:108320003B48016841F47041016070473C49884214
:1083300005D13748016841F470210160704739491F
:10834000884205D13248016841F4700101607047EC
:108350003549884205D12E48016841F070610160BD
:1083600070473249884205D13148016841F00F0118
:10837000016070472F49884205D12D48016841F0BE
:10838000F001016070472C49884205D128480168F6
:1083900041F47061016070472849884205D1244842
:1083A000016841F47041016070472549884204D159
:1083B0001F48016841F470210160704702686FF343
:1083C0000E128B681A430B6A1A430B691A434B69E6
:1083D0001A438B691A43CB691A434B6A1A438B6A57
:1083E0001A430260CA6842600A6882604968C160D4
:1083F00070470029016803D041F001010160704716
:108400004FF6FE7211400160704700000800024004
:10841000040002401C0002403000024044000240C0
:10842000580002406C0002408000024008040240F4
:10843000040402401C040240300402404404024090
:108440005804024010B40388DFF8D420904212D0C0
:10845000DFF8E440A0420ED0B0F1804F0BD0DFF83F
:10846000C440A04207D0DFF8C040A04203D0DFF8EC
:10847000BC40A04204D14FF68F7423404C88234364
:10848000DFF8AC40A04208D0DFF8A840A04204D0FA
:108490004FF6FF442340CC88234303808B88838599
:1084A0000B88038590420FD0DFF88C2090420BD0D0
:1084B000DFF88820904207D0DFF88420904203D074
:1084C000DFF88020904201D1097A01860121818262
:1084D00010BC70470029018803D041F001010180E0
:1084E00070474FF6FE72114001807047002A828962
:1084F00002D011438181704722EA010181817047D6
:108500000029018803D041F08001018070474FF6B7
:108510007F72114001807047C9430182704700009B
:10852000002C01400004004000080040000C004006
:1085300000100040001400400034014000400140A1
:1085400000440140004801400278C9B28A421AB191
:108550001CBF10F8012FF9E718BF0020704700007A
:1085600000F10103810704D010F8011B89B18107D4
:10857000FAD10268B2F10131914311F0803F04BF9A
:1085800050F8042FF6E710F8011B11B110F8011B89
:10859000FBE7C01A70470000C9B2830706D0521E1D
:1085A00022D310F8013B9942F7D11FE0083A13D3C8
:1085B00002F1040241EA012141EA014150F8043B81
:1085C000121F21BF4B40A3F1013C2CEA030C1CF00D
:1085D000803FF3D0C9B2001F083210F8013B521E91
:1085E00028BF91EA030FF8D818BF0120401E70473A
:1085F0001B4213D1094236D12AB18446B0FBF2F0B6
:1086000002FB10C2704700F0ADBCFCD30022002377
:1086100070470B000200002100207047904271EB70
:10862000030CF6D370B5B1FA81F4B3FA83F52C1BC1
:10863000A340C4F1200532FA05F63343A2405FF0AF
:108640000046E64002E05B085FEA3202841A71EB02
:10865000030524BF204629467641F4D302000B00CF
:108660003000002170BD012ACFD970B5140C20D084
:10867000B1FA81F4B2FA82F5C4F120046419B4F1BC
:108680002006D6D3B2405FF00044F440002502E05B
:1086900052085FEA3303C61A71EB020E24BF30465C
:1086A000714664416D41F3D302000B0020002900A4
:1086B00070BD0C46B1FBF2F102FB11452D0445EAF9
:1086C0001045B5FBF2F402FB145580B240EA0545B3
:1086D000B5FBF2F002FB105240EA044070BD30B42A
:1086E000436803F0004201211B031B0B436004BFDE
:1086F0000368002B08D10DE00368DD0F45EA440450
:1087000044605B000360491E4468E302F4D5230320
:108710001B0B436043681A434260084630BC7047F5
:108720004FF4001C1CEB410F94BF1CEB430F09E0FE
:1087300041EA030C50EA4C0C52EA0C0C03D2994269
:1087400008BF9042704714BF8B42824270470000BE
:108750004FF4001C1CEB410F94BF1CEB430F09E0CE
:1087600041EA030C50EA4C0C52EA0C0C03D28B4247
:1087700008BF8242704714BF994290427047000080
:1087800070B504460D466068C0F30A5040F2FF72AF
:10879000904207D16068000304BF2068002817D00A
:1087A000022070BD20B92046FFF799FF012867DA43
:1087B000012D0FDB40F2FF71091A8D420AD3606868
:1087C000002847BF00202F4900202F49C4E900019D
:1087D000012070BD4142A942616806DA6FF31E5163
:1087E000401941EA0050606041E001F0004101227F
:1087F000636862F31F536360401E451905F135003D
:10880000352803D361600020206070BD002215F17F
:108810001F0F04DA20352268236000206060684260
:1088200013D0521E9241D243C0F1200325689D40CF
:1088300055EAD2722568C540666806FA03F32B43F1
:108840002360636823FA00F060606068084360603A
:10885000B2F1004F03D80DD12078C0070AD52068A7
:10886000401C2060206828B96068401C60604FF0A0
:10887000FF3070BD6068884204BF20680028F6D1D0
:10888000002070BD0000F0FF0000F07FF446400DB6
:1088900040EAC120490006D200F014F8004248BF67
:1088A0006FF00040604700F00DF84FF00041884243
:1088B0008CBF084640426047400D40EAC120490055
:1088C00080F00D8040F00040490DA1F58061491C09
:1088D00005D4D1F11F0154BFC840C01770474FF0F5
:1088E00000007047010040F10980F446404200F06A
:1088F00005F851F000416047010000BF09D0B0FA0F
:1089000080F18840C91CC1F58461090501EBD021C3
:108910004005704770B44FF0004591EA030F44BF23
:108920006B4000F021BB00BF841A71EB030604D238
:108930006E40001BB141121973414FF4001C1CEB37
:10894000410F34BF7CEB430684E00C0DA4EB1356BF
:10895000362E7DDC012E43DC45EAC32343EA525325
:1089600012BFD20292025B08240545EAC12141EA06
:108970005051D2EBC020994125D407D1B0FA80F6EE
:1089800010FA06F164D00020203608E0B1FA81F632
:10899000B140C6F1200220FA02F21143B0404FEA82
:1089A000F474B4EB465434F001064FEA74040AD868
:1089B000D6F50016760D04F00044F04061FA06F298
:1089C0005040F1404840C00A40EA415021F0004187
:1089D00028BF5FEA500550F1000044EBD12137E099
:1089E00045EAC323DB0A45EAC121C90AB6F12005DD
:1089F0000EDD42EA0242120CC5F1200603FA06F629
:108A0000EB4042EA06056D42984161F100010DE03C
:108A100062FA06F5F240554063FA06FC82EA0C025F
:108A2000F3405A406D42904161EB030111F4801F05
:108A300005D1641E620502D06D004041494121F418
:108A40008011430875F1004350F1000041EB0451DF
:108A500070BC70471CEB410F15D223F0004352EA63
:108A600043060BD04FEA4C0CBCEB410F04D80C0D65
:108A7000661E342EB7DDEBE7801A994150EA4106B5
:108A800008BF0021E4E708BF1CEB430F28BF6FF0CD
:108A90000001DDE7B0B581EA030C0CF0004C40F2B8
:108AA000FF7515EA11541DBF15EA1357AC42AF42CA
:108AB00039E0E41923EA455343F48013C90241F035
:108AC000004141EA505EC7021100A7FB02020028E4
:108AD0004FF00000EEFB01204FF00001E3FB072107
:108AE00018BF42F00102401800214941E3FB0E018A
:108AF000A4F580640F0302D252004041494154F171
:108B000001046CDD470872F1004250F1000051EBA6
:108B10000451A1F580115CBF41EA0C01B0BD4CEAE3
:108B200005510020B0BD05EA1357AC4214BFAF4257
:108B300041E050EA410E1CBF52EA430E02E061469A
:108B40000020B0BD24423C441BD15FEA070EF6D0A2
:108B5000090302BF01460020AEF1140EB1FA81F7FD
:108B6000AEEB070401FA07FE0C37C7F1200100FA4B
:108B700007F7C8404EEA000E23EA455343F480133A
:108B8000A2E733F00043B3FA83F704BFB2FA82FEE0
:108B900077440B3FE41BB7F1200E2FBF02FA0EF310
:108BA000BB40C7F1200E22FA0EFE38BF43EA0E0387
:108BB000BA40641C82E750EA410E14BF52EA430EE9
:108BC0006FF000014FF4001717EB430F8ABF1946EF
:108BD00017EB410FB5E74CEA05510020B0BDD4F1C9
:108BE0000104B4F120070FDAC4F12007520828BFAE
:108BF00042F0010210FA07F501FA07F7E1BF2A4334
:108C0000E0403843E1400FE0352C98DCC7F1200408
:108C100052EA400220FA07F218BF42F0010231FA8C
:108C200007F0A1400A43002172F1004250F1000018
:108C300051EB0C01B0BD0000F0B540F2FF7581EAC8
:108C4000030C0CF0004C15EA11541DBF15EA135724
:108C5000AC42AF42E5E0BC41C1F31301C3F31303DF
:108C6000801A994143F4801304D2641E40004941A4
:108C700080185941C90241EA5051B1FBF3F603FB98
:108C80001611A2FB0675D7EBC020A94102D2761EB1
:108C900080185941C90241EA5051B1FBF3FE03FB70
:108CA0001E11A2FB0E75D7EBC020A94103D2AEF175
:108CB000010E80185941890241EA9051760546EA31
:108CC0008E2EB1FBF3F603FB1611A2FB0675D7EB54
:108CD0008020A94102D2761E80185941C90241EA7A
:108CE00050514EEA060EB1FBF3F603FB1611A2FB40
:108CF0000675D7EBC020A94102D2761E80185941D3
:108D0000C90241EA5051B1FBF3F703FB1711A2FB73
:108D10000735D3EBC020A94167F100070CBF004223
:108D200047F0010766F3D5274FEA1E31B80814F55E
:108D3000806412DDBD0775F1004250EB0E5051EB1F
:108D4000045111F5801F5CBF41EA0C01F0BD4CF0ED
:108D50007F6141F0E0410020F0BDBD076D0840EAB1
:108D60000E5041F48011D4F10104B4F120060ADA66
:108D7000C4F120060200E04001FA06F3E140184386
:108D8000B24015430EE0342C13DCC6F1200445EA52
:108D900040056D0820FA06F2154321FA06F0A140BD
:108DA0000D43002175F1004250F1000051EB0C0120
:108DB000F0BD00205FEA0C01F0BDCFB992185B4115
:108DC000B3FA83F704BFB2FA82F6BF190B3FB7F1CB
:108DD00020062FBF02FA06F3BB40C7F1200622FA95
:108DE00006F638BF3343BA401CB1E419641E33E7BA
:108DF0007F4231F00041B1FA81F404BFB0FA80F64D
:108E0000A4190B3CB4F120062FBF00FA06F1A140D3
:108E1000C4F1200620FA06F638BF3143A0403C1BBF
:108E20001AE7AC421ABF05EA1357AF4212E050EA04
:108E300041061CBF52EA4306BFE750EA41073046ED
:108E400061461CBF41EA0551F0BD52EA430C08BF20
:108E5000C143F0BD00204FF4001616EB410F98BF40
:108E600016EB430F08BF16EB410F24BFC14305E0CB
:108E700016EB430F0CBF61464CEA0551F0BD91FB68
:108E8000F2F303FB1211C0E90031704770B586B0F0
:108E900004460D46A68800A8FFF7A4F802992948C1
:108EA000B1FBF0F04FF6C07232400243A28022883C
:108EB0004FF6FE731A4022802A68234B9A420AD248
:108EC0005200B1FBF2F10A4692B2042A00D2042108
:108ED000401C208421E0EB884BF6FF76B34204D19E
:108EE00002EB4202B1FBF2F106E019235A43B1FB57
:108EF000F2F141F4804189B20A0502D141F0010149
:108F000089B241F4004180B24FF4967250434FF45D
:108F10007A7290FBF2F0401C2084A183208840F0FC
:108F20000100208020884FF6F5310840A9880843C9
:108F3000698908432080A88929890843208106B0CF
:108F400070BD000040420F00A18601000029018889
:108F500003D041F00101018070474FF6FE721140CD
:108F60000180704770470000841A71EB030603D23A
:108F7000001BB141121973414FF4001C1CEB410F4F
:108F800034BF7CEB430443E00C0DA4EB1356352EA9
:108F900050DC45EAC323DB0A45EAC121C912B6F118
:108FA00020050DDD63FA05F6EB4086EA0305124263
:108FB00018BF45F00105C01851F100010CD213E0B3
:108FC00062FA06F5F2405540F3415A40B340F3408F
:108FD0005A408018594107D349085FEA30005FEAD8
:108FE000350528BF45F0010501F58011420875F1EE
:108FF000004250F1000041EB045170BC4FF4001CE2
:109000001CEB410F38BF70470020090D0905704760
:109010001CEB410F10D252EA43060BD0BCEB410FC0
:1090200005D80C0DAB43661E342EB5DD02E0AB4314
:109030008018594170BC704770BC7047002003E035
:10904000491C6429FCDB401CB0F57A7F01DA002161
:10905000F7E77047052900D9704730B4DFE801F021
:109060000314256191A50A210278642344784C43B6
:1090700003FB02428078801841F2D042801A4843B4
:10908000DFF860190883CEE00A210278642344786F
:109090004C4303FB02428078801841F2D042801A90
:1090A0004843DFF840194883BDE081784278C378AF
:1090B000A3F13005EDB20A2D0FD200784FF47A7487
:1090C00064256A4304FB002001EB810200EB4200AF
:1090D000181800F53C54B0341CE0A1F13003DBB2A9
:1090E0000A2B0BD20078642302EB8204620003FB9C
:1090F0000020081841F2D041441A0BE0A2F13001DF
:10910000C9B20A2906D2007800EB800102EB4100C7
:10911000A0F50474A4B264206043DFF8C818886224
:1091200081E08178C378A3F13002D2B20A2A10D24A
:1091300002784FF47A7440786425684304FB020097
:1091400001EB810200EB4200181800F53C54B034EA
:1091500010E0A1F13002D2B20A2A0BD202786423C5
:10916000407800EB8004600003FB0200081841F225
:10917000D041441AA4B264206043DFF86818C86282
:1091800051E0427804780A21A2F13000C0B20A28E6
:1091900004D201FB0420A0F5047400E0303C01FB84
:1091A00004F0DFF8401808843DE0817842780478C4
:1091B000C378A3F13000C0B20A280ED24FF47A70FF
:1091C00064256A4300FB042001EB810200EB4200AE
:1091D000181800F53C54B0341CE0A1F13000C0B2C6
:1091E0000A280AD2642002EB82035A0000FB042002
:1091F000081841F2D041441A0CE0A2F13000C0B28C
:109200000A2806D204EB840002EB4000A0F50474A7
:1092100000E0303CDFF8D0070078002803D1DFF809
:10922000CC07A4B2046030BC7047000004291CD8ED
:10923000DFE801F003031D324D008178A1F1300217
:10924000D2B20A2A48D24278A2F13003DBB20A2B0A
:1092500042D20378A3F13000C0B205283CD2342BAF
:1092600003D1302A01D0302936D101207047C1788E
:109270003039C9B20A2914D381783039C9B20A29E0
:1092800014D341783039C9B20A2925D203783A2B50
:109290000CD3362B20D309E0C1783039C9B20A2962
:1092A0000AD281783A2901D3302915D342783A2A53
:1092B000DBD3302AD9D20FE081783039C9B20A29FC
:1092C0000AD203783A2BD0D3362BCED204E00378DF
:1092D0003A2BCAD3312BC8D2002070474FF4AF626B
:1092E000DFF80C17DFF80C07FDF754BD2DE9F0414E
:1092F000CCB00C22DFF8001715A8FDF74BFD0422B7
:10930000DFF8F81600A8FDF745FDDFF8F4464FF446
:109310000072DFF8F0162046FDF73CFD002706221C
:109320000FF2047115A800F0B7FC002840F03C8152
:1093300000A88178002907D14078002804D19DF841
:109340000000002800F030813D461AE00F2E04D2C4
:1093500001A901EB05117054761C7F1C2046FFF714
:10936000FFF8874206D2385D0D28EFD139194978C8
:109370000A29EBD101A800EB051000213154BF1CD4
:109380006D1C052D01D20026E8E7002410E02846D8
:10939000FFF7E6F8024600212846FCF7B5FFB06A61
:1093A000FFF7DEF80246B16A2846FDF7F3FC641CBD
:1093B000052C80F0A980DFF8500600EB84063069A8
:1093C000FFF7CEF801A901EB0415024631692846E2
:1093D00000F062FC0028DAD14FF000083069FFF796
:1093E000BFF8074600E07F1C2846FFF7B9F8874220
:1093F0000CD2785DA0F13101C9B2092902D24FF037
:10940000010803E02028EED03D28ECD0B8F1000F91
:1094100069D07F192146C9B23846FFF707FF0028F7
:1094200061D02146C9B23846FFF714FE2846FFF73F
:1094300097F8024600212846FCF766FF002C0CD165
:10944000DFF8A005B0F918000A2190FBF1F20FF245
:10945000E05101A8FCF762FFA9E7012C0CD1DFF86D
:109460008405B0F91A000A2190FBF1F20FF2D051F5
:1094700005A8FCF753FF9AE7022C0BD1DFF864052F
:10948000806A6421B0FBF1F20FF2C05109A8FCF729
:1094900045FF8CE7032C0BD1DFF84805C06A642137
:1094A000B0FBF1F20FF2B4510DA8FCF737FF7EE7E5
:1094B000042C0CD1DFF82C05B0F920000A2190FB18
:1094C000F1F20FF2A85111A8FCF728FF6FE7052C65
:1094D0007FF46DAFDFF8140502680FF29C5115A8F8
:1094E000FCF71CFF63E72846FFF73AF80246002125
:1094F0002846FCF709FFB06AFFF732F80246B16A66
:109500002846FDF747FC52E7DFF8E84404F200651F
:109510004FF4206200212846FCF7F6FE4FF4F0726B
:10952000002104F58460FCF7EFFE4FF48062002117
:109530002046FCF7E9FE0FF2587605223146204618
:10954000FDF728FC0522314604F50070FDF722FCEA
:1095500000260EE001A800EB06111AA800F0CDFBD2
:10956000DFF8A40400EB8600016C1AA800F0C5FB2C
:10957000761C052EEED31AA8FEF7F2FF074604F27A
:109580000B40FF2F477402D80021817401E0390A93
:1095900081741AA8FEF7E4FF02461AA92846FDF7CF
:1095A000F9FB00F058F956E0DFF848444FF48052D8
:1095B00039462046FCF7A8FE0C220FF2C84104F5FC
:1095C0008060FDF7E7FB0FF2C866052231462046B2
:1095D000FDF7E0FB0522314604F50070FDF7DAFBEC
:1095E0003E4620E0DFF8200400EB8605A86AFEF77F
:1095F000B7FF0246A96A381900F5C060FDF7CAFB3B
:10960000A86AFEF7ADFFC719286CFEF7A9FF02464E
:10961000296C381900F5C060FDF7BCFB286CFEF71B
:109620009FFFC719761C052EDCD3002084F80B049D
:1096300004F20B407A21C17145210172B221C1723D
:109640007B2101737A214173452181730221C1730A
:10965000477400F000F9DFF8B00341680022CA71D6
:109660000A724A7100681146C1604161C16181613D
:109670004CB0BDE8F0812DE9F04395B00024B1F580
:10968000805F07D14FF400720146DFF86803FDF7F1
:1096900081FB8DE0B1F5205F07D14FF400720146E8
:1096A000DFF86803FDF776FB82E0B1F5804F07D164
:1096B0004FF400720146DFF85803FDF76BFB77E0CB
:1096C000B1F5004F74D32646DFF834534FF40072DF
:1096D00001462846FDF75EFB27461EE0B8F10F0F56
:1096E00006D200A901EB071108F8010008F10108F2
:1096F000761C2846FEF734FF864206D2705D0D28A0
:10970000ECD1711949780A29E8D100A800EB0710BB
:10971000214608F80010B61C7F1C052F01D2A04678
:10972000E7E7274600E07F1C052F36D2DFF8D80296
:1097300000EB87063069FEF713FF00A901EB07185D
:1097400002463169404600F0A7FA002824D1A1461C
:109750003069FEF705FF064600E0761C4046FEF73E
:10976000FFFE86420DD216F80800A0F13101C9B201
:10977000092902D24FF0010903E02028EDD03D284D
:10978000EBD0B9F1000F07D03946C9B206EB08009B
:10979000FFF74CFD0028C6D10124002C08D14FF45E
:1097A00000722946DFF86C02FDF7F4FA00F053F876
:1097B00015B0BDE8F08338B504460D46FFF73EFC12
:1097C000002D08D14FF400720FF2C4212046BDE8ED
:1097D0003840FDF7DFBAB5F5805F08D14FF400726D
:1097E000DFF810122046BDE83840FDF7D3BAB5F5D2
:1097F000205F08D14FF40072DFF810122046BDE858
:109800003840FDF7C7BAB5F5804F08D14FF4007264
:10981000DFF8FC112046BDE83840FDF7BBBAB5F5CE
:10982000004F10D3DFF8EC514FF40072DFF8D41181
:109830002846FDF7AFFA4FF4007229462046BDE8EE
:109840003840FDF7A7BA4FF4007200212046BDE86A
:109850003840FCF759BD38B5664CFEF77BFC002557
:1098600007E0A80200F1006000F5404000F065FA52
:109870006D1C042DF5DB002501E0AD1CADB2B5F586
:10988000805F0BDA34F8021B05F1006000F5404000
:1098900000F042FA0428F0D0042032BDFEF763FC49
:1098A000002032BD38B5584C62681378002B05D1C2
:1098B0004002A0654802E065012010701078012880
:1098C00033D1E5682068806900280FD1A16D284652
:1098D000FFF771FF40229821284600F043FA2068E4
:1098E0004FF4E0718161402020660CE04022982115
:1098F000206E401900F036FA206881694039816194
:10990000206E403020664021012000F007FB30210E
:10991000012000F061FAA06D4030A065E06D403894
:10992000E0653D48816840398160E06D00280BD1D9
:1099300020680021816108462066A0653748032120
:10994000017060680021017031BD70B52E4C226835
:10995000D369403365682E78002E05D140026066D9
:109960004802A066012028702878012827D100200D
:1099700007E0E5682A4E865D4E55401CD169491CBA
:10998000D161D1699942F4D3264D2888616E41187E
:109990006166A36E181AA066C00506D10020D061CA
:1099A000A1F50071E068FFF766FE1B4881682A8810
:1099B000891A81604FF44051022000F025FAA06E10
:1099C000002803D015480078042809D12068002118
:1099D000C1610121002000F01FFC606800210170BE
:1099E00070BD000058020020F8030020FC03002096
:1099F00000C000082004002000C400081CC40008A7
:109A0000601C002000C60008E8010020200600209D
:109A100020080020200A002020200020A41F002071
:109A2000441F0020A61F0020434F4E464947000018
:109A3000545F5374616E6462793D256400000000D8
:109A4000545F576F726B3D25640000005761697465
:109A50005F54696D653D25640000000049646C65D4
:109A60005F54696D653D256400000000545F5374C8
:109A700065703D256400000043616C5F4461746162
:109A80003D256400434F4E4649472020545854001A
:109A9000EB3C904D53444F53352E300002010800EB
:109AA0000200020010F80C0001000100000000009C
:109AB00000000000000029A298E46C4E4F204E41A7
:109AC0004D4520202020464154313220202033C9EA
:109AD0008ED1BCF07B8ED9B800208EC0FCBD007C3E
