:020000040800F2
:104000004035002099B9000839B900083BB90008CB
:104010003DB900083FB9000841B9000800000000A0
:1040200000000000000000000000000043B900088C
:1040300045B900080000000047B9000849B9000868
:10404000D9B90008DDB90008E1B90008E5B90008F0
:10405000E9B90008EDB90008F1B90008F5B90008A0
:10406000F9B90008FDB9000801BA000805BA00084E
:1040700009BA00080DBA000811BA000815BA0008FC
:1040800019BA00081DBA000821BA000825BA0008AC
:104090004BB900082DBA000831BA000835BA00083B
:1040A00039BA00083DBA000841BA000845BA00080C
:1040B0004FB9000853B9000851BA000855BA0008B2
:1040C00059BA00085DBA000861BA000865BA00086C
:1040D00069BA00086DBA000871BA000875BA00081C
:1040E00079BA00087DBA000881BA000885BA0008CC
:1040F00089BA00088DBA000891BA000895BA00087C
:1041000099BA00089DBA0008A1BA0008A5BA00082B
:10411000A9BA0008ADBA0008B1BA0008B5BA0008DB
:10412000B9BA0008BDBA0008C1BA0008C5BA00088B
:10413000DFF8F00A00697047DFF8E81A0861704795
:10414000DFF8E01A48707047DFF8D80A4078704707
:1041500038B901EBC100052190FBF1F000F5A0702A
:1041600006E001EB8100A0F5C860092190FBF1F0A9
:1041700000B2704780B5DFF8B00A0021416081616C
:10418000002001F048FE08B9082007E0042804DBFD
:10419000012001F03AFE062000E00120BDE80240C7
:1041A00001F0B6BF30B583B004460D4600F01EFCEA
:1041B0002A4600F031F805F1090100A8DFF8642A69
:1041C00052786AB9642D07DA0A2D03DA002D05D575
:1041D000002901D443210CE0432113E043210EE0E8
:1041E000642D09DA0A2D03DA002D07D5002903D43E
:1041F00045218170202105E0452103E045214170E2
:1042000020218170C17000A9204601F085F9DFF8F6
:10421000180A1421016037BD28A100A802F074B962
:1042200070B5DFF8084A60780FF2940108B960228F
:1042300008E0012802D16022616802E002280BD167
:104240006022002002F07AF960604FF4FA7002F008
:1042500075FB01F050FF28E0032826D100255426E5
:1042600013E01C200FF2F81100FB051060600E2116
:10427000F01D02F07BF90E226168F0B202F05EF9E7
:104280006060F61F0A2002F059FB20788642E8DAC7
:104290000E3020706D1C062DE1DB4FF4FA7002F039
:1042A0004DFB01F028FF002020706078401CC0B258
:1042B000042808BF0020607070BD00002564000065
:1042C00000000000000000000000000000000000EE
:1042D00000000000000000000000000000000000DE
:1042E0000000000000000000000000000000008846
:1042F00098BFBF9888000000008080808080800088
:1043000000000000000000000000000000000000AD
:10431000000000000000000000000000000000009D
:1043200000206060606060609090909090909090AD
:10433000909090909090909090909090909090907D
:1043400090606060606060606070F88884828283E2
:104350008383838383828282828383838383838232
:104360008282828286848484848484848484848413
:104370008484848484848282828282828282FE0017
:10438000000000000000000000000000000000002D
:10439000000000000000000000000000000000001D
:1043A000000000000000000000000000000000907D
:1043B000B0FEFEB090000000008080808080800011
:1043C00000000000000000000000000000000000ED
:1043D00000000000000000000000000000000000DD
:1043E00000206060606060609090909090909090ED
:1043F00090909090909090909090909090909090BD
:1044000090606060606060606070F8888482828321
:104410008383838383828282828383838383838271
:104420008282828286848484848484848484848452
:104430008484848484848282828282828282FE0056
:1044400000F0F00000F0F0F00000FCF8F0E0C080B8
:10445000000F0F00000F0F0F00003F1F0F07030199
:10446000000000000000000000000000000000004C
:104470000000000000000000000000000001FFFF3D
:1044800001010101010181C67E380080FFFF8181A9
:10449000010101010000000000202020E0E0008078
:1044A00040402060C04000808080FFFF818080808D
:1044B000000000000000008040402020204040809C
:1044C000000000003F7F4484848484848447270064
:1044D0000000008040402020204040C0000000003C
:1044E00020C3828684848C8C887830000000008011
:1044F00040402020204040C00000000020C38286B1
:1045000084848C8C887830000000000000000080DB
:1045100080C0602010180C86E0E0E0ECFCF2F3F1C3
:10452000F0F8ECE4E4E2E301000000000000000029
:104530000080C0402030180CC0C0C0D8F8E4E6E3CA
:10454000E1F1D8C8C8C4C603FCFCFC00000000C0F0
:104550003826250101010101010101027F7F7F064B
:104560000909090909093948484848301008080468
:10457000FCFC00000000C0382625010101010101FA
:10458000010102027F7F0609090909090939484822
:104590004848301008080404000000000000000033
:1045A0008080C06030180C8600E0E0ECF4F6F6FB8A
:1045B000F5E8E8E4E2E2E1000000000000000000AD
:1045C000000080C06030180C00C0C0D8E8ECECF6E9
:1045D000EBD1D1C8C4C4C201FEFEFE804040605889
:1045E00054020202020202843F3F3F000101010126
:1045F0000107050506020100FEFE80404060585498
:1046000002020202020284843F3F00010101010113
:104610000705050602010000F8B58478303CE4B2D5
:104620000A2C38BF2146C478303CE4B20A2C38BF8B
:10463000224600783038C0B20A2838BF034600242A
:10464000DFF8205B18200FF2680600FB0347BF5D10
:1046500004EB050C8CF8607000FB0147BF5D8CF823
:10466000907000FB0247BF5D8CF8A870641C182C8A
:10467000EBDB102602230C220821284600F089FDDE
:1046800005F1D80000240C2201460C20604300F004
:1046900095FF641C082CF6DB761EEBD14FF47A7084
:1046A00002F04CF901F0F2FFBDE8F14001F023BD4A
:1046B00000E010080810E00000000000000F1020CB
:1046C00020100F0000000000001010F80000000093
:1046D000000000000020203F20200000000000001B
:1046E00000700808088870000000000000302824CE
:1046F0002221300000000000003008888848300087
:10470000000000000018202020110E000000000012
:104710000000C02010F80000000000000007042482
:10472000243F24000000000000F8088888080800E2
:10473000000000000019212020110E0000000000E0
:1047400000E010888818000000000000000F112011
:1047500020110E000000000000380808C8380800CA
:10476000000000000000003F00000000000000000A
:10477000007088080888700000000000001C2221DA
:1047800021221C000000000000E010080810E000DA
:10479000000000000000312222110F000000000084
:1047A00000000000000000000000000000303000A9
:1047B000000000000000000010B50FF214010024FA
:1047C000102200F0FAFE0146641C062CF8D310BD3E
:1047D000000000C0F038080404040408081C0000AD
:1047E0000000000F1F3060404040402030080000B3
:1047F000000000C0F0180C0404040C18F0C0000005
:10480000000000071F306040404060301F0700007C
:1048100000000004FC1C38E0C0000004FC040000A0
:10482000000000407F40000001071E387F000000AC
:1048300000000004FCFC84848484E4040C10000068
:10484000000000407F7F40000000030000000000E7
:104850000000000000040404FCFC04040400000048
:1048600000000000004040407F7F404040000000CA
:10487000000000C0F03808040404040C1C00000010
:10488000000000071F3860404042423E3E020200E6
:104890002DE9FC410446884600F0A8F8E0A622462F
:1048A0003146FFF7BAFCDF4F00AD787828B9642CA9
:1048B000A8BF432008DA432004E0642CA8BF4520A9
:1048C00002DA4520A8702020E87000A9012000F03D
:1048D0004DFEB878411CB97010220FF2500101EB67
:1048E0004011292001F02AFEB878032804BF0020D7
:1048F000B87000F07BF842463146FFF78EFC7878BE
:1049000028B9642CA8BF432008DA432004E0642CB3
:10491000A8BF452002DA4520A8702020E87000A931
:10492000382000F023FEBDE8F38100000000306075
:10493000C080000000000000000000000000180C13
:1049400006030100000000000000000000003060CD
:10495000C0803060C0800000000000000000180C23
:104960000603190C0603010000000000000030607F
:10497000C0803060C0803060C08000000000180C33
:104980000603190C0603190C060301000000183079
:1049900060C08000000000000000000000000C0665
:1049A00003010000000000000000000000001830BB
:1049B00060C0983060C080000000000000000C065D
:1049C00003010C0603010000000000000000183085
:1049D00060C0983060C0983060C0800000000C0655
:1049E00003010C0603010C0603010000062100A8C8
:1049F00002F0CEB910B5012808BF0FF2340103D080
:104A0000022808BF0FF2E8011022002001F096FDF5
:104A100001241022014600F0D0FD641C062CF8D3BE
:104A20004FF47A7001F08AFFBDE8104001F063BBDB
:104A3000E01864E282010101010182E26418E000F1
:104A4000030C1021274E5850584E2721100C0300FC
:104A5000F00C0201010101020F0000000000000043
:104A6000030C0810101010080600000000000000E1
:104A700000601010909090E0000000000000000026
:104A8000000E11111010081F101800000000000087
:104A900000010101FF000000000000000000000014
:104AA000001010101F101010000000000000000087
:104AB00000000000000000000000000000000000F6
:104AC00080808080808080808080000000000000E6
:104AD00001077980008079070100000000000000D4
:104AE000000000071C07000000000000000000009C
:104AF000E018040212214181814122120418E000D1
:104B0000030C10202844424141422428100C030089
:104B1000F00C0201010101020F0000000000000082
:104B2000030C081010101008060000000000000020
:104B300000601010909090E0000000000000000065
:104B4000000E11111010081F1018000000000000C6
:104B500000010101FF000000000000000000000053
:104B6000001010101F1010100000000000000000C6
:104B70000000000000000000000000000000000035
:104B80008080808080808080808000000000000025
:104B900000010719E0B00D03010000000000000053
:104BA0000010181700011618100000000000000087
:104BB00070B50FF27C0501F02BF9022808D00ED356
:104BC00004280AD006D3052808BF0FF2101406E007
:104BD0002C4604E00FF2901401E00FF2182410228A
:104BE00005F18C01002001F0A9FCDFF8B85B287802
:104BF00078B902260A22142000FB0640A0F1280101
:104C00000A20704300F0DAFC761C092EF2DB01204A
:104C100004E05021102001F0A9FC0020287070BD94
:104C200025640000340300206C300020083100208F
:104C300001FF00E11FE000FF010000011E01000173
:104C40001E010000006010109090E0000000000EB7
:104C5000111110081F1800001010F0402010103023
:104C6000000010101F1010000000000010F02010B5
:104C7000101010E00000101F10000000101F1000A6
:104C800000001013F30000000000000010101F10BF
:104C90001000000010F02010101010E00000101F95
:104CA00010000000101F100000E010101010F01095
:104CB0000000007D8A8A8A8A9170000000000080CE
:104CC000E0F8FE0707FEF8E080000000101C1F1F40
:104CD0001F1F1F12121F1F1F1F1F1C1001FF01008B
:104CE000000000000000101F101010101018040029
:104CF00000C0201010101020C00000070810101075
:104D00001008070010F00010F01000F01000000371
:104D10001C0300031C030000002020202020202072
:104D20002000000000000000000000000107798062
:104D3000008079070100000000071C070000000048
:104D400000C0201010101020C00000070810101024
:104D50001008070000001010FE10101000000000E6
:104D600000000F1010080000001C22214141418268
:104D70000700001E081010101008070000C0A090C7
:104D8000909090A0C00000070810101010080400B8
:104D900010F02010101010E00000101F1000000094
:104DA000101F1000002020202020202020000000C4
:104DB000000000000000000001FF21212121F90373
:104DC0000400101F1010101010180400001010F034
:104DD0004020101030000010101F101000000000C4
:104DE000001010F04020101030000010101F1010A4
:104DF0000000000001FF4140404041FF0100101F42
:104E000010000000101F100000001013F30000003D
:104E10000000000010101F10100000000000E01043
:104E2000101010F0100000609D8A8A8A8A9170002C
:104E300001FF2010101010E00000101F10000000F3
:104E4000101F100000202020202020202000000023
:104E50000000000000000000010779800080790751
:104E60000100000000071C070000000000001010F7
:104E7000FE1010100000000000000F1010080000CD
:104E800038B50FF2541451EA000212D100250CE09B
:104E9000012D05D110222146502001F04FFB044680
:104EA0006D1C022D32DA002DF2D110222146002095
:104EB000F3E798B151BB012805D100F028F8102282
:104EC00004F1400112E0022820D1102221460020E6
:104ED00001F034FB102204F1600112E0B1B10129AC
:104EE00006D100F014F8102204F18001002009E03E
:104EF00002290BD11022214601F020FB102204F1DF
:104F0000A0015020BDE8384001F018BB31BD10228F
:104F100004F12001502001F011BB70B5044650256A
:104F20000E01F6B20DE0102105F1100001F01EFB9C
:104F300010222146E8B201F001FB103D192001F0DA
:104F4000FDFCB542EFDA70BD2DE9F041DFF8880ACB
:104F5000B0F91A80DFF8840A4078012803D141466D
:104F600000F04EFB80460FF2700400220021204624
:104F7000FFF7D3FF4FF47A7798FBF7F6F6B20FF608
:104F800094250022012105EB4610FFF7C6FF07FB21
:104F90001688642798FBF7F6F6B20022022105EB8B
:104FA0004610FFF7BAFF0022032107FB16800A23F1
:104FB00090FBF3F0C0B205EB4010FFF7AEFF00220C
:104FC000042105F5D070FFF7A8FF0022052104F1A8
:104FD0002000BDE8F041A0E7808040402020101074
:104FE00008080404FE00000000000101020204049D
:104FF000080810103F0000000000FE04040808101C
:10500000102020404080800000003F10100808045D
:105010000402020101000000008080C0C060603016
:105020003018180C0CFE0000000101030306060CEA
:105030000C181830307F00000000FE0C0C181830DF
:10504000306060C0C080800000007F303018180CD5
:105050000C060603030101008080C0C0E0E0F0F010
:10506000F8F8FCFCFE000000000001010303070744
:105070000F0F1F1F3F0000000000FEFCFCF8F8F0BF
:10508000F0E0E0C0C080800000003F1F1F0F0F074E
:1050900007030301010000002DE9F0411318DFF8B8
:1050A000C480DFF83C198D785DB90125CD700025ED
:1050B0000D7108254D7100250D704D7001258D7005
:1050C00028E0CD7825BB0E794F7906EB000EAE4473
:1050D0009EF833E005EB080484F8D8E002EB050EF7
:1050E000C644F4182C1994F833408EF8D8406D1C3F
:1050F000EDB2AF42E9D27D1C4D71761E0E71EDB25C
:105100000B2D05D10A20487100200871012025E0EF
:105110000D7925BB0125CE784F7911E006EB050E00
:10512000C6442C1894F833408EF8D84006EB020E93
:10513000AE44C644EC1894F833408EF8D8406D1C49
:10514000EDB2BD42EAD3781E4871721CCA70C0B27B
:1051500028B901204871092008710020C870BDE8F5
:10516000F08100000000002010B500210022012382
:10517000934003405400042AB9BFC4F10704A3407C
:10518000E41FE3405918C9B2521C082AEFDB084655
:1051900010BD2DE9F44F82B082465FEA0308DFF8C4
:1051A00040580AD1287828B9002600270120287005
:1051B0006E700CE0AE686F6910E0B8F1010F0BD1B2
:1051C000687830B900260027287001206870AE701A
:1051D00004E0EE68AF6901E02E69EF6900249DF8F4
:1051E0000800484340000090DFF8F89708E014F802
:1051F0000A00FFF7B9FF04EB090181F8D800641C2D
:1052000000988442F3D300229DF80800DFF8D817F5
:1052100003E09DF8083002EB4302009B9A422FD234
:1052200000240AE021F81EA031F81EE04FEA1E2AF1
:1052300083F8D8A08CF8D8E0641C8442E9D2131813
:10524000E31803EB090C02EB040E0EEB090393F8D1
:10525000D8A09CF8D8B04BEA0A2A21F81EA0B8F1D1
:10526000010F06D1002E14BF2AFA06FA0AFA07FA2D
:10527000D8E7002F0CBF0AFA06FA2AFA07FAD1E794
:10528000002408E004EB090A9AF8D800FFF76CFF45
:105290008AF8D800641C00988442F3D31FB9102EFA
:1052A00008D1002610277F1EB8F1000F04D1AE6090
:1052B0006F6108E0761CF7E7B8F1010F07BFEE60F9
:1052C000AF612E61EF61BDE8F78F00002DE9FD4E63
:1052D00081B08946DFF80007B0F91A10DFF8FC56F4
:1052E0006878012802D100F08BF901460A2091FB71
:1052F000F0F109B2642291FBF2F6F6B202FB16134A
:1053000093FBF0FA5FFA8AFA02FB161100FB1A10FF
:10531000C0B200902878012803D1A8610020E8617C
:1053200006E0022805D10020A8611020E8610020D5
:105330002870002068610FF2DC6405E0FFF714FFBD
:105340008BF83801781C68616F69DFF898B6B7EBA5
:10535000490F1FDABB4404EB4610385CFFF704FF2B
:105360008BF8D80004EB4A10385CFFF7FDFE8BF891
:10537000F800009804EB4010385CFFF7F5FE8BF85E
:1053800018013819697801290CBF90F8E00190F8EC
:10539000A001D3E79DF80400C0F1030009FB00F071
:1053A0004300A869E969DFF8402601E003EB4903FF
:1053B000062606FB09F6B3422BDA002609E022F89E
:1053C0001E4032F81E703C0A8AF8D8408CF8D8701B
:1053D000761C4E45EADA03EB090AB2440AEB0B0CE1
:1053E00003EB060E0EEB0B0A9AF8D8409CF8D87027
:1053F00047EA042422F81E409DF8087027B90029C6
:1054000014BFCC408440DAE700280CBF8C40C44075
:10541000D5E700201AE006EB0B0494F8D800FFF75C
:10542000A3FE84F8D80094F8F800FFF79DFE84F8F6
:10543000F80094F81801FFF797FE84F8180194F823
:105440003801FFF791FE84F83801701C68616E69BD
:10545000B6EB490FDFDB0BF1D800012169611022A7
:10546000014668690007000E01F068F86969491C87
:1054700069610529F3DBA869E96950EA010202D0F4
:1054800019B9102804D1002005E0481EE86101E0A8
:10549000401CA861012004B0BDE8F08EF8B50446B8
:1054A0000D46DFF848651421304601F071FC0FF21B
:1054B0009C7724B900230A220121384606E0012CFA
:1054C00007D101230A22012107F12000FFF761FE25
:1054D00007E0022C05D102230A2201213846FFF7FA
:1054E000DBFD0A223146562001F028F80FF2447401
:1054F00000F00AFE042803D1062204F10C0106E0A4
:10550000002D07BF062207F1140106222146502074
:10551000BDE8F84001F012B838B50C46451EEDB2B2
:10552000082D0CD300250AE03638C0B210220FF245
:10553000E44101EB4011280100F040F86D1C207897
:1055400098B114F8010B202808BF0A20EED02D28AE
:1055500008BF0C20EAD0A0F130010A2938BF30384A
:10556000E3D3A0F141010629DED331BDF8B50446ED
:105570000D4600270FF27C760AE00A22142101FB77
:105580000061FFB20A2000FB074000F017F87F1C03
:10559000287888B115F8010B432808BF0B20ECD000
:1055A000452808BF0C20E8D0A0F130010A293ABFF5
:1055B0003038C0B20A20E0E7F1BD2001C0B200F0EF
:1055C000BDBF38B50446DFF81004B0F92050B0F97B
:1055D0001A10DFF80804407801280BD100F010F809
:1055E000002C0CBF2918411B09B20120BDE8344032
:1055F000FEF7AEBD0CB9681832BD481B32BD394646
:105600000020FEF7A5BD70B504460D46DFF8C803BF
:10561000B0F91A00DFF8C4134978012902D1014614
:10562000FFF7EEFF4FF47A7190FBF1F2642390FBE9
:10563000F3F6B6B24DB9201890FBF3F390FBF1F0FE
:1056400080B292B2904209D10AE0001B90FBF3F3C2
:1056500090FBF1F080B292B2904201D0032070BD75
:105660009BB2B34201D0022070BD012070BDF8B5DD
:10567000DFF86843DFF86053B5F920000A2804BF5B
:105680000120A081DFF86863F068002800F08980BD
:10569000206938B10020206100F0B7FB00F0F6FF70
:1056A000FFF752FC00F0ABFB40282DD0B0F5807F17
:1056B00058D16089B5F91A1088421EDA012020708D
:1056C0000121288CFFF79FFF074600F06DF80028A6
:1056D000FBD10120FFF775FF68836089B5F91A10C7
:1056E0008142B8BF68830220207000F05DF8002876
:1056F000FBD100210120FFF7C3FBB5F91A00618936
:1057000088422FD101212AE0B5F91A002189884267
:105710001FDA012020700021288CFFF774FF074654
:10572000002200F042F80028FAD1FFF74AFF688310
:105730002089B5F91A108842B8BF6883022020700A
:10574000002200F032F80028FAD100210220FFF7F1
:1057500097FBB5F91A002189884203D10221002064
:10576000FFF78EFB40F2051700F049FB80B1A089DE
:1057700040B1F168B94205D3322141430A3129844D
:10578000401CA0814FF49670F060002000F03AFBBE
:10579000A08930B1F068B84203D20A2028840120E1
:1057A000A081F1BD3C3100200122102138468DE559
:1057B0002DE9F0478F4D4FF00A088D4C874EDFF8EA
:1057C000189200F0A1FC401E072818D8DFE810F05E
:1057D00008007F001C00AE0068006B00FF009E0008
:1057E0003069012801D100F00DF9307940B900F09D
:1057F00065FF0FF21820FEF70FFF01203071E6E081
:10580000BDE8F047FEF70CBD306928B901203061D2
:1058100000F0FBFA00F03AFF00F07EFC0546F0785D
:10582000012D06D008B100F031FF0020F081F070AA
:1058300023E0F1894B2908BF002804D100F026FF9E
:105840000120F07000E0C0B1A06908B12068BEE09E
:1058500000F066FC0746B9F91AA07078012806D155
:10586000FFF7CDFE07465146FFF7CAFE8246514676
:105870003846FFF70DF83220A0612068002804BFE9
:10588000F0780028E3D100F04BFC0746B9F91A0084
:10589000B842B4BF391AC11B122900DA074685E0A5
:1058A000BDE8F047E3E63069012801D100F0AAF82D
:1058B000287818B1FFF79EF800202870A06900280A
:1058C00004BF287800280FD1FEF776FF2BE030695F
:1058D00010B9012000F097F8287818B1FFF78AF87E
:1058E00000202870A069002871D100F08CFB0746C9
:1058F0007078012802D1FFF782FE074600F07CF89D
:1059000034A10620FFF708FE14200DE0306910B91D
:10591000012000F078F83069012804BFA069002850
:1059200055D1FFF745F93220A06150E000F0F8FBB7
:105930000746B9F91800B842B4BF391AC11B132978
:10594000B8BF074600F0E8FB0546F078012D06D009
:1059500008B100F09BFE0020F081F07020E0F1899A
:10596000322908BF002804D100F090FE0120F07019
:1059700000E0A8B1A06900287FF468AFB9F918A0C9
:105980007078012806D1FFF73AFE07465146FFF727
:1059900037FE824651463846FEF77AFF3220A06134
:1059A0002068002804BFF078002810D17078012802
:1059B00002D1FFF724FE074600F01EF801F0FCF9C3
:1059C00001462846FFF76AFDF089401CF081BDE8DA
:1059D000F087000046000000600200203403002031
:1059E0001403002000000020642E0020D8000020B6
:1059F0006C300020EC03002097FBF8F109B2012085
:105A0000FEF7D0BB0020306100F040BE322E3039AE
:105A100000000000000000F8FE0301010103FEFC8D
:105A2000F00000000000003F7FE0808080C07F3FEA
:105A30000700000000000008040406FFFF0000004B
:105A40000000000000000000808080FFFF80808058
:105A500000000000000000060701010181C37F3E35
:105A600000000000000000E0F0D8CCC6C3C0C0E0D9
:105A7000000000000000000607818181C1633F1E15
:105A800000000000000000E0C080808181C37F3EF4
:105A90000000000000000000C060380CFFFF0000A4
:105AA000000000000000060705040484FFFFC48412
:105AB00006000000000000FFFF83838383838303CD
:105AC00000000000000000E0C080808080C17F3FB7
:105AD00008000000000000E0F89C8EC2C3C1818174
:105AE000000000000000003F7FC080808080C17FF8
:105AF0003F0000000000000F0303030383E33B0F9C
:105B0000030000000000000080E0781E0701000094
:105B1000000000000000187E7EC381818181677EC5
:105B20003C00000000001C7EFFC180808081E37F7C
:105B30003C000000000078FEC603010101039EFC4A
:105B4000F000000000000001018383C361713F0F7A
:105B50000100000000000000000000000000000044
:105B60000000000000000000000000000000000035
:105B7000000000000000000000000000F000000035
:105B80000000000000000101010101011F010101ED
:105B90000101010000000000000000000000000002
:105BA00000000000000101010101010101010101EA
:105BB000010101000E11110EE0F80C0603010101B4
:105BC00001021E00000000000F3F70C08080808036
:105BD00080402000000000000000C0C0C0C00000E5
:105BE00000000000000000000000303030300000F5
:105BF0000000000008142214080202FE060202023D
:105C0000C202061E00000000008080FF81810101A9
:105C100003000000C03008040402FAAAFA020404D7
:105C20000830C0000718204058A4DBDEDBA4584031
:105C30002018070000F0FEFFF000007F7F7F7F004C
:105C4000FF0FE1E00FFFFF80BFBF80FF10188CC681
:105C50006363C68C1810426331180C0C1831634210
:105C600000F01E1FF00000FF8080FF0042C68C186D
:105C70003030188CC64208183163C6C66331180824
:105C80008C8CC6C68C8CC6C68C8C313118183131C0
:105C900018183131008C8C8C8C8C8C8C8C8C8C8C6E
:105CA0008C8C8C0000313131313131313131313135
:105CB0003131310080C0603098CC66333366CC9887
:105CC0003060C08088CC6633190C060303060C19BB
:105CD0003366CC88113366CC983060C0C060309891
:105CE000CC6633110103060C193366CCCC6633192C
:105CF0000C06030100E0180404040418E000000F7F
:105D00003040404040300F0000000808FC00000018
:105D10000000000040407F40400000000078040484
:105D20000404048870000060504844424140700000
:105D3000003804048484C8300000003840404040EB
:105D400040211E00000080601008FE0000000007D7
:105D5000040444447F4444000000FC04848484041C
:105D6000040000384141404040211E0000C03088FE
:105D7000848484041800000F3140404040211E00FC
:105D8000001C04048444340C04000000007E010064
:105D90000000000000708804040404887000001CE7
:105DA0002241414141221C0000F00804040404186F
:105DB000E00000304142424222190700000000008A
:105DC00000000000000000000000000000000000D3
:105DD0001C1CC030080404040830000007182040D0
:105DE000404020101C120C0202FE8282E2020000DF
:105DF0000000407F40000300AC4800787047AC488A
:105E000040687047AA4948607047A94908707047C0
:105E1000A6484078704770B5044600250A26A54874
:105E200001F032F94519761EF9D10A20B5FBF0F1DF
:105E30009E4A40F66663994203D3042050700020C6
:105E400070BD48439021B0FBF1F100200FF2B02368
:105E500033F81050A942D56808D2401C042805D256
:105E60000228F5D1002CF3D0A942F6D3401C70BD16
:105E7000002091490A68D243920548BF4FF48070D0
:105E80000968C943490648BF40F0400090B18849BD
:105E90000A78012A04BFCA68824207D18A68521C64
:105EA0008A60162A06D340F4004002E000228A608D
:105EB000C8604860704770B580494A68D3089CB292
:105EC000C5000E781EB94D600120087009E08442BB
:105ED00034BF041B241AA4B23D2C3CBF8018C51A41
:105EE0004D60E80870BD38B5002000F01AFD744818
:105EF00010210160192000F025FD724D0A2022E0DA
:105F0000002000F009FD69684218A968814238BF85
:105F10000146A960E968884288BF0846E860288889
:105F200001280DD10021A868101AEA68801AC0085B
:105F3000FFF7C1FF0446002241F28830E860AA6002
:105F40006A602888401E288028880028D8D12046EA
:105F500032BD5D490A7822B9C000486001220A704A
:105F600007E04A688018931002EB5372A0EBE2003E
:105F70004860811000EB5170C010704738B50025A3
:105F8000504C0A2026E0012000F0C6FC216941188F
:105F90006269824238BF02466261A269904288BF4C
:105FA0001046A0612088012811D16069081AA169F2
:105FB000401AC008FFF7CDFF40F6E4414843000B0C
:105FC000A0F5FA75002141F28830A061616121617C
:105FD0002088401E208020880028D4D1284632BD49
:105FE00010B5FFF780FF0446FFF7C8FF2F49B4F54F
:105FF000C87F05D2B0F5967F02DA8C60012000E000
:106000000220087010BD70B50446FFF76CFF05460E
:10601000FFF7B4FF25494A8840F6FF739D4202D13D
:106020008B885B1C06E00023A5F6D966632E34BF7F
:10603000521C00224A808B808A884B883C2A02D3DB
:1060400053B9032207E01AB9142B28BF022202D247
:10605000142B01D201224A70A4F57A7296235A4376
:1060600040F6B83392FBF3F250328968B4F57A7F88
:1060700008BF0A3A00D034B1A1F1EF035D198B18C3
:10608000AB42B8BFAD1AB0F5C87FC8BF4FF4C870F7
:1060900040F22632691A4FF47A73504303FB010031
:1060A00090FBF2F000B270BD00000000EC03002095
:1060B000C43000200028014008080140F8300020CA
:1060C000140C0140540300200031002010B5044698
:1060D00045F2555000F0E6FF032000F0E6FF0A20ED
:1060E00060434003000C00F0E3FF00F0E4FF00F029
:1060F000E7FF012010BD80B500F0DDFF012002BDEB
:106100002C0196005A002800DFF89C0300787047A5
:10611000DFF8941308707047DFF88C03808E7047A7
:10612000DFF88403B0F93600704710B5DFF8784324
:1061300030220FF2A431201D00F0CEFFB4F9200070
:1061400041F29B018842A4BF41F29A00208410BD15
:10615000DFF85803002101604160016141610F21B6
:1061600001810221418101218181704730B50022E6
:10617000CE49488003468C5EE01A88804D6900B2A3
:10618000B0F5FA7FBCBF012245199C4205DA1B1B02
:106190001BB2152BA4BF002500224D611F28B4BFE0
:1061A000002301230C894D896A434D696A4300FB32
:1061B00004228C89B1F90650451B6C4303FB042271
:1061C000C880012AB8BF002205DB41F2717082420B
:1061D000A8BF41F270720A6190B230BDB34A11801B
:1061E000884204DA091A122904DB002105E0411A69
:1061F000132901DA022100E00121AB4A9186B5E7BB
:1062000070B5AB4CA84D2878401E072828D8DFE889
:1062100010F00800D1002B008200C900FD004A01E7
:106220001901FFF7ECFD40280BD0B0F5807F11D1AC
:106230006878012812D00320287000202887206069
:1062400008E06878012809D0022028700120A87091
:10625000FFF7DBFD6878002800F02581A0690028A1
:1062600040F021816870D4E0FFF7C9FD48F2400199
:10627000401A04D0C03802D040380AD012E000F0F2
:1062800025F905202870002060604FF4FA70E06066
:1062900008E000F046FB00F01CF90120287068704F
:1062A0003220A061B5F91E60606848B93046FFF73A
:1062B000AAFE00F003F900B200F033FB1E2060607C
:1062C00000F033FB00B9606000F0FDF8042808DB43
:1062D00000F0FCF800F0FDF8012028706870C8207C
:1062E000A06100F069FD98B9288F18B901202887AE
:1062F000E86AA060A068002846D1A886A06100F0E6
:1063000010FB0020FFF77EFD286B606104203AE05F
:106310000020288738E0B5F91C60B5F91E10B1429D
:10632000B8BF0E46606848B93046FFF76CFE00F013
:10633000C5F800B200F0F5FA1E20606000F0C3F866
:10634000042808DB00F0C2F800F0C3F80120287030
:1063500068709620A061606948B900F0E2FA00F028
:10636000B8F801206870C820A0610120287000F0F2
:1063700023FD012802D0FFF742FD28B10020A061D3
:106380006061288703202870FFF742FD022808D3A8
:10639000FDF7CEFE012804BF0020FDF7CDFE08204A
:1063A000287070BDE06800287DD10320287000208F
:1063B000206070BD606958BBFFF721FD48F24001C5
:1063C000401A10D0C0380ED0403809D1FFF708FE6F
:1063D000FFF712FD012803D101F01BF801F06CF862
:1063E000E87800285FD00020E87000F09AFAA878DA
:1063F000287001216970012804D100F06AF8322068
:10640000A06170BD06284ED1642019E0606920B1FA
:106410000020BDE87040FFF7F5BCFFF7F0FC48F244
:106420004001401A01D0C0383DD1606900283AD1FE
:106430000620A870022028700020FFF7E3FCC82087
:10644000606170BDFFF7E4FC801E012803D9801E47
:1064500001280FD920E0B5F91E00FFF7D4FDE8862A
:10646000FFF7D6FC012817D1032028700020FDF784
:1064700063FE11E000F027F801280DDB00F023F89F
:10648000042809DA00F022F800F023F801206870EF
:10649000C820A06101202870064820B100F016F83D
:1064A00005481021016070BD5C020020883000208A
:1064B0006C3000202B690008140C0140E88631463E
:1064C000B5F936008AE60120FFF7A5BC002000F0F0
:1064D00028BA0020FFF799BC56455220322E30389A
:1064E000000000000000000032000000000000007A
:1064F000D007B80B9A10E8036400010019000000EF
:1065000070170000701700000CB41CB5044604A8F6
:106510000190009401AB0A4600A90748784418305E
:1065200001F08EFD009900220A7000285CBF0098DF
:10653000001B16BC5DF80CFB170C000070B50C4678
:10654000154600F120060021F0B200F08CF86D1C19
:106550002146E8B200F076F804460121F0B200F0DE
:1065600082F82146E8B2BDE870406BE0F8B50C4611
:1065700000F120050021E8B200F075F89C4E4020A3
:106580003070671C022F01DB00F01AF8384600F06B
:106590000DF80121E8B200F066F840203070022FBB
:1065A00001DB00F00DF83846BDE8F2409149086083
:1065B00091483C2202700968C9B28D4802F094BC2F
:1065C0002146701C02F0CCBC0B468A4908608A4800
:1065D0003C2202700968C9B2184602F085BC80B539
:1065E0004FF48070ADF8000003208DF802001020F9
:1065F0008DF8030000A9814802F0B6FC01BD10B57A
:106600008CB000A80FF20C21302200F075FD2E2274
:1066100000A9774800F060FD794C4FF48071204666
:1066200002F009FD022000F089F94FF48071204644
:1066300002F0FFFC022000F081F92E20FFF7B6FFE8
:106640000CB010BD10B50C46694940220A700122F9
:1066500003E014F8013B5354521C8242F9DBFFF76C
:10666000A5FF204610BD30B583B000AA0FF2D413A9
:1066700030CB30C28DF80500012904BFB1208DF860
:10668000010000A90820FFF79FFF37BD10B500F0FB
:10669000B9F8574C00F00CF88020FFF787FF012174
:1066A00000F0B1F800F004F88020BDE810407DE76C
:1066B000402020707F21601C02F052BC2DE9F8437D
:1066C0004FF0010900A90FF2841000F0C2FE5FEA4A
:1066D000000800F07F8098F80000422804BF98F876
:1066E00001004D2840F0828098F83600FF2804BF52
:1066F00098F83700FF2805D198F83800FF2808BF20
:106700004FF000093A4E7F21FFF75BFF01274FF062
:106710000F0C002000210C2202FB0C12424492F8C4
:106720003E2080234FF0080E03EA0204B9F1000F67
:1067300001D02CB900E01CB1841965783D43657027
:10674000401CC0B25B08BEF1010EEDD1491C0C2902
:10675000E1D37F063F0EACF1010CBCF1080FD8DA93
:1067600000F050F800F051F8FFF7C5FC7F21FFF76B
:1067700028FF01274FF0000C002000216FF00B02D2
:1067800002FB0C12424492F8922080234FF0080E34
:1067900003EA0204B9F1000F01D02CB900E01CB1EA
:1067A000841965783D436570401CC0B25B08BEF13A
:1067B000010EEDD1491C0C29E0D37F063F0E0CF1F0
:1067C000010CBCF1080FD7DB012100F01CF800F030
:1067D0001CF805E060220FF280010020FFF7AEFEFA
:1067E0004FF47A7000F0AAF8FFF785FCBDE8F1835A
:1067F0004C2F002024310020482F0020000C0140A5
:1068000000080140002120202DE740203070314653
:106810006120D9E680AE80D5805280A8800F80C0EC
:1068200080D38000804080A0808D801480DA800238
:10683000808180E080D980F180DB803080A480A6D8
:1068400080AF000080B080218020807F4C4F474F78
:10685000494E2020424D5000000000000000000082
:106860000000000000000000000000000000000028
:1068700080C0E0F0F8FCFEFEFCF8F0E0C080C0E074
:10688000F0F8FCFEFEFEFC783080C0C000189CCE04
:10689000E6F0F8FCFEFEFCF8F0E0C0E0F0F87C006A
:1068A00000000000000000000000000000000000E8
:1068B00000000000000000000000000000000000D8
:1068C0000000000000000000000000000000001FA9
:1068D0000F07030103070F1F3F7F7F3F1F0F0703B2
:1068E0000103070703191C0E6773391C0E07030108
:1068F00003070F1F3F7F7F3F1F0F070301000000AB
:106900000000000000000000000000000000000087
:106910000000000000000000DFF8281431F810002B
:106920007047DFF82414C8607047DFF81C04C068A3
:1069300070471C21DFF8140402F012BBDFF80814C2
:10694000142202E0DFF800140A22504388608868AD
:106950000028FCD17047DFF8F8134FF400620A6199
:106960004FF480520A61002808680AD120F44040A0
:1069700040F440500860086820F4402040F4403063
:1069800009E020F4804040F430400860086820F4BA
:10699000802040F430200860704780B502F078FB1A
:1069A000102002F039FC012002F030FCDFF8A403D3
:1069B0004168DFF8A42311434160016841F0807110
:1069C0000160012002F07DFB012002F07DFB3920F7
:1069D00002F0EBFB0028FAD0022002F078FB02F074
:1069E0007DFB0828FBD10121172002F0BAFB012111
:1069F00040F20C6002F0BEFB0121032002F0C3FB59
:106A00000120BDE8024002F06EBB80B501464FF0A8
:106A1000006002F0B4FC4FF4A06002F07FFC142090
:106A20008DF8000002208DF8010000208DF8020092
:106A300001208DF8030000A802F075FC01BD38B5F7
:106A4000C64C4FF6FF70E060C5492160C5496160E2
:106A5000C54DE860C54828604FF0883068608020E8
:106A6000ADF80000002000F01FF84FF4807000F037
:106A700021F80121BE4802F0E0FA102000F01AF8D7
:106A80000120ADF80000002000F01AF80220ADF857
:106A90000000002000F014F84FF41070ADF8000072
:106AA000482000F001F831BD8DF8030000A9204610
:106AB00002F05ABAADF8000003208DF80200102051
:106AC0008DF8030000A9284602F04EBA2DE9F041E6
:106AD00090B04FF420442546A64E304602F064FCA8
:106AE000A54805909748069000200790022008903E
:106AF0000020099080200A904FF480700B904FF492
:106B000080600C9020200D904FF400500E900020DB
:106B10000F9005A9304602F094FC0121304602F0A6
:106B2000ABFC964E304600F003FA00F05FF84FF4ED
:106B3000602702970020039002208DF8100000A922
:106B4000304600F01EFADFF83882404600F0F0F9D7
:106B500000F04CF802970020039001208DF81000FF
:106B600000A9404600F00DFA072302220721304613
:106B700000F04BFA072301220821304600F045FAC5
:106B8000052301220921404600F03FFA0121304649
:106B900000F01EFA0121304600F011FA01214046B2
:106BA00000F00DFA304600F01CFA304600F01EFAF4
:106BB00020B12846451E0028F7D114E0404600F0D9
:106BC00010FA2546404600F011FA20B12846451E2D
:106BD0000028F7D107E00121304600F00DFA01212D
:106BE000404600F009FA10B0BDE8F08100200090A6
:106BF00001208DF804008DF80500704700B585B0C0
:106C00004FF4E06002F08AFB2F20ADF8040042F25E
:106C10000F70ADF808000020ADF80A00ADF80600CE
:106C200001A94FF0804002F04DFC00F061F802F045
:106C30009FFC012200F05CF802F092FC00F058F892
:106C400002F084FC1C2000F02AF805B000BD1FB53E
:106C50004FF4E06002F062FB2F20ADF80400312019
:106C6000ADF808004FF48070ADF80A000020ADF8D0
:106C70000600444C01A9204602F024FC01212046D4
:106C800002F076FC01220121204602F069FC01217C
:106C9000204602F05BFC1D2000F001F81FBD8DF8BE
:106CA000000000208DF8010001208DF802008DF811
:106CB000030000A802F037BB80B500F019F802F01D
:106CC00061FC0020304901EB8002536813B1536826
:106CD0005B1E5360401C0728F5DB0878401C0870D9
:106CE0000321084204BFBDE80140FFF7C1B801BD60
:106CF00001214FF08040704780B50121214802F00A
:106D000041FC1148416811B14168491E41608168E8
:106D100011B18168491E8160C16802781B4B49B17D
:106D2000C168491EC160002A19BF10215960102195
:106D30001960D243C16811B9102159600022027054
:106D400001BD000020310020B43000206C30002054
:106D500004080140001002400A8468000008014055
:106D60008888880883B8BB8B000C01400088834466
:106D700000013000080002404C2401400024014082
:106D8000002801400004004068300020100C014041
:106D9000002202F00FBC50F8041B61B150F8042B24
:106DA000D30744BFA9F101039A18002342F8043B1A
:106DB000091FFAD1EFE770475748C089704780B57F
:106DC000574A1D231370574A02231360564A002363
:106DD0001370564B187059701D220221184602F08C
:106DE00083F8012002BD10B54E4901220A604E49C8
:106DF00000220A704A491D220A704C4C207003463A
:106E00000121204602F085F84348217801730120D2
:106E100010BD80B500212A20FFF7D1FF02210E20EE
:106E2000FFF7CDFF03212A20FFF7C9FF00212B2008
:106E3000FFF7C5FF01212A20BDE80440BFE770B578
:106E40001C460023002500F110069642A6BFA0F1C3
:106E50001006B242012301F11006A642A6BFA1F11D
:106E60001006B442012300F130069642A6BF303826
:106E70008242012501F13000A042A6BFA1F13000FD
:106E80008442012525480580184670BD22480178B6
:106E9000407802E020480179407940EA0120000969
:106EA000802903D3C043401C0005000D704730B556
:106EB00083B0194C06212046FFF76AFF0020FFF738
:106EC00092FFE8B1207B00071AD50120FFF78BFF66
:106ED000B0B1207B8DF80000207000A8417861706F
:106EE0009DF8021021719DF80310617101792172E2
:106EF00040796072FFF7CAFF0546FFF7CBFF00E05D
:106F0000258A00232A460021208AFFF798FFE08186
:106F1000258237BD00000000A0300020B2300020E4
:106F2000482F002024310020492F00204C2F002022
:106F300080B55749884208D101214FF4007002F012
:106F40002BF900214FF4007016E05249884208D115
:106F500001214FF4806002F01FF900214FF480609E
:106F60000AE04D4988420BD101214FF4004002F064
:106F700013F900214FF40040BDE8044002F00CB9C1
:106F800001BD4268454B1A400B681A430B7942EA2F
:106F9000032242608268424B1A40CB681A438B68D6
:106FA0001A434B7942EA43028260C26A22F47002B9
:106FB000097C491EC9B242EA0151C16270470029E9
:106FC000816812BF41F001014908490081607047A2
:106FD0000029816814BF41F4807121F480718160BF
:106FE0007047816841F00801816070478068C0087F
:106FF000FFE700F0010070470029816814BF41F4E9
:10700000A00121F4A0018160704770B507240A290E
:107010000BD3A1F10A0505EB4505C668AC4026EA8D
:107020000404AB402343C36008E001EB410506695B
:10703000AC4026EA0404AB40234303611F23072A24
:107040000AD2521E02EB8202446B934024EA0303ED
:1070500091401943416370BD0D2A0AD2D21F02EB41
:107060008202046B934024EA0303914019430163B5
:1070700070BD0D3A02EB8202C46A934024EA030316
:1070800091401943C16270BDC06C80B2704700006E
:107090000024014000280140003C0140FFFEF0FFB9
:1070A000FDF7F1FF0949086070470949086070471A
:1070B00008490860704705484AF6AA2101607047F0
:1070C00002484CF6CC41016070470000003000409F
:1070D000043000400830004062B38B0708D0521ED5
:1070E00011F8013B00F8013B00F024808B07F6D13A
:1070F000830740F0208000BF103A07D330B4B1E8D6
:107100003810103AA0E83810F9D230BC530724BF29
:10711000B1E80810A0E8081044BF51F8043B40F85B
:10712000043BD20724BF31F8022B20F8022B44BFC6
:107130000B7803707047083A07D3B1E80810083A93
:1071400040F8043B40F804CBF7D25307E4E7026869
:10715000531C03601170704770470000F8B5642439
:10716000DFF80C2C0A23072911D8DFE801F00411FD
:107170001E537B8BC0C7017845785D4304FB0151EA
:107180008078401841F2D041401A58431083F1BD35
:10719000017845785D4304FB01518078401841F245
:1071A000D041401A58435083F1BDC1784678857864
:1071B000A1F1300C5FFA8CFCBCF10A0F0CD2007804
:1071C0004FF47A77664307FB006003FB050008185D
:1071D00000F53C57B03718E0A5F13001C9B20A29D3
:1071E00009D2007803FB06F104FB0010281841F2D5
:1071F000D041471A09E0A6F13001C9B20A2904D2E8
:10720000007803FB0060A0F504773FB204FB07F0B1
:107210009062F1BDC1788578A1F13006F6B20A2EF0
:107220000DD206784FF47A774078604307FB06006A
:1072300003FB0500081800F53C57B0370DE0A5F139
:107240003001C9B20A2908D201784078584304FBBA
:107250000100281841F2D041471A3FB204FB07F061
:10726000D062F1BD46780778A6F13000C0B20A2896
:107270003ABF03FB0760A0F50477303F03FB07F03C
:107280001084F1BDC178467807788578A1F1300087
:10729000C0B20A280CD24FF47A7004FB06F200FB4D
:1072A000072003FB0500081800F53C57B03717E02E
:1072B000A5F13000C0B20A2808D203FB06F004FB97
:1072C0000700281841F2D041471A09E0A6F1300022
:1072D000C0B20A283ABF03FB0760A0F50477303F2D
:1072E0003FB203FB07F0DFF88C1A0860F1BD0078AD
:1072F0003038C0B2BDE8F240FCF722BF46780778CC
:107300008578A5F13000C0B20A2808D203FB06F048
:1073100004FB0700281841F2D041471A09E0A6F102
:107320003000C0B20A283ABF03FB0760A0F504771B
:10733000303FDFF8440A007818B9DFF8400A3FB25E
:107340000760F1BD30B507291DD8DFE801F004045E
:107350001E2A1C1C353B8178A1F13002D2B20A2AC8
:107360003FBF4378A3F13002D2B20A2A4FD2047849
:10737000A4F13000C0B2052849D2342C03D1302BFF
:1073800018BF302943D1012030BDC1783039C9B28E
:107390000A2921BF81783039C9B20A29F3D340784C
:1073A00005E0C1783039C9B20A29ECD38078303889
:1073B000C0B20A28E7D32AE040783038C0B20A28A1
:1073C00025D3E0E74378047881780A20A1F13005DD
:1073D000EDB20A2D08D26425584305FB04000818B5
:1073E00041F2D041401A0AE0A3F13001C9B20A29A2
:1073F0003ABF00FB0430A0F50470A4F13000012A6C
:10740000C1D180B2DFF8741909688842BBD000206E
:1074100030BD10B54FF41852DFF86419DFF8640975
:10742000FFF76AFEDFF86009002100220B460C46D8
:107430001EC010BD10B5002208E0135CA3F161046A
:10744000E4B21A2C3CBF203B1354521C8A42F4DB9A
:1074500010BD2DE9FF4180460E46DFF8284904F2B1
:10746000004710250B22394601A8FFF735FE0B21F6
:1074700001A8FFF7DFFF0B22414601A802F0B4F894
:1074800098B907F11C00017831704178717007F1EB
:107490001A0000A902780A7042784A70BDF800000C
:1074A00004EB402000F5007003E020376D1ED9D1B9
:1074B000002004B0BDE8F0812DE9F04FADF5097D65
:1074C0000024ADF8004000260FF6E00700AA0DF1F9
:1074D00002013846FFF7BDFF0190DFF8A89809F2D6
:1074E00000400290DFF8A0A80198002800F0018178
:1074F0004FF48C7143A8FFF74BFCDFF890784FF402
:10750000007201993846FFF7E7FDA04600252320C9
:1075100043A900FB081B05E0232D3CBF05F80B0029
:107520006D1C761C384602F091F8864206D2F05D5A
:107530000D2802BFF11949780A29EDD105F80B4051
:10754000B61C08F10108B8F1080FDFD30027DFF8F7
:1075500020880AEB87056E69304602F077F8232110
:1075600043AA01FB072B02463146584602F03CF87D
:1075700000286CD1686902F069F8064604E020280A
:1075800018BF3D285DD1761C00F0BEFA864258D265
:1075900016F80B00A0F13001C9B20A29EFD2302849
:1075A00001D1062F4DD15E440022F9B23046FFF7DB
:1075B000C9FE002845D0F9B23046FFF7CFFD2FB9FC
:1075C000B8F9180000F092FA43A837E0012F05D16E
:1075D000B8F91A0000F084FA4BA81DE0022F06D17A
:1075E000D8F8280000F070FA0DF5A97026E0032FF6
:1075F00005D1D8F82C0000F061FA5DA81DE0042F39
:1076000005D1B8F9200000F065FA66A816E0052F4C
:1076100004D100F071FA6EA8C01C0FE0062F07D14C
:10762000FCF792FD02460FF2E8710DF5EF7005E0F0
:10763000072F16D100F03DFA80A8401CFEF764FF2A
:107640000FE000F061FA0146584601F089FC6C6BCE
:10765000204601F0FBFF024621465846FFF73CFD5D
:1076600001247F1C082FFFF474AF002C02BFDFF849
:107670000807007800283BD0FE2103A8FFF788FB0D
:107680000027232043A900FB071103A801F0F9FFFD
:107690000AEB8700416D03A801F0F3FF7F1C082F60
:1076A000EFD303A801F0D2FF0246BDF8000009EBBA
:1076B0004010FF2A80F81C2400F21C4094BF0021D7
:1076C000110A417001980299401A00F500704112A8
:1076D00000EB91508012012100F80A1003A801F07C
:1076E000B5FF024603A90198FFF7F6FC00F053FA34
:1076F0005DE00FF2387500AA0DF102012846FFF790
:10770000A8FE09F21644DFF88886D0B1FE220146B1
:1077100003A8FFF7E1FC00F05CF809F584600ECDEA
:107720000EC0FE2203A909F50060FFF7E5FC6675AF
:10773000C4F82080032089F83A04FE2089F83C042C
:1077400001E000F046F802980ECF0EC00FF6E807F1
:10775000062239464846FFF7CFFC0622394609F58E
:107760000070FFF7C9FC00270AEB8705D5F834B095
:1077700000F0CAF900F032F8686B01F067FF861973
:10778000D5F854B000F0C0F900F028F8686D01F0A9
:107790005DFF86197F1C082FE6D3002089F80B04B3
:1077A000C9F8168402202071A67100F01DFA42F675
:1077B0000C0000EB09010022CA760A774A7640F8ED
:1077C0000920002088600861C8600DF5097DBDE8CA
:1077D000F08F4FF418514846FFF7DABA024659467F
:1077E00006EB090000F5C060FFF776BC2DE9F04F0D
:1077F000ADF50B7D06460F46DFF88C55DFF8849516
:10780000B7F5805F0BD14FF40072494601F0ECFEF2
:10781000002815D04FF40072314648460CE0B7F509
:10782000205F0ED109F5007400F071F9002807D02F
:107830004FF4007231462046FFF74EFC01202870BD
:1078400031E1B7F5804F22D109F2004400F05FF931
:107850000028F5D04FF4007231462046FFF73CFC7B
:107860000120687010240FF244570C22314600A802
:10787000FFF732FC0B22394600A801F0B5FE10B923
:10788000B07E28820FE12036641EEED10BE1A7F511
:107890000044B4F5005FF9D807EB0900A0F5F448FF
:1078A0004FF400724146304601F09EFE08B100F0F0
:1078B00033F9A7F5FC4005EB902A600A801C298A61
:1078C000884240F0ED8000244FF48C7145A8FFF70A
:1078D0005FFADFF8B88400F01FF9002600272320A4
:1078E00045A900FB061B05E0232F3CBF07F80B0052
:1078F0007F1C641C404601F0A9FE844208D214F8A3
:1079000008000D2802BF04EB080149780A29EBD1D1
:10791000002007F80B00A41C761C082EDED30026DE
:10792000DFF84C7405EB8604D4F814B000F0ECF8E2
:107930000246232045A900FB06185946404601F09F
:1079400053FE002840F09780606901F07FFE0446F6
:1079500004E0202818BF3D2810D1641C404601F0E7
:1079600075FE844280F0A18014F80800A0F1300177
:10797000C9B20A29EDD2302802D1062E40F09580F6
:1079800044440122F1B22046FFF7DCFC00287BD002
:10799000F1B22046FFF7E2FB404601F057FE0146F8
:1079A000404601F0DDFA2EB9B7F9180000F09EF854
:1079B00045A835E0012E05D1B7F91A0000F090F87E
:1079C0004DA81BE0022E05D1B86A00F07DF80DF538
:1079D000AD7025E0032E04D1F86A00F06FF85FA8BF
:1079E0001DE0042E05D1B7F9200000F073F868A857
:1079F00016E0052E04D100F07FF870A8C01C0FE03F
:107A0000062E07D1FCF7A0FB02460FF204410DF54C
:107A1000F37005E0072E05D100F04BF882A8401C5A
:107A2000FEF772FD761C082EFFF47CAFFE2105A840
:107A3000FFF7AEF90026232045A900FB061105A893
:107A400001F01FFE05EB8600416D05A801F019FE4F
:107A5000761C082EEFD305A801F0F8FD0446288A0D
:107A600009EB4010FF2C80F8DC4300F5777094BFE1
:107A70000021210A09E0646B204601F0E7FD02467F
:107A800021464046FFF728FB0FE041704FF400729B
:107A900005A909F5C060FFF72FFB0120687000E021
:107AA00001208AF8010000F076F80DF50B7DBDE8A5
:107AB000F08FB24802680FF2683170476421B0FB62
:107AC000F1F20FF2203170476421B0FBF1F20FF2B6
:107AD000043170470A2190FBF1F20FF21831704720
:107AE0000A2190FBF1F20FF2E02170470A2190FB8E
:107AF000F1F20FF2C42170479E4800680A21B0FBE2
:107B0000F1F20FF2FC217047584601F09FBD4FF48F
:107B10000072214601F068BD4FF4007231464046C4
:107B2000FFF7DABA38B504460D46FFF715FB25B95D
:107B30004FF400720FF2003121E09249B5F5805FF9
:107B400008BF4FF400721AD0B5F5205F04D14FF48E
:107B5000007201F5007112E0B5F5804F04D14FF4C9
:107B6000007201F580610AE0A5F50040B0F5005F04
:107B70000AD84FF4007205F1006101F58C412046EE
:107B8000BDE83840FFF7A8BA4FF400712046BDE8C1
:107B9000344001F0E5B9F8B501F048FB00207A491E
:107BA000425CD2B1002242548402754D281901F082
:107BB00088FD74482618002736F8021B3819281843
:107BC00001F06EFD042803D001F03AFB0420F2BD61
:107BD000BF1CB7F5806FEFD302E0401C1028DFD345
:107BE00001F02EFB0020F2BD70B5664C01F01EFBCB
:107BF0000025634E06EB852001F063FD6D1C092D09
:107C0000F8DB002534F8021B701901F049FD042847
:107C100001D0042070BDAD1CB5F5185FF2DB01F09A
:107C20000FFB002070BD2DE9F04142F61804554DC0
:107C30006619584F327A2AB9400238604802786093
:107C400001203072307A012831D1605978B905F5B8
:107C5000185839684046FFF765FF40229821404692
:107C600001F044FD4FF4E070605140200CE04022F0
:107C70009821B868401900F5185001F037FD605997
:107C800040386051B8684030B8604021012001F0B0
:107C9000D8FD3021012001F05EFD386840303860A9
:107CA0007868403878603C488168403981607868FD
:107CB00038B96051B860386038480321017000203D
:107CC0003072BDE8F0812DE9F04142F61C042D4DE3
:107CD000625940326619324F33792BB9400238600D
:107CE0004802786001203071307901282FD10020BE
:107CF0002C490AE05B1903F5185310F801C083F80A
:107D000000C0401C63595B1C635163599342F1D31B
:107D1000DFF89480B8F800003968411839607A6853
:107D2000101A7860C00507D100206051A1F50071DC
:107D300005F51850FFF75AFD17488168B8F800207C
:107D4000891A81604FF44051022001F015FD7868D6
:107D500000281EBF11480078042806D10020605179
:107D6000012101F0D5FE00203071BDE8F081000056
:107D700060020020F8030020EC030020F403002040
:107D800000C0000828040020E8010020642C002026
:107D9000188DDD40E4300020D43000203430002045
:107DA000F0300020D42F002036300020434F4E46C4
:107DB0004947202054585400545F5374616E6462E4
:107DC000793D256400000000545F576F726B3D25BC
:107DD00064000000576169745F54696D653D2564F6
:107DE0000000000049646C655F54696D653D256461
:107DF00000000000545F537465703D25640000006E
:107E00005475726E5F4F66665F763D2564000000B4
:107E100054656D7053686F77466C61673D256400EB
:107E20005A65726F505F41643D2564004C4F474F67
:107E3000494E2020424D5000EB3C904D53444F534F
:107E4000352E3000020108000200025000F80C003C
:107E5000010001000000000000000000000029A255
:107E600098E46C4E4F204E414D4520202020464145
:107E700054313220202033C98ED1BCF07B8ED9B84A
:107E800000208EC0FCBD007C384E247D248BC1991F
:107E9000E83C01721C83EB3A66A11C7C26663B071A
:107EA000268A57FC750680CA0288560280C3107362
:107EB000EB33C98A461098F7661603461C13561E04
:107EC00003460E13D18B7611608946FC8956FEB8A5
:107ED0002000F7E68B5E0B03C348F7F30146FC1165
:107EE0004EFE61BF0000E8E600723926382D741797
:107EF00060B10BBEA17DF3A66174324E740983C7D5
:107F0000203BFB72E6EBDCA0FB7DB47D8BF0AC98F4
:107F100040740C487413B40EBB0700CD10EBEFA0F7
:107F2000FD7DEBE6A0FC7DEBE1CD16CD19268B5552
:107F30001A52B001BB0000E83B0072E85B8A56248D
:107F4000BE0B7C8BFCC746F03D7DC746F4297D8C7B
:107F5000D9894EF2894EF6C606967DCBEA0300001B
:107F6000200FB6C8668B46F86603461C668BD06643
:107F7000C1EA10EB5E0FB6C84A4A8A460D32E4F7F2
:107F8000E20346FC1356FEEB4A525006536A016A5E
:107F900010918B4618969233D2F7F691F7F64287F6
:107FA000CAF7761A8AF28AE8C0CC020ACCB8010273
:107FB000807E020E7504B4428BF48A5624CD136180
:107FC00061720B40750142035E0B497506F8C341AF
:107FD000BB000060666A00EBB04E544C4452202057
:107FE000202020200D0A52656D6F7665206469732C
:107FF0006B73206F72206F74686572206D656469A1
:10800000612EFF0D0A4469736B206572726F72FFF7
:108010000D0A507265737320616E79206B6579204B
:10802000746F20726573746172740D0A0000000031
:10803000000000ACCBD855AAF8FFFFFFFFFF0000FF
:108040002DE9F04FA1B0804617461D46029102AEC1
:108050000020706211AC6FF000490AE017F8011BB4
:108060000298C0470290002800F06A82706A401CA3
:108070007062387808B9706A64E22528EED1002071
:10808000F06030617061B061F061306201E040F039
:10809000010017F8011F2029F9D023290DD02B2921
:1080A00004D02D2906D030290AD00CE040F002007F
:1080B00080B2EEE740F00400FAE740F00800F7E78E
:1080C00040F01000F4E72A290DD129680A1D2A6022
:1080D0000968F162002904D54942F16240F00400C8
:1080E00080B27F1C12E00021F16209E0F16A49458B
:1080F00005D001EB810302EB43013039F1627F1CB3
:108100003A78A2F13001C9B20A29EFD339782E2981
:1081100003D04FF0FF31B1621DE017F8011F2A298B
:1081200006D129680A1D2A600968B1627F1C12E025
:108130000021B16209E0B16A494505D001EB810334
:1081400002EB43013039B1627F1C3A78A2F1300171
:10815000C9B20A29EFD3308639780FF6983001F08A
:1081600019FD08B117F8010B8DF83A009DF83A0097
:10817000682804D1387868280AD1622005E06C2884
:1081800004BF38786C2803D171208DF83A007F1C29
:1081900011A8B0603978B1F1250023D01C3871D016
:1081A000001F02286ED9133800F09680093869D074
:1081B000801E00F02781401E00F0D180401E022862
:1081C00060D9001F00F0CB80401F30D0401E00F06F
:1081D0008380401E20D0C01E09D0801E7CD0C01ECF
:1081E0007AD017E1F068411CF16025211BE1286875
:1081F000011D296000687060B26A002A02D501F092
:1082000025FA07E0002101F0D1FC00281ABF7168AF
:10821000401AB06A306107E12868011D29600068D2
:108220000021CDE9000111A870607821E6E09DF8F9
:108230003A00622818D0682806D06A280BD06C282B
:1082400019D0712807D016E02868011D2960716ACD
:1082500000680180E8E02A68101D2860706AC11774
:108260001268C2E90001DFE02868011D2960716A17
:1082700000680170D8E02868011D2960716A0068F3
:108280000160D1E02868C01D20F00700286000F1DF
:1082900008022A60D0E90023CDE90023002B04D591
:1082A000F068421CF2602D220DE0308E820704D56A
:1082B000F068421CF2602B2205E0C00704D5F0688C
:1082C000421CF26020220255F06811AA80187060EA
:1082D00000A800F0C5F9A7E09DF83A006C2808BF97
:1082E0002A6811D0712808BF2A6802D06A282A6833
:1082F0000AD1D21D22F007022A6094460CF108022E
:108300002A60DCE9002303E0131D2B6012680023C0
:10831000CDE90023682808BF92B207D0622808BFC1
:10832000D2B203D0742818BF7A2802D10023CDE935
:10833000002396F8300000075CD5DDE90023002B10
:1083400008BF002A56D041F02000782852D1F068AA
:1083500030220255401C421CF26001554AE09DF853
:108360003A0062280CD0682810D06A281AD06C28ED
:1083700023D0712816D074281FD07A280CD01CE086
:108380002868021D2A6090F900201AE02868021D62
:108390002A60B0F9002014E02868021D2A600268F3
:1083A00000230FE02868C01D20F00700286000F1BE
:1083B00008022A60D0E9002304E02868021D2A6030
:1083C0000268D317CDE90023002B04DAF068421CC1
:1083D000F2602D220DE0308E820704D5F068421C39
:1083E000F2602B2205E0C00704D5F068421CF26061
:1083F00020220255F06811AA8018706000A800F0D1
:10840000A4F811E0F068411CF16029680A1D2A6097
:10841000096808E0F068421CF2602522025519B193
:10842000F068421CF26001557F1CF06AF168401A46
:10843000B169401A3169401AF169401A7169401AEC
:10844000316AA0EB010A96F83000400711D42020D1
:108450008DF84000BAF1010F0BDBD346012310AABF
:1084600000A9404600F02FFC002869D1BBF1010BA8
:10847000F4D1F36811AA00A9404600F024FC0028BA
:108480005ED130208DF84000D6F818B0BBF1010F56
:108490000ADB012310AA00A9404600F014FC0028C2
:1084A0004ED1BBF1010BF4D13369726800A940468B
:1084B00000F009FC002843D130208DF84000D6F8A8
:1084C0001CB0BBF1010F09DB012310AA00A9404633
:1084D00000F0F9FBA0BBBBF1010BF5D1736930696A
:1084E0007168421800A9404600F0EDFB40BB302007
:1084F0008DF84000D6F820B0BBF1010F09DB012355
:1085000010AA00A9404600F0DEFBC8B9BBF1010B80
:10851000F5D196F8300040077FF5ABAD20208DF8FF
:108520004000BAF1010FFFF6A4AD012310AA00A983
:10853000404600F0C8FB18B9BAF1010AF5D198E538
:108540004FF0FF3021B0BDE8F08F2DE9FA4782B03F
:10855000064635696F2908BF082705D041F020007D
:10856000782814BF0A2710273C24D6E9000180464A
:1085700089469DF80820642A18BF692A05D1002978
:1085800003DAD8F1000869EB4909B9F1000F08BF17
:10859000B8F1000F0CD1306B50B9082F3BD196F8D1
:1085A0003800000737D53B24302085F83B0032E007
:1085B000A4F1010A5446FB17404649463A4601F0E9
:1085C00021FBCDE90089B846A8FB0023DDE900893D
:1085D000A8EB02023032D2B23A2A03D39DF8083017
:1085E000513B9A180AF8052080465FEA010908BF46
:1085F000B8F1000F03D0F06861198842D8D3082F72
:1086000009D196F83800000705D5605D302802D002
:10861000641E30206055C4F13C00B0616119F16006
:10862000316B884207DA081A3062308F4FF6EF71EB
:108630000840308710E000290ED596F8381001F078
:108640001401102908D1716B7269891A326A891A6A
:10865000081A0128A8BF306204B0BDE8F087000006
:108660002DE9F24F8EB0044604AED4E90001CDE905
:1086700002019DF8380040F020008DF800006128CC
:108680000BD0206B002848BF062005D404BF9DF8FE
:108690000000672801D1012020636168C1F30A50FE
:1086A00040F2FF7398421ED1080304BF20680028DF
:1086B0000AD10320A0619DF838006138C0B21A28A1
:1086C00038D30FF2446109E00320A0619DF838001F
:1086D0006138C0B21A282AD30FF224610322E0685D
:1086E000FEF7FAFCB9E1012817DA204601F001FB98
:1086F000012812DB002700209DF80010612920D1FD
:10870000E168302201F8012B4A1CE2609DF8382014
:10871000612A0CBF782258220FE040F2FE316268D5
:1087200061F31E526260471A4FF0FF30E4E70FF228
:10873000CC51D3E70FF2CC51D0E70A706169891CA4
:10874000616110B9002500277EE19DF800006128D5
:1087500040F09780206B00284CBF2125451C2DB28E
:108760006E1CD4E90089DDE902010022002301F03A
:10877000E1FA3ABF89F00040CDE90280CDE90289F3
:108780003F1F8DF810200DF11108012E35DBDDE9BA
:1087900002010022002301F0E5FA2ED21C2102A8DA
:1087A00001F0F8FADDE9020101F07AFB8146F61FDB
:1087B000012E09DB01F0A0FB02460B46DDE90201B8
:1087C00001F0B2FBCDE9020108F20700072105E044
:1087D00009F00F0200F8012D4FEA2919B9F1010F34
:1087E00001DB491EF4D5491E5CBF002200F8012DB3
:1087F000F9D500F20708012EC9DA0DF11100A8EB36
:1088000000010DF11106A942B8BF0D462DB2002D91
:1088100030D42846884206DA04A941184978082944
:1088200028BF0F2100D2002104AA821800E06D1E8B
:10883000401E12F801398B42F9D00F2904D104A946
:1088400041184A78521C4A70002802D504AE6D1CAB
:108850003F1D2DB2681E0DD481190A783032D2B274
:108860003A2A03D39DF838303A3B9A1801F8012987
:10887000401EF2D5206B002840F1E680681E206380
:10888000E2E0DDE902010022002301F053FA3CBFDF
:1088900081F00041CDE902013FB247F297507843A1
:1088A000474990FBF1F73FB2C7F107069246DFF860
:1088B00014B1012E19DBDDE90289F00707D5524614
:1088C0005B464046494601F0EFFB804689467610FC
:1088D0005046594652465B4601F0E6FB82468B46BF
:1088E000002EEAD1CDE9028921E076429046DFF8F8
:1088F000D89012E0F00707D552465B4640464946FD
:1089000001F0D2FB804689467610504659465246C1
:108910005B4601F0C9FB82468B46002EEAD1DDE9B9
:10892000020142464B4601F091FCCDE902019DF85F
:10893000000066280CBF07F10A000620216B4518CD
:10894000142DA8BF132530208DF810000DF111064D
:10895000DFF87890012D3BDBDDE9020101F0B6FA8A
:1089600006F1080104220A26B0FBF6F303EB830E9E
:10897000A0EB4E00303001F8010DB3FBF6F000EB38
:108980008006A3EB4603303301F8013D521EEAD1C5
:1089900001F10806083D012DDCDBDDE9020101F0F3
:1089A00095FA01F0B3FA02460B46DDE9020101F047
:1089B000BBFA00224B4601F077FBCDE90201CBE781
:1089C000A0860100000024400000F03F84D79741BA
:1089D0000DF11100301A0DF1110602E0401E7F1E4C
:1089E000761C31783029F9D09DF80010662902D123
:1089F0003FB2791C03E065290CBF01210021226BE5
:108A00008D182DB2A842B8BF05462DB2002D1BD43B
:108A10002946814204DA885D352828BF392000D2F2
:108A200030208A19521E00E06D1E491E12F80139CD
:108A30008342F9D0392802D1885D401C885500292D
:108A400002D5761E6D1C7F1C3FB200972BB23246BA
:108A50009DF83810204600F003F80FB0BDE8F08F05
:108A60002DE9F04385B00546894617461E46D5F8E0
:108A70003080012E02DA01260FF2902749F0200003
:108A8000BDF93040662808BF641C18D0672840F044
:108A900082806FF003008442C0F28380444580F2FC
:108AA0008080641C95F83800000702D44645B8BFA2
:108AB000B04624B2B8EB040848BF4FF00008E8689D
:108AC000A96924B2012C25DA4A1C30230B54B8F1D1
:108AD000010F03DA95F83810090702D52E21115439
:108AE000521CAA6118EB040FB8BFC8F1000424B2ED
:108AF00061426962A044B045B8BF464636B2EE61F5
:108B000032463946AB691818FEF7E6FAA8EB0600BC
:108B1000A862C1E00818A64218DA32463946FEF7C4
:108B2000DBFAA9697118A961A01B6862B8F1010F8D
:108B300003DA95F83800000705D5E8682E220A54B4
:108B4000E869401CE861C5F82880A5E0224639465E
:108B5000FEF7C2FAA8692018361BB8F1010F03DA34
:108B600095F83810090703D5E9682E224254401CB5
:108B7000A86136B2B045B8BF464636B23246E119B2
:108B8000EB68C018FEF7A8FAA8693018A861A8EB2E
:108B90000600686280E0B9F1610F16D14FF07009EC
:108BA00018E0464504DA95F83810090758BFB04672
:108BB000B8F1010848BF4FF00008B9F1670F14BFC2
:108BC0004FF045094FF0650904E0B9F1410F08BFC6
:108BD0004FF05009A9694A1CE86817F8013B0B548B
:108BE000B8F1010F05DA95F83810090758BFAA61E6
:108BF00017D52E211154531CAB61B8F1010F10DBB6
:108C0000761E36B2B045B8BF464636B23246394611
:108C10001818FEF761FAA8693018A861A8EB0600D9
:108C20006862A869E968471807F8019B002C03D41B
:108C30002B2007F8010B03E02D2007F8010B6442FD
:108C400000260DF1080809E00A22214600A801F0DB
:108C500020FC019808F8010B009C761C24B2012C22
:108C6000F2DA022E06DA49F02000652804BF30202F
:108C700007F8010B4EB9302007F8010B07E0761E0C
:108C800002A8305C303007F8010B012EF7DAA86932
:108C9000E9684018381AE86195F8380000F01400C7
:108CA00010280DD16869A9690818696A0818E96966
:108CB0000818A96A0818696B8842BCBF081A28629C
:108CC00005B0BDE8F083F8B504460D4616461F46CC
:108CD000002077B116F8011BA868A047A86030B142
:108CE000E86A401CE86200207F1EF3D1F2BD4FF01D
:108CF000FF30F2BD686A6C747A4C00006E616E00E1
:108D00004E414E00696E6600494E4600300000003C
:108D100010B586B0FDF763FC704C3C202070C0207D
:108D2000ADF8000003208DF802001C208DF8030030
:108D300000F04DF80020ADF808004BF6FF70ADF8DC
:108D40000A002078ADF80C004FF48060ADF80E00FA
:108D50004FF48040ADF81000614801905E4C01A9CD
:108D6000204601F09DFB0121204601F0F9FB06B0F1
:108D700010BD70475B4A012903D10146104600F03F
:108D800058B919B90146104600F055B9704780B579
:108D90000121082000F0EEF9C020ADF800001420F9
:108DA0008DF8030003208DF8020000F010F800F0A9
:108DB00012F800F05EF800F059F800F055F80021C4
:108DC00000F058F800F050F800F005F801BD00A9D7
:108DD000444800F0C9B800214020CBE780B5FFF738
:108DE000FAFF002100F046F800F03EF800F03EF8EF
:108DF00000F03AF800F03DF800F036F8FFF7EBFF2E
:108E00000520BDE80240B4E738B50446082508E06F
:108E100000F030F800F028F800F028F800F024F80E
:108E200064002846451EC0B230B1FFF7D4FF2006CB
:108E30004CBF01210021EBE7FFF7CDFF00F019F84F
:108E4000FF2400F011F800F043F848B900F00EF8E4
:108E500000F00AF8FFF7BFFF00F006F8012032BD6E
:108E6000641EEED1002032BD052082E701214020A2
:108E700080E7012180207DE770B5044608250026A3
:108E8000FFF7F7FF0DE0FFF7A6FFFFF7EDFFFFF796
:108E9000EDFFFFF7E9FF760000F01AF808B146F0A1
:108EA00001062846451EC0B20028ECD1FFF793FF0B
:108EB000002C0CBF01210021FFF7DCFFFFF7D4FFDE
:108EC000FFF7D4FFFFF7D0FFFFF785FFF0B270BDCB
:108ED0008021044800F0A6B800540040482F00202C
:108EE000A0860100000C014070B504460D461646F0
:108EF000FFF74DFF7000C0B201E014F8010BFFF75F
:108F000083FF2846451EC0B20028F6D1BDE8704058
:108F100064E7F8B504460D4616461F46FFF737FFCF
:108F20007600F0B2FFF770FF3846FFF76DFFFFF7EE
:108F30002EFF46F00100C0B2FFF766FF03E0FFF727
:108F40009BFF04F8010B2846451E28B1EDB2002D09
:108F50000CBF00200120F2E7BDE8F1403EE7000031
:108F6000002201F007BB00002DE9F0410022CC787F
:108F700004F00F03E40644BF8C7823430C880125DA
:108F80000F26E7B217B3D0F800C005FA02F7BE46C5
:108F90000EEA0408F04514D14FEA820E06FA0EF8E4
:108FA0002CEA080C03FA0EFE4EEA0C0C91F803E0D2
:108FB000BEF1280F08BF476103D0BEF1480F08BFBC
:108FC0000761521C082AE0D3C0F800C0B4F5807FC6
:108FD00026D3D0F804C0002202F1080705FA07F7EB
:108FE000BE460EEA0408F04515D14FEA820E06FA95
:108FF0000EF82CEA080C03FA0EFE4EEA0C0C91F85F
:1090000003E0BEF1280F08BF476191F803E0BEF10D
:10901000480F08BF0761521C082ADDD3C0F804C0FE
:10902000BDE8F08100228068084218BF0122104686
:109030007047016170474161704770B5134A00285D
:109040004CBF94691468C0F3034583B2460D3601E2
:10905000B34000F44016B6F5401F06D124F070640A
:10906000156825F07065156008E0C60243BF032649
:1090700006FA05F5AC439C4344F0706401B11C430F
:10908000002801D5946170BD146070BD04000140DA
:109090005048016841F00101016041684E4A1140A9
:1090A000416001684D4A11400160016821F480214E
:1090B0000160416821F4FE0141604FF41F018160AD
:1090C00070474749086070474749086070474549FD
:1090D0000A68920850EA82000860704741480068B8
:1090E00000F00C00704741490860704730B53D49B9
:1090F0000A683F4B02F00C02082A0ED10A680C687D
:10910000C2F38342921C3B4D5543E40302D50C68E5
:10911000A40301D52B4600E0534303600B68364A95
:109120000468C3F303139B5C24FA03F343600B68E6
:109130004468C3F302239B5C24FA03F383600B6847
:109140004468C3F3C2239B5C24FA03F3C360096839
:10915000C368C1F381318918097CB3FBF1F1016166
:1091600030BD264A0029116814BF084321EA0000D7
:1091700010607047224A0029116814BF084321EA91
:109180000000106070471F4A0029116814BF08438F
:1091900021EA0000106070471B4A0029116814BFC3
:1091A000084321EA00001060704700214209094B82
:1091B000012A08BF1A6803D0022A0CBF1A6A5A6A29
:1091C000012300F01F0003FA00F0024218BF012142
:1091D00008467047001002400000FFF8FFFFF6FE4F
:1091E000000042420410024060004242D800424265
:1091F00000127A0000093D00D8030020141002403C
:10920000181002401C1002400C100240DFF8D4106D
:109210000A6802F0380206E0DFF8C8100A6822F097
:1092200010020A600A68104308607047FFE7DFF821
:10923000B800DFF8B8100160DFF8B41001607047C3
:10924000FFE7DFF8B000016841F08001016070477E
:1092500038B5054600F015F804280DD1DFF8944024
:10926000206840F002002060656000F006F8216888
:1092700041F6FD721140216032BD206840F040008F
:1092800020604FF4302039E070B504460D4600F000
:1092900011F804280CD1174E306840F001003060FE
:1092A000258000F007F8316841F6FE721140316008
:1092B00070BD08804FF4005020E00F4908607047EF
:1092C00004200D490A68D20701D5012070470A68B9
:1092D000520701D5022070470968C90648BF03201C
:1092E000704700000020024004200240230167452F
:1092F000AB89EFCD102002400C20024010B5FFE7F3
:109300000446FFF7DDFF03E02CB1FFF7D9FF641E31
:109310000128F9D004B9052010BD00001B490843FD
:109320001B490860704770B503781A460121C4785C
:10933000ECB1174B1B6803F4E063C3F5E0631B0A51
:109340004478C3F10405AC4085780F2626FA03F370
:109350002B4023431B010F4C1355007842110E4B39
:1093600000F01F0001FA00F043F8220070BD501118
:109370000A4A03F01F03994042F8201070BD084AC2
:109380001140084307490860704700000000FA05D3
:109390000CED00E000E400E000E100E080E100E02E
:1093A00080FFFF1F08ED00E001684FF6FE721140DC
:1093B00001600021016041608160C1603349344A2D
:1093C00090421DD0334A904221D0334A904225D05A
:1093D000324A904229D0324A90422DD0314A9042AE
:1093E00003D1086840F4700029E02F4A904203D16D
:1093F000086840F0706022E02C492D4A904203D169
:10940000086840F00F001AE02A4A904203D1086829
:1094100040F0F00013E0284A904203D1086840F47D
:1094200070600CE0254A904203D1086840F4704017
:1094300005E0234A904203D1086840F47020086098
:10944000704702686FF30E128B681A430B6A1A4357
:109450000B691A434B691A438B691A43CB691A4348
:109460004B6A1A438B6A1A430260CA6842600A68F0
:1094700082604968C16070470029016812BF41F0ED
:1094800001014FF6FE721140016070470400024076
:10949000080002401C00024030000240440002402C
:1094A000580002406C000240800002400404024068
:1094B000080402401C0402403004024044040240FC
:1094C0005804024030B50488DFF8D820DFF8BC30FB
:1094D000984218BF90420ED0B0F1804F1CBFDFF809
:1094E000B050A84207D0DFF8AC50A8421CBFDFF84C
:1094F000A850A84204D14FF68F752C404D882C43BC
:10950000DFF89850A8421CBFDFF89450A84204D05E
:109510004FF6FF452C40CD882C4304808C888485F1
:109520000C880485984218BF90420AD0DFF8782052
:1095300090421FBFDFF874209042DFF87420904201
:1095400001D1097A01860121818230BD002901887B
:1095500012BF41F001014FF6FE72114001807047C9
:10956000002A828914BF114322EA010181817047D8
:109570000029018812BF41F080014FF67F7211402F
:109580000180704700BFC94301827047002C014031
:109590000004004000080040000C004000100040A3
:1095A00000140040003401400040014000440140EC
:1095B0000048014000B500BF13009646944610399C
:1095C00028BFA0E80C50FAD85FEA417C28BF0CC045
:1095D00048BF40F8042BC90728BF20F8022B48BF1A
:1095E00000F8012B00BD00000300002013F0030F62
:1095F00009D0521E22BF13F8010B11F801CBB0EBBA
:109600000C00F3D07047121F22BF53F8040B51F81F
:1096100004CB6045F7D0121D0AD200BA9CFA8CFC2C
:10962000B0EB0C0038BF6FF0000088BF012070471E
:10963000521E22BF13F8010B11F801CBB0EB0C0046
:10964000F6D0521C08BF10467047000000F101031D
:10965000810704D010F8011B89B18107FAD1026893
:10966000B2F10131914311F0803F04BF50F8042F53
:10967000F6E710F8011B11B110F8011BFBE7C01A47
:109680007047024600E0521C1378002BFBD111F802
:10969000013B137012F8013B002BF8D1704700001A
:1096A00038B504460D461048FFF728FE05281CBFB4
:1096B0003420FFF702FE29462046BDE83440FFF77C
:1096C000E3BD10B50446A0050CD10748FFF716FE10
:1096D00005281CBF3420FFF7F0FD2046BDE81040F0
:1096E000FFF7B6BD10BD0000A086010010B549000F
:1096F00001F1804101F5C041521C521009E010F8FF
:10970000013B10F8014B43EA042321F8023B891C7A
:10971000521EF4D110BD490001F1804101F5C04154
:10972000521C521004E051F8043B20F8023B521E38
:10973000F9D170474FF6F8710840DFF890110860D2
:10974000704710B5DFF8882152F8203048F68F14A2
:109750002340194324E010B5DFF8742152F820307B
:1097600048F6BF742340CC0648BF83F01003890637
:1097700048BF83F020030FE010B5DFF8542152F802
:1097800020304BF68F742340CC0448BF83F48053C1
:10979000890448BF83F4005343F4004141F0800141
:1097A00042F8201010BDDFF8281151F820204BF6A8
:1097B0008F731A4082F4405242F4004209E0DFF80D
:1097C000101151F8202048F68F631A4042F40042ED
:1097D000FFE742F0800241F820207047DFF8F010E8
:1097E00051F8202052040AD551F8202048F68F73F2
:1097F0001A4042F4404242F0800241F82020704773
:10980000334951F8202052060AD551F8202048F655
:109810008F731A4042F4004242F0C00241F8202007
:10982000704738E0294A126892B202EBC000294A18
:1098300037E03BE02549096889B201EBC0002549C2
:109840003AE0224A126892B202EBC000224A2AE0B1
:109850001E4A126892B202EBC000204A02EB40009E
:109860003F2909D34A091F23194208BF521E120477
:10987000910941F4004105E04A08C90748BF521C5C
:1098800012049109016070471049096889B201EB1F
:10989000C000124914E00D4A126892B202EBC000F7
:1098A0000F4A4908490042F81010704707490968F3
:1098B00089B201EBC0000A4951F8100080B270472C
:1098C00051F810008005800D70470000505C00408A
:1098D000005C004008600040046000400C600040F4
:1098E000006000400106090C41EA102070470000AA
:1098F00080B5964890F82010022909D018D3042981
:1099000002D00ED3052913D1002180F820100CE0DD
:10991000C17B28290CD1816A406ABDE8044000F06F
:109920009CBE0121002000F0F3F84FF440512BE1E0
:1099300001BD38B5854CE57B0220FFF7A5FF6084AB
:109940000246D8218248FFF7E6FE94F8200010B1C5
:10995000012803D00AE0BDE8314013E02A2D06D1EA
:10996000A16A606ABDE8344000F0A1BE022000F0A8
:10997000F9F82421052000F06BFE00210220BDE84B
:109980003440C5E010B5714C628C1AB17049204664
:10999000FDF7B2FB6F4861684160A1688160608C2F
:1099A0001F2806D0022000F0DDF8002020601A21D8
:1099B0008DE0E27B282A18BF2A2A0FD1607CA17C87
:1099C000090441EA0060E17C40EA0120217D08436E
:1099D0006062A07DE17D41EA0020A06220685E49CE
:1099E000884270D15D480068617B884204D3A07BC7
:1099F000401EC0B2102804D3022000F0B3F8242186
:109A000065E0606AA16A002A49D0032A2BD0082A9F
:109A100018BF0A2A53D0122A29D0152A4FD01A2A41
:109A20002DD01B2A27D01D2A49D01E2A23D0232A15
:109A30002DD0252A2FD0282A35D02A2A37D02F2AD0
:109A400039D0552A3BD05A2A1DD0882A18BF8A2AD5
:109A500035D08F2A18BF9E2A31D0A82A1CBFAA2A27
:109A6000AF2A2CD02FE0BDE8104000F0E9BDBDE8E2
:109A7000104000F0AFBDBDE8104000F0EDBDBDE806
:109A8000104000F0D5BDBDE8104000F0D5BDBDE8E8
:109A9000104000F0AEBDBDE8104000F0B9BDBDE81B
:109AA000104000F043BEBDE8104000F0D6BDBDE858
:109AB000104000F0FCBDBDE8104000F021BEBDE844
:109AC000104000F038BE022000F04CF820210520A4
:109AD00000F0BEFD00210120BDE8104018E010B5E7
