:020000040800F2
:104000005836002075B8000829B800082BB80008F9
:104010002DB800082FB8000831B8000800000000D3
:1040200000000000000000000000000033B800089D
:1040300035B800080000000037B8000839B800089B
:10404000B5B80008B9B80008BDB80008C1B8000884
:10405000C5B80008C9B80008CDB80008D1B8000834
:10406000D5B80008D9B80008DDB80008E1B80008E4
:10407000E5B80008E9B80008EDB80008F1B8000894
:10408000F5B80008F9B80008FDB8000801B9000843
:104090003BB8000809B900080DB9000811B90008BB
:1040A00015B9000819B900081DB9000821B90008A0
:1040B0003FB8000843B800082DB9000831B900081E
:1040C00035B9000839B900083DB9000841B9000800
:1040D00045B9000849B900084DB9000851B90008B0
:1040E00055B9000859B900085DB9000861B9000860
:1040F00065B9000869B900086DB9000871B9000810
:1041000075B9000879B900087DB9000881B90008BF
:1041100085B9000889B900088DB9000891B900086F
:1041200095B9000899B900089DB90008A1B900081F
:10413000DFF8840E406B7047DFF87C1E48637047E1
:10414000DFF8741E48707047DFF86C0E40787047D7
:1041500038B901EBC100052190FBF1F000F5A0702A
:1041600006E001EB8100A0F5C860092190FBF1F0A9
:1041700000B2704710B5DFF8444E00206060A061C7
:1041800002F0B3FF08B9082004E0042806DB02F0BF
:1041900037FA0620BDE8104003F082B9012003F091
:1041A0007FF9DFF81C0E006A606110BD30B585B084
:1041B00000240A25DFF80C0E03F086FC04196D1E9E
:1041C000F8D10A20B4FBF0F0642148439021B0FB01
:1041D000F1F24CA100F047F8002200A9012001F003
:1041E0007FF805B030BD30B583B004460D460621DA
:1041F00000A803F077FC2A4600F034F805F1090125
:1042000000A8DFF8B42D52786AB9642D07DA0A2DB8
:1042100003DA002D05D5002901D443210CE0432108
:1042200013E043210EE0642D09DA0A2D03DA002D94
:1042300007D5002903D445218170202105E04521BF
:1042400003E04521417020218170C17020208DF84C
:10425000040000A9204601F009F8DFF8600D1421E0
:10426000016037BD28A100A803F061BC70B582B021
:10427000DFF8B44E60780FF2940120B9009110235A
:10428000602200210BE0012802D16068009002E06A
:10429000022808D10091102360220021002003F0A1
:1042A00039FD606025E0032823D10025542616E05F
:1042B0001C200FF2F81100FB051060600E21F01DAC
:1042C00003F04FFD6068009010230E220021F0B231
:1042D00003F020FD6060F61F0A2003F0FAFE20784C
:1042E0008642E5DA0E3020706D1C062DDEDB0020E4
:1042F00020706078401CC0B2042808BF00206070A5
:1043000073BD000025665600256400000000000013
:10431000000000000000000000000000000000009D
:10432000000000000000000000000000000000008D
:1043300000000000000000000000008898BFBF9847
:1043400088000000008080808080800000000000E5
:10435000000000000000000000000000000000005D
:10436000000000000000000000000000002060606D
:1043700060606060909090909090909090909090FD
:1043800090909090909090909090909090606060BD
:10439000606060606070F888848282838383838336
:1043A00083828282828383838383838282828282E6
:1043B00086848484848484848484848484848484BB
:1043C00084848282828282828282FE0000000000D7
:1043D00000000000000000000000000000000000DD
:1043E00000000000000000000000000000000000CD
:1043F000000000000000000000000090B0FEFEB0D1
:10440000900000000080808080808000000000001C
:10441000000000000000000000000000000000009C
:1044200000000000000000000000000000206060AC
:10443000606060609090909090909090909090903C
:1044400090909090909090909090909090606060FC
:10445000606060606070F888848282838383838375
:104460008382828282838383838383828282828225
:1044700086848484848484848484848484848484FA
:1044800084848282828282828282FE0000F0F00036
:1044900000F0F0F00000FCF8F0E0C080000F0F002A
:1044A000000F0F0F00003F1F0F0703010000000067
:1044B00000000000000000000000000000000000FC
:1044C00000000000000000000001FFFF01010101E9
:1044D000010181C67E380080FFFF81810101010159
:1044E0000000000000202020E0E00080404020602C
:1044F000C04000808080FFFF81808080000000003D
:10450000000000804040202020404080000000004B
:104510003F7F448484848484844727000000008093
:1045200040402020204040C00000000020C3828680
:1045300084848C8C887830000000008040402020EB
:10454000204040C00000000020C3828684848C8C00
:1045500088783000000000000000008080C06020EB
:1045600010180C86E0E0E0ECFCF2F3F1F0F8ECE47B
:10457000E4E2E30100000000000000000080C04011
:104580002030180CC0C0C0D8F8E4E6E3E1F1D8C888
:10459000C8C4C603FCFCFC00000000C0382625018E
:1045A00001010101010101027F7F7F06090909095B
:1045B000090939484848483010080804FCFC000044
:1045C0000000C0382625010101010101010102029C
:1045D0007F7F060909090909093948484848301008
:1045E0000808040400000000000000008080C06093
:1045F00030180C8600E0E0ECF4F6F6FBF5E8E8E4B1
:10460000E2E2E1000000000000000000000080C0C5
:104610006030180C00C0C0D8E8ECECF6EBD1D1C883
:10462000C4C4C201FEFEFE80404060585402020233
:10463000020202843F3F3F0001010101010705051D
:1046400006020100FEFE8040406058540202020251
:10465000020284843F3F00010101010107050506B4
:1046600002010000F8B50C468578303DEDB20A2D08
:1046700038BF2A46C578303DEDB20A2D38BF2B46EB
:1046800000783038C0B20A2838BF01460026DFF86B
:104690002C5C18200FF2700700FB016C1CF807C09F
:1046A00006EB050E8EF860C000FB026C1CF807C01C
:1046B0008EF890C000FB036C1CF807C08EF8A8C0F1
:1046C000761C182EE8DB102744B902230C2208219F
:1046D000284600F08EFC05F1D80000E028460026B0
:1046E00000F0F8FD01F0D6FC761C082EF8DB7F1EEA
:1046F000EAD13CB900F084FA03F088FBBDE8F14050
:1047000002F0C1BEF1BD000000E010080810E0009A
:1047100000000000000F102020100F00000000001B
:10472000001010F800000000000000000020203FF2
:1047300020200000000000000070080808887000B9
:10474000000000000030282422213000000000007A
:104750000030088888483000000000000018202041
:1047600020110E00000000000000C02010F8000022
:104770000000000000070424243F24000000000083
:1047800000F80888880808000000000000192120AF
:1047900020110E000000000000E0108888180000C2
:1047A00000000000000F112020110E00000000008A
:1047B00000380808C8380800000000000000003F6A
:1047C00000000000000000000070880808887000E9
:1047D00000000000001C222121221C00000000001B
:1047E00000E010080810E000000000000000312286
:1047F00022110F0000000000000000000000000077
:104800000000000000303000000000000000000048
:1048100010B582B00FF21000002400F0F5F9641C0E
:10482000062CFAD313BD0000000000C0F0380804C5
:1048300004040408081C00000000000F1F30604042
:104840004040402030080000000000C0F0180C0478
:1048500004040C18F0C00000000000071F30604086
:10486000404060301F07000000000004FC1C38E0DE
:10487000C0000004FC040000000000407F40000075
:1048800001071E387F00000000000004FCFC848447
:104890008484E4040C100000000000407F7F40008E
:1048A00000000300000000000000000000040404F9
:1048B000FCFC040404000000000000000040404034
:1048C0007F7F404040000000000000C0F038080436
:1048D0000404040C1C000000000000071F386040A6
:1048E0004042423E3E0202002DE9F04184B00446BF
:1048F0008846062101A803F0F5F8E4A622463146D1
:1049000001F076FEDFF8B07601AD787828B9642C36
:10491000A8BF432008DA432004E0642CA8BF452048
:1049200002DA4520A8702020E87001A9012001F0DA
:1049300005FBB879411CB9710FF2500101F06CFF11
:10494000292003F0E7F9B879032804BF0020B871E3
:10495000062101A803F0C6F84246314601F048FEA0
:10496000787828B9642CA8BF432008DA432004E0F3
:10497000642CA8BF452002DA4520A8702020E870EA
:1049800001A9382001F0DAFABDE8FF8100003060AB
:10499000C080000000000000000000000000180CB3
:1049A000060301000000000000000000000030606D
:1049B000C0803060C0800000000000000000180CC3
:1049C0000603190C0603010000000000000030601F
:1049D000C0803060C0803060C08000000000180CD3
:1049E0000603190C0603190C060301000000183019
:1049F00060C08000000000000000000000000C0605
:104A0000030100000000000000000000000018305A
:104A100060C0983060C080000000000000000C06FC
:104A200003010C0603010000000000000000183024
:104A300060C0983060C0983060C0800000000C06F4
:104A400003010C0603010C060301000010B582B03F
:104A5000012808BF0FF2280103D0022808BF0FF277
:104A6000E001009100F03CFA012400F0CDF8641C54
:104A7000062CFAD300F0C4F8BDE8134002F003BDE1
:104A8000E01864E282010101010182E26418E000A1
:104A9000030C1021274E5850584E2721100C0300AC
:104AA000F00C0201010101020F00000000000000F3
:104AB000030C081010101008060000000000000091
:104AC00000601010909090E00000000000000000D6
:104AD000000E11111010081F101800000000000037
:104AE00000010101FF0000000000000000000000C4
:104AF000001010101F101010000000000000000037
:104B000000000000000000000000000000000000A5
:104B10008080808080808080808000000000000095
:104B20000107798000807907010000000000000083
:104B3000000000071C07000000000000000000004B
:104B4000E018040212214181814122120418E00080
:104B5000030C10202844424141422428100C030039
:104B6000F00C0201010101020F0000000000000032
:104B7000030C0810101010080600000000000000D0
:104B800000601010909090E0000000000000000015
:104B9000000E11111010081F101800000000000076
:104BA00000010101FF000000000000000000000003
:104BB000001010101F101010000000000000000076
:104BC00000000000000000000000000000000000E5
:104BD00080808080808080808080000000000000D5
:104BE00000010719E0B00D03010000000000000003
:104BF0000010181700011618100000000000000037
:104C00004FF47A7003F065BA00901023102200214F
:104C10002001C0B203F07EB870B582B00FF270050B
:104C200002F05FFA022808D00ED304280AD006D377
:104C3000052808BF0FF2041406E02C4604E00FF22A
:104C4000881401E00FF20C2405F18C00009000F0B4
:104C500047F9DFF86C56287880B90226142000FB4B
:104C600006402838009010230A2200210A2001F073
:104C700011FA761C092EF1DB012004E050211020EE
:104C800003F06FF80020287073BD00002564000059
:104C900001FF00E11FE000FF010000011E01000113
:104CA0001E010000006010109090E0000000000E57
:104CB000111110081F1800001010F04020101030C3
:104CC000000010101F1010000000000010F0201055
:104CD000101010E00000101F10000000101F100046
:104CE00000001013F30000000000000010101F105F
:104CF0001000000010F02010101010E00000101F35
:104D000010000000101F100000E010101010F01034
:104D10000000007D8A8A8A8A91700000000000806D
:104D2000E0F8FE0707FEF8E080000000101C1F1FDF
:104D30001F1F1F12121F1F1F1F1F1C1001FF01002A
:104D4000000000000000101F1010101010180400C8
:104D500000C0201010101020C00000070810101014
:104D60001008070010F00010F01000F01000000311
:104D70001C0300031C030000002020202020202012
:104D80002000000000000000000000000107798002
:104D9000008079070100000000071C0700000000E8
:104DA00000C0201010101020C000000708101010C4
:104DB0001008070000001010FE1010100000000086
:104DC00000000F1010080000001C22214141418208
:104DD0000700001E081010101008070000C0A09067
:104DE000909090A0C0000007081010101008040058
:104DF00010F02010101010E00000101F1000000034
:104E0000101F100000202020202020202000000063
:104E1000000000000000000001FF21212121F90312
:104E20000400101F1010101010180400001010F0D3
:104E30004020101030000010101F10100000000063
:104E4000001010F04020101030000010101F101043
:104E50000000000001FF4140404041FF0100101FE1
:104E600010000000101F100000001013F3000000DD
:104E70000000000010101F10100000000000E010E3
:104E8000101010F0100000609D8A8A8A8A917000CC
:104E900001FF2010101010E00000101F1000000093
:104EA000101F1000002020202020202020000000C3
:104EB00000000000000000000107798000807907F1
:104EC0000100000000071C07000000000000101097
:104ED000FE1010100000000000000F10100800006D
:104EE000102310220021084602F014BF2DE9F041E2
:104EF0001318DFF8C883DFF8CC138D785DB901256E
:104F0000CD7000250D7108254D7100250D704D7077
:104F100001258D7028E0CD7825BB0E794F7906EB01
:104F2000000EAE449EF833E005EB080484F8D8E0A8
:104F300002EB050EC644F4182C1994F833408EF891
:104F4000D8406D1CEDB2AF42E9D27D1C4D71761E8A
:104F50000E71EDB20B2D05D10A20487100200871A9
:104F6000012025E00D7925BB0125CE784F7911E090
:104F700006EB050EC6442C1894F833408EF8D84042
:104F800006EB020EAE44C644EC1894F833408EF89B
:104F9000D8406D1CEDB2BD42EAD3781E4871721C38
:104FA000CA70C0B228B901204871092008710020D8
:104FB000C870BDE8F081000048050020A031002045
:104FC000200500200028014010B500210022012307
:104FD000934003405400042AB9BFC4F10704A3401E
:104FE000E41FE3405918C9B2521C082AEFDB0846F7
:104FF00010BD2DE9F44F82B082465FEA0308B14D3F
:105000000AD1287828B900260027012028706E7060
:105010000CE0AE686F6910E0B8F1010F0BD1687851
:1050200030B900260027287001206870AE7004E0B7
:10503000EE68AF6901E02E69EF6900249DF8080071
:10504000484340000090DFF8749208E014F80A002A
:10505000FFF7BAFF04EB090181F8D800641C00983F
:105060008442F3D300229DF80800974903E09DF89D
:10507000083002EB4302009B9A422FD200240AE040
:1050800021F81EA031F81EE04FEA1E2A83F8D8A0AE
:105090008CF8D8E0641C8442E9D21318E31803EBBF
:1050A000090C02EB040E0EEB090393F8D8A09CF850
:1050B000D8B04BEA0A2A21F81EA0B8F1010F06D198
:1050C000002E14BF2AFA06FA0AFA07FAD8E7002FC8
:1050D0000CBF0AFA06FA2AFA07FAD1E7002408E018
:1050E00004EB090A9AF8D800FFF76EFF8AF8D80097
:1050F000641C00988442F3D31FB9102E08D10026F7
:1051000010277F1EB8F1000F04D1AE606F6108E078
:10511000761CF7E7B8F1010F07BFEE60AF612E61B3
:10512000EF61BDE8F78F000018320020F8B50446A3
:105130000D46664E1421304602F0D4FC0FF26C0787
:1051400024B900230A220121384606E0012C07D1A8
:1051500001230A22012107F12000FFF74AFF06E0A0
:10516000022C04D10A2201213846FFF7BFFE009627
:1051700010230A220021562002F0CCFD0FF2D404A5
:1051800002F08AF9042803D104F10C00009005E034
:10519000002D06BF07F11400009000941023062292
:1051A0000021502002F0B6FDF1BD000010188CC6A1
:1051B0006363C68C1810426331180C0C18316342BB
:1051C00000F01E1FF00000FF8080FF0042C68C1818
:1051D0003030188CC64208183163C6C663311808CF
:1051E0008C8CC6C68C8CC6C68C8C3131181831316B
:1051F00018183131008C8C8C8C8C8C8C8C8C8C8C19
:105200008C8C8C00003131313131313131313131DF
:105210003131310080C0603098CC66333366CC9831
:105220003060C08088CC6633190C060303060C1965
:105230003366CC88113366CC983060C0C06030983B
:10524000CC6633110103060C193366CCCC663319D6
:105250000C06030100F0FEFFF000007F7F7F7F005F
:10526000FF0FE1E00FFFFF80BFBF80FF38B50C46A6
:10527000451EEDB2082D0AD3002508E03638C0B22D
:10528000134901F0C9FA280100F005FF6D1C2078D0
:1052900098B114F8010B202808BF0A20F0D02D285F
:1052A00008BF0C20ECD0A0F130010A2938BF3038FB
:1052B000E5D3A0F141010629E0D331BD240200204D
:1052C0004F32002038060020682F0020FC0200200A
:1052D000B06D0008009010230C2200210C207047B4
:1052E00038B50C46451E002AEDB20CD1102D28BF52
:1052F00000252078B8B100F05FFB0FF22C0100F020
:1053000060FB6D1CF5E7102D0AD3002508E014F8AA
:10531000010B3038C0B20FF2006100F052FB6D1C7F
:1053200020780028F3D131BD00000000000000000B
:105330000000000000000000000000F80000000075
:10534000000000333000000000100C06100C0600B6
:10535000000000000000000040C07840C07840001D
:10536000043F04043F040400007088FC083000007F
:10537000001820FF211E0000F008F000E0180000D7
:1053800000211C031E211E0000F008887000000090
:105390001E2123241927211010160E0000000000E2
:1053A0000000000000000000000000E018040200FF
:1053B000000000071820400000020418E000000070
:1053C0000040201807000000404080F0804040006E
:1053D0000202010F01020200000000F000000000C4
:1053E0000101011F01010100000000000000000098
:1053F00080B070000000000000000000000000000D
:105400000001010101010101000000000000000095
:105410000030300000000000000000008060180430
:10542000006018060100000000E010080810E0000D
:10543000000F102020100F00001010F800000000D6
:105440000020203F2020000000700808088870001D
:10545000003028242221300000300888884830009D
:105460000018202020110E000000C02010F80000BD
:1054700000070424243F240000F808888808080056
:105480000019212020110E0000E01088881800006B
:10549000000F112020110E0000380808C83808003D
:1054A0000000003F000000000070880808887000BD
:1054B000001C222121221C0000E010080810E0003E
:1054C0000000312222110F00000000C0C0000000C7
:1054D00000000030300000000000008000000000EC
:1054E00000008060000000000000804020100800E4
:1054F00000010204081020004040404040404000AD
:105500000404040404040400000810204080000087
:105510000020100804020100007048080808F0008C
:105520000000003036010000C030C828E810E0005C
:105530000718272423140B000000C038E0000000E7
:10554000203C23020227382008F888888870000051
:10555000203F202020110E00C03008080808380025
:10556000071820202010080008F808080810E0009C
:10557000203F202020100F0008F88888E80810003D
:10558000203F20202320180008F88888E808100011
:10559000203F200003000000C03008080838000049
:1055A00007182020221E020008F808000008F8084A
:1055B000203F210101213F20000808F808080000D1
:1055C0000020203F2020000000000808F808080004
:1055D000C08080807F00000008F888C0281808007C
:1055E000203F20012638200008F8080000000000B5
:1055F000203F20202020300008F8F800F8F80800AC
:10560000203F003F003F200008F830C00008F808A5
:10561000203F200007183F00E01008080810E000B5
:105620000F10202020100F0008F808080808F000CC
:10563000203F210101010000E01008080810E000EF
:105640000F18242438504F0008F888888888700084
:10565000203F2000030C3020007088080808380024
:105660000038202121221C00180808F8080818001A
:105670000000203F2000000008F808000008F8089B
:10568000001F202020201F000878880000C838084C
:10569000000007380E010000F80800F80008F800C4
:1056A000033C0700073C030008186880806818085E
:1056B00020302C03032C30200838C800C8380800DC
:1056C0000000203F2000000010080808C83808002B
:1056D0002038262120201800000000FE02020200CF
:1056E0000000007F40404000000C30C0000000007F
:1056F000000000010638C00000020202FE000000A7
:10570000004040407F00000000000402020204004C
:105710000000000000000000000000000000000089
:105720008080808080808080000202040000000071
:105730000000000000000000000080808080000069
:105740000019242222223F2008F800808000000057
:10575000003F112020110E0000000080808000001A
:10576000000E112020201100000000808088F80029
:10577000000E112020103F2000008080808000005B
:10578000001F222222221300008080F088888818BF
:105790000020203F202000000000808080808000CA
:1057A000006B94949493600008F80080808000005F
:1057B000203F210000203F2000809898000000003A
:1057C0000020203F2020000000000080989800006A
:1057D00000C08080807F000008F80000808080008A
:1057E000203F24022D302000000808F800000000AF
:1057F0000020203F2020000080808080808080006A
:10580000203F20003F20003F8080008080800000FB
:10581000203F210000203F20000080808080000089
:10582000001F202020201F008080008080000000BA
:1058300080FFA12020110E000000008080808000E9
:10584000000E112020A0FF808080800080808000DA
:1058500020203F2120000100000080808080800007
:105860000033242424241900008080E0808000007C
:105870000000001F202000008080000000808000C9
:10588000001F202020103F2080808000008080802A
:1058900000010E30080601008080008000808080BA
:1058A0000F300C030C300F000080800080808000DF
:1058B0000020312E0E31200080808000008080800A
:1058C00080818E70180601000080808080808000BA
:1058D0000021302C2221300000C725171010102085
:1058E000000708101010100800000000FF00000062
:1058F00000000000FF0000000007F5171010101056
:1059000000003F010101010100060101020204043F
:1059100000000000000000000000E010080810E097
:1059200020000F102020100F00001010F8000000C1
:10593000200020203F20200000007008080808F008
:105940002000302824222130000030080808887008
:10595000200018202121221C0000804030F8000087
:1059600020060524243F24240000F888888808089D
:10597000200019202020110E0000E01088889000DF
:1059800020000F112020201F000018080888681828
:10599000200000003E0100000000708808088870A8
:1059A00020001C222121221C0000F008080810E021
:1059B000200001122222110F14F8010B2038C0B26E
:1059C000704701EB00100090102308220021E8002E
:1059D000C0B202F09FB910231022002102F09AB940
:1059E00038B5DFF8DC4B51EA000213D100250CE09A
:1059F000012D05D1009400F046F802F08BF9044621
:105A00006D1C022D3DDA002DF2D1009400F007FF4D
:105A10000846F2E7C8B1002933D101280AD104F1C0
:105A20002000009010231022502002F073F904F19E
:105A3000400015E0022824D10094102310220020F9
:105A400002F068F904F1600017E0D1B101290DD12D
:105A500004F1200000F016F802F05CF904F1800077
:105A6000009010231A460021084608E0022908D1B8
:105A70000094FFF7B0FF04F1A00000F003F802F07B
:105A800049F931BD009010231022002150207047A9
:105A900038B50C46451EEDB2602D10D300250EE042
:105AA000FFF78AFF0C210FF2200201FB002000907B
:105AB0000C2306220021E8B202F02CF9AD1D20785B
:105AC0000028EDD131BD0000000000000000000002
:105AD0000000000000007C00000000000200000048
:105AE00000040304030000000000000090FC90FC90
:105AF00090000003000300001824FE448800010207
:105B0000070201003844F8D02CC000030001020154
:105B1000C038E418E0200102020102010403000081
:105B200000000000000000000000F8060100000076
:105B300000030400000106F8000000040300000058
:105B40009060F8609000000001000000002020F844
:105B500020200000000000000000000000000403FE
:105B60000000000020202020202000000000000075
:105B70000000000000000002000000000000C03033
:105B80000C02040300000000F8040404F800010201
:105B9000020201000008FC000000000203020000F5
:105BA000188444241800030202020200080424247A
:105BB000D800010202020100C0A098FC8000000091
:105BC000020302007C242424C4000102020201001A
:105BD000F0482424C8000102020201000004C43479
:105BE0000C00000003000000D8242424D800010287
:105BF0000202010038444424F800010202010000BE
:105C00000000100000000000020000000000200062
:105C10000000000006000000006090080400000082
:105C20000001020050505050505000000000000091
:105C30000004089060000002010000001804C42461
:105C40001800000002000000F008E4F4847800016D
:105C50000202020100E09CF0800002030000030247
:105C600004FC2424D800020302020100F804040406
:105C70000C0001020202010004FC0404F80002030B
:105C80000202010004FC24740C000203020203005F
:105C900004FC24740C00020302000000F008044419
:105CA000CC4000010202010004FC2020FC0402039D
:105CB000000003020404FC040400020203020200C8
:105CC000000404FC04040C080807000004FC245031
:105CD0008C0402030200030204FC0400000002031F
:105CE00002020203FC3CC03CFC040300030003026C
:105CF00004FC30C4FC04020302000300F8040404A2
:105D0000F80001020202010004FC2424180002032E
:105D100002000000F8848404F80001020207050074
:105D200004FC2464980002030200030218242444A3
:105D30008C000302020201000C04FC040C000002AF
:105D40000302000004FC0000FC0400010202010048
:105D5000047C80E01C040000030000003CC07CC008
:105D60003C00000300030000049C609C040002034C
:105D700000030200043CC03C0400000203020000D7
:105D80000C84641C04000203020203000000FF01F3
:105D90000100000007040400000638C000000000F5
:105DA00000010600000101FF0000000404070000DC
:105DB00000020102000000000000000000000000DE
:105DC00000000808080808080001020000000000A0
:105DD000000000000040A0A0C00000010202030279
:105DE00002FE2020C00000030202010000C02020AB
:105DF000600000010202010000C02022FE0000013C
:105E00000202030200C0A0A0C000000102020200C2
:105E10000020FC2222040002030202000040A0A095
:105E2000602000050A0A0A0402FE2020C0000203C6
:105E3000020003020020E60000000002030200004E
:105E4000000020E6000008080807000002FE80604D
:105E500020000203000102000202FE000000020214
:105E600003020200E020E020C00003000300030062
:105E700020E02020C00002030200030200C0202016
:105E8000C00000010202010020E02020C000080F35
:105E90000A02010000C02020E0000001020A0F08F1
:105EA00020E0402020000203020000000060A0A0CB
:105EB00020000002020203000020F8202000000061
:105EC0000302020020E00020E000000102020302C1
:105ED00020E000E020000000030000006080E0807F
:105EE00060000003000300002060806020000203C7
:105EF0000003020020E00000E02008080503000085
:105F00000020A0602000000203020200000020FF29
:105F10000100000000070400000000FF0000000076
:105F2000000F00000001DF20000000040700000057
:105F3000020101020100000000000000F8B5044663
:105F40000D4600260FF248070DE0142101FB0070FA
:105F5000009010230A220021F6B20A2000FB06401E
:105F600000F099F8761C287888B115F8010B4328C1
:105F700008BF0B20E9D0452808BF0C20E5D0A0F1D0
:105F800030010A293ABF3038C0B20A20DDE7F1BD3E
:105F900000E0180404040418E000000F3040404002
:105FA00040300F0000000808FC0000000000000066
:105FB00040407F404000000000780404040404884E
:105FC00070000060504844424140700000380404B2
:105FD0008484C830000000384040404040211E000A
:105FE000000080601008FE00000000070404444424
:105FF0007F4444000000FC048484840404000038CE
:106000004141404040211E0000C030888484840407
:106010001800000F3140404040211E00001C0404C5
:106020008444340C04000000007E010000000000E5
:1060300000708804040404887000001C224141415F
:1060400041221C0000F0080404040418E0000030A1
:1060500041424242221907000000000000000000F7
:106060000000000000000000000000001C1CC03008
:1060700008040404083000000718204040402010A5
:106080001C120C0202FE8282E20200000000407F2D
:10609000400003007043C0B201F03CBE00210A2260
:1060A00002E090FBF2F0491C0028FAD1C8B2704718
:1060B0002DE9F84FDFF8A84C6420A0614FF4C870B8
:1060C000E0604FF4967002F004F800F099FA00F0E6
:1060D000F7FCDFF8905C2879DFF88C1CDFF88C6C1B
:1060E0000C22072824D8DFE800F004041316191C3A
:1060F0001F21012808BF06F1100702D008B906F1D8
:10610000140702FB0013D6F818C0C3F808C00FE04C
:1061100006F11C070CE006F1200709E006F118075C
:1061200006E0DFF84C7C03E06F1C01E006F1240779
:10613000424352F801805218D2F80490B2F808A0F5
:106140006A78012A09D1002818BF012805D1D1F8A1
:106150006080D1F86490B1F868A0012000F01CF9CB
:1061600000F0B3FF002875D000F0AFFF48F24011F7
:10617000884202D10020E0605DE000F0A6FFB0F5AB
:10618000014F04D000F0A1FFB0F5807F2CD1287919
:1061900006281DD1687828B3401E6870716909B25D
:1061A0000120FDF7D5FF8346316909B20120FDF7D3
:1061B000CFFF30614FF41670BBF5167FB8BF834632
:1061C000C6F814B03169B1F5167F0BDA306109E019
:1061D0003868814506DAA0EB0A0038604845B8BF48
:1061E00048463860012025E000F06FFF402805D0C8
:1061F00000F06BFF48F2400188421CD12879062844
:106200000ED16878A8B901206870716909B200F0F0
:1062100001FA7061316909B200F0FCF9306108E0FF
:106220003868404505DA504438608045D8BF40465C
:10623000386002202870E06860B1642001F049FFF6
:1062400000F03EFC4FF4C870E0602820A0610120FF
:1062500000F0A2F801F017F9E06800287FF47DAFA4
:1062600000F03BFF00F02CFC4FF44870E060C820C9
:10627000A06101206871BDE8F18F70B5DFF8E04AD8
:10628000E069652804D30020BDE8704000F021BF1C
:10629000DFF8D05AE068B0F52F7F04D26879012882
:1062A00004BF0020687100F010FF000404D5002036
:1062B00000F013FF6420E061E06908B900F0A0F984
:1062C0004FF4487600F001FFB0F5807F05D12879C2
:1062D00000280CBF0920401E08E000F0F6FE402810
:1062E0000AD12879092834BF401C0020287100F009
:1062F000E7FBE66001F08AFD00F0E7FEB0F5014F34
:1063000005D000F0E2FE48F24001884232D1002080
:10631000A0612879092804D0082809D0FFF7C8FE11
:1063200026E002F092FE00F0CBFB01F06FFD1FE0D3
:1063300001F0A9F8FEF764FC01F068FD01F011F826
:1063400000F0BFFE012803D102F087FA02F009FC39
:10635000DFF8205A287848B1FEF778FB01F093F86F
:10636000FEF74EFC0020287001F050FD00F0A8FB65
:10637000E6600EE000F0A9FE48F24011884204BF3A
:106380006879002805D100F0A8FE00F099FB0020F4
:10639000E0600020BDE870402DE9F04389B0804600
:1063A00001A8142101F09EFB0020ADF80000DFF8E9
:1063B000B45928794FF00A0909287CD0082877D0E9
:1063C000002205EB800041690020FEF789FF287953
:1063D000DFF8986906F1100476A730B9606800F01C
:1063E00004F9606890FBF9F03AE0012806D13069C1
:1063F00000F0FBF8306990FBF9F031E064260228E8
:1064000008D1E068B0FBF6F200F0F1F8E068B0FB0C
:10641000F6F025E0032808D12069B0FBF6F200F081
:10642000E6F82069B0FBF6F01AE0042806D1A0686F
:1064300000F0DBF8A06890FBF9F011E0052812D11C
:10644000DFF82C492068B0FBF9F200F0D0F82068A2
:10645000B0FBF9F109FB11023946FDF704FF206892
:10646000FFF71CFE23E006280AD16878002807BF42
:10647000032251A1032251A101A802F0A5FF15E0BA
:10648000072816D1207D002807BF03224DA1032233
:106490004DA101A802F098FFDFF8DC783878217D63
:1064A000884203D001F084FC207D38700220A8705F
:1064B00006E0092804D10FF6D80101A801F037FB46
:1064C00042A643A7DFF89848B8F1010F31D1A0697F
:1064D0003C282BD22878CEA1012805D1002200F03B
:1064E00094F8002239460AE00FF22838022806BF45
:1064F00000223946002200F088F80022414600F0D0
:106500006FF82879052804D100F075F800F062F8DA
:1065100002E0002201A90920FEF7E2FEA06900289E
:1065200045D16420A0610020287040E000F06BF8A5
:1065300039E02879082820D1A069002837D100F057
:1065400029FF6978012907D1014600F063F890FB23
:10655000F9F20FF64C0103E090FBF9F20FF6480157
:1065600006A801F0E4FA002206A90820FEF7B8FE0A
:10657000FDF71CFE1420A06119E0092804D101A92F
:106580000420FFF785FA12E000F03DF8287905288D
:1065900004D100F030F800F01DF802E0002201A95B
:1065A0000920FEF79DFE0022314600F019F809B0DF
:1065B000BDE8F08325640000435400004654000009
:1065C000D06F0008525400004C54000020202000DE
:1065D00020000000012200A9A8780830C0B270474E
:1065E000A8780930C0B2FEF77BBE90FBF9F23946BD
:1065F00001A801F09CBA002201A90920FEF770BE93
:10660000012000F06ABD002239460820FEF768BE6E
:10661000064639B20020FDF79BBD70B582B0044636
:1066200050250E01F6B20EE0102105F1100001F028
:1066300098FB009400F0F3F8E8B201F06BFB103D1A
:10664000192001F046FDB542EEDA73BD2DE9FD4E8D
:1066500081B00A20DFF81427B2F9142092FBF0F27F
:1066600012B2642392FBF3F5EDB203FB152999FBFB
:10667000F0FA5FFA8AFA03FB152200FB1A20C0B277
:106680000090DFF8E076F878012803D1F863002065
:10669000386406E0022805D10020F8631020386431
:1066A0000020F8700020B86389460FF2047405E0FA
:1066B000FEF78AFC8BF83801701CB863BE6BDFF8FC
:1066C000BCB6B6EB490F1FDAB34404EB4510305C9F
:1066D000FEF77AFC8BF8D80004EB4A10305CFEF72A
:1066E00073FC8BF8F800009804EB4010305CFEF768
:1066F0006BFC8BF818013019797801290CBF90F8E0
:10670000E00190F8A001D3E79DF80400C0F1030078
:1067100009FB00F04300F86B396CDFF8642601E0F8
:1067200003EB4903062505FB09F5AB422BDA0025EF
:1067300009E022F81E4032F81E60340A8AF8D84078
:106740008CF8D8606D1C4D45EADA03EB090AAA44BF
:106750000AEB0B0C03EB050E0EEB0B0A9AF8D84074
:106760009CF8D86046EA042422F81E409DF8086090
:1067700026B9002914BFCC408440DAE700280CBFBA
:106780008C40C440D5E700201AE005EB0B0494F8D8
:10679000D800FEF719FC84F8D80094F8F800FEF74A
:1067A00013FC84F8F80094F81801FEF70DFC84F847
:1067B000180194F83801FEF707FC84F83801681CCA
:1067C000B863BD6BB5EB490FDFDB0BF1D8000121DE
:1067D000B96300F023F8B86B0007000E01F09AFAD5
:1067E000B96B491CB9630529F3DBF86B396C50EAC6
:1067F000010202D019B9102804D1002005E0481E7A
:10680000386401E0401CF863012004B0BDE8F08E5C
:106810003C0000003E00000001EB401000901023FF
:106820001022002170472DE9F041DFF84005B0F952
:1068300014800FF29C7400212046FFF7EEFE4FF407
:106840007A7798FBF7F6F6B20FF26455012105EB63
:106850004610FFF7E2FE07FB1688642798FBF7F661
:10686000F6B2022105EB4610FFF7D7FE032107FB26
:1068700016800A2290FBF2F0C0B205EB4010FFF741
:10688000CCFEDFF8E0044078002819BF042105F5AC
:10689000F070042105F5D070FFF7BFFE052104F16B
:1068A0002000BDE8F041B8E670B5DFF8C024B2F9C9
:1068B00014204FF47A7392FBF3F4642592FBF5F6FF
:1068C000B6B249B9801890FBF5F190FBF3F080B2B5
:1068D000A4B2A04209D10AE0101A90FBF5F190FB96
:1068E000F3F080B2A4B2A04201D0032070BD89B2FF
:1068F000B14201D0022070BD012070BD2DE9F84FDA
:10690000FFF77EFEDFF86004DFF858446178002965
:1069100007BFD0F80090D0F804A0D0F86090D0F86D
:1069200064A0DFF84864B769DFF83454E8680028E9
:1069300000F0BC80606B38B10020606300F0CDFBDC
:1069400001F064FAFFF76FFF4FF4C87800F0BDFB69
:10695000B0F5A07F1AD101F059FA00F0B1F80EE0BD
:10696000E8681421B0FBF1F201FB120008B9FDF751
:106970001DFCE86808B9C5F80C8000F084FD00F043
:10698000A4FB48F240118842EAD187E000F09DFB69
:10699000B0F5807F04D000F098FBB0F5014F35D101
:1069A00000F093FBE179B0F5807F08BF002107D0AC
:1069B000B069FA2902D20A2808BF0A31C9B20F18F1
:1069C000E1717069824564DA0120E0700121B8B29A
:1069D000FFF76AFF83467069B9B2401A706150458B
:1069E000B8BF5046706100F063F80028FBD1022068
:1069F000E07000F05DF80028FBD100210120FEF7D7
:106A0000EFFF7069504544D101213FE000F05DFB8C
:106A1000402805D000F059FB48F2400188423FD1A0
:106A200000F053FBE179402808BF002107D0B0698E
:106A3000FA2902D20A2808BF0A31C9B20F18E17137
:106A40007069484525DA0020E0710120E0700021DE
:106A5000B8B2FFF729FF83467069B9B20844706184
:106A60008145D8BF4846706100F026F80028FBD168
:106A70000220E07000F020F80028FBD10021022065
:106A8000FEF7AEFF7069484503D102210020FEF7F2
:106A9000A7FF142001F01DFB00F012F8C5F80C80D0
:106AA000E868B0F5AF7F3CBF0020E071BDE8F18F32
:106AB000012210215846C9E5002210215846C5E59B
:106AC000002000F006BB20B1A548C06810B1FFF758
:106AD000D4BB13E770472DE9F0474FF00A08A04DEB
:106AE000A04CDFF8889200F0D7FC01280ED00328D4
:106AF00049D0042800F0DA80052800F090800628AC
:106B000000F09480082800F0C18026E1606B012825
:106B100001D100F039F9607A40B901F08EF9002115
:106B20004846FDF79FFD0120607207E0A86928B97B
:106B3000686918B1FDF79AFB3220A861686978B9D5
:106B4000208A401C208280B2322805D1E089411E73
:106B5000E181C0B201F08EF8E08908B901F09DF83A
:106B600002F061FC012803D000F0AFFA00282ED01B
:106B7000D9F8200068613320E08101F07BF8BDE89E
:106B8000F04701F084B8606B28B90120606300F021
:106B9000A4FA01F03BF900F087FC8246207ABAF1B2
:106BA000010F06D008B101F031F90020A081207258
:106BB00022E0A1894B2908BF002804D101F026F961
:106BC0000120207200E0B8B1A86908B12868C4E0CB
:106BD00000F06EFC0646D9F814706078012805D1E3
:106BE0003146FFF717FDFFF713FD074639B2304670
:106BF000FDF77AFE3220A8612868002804BF207AB9
:106C00000028E4D100F054FC0646D9F81410814263
:106C1000B4BF401A081A122800DA0E4686E0594816
:106C2000007800B10120BDE8F0474CE7606B012817
:106C300001D100F0A9F800F048FA48F24001401AEA
:106C400007D0C03802D0403806D007E00120A0723B
:106C50000BE00220A0720DE0A07201E0A07A10B952
:106C6000FDF7D6FD0AE0012802D101F0E6F805E0C3
:106C7000022803D101214846FDF7F4FCA07A03283D
:106C80006BD0FFF71DFF0320A07266E0606B10B9A8
:106C9000012000F07AF8606B012804BFA869002881
:106CA0005BD1FDF7B9FF3220A86156E000F000FC8F
:106CB0000646D9F810108142B4BF401A081A1328AA
:106CC000B8BF0E4600F0F0FB8246207ABAF1010F01
:106CD00006D008B101F09AF80020A08120721FE0D0
:106CE000A189322908BF002804D101F08FF80120C2
:106CF000207200E0A0B1A86900287FF467AFD9F83E
:106D000010706078012805D131B2FFF783FCFFF7DE
:106D10007FFC074639B230B2FDF7E6FD3220A861AC
:106D20002868002804BF207A002816D1607801283E
:106D300003D131B2FFF76EFC064630B290FBF8F19A
:106D400009B20120FDF74FFA02F06AFB01465046F6
:106D5000FEF7ECF9A089401CA081BDE8F087000097
:106D6000A0310020480500208C04002020050020D0
:106D7000D8060020C80600204E3200202402002041
:106D8000682F0020FB0400200020606301F03EB863
:106D900020466163746F72792052657365740000D8
:106DA00025647D200000000025647B200000000099
:106DB000000000F8FE0301010103FEFCF0000000EA
:106DC0000000003F7FE0808080C07F3F0700000020
:106DD00000000008040406FFFF000000000000009F
:106DE00000000000808080FFFF80808000000000A5
:106DF000000000060701010181C37F3E0000000082
:106E0000000000E0F0D8CCC6C3C0C0E00000000025
:106E10000000000607818181C1633F1E0000000061
:106E2000000000E0C080808181C37F3E0000000040
:106E300000000000C060380CFFFF000000000000F0
:106E40000000060705040484FFFFC4840600000058
:106E5000000000FFFF83838383838303000000001F
:106E6000000000E0C080808080C17F3F08000000FB
:106E7000000000E0F89C8EC2C3C1818100000000C8
:106E80000000003F7FC080808080C17F3F00000005
:106E90000000000F0303030383E33B0F0300000024
:106EA0000000000080E0781E0701000000000000E4
:106EB0000000187E7EC381818181677E3C000000D6
:106EC00000001C7EFFC180808081E37F3C000000C9
:106ED000000078FEC603010101039EFCF0000000E3
:106EE00000000001018383C361713F0F01000000B6
:106EF0000000000000000000000000000000000092
:106F00000000000000000000000000000000000081
:106F10000000000000000000F00000000000000081
:106F200000000101010101011F0101010101010036
:106F30000000000000000000000000000000000051
:106F40000001010101010101010101010101010033
:106F50000E11110EE0F80C060301010101021E00E2
:106F6000000000000F3F70C08080808080402000C3
:106F7000000000000000C0C0C0C000000000000011
:106F80000000000000003030303000000000000041
:106F900008142214080202FE06020202C202061EA1
:106FA00000000000008080FF8181010103000000DB
:106FB000C03008040402FAAAFA0204040830C0002F
:106FC0000718204058A4DBDEDBA458402018070037
:106FD000808040402020101008080404FE000000BB
:106FE0000000010102020404080810103F00000024
:106FF0000000FE040408081010202040408080009B
:1070000000003F1010080804040202010100000003
:10701000008080C0C06060303018180C0CFE00008A
:10702000000101030306060C0C181830307F000025
:107030000000FE0C0C181830306060C0C08080006A
:1070400000007F303018180C0C0606030301010005
:107050008080C0C0E0E0F0F0F8F8FCFCFE0000002A
:1070600000000101030307070F0F1F1F3F0000006F
:107070000000FEFCFCF8F8F0F0E0E0C0C08080000A
:1070800000003F1F1F0F0F0707030301010000004F
:1070900010B5DFF8A04300F0F5FF0005000D412812
:1070A00004D040F2A371884205D010BD40F22630D2
:1070B000E060012003E040F23F30E0600220A07079
:1070C00010BDDFF8700300787047DFF86C0380684C
:1070D0007047DFF8641388607047DFF85C1308704E
:1070E0007047DFF850034078704770B504460025BC
:1070F0000A26DFF8480300F0E7FC4519761EF8D1B0
:107100000A20B5FBF0F1DFF82C2340F663739942B7
:1071100003D304205070002070BD48439021B0FB81
:10712000F1F100200FF2683333F81050A9421569CD
:1071300008D2401C042805D20228F5D1002CF3D037
:10714000A942F6D3401C70BDF0B5BD490868C043E4
:1071500000F400700968C94301F04002B649BA4B17
:107160001B7813B100234B808B80B0F5007F04D1D6
:107170000023CB804B885B1C4B80402A04D100232A
:10718000CB808B885B1C8B808E884F880C784FF46B
:10719000014548F2400CAB4B192F0CD3192E04D3E8
:1071A000A4B148F240148C6010E07CB176B993F839
:1071B00024403CB108E0192E08D33CB137B993F80C
:1071C00024400CB18D6001E0C1F808C04FF4807418
:1071D0004FF4A075A0B9192F0DD267B1192E03D2A3
:1071E00016B18D60888006E093F8240000281ABF4D
:1071F000402088608C60C888401CC880002048807F
:10720000D2B988884A88192A07D232B1192804D2FB
:1072100068B18D600020488009E0192807D230B19C
:1072200093F82400002812BF8C6040208860C88832
:10723000401CC88000208880F0BD70B583494A6832
:10724000D3089CB2C5000E781EB94D6001200870AD
:1072500009E0844234BF041B241AA4B23D2C3CBF75
:107260008018C51A4D60E80870BD38B5002000F0E0
:1072700023FF774810210160192000F02EFF754D83
:107280000A2021E0002000F012FF69684118AA6876
:10729000824238BF0246AA60EA68904288BF104620
:1072A000E860288801280CD1A868081AE968401A03
:1072B000C008FFF7C2FF0446002141F28830E860B1
:1072C000A96069602888401E288028880028D9D1B4
:1072D000204632BD60490A7822B9C00048600122C8
:1072E0000A7007E04A688018931002EB5372A0EB13
:1072F000E2004860811000EB5170C010704738B553
:107300000025544C0A2026E0012000F0D0FE21691F
:1073100041186269824238BF02466261A2699042A6
:1073200088BF1046A0612088012811D16069081A21
:10733000A169401AC008FFF7CDFF40F6E441484379
:10734000000BA0F5FA75002141F28830A06161615F
:1073500021612088401E208020880028D4D1284622
:1073600032BD38B54FF4C874FFF77FFF0546FFF70D
:10737000C6FF30498A78022A08BF4FF4FF74A5423D
:1073800005D2B0F5A07F02DA8D60012000E0022076
:10739000087031BD70B50446FFF767FF0546FFF77B
:1073A000AEFF24498A8840F6FF739D4202D1CB8804
:1073B0005B1C07E00023A5F6D966B6F5937F34BFC2
:1073C000521C00228A80CB80CA888B883C2A02D338
:1073D00053B9032207E01AB90A2B28BF022202D2AE
:1073E0000A2B01D201224A70A4F57A7296235A43DD
:1073F00040F6B83392FBF3F250328B68B4F57A7FE3
:1074000008BF0A3A00D01CB19C18AC42B8BFAD1AF4
:10741000B0F5C87FC8BF4FF4C870C968EA1A4FF406
:107420007A73484303FB020090FBF1F000B270BD99
:1074300000000000C8060020C031002000280140E4
:1074400008080140200500204D05002008320020DA
:10745000140C0140580600201032002010B50446DC
:1074600045F2555002F0D8F8032002F0D8F80A206F
:1074700060434003000C02F0D5F802F0D6F802F0A9
:10748000D9F8012010BD80B502F0CFF8012002BD6F
:107490002C0196005A002800DFF838040078704765
:1074A000DFF8301408707047DFF82804008C70474C
:1074B000DFF82004B0F92200704728220FF288413B
:1074C000DFF8140401F070BFDFF808040021018127
:1074D00041818181C181C16101610F2181820221CC
:1074E000C18201210183704730B50022DFF8E41327
:1074F0004881B1F908300446181B8881CD6900B273
:10750000B0F5FA7FBCBF01224519A34205DAE31AA0
:107510001BB2152BA4BF00250022CD611F28B4BFCC
:10752000002301238C8ACD8A6A43CD696A4300FB1C
:1075300004220C8BB1F90E50451B6C4303FB042253
:10754000C881012AB8BF002205DB41F27170824276
:10755000A8BF41F270720A6190B230BDDFF87423A7
:107560001181884204DA091A122904DB002105E09E
:10757000411A132901DA022100E001211184B3E745
:10758000F8B54FF47A76DFF85473DFF85443D14DF1
:10759000287801280ED0032859D0042800F0C28092
:1075A000052800F01781082800F05B81092800F009
:1075B0004981F1BDFFF789FD402811D0B0F5807FEA
:1075C00026D16878012825D000F0B1F904281FDA07
:1075D000032028700020A8842060A061606117E06B
:1075E0006878012816D00120E87000220FF244319B
:1075F0000020FDF775FE0020FEF7CEFEE66000F0ED
:1076000005FCB84807210170052028703220E06190
:10761000687820B1E06910B96870FFF75AFD00F092
:1076200086F940B9FCF784FD012804BF0020FCF76F
:1076300083FD08202870A878042818BF012805D0E9
:10764000A86C606100F05FF90120A870F1BD287995
:1076500048B100202871A44801F0F8FF0120FFF78D
:107660003CFD00F050F9FFF730FD48F24001401AB0
:1076700004D0C03802D040380FD018E000F049F9EB
:1076800000F0C4FB0020E8700520287000F03BF9F2
:1076900000206060E660962008E000F00DFD00F03C
:1076A00035F901202870A87068703220E06100F080
:1076B0003EF9042807DB00F02CF900F027F900F070
:1076C0002FF93220E061EE6B387810B100F024F928
:1076D0000646606848B930B2FFF75CFE00F00EF96C
:1076E00000B200F0E9FC1E20606000F0E9FC00B987
:1076F000606001F098FE90B9A88C18B90120A884A8
:10770000686CA060A068002857D12884A06100F0B0
:10771000D3FC00F0F8F8A86C606104204CE0002075
:10772000A8844AE0AE6B387810B100F0F5F8064650
:10773000E96BA86B814207DA387820B109B200F012
:10774000ECF8064600E00E46606848B930B2FFF734
:1077500021FE00F0D3F800B200F0AEFC1E20606005
:1077600000F0E5F804280DDB00F0D3F800F0CEF8C7
:1077700001202870A86C60610420A8700120687046
:107780003220E061606958B900F096FC00F0BEF864
:1077900001206870C820E0610420A87001202870D2
:1077A00001F041FE012802D0FFF78FFC28B1002034
:1077B000A0616061A88403202870FFF792FC022872
:1077C0004ED3FCF7B5FC012804BF0020FCF7B4FC45
:1077D000082044E0E06820BB444E01203070606126
:1077E000E878012803D101F038F801F0BAF9002057
:1077F000307001202871E87858B9FFF76EFC00F06E
:1078000082F83B4801F022FF03202870002020600E
:1078100007E000F07EF800F079F800F081F86420CD
:10782000E061FFF752FC48F24011884204BFE8785B
:1078300000284DD1E060FFF74CFC0020BDE8F2408D
:10784000FFF74BBCE06920B10020BDE8F240FFF734
:1078500040BCFFF73AFC00283AD0E66003202870CD
:10786000F1BDFFF73EFC801E012803D9801E0128D0
:1078700014D926E0AE6B387810B100F04DF806460A
:1078800030B2FFF787FD6884FFF72BFC012818D181
:10789000032028700020FCF74FFC12E000F047F8AE
:1078A00001280EDB00F043F804280ADA00F031F872
:1078B00000F02CF8012068700220A061A87001205F
:1078C00028700C4820B100F024F80B48102101600A
:1078D000F1BD0000F804002020050020490500202B
:1078E000A03100204C05002080969800C80600209A
:1078F000C0C62D00C1800008140C0140688431B25C
:10790000B5F922002AE60020FFF7E3BB0020FFF7CD
:10791000E4BB002000F0D0BB31B20120FCF718BC62
:10792000012028700320A870012068707047012092
:10793000FFF7DBBB2020202020202020202020203B
:107940002020202000000000322E323000000000F5
:107950000000000000000000D0070000B80B00008D
:107960006400000050460000A08C000000000000F1
:1079700080B55749884208D101214FF4007001F0C9
:10798000D3FF00214FF4007016E05249884208D11D
:1079900001214FF4806001F0C7FF00214FF48060A7
:1079A0000AE04D4988420BD101214FF4004001F01B
:1079B000BBFF00214FF40040BDE8044001F0B4BF1C
:1079C00001BD4268454B1A400B681A430B7942EAE5
:1079D000032242608268424B1A40CB681A438B688C
:1079E0001A434B7942EA43028260C26A22F470026F
:1079F000097C491EC9B242EA0151C162704700299F
:107A0000816812BF41F00101490849008160704757
:107A10000029816814BF41F4807121F48071816074
:107A20007047816841F00801816070478068C00834
:107A3000FFE700F0010070470029816814BF41F49E
:107A4000A00121F4A0018160704770B507240A29C4
:107A50000BD3A1F10A0505EB4505C668AC4026EA43
:107A60000404AB402343C36008E001EB4105066911
:107A7000AC4026EA0404AB40234303611F23072ADA
:107A80000AD2521E02EB8202446B934024EA0303A3
:107A900091401943416370BD0D2A0AD2D21F02EBF7
:107AA0008202046B934024EA03039140194301636B
:107AB00070BD0D3A02EB8202C46A934024EA0303CC
:107AC00091401943C16270BDC06C80B27047000024
:107AD0000024014000280140003C0140FFFEF0FF6F
:107AE000FDF7F1FF002201F053BF70B5002200281E
:107AF00003D52D220A70012240420A2390FBF3F4A1
:107B0000012502E094FBF3F45D43002CFAD155B15A
:107B100090FBF5F404F130065654521C05FB14009A
:107B200095FBF3F5F3E700205054084670BD0CB404
:107B30002DE9F04383B004460D4600270026002CB3
:107B400000F083800DF128084FF00A0903E0795D09
:107B5000315506467F1C795D002973D0701C25299C
:107B6000F5D17F1C795D632906D0642914D066297C
:107B700021D0732905D0EAE708F1040818F8041C9D
:107B8000E6E758F8040B00210A5C002A1EBF3255B4
:107B9000491C761CF8D1DDE700A958F8040BFFF763
:107BA000A4FF002100A8085C00281EBF3055491C16
:107BB000761CF7D1CEE758F8040B411E092924BFE3
:107BC000A0F10A015A29C5D3A0F16401B1F5617F82
:107BD00015D290FBF9F109FB11003030E07091FBF8
:107BE000F9F009FB10113031A1702E21617090FB6A
:107BF000F9F109FB1100303020700426AAE7A0F546
:107C00007A7142F228329142A4D290FBF9F109FB39
:107C100011003030207191FBF9F009FB1011303167
:107C2000E1702E21A170014691FBF9F009FB1011C2
:107C30003031617090FBF9F109FB11003030207098
:107C4000052687E7002030552046BDE8FE035DF895
:107C50000CFB50F8041B61B150F8042BD30744BF50
:107C6000A9F101039A18002342F8043B091FFAD135
:107C7000EFE7704780B500A90FF2203213680B6060
:107C80008DF803003C22042100F013F801BD00B57B
:107C900083B000A80FF2083104E000B583B000A85B
:107CA0000FF204310CC90CC03C22062100F001F88F
:107CB00007BD00A801F092BD10B5A0B00C46402150
:107CC0008DF80010411CC9B2012000AA03E014F88D
:107CD000013B8354401C8842F9DB3C22FFF7E9FF5B
:107CE000204620B010BD30B583B000AA0FF2C023EB
:107CF00030CB30C200AA414B93F82430012B18BF7F
:107D0000203050715078081850703C220821FFF73D
:107D1000D0FF37BD2DE9F041044690465818C0B257
:107D2000CE080722114218BF761C811000EB51715A
:107D3000CA10B0EBC2011ABF501CC5B2D5B2069F23
:107D400009E031462046FFF7CEFF39464046FFF7AF
:107D5000B3FF0746761CF6B2AE42F2DB3846BDE80A
:107D6000F08130B5A1B004460D4601A8FFF7BAFE78
:107D700000F05FF82A460021E0B2FFF7CBFF00F0E9
:107D800058F82A460821E0B2FFF7C4FF21B030BD01
:107D900080B54FF48070ADF8000003208DF802002C
:107DA00010208DF8030000A9154801F00BFE01BD5D
:107DB00010B5144C4FF48071204601F06AFE022089
:107DC00000F087F94FF48071204601F060FE022038
:107DD00000F07FF90C48094991F82410012903D1DA
:107DE000C821C172A12102E0C021C172A021C174C9
:107DF0003C222E21BDE8104001F0F0BC20050020FF
:107E0000000C0140000801408C05002000B5A1B025
:107E1000802101A8FFF766FE00F00BF8802200F039
:107E2000B3F800F006F88022194600F0AEF821B051
:107E300000BD01A80090082370472DE9F041A2B0D1
:107E40000125802102A8FFF74DFE002201A90FF2B3
:107E5000681000F022FD040000F07F8020784228A6
:107E600004BF60784D2840F0878094F83600FF28E2
:107E700004BF94F83700FF2804D194F83800FF2895
:107E800008BF002500F07BF801260F270020002105
:107E90000C2202FB0712121992F83E2080234FF0A9
:107EA000080C03EA020E1DB1BEF1000F0CD102E076
:107EB000BEF1000F08D00DF1080E86449EF8018037
:107EC00046EA08088EF8018000F061F8E9D1491C03
:107ED0000C29DDD37606360E7F1E082FD6DA02A8CF
:107EE00000900823602200F04FF8FFF7CCFA00F072
:107EF00046F801260027002000216FF00B0202FB4C
:107F00000712121992F8922080234FF0080C03EA0E
:107F1000020E1DB1BEF1000F0CD102E0BEF1000F48
:107F200008D00DF1080E86449EF8018046EA080844
:107F30008EF8018000F02BF8E9D1491C0C29DCD324
:107F40007606360E7F1C082FD5DB02A8009008238A
:107F50006022082100F019F808E00FF26800009094
:107F60001023602200210020FFF7D4FE4FF47A7026
:107F700000F0AFF8FFF787FA22B0BDE8F0817F216B
:107F80000DF1090001F0B2BD00210020C2E6401C45
:107F9000C0B25B08BCF1010C70470000808180001A
:107FA000808D801480AF0000808D801080AE000036
:107FB00080B080218020807F4C4F474F494E202049
:107FC000424D5000000000000000000000000000D2
:107FD00000000000000000000000000080C0E0F091
:107FE000F8FCFEFEFCF8F0E0C080C0E0F0F8FCFE1B
:107FF000FEFEFC783080C0C000189CCEE6F0F8FC95
:10800000FEFEFCF8F0E0C0E0F0F87C0000000000AC
:108010000000000000000000000000000000000060
:108020000000000000000000000000000000000050
:1080300000000000000000000000001F0F07030107
:1080400003070F1F3F7F7F3F1F0F07030103070732
:1080500003191C0E6773391C0E07030103070F1F5A
:108060003F7F7F3F1F0F070301000000000000005B
:108070000000000000000000000000000000000000
:1080800000000000DFF86804017E0A070DD50278C1
:1080900002F00F02007DC00840EA022001F0070153
:1080A0004901491C084380B2704700207047DFF83F
:1080B000441431F810007047DFF83C14C860704772
:1080C000DFF83404C06870472021DFF8300401F085
:1080D0000DBDDFF82414142202E0DFF81C140A227C
:1080E0005043886088680028FCD17047DFF810147E
:1080F0004FF400620A614FF480520A610028086858
:108100000AD120F4404040F440500860086820F450
:10811000402040F4403009E020F4804040F43040FA
:108120000860086820F4802040F430200860704720
:1081300080B501F08FFB102001F0E2FC012001F07E
:10814000D9FC012001F09FFB212001F0F6FB002863
:10815000FAD0002001F0B1FB002001F0BAFB4FF48F
:10816000806001F0AFFB4FF42011002001F08EFB86
:10817000012001F093FB392001F0DFFB0028FAD049
:10818000022001F08EFB01F093FB0828FBD10121B6
:10819000052001F0AEFB012140F20C6001F0B2FBC2
:1081A0000121032001F0B7FB012001F09AFB01211E
:1081B0004FF40000BDE8044001F0ADBB80B50146BE
:1081C0004FF0006001F04FFD4FF4A06001F01AFD88
:1081D00014208DF8000002208DF8010000208DF899
:1081E000020001208DF8030000A801F010FD01BD80
:1081F00038B58020ADF8000000208DF80300C14C98
:1082000000A9204601F0DEFB4FF4807000F022F858
:108210008DF80300BC4D00A9284601F0D3FB0121D5
:10822000BA4801F038FC102000F014F800F01CF8F7
:10823000012000F016F8022000F013F84FF410703F
:10824000ADF8000048208DF8030000A9204601F099
:10825000B9FB31BDADF8000003208DF802001020FD
:108260007047ADF8000000208DF8030000A92846F3
:1082700001F0A8BB2DE9F04190B04FF42044254611
:10828000A34E304601F004FDA2480590994806909F
:1082900000200790022008900020099080200A907A
:1082A0004FF480700B904FF480600C9020200D9064
:1082B0004FF400500E9000200F9005A9304601F0B9
:1082C00034FD0121304601F04BFD934E3046FFF75F
:1082D0004FFB00F063F84FF46027029700200390F3
:1082E00002208DF8100000A93046FFF76AFBDFF886
:1082F0002C824046FFF73CFB00F050F8029700202C
:10830000039001208DF8100000A94046FFF759FBAB
:108310000723022207213046FFF797FB072301229C
:1083200008213046FFF791FB052301220921404631
:10833000FFF78BFB01213046FFF76AFB4FF48040CB
:1083400001F0D2FA01213046FFF759FB01214046E6
:10835000FFF755FB3046FFF764FB3046FFF766FB3F
:1083600020B12846451E0028F7D114E04046FFF70B
:1083700058FB25464046FFF759FB20B12846451ECD
:108380000028F7D107E001213046FFF755FB012116
:108390004046FFF751FB10B0BDE8F081002000908F
:1083A00001208DF804008DF80500704700B585B0F8
:1083B0004FF4E06001F026FC2F20ADF8040042F2FB
:1083C0000F70ADF808000020ADF80A00ADF8060007
:1083D00001A94FF0804001F0E9FC00F060F801F0E5
:1083E0003BFD012200F05BF801F02EFD00F057F894
:1083F00001F020FD1C2000F02AF805B000BD1FB5DB
:108400004FF4E06001F0FEFB2F20ADF804003120B6
:10841000ADF808004FF48070ADF80A000020ADF808
:1084200006003F4C01A9204601F0C0FC0121204676
:1084300001F012FD01220121204601F005FD01217C
:10844000204601F0F7FC1D2000F001F81FBD8DF85B
:10845000000000208DF8010001208DF802008DF849
:10846000030000A801F0D3BB10B500F018F801F02C
:10847000FDFC00202B4C04EB80014A6812B14A68D5
:10848000521E4A60401C0828F5DB2078411C2170F0
:10849000022803D1FEF758FE0020207010BD0121F4
:1084A0004FF08040704780B501211D4801F0DEFC8F
:1084B0001148416811B14168491E4160816811B19C
:1084C0008168491E8160C1680278174B49B1C16853
:1084D000491EC160002A19BF10215960102119607E
:1084E000D243C16811B9102159600022027001BD48
:1084F000D0FF0FE030320020D4310020A031002026
:108500000408014000080140000C01400001300057
:10851000080002404C240140002401400028014092
:10852000000400409C310020100C01407047000006
:10853000F8B5DFF8944B04F1100564220A230829EA
:108540001CD8DFE811F009001C002F00690096001C
:10855000AC00E500F000F800DFF8701B0978002996
:108560000CD1017845785D4302FB015180784018B9
:1085700041F2D041401A00B258432061F1BDDFF80A
:108580004C1B09780029F9D1017844785C4302FB3F
:1085900001418078401841F2D041401A00B258435E
:1085A0006860F1BDC17846788478A1F1300C5FFA3B
:1085B0008CFCBCF10A0F0CD200784FF47A7756434A
:1085C00007FB006003FB0400081800F53C57B037B8
:1085D00018E0A4F13001C9B20A2909D2007803FBDE
:1085E00006F102FB0010201841F2D041471A09E0C1
:1085F000A6F13001C9B20A2904D2007803FB006059
:10860000A0F50477DFF8C40A0078002803D13FB250
:1086100002FB07F0E860F1BDC1788478A1F1300673
:10862000F6B20A2E0DD206784FF47A77407850438E
:1086300007FB060003FB0400081800F53C57B037A1
:108640000DE0A4F13001C9B20A2908D201784078BE
:10865000584302FB0100201841F2D041471ADFF8CD
:108660006C0A0078002803D13FB202FB07F02861B2
:10867000F1BD46780778A6F13000C0B20A283ABFAB
:1086800003FB0760A0F50477303FDFF8400A00786D
:10869000002873D13FB203FB07F0A860F1BDC17899
:1086A000467807788478A1F13000C0B20A280BD24E
:1086B0004FF47A70724300FB072003FB0400081894
:1086C00000F53C57B03717E0A4F13000C0B20A28DB
:1086D00008D203FB06F002FB0700201841F2D0414C
:1086E000471A09E0A6F13000C0B20A283ABF03FBDE
:1086F0000760A0F50477303FDFF8D0090078002844
:108700003CD13FB203FB07F0DFF8C4190860F1BDAC
:10871000DFF8B819097889BB00783038C0B2BDE8F5
:10872000F240FBF70DBDDFF8A419097831BB0078E2
:1087300030382875F1BD467807788478A4F1300088
:10874000C0B20A2808D203FB06F002FB070020187B
:1087500041F2D041471A09E0A6F13000C0B20A2820
:108760003ABF03FB0760A0F50477303FDFF85C09F0
:10877000007818B9DFF85C093FB20760F1BD10B5A9
:1087800000E0401C017820291CBF0D290A29F8D0DF
:1087900010F8012B13462D2A14BF2B2A10F8012B99
:1087A000002105E00A2404FB0121303910F8012BD7
:1087B000A2F13004E4B20A2CF4D32D2B01D14842AB
:1087C00010BD084610BD000010B51446082911D888
:1087D000DFE801F00505171E252B31313700FFF7C3
:1087E000CEFF00B2DFF8F018097829B96438B0F587
:1087F000967F30D8012010BDD438B0F5077FF9D965
:1088000029E0FFF7BCFF00B23C38B0F56B7F16E003
:10881000FFF7B5FF00B26438B0F5617F0FE0FFF7F6
:10882000AEFF00B2401E192809E0FFF7A8FF00B212
:10883000401F082803E0FFF7A2FF80B20228D9D327
:1088400009E0FFF79CFF012CD4D180B2DFF8841837
:1088500009688842CED0002010BD10B54FF41852E0
:10886000DFF87818DFF8780800F0AEFDDFF874085C
:10887000002100220B460C461EC010BD10B5002280
:1088800008E0135CA3F16104E4B21A2C3CBF203B66
:108890001354521C8A42F4DB10BD2DE9FF4180467F
:1088A0000E46DFF83C4804F2004710250B223946FB
:1088B00001A800F079FD0B2101A8FFF7DFFF0B22D3
:1088C000414601A801F0EAFA98B907F11C000178C5
:1088D00031704178717007F11A0000A902780A70AE
:1088E00042784A70BDF8000004EB402000F50070AB
:1088F00003E020376D1ED9D1002004B0BDE8F0811F
:108900002DE9F14FADF5107D8A4600208DF800006D
:10891000002740F23B1141A8FFF7E4F8DFF8C85701
:108920004FF400729099284600F03EFD3E464FF00D
:108930000008232041A900FB061907E0B8F1230F26
:108940003CBF08F8090008F101087F1C284601F027
:10895000D7FA874206D2785D0D2802BF7919497887
:108960000A29EBD1002008F80900BF1C761C092E4B
:10897000DDD30026DFF86C9705EB8607D7F8008279
:10898000404601F0BDFA09EB8604232141AA01FB10
:10899000062B02464146584601F080FA002808D1CD
:1089A000D7F8000201F0ACFA074604E0202818BF0F
:1089B0003D287DD17F1C00F081F9874278D217F8DD
:1089C0000B00A0F13001C9B20A29EFD2302803D13F
:1089D000062E18BF072E6BD15F440022F1B2384635
:1089E000FFF7F2FE002863D0F1B23846FFF7A0FD92
:1089F0004EB9DFF8D40600690A2190FBF1F20FF2BC
:108A0000107141A851E0DFF8E406012E07D140685B
:108A10000A2190FBF1F20FF2047149A829E0022E1D
:108A200008D1C0686421B0FBF1F20FF2FC610DF5D2
:108A3000A5703AE0032E07D100696421B0FBF1F282
:108A40000FF2F0615BA826E0042E07D180680A21AE
:108A500090FBF1F20FF2E86164A826E0052E0AD13E
:108A6000DFF86C0600680A21B0FBF1F20FF2DC615E
:108A70006CA8C01C19E0062E07D1FBF765FB024667
:108A80000FF2D4610DF5EB700FE0072E05D1027DDA
:108A90000FF2CC617EA8401C07E0082E21D1DFF840
:108AA000340602680FF2C06187A8FFF740F818E0AB
:108AB00000F004F90146584601F018F8DFF83006D6
:108AC0000078022801D1A76B00E06769384601F001
:108AD00017FA02463946584600F066FC01208DF828
:108AE0000000761C092EFFF447AFFE2101A8FEF717
:108AF000F9FF0025232041A900FB051101A801F081
:108B00001AFA09EB8500C16D01A801F014FA6D1C79
:108B1000092DEFD301A801F0F3F9DFF8C41501EB3B
:108B20004A1282F81C04000A82F81D04909801F58C
:108B30008061401A00F50070411200EB91508012E4
:108B4000012100F8091001A801F0DAF9024601A993
:108B5000909800F029FC9DF800000DF5117DBDE80E
:108B6000F08F2DE9F04FC1B00020ADF800000FF2FA
:108B7000046700AA0DF102013846FFF78EFEDFF808
:108B8000604558B1BDF80010FFF7BAFEDFF83C159C
:108B90000978084301D000F06CF97BE00FF2E05651
:108BA00000AA0DF102013046FFF777FE010004F242
:108BB0001645DFF840851AD0FE2201A800F0F4FB2C
:108BC00000F077F804F584600ECE0EC0FE2201A9F5
:108BD00004F5006000F0F8FB00206875C5F82080FF
:108BE000032084F83A04FE2084F83C0401E000F0FD
:108BF00060F804F580600ECF0EC00FF2A477062255
:108C00003946204600F0E0FB0622394604F50070A4
:108C100000F0DAFB00270026381900F20069DFF8BF
:108C2000C40400EB860ADFF8C8040078022808D1E3
:108C3000DAF838B000F042F800F043F8DAF838001B
:108C400007E0DAF814B000F039F800F03AF8DAF892
:108C5000140001F055F9C719DAF85C90484601F0A4
:108C60004FF902464946381900F5C06000F09CFBF8
:108C7000DAF85C0001F044F9C719761C092ECBD351
:108C8000002084F80B04C4F8168402202871AF7108
:108C900000F018F942F60C0001190022CA760A7792
:108CA0004A760251002088600861C86041B0BDE882
:108CB000F08F4FF418512046FEF714BF584601F0CC
:108CC0001FB902465946484600F06EBB2DE9F041F7
:108CD00086B004460E464FF6FF756FF00708DFF8C2
:108CE0000074B6F5805F0ED14FF40072394601F082
:108CF000D5F800286ED000F07DF8C7F800807868BD
:108D00002843786066E0B6F5205F0FD107F500765E
:108D100000F065F800285DD000F066F8C7F8008222
:108D2000D7F804022843C7F8040253E0DFF8B4532D
:108D3000B6F5804F2AD107F2004600F050F800281F
:108D400048D000F051F80120687010260FF2244737
:108D50000C22214600A800F027FB0B22394600A870
:108D600001F09CF840B9A07E688201202874207F21
:108D700040B1012028702DE02034761EE8D1287CF7
:108D80000028F6D000202874288023E0A6F50048AB
:108D9000B8F5005F1ED8F019A0F5F4474FF4007243
:108DA0003946204601F07AF808B100F023F8688AC5
:108DB0004FEA5821891C814206D1811E89B238466A
:108DC000FFF79EFD40B905E0A6F5FC4005EB9020BD
:108DD0000121417000F04DF806B0BDE8F0814FF47C
:108DE0000072314601F05AB84FF400722146304605
:108DF00000F0DABA4FF400722146384600F0D4BAD7
:108E000038B504460D46FFF791FB25B94FF40072C3
:108E10000FF28C3121E0B249B5F5805F08BF4FF405
:108E200000721AD0B5F5205F04D14FF4007201F53D
:108E3000007112E0B5F5804F04D14FF4007201F5D6
:108E400080610AE0A5F50040B0F5005F0AD84FF454
:108E5000007205F1006101F58C412046BDE8384003
:108E600000F0A2BA4FF400712046BDE8344000F093
:108E70003DBEF8B500F04EFE00209A49425CD2B1EA
:108E8000002242548402954D281901F074F8944848
:108E90002618002736F8021B3819281801F05AF84E
:108EA000042803D000F040FE0420F2BDBF1CB7F53B
:108EB000806FEFD302E0401C1028DFD300F034FEB7
:108EC0000020F2BD70B5864C00F024FE0025834ED4
:108ED00006EB852001F04FF86D1C092DF8DB00250D
:108EE00034F8021B701901F035F8042801D0042071
:108EF00070BDAD1CB5F5185FF2DB00F015FE00206B
:108F000070BD2DE9F04142F61804754D66197A4F8F
:108F1000327A2AB940023860480278600120307203
:108F2000307A012831D1605978B905F51858396877
:108F30004046FFF765FF40229821404601F030F897
:108F40004FF4E070605140200CE040229821B86856
:108F5000401900F5185001F023F86059403860516D
:108F6000B8684030B8604021012001F0C4F83021D9
:108F7000012001F04AF8386840303860786840389D
:108F800078605E48816840398160786838B960519E
:108F9000B86038605A480321017000203072BDE883
:108FA000F0812DE9F04142F61C044D4D62594032EA
:108FB0006619544F33792BB9400238604802786003
:108FC00001203071307901282FD100204E490AE06C
:108FD0005B1903F5185310F801C083F800C0401C5A
:108FE00063595B1C635163599342F1D3DFF81C81D1
:108FF000B8F800003968411839607A68101A78604A
:10900000C00507D100206051A1F5007105F5185089
:10901000FFF75CFE39488168B8F80020891A816042
:109020004FF44051022001F001F8786800281EBF7B
:1090300033480078042806D100206051012101F056
:10904000C1F900203071BDE8F08110B584B000A8EE
:10905000002100220B460EC01F4801701A4800F183
:10906000100144F25062CA6048F6A0420A616422CC
:109070008A60174A6423136000220A7540F6B832EA
:109080004A604FF4FA610161104C01202070FFF733
:10909000E4FBFFF766FD002020700FF2F00100A84E
:1090A000FEF745FD4FF4FA70FFF713F8FEF7EBF902
:1090B00000A90020FCF7ECFC4FF47A70FFF709F8E8
:1090C000FEF7E1F91FBD000020050020C8060020C2
:1090D000D8060020D00600204905002000C0000866
:1090E0002C0700200C040020000000203005002088
:1090F000CA060020188DDD40F4310020E431002044
:109100006831002000320020083100206A31002040
:1091100053746254656D703D25640000576B54654F
:109120006D703D2564000000536C7054696D653DA1
:109130002564000049646C54696D653D2564000038
:1091400054656D705374703D256400004F6666561B
:109150006F6C743D2564000054656D703D2564009E
:1091600048616E643D2564005A65726F505F4164CA
:109170003D256400434F4E46494720205458540033
:109180004C4F474F494E2020424D5000496E697464
:1091900069616C207375636365737321000000005F
:1091A000EB3C904D53444F53352E300002010800E4
:1091B0000200025000F80C00010001000000000055
:1091C00000000000000029A298E46C4E4F204E41A0
:1091D0004D4520202020464154313220202033C9E3
:1091E0008ED1BCF07B8ED9B800208EC0FCBD007C37
:1091F000384E247D248BC199E83C01721C83EB3AE4
:1092000066A11C7C26663B07268A57FC750680CA29
:109210000288560280C31073EB33C98A461098F750
:10922000661603461C13561E03460E13D18B761189
:10923000608946FC8956FEB82000F7E68B5E0B037A
:10924000C348F7F30146FC114EFE61BF0000E8E69B
:1092500000723926382D741760B10BBEA17DF3A6BC
:109260006174324E740983C7203BFB72E6EBDCA0CD
:10927000FB7DB47D8BF0AC9840740C487413B40E35
:10928000BB0700CD10EBEFA0FD7DEBE6A0FC7DEB76
:10929000E1CD16CD19268B551A52B001BB0000E85E
:1092A0003B0072E85B8A5624BE0B7C8BFCC746F001
:1092B0003D7DC746F4297D8CD9894EF2894EF6C68C
:1092C00006967DCBEA030000200FB6C8668B46F8F1
:1092D0006603461C668BD066C1EA10EB5E0FB6C80B
:1092E0004A4A8A460D32E4F7E20346FC1356FEEB87
:1092F0004A525006536A016A10918B46189692336F
:10930000D2F7F691F7F64287CAF7761A8AF28AE818
:10931000C0CC020ACCB80102807E020E7504B442B1
:109320008BF48A5624CD136161720B4075014203A0
:109330005E0B497506F8C341BB000060666A00EB2E
:10934000B04E544C44522020202020200D0A52655B
:109350006D6F7665206469736B73206F72206F7414
:10936000686572206D656469612EFF0D0A4469733A
:109370006B206572726F72FF0D0A507265737320F5
:10938000616E79206B657920746F207265737461EA
:1093900072740D0A00000000000000ACCBD855AA82
:1093A000F8FFFFFFFFFF000062B38B0708D0521EDB
:1093B00011F8013B00F8013B00F024808B07F6D147
:1093C000830740F0208000BF103A07D330B4B1E8E3
:1093D0003810103AA0E83810F9D230BC530724BF37
:1093E000B1E80810A0E8081044BF51F8043B40F869
:1093F000043BD20724BF31F8022B20F8022B44BFD4
:109400000B7803707047083A07D3B1E80810083AA0
:1094100040F8043B40F804CBF7D25307E4E70000E0
:109420007A48008870477A480088704700B585B050
:109430008DF800008DF801107648007B002814BFDD
:1094400019221D22022100A800F0C8F905B000BDB4
:1094500000B585B08DF800006E49097B00290346F0
:1094600014BF19221D22012100A800F0CCF99DF89B
:10947000000005B000BD80B56648007B90B1572163
:109480002020FFF7D3FF00212120FFF7CFFF00218D
:109490002220FFF7CBFF00212320FFF7C7FF002189
:1094A000242011E000212A20FFF7C0FF02210E2016
:1094B000FFF7BCFF03212A20FFF7B8FF00212B2074
:1094C000FFF7B4FF01212A20BDE80440AEE780B5D4
:1094D0000F20FFF7BDFF33280CBF012000204D49AE
:1094E000087301BDF0B583B04A4C06212046FEF753
:1094F000F9FA00AD207BE0B12720FFF7A9FF0007B4
:1095000034D528260027F0B2FFF7A2FF761C785545
:109510007F1C062FF7D39DF80000607068782070DC
:10952000A8786071E8782071287960726879207273
:109530001AE0FFF78DFF000718D501260027F0B2CB
:10954000FFF786FF761C78557F1C062FF7D39DF812
:109550000000207068786070A8782071E8786071E9
:1095600028792072687960720120FEBD0020FEBD5E
:1095700070B51C460023002500F110069642A6BFD8
:10958000A0F11006B242012301F11006A642A6BFC7
:10959000A1F11006B442012300F120069642A6BFB5
:1095A00020388242012501F12000A042A6BFA1F18E
:1095B00020008442012516480580184670BD1548D4
:1095C0000178407802E013480179407940EA0120AF
:1095D0000009802903D3C043401C0005000D7047DB
:1095E00038B50A4CFFF77EFF28B1FFF7E8FF0546C4
:1095F000FFF7E9FF00E0658800232A460021608824
:10960000FFF7B6FF2080658031BD000034320020B6
:1096100048320020F00600200949086070470949D7
:109620000860704708490860704705484AF6AA2153
:109630000160704702484CF6CC4101607047000061
:10964000003000400430004008300040002800E0B6
:10965000401EFDD1704780B5FEF79AFBC020ADF8E3
:10966000000003208DF802001C208DF8030000F09C
:1096700001F801BD00A9584800F0A4B9564A0129D3
:1096800003D10146104600F002BA19B9014610464E
:1096900000F0FFB9704780B50121082000F032F9D1
:1096A000C020ADF8000014208DF8030003208DF8D1
:1096B0000200FFF7DFFF00F00EF800F057F800F0AF
:1096C00058F800F051F8002100F051F800F04CF883
:1096D00000F001F801BD00214020CFE780B5FFF781
:1096E000FAFF002100F043F800F03EF800F041F8E6
:1096F00000F03AF800F03AF800F036F8FFF7EBFF28
:109700000220BDE80240A1E738B50446082508E07C
:1097100000F02DF800F028F800F02BF800F024F805
:1097200064002846451EC0B230B1FFF7D4FF2006C2
:109730004CBF01210021EBE7FFF7CDFF00F016F849
:10974000FF2400F011F800F043F848B900F011F8D8
:1097500000F00AF8FFF7BFFF00F006F8012032BD65
:10976000641EEED1002032BD02206FE7012180206F
:1097700084E70121402081E770B5044608250026D2
:10978000FFF7F4FF0DE0FFF7A6FFFFF7EDFFFFF790
:10979000F0FFFFF7E9FF760000F01AF808B146F095
:1097A00001062846451EC0B20028ECD1FFF793FF02
:1097B000002C0CBF01210021FFF7D9FFFFF7D4FFD8
:1097C000FFF7D7FFFFF7D0FFFFF785FFF0B270BDBF
:1097D0008021014800F054B9000C014070B50446E6
:1097E0000D461646FFF757FF7000C0B201E014F8AF
:1097F000010BFFF789FF2846451EC0B20028F6D1AD
:10980000BDE870406AE7F8B504460D4616461F46A7
:10981000FFF741FF7600F0B2FFF776FF3846FFF71B
:1098200073FFFFF738FF46F00100C0B2FFF76CFF8F
:1098300003E0FFF7A1FF04F8010B2846451E28B1FD
:10984000EDB2002D0CBF00200120F2E7BDE8F14091
:1098500044E700004348016841F0010101604168AC
:10986000414A114041600168404A1140016001686D
:1098700021F480210160416821F4FE0141604FF430
:109880001F01816070473A4908607047394A136880
:1098900023F47C131843084310607047364908606E
:1098A000704734490A68920850EA8200086070479D
:1098B0003048006800F00C0070472E490A6822F01A
:1098C000F00203E02B490A6822F4E06210430860CA
:1098D000704728490A6822F4605242EAC0000860D2
:1098E000704726490860704722490A6822F44042BE
:1098F000ECE7234A0029116814BF084321EA00005D
:10990000106070471F4A0029116814BF084321EAFC
:109910000000106070471C4A0029116814BF0843FA
:1099200021EA000010607047184A0029116814BF2E
:10993000084321EA00001060704700214209094BEA
:10994000012A08BF1A6803D0022A0CBF1A6A5A6A91
:10995000012300F01F0003FA00F0024218BF0121AA
:1099600008467047001002400000FFF8FFFFF6FEB7
:10997000000042420410024060004242D8004242CD
:1099800014100240181002401C1002400C1002403B
:1099900000B500BF130096469446103928BFA0E8D2
:1099A0000C50FAD85FEA417C28BF0CC048BF40F891
:1099B000042BC90728BF20F8022B48BF00F8012B51
:1099C00000BD00002DE9F0410022CC7804F00F0327
:1099D000E40644BF8C7823430C8801250F26E7B2A8
:1099E00017B3D0F800C005FA02F7BE460EEA040825
:1099F000F04514D14FEA820E06FA0EF82CEA080C54
:109A000003FA0EFE4EEA0C0C91F803E0BEF1280FAB
:109A100008BF476103D0BEF1480F08BF0761521C61
:109A2000082AE0D3C0F800C0B4F5807F26D3D0F870
:109A300004C0002202F1080705FA07F7BE460EEA45
:109A40000408F04515D14FEA820E06FA0EF82CEA0A
:109A5000080C03FA0EFE4EEA0C0C91F803E0BEF17E
:109A6000280F08BF476191F803E0BEF1480F08BF17
:109A70000761521C082ADDD3C0F804C0BDE8F0819C
:109A800000228068084218BF012210467047016119
:109A900070474161704770B5134A00284CBF946904
:109AA0001468C0F3034583B2460D3601B34000F499
:109AB0004016B6F5401F06D124F07064156825F0F5
:109AC0007065156008E0C60243BF032606FA05F577
:109AD000AC439C4344F0706401B11C43002801D5A1
