:020000040800F2
:10800000E06B002025A8010851A8010855A8010827
:1080100059A801085DA8010861A801080000000036
:1080200000000000000000000000000065A801083A
:1080300069A80108000000006DA8010871A80108E6
:1080400075A8010879A801087DA8010881A8010880
:1080500085A8010889A801088DA8010891A8010830
:1080600095A8010899A801089DA80108A1A80108E0
:10807000A5A80108A9A80108ADA80108B1A8010890
:10808000B5A80108B9A80108BDA80108D95E010872
:10809000DD5E0108C1A80108C5A801081141010859
:1080A000C9A80108CDA80108D1A80108D5A80108D0
:1080B00043B80008D9A80108DDA80108E1A8010813
:1080C000E5A80108E9A80108EDA80108F1A8010840
:1080D000F5A80108F9A80108FDA8010801A90108EF
:1080E00005A9010809A90108E15E01080DA9010817
:1080F00011A9010815A9010819A901087DBC0008EA
:108100001DA9010821A90108E1B8000825A9010855
:1081100029A901082DA9010831A9010835A90108DB
:1081200039A901083DA9010841A9010845A901088B
:1081300080B5DFF81C090021017141714170817027
:108140000121C17002F0AAFD07E000F035F900F04E
:10815000A7FC012807D004F086F801F067F800F0CA
:1081600003F80128F1D101BD2DE9F04FDFF8E00857
:10817000002101714171002590F9020000281CBF07
:10818000012802288FB04FF47A7355D1DFF8C04828
:10819000DFF8C07860780026012808BF64236421D6
:1081A0001846B7F806C0401E6644FAD1491EF7D1FA
:1081B000216EB6FBF3F04118E06D2166401C1E28CD
:1081C000E06539D1DFF89038DFF89068B1FBF0F066
:1081D0001146984228BF0522DFF8843820651B1815
:1081E000B34238BF0422A0F57A7642F228339E4289
:1081F00038BF0322A0F16403B3F5617F38BF0222C8
:10820000A0F10A065A2E38BF01220A2838BF0022E0
:108210008A4205D20FF2981200212E2004F0CEFAE5
:10822000226D62A102A805F029F802AA00212E20E1
:1082300004F0C4FA2566E565DFF8146831797078D2
:10824000014304BF96F9021011F1010F02BFDFF8DC
:108250001428506A002855D10027A8461024DFF8BA
:108260000898B9F80600C719642005F039F8641EAB
:10827000F7D13F09019710240821002005F0D3F819
:1082800080440821002005F0CEF80090082100204D
:1082900005F0C9F807460821002005F0C4F881461A
:1082A0000821002005F0BFF882460821002005F0D3
:1082B000BAF883460821002005F0B5F800998844F3
:1082C000B844C844D044D84480440821002005F074
:1082D000AAF880444FEAD80006F0A6FF01462846D7
:1082E00006F0B0FF641E05464FF00008C4D1DFF869
:1082F0007C07019981840562718EC183C820DFF8F3
:10830000641748627079002801BF7178012996F9D5
:10831000020010F1010F45D1B16D96290CD100205A
:10832000F07104F06FF9002006F0C3FA0020B06588
:108330000FB00120BDE8F08FDFF82887D8F82400BF
:1083400080BB0027B946BA461024DFF81C57E888DE
:108350008144642004F0C4FF641EF8D14FEA191967
:10836000102510240821012005F05DF8C719641EAE
:10837000F8D1380906F058FF0146504606F062FF72
:1083800000276D1E8246ECD1DFF8E006A0F8389099
:10839000C0F834A0F18E0186C821B06D401CB065D4
:1083A000C8F8241000200FB0BDE8F08F256400004D
:1083B00020202020202000002DE9F84FDFF89056E3
:1083C00095F90200AAB020B900216966E96629671B
:1083D0006967012804BF69780029DFF8886640F0E2
:1083E0009480B5F93800C0B9696E41BB706A08B1B4
:1083F000716A8AE02A6DAA66B1A102A804F03EFF64
:1084000002AA0021482004F0D9F9012068664FF43F
:108410007A707062012006F04CFA686E01280ED165
:10842000B5F9381009290ADB4FF4FA72114603F046
:108430001CFF04F0E7F802F0CBFB0020A870A86E48
:10844000296D0F30884217D2686E012814D1B5F912
:108450003820022A10DD2A6499A102A804F00EFF38
:1084600002AA08212E2004F0A9F94FF4FA707062D4
:1084700002206866706A20E0706A002804BF696E96
:10848000012917D1298FDFF80C2D491C298744F6C3
:108490002060136809B2B3FBF0F041434FF4E1648C
:1084A000B1FBF4F189B2DFF8F00C07F0FAF84FF401
:1084B0007A707062686E02281CD1706A28BB298F9E
:1084C000DFF8D02C491E298744F62060136809B2D2
:1084D000B3FBF0F041434FF4E164B1FBF4F189B236
:1084E000DFF8B40C07F0DDF84FF47A707062032007
:1084F000686601E0032808D1706A30B9A978491C80
:10850000FF20A970688707F039F995F90210022950
:1085100004BF6878002840F0F080A96E286D0F3104
:1085200081423AD2686E04282BD165A42A6C214678
:1085300002A804F0A3FE02AA08212E2004F03EF9AE
:10854000AA6E214602A804F099FE02AA0021482042
:1085500004F034F9B5F93A00001F686402466A87EE
:10856000214602A804F08AFE02AA0821482004F04D
:1085700025F9688F07F002F905216966706A706A4B
:108580002CE0032809D1688F0A38688780B207F089
:10859000F5F804206866706A0EE0706A002804BF6F
:1085A000696E032908D1688F0A30688780B207F0A6
:1085B000E5F84FF47A707062706A002804BF696E43
:1085C000042908D1688F401C688780B207F0D6F86C
:1085D0004FF47A707062686E052873D105F67C04DA
:1085E00040F2DC594946204607F0D0F8DFF8FC8C11
:1085F00042464946204607F00BF905F658674946BA
:10860000384607F0C3F80FF2A8294946204608F07B
:108610000FFB0400DFF8D80C0FF25441DFF8D4ACA4
:10862000DFF8D4BC10900F913AD00FF24C412046A5
:1086300008F022FB58B1214602A808F035FB01AB37
:1086400011AA594602A808F055FB286C0FE00F99B3
:10865000204608F011FB90B1214602A808F024FB47
:1086600001AB11AA594602A808F044FB686C0090BF
:1086700011AB3A465146384604F000FE05E0109929
:1086800023463A46384604F0F9FD4946002008F0F2
:10869000CFFA040004D0BDA108F0EEFA0028C4D13E
:1086A000404607F0E5F84146384607F081F84FF4B8
:1086B000FA721146012003F0D8FD0020686602E03E
:1086C00025640000C8B9A8780FF2B432DFF82C4C4A
:1086D000401CA8700021E970002004F08DF82246AB
:1086E00000212E2004F06AF8224608212E2004F0F2
:1086F00065F84FF4706007F041F895F90200012821
:1087000004BF6978012940F09B80696D2A6D8A4217
:1087100003D2686F08B901236B676431914214D2A8
:10872000E86E90B9B5F93C20072A0EDB686F012886
:108730000BD1AA64C3A102A804F0A0FD02AA0821DB
:108740002E2004F03BF80120E866706AE96E0843C9
:1087500004BF686F012817D1A98FDFF8382A491C98
:10876000A98744F62060136809B2B3FBF0F04143D7
:108770004FF4E164B1FBF4F189B2DFF81C0A06F0B2
:108780008EFF4FF47A707062E86E0F283DD1696DEC
:10879000286D643988420CD2A878401CA870FF214B
:1087A000E987FF2006F0EEFF4FF4FA6070620220C6
:1087B00043E0A86F401C6428A8673FD1B5F93C008E
:1087C000DFF8D029A864411EA98744F62060136809
:1087D00009B2B3FBF0F041434FF4E164B1FBF4F1B3
:1087E00089B2DFF8B40906F05AFFA878401CA870D7
:1087F000FF21E987FF2006F0C5FF4FF4FA607062A1
:108800000220E8660020A86718E0012816D1A88F8A
:10881000DFF88029411EA98744F62060136809B259
:10882000B3FBF0F041434FF4E164B1FBF4F189B2E2
:10883000DFF8640906F033FF0F20E866286D6865ED
:1088400095F90200022804BF6978012940F0F780F9
:10885000686D296D643088423FD2E86E032829D1C3
:10886000286F012818BF716A46D176A4AA6C2146E8
:1088700002A804F003FD02AA08212E2003F09EFFA7
:10888000B5F93E00801FE8640246214602A804F0C4
:10889000F5FC02AA0821482003F090FFE86CE88765
:1088A000E88F06F06FFF0421E966706A706A37E0AE
:1088B0000D0A0000022810D1B5F93E00B0F5807F06
:1088C0000BDB1938E88780B206F05CFF4FF4FA60E2
:1088D00070620320E866706A0EE0706A002804BFC8
:1088E000E96E022908D1E88F1430E88780B206F0DB
:1088F00049FF4FF4FA707062706A002804BFE96E95
:1089000003290AD1E88F401CE88780B206F03AFFBD
:108910004FF4FA70706201202867E86E042871D164
:1089200005F67C0440F2DC573946204606F02EFF5F
:10893000DFF8B86932463946204606F069FF05F689
:1089400058683946404606F021FF3FA73946204681
:1089500008F06EF904000FF230100FF234190FF620
:10896000540A0FF65C0B0F903CD04946204608F0A5
:1089700083F968B1214602A808F096F901AB10AA64
:10898000594602A808F0B6F9A86C11E03A000000B8
:108990000F99204608F070F990B1214602A808F01E
:1089A00083F901AB10AA594602A808F0A3F9E86CB4
:1089B000009010AB42465146404604F05FFC06E092
:1089C0000FF6280123464246404604F057FC39463C
:1089D000002008F02DF9040004D01CA108F04CF987
:1089E0000028C2D1304606F043FF3146404606F02B
:1089F000DFFE4FF4FA721146012003F036FC00202E
:108A0000E86600E0C8B9A8780FF28C020FF2FC7497
:108A1000401CA8700021E970002003F0EDFE224602
:108A200000212E2003F0CAFE224608212E2003F04A
:108A3000C5FE4FF4706006F0A5FE286D68652BB08A
:108A4000BDE8F08F256400000D0A00003A00000028
:108A5000CC000020544B0020A0860100905F010054
:108A6000F0D8FFFF741600205C4B002080490020E6
:108A7000564441300000000056504D3000000000C8
:108A8000566F6C2032000000494441300000000065
:108A900049504D3000000000437572203200000044
:108AA0002DE9F84FC2B002F069FA050000F06B83BF
:108AB0000C220C21012003F0D8FBB5F5014F08D1A1
:108AC00002F06AFA03F09EFD002005F0F2FE01209C
:108AD0005AE3B5F5024FDFF83C4C40F08381217931
:108AE0006078014301BF94F9021011F1010FE078A1
:108AF000012840F0A680DFF8205C0FF2B86BE88B0D
:108B00000FF2BC6A0FF2946906F08EFB0646E08A0B
:108B100006F08AFB0146286ADFF8D05708F0FEF815
:108B20000146304608F03AF9DFF8F01B08F0B4F9D6
:108B300008F01EFA608304F67C0702F0EBF840F2BE
:108B4000DC563146384606F021FE2A463146384684
:108B500006F05EFE04F658683146404606F016FE02
:108B60009EA63146384608F063F807000FF25860B9
:108B7000029051D04946384608F07EF878B139461F
:108B800003A808F091F801AB29AA514603A808F000
:108B9000B1F8608E009029AB4246594626E00FF2AC
:108BA0000461384608F068F820B3394603A808F095
:108BB0007BF8029910AB29AA03A808F09BF8208E35
:108BC0000FF2146706F030FBDFF8541B08F0E6F8EC
:108BD00008F0E8F902460B46394603A804F04EFBBC
:108BE00003A80FF2FC51009029AB4246404604F026
:108BF00045FB06E00FF2F4513B464246404604F086
:108C00003DFB3146002008F013F8070004D074A1A2
:108C100008F032F80028ADD1284606F029FE294692
:108C2000404606F0C5FD0FF2CC520021002003F0B3
:108C3000E3FD4FF4FA721146012003F016FB012008
:108C400020716079002804BF6178012940F0B1806B
:108C500094F9020010F1010F04BFE178012940F0FE
:108C6000A880DFF8B45A0FF24459288E0FF2445B03
:108C70000FF24C5A800008F0B9F90646E08B8000EC
:108C800008F0B4F90146686BDFF8605608F046F862
:108C90000146304608F082F8DFF8801A08F0FCF848
:108CA00008F066F9608404F67C0702F033F840F2BD
:108CB000DC563146384606F069FD2A4631463846CC
:108CC00006F0A6FD04F658683146404606F05EFD03
:108CD00042A63146384607F0ABFF07000FF2E840E6
:108CE000029051D04946384607F0C6FF78B1394660
:108CF00003A807F0D9FF01AB29AA514603A807F042
:108D0000F9FFE08E009029AB4246594626E00FF26B
:108D1000C041384607F0B0FF20B3394603A807F03A
:108D2000C3FF029910AB29AA03A807F0E3FFA08EA6
:108D30000FF2A44706F078FADFF8E41908F02EF8ED
:108D400008F030F902460B46394603A804F096FABB
:108D500003A80FF28C41009029AB4246404604F034
:108D60008DFA06E00FF284413B464246404604F04D
:108D700085FA3146002007F05BFF070004D018A1F8
:108D800007F07AFF0028ADD1284606F071FD29468C
:108D9000404606F00DFD0FF25C420021002003F07A
:108DA0002BFD4FF4FA721146012003F05EFA012008
:108DB000607140F6E440DFF86C19DFF86C29088038
:108DC000642111800021DFF8D00306F06AFC002046
:108DD00005F06FFD02F0E0F8D5E100BF0D0A0000DC
:108DE0003A000000012D18D194F9020001281CBF9F
:108DF0000228032800F0C7816078401E8041C00F20
:108E000060700020A07003F0FDFB607810B901F0E5
:108E1000DFFEB8E101F00FFFB5E1B5F5007F40F0EE
:108E20006D8194F9021001291CBF022911F1010F73
:108E300000F0A981E278012A40F0A581607800283D
:108E400058D1002940F0B3800FF2B032DFF8DC686F
:108E500003F0D2FC4FF0000800274FF42055F088B3
:108E600080443088C719322004F03AFA6D1EF6D1DA
:108E70004FF42070B8FBF0F02F3821283FBF4FF49B
:108E80002071B7FBF1F12F39212909D34FF0FF30C1
:108E9000A0704FF4FA721146012003F0E6F929E0C0
:108EA000DFF874081421B8FBF1F181821421828A61
:108EB0005209A282B7FBF1F1C182B5A5C08A40096F
:108EC000E082294603A804F0D9F903AA08212E203C
:108ED00003F074FCE28A294603A804F0CFF903AA40
:108EE0000821482003F06AFC03F0BDF94FF47A70C2
:108EF00004F0FAF96178012904BF94F9020000280E
:108F000055D10FF20032DFF82468002103F074FC21
:108F10000027B8464FF42055B088C71970888044A0
:108F2000322004F0DDF96D1EF6D14FF42060B7FB5E
:108F3000F0F00A3814289FBF4FF42061B8FBF1F11C
:108F40000A39142909D94FF0FF30A0704FF4FA7292
:108F50001146012003F089F929E0DFF8BC0714214C
:108F6000B7FBF1F1C1841421C28CD209A283B8FBF2
:108F7000F1F1018586A5008DC009E083294603A88B
:108F800004F07CF903AA08212E2003F017FCE28BE1
:108F9000294603A804F072F903AA0821482003F027
:108FA0000DFC03F060F94FF47A7004F09DF9A0789D
:108FB0000FF25825401CA0702A4600212E2003F0F5
:108FC000FDFB2A4608212E2003F0F8FB94F902004D
:108FD000714D012826D16078DFF854674FF47A7715
:108FE00048B9FF2006F0CAFB002020870021284650
:108FF00006F057FB15E0FF2006F0C4FB0620A08713
:1090000044F6206263480168B1FBF2F202EB4203CE
:109010005B004FF4E160B3FBF0F189B2284606F043
:109020003EFB776294F90200042840F0AC804FF0D8
:10903000FF316078574FA17040F2D668A0B9608FB9
:1090400006F09CFB386844F62062B0FBF2F208FBA5
:1090500002F04FF4E161B0FBF1F189B2284606F06D
:1090600020FB0FF2B8123DE0002005F022FCDFF8F3
:10907000C4164FF4E16008800346DFF8BC16DFF841
:10908000BC060A880188012005F034FBE08F06F059
:1090900079FB396844F62062B1FBF2F2C2EB0212AE
:1090A0004FF4E160B2FBF0F189B2284606F0F7FA1E
:1090B000012005F0FEFB0F26012004F015F93868A9
:1090C00044F62061B0FBF1F171434FF4E162B1FB72
:1090D000F2F189B2284606F0E2FA761C4645EBD951
:1090E0000FF240120021002003F086FBDFF840164B
:1090F0004FF47A7048620022E27044E0022D20D1E1
:10910000605703280BD1607818B9208E411E218644
:1091100010E001280ED1A08E411EA1860AE010F1B8
:10912000010F07D1607818B9608E411E618628E072
:10913000012802D00120E07025E0E08E411EE1868A
:109140001FE0042D1FD194F9020003280BD1607891
:1091500018B9208E401C208613E0012811D1A08E62
:10916000401CA0860DE010F1010F0AD1607818B9FB
:10917000608E401C608604E0012802D1E08E401C15
:10918000E0860121E170002043B0BDE8F08F0000CF
:1091900025640000501800200034014056504D66F0
:1091A00000000000564441660000000049504D6632
:1091B00000000000257325733A25640D0A000000A5
:1091C000255B5E3A5D256400255B5E3A5D25730094
:1091D00049444166000000003A252E316600000037
:1091E0002573257325730D0A000000002573257370
:1091F0000D0A00004F4B202020000000566F6C200D
:109200003100000043757220310000002020202032
:10921000202020202020202020000000566F6C20DD
:109220003300000043757220330000003EB5DFF8C4
:10923000E44494F90200012818BF022818D1DFF88D
:10924000F054A86AB0F5487F04D92DA2002160200F
:1092500003F0D2FAA96AB1F5487F04D229A200210D
:10926000602003F0C9FAA86A10B94FF4C861A96276
:1092700094F90210032918D1607848B9228EE6A12A
:10928000684603F0FBFF6A460021322003F0B4FA7F
:109290006078012809D1A28EDFA1684603F0EEFFB5
:1092A0006A460021322003F0A7FA94F9021011F166
:1092B000010F18D1607848B9628ED7A1684603F0D3
:1092C000DDFF6A460021322003F096FA607801281B
:1092D00009D1E28ED0A1684603F0D0FF6A46002192
:1092E000322003F089FA03B030BD000054AF00080B
:1092F000EC910008B4910008C09100080C9200089D
:109300002E2E2E002020200070B584B068460FF26B
:109310000C31DFF800540F2207F07AFE05F27C448E
:109320004FF480663146204606F030FA324605F1A9
:109330007C01204607F06CFEDAA4214605F17C0092
:1093400007F076FC6946002007F072FCDFF8C8538E
:1093500007F03FFF28602146002007F069FC6946BE
:10936000002007F065FC07F034FFA88021460020AC
:1093700007F05EFC6946002007F05AFC07F029FF61
:10938000E8802146002007F053FC6946002007F0E2
:109390004FFC07F01EFF07F029FEA86021460020C1
:1093A00007F046FC6946002007F042FC07F011FF79
:1093B000A8812146002007F03BFC6946002007F009
:1093C00037FC07F006FF07F011FE28612146002058
:1093D00007F02EFC6946002007F02AFC07F0F9FE92
:1093E000A8822146002007F023FC6946002007F0F0
:1093F0001FFC07F0EEFEE8822146002007F018FC73
:109400006946002007F014FC07F0E3FE288321469C
:10941000002007F00DFC6946002007F009FC07F06A
:10942000D8FE68832146002007F002FC6946002030
:1094300007F0FEFB07F0CDFEA8832146002007F0D1
:10944000F7FB6946002007F0F3FB07F0C2FEE88354
:109450002146002007F0ECFB6946002007F0E8FBFE
:1094600007F0B7FE07F0C2FD28622146002007F092
:10947000DFFB6946002007F0DBFB07F0AAFEA884AB
:109480002146002007F0D4FB6946002007F0D0FBFE
:1094900007F09FFEE8842146002007F0C9FB6946DB
:1094A000002007F0C5FB07F094FE28852146002028
:1094B00007F0BEFB6946002007F0BAFB07F089FE03
:1094C00068852146002007F0B3FB6946002007F0BD
:1094D000AFFB07F07EFEA8852146002007F0A8FB21
:1094E0006946002007F0A4FB07F073FEE8852146DB
:1094F000002007F09DFB6946002007F099FB07F06C
:1095000068FE28862146002007F092FB694600206D
:1095100007F08EFB07F05DFE07F068FD68632146EB
:10952000002007F085FB6946002007F081FB07F06B
:1095300050FE28872146002007F07AFB694600206C
:1095400007F076FBDFF8545907F043FEA880214668
:10955000002007F06DFB6946002007F069FB07F06B
:1095600038FEE8802146002007F062FB69460020B3
:1095700007F05EFB07F02DFE28812146002007F052
:1095800057FB6946002007F053FB07F022FE688175
:109590002146002007F04CFB6946002007F048FBFD
:1095A00007F017FEA8812146002007F041FB69461D
:1095B000002007F03DFB07F00CFEE881214600206B
:1095C00007F036FB6946002007F032FB07F001FE8A
:1095D00028822146002007F02BFB6946002007F077
:1095E00027FB07F0F6FD68822146002007F020FBEC
:1095F0006946002007F01CFB07F0EBFDA88221461E
:10960000002007F015FB6946002007F011FB07F06A
:10961000E0FDE88204B070BD256400000D0A000082
:1096200000000000000000000000000038B5DFF876
:1096300070481421204607F0FDFD0A222146DFF87C
:10964000640807F07FFE218832484FF6FF73994285
:1096500014D14FF49C510182182240F2EA614182F8
:10966000122342218182C1824FF461754FF4FA7155
:10967000018347F63C044FF443410DE001826188C9
:109680004182A1888182E188C18221890183A289E6
:109690006189E389258A648A44840584C38382833B
:1096A000418331BD3D00000010B51A4CDFF814288D
:1096B0004FF4806104F17C0006F0AAF820B9012182
:1096C0002170FFF721FE01E000202070BDE810406E
:1096D000ACE710B5DFF8C447DFF8C8070A22211D40
:1096E00007F0C1FDDFF8AC08A1880182E188418262
:1096F000218981826189C182A1890183E1894183B4
:10970000218A8183618AC183A18A0184E18A41849B
:1097100010BD0000CC000020804900200050C3474D
:10972000000020413A1500203C150020544B002039
:1097300074160020301500202E1500202C15002056
:109740002DE9F14F0026002884B040F08B800220E4
:109750000290002510240821002003F0BDFE05F032
:1097600063FD0146002005F06DFD019008210020F9
:1097700003F0B2FE06460821002003F0ADFE0746C6
:109780000821002003F0A8FE80460821002003F0F5
:10979000A3FE83460821002003F09EFE8246082196
:1097A000002003F099FE81460821002003F094FE7A
:1097B00005F03AFD0090484605F036FD81465046DA
:1097C00005F032FD8246584605F02EFD83464046A0
:1097D00005F02AFD8046384605F026FD074630464E
:1097E00005F022FD0146019805F02CFD394605F0F3
:1097F00029FD414605F026FD594605F023FD514659
:1098000005F020FD494605F01DFD009905F01AFD03
:1098100001464FF0785007F03FFB0146284605F01F
:1098200011FD0026641E054695D10299491E02913C
:109830008FD107F09DFBDFF86047DFF85877A080F5
:10984000787A012804BFF98C2160206805F0ECFCCF
:10985000294607F0A3FADFF8441707F01DFB07F0CD
:1098600087FB38829DF8100001281CD110240821A4
:10987000012003F031FE05F0D7FC0146304605F02B
:10988000E1FC641E0646F2D1DFF80857DFF808470E
:10989000A88CE0804FF07651304607F0FDFAA060CA
:1098A0000120A872DEE202281CD110240821012028
:1098B00003F012FE05F0B8FC0146304605F0C2FC8C
:1098C000641E0646F2D1DFF8CC56DFF8CC46A88CF1
:1098D000A0814FF07651304607F0DEFA206101207A
:1098E000E872BAE2032840D10225DFF8B4664FF4EB
:1098F00000774FF000083C46F08805F095FC0146E3
:10990000404605F09FFC8046322003F0E9FC641ECF
:10991000F2D16D1EEDD1404607F02AFBDFF87886C4
:10992000DFF87096A8F8140002250004400DA9F88D
:1099300014004FF0000A3C46308805F075FC0146E3
:10994000504605F07FFC8246322003F0C9FC641EBD
:10995000F2D16D1EEDD1504607F00AFBA8F81600B3
:109960000004400DA9F8160077E2042840F0998021
:1099700002200390002700251024DFF82C06C08861
:10998000C719642003F0ACFC641EF6D13F043F0D00
:10999000029710240821032003F045FD05F044FC44
:1099A0000146002005F04EFC01900821032003F041
:1099B0003AFD06460821032003F035FD074608213D
:1099C000032003F030FD80460821032003F02BFD27
:1099D00083460821032003F026FD82460821032048
:1099E00003F021FD81460821032003F01CFD05F052
:1099F0001BFC0090484605F017FC8146504605F0D8
:109A000013FC8246584605F00FFC8346404605F09D
:109A10000BFC8046384605F007FC0746304605F04B
:109A200003FC0146019805F00DFC394605F00AFCDF
:109A3000414605F007FC594605F004FC514605F087
:109A400001FC494605F0FEFB009905F0FBFB0146D1
:109A50004FF0785007F020FA0146284605F0F2FB57
:109A6000641E054696D10399491E039182D102983E
:109A7000DFF82445A083284607F07AFA6083DFF8F0
:109A80001415087B012804BF0A8D2283628BDFF83E
:109A90001C05831841F63F74A34280F0DE810A83DF
:109AA000DBE1052840F0A380022003900027002579
:109AB0001024DFF8F404C088C719642003F010FCF8
:109AC000641EF6D13F043F0D0297102408210020A8
:109AD00003F0A9FC05F0A8FB0146002005F0B2FB4D
:109AE00001900821002003F09EFC0646082100207A
:109AF00003F099FC07460821002003F094FC8046FF
:109B00000821002003F08FFC83460821002003F089
:109B10008AFC82460821002003F085FC814608214A
:109B2000002003F080FC05F07FFB0090484605F024
:109B30007BFB8146504605F077FB8246584605F090
:109B400073FB8346404605F06FFB8046384605F0C0
:109B50006BFB0746304605F067FB0146019805F0B0
:109B600071FB394605F06EFB414605F06BFB59462B
:109B700005F068FB514605F065FB494605F062FBC0
:109B8000009905F05FFB01464FF0785007F084F92B
:109B90000146284605F056FB641E054696D10399FA
:109BA000491E039182D10298DFF8EC432562A0841C
:109BB000DFF8E053687B012804BF698DE183E08B07
:109BC00005F032FB0646E08A400905F02DFB014610
:109BD000206A07F0A3F80146304607F0DFF8DFF807
:109BE000C01707F059F907F0C3F9688335E1062873
:109BF00040D10225DFF8A8634FF400774FF000084A
:109C00003C46B08805F010FB0146404605F01AFBC3
:109C10008046322003F064FB641EF2D16D1EEDD14C
:109C2000404607F0A5F9DFF87083DFF86893A8F8DD
:109C3000260002250004C00DA9F81C004FF0000A00
:109C40003C46708805F0F0FA0146504605F0FAFAF5
:109C50008246322003F044FB641EF2D16D1EEDD12A
:109C6000504607F085F9A8F828000004C00DA9F8AF
:109C70001E00F2E0072840F09780022003900027A2
:109C800000251024DFF82003C088C719642003F0E2
:109C900027FB641EF6D13F043F0D029710240821D4
:109CA000012003F0C0FB05F0BFFA0146002005F0DB
:109CB000C9FA01900821012003F0B5FB06460821EE
:109CC000012003F0B0FB07460821012003F0ABFBA5
:109CD00080460821012003F0A6FB834608210120CD
:109CE00003F0A1FB82460821012003F09CFB814682
:109CF0000821012003F097FB05F096FA00904846F2
:109D000005F092FA8146504605F08EFA8246584692
:109D100005F08AFA8346404605F086FA80463846C2
:109D200005F082FA0746304605F07EFA01460198B2
:109D300005F088FA394605F085FA414605F082FAC1
:109D4000594605F07FFA514605F07CFA494605F080
:109D500079FA009905F076FA01464FF0785007F04D
:109D60009BF80146284605F06DFA641E054696D11B
:109D70000399491E039182D1029EDFF81C4207F02D
:109D8000F7F8A085E685DFF80C12887B012804BF70
:109D90008A8D6285A28D6FF44850831840F2BB24EF
:109DA000A3425AD20A8458E0082856D10226DFF886
:109DB000F8714FF076584FF00009CA46CB46102490
:109DC000F8888244642003F08BFA641EF8D14FEACD
:109DD0000A404FEA105A102510240821012003F0F0
:109DE00022FB05F021FA0146484605F02BFA641ED5
:109DF0008146F2D1414607F04FF80146584605F03A
:109E000021FA6D1E83464FF00009E5D1761ED2D1AE
:109E1000DFF88441DFF87C51C4F834B0A4F838A0EE
:109E2000E87B012804BFE98D2186208E800007F0A1
:109E3000DDF80646208D400905F0F6F90146606B15
:109E400006F06CFF0146304606F0A8FFDFF850151B
:109E500007F022F807F08CF86884DFF83801817A7F
:109E6000012916D1DFF82C41E07A012811D1DFF861
:109E700028118868096906F051FF0146DFF83005AE
:109E800006F08CFFDFF82C1507F006F807F070F8E5
:109E9000608205B0BDE8F04F00F03CBF000000203C
:109EA000144B00200020070849B101F00F020A2AD4
:109EB000ACBF3732303200F8012B0909F4E70170EA
:109EC0007047000060AF0008F8B5DFF8104B94F958
:109ED0000000012823D10021DFF8040BDFF8042B58
:109EE000217001700020DFF8001B10800870002135
:109EF000042002F017FA0021082002F013FA0021D2
:109F0000102002F00FFA002020708021DFF8DC0A18
:109F100007F095FA23A21021582002F06DFCDFF81B
:109F2000D01ADFF8D05A4FF47A70486047F23054B4
:109F30002888A0420AD10FF278020021002002F006
:109F40005BFC40F2DB5441F2883006E00FF27C32D9
:109F50000021002002F050FC0520DFF80C6C0FF20D
:109F60007C32DFF8087C30802C801021002002F049
:109F700043FCDFF8FC4B288800233A46214607F0D3
:109F8000DAFA30883A46214601B0BDE8F0400023B5
:109F900007F09EBACC0000208049002000401C46FB
:109FA000544B00204F4646005C4B00207F44FFFF8F
:109FB000312E343939562035412020202020000010
:109FC0002DE9F04F8BB00FF204320021002002F097
:109FD00013FCBCA21021582002F00EFCDFF8EC4B61
:109FE0006078012804D1B8A20021602002F004FCAE
:109FF000DFF8FC59DFF8FC79DFF86C8BDFF8706B69
:10A00000DFF868AB4FF47A700090686047F230591F
:10A01000A7F800900520A8F800000023524631461A
:10A02000484607F088FAB8F8000000235246314647
:10A0300007F04EFADFF8A46996F90010012904BF71
:10A04000686A00284ED10021DFF89409DFF89429CE
:10A050003170017011800420DFF88C29117002F03A
:10A0600061F90021082002F05DF90021102002F0C2
:10A0700059F9002030708021DFF8700907F0DFF90E
:10A0800030E096F90010012904BFA86800281DD10E
:10A090003988494504BF6078002807D14FF4FA7227
:10A0A0001146012002F0E1F80120607040F2DB501F
:10A0B0003988814204BFA078002807D14FF4FA7292
:10A0C0001146012002F0D1F80120A07000F064FFD9
:10A0D00006E040F2DB51884202D141F28830A860AC
:10A0E00002F0C1F800F04AFF824603F038FA686ACD
:10A0F000002804BF96F90010012927D1DFF8080CC9
:10A100000FF2D81B00880323022207A903F022FBC9
:10A11000DFF8F80B00880323022203A903F05CFB9D
:10A120005A460021002002F067FB5A461021002009
:10A1300002F062FB07AA0021002002F05DFB03AAE7
:10A140001021002002F058FB00986862696A00291B
:10A1500004BF96F9000000280ED1DFF8B40B008888
:10A160000323022201A903F0F5FA01AA102100201D
:10A1700002F042FB009868626078012804BF3988C9
:10A18000494504D150A20021602002F035FBA0789F
:10A19000012802BF398840F2DB52914204D14AA221
:10A1A0000021602002F028FBBAF1010F0AD0BAF5B5
:10A1B000007F0AD0BAF5014F72D0BAF5024F3FF4D2
:10A1C00060AF8DE7FFF780FE8AE796F9000001286F
:10A1D0003AD10FF2081A52460021002002F00CFB7F
:10A1E00052461021002002F007FB388848450CBF7A
:10A1F0000FF2F0020FF2F8020021002002F0FCFA48
:10A200000020DFF8DC17DFF8DC2730700870002151
:10A210001180DFF8D4271070042002F083F80021A9
:10A22000082002F07FF80021102002F07BF80020C7
:10A2300030708021DFF8B40707F001F921A2102166
:10A24000582002F0D9FA4BE70FF2B00200210020AB
:10A2500002F0D2FA012030700121042002F062F8ED
:10A260000021082002F05EF80021102002F05AF8C8
:10A27000012030708021DFF8740707F0E2F8DFF882
:10A280006417032008804FF4FA61296245A2102167
:10A29000582002F0B1FA388848457FF41AAF1CE71D
:10A2A00040F6E440388000216420A8F80000DFF880
:10A2B000380C05F0F6F900F06FFE02F0A3F90BB0D0
:10A2C000BDE8F08F4F4646004F4B0000333056201C
:10A2D000202020356D41202020200000202020203B
:10A2E0002020200033305620202020356D410000F2
:10A2F000312E3439395620354120000020202020CD
:10A30000202020202020000038B586B026A2002181
:10A31000002002F071FA25A200212D2002F06CFA33
:10A320000FF2940200215A2002F066FA03F029F895
:10A330006421B0FBF1F103A8FFF7B6FD03A807F015
:10A3400017FE03AA02440021521E6B4604E012F8D5
:10A35000014903F8014B491C8142F8D36A460021A8
:10A3600011540020102102F047FADFF8884B41F227
:10A37000344025186946284607F0CFFE0FF2400109
:10A38000284607F0FFFF04F5A2546946204607F06F
:10A39000C4FE0FF23401204607F0F4FF07B030BDD1
:10A3A0000050C347204F4E00444143004144430006
:10A3B0000080BB4500007A4454455354000000001F
:10A3C0002E54585400000000702E545854000000C1
:10A3D0002DE9F84FDFF81C4B00206072A072E0728C
:10A3E00020736073A073E07386B02078012840F07A
:10A3F000F18202F007F9DFF8000B0FF2FC550021A3
:10A40000017001202072E0712A464FF4806104F14E
:10A410007C0005F0FDF960BB284605F029FA28E02C
:10A4200000F0A8FBFFF755F900F0B6FD02F0EAF8DE
:10A430000FF2D8520A21002002F0DEF94FF47A70B0
:10A4400002F052FF02F0DEF811E0DFF880074178F9
:10A45000012904BF8078012807D100F08BFB0FF29F
:10A46000A45210215A2002F0C7F900F095FD01F026
:10A47000FAFEE079002800F0AD82FFF745FF00F01A
:10A480007DFD012800F0A182B0F5807F0AD0B0F5F3
:10A49000007F0AD048F201018842D6D0B0F5024FC1
:10A4A000BED0E4E7FDF744FEE1E702F0ABF801209F
:10A4B000207240F20D39DFF82C05DFF82415DFF8A3
:10A4C0003065DFF818B5DFF804570FF2405A0590F1
:10A4D00004910FF2602805F11C00A17950F82120A9
:10A4E0000021002002F088F9A07908285EDC20B95C
:10A4F000228A4146684607F010FEA079012804D15F
:10A50000628A4146684607F008FEA079022804D115
:10A51000628A4146684607F000FEA07903280ED102
:10A52000A28A4146684607F0F8FDE28A414602A841
:10A5300007F0F3FD02AA1021282002F05DF9A079AE
:10A54000042804D1228B4146684607F0E6FDA07935
:10A55000052804D1628B4146684607F0DEFDA079EC
:10A5600006280ED1A28B4146684607F0D6FDE28B45
:10A57000414602A807F0D1FD02AA1021282002F0CE
:10A580003BF9A079072804D1228C4146684607F0A0
:10A59000C4FDA079082804D1628C4146684607F0C2
:10A5A000BCFD6A461021002002F026F99BF900103C
:10A5B00001B3706AF0B9049800218BF800100170A3
:10A5C0000020059908800021DFF81C040170042098
:10A5D00001F0A8FE0021082001F0A4FE00211020B7
:10A5E00001F0A0FE00208BF800008021DFF8FC03C2
:10A5F00006F025FF00F0C2FC012807461ED0B0F58A
:10A60000007F2AD0B0F5014F11D1FFF70FF80020DD
:10A610002072287040F6E441DFF8D80301806421FD
:10A62000DFF84405018001F0EDFF00F0B5FC01F01A
:10A630001AFE207A00287FF44EAF18E701F0E2FFFF
:10A64000A079072802D10420A071F0E7042808BFF0
:10A650000020F9D008B90720F6E700F0EDF9A0795D
:10A660000A28E4D00121297000200FF2AC32102119
:10A6700002F0C2F80FF2A8321021502002F0BCF80C
:10A6800013E0002028700CE00FF29C320A21002019
:10A6900002F0B2F84FF47A7002F026FE4FF4FA504E
:10A6A000706201F0AFFF01F0DEFD28780028BED017
:10A6B000A079012818BF022831D1A08C022F08D020
:10A6C000042F0AD1401C81B2494506DB4FF4437088
:10A6D00003E0401E81B201B90120A0844146A28C52
:10A6E000684607F01AFD6A460021502002F084F8FF
:10A6F000A18C288B814212D0DFF80028DFF80008F7
:10A70000126844F62063B2FBF3F359434FF4E1625D
:10A71000B1FBF2F189B204F0C8FFA08C2883A079C4
:10A72000E0B9607AE18C022F06D0042F06D1491CD3
:10A7300003E000BF25640000491E01206072E1842F
:10A74000607A012840F08780E28C4146684607F035
:10A75000E4FC6A460021502002F04EF8A07904285B
:10A7600018D1207B218D022F03D0042F03D1491C47
:10A7700000E0491E012020732185207B012809D19A
:10A78000228D4146684607F0C8FC6A4600215020E9
:10A7900002F032F8A079052818D1607B618D022F74
:10A7A00003D0042F03D1491C00E0491E012060732F
:10A7B0006185607B012809D1628D4146684607F0BA
:10A7C000ACFC6A460021502002F016F8A079072858
:10A7D00025D1022F05D0042F14D1A18D491CA185AC
:10A7E0000DE0A08D401EA08540F2E73180B2884286
:10A7F00005D10FF23C220021502001F0FDFF012085
:10A80000A07302E0A07B012809D1A28D41466846D1
:10A8100007F083FC6A460021502001F0EDFFA0798B
:10A82000082818D1E07BE18D022F03D0042F03D13B
:10A83000491C00E0491E0120E073E185E07B01280E
:10A8400009D1E28D4146684607F067FC6A4600215F
:10A85000502001F0D1FF00F091FB012807463FF4A2
:10A8600010AFB0F5007F7FF41EAF0020287001F01C
:10A87000C9FEA079082863DCFEF762FFA07920B941
:10A88000228A4146684607F048FCA079012804D195
:10A89000628A4146684607F040FCA079022804D14C
:10A8A000628A4146684607F038FCA07903280ED139
:10A8B000A28A4146684607F030FCE28A414602A877
:10A8C00007F02BFC02AA0021282001F095FFA079B7
:10A8D000042804D1228B4146684607F01EFCA0796B
:10A8E000052804D1628B4146684607F016FCA07922
:10A8F00006280ED1A28B4146684607F00EFCE28B7B
:10A90000414602A807F009FC02AA0021282001F014
:10A9100073FFA079072804D1228C4146684607F0CE
:10A92000FCFBA079082804D1628C4146684607F0F8
:10A93000F4FB6A460021002001F05EFF5246A5E6C6
:10A94000A988DFF8C0054018C7283EBF28892F38DE
:10A9500021283EBF68892F382128BFF495AEEA89A7
:10A96000DFF8A41540F2F310891881423EBF288A0F
:10A970000A3815283EBF688A0A381528BFF484AE05
:10A98000EA8ADFF8881540F2BB2089188142BFF4BB
:10A990007BAEDFF87C050A22291D06F064FCA8883E
:10A9A00020825246E88860822889A0826889E082F5
:10A9B000A8892083E8896083288AA083688AE08345
:10A9C000A88A2084E88A608460E601F01BFEFFF715
:10A9D000F7FA4CE507B0BDE8F08F0000EE16002056
:10A9E00024150020341500202515002000180140F2
:10A9F000741600203A15002052585F414444522EEC
:10AA0000545854005341564500000000436F6D7088
:10AA10006C6574650000000053746172742020003E
:10AA200052657475726E00004572726F720000009C
:10AA3000202020200000000038B5DFF8B844DFF8FF
:10AA4000D454A07900281CBF0328062822D195F9E8
:10AA5000000001281ED10021DFF8BC04DFF8BC246F
:10AA6000297001700020DFF8B814108008700021F0
:10AA7000042001F057FC0021082001F053FC0021C4
:10AA8000102001F04FFC002028708021DFF8940492
:10AA900006F0D5FCA079042818BF052803D00728A4
:10AAA00018BF08285ED195F9000000285AD101216D
:10AAB0002970042001F036FC0021082001F032FC4E
:10AAC0000021102001F02EFC012028708021DFF8E9
:10AAD000540406F0B6FCDFF84414032008804FF459
:10AAE000FA62DFF844140A624FF47A704860A17980
:10AAF000042906D1DFF8341441F28830088064213B
:10AB00001BE0052906D1DFF8241447F230500880F5
:10AB1000642112E0072907D1DFF8101440F6E4425F
:10AB20000A80114908800AE0082908D1DFF8FC13DF
:10AB300040F6E440088041F288310B4A118000233E
:10AB4000DFF8E803094C00880949224606F0F3FCC7
:10AB5000224601B00448DFF8D8130088BDE8304031
:10AB6000FFF715BA31BD00003C1500205415002038
:10AB700020160020F8B5DF4C04F6586540F2DC568C
:10AB80003146284604F002FE0FF2C8373A463146F5
:10AB9000284604F03DFE04F5A251284604F008FEC4
:10ABA000384604F065FE41F23440211804F27C403E
:10ABB00004F0FEFD0FF2A83004F05AFEBDE8F840A4
:10ABC0004FF4FA721146012001F04FBB0000002043
:10ABD00010B5002003F06DFE0FF29032002100202E
:10ABE00001F00AFED349C54C642003F009FF216837
:10ABF00044F62062B1FBF2F2642042434FF4E16379
:10AC0000B2FBF3F189B2BE4804F04FFD206844F670
:10AC10002061B0FBF1F101EB8102D2004FF4E1635E
:10AC2000B2FBF3F189B2B04804F039FDBDE8104041
:10AC3000FF2004F0A7BD10B5012003F03AFE0FF28B
:10AC400034320021002001F0D7FDBA49AB4C40F668
:10AC5000E44003F051FE216844F62062B1FBF2F2B9
:10AC6000642042434FF4E163B2FBF3F189B2A4489C
:10AC700004F01BFD216844F62062B1FBF2F2C8200B
:10AC800042434FF4E163B2FBF3F189B2964804F01A
:10AC900008FDBDE81040FF2004F070BD10B501F0C4
:10ACA000B1FCA04C4FF48071204606F0C8FB4FF475
:10ACB0000071204606F0C3FB9F49A04A012008808E
:10ACC00064219F48118064239E49028809880120DD
:10ACD00003F010FD95499C4A40F6E4400880642149
:10ACE0001180002001F05EFA40F2145002F0FCFAEC
:10ACF00001F042FA022001F0BBF9FFF769FF8A492F
:10AD00004FF47A70486210BDBC490020BE49002053
:10AD1000F01600202DE9F847764C8C4E618A208A87
:10AD2000DFF82C82ADF5357D0A22ADF80210ADF8C2
:10AD300000006EA5A18A7648ADF80410C146E18AEC
:10AD4000ADF8061005AF218BADF808100FF2A01A70
:10AD5000618BADF80A10A18BADF80C10E18BADF84A
:10AD60000E10218CADF81010618CADF812106946F0
:10AD700006F079FA3288294605A807F0CEF9B2889C
:10AD800029460DA807F0C9F9F288294615A807F049
:10AD9000C4F9B06806F0ECF882B229461DA807F0A5
:10ADA000BCF9B289294625A807F0B7F9306906F041
:10ADB000DFF882B229462DA807F0AFF9B28A2946FA
:10ADC00035A807F0AAF9F28A29463DA807F0A5F9A7
:10ADD000328B294645A807F0A0F9728B29464DA869
:10ADE00007F09BF9B28B294655A807F096F9F28B2C
:10ADF00029465DA807F091F9306A06F0B9F882B2E9
:10AE0000294665A807F089F9B28C29466DA807F094
:10AE100084F9F28C294675A807F07FF9328D29460E
:10AE20007DA807F07AF9728D294685A807F075F993
:10AE3000B28D29468DA807F070F9F28D294695A8A4
:10AE400007F06BF9328E29469DA807F066F9706B02
:10AE500006F08EF882B22946A5A807F05EF9328F77
:10AE60002946ADA807F059F904F27C464FF48061F9
:10AE7000304604F08BFCD8F88010304607F082FA98
:10AE8000162459F8041B304607F07CFA394607F0BF
:10AE900079FA5146304607F075FA2037641EF0D132
:10AEA000E94608F1580805AF0A2458F8041B304653
:10AEB00007F068FA39F8022B2946384607F02DF9D1
:10AEC0003946304607F05EFA514607F05BFA203704
:10AED000641EEAD10FF28801304604F069FC0DF5DA
:10AEE000367DBDE8F0870000003401402564000095
:10AEF0000D0A0000CC000020411600205018002050
:10AF0000002C0140DBECFFFFDB3DFFFF3F89FFFF33
:10AF100000200708EE16002024150020341500201C
:10AF20002515002000180140741600203A15002055
:10AF30003016002054150020FE1600203015002089
:10AF40002E1500202C1500203C15002080490020E3
:10AF500048000020504152414D2E545854000000EA
:10AF6000434F4E4649472E5458540000566F6C20AC
:10AF7000200000004375722020000000DFF8AC1CA8
:10AF8000486F00224A677047401E8041C043DFF887
:10AF90009C1CC00F0870704710B5DFF8904C002063
:10AFA0002070606700F003F80120207010BD78B4B5
:10AFB000DFF87C0CDFF8743C0668DFF8240D0568C8
:10AFC000046818789978F643ED43E44306F00106E7
:10AFD00005F4007504F4807401B19870D97801B15A
:10AFE000D870197901B11871310004D0002199830A
:10AFF000D98A491CD982B5F5007F04D100219983F3
:10B00000198B491C1983B4F5807F04D100219983E1
:10B01000598B491C5983D98A182907DDF0B19A78D0
:10B0200022B148F201025A6701221A821A8B182AA9
:10B0300007DD98B1DA7822B14FF402425A67012253
:10B040005A825A8B182A09DD00281CBF187900285B
:10B0500004D04FF4014201205A67988276B9188AC9
:10B0600028B9182905DC29B10120586704E000201F
:10B07000188209B9012098700020D88285B9188BF0
:10B08000598A31B9182806DC30B14FF4007058677E
:10B0900004E00021598208B90120D87000201883EB
:10B0A0005A78DCB9588B998A89B9182807DC30B1ED
:10B0B0004FF480715967998B0A29B8BF521C998B3C
:10B0C000491C998389B20A2903DD002201E000218D
:10B0D000998208B901201871002058835A7071BCF8
:10B0E000704780B507F05EF94FF4803007F073F9D0
:10B0F00007F08BF9012828D1102007F01FFA022051
:10B1000007F014FA002007F0ABF9002007F0B4F9BB
:10B110004FF4806007F0A9F94FF4804007F0B7F9C9
:10B120004FF4E0114FF4803007F083F9012007F06D
:10B1300088F9392007F0D4F90028FAD0022007F066
:10B1400083F907F088F90828FBD101BD80B54FF4D9
:10B1500000414FF0006007F0ADFA4FF4806007F057
:10B1600077FA14208DF8000006218DF801100020D8
:10B170008DF8020001218DF80310684607F06DFA82
:10B1800032208DF8000005218DF8011000208DF887
:10B19000020001218DF8031000F06CBD1CB50121E7
:10B1A000042007F082F9032004214FF400628DF897
:10B1B00002008DF80310ADF800206946DFF8704CEE
:10B1C000204606F0CFF84FF48050ADF80000032180
:10B1D00004208DF802108DF803006946204606F021
:10B1E000C1F84FF4C040ADF80000032104208DF8F1
:10B1F00002108DF803006946204606F0B3F84FF4BC
:10B200008060ADF80000032104208DF802108DF855
:10B2100003006946204606F0A5F813BD1CB50121C0
:10B22000042007F042F9032010214FF480628DF8CA
:10B2300002008DF80310ADF800206946DFF8F04BEE
:10B24000204606F08FF84FF48061204606F0F7F8AC
:10B2500013BD80B5FFF7A2FFBDE80140DEE738B5BA
:10B2600001214C2007F021F901214FF4000007F0E3
:10B2700025F9684606F0D4F84FF48060ADF8000078
:10B28000032110208DF802108DF803006946DFF8C5
:10B29000A04BDFF8A05B204606F064F8684606F095
:10B2A000BFF80420ADF80000032148208DF80210FB
:10B2B0008DF803006946284606F054F80421284614
:10B2C00006F0B6F8DFF8841C087004200321ADF8FE
:10B2D00000008DF802108DF803006946284606F03C
:10B2E00041F8684606F09CF801204821ADF80000BE
:10B2F0008DF803102846694606F034F8684606F0D3
:10B300008FF84FF440704821ADF800008DF803101D
:10B310006946DFF8440C06F025F8684606F080F828
:10B32000A020ADF80000142103208DF803108DF843
:10B3300002006946284606F015F88021284606F0E6
:10B340007EF82021284606F07CF8684606F068F86A
:10B350004FF4E060ADF80000102103208DF80310D9
:10B360008DF802006946284605F0FCFF4FF4807115
:10B37000284606F064F84FF4C061284606F061F8EC
:10B38000DFF8F01D00200880684606F049F84020EC
:10B39000ADF80000042103208DF803108DF80200A1
:10B3A0006946204605F0DEFF4021204606F049F8B8
:10B3B00031BD10B588B0DFF86C2C1168B1FBF0F42A
:10B3C00001214FF4006007F070F80121412007F0DF
:10B3D0006CF80121DFF86C0C06F035F8684606F0D1
:10B3E0001FF84FF48040ADF80000182103208DF8BD
:10B3F00003108DF802006946DFF8380A05F0B2FF45
:10B4000005A804F0F2F8641EADF818400020240CE2
:10B41000ADF81440ADF8160005A9DFF8EC4D204654
:10B4200003F0BEFF01A804F0E9F86020ADF80400C5
:10B430000121ADF8061000200290BEE010B588B0E2
:10B44000DFF8E02B1168B1FBF0F40121022007F0D6
:10B4500035F80121112007F028F80121DFF8080C48
:10B4600005F0F1FF684605F0DBFF4FF4E070ADF842
:10B470000000182103208DF803108DF802006946A2
:10B48000DFF8E80B05F06EFF05A804F0AEF8641EC7
:10B49000ADF818400020240CADF81440ADF81600AB
:10B4A00005A9DFF8684D204603F07AFF01A804F0F3
:10B4B000A5F860200121ADF80400ADF806100020C9
:10B4C0000221ADF80A00ADF80C10204601A903F0E6
:10B4D000AEFF01A804F092F860200121ADF804004D
:10B4E000ADF8061000200221ADF80A00ADF80C10EE
:10B4F000204601A903F0DBFF01A804F07FF86020DB
:10B50000ADF8040001210020ADF80610ADF80A00E6
:10B51000ADF80C0001A9204604F001F801212046F5
:10B5200004F080F80821204604F09BF8082120460A
:10B5300004F09EF80821204604F0A2F84BE010B574
:10B5400088B0DFF8E02A1168B1FBF0F40121022095
:10B5500006F0B4FF0121112006F0A7FF0121DFF85A
:10B56000080B05F070FF4FF40070ADF800001821D3
:10B5700003208DF803108DF802006946DFF8EC0A0D
:10B5800005F0F0FE641EADF818400020240CADF864
:10B590001440ADF8160005A9DFF8704C204603F002
:10B5A000FFFE01A804F02AF86020ADF80400012194
:10B5B0000020ADF80610ADF80A00ADF80C0001A9A6
:10B5C000204603F0E5FF0121204604F02BF8082176
:10B5D000204604F05CF80121204604F036F80121F1
:10B5E000204604F015F808B010BD10B588B0DFF89B
:10B5F000342A1168B1FBF0F40121042006F05EFF4B
:10B600000121212006F051FF01214FF4805005F067
:10B610001AFF684605F004FF4FF44040ADF8000003
:10B62000182103208DF803108DF802006946DFF819
:10B63000080C05F097FE05A803F0D7FF641EADF8CF
:10B6400018400020240CADF81440ADF8160005A9F0
:10B65000DFF8C44C204603F0A3FE01A803F0CEFFA0
:10B6600060200121ADF80400ADF806100020022191
:10B67000ADF80A00ADF80C10204601A903F04FFF09
:10B6800001A803F0BBFF60200121ADF80400ADF874
:10B69000061000200221ADF80A00ADF80C1020467B
:10B6A00001A903F075FF0121204603F0BBFF08212B
:10B6B000204603F0E5FF8AE710B588B0DFF864297B
:10B6C0001168B1FBF0F401214FF4005006F0EDFEDB
:10B6D00001210C2006F0E9FE684605F0A1FE80205D
:10B6E000ADF80000182103208DF803108DF802003A
:10B6F0006946DFF83C0705F035FE684605F090FE28
:10B700000120ADF80000182103208DF803108DF8FA
:10B7100002006946DFF8400805F024FE05A803F0A2
:10B7200064FF641EADF818400020240CADF81440EE
:10B73000ADF8160005A9DFF8E44B204603F030FE13
:10B7400001A803F05BFF6020ADF804000021042095
:10B75000ADF80800ADF806100820ADF80A10ADF8F5
:10B760000E0001A9204603F062FE01A803F046FF87
:10B770006020ADF8040000210420ADF80800ADF809
:10B7800006100820ADF80A10ADF80E0001A92046F9
:10B7900003F08DFE0121204603F044FF08212046DE
:10B7A00003F05FFF0821204603F062FF13E780B536
:10B7B0004FF4E06006F04CFF00201C218DF80100E2
:10B7C0008DF80010012003218DF8030050E200B530
:10B7D00083B00121012006F071FE684603F005FFE9
:10B7E0001420ADF8040047210020ADF80010ADF89A
:10B7F0000600ADF8020069464FF0804003F0D0FD2E
:10B8000001214FF0804003F053FF012201214FF04E
:10B81000804003F012FF01214FF0804003F0F8FE5A
:10B820000021012006F04AFE03B000BD80B5FFF7FD
:10B83000CEFFFFF7BCFFBDE804400121012006F068
:10B840003DBE80B501214FF0804003F032FF00B3D0
:10B85000DFF8CC0A0178012903D10022027002F03E
:10B860003BF8DFF8C00B017801290BD1DFF8BC23CE
:10B87000D06C38B1DFF8B01BDFF8B00B0988008856
:10B8800002F041F8BDE8044001214FF0804003F090
:10B890001ABF01BD18B583B00121082006F00EFEC5
:10B8A000684603F0A2FE4720ADF8040040F2E731FD
:10B8B0000020ADF80010ADF80600ADF802006946B2
:10B8C000DFF86C4B204603F06BFD0121204603F0AE
:10B8D0009FFE01220121204603F0AFFE04B010BDFF
:10B8E0007CB5DFF84C4B0121204603F0E2FE012835
:10B8F00040F0F5800121204603F0E5FE0021CB4C0D
:10B9000004F1340050F8210030B104F1340252F84F
:10B910002100401E42F8210004F13400491C50F877
:10B92000210030B104F1340252F82100401E42F8E7
:10B930002100491C0E29E3DBE16E012904D1206FAF
:10B9400010B1216F491E216700F09EFCE08B401C66
:10B9500081B2142902DBFFF72AFB0020E083A07FDD
:10B96000C10740F1BC80B2490A68208E218E02F4E2
:10B97000C052228622EA00009143626FC30404D5BC
:10B9800000054CBF022004200243C80404D508056A
:10B990004CBF0420022002436089E18962670143B1
:10B9A00042D0218C491C218489B204293CDB00212E
:10B9B0002184E18C00291FBF491EE18489B200293E
:10B9C00032D1A18DE28D002914BF521C521EE28596
:10B9D000E18D4A0603D50022A2853222E28419B9FC
:10B9E0000122A2853222E28468B140F6B830DFF845
:10B9F00034261368B3FBF0F041434902090CDFF829
:10BA00000C0803F050FEE08970B1DFF81826E18DD4
:10BA1000136840F6B830B3FBF0F041434902090C1B
:10BA2000DFF8F40803F041FEA18900291CBFE0887B
:10BA300000282CD0608C401C608440F22D1180B214
:10BA4000884224DB00206084218DDFF8CC08DFF8F9
:10BA5000BC5781B9DFF8CC65326840F6B831B2FB2B
:10BA6000F1F189B203F01FFE306840F6B831B0FB47
:10BA7000F1F189B203E0002103F015FE0021284610
:10BA800003F00DFE208D401E8041C00F20852089CF
:10BA900028B3A08C401CA08440F2F51180B28842EB
:10BAA0000FDB608D01280ED10021A184618540F655
:10BAB000B832DFF870050168B1FBF2F1C903090C77
:10BAC00007E065280BDB608D48B900210120A184C7
:10BAD0006085BDE87C40DFF8340703F0E2BD73BD4C
:10BAE00030B591B00121012006F0D6FC01214FF4C0
:10BAF000057006F0DAFC4FF4004006F0C8FC68461A
:10BB000005F08EFC03200021ADF800008DF8031035
:10BB10006946C748DFF81C4905F024FC684605F073
:10BB20007FFC0C200021ADF800008DF80310694661
:10BB3000DFF8380505F016FC204606F0DFFD01A809
:10BB400006F023FE01218DF808108DF80910002061
:10BB50004FF4602103910190042104908DF814109A
:10BB6000204601A906F0F3FD022301220C21204604
:10BB700006F04AFE022302220021204606F044FE7F
:10BB8000022303220121204606F03EFE0223042266
:10BB90000D21204606F038FE0121204606F007FE62
:10BBA0000121204606F0FAFD204606F012FE20464E
:10BBB00006F014FE0028FAD1204606F012FE2046B8
:10BBC00006F014FE0028FAD1DFF86C58284606F07B
:10BBD0008DFE06A806F00DFFDFF86008DFF860189C
:10BBE000FCE010B506F042FFDFF85828DFF85838BF
:10BBF000DFF8584806F048FF07F018F881B2002235
:10BC0000204606F049FE0A21204606F048FEDFF8ED
:10BC10004018204606F03AFE2046BDE810400122BA
:10BC20004FF4A07106F0CCBD0000000040160020CB
:10BC30000818014080B54FF4A06006F009FD01200E
:10BC40002F218DF803008DF801008DF802008DF88A
:10BC500000100FE080B54FF4A06006F0F9FC2F2132
:10BC60008DF8001000208DF8030001218DF80110DF
:10BC70008DF80210684606F0F0FC01BD38B5DFF81B
:10BC8000CC574FF4A071284606F01DFE30B3DFF804
:10BC9000C447012020800121284606F013FE4FF4FE
:10BCA000A071284606F01DFEFFF7D4FF4FF4007187
:10BCB000604805F0C6FBDFF8BC14002008800A20AD
:10BCC00001F012FB696ADFF890070288914203D203
:10BCD0000088DFF8881708800021218031BD00002E
:10BCE000080C014030B591B00121022006F0D4FBD0
:10BCF000012148F2140006F0D8FB4FF4004006F092
:10BD0000C6FB684605F08CFB0C200021ADF8000056
:10BD10008DF8031069464648DFF8304705F022FBEE
:10BD2000684605F07DFB03200021ADF800008DF88A
:10BD300003106946CD4805F015FB204606F0DEFCF1
:10BD400001A806F022FD01218DF808108DF80910D8
:10BD500000204FF4602103910190042104908DF89C
:10BD60001410204601A906F0F2FC022301220A2148
:10BD7000204606F049FD022302220B21204606F050
:10BD800043FD022303220321204606F03DFD02234A
:10BD900004220221204606F037FD0121204606F04C
:10BDA00006FD0121204606F0F9FC204606F011FDB3
:10BDB000204606F013FD0028FAD1204606F011FDBA
:10BDC000204606F013FD0028FAD1DFF894562846E5
:10BDD00006F08CFDDFF88C06DFF87C1606900791E4
:10BDE00000200421089009910A9080214FF480706E
:10BDF0000B910C904FF4806120200D910E904FF428
:10BE0000005100200F91109006A9284606F0D6FD9B
:10BE10000121284606F0FAFD01220221284606F0FB
:10BE200001FE0121204606F0E6FC11B030BD000005
:10BE3000000801400018014010B586B0012141F210
:10BE40002D0006F032FB0121DFF81C06424C05F004
:10BE5000FAFA0121012005F0F6FA684605F0E0FA49
:10BE60002820ADF80000182103208DF803108DF86C
:10BE700002006946204605F075FA684605F0D0FADA
:10BE800010204821ADF800008DF8031020466946C7
:10BE900005F068FA684605F0C3FA4FF40040ADF8C3
:10BEA0000000102103208DF803108DF80200694670
:10BEB000DFF8B845204605F055FA4FF4004120461A
:10BEC00005F0BDFA684605F0ABFA8020ADF8000039
:10BED000102103208DF803108DF802006946D64C1E
:10BEE000204605F03FFA8021204605F0A8FA684672
:10BEF00005F096FA40204821ADF800008DF80310B7
:10BF00002046694605F02EFA4021204605F099FAB0
:10BF100001A806F0C5FE00204FF48271ADF80400C0
:10BF2000ADF806100290ADF80C004FF40071082037
:10BF3000ADF80E10ADF8100000210720ADF812107A
:10BF4000ADF8140001A9DFF8284561E03D19002093
:10BF5000DFF81C256AE00000000C014010B586B037
:10BF60000121082006F0A1FA01214FF4804006F0DB
:10BF7000A5FA684605F054FA4FF42040ADF80000E9
:10BF8000032118208DF802108DF803006946DFF8B0
:10BF9000E444204605F0E6F94FF480404821ADF82E
:10BFA00000008DF803102046694605F0DBF94FF4D8
:10BFB0008050ADF80000032110208DF802108DF89C
:10BFC00003006946204605F0CDF94FF48051204624
:10BFD00005F035FA01A806F063FE4FF482710020E7
:10BFE000ADF80610ADF80400ADF808000221ADF878
:10BFF0000A100120ADF80C004FF40071ADF80E10DE
:10C00000002004900720ADF8140001A9DFF868446F
:10C01000204606F029FE0121204606F04DFE06B01E
:10C0200010BD000050180020DFF84C2413884FF694
:10C03000C7710B40138011880843108001211046FE
:10C0400006F03ABEC000160080B50121402006F07F
:10C050002CFA48204FF4C0528DF80300ADF80020B0
:10C060006946DFF81804E3E0000C1A0000100140F4
:10C070001CB5010010D1704C4FF40071204605F042
:10C08000E0F94FF40061204605F0DBF94FF48061E0
:10C09000204605F0D6F91FE001280BD1664C4FF47D
:10C0A0008061204605F0CDF94FF40071204605F07F
:10C0B000C6F90CE0022814D15F4C4FF48061204691
:10C0C00005F0BFF94FF40071204605F0BAF94FF4BE
:10C0D0000061204605F0B3F9BDE816401E2001F0CE
:10C0E00003B9032821D1544C4FF40071204605F0C8
:10C0F000A8F94FF48061204605F0A1F94FF40061E2
:10C10000204605F09CF91E2001F0EEF84FF4007176
:10C11000204605F094F91E2001F0E6F82046BDE81F
:10C120001C404FF4007105F08CB9042821D1424C19
:10C130004FF40071204605F084F94FF480612046E9
:10C1400005F07DF94FF40061204605F078F91E20D6
:10C1500001F0CAF84FF48061204605F072F91E2004
:10C1600001F0C2F82046BDE81C404FF4806105F0A4
:10C1700066B913BDFE1600201CB54FF44060ADF843
:10C180000000102103208DF803108DF8020069468D
:10C19000294C204605F0E6F84FF44061204605F0B2
:10C1A00050F913BD38B50446684605F039F94FF427
:10C1B0004061ADF80010042003218DF803008DF8D4
:10C1C000021069461C4D284605F0CCF8684605F07B
:10C1D00027F94FF40070ADF80000102103208DF80E
:10C1E00003108DF802006946284605F0BBF84FF4AD
:10C1F0006061284605F025F9012C04BF40F2145077
:10C2000001F072F831BD0000002C01400004004034
:10C2100080B5684605F004F94FF46061ADF8001090
:10C22000042003218DF803008DF8021069460248AE
:10C2300005F098F801BD00000014014010B5044657
:10C2400045F2555006F050FD032006F050FD04EB7A
:10C2500084008003000C06F04DFD06F04EFDBDE8A5
:10C26000104006F04FBD06F048BD30B4874B1C8827
:10C27000012C07D0012500241D809D80DC80588082
:10C2800019815A8130BC704738B5804C61880029CB
:10C2900041D0208838B900216180E080BDE8344079
:10C2A000774803F002BAA288012A24D17548764A59
:10C2B00000881368724D00281DBFC0F1060000EB16
:10C2C0008001890000214FF47A60B3FBF0F0414314
:10C2D0004902090C284603F0E8F9E0882189401C4E
:10C2E000E08080B2814216D20021284603F0DDF9B9
:10C2F0000020606031BDE0886289401CE08080B22F
:10C30000824208D20120A0800020E080481E608088
:10C3100080B200B9208031BD0008004000340140E7
:10C32000EC1600207CB50446A0070E46584D15D5E6
:10C330000020012EE88002D0022E08D00AE0524AE6
:10C34000136840F6B831B3FBF1F189B203E0012282
:10C35000EA8003E000214A4803F0A1F9E00716D57E
:10C360000020012E288102D0022E09D00BE0464881
:10C37000016840F6B832B1FBF2F1C903090C03E0E1
:10C380000120288103E000213D4803F08AF960077D
:10C3900015D50020012E688102D0022E08D00AE0B7
:10C3A0003948016840F6B832B1FBF2F189B203E0D6
:10C3B0000120688103E00021314803F074F920076F
:10C3C00015D50020012EA88102D0022E08D00AE047
:10C3D0002D48016840F6B832B1FBF2F189B203E0B2
:10C3E0000120A88103E000212A4803F05CF9E0065F
:10C3F00017D50020012EE88102D0022E08D00AE0D5
:10C400002148016840F6B832B1FBF2F189B203E08D
:10C410000120E88173BD0021BDE87C401D4803F088
:10C4200044B973BDD74B0020C2490020C049002049
:10C43000000C004000240140080002404C24014050
:10C44000544B0020CDCCCCCCCCCCF43F003C0140B4
:10C4500000028000CE4B00205C4B0020CC4B002023
:10C46000580402404C3C01400002300000080140EA
:10C4700000300140000C014000380040001801402D
:10C48000000400403619002050180020284B0020DE
:10C49000401600200008004038B504460D4606F05E
:10C4A0005AFC6D06280E06F08DFC002006F08AFC72
:10C4B000204606F087FCBDE8314006F06BBC2DE954
:10C4C000F04180460E461746002503B14025069CE4
:10C4D00006F041FC7F06380E06F074FC284606F094
:10C4E00071FCF0B238B1761E18F8010B012C04BFB4
:10C4F000C043C0B2F3E7BDE8F04106F04BBC2DE904
:10C50000F84306460846CF085B18890800EB5171CE
:10C51000C908B0EBC100DBB218BF7F1C990803EB60
:10C520005175ED08B3EBC500099CDDF8208018BFFC
:10C530006D1C9146EDB234E006F00DFC782006F05B
:10C5400041FC002006F03EFCA7F15000C0B206F00E
:10C5500039FC06F01FFC06F0FEFB782006F032FCEA
:10C56000002006F02FFC300940F0100006F02AFCF5
:10C5700006F010FC06F0EFFB782006F023FC00200C
:10C5800006F020FC06F00F0006F01CFC06F002FC92
:10C59000009401233C2249464046FFF790FFC844DF
:10C5A0007F1CF8B2A842C7DB4046BDE8F2831CB549
:10C5B0000121402005F079FF1020032102228DF88F
:10C5C00007008DF80610ADF8042001A94A4C20465A
:10C5D00004F0C8FE06F0ACFB0221204604F031FF57
:10C5E000022000F081FE0221204604F028FF0220F4
:10C5F00000F07AFE0020009000233C2219210FF663
:10C60000604060E080B5A2B0802102A804F012FE74
:10C6100002AA002000920190082380220021FFF747
:10C620006EFF02A9002000910190082380220821BA
:10C63000FFF765FF02A900200091019008238022E6
:10C640001021FFF75CFF02A9002000910190082350
:10C6500080221821FFF753FF23B000BDE0B5002072
:10C660000FF6043101900091102360220821102060
:10C67000A0E01CB53C21B020FFF70EFF3C211420A8
:10C68000FFF70AFF3C210720FFF706FF002000907C
:10C6900001230FF694343C220C212046FFF70FFFB4
:10C6A0003C21B120FFF7F8FE3C211420FFF7F4FEF7
:10C6B0003C210720FFF7F0FE0020009001233C22E0
:10C6C0000C2104F10C00FFF7FAFE13BD3EB5044641
:10C6D000002001901023094D0095082220460834BF
:10C6E000FFF70DFFE0B203B0BDE8304001A210211A
:10C6F00082E000004300000000180140AC17002059
:10C700002DE9F041AEB00546884614460DF15800BB
:10C7100063A1602204F08CFC0DF1080078A1502286
:10C7200004F086FC00260FE0002016A9019001EB22
:10C730000611009105EBC600102308224146C0B245
:10C74000FFF7DDFE761CB6B2B442EDDA641CA0B28F
:10C75000A4B2062C15DA02A905EBC00501EB0017FF
:10C76000C4F10604002001901023A7F110000090EE
:10C7700008224146E8B2FFF7C2FE10370835641EB2
:10C78000F0D12EB0BDE8F081E0B500220FF6C02355
:10C790000CE0E0B500220FF6A823019200930822D6
:10C7A000102307E0E0B500220FF6AC2301920093BE
:10C7B00006220823FFF7A3FE03B000BDFEB5054621
:10C7C0000E46174662A411E017F8010B002120382D
:10C7D0000191C0B200EB400104EB4101009108233C
:10C7E00006223146E8B2FFF78AFEAD1D38780028F0
:10C7F000EAD103B0F0BD00002DE9FC4188460546B2
:10C80000174608F108041BE017F8010BDAA12038DD
:10C81000000601EB10560020019000960823082224
:10C820004146E8B2FFF76BFE00200190082306F1B5
:10C83000080000900822E1B2E8B2FFF760FE083578
:10C8400038780028E0D1BDE8F38100002DE9FC41F3
:10C8500088460546174608F108041BE017F8010B47
:10C86000C5A12038000601EB10560120019000966A
:10C87000082308224146E8B2FFF741FE012001905B
:10C88000082306F1080000900822E1B2E8B2FFF7A1
:10C8900036FE083538780028E0D1BDE8F381000085
:10C8A0000000000000000000808080808080808088
:10C8B0000000000000000000F0F0F0F0F0F0F0F0F8
:10C8C0000000000000000000FEFEFEFEFEFEFEFE78
:10C8D000C0C0C0C0C0C0C0C0FFFFFFFFFFFFFFFF60
:10C8E000F8F8F8F8F8F8F8F8FFFFFFFFFFFFFFFF90
:10C8F000FFFFFFFFFFFFFFFFFFFFFFFFFFFFFFFF48
:10C900000000000000000000F0909090909090F0E7
:10C910000000000000000000FE828282828282FE0F
:10C92000C0404040404040C0FF808080808080FF09
:10C93000F8080808080808F8FF808080808080FFD9
:10C94000FF010101010101FFFF808080808080FFE5
:10C950000000000000000000002F000000000700A1
:10C96000070000147F147F1400242A7F2A1200621B
:10C9700064081323003649552250000005030000C7
:10C9800000001C224100000041221C000014083E4F
:10C9900008140008083E0808000000A06000000815
:10C9A0000808080800006060000000201008040269
:10C9B000003E5149453E0000427F40000042615127
:10C9C0004946002141454B31001814127F100027C1
:10C9D00045454539003C4A49493000017109050384
:10C9E00000364949493600064949291E00003636B5
:10C9F0000000000056360000000814224100001418
:10CA000014141414000041221408000201510906F4
:10CA100000324959513E007C1211127C007F494975
:10CA20004936003E41414122007F4141221C007FA6
:10CA300049494941007F09090901003E4149497AB4
:10CA4000007F0808087F0000417F4100002040412E
:10CA50003F01007F08142241007F40404040007F9A
:10CA6000020C027F007F0408107F003E4141413EDE
:10CA7000007F09090906003E4151215E007F091926
:10CA800029460046494949310001017F0101003F23
:10CA90004040403F001F2040201F003F4038403FA3
:10CAA0000063140814630007087008070061514907
:10CAB000454300007F41410000552A552A5500009A
:10CAC00041417F0000040201020400404040404018
:10CAD000000001020400002054545478007F4844B0
:10CAE000443800384444442000384444487F0038E7
:10CAF0005454541800087E0901020018A4A4A47C10
:10CB0000007F080404780000447D400000408084D9
:10CB10007D00007F102844000000417F4000007C21
:10CB200004180478007C080404780038444444382D
:10CB300000FC242424180018242418FC007C080479
:10CB4000040800485454542000043F444020003C52
:10CB50004040207C001C2040201C003C4030403CD9
:10CB6000004428102844001CA0A0A07C0044645469
:10CB70004C441414141414140000000000000000AD
:10CB80000000000000000000000000FC00000000A9
:10CB9000000000330000000000003C00003C0000EA
:10CBA00000000000000000000040C070CC704C008D
:10CBB000320E330E03020000384484FE8404180051
:10CBC0000C10103F10110E0070884438C838060051
:10CBD00000300C031C22110E0078844438808080C1
:10CBE0001E2120231C2827100000003C000000000C
:10CBF00000000000000000000000C0300804000039
:10CC000000001F60800000000000040830C0000029
:10CC100000000080601F000000008850FC50880069
:10CC20000000000001000000000000E00000000023
:10CC30000202023F020202000000000000000000A9
:10CC4000000000B0700000000000000000000000C4
:10CC500000000404040400000000000000000000C4
:10CC6000000000303000000000000000E01C000068
:10CC7000000038070000000000F008040408F0007D
:10CC8000000F102020100F0000000008FC00000022
:10CC9000000000203F2000000018040404887000F9
:10CCA000003028242221300000080484C438000009
:10CCB0000020202020110E000000806018FC0000E1
:10CCC00000060504043F040000007C444484040082
:10CCD0000020202020100F0000E090484484040031
:10CCE000000F102020100F00001C040404E41C009E
:10CCF00000000038070000000030488484483000FD
:10CD0000000E112020110E0000F008040408F000AD
:10CD10000020212212090700000000C0C00000000E
:10CD20000000003030000000000000C0C000000023
:10CD3000000000B070000000000000008080400093
:10CD400000020505080810008080808080808080B7
:10CD50000808080808080808004080800000000053
:10CD6000001008080505020000380404844830005B
:10CD70000000003601000000F008C42424C428F09C
:10CD80000F102324242314170000E01CE0000000EF
:10CD9000203C2302233C200004FC8484844830008F
:10CDA000203F202020110E00F008040404081C007D
:10CDB0000F1020202020100004FC04040418E000C0
:10CDC000203F20202018070004FC848484C41C0019
:10CDD000203F20202021380004FC848484C41C00CF
:10CDE000203F200000010000F0080404081C00009F
:10CDF0000F102020211F010004FC848084FC04000B
:10CE0000203F2000203F2000000004FC0400000020
:10CE10000000203F2000000000000004FC0400008F
:10CE2000001020201F00000004FCC420140C04008B
:10CE3000203F20032C30200004FC040000000000F0
:10CE4000203F20202030080004FCE000E0FC04002B
:10CE5000203F200F203F200004FC30C004FC0400D1
:10CE6000203F20030C3F0000E01804040418E000F9
:10CE7000071820202018070004FC04040488700010
:10CE8000203F210101000000E01804040418E00024
:10CE9000071820206098870004FC040404887000B0
:10CEA000203F21030D3020003048848404081C00FA
:10CEB0003810202021120C000C0404FC04040C0087
:10CEC0000000203F2000000004FC040004FC0400DB
:10CED000001F2020201F0000047C8400847C0400AC
:10CEE000000007380700000004FC04F004FC040004
:10CEF00000033C033C030000041C6480641C040029
:10CF00002038260126382000041CE400E41C04001C
:10CF10000000203F200000001C04048444340C0066
:10CF2000302C2221202038000000FC0404000000E6
:10CF30000000FF808000000000001CE000000000F6
:10CF400000000000073800000000000404FC00009E
:10CF50000000008080FF00000000000000000000D2
:10CF600006010103060404030000000000000000A5
:10CF700080808080808080800000040C0810000089
:10CF800000000000000000000080404040800000E1
:10CF900000192422123F20000004FC4040800000C1
:10CFA00000001F2020100F00000080404040800043
:10CFB000000F1020202010000000804044FC0000E2
:10CFC000000F1020201F2000000080404080000043
:10CFD000000F122222221300004040F844440800AF
:10CFE0000000203F200000000080404040804000C2
:10CFF0000053ACA4A4A340000004FC404080000007
:10D0000000203F00003F200000000040EC00000036
:10D01000000000203F20000000000080CC00000045
:10D02000004080807F0000000004FC0040C0400001
:10D0300000203F260930200000000004FC00000012
:10D04000000000203F200000004080408040800021
:10D0500000203F003F003F20004080404080000013
:10D0600000203F00003F2000000080404080000082
:10D07000000F102020100F00004080404080000072
:10D080000080FFA020100F00000080404080400082
:10D09000000F1020A0FF8000000040C08040400032
:10D0A0000000203F20000000008040404080C00081
:10D0B0000039122224241900004040F040400000B2
:10D0C0000000001F202010000040C00040C00000F1
:10D0D00000001F20201F20000040C0400040C04032
:10D0E0000000010E300E010040C0400040C0400072
:10D0F00000073807380700000040C00000C04000AB
:10D1000000203906063920000040C0400040C040E1
:10D11000008081463806010000C040404040C00009
:10D120000030282422213000000000F00800000018
:10D130000000027D80000000000000FC00000000F4
:10D140000000003F0000000000000008F0000000A8
:10D15000000000807D0200000000000000000000D0
:10D1600006010103060404030000000000000000A3
:10D1700000000000000000000000000000000000AF
:10D1800080C0E0F0F8FCFEFEFCF8F0E0C080C0E0FB
:10D19000F0F8FCFEFEFEFC783080C0C000189CCE8B
:10D1A000E6F0F8FCFEFEFCF8F0E0C0E0F0F87C00F1
:10D1B000000000000000000000000000000000006F
:10D1C000000000000000000000000000000000005F
:10D1D0000000000000000000000000000000001F30
:10D1E0000F07030103070F1F3F7F7F3F1F0F070339
:10D1F0000103070703191C0E6773391C0E0703018F
:10D2000003070F1F3F7F7F3F1F0F07030100000031
:10D21000000000000000000000000000000000000E
:10D22000000000000000000000E03824322A2A320A
:10D230002438E00000070404040404040404070084
:10D2400000FCF8F0E0C08000001F0F0703010000A1
:10D25000007F3E1C080000002C36FBFB362C000033
:10D26000AE001040B081FFA0A6A81FC8D300D58093
:10D27000D922DA12DB408D14AF0000000CB430B5B7
:10D2800083B0044606A802900A4600250194009542
:10D2900002AB01A9084878441E3005F0E1FD019970
:10D2A0000D7000284EBF04460198041B204603B0B1
:10D2B00030BC5DF80CFB00BFE33C000010B56FF024
:10D2C000040005F0FDF9144A144913681448B3FB2F
:10D2D000F0F008804FF47A700C8844434C8010BD05
:10D2E0000E4B104A198802E00C4B0E4A59884843ED
:10D2F000506000209060106840F0010010601068DD
:10D3000000F001100128FAD0002110684008400008
:10D310001060916070470000501800209C4B002066
:10D3200000127A0010E000E082B00021ADF8001099
:10D3300001900198411E019150B10320ADF8000009
:10D34000BDF80000411E0028ADF80010F8D1F0E74C
:10D3500002B0704782B00021ADF80010019041F298
:10D3600088310198421E019248B1ADF80010BDF815
:10D370000000421E0028ADF80020F8D1F1E702B00D
:10D38000704730B4DFF83C3894B018685C689B682C
:10D390000022002180B305042D0E0195C1B2009139
:10D3A0000502000E03902D0EE0B2049002952004B9
:10D3B000000E05901902D8B20890090E1804000E4C
:10D3C0001B0E250209900A910B932D0E240E069533
:10D3D00007946946032083230C6803FB02424C68D0
:10D3E00003FB02428C6803FB0242CC681031401EF2
:10D3F00003FB0242F0D1114614B030BC084670471E
:10D4000038B4DFF8AC4B635C04EB810523B95043BF
:10D4100068600125655405E06968401891FBF2F1E8
:10D42000401A686054E02DE9F84F81468E1C0020B8
:10D43000B2B2CAB34C46DFF8782BDFF88C8702EB28
:10D4400084058B4641F288378A46DFF8642B38F82A
:10D4500014106B6902EB8902CB18D2F824C0DFF8F4
:10D46000502B6B61614528BF8C4602EB8902C5F8E1
:10D4700024C0526B914288BF11466963B1B2012941
:10D480000ED1686A1B1A686B1B1A6B6152464946BB
:10D49000B3FBFBF0FFF7B4FF002169616F636962C2
:10D4A000761EB1B20029D0D1BDE8F28F38B4DFF8D2
:10D4B000044B635C04EB810523B95043686201258A
:10D4C000655405E0696A401891FBF2F1401A686200
:10D4D00090FBF2F032BC70472DE9F84F81468E1C6C
:10D4E0000020B2B2CAB34C46DFF8C82ADFF8C88AB7
:10D4F00002EB84058B4641F288378A46DFF8B42A6E
:10D5000038F814106B6B02EB8902CB18D2F844C0C8
:10D51000DFF8A02A6B63614528BF8C4602EB8902C5
:10D52000C5F844C0526D914288BF11466965B1B2D9
:10D5300001290ED1686C1B1A686D1B1A6B63524669
:10D540004946B3FBFBF0FFF7B1FF002169636F654C
:10D550006964761EB1B20029D0D1BDE8F28F38B52A
:10D56000DFF8C04A656908210020FFF75CFF451914
:10D570006561A5896D1CA8B2102807DB60690109E7
:10D58000A180002501F0C6FA20806561A5810821EF
:10D59000A5690120FFF747FF4519A561E5896D1CC5
:10D5A000A8B2042807DBA0698108E180002501F00A
:10D5B000CAFA6080A561E5810821656A0020FFF74D
:10D5C0008BFF4519208ADFF8EC296562401C81B287
:10D5D00010290DDB29460B0923810020DFF8683A6A
:10D5E0001D88694342F21075B1FBF5F1118260624A
:10D5F0002082DFF8C4094088956C936BC318A84259
:10D6000028BF054695649363956DA84288BF284658
:10D610009065608A401C608280B20A282FDB00205F
:10D620006082906C1B1A906D1B1A9363DB086381F8
:10D63000507820B9DB0001209362507007E0906AB7
:10D640001B18811000EB5170A3EBE00393620021E3
:10D65000916391649810DFF8F04903EB507341F245
:10D6600088309065DB1061884B4364204343B3FBF3
:10D67000F0F34FF47A75B3FBF5F53E35558231BDC5
:10D6800078B50446DFF8C409DFF8C4590278297870
:10D6900089B0914202BF69784278914213D1A9784A
:10D6A0008278914202BFE978C278914202BF29791B
:10D6B0000079814207D10F221EA1204603F0A8FC69
:10D6C00000200AB070BD28791EA6694604F0D0FC7F
:10D6D0006A469DA1204604F020FDE878694604F0E2
:10D6E000C7FC6B4622463146204604F016FDA8785A
:10D6F000694604F0BDFC6B4622463146204604F0E4
:10D700000CFD6878694604F0B3FC6B46224631464E
:10D71000204604F002FD2878694604F0A9FC6B4617
:10D720004FEA040209A1204604F0F7FC01200AB0E8
:10D7300070BD00002D2D3A2D2D3A2D2D3A2D2D3A6C
:10D740002D2D0000257325733A00000025732573E5
:10D7500000000000F0B505460E4693B014461F4683
:10D760000421304602F012F821210AA803F062FDDC
:10D77000212101A803F05EFD4FF47A712846B0FB29
:10D78000F1F080B201214FF0640C009123B2B0FBA4
:10D79000FCFC1FFA8CFC64240AAA022104FB1C0076
:10D7A00004F05FFD002000904FF47A74B5FBF4F4B0
:10D7B000A4B24FF47A7000FB14553BB201AA0321C6
:10D7C000284604F04EFD01AB0DF1280200A140E017
:10D7D00025732E2573560000F0B505460E4693B00E
:10D7E00014461F460421304601F0D0FF21210AA82B
:10D7F00003F020FD212101A803F01CFD4FF47A71F4
:10D800002846B0FBF1F080B201214FF0640C00918A
:10D8100023B2B0FBFCFC1FFA8CFC64240AAA022190
:10D8200004FB1C0004F01DFD002000904FF47A74EE
:10D83000B5FBF4F4A4B24FF47A7000FB14553BB27C
:10D8400001AA0321284604F00CFD01AB0DF12802CA
:10D8500002A1304604F061FC13B0F0BD25732E2503
:10D86000734100002DE9F84193B005460E46144679
:10D870001F4621210AA803F0DDFC212101A803F0A5
:10D88000D9FCDFF8F80AB5FBF0F80120009023B2CC
:10D890006420B8FBF0F064240AAA022104FB108083
:10D8A00004F0DFFC002100913BB2DFF8D00A00FB5E
:10D8B000185501AA0621284604F0D3FC01AB0AAA98
:10D8C00003A1304604F029FC14B0BDE8F08100004B
:10D8D00025732E2573570000DFF8441A088C0028A2
:10D8E00000D1704730B40022DFF8383ADFF8904AB0
:10D8F000002524F8125023F81250521C8242F8DB03
:10D900000D8430BC704730B4DFF8142A138C1C46E9
:10D9100040F2FF35AC4209DADFF8645A25F814000A
:10D920005B1CDFF8000A20F81410138430BC704729
:10D930000246002021B112F8013B5840491EFAD19D
:10D9400080F08800C0B2704725733A00F0B40A46F0
:10D950004FF47A731C460146B1FBF3F5B1FBF3F1CA
:10D9600089B204FB1100642381B2B1FBF3F6ADB2BE
:10D97000B6B280B26421034606EB0516B3FBF1F3A1
:10D980009BB201FB1300DFF898399E700A2687B21C
:10D99000B7FBF6F60A2580B2B0FBF5F006EB86057C
:10D9A00042F21076B2FBF6F6B6B2A7EB450742F2AA
:10D9B0001075B2FBF5F51D7180B2FFB207EB0017D1
:10D9C00042F2107000FB162290B292B2B0FBF4F655
:10D9D000B0FBF4F080B204FB102290B292B2B0FB24
:10D9E000F1F01446B6B280B2B4FBF1F4A4B200EB8D
:10D9F000061001FB142258710A2491B20A2092B237
:10DA0000B2FBF0F0B2FBF4F202EB8205A1EB4501B0
:10DA100080B2C9B2DF7001EB00119971F0BC7047A0
:10DA200018B589B002460C46DFF8241C6846FFF79B
:10DA300025FC9DF801109DF8000004F0B5FA207057
:10DA40009DF803109DF8020004F0AEFA60709DF896
:10DA500005109DF8040004F0A7FAA0709DF80710C7
:10DA60009DF8060004F0A0FAE0700AB010BD30B4D2
:10DA7000C410CA1001EB127300EB14721211D4B26D
:10DA8000A0EB0210C0B264221B114FF47A75504310
:10DA900005FB0400DAB202EB8204A1EB031100EBF8
:10DAA000440030BCC9B208187047F0B4CD1001EB87
:10DAB00015752D11EFB2D31042F21076A1EB0511BE
:10DAC00002EB13744FF47A735F4306FB0070C9B224
:10DAD0006423241103FB0100E1B201EB8103A2EBFB
