:020000040800F2
:10400000703800206995000825950008279500085C
:10401000299500082B9500082D9500080000000048
:104020000000000000000000000000002F950008C4
:104030003195000800000000339500083595000810
:10404000A9950008AD950008B1950008B595000840
:10405000B9950008BD950008C1950008C5950008F0
:10406000C9950008CD950008D1950008D5950008A0
:10407000D9950008DD950008E1950008E595000850
:10408000E9950008ED950008F1950008F595000800
:1040900037950008FD950008019600080596000870
:1040A000099600080D96000811960008159600085C
:1040B000357E00081D960008219600082596000808
:1040C000299600082D9600083196000835960008BC
:1040D000399600083D96000841960008459600086C
:1040E000499600084D96000851960008559600081C
:1040F000599600085D9600086196000865960008CC
:10410000699600086D96000871960008759600087B
:10411000799600087D96000881960008859600082B
:10412000899600088D9600089196000895960008DB
:10413000704738B504460D46DFF8140800F0C2FD9C
:1041400005281CBF342000F09CFD29462046BDE810
:10415000344000F07DBD10B50446A0050DD1DFF858
:10416000F00700F0AFFD05281CBF342000F089FDEA
:104170002046BDE8104000F04FBD10BD00B583B033
:10418000DFF8D00700A90CC80CC10A22002100A842
:1041900000F044FE64214843DFF8BC1708600120AA
:1041A0000EBD70B50024DFF8B457DFF8B4074269DC
:1041B00061A1284600F05CFE00F01CFDDFF894676A
:1041C0003046FFF7C8FF35F8021B3019FFF7B1FF83
:1041D000042803D000F018FD042070BDA41CB4F521
:1041E000007FF0D30CE310B5DFF8744719B1022952
:1041F0000FD00AD310BD01784078302806BF31298E
:104200000A20A1F13000207410BD007830386074AD
:1042100010BD0A22002100F001FE606110BD10B542
:10422000DFF83C4729B102291BD00FD3032921D045
:104230000AE04178302902D10078312826D1A1F155
:104240003100C0B2092821D3012010BD4178313995
:10425000C9B209291AD300783038C0B20528F3D37F
:1042600014E00A22002100F0D9FD80B26169884281
:10427000EAD00BE021780278914202BF617842785F
:10428000914202BFA17880788142DDD0002010BD2C
:1042900010B54FF41852DFF8CC16DFF8CC0600F05A
:1042A00011FEDFF8C806002100220B460C461EC096
:1042B00010BD10B5002208E0135CA3F16104E4B264
:1042C0001A2C3CBF203B1354521C8A42F4DB10BD15
:1042D0002DE9FF4180460E46DFF88C4604F2004788
:1042E00010250B22394601A800F0DCFD0B2101A8A6
:1042F000FFF7DFFF0B22414601A800F013FE98B93B
:1043000007F11C00017831704178717007F11A00D3
:1043100000A902780A7042784A70BDF8000004EBE8
:10432000402000F5007003E020376D1ED9D1002039
:1043300004B0BDE8F0810000256400002DE9F14FD4
:10434000E4B088464FF0000900248C2141A800F019
:104350001BFEDFF81C664FF400726499304600F0D3
:10436000A1FD4F460025232041A900FB071A05E0C7
:10437000232D3CBF05F80A006D1C641C304600F07C
:1043800007FE844206D2A05D0D2802BFA11949781C
:104390000A29EDD105F80A90A41C7F1C042FE1D353
:1043A0000027DFF8C85506EB87000090D0F80042E0
:1043B000204600F0EDFD05EB870A232141AA01FB11
:1043C000072B02462146584600F0ACFD00284CD190
:1043D0000098D0F8000200F0DBFD044604E020283D
:1043E00018BF3D2841D1641C584600F0D1FD8442DD
:1043F0003BD214F80B00A0F13001C9B20A2901D355
:104400002E28ECD15C44F9B22046FFF708FF60B3D8
:10441000287C18B9F9B22046FFF7E5FE37B9DFF876
:104420004005027C0FF2685141A81BE0012F07D123
:10443000DFF82C05427C0FF2685149A8C01C11E03E
:10444000022F07D1DFF8180542690FF25C510DF514
:10445000A57007E0032F1BD1DFF804250FF2585198
:104460005BA8401C00F004FD12E0584600F090FDEF
:104470000146584600F0A8FDDAF81440204600F046
:1044800087FD02462146584600F00CFD4FF0010919
:104490007F1C042F87D3FE2101A800F075FD0026A4
:1044A000232041A900FB061101A800F090FD05EBB7
:1044B0008600416A01A800F08AFD761C042EEFD325
:1044C00001A800F065FDDFF8A01401EB481282F8A6
:1044D0001C04000A82F81D04649801F58061401AEA
:1044E00000F50070411200EB9150801201214155FE
:1044F00001A800F04DFD024601A9649800F0D2FC2D
:10450000484665B0BDE8F08F2DE9F8430020ADF8CE
:1045100000000FF2AC4600AA0DF102013046FFF791
:10452000D7FEDFF84444DFF8448450B1BDF80010F2
:10453000FFF704FF98F81010084343D000F01CF96F
:1045400040E04FF41851204600F01EFD04F5806055
:104550000ECE0EC00FF2746606223146204600F0E1
:10456000B1FC0622314604F5007000F0ABFC0025DA
:10457000002608EB8607D7F81490484600F008FD9F
:1045800000F02EF8786900F003FD4519D7F8249063
:10459000484600F0FDFC00F023F8786A00F0F8FCD3
:1045A0004519761C042EE4D3002084F80B04DFF8B0
:1045B000C403C4F8160404F2164002210171857187
:1045C00000F003F942F60C0001190022CA760A77BE
:1045D0004A760251002088600861C860BDE8F28315
:1045E00002464946281900F5C06000F05BBC2DE981
:1045F000F04186B004460E46DFF86C73B6F5805F76
:104600000AD14FF40072394600F08CFC002871D0BA
:1046100000F075F838460EE0B6F5205F0ED107F5CC
:1046200000754FF40072294600F07CFC002861D030
:1046300000F065F8284600F035FC5BE0CB4DB6F5A0
:10464000804F30D107F200464FF40072314600F03F
:1046500069FC00284ED000F052F8304600F022FCF1
:104660000120687010260FF258370C22214600A84E
:1046700000F018FC0B22394600A800F053FC40B9AA
:10468000A07E688201206874207F40B101202870DC
:1046900030E02034761EE8D1687C0028F6D0002077
:1046A0006874288026E0A6F50048B8F5005F21D898
:1046B000F019A0F5F4474FF400723946204600F097
:1046C00031FC20B100F01BF8384600F0EBFB688AA3
:1046D0004FEA5821891C814206D1811E89B2384691
:1046E000FFF72CFE40B905E0A6F5FC4005EB902055
:1046F0000121417000F040F806B0BDE8F0814FF4B0
:1047000000722146704738B504460D46FFF710FD8C
:1047100025B94FF400720FF2B42121E09249B5F5AA
:10472000805F08BF4FF400721AD0B5F5205F04D146
:104730004FF4007201F5007112E0B5F5804F04D11D
:104740004FF4007201F580610AE0A5F50040B0F574
:10475000005F0AD84FF4007205F1006101F58C4149
:104760002046BDE8384000F09DBB4FF40071204664
:10477000BDE8344000F028BCF8B500F03BFA00205A
:104780007A49425CD2B1002242548402754D281904
:10479000FFF7E1FC74482618002736F8021B381989
:1047A0002818FFF7C6FC042803D000F02DFA0420D7
:1047B000F2BDBF1CB7F5806FEFD302E0401C10289C
:1047C000DFD300F021FA0020F2BD70B5664C00F096
:1047D00011FA0025634E06EB8520FFF7BCFC6D1C2B
:1047E000082DF8DB002534F8021B7019FFF7A1FC37
:1047F000042801D0042070BDAD1CB5F5006FF2DBBC
:1048000000F002FA002070BD2DE9F04142F61804D4
:10481000554D6619584F327A2AB94002386048021D
:10482000786001203072307A012831D1605978B92E
:1048300005F5185839684046FFF765FF4022982172
:10484000404600F0D2FB4FF4E070605140200CE095
:1048500040229821B868401900F5185000F0C5FBB7
:10486000605940386051B8684030B860402101203C
:1048700000F067FC3021012000F0EDFB386840308B
:1048800038607868403878603C4881684039816099
:10489000786838B96051B8603860394803210170D0
:1048A00000203072BDE8F0812DE9F04142F61C0491
:1048B0002D4D625940326619324F33792BB940027F
:1048C00038604802786001203071307901282FD19A
:1048D00000202D490AE05B1903F5185310F801C0B8
:1048E00083F800C0401C63595B1C635163599342B9
:1048F000F1D3DFF89880B8F80000396841183960C2
:104900007A68101A7860C00507D100206051A1F5BF
:10491000007105F51850FFF76AFE18488168B8F86D
:104920000020891A81604FF44051022000F0A4FB5E
:10493000786800281EBF12480078042806D100209D
:104940006051012100F064FD00203071BDE8F0816C
:10495000A086010000E80008C0030020D82C002039
:10496000A403002000C000089C04002018030020BD
:1049700000000020188DDD40203000200030002095
:10498000AC2F0020383000204C2F0020AE2F00200C
:104990005374617274416E676C653D25640000005C
:1049A000476561723D2564004D6F746F7254696D87
:1049B00065436E743D2564005665723D25730000A5
:1049C000434F4E464947202054585400EB3C904DED
:1049D00053444F53352E30000201080002000250AC
:1049E00000F80C00010001000000000000000000C1
:1049F000000029A298E46C45533132302020202059
:104A00002020464154313220202033C98ED1BCF0C1
:104A10007B8ED9B800208EC0FCBD007C384E247D32
:104A2000248BC199E83C01721C83EB3A66A11C7C83
:104A300026663B07268A57FC750680CA02885602FE
:104A400080C31073EB33C98A461098F76616034685
:104A50001C13561E03460E13D18B7611608946FC3B
:104A60008956FEB82000F7E68B5E0B03C348F7F3C8
:104A70000146FC114EFE61BF0000E8E600723926D7
:104A8000382D741760B10BBEA17DF3A66174324E50
:104A9000740983C7203BFB72E6EBDCA0FB7DB47D91
:104AA0008BF0AC9840740C487413B40EBB0700CD67
:104AB00010EBEFA0FD7DEBE6A0FC7DEBE1CD16CD8C
:104AC00019268B551A52B001BB0000E83B0072E872
:104AD0005B8A5624BE0B7C8BFCC746F03D7DC746E7
:104AE000F4297D8CD9894EF2894EF6C606967DCB87
:104AF000EA030000200FB6C8668B46F86603461C22
:104B0000668BD066C1EA10EB5E0FB6C84A4A8A4689
:104B10000D32E4F7E20346FC1356FEEB4A52500610
:104B2000536A016A10918B4618969233D2F7F69128
:104B3000F7F64287CAF7761A8AF28AE8C0CC020AE8
:104B4000CCB80102807E020E7504B4428BF48A5602
:104B500024CD136161720B40750142035E0B4975F0
:104B600006F8C341BB000060666A00EBB04E544CCF
:104B700044522020202020200D0A52656D6F76655A
:104B8000206469736B73206F72206F746865722084
:104B90006D656469612EFF0D0A4469736B2065724F
:104BA000726F72FF0D0A507265737320616E792007
:104BB0006B657920746F20726573746172740D0A6D
:104BC00000000000000000ACCBD855AAF8FFFFFFA2
:104BD000FFFF0000DFF8D4100A6802F0380206E098
:104BE000DFF8C8100A6822F010020A600A68104351
:104BF00008607047FFE7DFF8B800DFF8B810016021
:104C0000DFF8B41001607047FFE7DFF8B00001681B
:104C100041F080010160704738B5054600F015F895
:104C200004280DD1DFF89440206840F00200206095
:104C3000656000F006F8216841F6FD7211402160C0
:104C400032BD206840F0400020604FF4302039E051
:104C500070B504460D4600F011F804280CD1174E2B
:104C6000306840F001003060258000F007F83168BE
:104C700041F6FE721140316070BD08804FF4005063
:104C800020E00F490860704704200D490A68D207E8
:104C900001D5012070470A68520701D502207047EC
:104CA0000968C90648BF0320704700000020024081
:104CB0000420024023016745AB89EFCD102002405C
:104CC0000C20024010B5FFE70446FFF7DDFF03E0CC
:104CD0002CB1FFF7D9FF641E0128F9D004B90520D3
:104CE00010BD50F8041B61B150F8042BD30744BF2A
:104CF000A9F101039A18002342F8043B091FFAD1D5
:104D0000EFE770472DE9F04F85B080460D46144619
:104D10001E001CBF00203060474600E07F1C387832
:104D200000F0B7FB0028F9D138782D2816BF2B28C2
:104D300017F8019B4FF02B09002C44D4012C42D0D2
:104D4000252C40DA012C0ADB102C04BF38783028DF
:104D500002BF787840F0200078280ED10AE0387839
:104D6000302818BF0A2408D1787840F0200078282D
:104D700002D11024BF1C00E00824039700E07F1C30
:104D800038783028FBD04FF0000A02970FF29000DD
:104D90008DF8040009E0CDF800A09DF80410401A39
:104DA0005FFA80FB04FB0ABA7F1C387800F07BFBBB
:104DB000224601460FF2680000F080FB0028EAD18D
:104DC0000398B84204D10DB1C5F80080002022E05C
:104DD0000298381A0FF27001615C401A13D401284E
:104DE00007DABAEB0B0004D3B0FBF4F00099884269
:104DF00009D000F08FFB222101600EB1012030604C
:104E00004FF0FF3A04E0B9F12D0F08BFCAF1000AD4
:104E100005B12F60504605B0BDE8F08F002371E763
:104E20003031323334353637383961626364656620
:104E30006768696A6B6C6D6E6F707172737475768A
:104E40007778797A0000000000002115110E0D0C12
:104E50000B0B0A0A090909090908080808080808C3
:104E600007070707070707070707070707000000E7
:104E70000CB41CB5044604A80190009401AB0A468A
:104E800000A907487844183000F04AFB0099002236
:104E90000A7000285CBF0098001B16BC5DF80CFB74
:104EA0007B00000062B38B0708D0521E11F8013B53
:104EB00000F8013B00F024808B07F6D1830740F017
:104EC000208000BF103A07D330B4B1E83810103A50
:104ED000A0E83810F9D230BC530724BFB1E808105D
:104EE000A0E8081044BF51F8043B40F8043BD20747
:104EF00024BF31F8022B20F8022B44BF0B7803703B
:104F00007047083A07D3B1E80810083A40F8043B64
:104F100040F804CBF7D25307E4E70268531C036060
:104F2000117070470300002013F0030F09D0521EC8
:104F300022BF13F8010B11F801CBB0EB0C00F3D03A
:104F40007047121F22BF53F8040B51F804CB604581
:104F5000F7D0121D0AD200BA9CFA8CFCB0EB0C0000
:104F600038BF6FF0000088BF01207047521E22BF7B
:104F700013F8010B11F801CBB0EB0C00F6D0521C6A
:104F800008BF104670470000002200F057BB000029
:104F900000F10103810704D010F8011B89B18107DA
:104FA000FAD10268B2F10131914311F0803F04BFA0
:104FB00050F8042FF6E710F8011B11B110F8011B8F
:104FC000FBE7C01A70470000002200F051BB024608
:104FD00000E0521C1378002BFBD111F8013B137039
:104FE00012F8013B002BF8D1704710B5490001F1D0
:104FF000804101F5C041521C521009E010F8013BFC
:1050000010F8014B43EA042321F8023B891C521E8D
:10501000F4D110BD490001F1804101F5C041521C9D
:10502000521004E051F8043B20F8023B521EF9D123
:10503000704700004FF6F8710840DFF890110860E3
:10504000704710B5DFF8882152F8203048F68F14E9
:105050002340194324E010B5DFF8742152F82030C2
:1050600048F6BF742340CC0648BF83F0100389067E
:1050700048BF83F020030FE010B5DFF8542152F849
:1050800020304BF68F742340CC0448BF83F4805308
:10509000890448BF83F4005343F4004141F0800188
:1050A00042F8201010BDDFF8281151F820204BF6EF
:1050B0008F731A4082F4405242F4004209E0DFF854
:1050C000101151F8202048F68F631A4042F4004234
:1050D000FFE742F0800241F820207047DFF8F0102F
:1050E00051F8202052040AD551F8202048F68F7339
:1050F0001A4042F4404242F0800241F820207047BA
:10510000334951F8202052060AD551F8202048F69C
:105110008F731A4042F4004242F0C00241F820204E
:10512000704738E0294A126892B202EBC000294A5F
:1051300037E03BE02549096889B201EBC000254909
:105140003AE0224A126892B202EBC000224A2AE0F8
:105150001E4A126892B202EBC000204A02EB4000E5
:105160003F2909D34A091F23194208BF521E1204BE
:10517000910941F4004105E04A08C90748BF521CA3
:1051800012049109016070471049096889B201EB66
:10519000C000124914E00D4A126892B202EBC0003E
:1051A0000F4A4908490042F810107047074909683A
:1051B00089B201EBC0000A4951F8100080B2704773
:1051C00051F810008005800D70470000505C0040D1
:1051D000005C004008600040046000400C6000403B
:1051E000006000400106090C41EA102070470000F1
:1051F00080B5964890F82010022909D018D30429C8
:1052000002D00ED3052913D1002180F820100CE024
:10521000C17B28290CD1816A406ABDE8044000F0B6
:105220009ABA0121002000F0F3F84FF440512BE12D
:1052300001BD38B5854CE57B0220FFF7A5FF6084F2
:105240000246D8218248FFF7E5FE94F8200010B10D
:10525000012803D00AE0BDE8314013E02A2D06D131
:10526000A16A606ABDE8344000F09FBA022000F0F5
:10527000F9F82421052000F069FA00210220BDE898
:105280003440C5E010B5714C628C1AB170492046AB
:10529000FFF718FE6F4861684160A1688160608C0B
:1052A0001F2806D0022000F0DDF8002020601A211F
:1052B0008DE0E27B282A18BF2A2A0FD1607CA17CCE
:1052C000090441EA0060E17C40EA0120217D0843B5
:1052D0006062A07DE17D41EA0020A06220685E4915
:1052E000884270D15D480068617B884204D3A07B0E
:1052F000401EC0B2102804D3022000F0B3F82421CD
:1053000065E0606AA16A002A49D0032A2BD0082AE6
:1053100018BF0A2A53D0122A29D0152A4FD01A2A88
:105320002DD01B2A27D01D2A49D01E2A23D0232A5C
:105330002DD0252A2FD0282A35D02A2A37D02F2A17
:1053400039D0552A3BD05A2A1DD0882A18BF8A2A1C
:1053500035D08F2A18BF9E2A31D0A82A1CBFAA2A6E
:10536000AF2A2CD02FE0BDE8104000F0E7B9BDE82F
:10537000104000F0ADB9BDE8104000F0EBB9BDE859
:10538000104000F0D3B9BDE8104000F0D3B9BDE83B
:10539000104000F0ACB9BDE8104000F0B7B9BDE86E
:1053A000104000F041BABDE8104000F0D4B9BDE8AB
:1053B000104000F0FAB9BDE8104000F01FBABDE897
:1053C000104000F036BA022000F04CF820210520F1
:1053D00000F0BCF900210120BDE8104018E010B534
:1053E0000C4622469821FFF700FE21460120FFF7D8
:1053F000A8FE30210120FFF72EFE1448032180F87B
:10540000201014488168091B81600021017310BDC0
:1054100010B50C460F4B1249196018730D229821D4
:105420001846FFF7E2FD0D210120FFF78AFE07482D
:10543000052180F8201044B1042180F8201030218B
:105440000120BDE81040FFF706BE10BD8C2F0020E4
:105450004C2F002000300020555342435030002094
:105460005553425380B518B1022807D00AD301BD65
:1054700010210120BDE80440FFF7EDBD10210120FF
:10548000FFF7E9FD4FF480510220BDE80440FFF72B
:10549000F3BD10B50446012000F026FA2046BDE811
:1054A000104000F02DBA10B50446012000F01CFA9F
:1054B0002046BDE8104000F02DBA0000C9B28307B5
:1054C00006D0521E22D310F8013B9942F7D11FE0BB
:1054D000083A13D302F1040241EA012141EA0141F1
:1054E00050F8043B121F21BF4B40A3F1013C2CEAB2
:1054F000030C1CF0803FF3D0C9B2001F083210F833
:10550000013B521E28BF91EA030FF8D818BF0120B3
:10551000401E7047014800F003BA000060300020D0
:105520002DE9F04784B08146884614461E460DF1A9
:10553000000A04E014F8011B4046C8478046207862
:1055400010B904B0BDE8F0872528F3D1641C14F825
:10555000015B252D6FD0582D52D0632D0ED0642DB8
:1055600018BF692D10D06F2D4AD0702D4DD0732DDE
:1055700051D0752D18BF782D42D0E0E73068011D5D
:1055800031600168C9B2D7E73068011D3160076832
:10559000002F03D52D214046C84780466F2D08BFF8
:1055A000082105D045F02000782814BF0A211021D9
:1055B0000B203A46642D02D1002F48BF5242431EB1
:1055C0001846B2FBF1FC01FB1C223032D2B23A2A5F
:1055D00024BFA5F1510E724403F80A205FEA0C02C1
:1055E00001D00128EBDAC0F10B0500A947184046AD
:1055F000002DA3D017F8011BC8476D1EFAD19DE7F7
:105600003068011D31600768C8E73068011D3160EE
:1056100007687825C2E73068011D316005682846B3
:10562000FFF7B6FC0700404688D015F8011BC847B5
:105630007F1EFAD182E725217EE7000000B500BF7A
:10564000130096469446103928BFA0E80C50FAD8AB
:105650005FEA417C28BF0CC048BF40F8042BC90753
:1056600028BF20F8022B48BF00F8012B00BD000026
:10567000401810F0030308D0C91A1FD3DB0748BF36
:1056800000F8012D28BF20F8022D130030B4144675
:105690001546103928BF20E93C00FAD8490728BF31
:1056A00020E90C0048BF40F8042D890028BF20F8ED
:1056B000022D48BF00F8012D30BC7047C91818BF33
:1056C00000F8012DCB0728BF00F8012D704700001E
:1056D0007449087CC00702D57348052105E00FF224
:1056E000E410C97C252928BF2421FFF778BE6F4824
:1056F00000218180022181710021C171417202214A
:1057000081720021C1720C21FFF769BE6848002137
:1057100001800F218170FF21C17000218180022151
:1057200081710021C1710821FFF759BE0421614830
:10573000FFF755BE08216048FFF751BE5948C17CAC
:10574000132928BF12215D48FFF749BE5B4A9070BC
:105750001173704769E070B504460D46584E3078B5
:10576000C0B92A462146282000F076F8C8B14D4835
:10577000007B000603D50220307029460CE0022091
:10578000FFF770FE00F00EF801210120BDE8704027
:10579000FFF73EBE022804D12046BDE87040FFF767
:1057A00033B870BD24210520D0E710B5444C2278D1
:1057B000EAB90A4601462A2000F04EF8E8B1394815
:1057C000007B000608D4012020704FF440510220D5
:1057D000BDE81040FFF750BC0020FFF743FEFFF785
:1057E000E1FF00210120BDE81040FFF711BE012AB2
:1057F00004BFBDE81040FFF757B810BD80B5294879
:10580000816829B9007C400702D40121002006E00C
:105810000220FFF727FEFFF7C5FF00210120FFE769
:10582000BDE80440FFF7F4BD00BF01210020FFF7F1
:10583000EFBD80B51B48816809B9002004E0007BFA
:1058400000064CBF00200220FFF70CFE2021FFF7CE
:10585000AAFF00210120E3E780B55118B1F5805F70
:1058600009D92A2804BF0220FFF7FCFD0020FFF71A
:10587000F9FD21210BE00B498968B1EB422F0ED0D5
:105880002A280CBF02200020FFF7ECFD2421FFF79F
:105890008AFF00210120FFF7BBFD002002BD01208F
:1058A00002BD00008C2F0020403000206C0400203E
:1058B0004830002094040020880400204404002084
:1058C000AC2F002000800202200000004D696E69AC
:1058D0002044534F4469736B202020202020202037
:1058E000202020202020202010B50446DFF80C00C6
:1058F00000F016F850F8240010BD0000E02E002043
:10590000A0F10901052901D3202801D10120704708
:1059100000207047A0F141011A2938BF203070479C
:105920007047000000B5A1B0802101A8FFF72CFB53
:1059300000F055F880220021002000F0ECFC00F07F
:105940004EF880221946002045E080B5C0210FF2B4
:10595000801201FB002002E080B50FF27870009009
:10596000102360220021002000F0D5FC01BD80B58D
:105970000B2828BF0A20514A29B1107001290CD1E7
:1059800002F1E0000DE01178814234BF084610704A
:10599000142101FB0020001D03E0022908D102F1BF
:1059A000CC00009010230A220021002000F0B3FC5C
:1059B00001BD00B5A1B0802101A8FFF7E5FA00F014
:1059C0000EF8512200210B2000F0A5FC00F007F892
:1059D000512208210B2000F09EFC21B000BD01A83F
:1059E00000900823704710B582B00146344C2078EF
:1059F0006278904218BF6070A0780FF2545202EBA8
:105A0000801260780B3069B9009210232022C0B256
:105A100000F081FC6078401C6070C0B2322811D365
:105A200000200EE001290DD1009210232022002138
:105A3000C0B200F070FC6078401E6070C0B208B95F
:105A40003220607000F026F800F065FC607820706D
:105A5000A078401CC0B2042808BF0020A07000F04D
:105A600021F8002000F057FC13BD80B500F01AF8B3
:105A70004B2000F050FC0FF2D84000901023202261
:105A800000211B2000F047FC0D481121017000F09F
:105A900001F869E70FF23000009010230422002182
:105AA0005C2070470748407C16210FF2A45201FB8E
:105AB0000020009010230B220021704710020020CC
:105AC00098040020A4030020FEFFFFFE7FFFFF7F5D
:105AD00000E0C08080808E9EBEFEBE9E8E80808054
:105AE00080808080808080808080808080808080B6
:105AF00080808080808080808080808080808080A6
:105B00008080808080808080808080808080808095
:105B10008080808080808080808080808080808085
:105B200080808080808080808080808080C0E00055
:105B300000030100000020508989F988888800004E
:105B40000000000000F0888989F18080800000005A
:105B500000000000206021212120207000000000B2
:105B600000000070880911214080F800000000004A
:105B700000007088093109088870000000000000EA
:105B8000001030519191F810100000000001030046
:105B900000E0C080808080808080808080808080E5
:105BA00080808080808E9EBEFEBE9E8E80808080A3
:105BB00080808080808080808080808080808080E5
:105BC00080808080808080808080808080808080D5
:105BD00080808080808080808080808080808080C5
:105BE00080808080808080808080808080C0E00095
:105BF00000030100000020508989F988888800008E
:105C00000000000000F0888989F180808000000099
:105C100000000000206021212120207000000000F1
:105C200000000070880911214080F8000000000089
:105C30000000708809310908887000000000000029
:105C4000001030519191F810100000000001030085
:105C500000E0C08080808080808080808080808024
:105C60008080808080808080808080808080808034
:105C7000808082868E9EBEFEBE9E8E8682808080C2
:105C80008080808080808080808080808080808014
:105C90008080808080808080808080808080808004
:105CA00080808080808080808080808080C0E000D4
:105CB00000030100000020508989F98888880000CD
:105CC0000000000000F0888989F1808080000000D9
:105CD0000000000020602121212020700000000031
:105CE00000000070880911214080F80000000000C9
:105CF0000000708809310908887000000000000069
:105D0000001030519191F8101000000000010300C4
:105D100000E0C08080808080808080808080808063
:105D20008080808080808080808080808080808073
:105D30008080808080808080808080808080808063
:105D40008080848C9CBCFCBC9C8C84808080808007
:105D50008080808080808080808080808080808043
:105D600080808080808080808080808080C0E00013
:105D700000030100000020508989F988888800000C
:105D80000000000000F0888989F180808000000018
:105D90000000000020602121212020700000000070
:105DA00000000070880911214080F8000000000008
:105DB00000007088093109088870000000000000A8
:105DC000001030519191F810100000000001030004
:105DD00000E0C080808080808080808080808080A3
:105DE00080808080808080808080808080808080B3
:105DF00080808080808080808080808080808080A3
:105E00008080808080808080808080808080808092
:105E100080808898B8F8B89888808080808080805A
:105E200080808080808080808080808080C0E00052
:105E300000030100000020508989F988888800004B
:105E40000000000000F0888989F180808000000057
:105E500000000000206021212120207000000000AF
:105E600000000070880911214080F8000000000047
:105E700000007088093109088870000000000000E7
:105E8000001030519191F810100000000001030043
:105E900000E0C080808080808080808080808080E2
:105EA00080808080808080808080808080808080F2
:105EB00080808080808080808080808080808080E2
:105EC00080808080808080808080808080808080D2
:105ED00080808080808080808080808080808080C2
:105EE000808090B0F0B090808080808080C0E000A2
:105EF00000030100000020508989F988888800008B
:105F00000000000000F0888989F180808000000096
:105F100000000000206021212120207000000000EE
:105F200000000070880911214080F8000000000086
:105F30000000708809310908887000000000000026
:105F4000001030519191F810100000000001030082
:105F5000F008FE02FE50A0202060A0202060A020BB
:105F60002060A0202060A0202060A06040408080B1
:105F70000F107F407F08050604040506040405068B
:105F800004040506040405060404050602020101D2
:105F9000F008FE02FE1060A0202060A0202060A07B
:105FA000202060A0202060A0202060E04040808071
:105FB0000F107F407F08040506040405060404054D
:105FC0000604040506040405060404070202010190
:105FD000F008FE02FE102060A0202060A0202060BB
:105FE000A0202060A0202060A0202060C0408080F1
:105FF0000F107F407F0A040405060404050604040C
:10600000050604040506040405060406030201014E
:10601000F008FE02FE90202060A0202060A020203A
:1060200060A0202060A0202060A0206040C0808070
:106030000F107F407F0906040405060404050604CA
:10604000040506040405060404050606020301010E
:10605000F01010905050D0505010F01F101112142A
:1060600014171414101FF01090505050901010106E
:10607000F01F1017141414171414101FF010101020
:10608000101010109010F01F101113111111111396
:10609000101FF010905050901010D010F01F1013DF
:1060A000141010111217101FF010905050905050F3
:1060B0009010F01F1013141011101413101FF01073
:1060C00090909090D0909010F01F10101112141713
:1060D0001010101F00000000000000003030000011
:1060E000000000001010F01010002010101010E040
:1060F0000000C030C000C030C000E010101010E040
:1061000000000000000010F010000000000000007F
:106110000000C030C000C030C000E010101010E01F
:1061200000003010101010F01000000000000000FF
:10613000000000000000000000000000007F0000E0
:106140000000060404020704040003050505050316
:106150000004070400070004070003040404040308
:1061600000003C424242427F40000000000000002C
:1061700000040704000700040700030404040403E8
:10618000000000000000407F400000000000000010
:106190000000000038B500F03EF850B100F043F8C0
:1061A000102100F041F8102100F03AF808212046B3
:1061B0000AE000F02BF800F095F900F034F800F058
:1061C0002EF84FF400412846BDE8344000F08CB969
:1061D00038B500F020F850B100F021F8102100F09F
:1061E0001FF8102100F020F8082120460AE000F0F6
:1061F0000DF800F079F900F012F800F014F84FF4FF
:1062000000412846BDE8344000F06CB9374D4FF4EA
:10621000004128467047364C3648007870470821C0
:10622000204600F061B90821204600F05BB9F8B5BE
:1062300004462F4D2F480078B0B1082600F039F8F9
:10624000200603D5102100F02CF803E01021284689
:1062500000F04AF9640000F023F8761EEED100F059
:1062600028F80821284617E00826204F00F01CF8DF
:10627000200602D500F014F801E000F01AF86400DE
:106280004FF40041384600F02DF9761EEED100F0B3
:106290000BF84FF400413846BDE8F44000F022B955
:1062A0000821284600F01EB94FF40041384600F09E
:1062B0001BB90821284600F017B910B50446FFF7AE
:1062C00069FF7820FFF7B3FF002007E010B5044610
:1062D000FFF760FF7820FFF7AAFF4020FFF7A7FF36
:1062E0002046FFF7A4FFBDE8104071E70008014019
:1062F000000C01406A30002010B50446A1F15000A6
:10630000C0B2FFF7DAFF200940F01000FFF7D5FF19
:1063100004F00F0082E02DE9F843804691465818BA
:10632000C0B2CE080722114218BF761C811000EBC4
:106330005171CA10B0EBC2011ABF501CC4B2D4B222
:10634000089F08E017F8010BFFF7C0FF6D1CEDB2C6
:106350004D45F7D3761CF6B2A64205DA31464046E3
:10636000FFF7CAFF0025F2E73846BDE8F2830000D8
:1063700010B5014C02E000BF000C01400121FFF705
:106380004FFF00F04EF80121FFF74EFF00F049F8F3
:10639000692000F0E1F8AE20FFF78FFFD520FFF76E
:1063A0008CFF5220FFF789FFA820FFF786FF0F2000
:1063B000FFF783FFC820FFF780FFD320FFF77DFFA3
:1063C0000020FFF77AFF4020FFF777FFA120FFF7BB
:1063D00074FF8D20FFF771FF1420FFF76EFFDA20A6
:1063E000FFF76BFF0220FFF768FF8120FFF765FFD3
:1063F000E020FFF762FFD920FFF75FFFF120FFF7F2
:106400005CFFDB20FFF759FF3020FFF756FFA42089
:10641000FFF753FFA620FFF750FFAF20BDE8104065
:106420004BE7022000F098B82DE9F0410022CC782B
:1064300004F00F03E40644BF8C7823430C88012545
:106440000F26E7B217B3D0F800C005FA02F7BE4630
:106450000EEA0408F04514D14FEA820E06FA0EF84F
:106460002CEA080C03FA0EFE4EEA0C0C91F803E03D
:10647000BEF1280F08BF476103D0BEF1480F08BF27
:106480000761521C082AE0D3C0F800C0B4F5807F31
:1064900026D3D0F804C0002202F1080705FA07F756
:1064A000BE460EEA0408F04515D14FEA820E06FA00
:1064B0000EF82CEA080C03FA0EFE4EEA0C0C91F8CA
:1064C00003E0BEF1280F08BF476191F803E0BEF179
:1064D000480F08BF0761521C082ADDD3C0F804C06A
:1064E000BDE8F081016170474161704770B5144AA1
:1064F00000284CBF94691468C0F3034583B2460D6D
:106500003601B34000F44016B6F5401F06D124F022
:106510007064156825F07065156008E0C60243BF19
:10652000032606FA05F5AC439C4344F0706401B1C0
:106530001C43002801D5946170BD146070BD00003B
:106540000400014080B56FF0040000F058F80E48D8
:1065500042F22831018001BD0C490B4A1288504398
:10656000486000208860086840F001000860086802
:1065700000F001100128FAD00868400840000860C7
:1065800000208860704700006630002010E000E0C6
:106590002049084320490860704770B503781A46BF
:1065A0000121C478ECB11C4B1B6803F4E063C3F514
:1065B000E0631B0A4478C3F10405AC4085780F26DC
:1065C00026FA03F32B4023431B01144C1355007888
:1065D0004211134B00F01F0001FA00F043F82200B3
:1065E00070BD50110F4A03F01F03994042F820106C
:1065F00070BD0D4A114008430C49086070470C49B2
:10660000042808680CBF40F0040020F00400086073
:10661000704700000000FA050CED00E000E400E027
:1066200000E100E080E100E080FFFF1F08ED00E0F6
:1066300010E000E010B5DFF8884700B92BE000F06B
:1066400096F80068804720680A3010BD80B5DFF8F2
:1066500070070068C178DFF86C2752788A420CD343
:106660008278002A04BF8288002A06D1817200F055
:106670007EF840688047002002BD022002BD10B5B0
:10668000DFF83C4700B906E000F071F88068804709
:1066900020680C3010BD206801210182002010BD4F
:1066A00010B5DFF81C472068C1784079DFF818275B
:1066B00012689269904721688A7A92B1002804BFD3
:1066C000087900280DD1887858B900F050F8C068D2
:1066D000804720684179C1722068C1780173002029
:1066E00010BD022010BD1CB5DFF8D416096810B922
:1066F0000220088239E0DFF8D446002020800878A4
:1067000000227F23184215D1487A81064CBF42F0FF
:10671000020102F0FD0121702178400654BF01F012
:10672000FE0041F00100207000F021F80069804770
:10673000204616BD00F07F03012BF9D000F07F004A
:10674000022812D1487900F00F0142F0010200F056
:1067500088FA05D500F030001028E5D12270E3E773
:1067600000F44050B0F5805FF7E7002016BDDFF879
:10677000600600687047F8B5DFF8440600680178E5
:1067800011F07F0104D1417A01F0DF0141724FE045
:10679000022901BF41880029017900294AD14179A4
:1067A00021F08005DFF82C460A0654F825204CBF5E
:1067B00002F0300202F44052DFF808361B789D42A6
:1067C00038D2002A1CBF807A002833D0080654F83B
:1067D00025000BD500F03000102825D12846FEF703
:1067E0008FFC30212846FEF736FC1DE000F44050B7
:1067F000B0F5805F18D148F280064BF68F7745B927
:1068000000F0BDFA2068384080F4405030432060EA
:106810000AE02846FEF762FC54F82500384080F470
:106820004050304344F82500FFF7A1FF40698047FE
:106830000020F2BD0220F2BD38B5DFF88405026801
:10684000537923F08000DFF88C151C0651F82040A6
:106850004CBF04F0300404F44054DFF868552D7840
:10686000A84206D2558825B9002C1CBF927A002A6E
:1068700001D1022032BD48F280021B0651F82030BF
:1068800005D548F6BF74234083F0100304E04BF6AF
:106890008F74234083F480531A4341F82020FFF77C
:1068A00066FF80698047002032BD80B5DFF81005A3
:1068B0000068417A41F020014172FFF758FFC0693A
:1068C0008047002002BDDFF8F8241268538A20B9FF
:1068D0008888C01A1082002070470868181870470E
:1068E000F8B5DFF8DC54286800F110042688A168A8
:1068F000080018BF002E14D0A088864288BF064624
:106900003046884707462088801B208060883018E2
:1069100060800020FEF70EFC324601463846FEF746
:1069200079FBDFF8B464208850B1DFF8B0044FF48D
:106930004051018000210020FEF703FC3020308010
:1069400028682188A288914228BF032101D211B171
:1069500005210172F1BD06210172DFF8840400688F
:1069600080B2DFF88014002241F8102030203080FF
:10697000F1BD2DE9F843DFF84844206800F1100626
:106980003188DFF85454002904BF007A042816D156
:10699000DFF85404017801290DD1DFF844140968A7
:1069A00089B2DFF84024002342F8113030212980D9
:1069B000042703702CE007271020288028E0B6F871
:1069C0000480884505D30427414588BF4146884651
:1069D00000E002274046B168884781460020FEF764
:1069E000A8FB424601464846FEF7FFFA4146002012
:1069F000FEF7A7FB3088A0EB080030807088404489
:106A0000708030202880DFF8D4034FF4405101809B
:106A100020680772BDE8F18338B5DFF8A443206829
:106A2000457801787F22114238D1092D02D1FFF734
:106A30000DFE47E0052D1BD1C17880294FD281780A
:106A4000002901BF81880029807A002847D10620CB
:106A5000DFF88C13096889B2DFF88823002342F835
:106A60001130DFF8741330220A802168087231BDBA
:106A7000032D08D1C178012904BF8088002823D1C3
:106A8000FFF713FF1EE0012D04BFC17801291BD1C0
:106A90008188C9B9407A80060DD415E001F07F00E5
:106AA000012804D10B2D0FD1FFF7FAFD0AE00228CF
:106AB0000AD1012D02D1FFF75EFE03E0032D03D1C1
:106AC000FFF7BAFE0028C2D02846BF4909684969C5
:106AD0008847032808BF0920C7D00028B7D008205E
:106AE000C3E738B5B64D28684178B74C062913D1AD
:106AF00001787F2211422AD18078012802D12068B2
:106B0000C16968E0022802D12068016A63E00328B5
:106B10001DD12068416A5EE000293DD141880029ED
:106B200004BFC188022912D1017981B901787F227D
:106B3000114204BF8288002A2CD001F07F02012A72
:106B400010D100F089F810B92868807A10BB286845
:106B50004078216809698847032845D128680921B8
:106B6000017231BD01F07F010229F0D1407900F0BE
:106B70000F0100F0700200F074F84CBF00F030001C
:106B800000F440508F4B1B789942E0D2002ADED1AE
:106B90000028DCD095491EE0082905D100787F2126
:106BA0000842D4D1924916E00A2902BF017801F0C7
:106BB0007F010129CBD1817A0029C8D041880029E1
:106BC00001BF01790029C1880129C0D100F044F832
:106BD0000028BCD187490800B9D028680022428229
:106BE000816100208847002029680A8A4FF6FF73D8
:106BF0009A4208BF092004D0022818BF002A02D1F7
:106C00000820087231BD087800061ED5C88800909B
:106C10002368009C944202D2009808820FE08242CE
:106C20000DD293F82C00704C824238BF002005D35F
:106C300092FBF0F500FB152008B90120207093F8B5
:106C40002C008882BDE8314093E603200872634837
:106C50004FF44051018031BD002140792268926992
:106C600010475C4B000653F82100704738B55C486C
:106C7000006880B2604931F81000400000F18040A7
:106C800000F5C0404E4C21680A7A092A14D010F849
:106C9000012B0A70216810F8012B4A70851C35F809
:106CA000040BFEF79FFA216848802888FEF79AFABD
:106CB00021688880A888C880206801210172206826
:106CC000C08810B9FFF7A8FE01E0FFF70AFFBDE892
:106CD00031403EE010B53A4C2068017A022918BFD5
:106CE000042904D1FFF745FE2068007A14E0062944
:106CF00011D14178052902BF01787F22114206D1C6
:106D0000C07800F042F8FFF732FD006A80472E4855
:106D1000006880688047082017E010B5284C20687C
:106D2000007A022818BF04280ED0032818BF0528AF
:106D300004D1FFF7D5FD2068007A06E0072803D1CB
:106D400021480068C0688047082021680872BDE8B3
:106D5000104080B500F013F819480068017A08293E
:106D600006D11E494FF480520A801B4910220A8026
:106D7000007A092801D1012002BD002002BD1F4870
:106D800090F82C100020FEF7E3B970B50D49097892
:106D90000022104B48F68F760BE0D4B253F8245003
:106DA0003540254345F4004545F0800543F824501F
:106DB000521C8A42F1D340F080001149086070BD36
:106DC000D42F002090040020D82F0020583000201D
:106DD000DC2F0020005C00405E3000205C30002092
:106DE000505C0040046000406B300020E766000803
:106DF000356600087F660008086000404C030020EC
:106E00004C5C00407047000080B5FEF78BFD05200C
:106E1000FFF7A2FB00F03FFCFF2801D0012002BDDC
:106E2000002002BD10B5DFF8A4454FF416614843B9
:106E3000642190FBF1F189B213E038B50446DFF824
:106E40008C550021284600F01BFE4FF4166060436D
:106E5000642190FBF1F189B22846BDE8344000F08E
:106E600011BE204600F00CFE00212046BDE8104077
:106E700000F008BE10B500F0C1F9DFF850454FF43E
:106E80001661204600F0FCFD4FF41661EDE7012885
:106E9000084608BFFFF7C6BFCFE770B5DFF8284543
:106EA000DFF82C55686880B100F087FF802809D191
:106EB000607C401CC0B2062808BF0020607400201F
:106EC00000F078FF607CFEF740FD40F2DC5600F0F9
:106ED00077FF322802D296206860AE6000F06DFF26
:106EE00048F28001884202D100206860AE60686884
:106EF00068B9DFF8E05401202870FDF705FB002099
:106F0000287001202076BDE87040FEF70BBD70BDF3
:106F10002DE9F84F00F088FC0546DFF8BC44DFF8A7
:106F2000A864DFF8B804017849B901203076FEF78B
:106F3000F9FC0020E0602061A071E07153E100786D
:106F40000028FBD0DFF89804A17919B90121A171BB
:106F5000016821610FF2C84900682169401A42F6B0
:106F6000E161884205D30120E07100F047F900F0AB
:106F70003DF9DFF85C7440F2DC50B860707E0128A7
:106F80001AD10220707600206070A070E060E0707E
:106F9000207120816081142038600020F860322048
:106FA000386100207861E07910B100F01FF903E04A
:106FB000FEF7FFFCFEF759FD2846DFF8281400F025
:106FC000D1FF03D8002100F0DFFF08D3DFF8181449
:106FD00000F0DAFF04D2002100F0C4FF00D2002547
:106FE000E068294600F0E2FFE060DFF8005429463F
:106FF00000F0B8FF98BFE56007D9DFF8F41300F0A0
:10700000C3FF3CBFDFF8EC03E060B07E38B9207905
:1070100038B10120B07600F07CFD306270622079DA
:1070200068B93869002804BFA078002807D101207A
:1070300060702071607920811420386053E060789E
:10704000002850D196F810A0504600F0FBFF834670
:10705000D4F80C90494600F085FF0DD8CAF1000025
:1070600000F0E6FF0146484600F07CFF04D800200F
:107070002071FFF7FFFE36E05846494600F084FFD6
:1070800003D201202070C8460CE0CAF1000000F0D5
:10709000CFFF0146484600F077FF03D20020207062
:1070A00089F00048707C40B9307C1C3000F0C0FF93
:1070B0000146404600F056FF01D8642007E000F08A
:1070C000D1FF294601F04CF801F0B6F814302081C8
:1070D000207920B9E070142038600120207101204F
:1070E000A070208960712079E17981F00101084266
:1070F00079D03868002804BFE078002808D1012042
:10710000E0704FF48061BC48FFF7ECF90A2038606A
:1071100061792078FFF7BBFE786930B9FEF749FC4A
:107120002078FEF760FC05207861E068002100F01F
:107130002BFF07D8707C404240000D30218901FBB5
:1071400000F501E040F24C4501F000F9AB4948433D
:10715000AAB2C11200EB1150B2EB203FBABF608956
:10716000401C00206081707C012824D1357C05F111
:107170003C0000F05DFF0146404600F0F3FE18D9E8
:10718000284600F05FFF0146404601F0EDF89C49BB
:1071900000F0FAFE38BF282113D39A4900F0F4FE1C
:1071A00038BF3C210DD3984900F0EEFE38BF502186
:1071B00007D3642105E0218918B1801E142202FB47
:1071C0001011386878B9608989B281420BD2FFF713
:1071D00051FE00206081052030764FF49670F860F3
:1071E0004FF4A0703860E068BDE8F28FCDF80090F1
:1071F0001023602200210020FFF78DB84FF480613A
:107200007D48FFF771B9F8B56F4C607E01281CBF4F
:1072100001206076FFF72EFEA07E012811D100F03C
:1072200078FC20620146606A00F077FCE169401852
:10723000E0610021A1766421B0FBF1F06061FCF710
:10724000B0FF022001F059F84FF416714843C11203
:1072500000EB11500601360C5D4D686900BBA6F5C8
:10726000A0700A214843582190FBF1F7002001F05B
:1072700044F8B0F5FA7F06D2B6F5A07FB8BF4FF458
:10728000A076002105E061480068400654BF012156
:107290000221F8B2FEF76BFBFEF7E7FB32206861D4
:1072A0005B480178032910D1217E04290DD00321E8
:1072B0002176002101706868972824BF96206860B5
:1072C000002000F077FDFEF72DFBB6F5A07F3ABF5A
:1072D000E07E401C0020E076E07E972813D300205B
:1072E00001F00BF8B0F5FA7F0DD23C48007850B9A8
:1072F000042020764FF4FA70A860FFF7BBFDBDE8CC
:10730000F140FEF70FBBF1BD10B5324C01202070EB
:10731000FDF7FAF800202070FEF704FB3D480078E6
:10732000002819BF01213C4810213C48BDE810400D
:10733000FFF7DAB82648C06800281EBF2748007843
:10734000002802D1204802210176704738B5204D2F
:107350001D4C207E401E052835D8DFE800F00314C0
:107360001A1D1731FFF74FFF1C48007818B100F0C5
:107370005BFA02202076A86828BB00F0BEFFB0F5BB
:10738000FA7F20D219E0BDE83140C1E5BDE83140C7
:10739000D0E7BDE8314080E5FEF7DEFA002000F0DE
:1073A000ACFF40F2F511884205D301202076BDE8FC
:1073B0003140FEF7B7BAA86828B90620207631BD5B
:1073C000BDE83140A0E731BDA4030020002C0140FE
:1073D000E42F00202803002058040020E02F002084
:1073E000FC2F0020560E2DBE570E2D3E0000A04251
:1073F000FFFF9FC20000A0C200080140D0010100B1
:107400000000A0410000204200007042080C014032
:10741000103000206A30002000140140000C0140B0
:10742000000000000000000000000000000000005C
:1074300000F00804040408F0000080000000800050
:10744000000080808000000080000080000080E05C
:107450008080000000A0000080008000800000000C
:1074600000808080000000000000000080402010AC
:1074700008F4040810204080000000000000000014
:1074800000000000000000000000000000000000FC
:107490000007081010100807000001061806010078
:1074A000000F141414170000001F01000000001F3B
:1074B00010180000001F0000001F001F001F000028
:1074C0000F14141417000000000C121110101010EB
:1074D000101510101010101011120C0000000000F8
:1074E0007047704710B5DFF8904300F03EF860B188
:1074F0001020A06000F08EF82068102000F088F8BE
:107500002068C00612D4102013E00820A060DFF825
:107510006C034FF400410160FFF7E2FF20680007B1
:1075200004D500F074F82068000701D5002010BDD4
:10753000082000F06DF8012010BD70B500F014F8BF
:1075400048B100F01BF810206060FFF7C9FF00F0A1
:1075500012F8102006E000F02DF800F00FF800F00F
:1075600027F80820206003E0C54CC6480078704723
:10757000BDE87040B4E708202060B1E708206060F3
:10758000AEE770B5FFF7F0FF50B1FFF7F7FF10203F
:107590002060FFF7A5FFFFF7EEFF0820606006E020
:1075A00000F008F8FFF7E7FF00F002F86E60DFE791
:1075B0002E6095E7B14D4FF400466E6090E770B5D0
:1075C000AD4CFFF7D2FF80B100F021F81020A06091
:1075D000FFF786FF00F01EF82068C00602D50820DD
:1075E000E0600CE00820E0600DE0FFF7E3FF00F052
:1075F00011F8FFF7DDFF206800076E6003D5FFF785
:107600006FFF002070BDFFF76BFF012070BD0820E9
:10761000E06065E70820A06062E72DE9F0410446DC
:107620000825974E9748007850B9944F4FF400487A
:107630001FE06400FFF754FF08203060FFF750FFA1
:107640002846451EC0B250B108207060FFF748FFC1
:10765000200647BF1020306010207060E9E7082046
:10766000706016E06400FFF73BFFC7F80080FFF78B
:1076700037FF2846451EC0B20028C7F8048008D04E
:10768000FFF72EFF200647BF0820306008207060FB
:10769000E8E7BDE8F0812DE9F04108240025764EA9
:1076A00078480078C0B11020B0600DE06D0008206F
:1076B000F060FFF715FF0820B060FFF711FF30689A
:1076C000C00648BF45F001052046441EC0B2002850
:1076D000ECD10820F06019E0B460684F4FF4004826
:1076E0000DE06D00C7F80480FFF7FAFEC7F80080D0
:1076F000FFF7F6FE3068000748BF45F00105204659
:10770000441EC0B20028ECD1C7F80480E8B2BDE83E
:10771000F08170B504460D461646FFF7E3FEC0B192
:107720002046FFF77AFFFFF74AFF18B9FFF705FF7A
:10773000002070BD2846FFF770FFFFF740FF30467E
:10774000FFF76BFFFFF73BFFFFF7F7FEFFF7C9FE01
:10775000012070BD38B504460D46FFF7C3FEF0B1F9
:107760002046FFF75AFFFFF72AFF18B9FFF7E5FE9B
:10777000002032BD2846FFF750FFFFF720FFFFF73C
:10778000B1FE601CC0B2FFF748FFFFF718FFFFF71C
:1077900082FF0446FFF7F5FEFFF7CFFE204632BD1D
:1077A00080B5FFF7E2FE68B148F20800ADF80000CE
:1077B00010208DF8030003208DF8020000A9324844
:1077C000FEF732FE0F22202100F011F800222121C5
:1077D00000F00DF80022222100F009F800222321F8
:1077E00000F005F80222242100F001F801BDD620A6
:1077F0008FE730B583B02721D620FFF7ABFF80B1EC
:107800002A21D620FFF7A6FF044600ADAC702B213D
:10781000D620FFF79FFFE87044EA002000B200F096
:1078200007FC1A49086037BD70B500F072F9174CB3
:1078300060600146A06800F070F906466068A060CC
:10784000FFF7D7FF206800F003FE114A114B00F04C
:1078500027FE04460D46304600F0F4FB00F0F8FD2C
:1078600022462B4600F01CFE00220B4B00F0EAFEE5
:10787000BDE8704001F00AB8080C01401008014052
:10788000100C01406A300020000C01402C30002018
:10789000EC51B81E85EB813F0000594030B504889B
:1078A000DFF80422DFF8E831984218BF90420ED08A
:1078B000B0F1804F1CBFDFF8DC51A84207D0DFF8E1
:1078C000D851A8421CBFDFF8D451A84204D14FF6CA
:1078D0008F752C404D882C43DFF8C451A8421CBF43
:1078E000DFF8C051A84204D04FF6FF452C40CD88A8
:1078F0002C4304808C8884850C880485984218BFAA
:1079000090420AD0DFF8A42190421FBFDFF8A021E7
:107910009042DFF8A021904201D1097A018601212D
:10792000818230BD30B5028C4FF6FE731A4002845E
:10793000048C8288038B4FF68C752B400D882B436B
:107940004FF6FD752C400D892C434D882C43DFF8F4
:107950004051A8421CBFDFF85051A8420AD0DFF8BE
:107960004C51A8421FBFDFF84851A842DFF84451EC
:10797000A84210D14FF6F7752C404D892C434FF695
:10798000FB752C408D882C434FF6FF452A408D898E
:107990002A43CD892A4382800383C988818604844F
:1079A00030BD70B5028C4FF6EF731A400284048C20
:1079B0008288038B48F6FF452B400D8843EA052358
:1079C0004FF6DF752C400D894E88354344EA051487
:1079D000DFF8BC50A8421CBFDFF8CC50A84213D13E
:1079E0004FF67F752C404D8944EA05144FF6BF755C
:1079F0002C408D8844EA05144FF2FF352A408D89CA
:107A0000CE89354342EA850282800383C988018793
:107A1000048470BD0029018812BF41F001014FF6B6
:107A2000FE721140018070470029B0F8441012BF67
:107A300041F400414904490CA0F844107047002A61
:107A4000828914BF114322EA010181817047002914
:107A5000018812BF41F080014FF67F721140018012
:107A60007047028B4FF6F7731A401143018370473A
:107A7000028B4FF2FF731A4042EA012101837047E3
:107A8000818670470187704700BFC94301827047F4
:107A9000002C01400004004000080040000C0040A1
:107AA000001000400014004000340140004001403C
:107AB000004401400048014010B5DFF87C44182123
:107AC000201DFDF781FA40F2DC50E06010BDDFF8C8
:107AD0006C144FF400620A614FF480520A6100286E
:107AE00008680AD120F4404040F44050086008681B
:107AF00020F4402040F4403009E020F4804040F47D
:107B000030400860086820F4802040F4302008608D
:107B10007047DFF82404C0697047814204D24FF0F7
:107B2000FF32101A08187047081A704738B501213B
:107B30000D2000F029FF00F07EF800F077F800F04B
:107B400099F8102000F08DF800A92046FEF76CFC93
:107B500000F085F8DFF8E85300F064F800F05CF816
:107B60008DF8030000F05EF88020ADF800000420DE
:107B700000F06FF800F069F8082000F014F82046D3
:107B8000FEF752FC4FF4004000F00DF82846FEF7D7
:107B90004BFC10212046FEF7A5FC4FF480612846DF
:107BA000FEF7A2FC31BDADF8000010208DF80300F7
:107BB00003208DF8020000A9704770B582B0012142
:107BC0002D2000F0E1FE00F036F800F02FF800F074
:107BD00051F8012000F045F8DA4D00F023F800F0EC
:107BE0003EF8D74E00A93046FEF71EFC00F014F810
:107BF00000F025F80220ADF80000042000F01FF886
:107C000000F023F801212846FEF76CFC4FF4806158
:107C10003046FEF769FC73BD4FF48060ADF800009C
:107C20001020704700A92846FEF7FEBB01214FF443
:107C30000040FEF75BBC0121C348FEF757BC8DF83E
:107C4000030000A93046FEF7EFBB4020ADF800006E
:107C500048208DF8030000A92046FEF7E5BB4FF44D
:107C60004070ADF8000003208DF8020010208DF860
:107C7000030070470120ADF8000003208DF80200DA
:107C800010208DF80300B14C00A92046FEF7CCBBB4
:107C900030B589B005460C4652B100F04CF80121D0
:107CA000052000F071FE01210220FEF71FFC01E01B
:107CB00000F041F84FF44070ADF800001820FFF7D5
:107CC00075FF9F48FEF7B0FB681EADF81800ADF8D1
:107CD00014400020ADF81A00ADF816009C4C05A920
:107CE0002046FFF7DBFD6020ADF804000120ADF871
:107CF0000600042000F058F8039001A92046FFF781
:107D000011FE01A92046FFF74CFE08212046FFF78F
:107D1000A8FE08212046FFF7ABFE01212046FFF711
:107D200096FE01212046FFF775FE01212046FFF750
:107D30007BFE09B030BD01214FF4006000F02DBE84
:107D400000B585B00121012000F027FE2F20ADF8FD
:107D5000040042F20F7000F027F8ADF8060001A908
:107D60004FF08040FFF79AFD01214FF08040FFF770
:107D70006EFE012211464FF08040FFF760FE0121A8
:107D80004FF08040FFF746FE1C208DF800000020D9
:107D90008DF8010001208DF802008DF8030000A885
:107DA000FEF7FBFB05B000BDADF808000020ADF804
:107DB0000A00704767498860704766488068704766
:107DC0006448C068704764480178002904D163485A
:107DD000006800F0800203E06148006800F00202E1
:107DE0005C48438802D0022A05D101E0802A02D1F2
:107DF000002181805B1C9BB2192B24BF48F28001BB
:107E0000816001787AB98288192B05D223B1802349
:107E100083600A2A38BF491C521C828092B20A2A07
:107E200028BF002100230170438081881422514320
:107E3000C160704710B501214FF08040FFF724FE6C
:107E40003D4C6078411C022802D1FFF7BCFF0021A5
:107E500061704148007818B940480068C00902E0E4
:107E60003F480068400800F001002070002004EB4B
:107E700080014A6812B14A68521E4A60401C0628B6
:107E8000F5DBE069401CE06110BD10B5044645F229
:107E9000555000F0BDFD032000F0BDFD0A206043F9
:107EA0004003000C00F0BAFD00F0BBFD00F0BEFD89
:107EB000012010BD80B500F0B4FD012002BD80B5E9
:107EC00000F0DBFDFEF73EFBFFF777FE00F0BAFDAA
:107ED00000F0D4F9002000F010FA40F2F5118842C9
:107EE0000AD30020FFF7F3FDC820FEF735FB012081
:107EF000FFF7EDFD00F0EEFDFCF7CAF9FCF704FB1F
:107F0000FFF74EFCFFF71CFF012200214FF4166023
:107F1000FFF7BEFEFEF72CFAFDF704FDFCF72EF985
:107F2000FFF7CAFD0B480021816040F6B830BDE87C
:107F30000240AAE700000000E02F002004080140F2
:107F4000000801400014014000023000000C014014
:107F5000002C0140103000206A300020080C014045
:107F6000080801404FF0807C1CEB400F94BF1CEBD5
:107F7000410F05E040EA010C5FEA4C0C01D281425E
:107F8000704718BF884270474FF0807C1CEB400F51
:107F900094BF1CEB410F05E040EA010C5FEA4C0C7A
:107FA00001D28842704718BF8142704790EA010FA2
:107FB00044BF81F0004100F0DFB900BF421A3CBF6E
:107FC000801A89184FF0004CC0F3C752FF2A24D002
:107FD000C1F3C75313B3D21AD2F1190327DD4CEA08
:107FE00001214CFA03F321EA0303D140C20D4CEA0C
:107FF0000020401834BF20EA0C004CEA5000D205A3
:1080000053EA006373EB0C0C52EB1020420012F1A8
:10801000807F38BF7047C00DC0057047490212BF4E
:108020009A4200EB5120F8E7D2F11703D9D57047F7
:10803000002840F10980F446404200F005F850F075
:1080400000406047002800BF0AD0B0FA80F18840A5
:10805000D1F19D01C905020672F1004241EB1020E9
:108060007047000010B5FF2313EAD0541DBF13EA78
:10807000D1529C429A4239E0A41ADA0780EA0103FD
:10808000134042EA012142EA0020421A3CBF641E2A
:1080900001EB4202090AB2FBF1FE01FB1E221202B1
:1080A000B2FBF1F001FB10226EF30F201202B2FBC3
:1080B000F1FE4EEA00207F3406DDFE2C24DA53EA7E
:1080C000500050EBC45010BDD4F1020401FB1E223D
:1080D00040F08071192C1DDC21FA04F0C4F1200459
:1080E000A140114371F10042584110BD9C421ABF9A
:1080F00003EAD1529A420FE080EA010E0EF00043EB
:10810000400004D0490016D143F0FF4010BD4900A3
:1081100008BFD343180010BD9C4205D1D21AF7D036
:1081200001F00041484010BD4A0212BF08464840D5
:1081300000F0004010BD4AB90902B1FA81F2914045
:1081400044B1A418C00140F000409EE7C90141F0CD
:10815000004152420002B0FA80F4A040141B94E7A0
:10816000FF2212EAD05C1DBF12EAD153944593421C
:108170002BE09C44D30780EA01021A4043EA002026
:1081800043EA0121A1FB0030410038BF40007CF1EF
:108190007F010BDBFE294ADA5B0842EAC15153EA50
:1081A000006373F1004C51EB10207047D1F1080CC3
:1081B000DCF120012FDB5B0810FA01F10B4373F1B6
:1081C000004120FA0CF05041704794451CBF02EA70
:1081D000D153934280EA010202F000421DD04000D8
:1081E00019D0490017D05BB9634514D00902B1FA20
:1081F00081F39940BCEB030CC00140F00040C1E7A3
:108200000002B0FA80FC10FA0CF0B3EB0C0CC901C0
:1082100041F00041B6E71000704740000AD0490025
:1082200008D010F1807F94BF11F1807F02E042F00E
:10823000FF407047D04370474100090E7F3915D485
:10824000D1F11F0114D4400007D2C00140F000401A
:10825000C84048BF6FF000407047C00140F0004088
:10826000C8404CBF4FF0004040427047002070476C
:1082700000424FF0004058BFC043704710B586B071
:1082800001214FF4007000F07FFB4FF4004000F03C
:1082900076FB0D20ADF8000000208DF8030000A94A
:1082A0002848FEF7C1F8284C204600F023FC0020A7
:1082B0000190ADF808004FF4602003900020049076
:1082C00001208DF8140001A9204600F03CFC01219A
:1082D000204600F056FC204600F05CFC204600F0F2
:1082E0005EFC0028FAD1204600F05CFC204600F03D
:1082F0005EFC0028FAD106B010BD10B5124C18B9BA
:108300000723012200210AE0022803D107230122CA
:10831000022104E0032805D107230122032120467E
:1083200000F053FC0121204600F046FC02212046CB
:1083300000F098FC0028F9D02046BDE8104000F07D
:1083400083BC0000000801400024014038B500242F
:108350000A250320FFF7D1FF04196D1EF9D10A2069
:10836000B4FBF0F080B232BD90EA010F44BF81F05F
:108370000041FFF723BE00BF431A4FF000423EBF4B
:108380005340C01AC91800BFD3095FEAD05C13EB91
:10839000400F34BFB3EB410F40E07CEBD1530CD323
:1083A00042EA012122D8D1EB402009D3400A28BF5C
:1083B0005FEA500140EBCC507047401A15D04002A4
:1083C000B0FA80F2521C9040400A4FEA3C23B3EBD3
:1083D000026384BF00EB730007E040F400001A164C
:1083E000DB07C2F10102D04018437047182BFCDCB8
:1083F00031FA03F202FA03F3591A38BF42F00102CC
:10840000D2EB40203CBF4000ACF1010C5FEACC5CF9
:10841000C20572F100414CEB5020704713EB400F46
:108420000FD24B0009D0ACEBD153022B03DB490236
:10843000172BDDDD70479143401A4300D5D1002052
:10844000704713EB410FD0D36FF00000704700006E
:108450005FF0FF0C1CEAD05114BF614506E0C1106B
:10846000400721F0E04101F16051704779B900F017
:10847000004100020AD0B0FA80FC00FA0CF001F1D1
:108480006051A1EB0C5101EBD02140057047410236
:108490000CBF40F4E0016FF00001002070470000C5
:1084A000B0B581EA030C0CF0004C40F2FF7515EA00
:1084B00011541DBF15EA1357AC42AF4239E0E4191D
:1084C00023EA455343F48013C90241F0004141EAD5
:1084D000505EC7021100A7FB020200284FF0000007
:1084E000EEFB01204FF00001E3FB072118BF42F033
:1084F0000102401800214941E3FB0E01A4F580640C
:108500000F0302D252004041494154F101046CDD95
:10851000470872F1004250F1000051EB0451A1F5FF
:1085200080115CBF41EA0C01B0BD4CEA055100204E
:10853000B0BD05EA1357AC4214BFAF4241E050EA68
:10854000410E1CBF52EA430E02E061460020B0BD5E
:1085500024423C441BD15FEA070EF6D0090302BF58
:1085600001460020AEF1140EB1FA81F7AEEB07041C
:1085700001FA07FE0C37C7F1200100FA07F7C840DF
:108580004EEA000E23EA455343F48013A2E733F08A
:108590000043B3FA83F704BFB2FA82FE77440B3F7D
:1085A000E41BB7F1200E2FBF02FA0EF3BB40C7F158
:1085B000200E22FA0EFE38BF43EA0E03BA40641CB6
:1085C00082E750EA410E14BF52EA430E6FF00001F9
:1085D0004FF4001717EB430F8ABF194617EB410FF3
:1085E000B5E74CEA05510020B0BDD4F10104B4F167
:1085F00020070FDAC4F12007520828BF42F0010219
:1086000010FA07F501FA07F7E1BF2A43E0403843C3
:10861000E1400FE0352C98DCC7F1200452EA40021B
:1086200020FA07F218BF42F0010231FA07F0A14028
:108630000A43002172F1004250F1000051EB0C019D
:10864000B0BD0000F0B540F2FF7581EA030C0CF0FC
:10865000004C15EA11541DBF15EA1357AC42AF4246
:10866000E5E0BC41C1F31301C3F31303801A994140
:1086700043F4801304D2641E4000494180185941DC
:10868000C90241EA5051B1FBF3F603FB1611A2FBFC
:108690000675D7EBC020A94102D2761E8018594139
:1086A000C90241EA5051B1FBF3FE03FB1E11A2FBCC
:1086B0000E75D7EBC020A94103D2AEF1010E801890
:1086C0005941890241EA9051760546EA8E2EB1FB66
:1086D000F3F603FB1611A2FB0675D7EB8020A94128
:1086E00002D2761E80185941C90241EA50514EEA21
:1086F000060EB1FBF3F603FB1611A2FB0675D7EBD2
:10870000C020A94102D2761E80185941C90241EA0F
:108710005051B1FBF3F703FB1711A2FB0735D3EB65
:10872000C020A94167F100070CBF004247F00107D4
:1087300066F3D5274FEA1E31B80814F5806412DDC0
:10874000BD0775F1004250EB0E5051EB045111F58D
:10875000801F5CBF41EA0C01F0BD4CF07F6141F02D
:10876000E0410020F0BDBD076D0840EA0E5041F425
:108770008011D4F10104B4F120060ADAC4F1200614
:108780000200E04001FA06F3E1401843B24015430D
:108790000EE0342C13DCC6F1200445EA40056D08D8
:1087A00020FA06F2154321FA06F0A1400D430021FC
:1087B00075F1004250F1000051EB0C01F0BD0020BA
:1087C0005FEA0C01F0BDCFB992185B41B3FA83F7B1
:1087D00004BFB2FA82F6BF190B3FB7F120062FBFD4
:1087E00002FA06F3BB40C7F1200622FA06F638BFAC
:1087F0003343BA401CB1E419641E33E77F4231F0C1
:108800000041B1FA81F404BFB0FA80F6A4190B3C20
:10881000B4F120062FBF00FA06F1A140C4F12006F2
:1088200020FA06F638BF3143A0403C1B1AE7AC42A1
:108830001ABF05EA1357AF4212E050EA41061CBFC7
:1088400052EA4306BFE750EA4107304661461CBF83
:1088500041EA0551F0BD52EA430C08BFC143F0BDE7
:1088600000204FF4001616EB410F98BF16EB430F94
:1088700008BF16EB410F24BFC14305E016EB430FC1
:108880000CBF61464CEA0551F0BD00004FEAF17C97
:10889000BCF1E04C2CBFBCF5001F11E05FEA4C0CB2
:1088A00034BFBCF17F5F2EE05FEA9C0C4FEA0C1CEA
:1088B0004FEA3C0CC10071F100414CEB5070704725
:1088C000C90241EA5051C00218BF41F0010141F014
:1088D00000414FEA6C50C0F10900212810D240EA53
:1088E000CC7CCCF1200C11FA0CF070F10040CCF1F2
:1088F000200C21FA0CF00CF0004C40EB0C007047FF
:108900004FEACC707047490011F5001F04D84FEAB8
:10891000CC10FF30C0057047C81770473248016857
:1089200041F0010101604168304A11404160016835
:108930002F4A11400160016821F4802101604168E3
:1089400021F4FE0141604FF41F0181607047294905
:108950000860704729490860704727490A689208EB
:1089600050EA8200086070472348006800F00C005D
:1089700070471043086070472149086070471E49DE
:108980000A6822F44042F4E71E4A0029116814BF25
:10899000084321EA0000106070471B4A0029116853
:1089A00014BF084321EA000010607047174A0029ED
:1089B000116814BF084321EA0000106070470021CD
:1089C0004209094B012A08BF1A6803D0022A0CBFCA
:1089D0001A6A5A6A012300F01F0003FA00F00242EB
:1089E00018BF012108467047001002400000FFF840
:1089F000FFFFF6FE000042420410024060004242C7
:108A0000D8004242181002401C1002400C100240D4
:108A100009490860704709490860704708490860BB
:108A2000704705484AF6AA210160704702484CF693
:108A3000CC4101607047000000300040043000402D
:108A40000830004080B54FF480414FF00060FDF7E2
:108A5000D0FD4FF4A060FDF79BFD14208DF80000C1
:108A600002208DF8010000208DF8020001208DF811
:108A7000030000A8FDF791FD01BD80B5FFF74EFF93
:108A80001020FCF7ADF80120FCF7A4F80F4841686E
:108A90000F4A11434160016841F08071016001207B
:108AA000FFF755FF0120FFF755FF3920FFF787FF3C
:108AB0000028FAD00220FFF750FFFFF755FF0828E3
:108AC000FBD10120BDE80240FFF756BF0010024075
:108AD0000A8468000448C0610221017203490162EE
:108AE000034A426208680047B82F00204C03002068
:108AF000CC03002080B55649884208D101214FF4AB
:108B00000070FFF753FF00214FF4007016E0514949
:108B1000884208D101214FF48060FFF747FF002110
:108B20004FF480600AE04C4988420BD101214FF498
:108B30000040FFF73BFF00214FF40040BDE8044038
:108B4000FFF734BF01BD4268444B1A400B681A431B
:108B50000B7942EA032242608268414B1A40CB689B
:108B60001A438B681A434B7942EA43028260C26A15
:108B700022F47002097C491EC9B242EA0151C16265
:108B800070470029816812BF41F00101490849007E
:108B900081607047816841F008018160704780689A
:108BA000C00806E0816841F0040181607047806878
:108BB000800800F0010070470029816814BF41F46B
:108BC000A00121F4A0018160704770B507240A2933
:108BD0000BD3A1F10A0505EB4505C668AC4026EAB2
:108BE0000404AB402343C36008E001EB4105066980
:108BF000AC4026EA0404AB40234303611F23072A49
:108C00000AD2521E02EB8202446B934024EA030311
:108C100091401943416370BD0D2A0AD2D21F02EB65
:108C20008202046B934024EA0303914019430163D9
:108C300070BD0D3A02EB8202C46A934024EA03033A
:108C400091401943C16270BDC06C80B27047000092
:108C50000024014000280140003C0140FFFEF0FFDD
:108C6000FDF7F1FF00220068084218BF01221046FC
:108C70007047000080B500F0F8F88B4800680021CC
:108C8000817200F031F98948002141604FF40441BC
:108C9000874A1180016087480021016001BD10B53D
:108CA000854800218172804800688449C9794172F1
:108CB0000020FCF7BFF94FF400710020FCF7C1F968
:108CC00020210020FCF7C7F918210020FCF72AFA20
:108CD0007B4C00F042F858210020FCF722FA0020DB
:108CE000FCF7EDF90020FCF7DEF900210120FCF78C
:108CF000A8F998210120FCF714FA20210120FCF7A3
:108D0000AAF900210120FCF7B7F900210220FCF7A5
:108D100098F9D8210220FCF705FA94F82C100220CB
:108D2000FCF716FA4FF440510220FCF7A5F9002198
:108D30000220FCF790F900F010F80020FCF7B3F9DE
:108D40000020FEF722F85B48012101605D485E4982
:108D500001605E480021017010BD94F82C100020C5
:108D6000FCF7F6B950480068807A00B9704780B5C2
:108D70005048052101600120FCF7C2F90220FCF7F0
:108D8000ADF952480021017001BD4E4800684E49BE
:108D900088421CBF0220FCF765BB70474548042190
:108DA000016070477047704780B53F4909680A788D
:108DB00002F07F02212A08BFFE280BD14888002834
:108DC00001BF88880028C888012803D10FF28900D4
:108DD000020001D1022002BD88610020488200F01B
:108DE0003BF8002002BD80B52F4909680A7802F0DF
:108DF0007F02212A08BFFF2815D14888002804BF18
:108E0000888800280FD1C88868B90120FCF778F954
:108E10000220FCF763F92B482B4901602B48002105
:108E20000170002002BD022002BD00290CBF0028F5
:108E3000022070472649FDF746BD2649FDF743BD90
:108E400019490968C978062901DB00207047224AC0
:108E500002EBC101FDF737BD28B9134800680121B5
:108E60000182002070471D4870471D480168426814
:108E7000806801B9704710B51A4B99700C0A1C71C3
:108E80000C0C9C71090E19729A72110A1973110C4B
:108E90009973110E19749874010A1975010C99755A
:108EA000000E187610BD0000D42F0020405C00405A
:108EB0006830002054300020B82F0020FC930008B8
:108EC0004C0300208C2F002055534243AC2F002030
:108ED00078040020800400207C0300205030002013
:108EE000E8F7FF1FF0030020064801210160002180
:108EF000016041604FF4E051034A1180FFE70160D7
:108F000000207047405C0040683000208168C268E3
:108F100091420BD107E002681168891853685B1809
:108F2000C36008320260C2689142F4D04A1C826079
:108F3000087870472DE9F04D88B000F108010391E1
:108F400001684A08039B03EBC202049200220592C7
:108F5000069200EB810101F10806406800F0010172
:108F60000291400806EBC00001900024154601E084
:108F7000AC4205D10198864202D108B0BDE8F08D1F
:108F800000F077F8074617F0030803D100F071F8F6
:108F900000F10308381100900F2819D100F069F88A
:108FA0000F30009014E000F064F88246AC420DD11E
:108FB0000198864208BF00F05EF83468029800B15C
:108FC0004C44706805190836AC42F1D004F801AB86
:108FD000B8F10108E7D100980028C9D000F049F89D
:108FE0008046B81000F00300032804BF03A8FFF771
:108FF0008DFF37462146AB4608EB002006E0801A7D
:10900000083F79683A6801EB020B59463A688A1AB8
:109010008242F4D3404200EB010A4FF0000805E021
:109020009DF81C0004F8010B08F101080098801C51
:1090300080459DD0DA4507D157F804AB57F8040BAB
:1090400000EB0A0BDA45F7D01AF8010B8DF81C007B
:10905000AC42E5D10198864208BF00F00CF83468B4
:10906000029800B14C44706805190836AC42F1D042
:10907000D6E703A84AE7012000F000B8C046C04682
:10908000024A11001820ABBEFBE700BF2600020019
:109090002DE9F84F0020ADF8000040F68F7848F633
:1090A0000F7B48F28006444F444CDFF81491DFF800
:1090B00014A14BF6BF7525E054F82010ADF8001050
:1090C000BDF8001009040BD554F8201008EA01017E
:1090D00044F820103C4901EB800050F8040C804714
:1090E000BDF8000000060DD599F8000054F82010D6
:1090F0000BEA010144F82010344901EB800050F8DC
:10910000040C8047606CAAF80000000452D5BAF83D
:10911000000010F00F0089F80000CDD120683880E1
:10912000388800F030007880388800F4405038806B
:109130002068284080F4005080F0200030432060F8
:10914000BAF80000C006206805D40BEA00002060D1
:10915000FDF7C0FD16E0ADF80000BDF80000000509
:1091600006D5206808EA00002060FDF77FFD09E0D1
:10917000BDF800000004C5D5206808EA00002060A2
:10918000FDF7CBFD206828403988C90448BF80F42A
:1091900080503988890448BF80F400507988C90616
:1091A00048BF80F010007988890648BF80F0200011
:1091B00030432060BDE8F18F5C300020005C00404F
:1091C0006C30002064300020280400200C040020B3
:1091D0002E48016841F00101016041682C4A1140AC
:1091E000416001682B4A11400160016821F480212F
:1091F0000160416821F4FE0141604FF41F0181606C
:109200000021026842F4803202600268491C920325
:1092100002D4B1F5A06FF8D10168890330D51E4999
:109220000A6842F010020A600A68920892000A6016
:109230000A6842F002020A60416841604168416088
:10924000416841F480614160416821F47C114160D2
:10925000416841F4E8114160016841F080710160AA
:1092600001688901FCD5416889088900416041682D
:1092700041F002014160416801F00C010829FAD176
:1092800006484FF000610160704700000010024086
:109290000000FFF8FFFFF6FE0020024008ED00E0AE
:1092A0005374617274416E676C650000476561724A
:1092B000000000004D6F746F7254696D65436E74E9
:1092C00000000000566572005374617274416E674D
:1092D0006C653D3200000000476561723D30000062
:1092E0004D6F746F7254696D65436E743D3000004C
:1092F0005665723D312E3600202020202020232864
:10930000327E3130290D0A0020202020202020200C
:10931000202020202328307E34290D0A0000000060
:109320002020202023526561644F6E6C790D0A0065
:10933000202020202020202020202023526561642E
:109340004F6E6C790D0A000000F005F8FEF7B2FDD3
:10935000FDF7FCFFFAE710B5FFF78FFBFDF7F2F81A
:10936000FEF7E4FBFFF76EFBFEF788FF0020FEF739
:10937000C4FF40F2F51188420AD30020FEF7A7FB94
:10938000C820FDF7E9F80120FEF7A1FBFFF7A2FBDB
:10939000FAF77EFFFBF7B8F8FEF702FAFEF7D0FC0B
:1093A000002200214FF41660FEF772FCFCF7E0FF8C
:1093B000FCF7B8FAFAF7E2FEFEF77EFB0020FEF7B4
:1093C000F9FC40F6B830FEF760FD064CFDF71CFDD9
:1093D00010B10020207010BD01202070BDE81040A9
:1093E000FEF76DBD6A30002012010002000000404F
:1093F000830420570002010203010000090220003B
:10940000010100C0320904000002080650040705EB
:109410008102400000070502024000000403090425
:109420002603530054004D006900630072006F0072
:1094300065006C0065006300740072006F006E00D0
:1094400069006300730000002603530054004D00C0
:109450003300320020004D006100730073002000D3
:10946000530074006F007200610067006500000027
:1094700010035300540020004D006100730073007E
:1094800070B50D4C0D4D286820800D4E2088318818
:109490000840400505D50B48406880474FF6FF302F
:1094A0002860208831880840000444BFBDE870402F
:1094B000FFF7EEBD70BD000064300020445C00404A
:1094C000683000204C030020FBF792BEFBF7B1BED2
:1094D00010B5074979441831064C7C44163404E031
:1094E000081D0A68511888470146A142F8D110BDED
:1094F0000800000030000000EBB7FFFFD42B000095
:109500009C040020000000002DFAFFFF0200000074
:10951000020000008401000056010000000000204D
:109520009B0400007047FEE7FEE7FEE7FEE770479A
:10953000704770477047FFF7A3BF000000F009F8BD
:10954000002801D0FFF7C4FF0020FFF7FDFE00F068
:1095500002F80120704700F001B8000007463846C5
:10956000FFF78CFDFBE700000148804701480047FA
:10957000D191000879950008C046C046C046C04653
:10958000FFF7DCFFFFF7CEBFFFF7CDBFFFF7CCBF84
:10959000FFF7CBBFFFF7CABFFFF7C9BFFFF7C8BFD1
:1095A000FFF7C7BFFFF7C6BFFFF7FEBFFFF7FEBF5E
:1095B000FFF7FEBFFFF7FEBFFFF7FEBFFFF7FEBFDF
:1095C000FFF7FEBFFFF7FEBFFFF7FEBFFFF7FEBFCF
:1095D000FFF7FEBFFFF7FEBFFFF7FEBFFFF7FEBFBF
:1095E000FFF7FEBFFFF7FEBFFFF7FEBFFFF7FEBFAF
:1095F000FFF7FEBFFFF7FEBFFFF79DBFFFF7FEBF00
:10960000FFF7FEBFFFF7FEBFFFF7FEBFFFF7FEBF8E
:10961000FFF7FEBFFFF7FEBFFEF70CBCFFF7FEBF74
:10962000FFF7FEBFFFF7FEBFFFF7FEBFFFF7FEBF6E
:10963000FFF7FEBFFFF7FEBFFFF7FEBFFFF7FEBF5E
:10964000FFF7FEBFFFF7FEBFFFF7FEBFFFF7FEBF4E
:10965000FFF7FEBFFFF7FEBFFFF7FEBFFFF7FEBF3E
:10966000FFF7FEBFFFF7FEBFFFF7FEBFFFF7FEBF2E
:10967000FFF7FEBFFFF7FEBFFFF7FEBFFFF7FEBF1E
:10968000FFF7FEBFFFF7FEBFFFF7FEBFFFF7FEBF0E
:10969000FFF7FEBFFFF7FEBFF2FF0001F1DE011092
:1096A00003A0920008AC0412B40412C40C120A14F1
:1096B000500AFC0404030101030404FCFF8001A21E
:1096C000FF1432A001C11432B001C11432B801C17B
:1096D0001432BC01C11432BE01C11432BF012114C5
:1096E000C00484838181838414C004C4C3C1C1C302
:1096F000C414C004E4E3E1E1E3E414C004F4F3F1CE
:10970000F1F3F4503003143361E1C3503003848E1D
:109710008F9BA1DC3003E4332121333CF406038327
:1097200084B8B8848380FF2C16C82412D80412E0B1
:109730000412F00416F830100308930008200412F5
:1097400030041003758C00089F041003A58D0008D9
:10975000A70412A90412E70C10032B8E000835048D
:10976000123B0412410C257812400410031C940093
:1097700008040C12200816268C5248081403F00323
:1097800000201A9C12701812102CB401312E36B41D
:10979000520208D601CC1003056E000865708305DF
:1097A0006E04928B10129D8CB00D1A03530054005E
:1097B0004D0033003200310030E0F00409C994005C
:1097C00008056E04F206CD204A704BFA000A5DF2DD
:1097D0000064126208C016E8382A126C2540211A6B
:1097E0004206C41203D516031C000111010000003B
:0400000508009579E1
:00000001FF
