:020000040800F2
:1040000098390020B99B0008759B0008779B000831
:10401000799B00087B9B00087D9B00080000000046
:104020000000000000000000000000007F9B00086E
:10403000819B000800000000839B0008859B00080E
:10404000F99B0008FD9B0008019C0008059C0008E6
:10405000099C00080D9C0008119C0008159C000894
:10406000199C00081D9C0008219C00088779000805
:10407000299C00082D9C0008319C0008359C0008F4
:10408000399C00083D9C0008ED780008459C00081C
:10409000879B00084D9C0008519C0008559C000817
:1040A000599C00085D9C0008619C0008659C000804
:1040B000296D00086D9C0008719C0008759C000823
:1040C000799C00087D9C0008819C0008859C000864
:1040D000899C00088D9C0008919C0008959C000814
:1040E000999C00089D9C0008A19C0008A59C0008C4
:1040F000A99C0008AD9C0008B19C0008B59C000874
:10410000B99C0008BD9C0008C19C0008C59C000823
:10411000C99C0008CD9C0008D19C0008D59C0008D3
:10412000D99C0008DD9C0008E19C0008E59C000883
:10413000704738B504460D46DFF81C0800F0C6FD90
:1041400005281CBF342000F0A0FD29462046BDE80C
:10415000344000F081BD10B50446A0050DD1DFF854
:10416000F80700F0B3FD05281CBF342000F08DFDDA
:104170002046BDE8104000F053BD10BD00B583B02F
:10418000DFF8D80700A90CC80CC10A22002100A83A
:1041900000F048FE64214843DFF8C417086001209E
:1041A0000EBD70B50024DFF8BC57DFF8BC074269CC
:1041B00063A1284600F060FE00F020FDDFF89C6758
:1041C0003046FFF7C8FF35F8021B3019FFF7B1FF83
:1041D000042803D000F01CFD042070BDA41CB4F51D
:1041E000007FF0D310E310B5DFF87C4719B1022946
:1041F0000FD00AD310BD01784078302806BF31298E
:104200000A20A1F13000207410BD007830386074AD
:1042100010BD0A22002100F005FE606110BD10B53E
:10422000DFF8444729B102291FD013D3032925D031
:104230000EE04178302902D10278312A2AD1313971
:10424000C9B2092926D300783238C0B2082821D251
:10425000012010BD41783139C9B209291AD300783B
:104260003038C0B20628F3D314E00A22002100F04F
:10427000D9FD80B261698842EAD00BE021780278EA
:10428000914202BF61784278914202BFA178807862
:104290008142DDD0002010BD10B54FF41852DFF878
:1042A000CC16DFF8CC0600F011FEDFF8C8060021BE
:1042B00000220B460C461EC010BD10B5002208E0BF
:1042C000135CA3F16104E4B21A2C3CBF203B1354ED
:1042D000521C8A42F4DB10BD2DE9FF4180460E4698
:1042E000DFF88C4604F2004710250B22394601A85E
:1042F00000F0DCFD0B2101A8FFF7DFFF0B22414698
:1043000001A800F013FE98B907F11C000178317084
:104310004178717007F11A0000A902780A7042789A
:104320004A70BDF8000004EB402000F5007003E087
:1043300020376D1ED9D1002004B0BDE8F081000007
:10434000256400002DE9F14FE4B088464FF00009E4
:1043500000248C2141A800F01BFEDFF81C664FF4FE
:1043600000726499304600F0A1FD4F4600252320DD
:1043700041A900FB071A05E0232D3CBF05F80A0000
:104380006D1C641C304600F007FE844206D2A05D1E
:104390000D2802BFA11949780A29EDD105F80A9024
:1043A000A41C7F1C042FE1D30027DFF8C85506EBBF
:1043B00087000090D0F80042204600F0EDFD05EBAC
:1043C000870A232141AA01FB072B024621465846B2
:1043D00000F0ACFD00284CD10098D0F8000200F0AD
:1043E000DBFD044604E0202818BF3D2841D1641CB1
:1043F000584600F0D1FD84423BD214F80B00A0F1E6
:104400003001C9B20A2901D32E28ECD15C44F9B29B
:104410002046FFF704FF60B3287C18B9F9B22046A4
:10442000FFF7E1FE37B9DFF84005027C0FF2685173
:1044300041A81BE0012F07D1DFF82C05427C0FF2C9
:10444000685149A8C01C11E0022F07D1DFF81805F8
:1044500042690FF25C510DF5A57007E0032F1BD1E7
:10446000DFF804250FF258515BA8401C00F004FD52
:1044700012E0584600F090FD0146584600F0A8FDB5
:10448000DAF81440204600F087FD024621465846DF
:1044900000F00CFD4FF001097F1C042F87D3FE2193
:1044A00001A800F075FD0026232041A900FB06119C
:1044B00001A800F090FD05EB8600416A01A800F01C
:1044C0008AFD761C042EEFD301A800F065FDDFF80D
:1044D000A01401EB481282F81C04000A82F81D04A3
:1044E000649801F58061401A00F50070411200EBFC
:1044F000915080120121415501A800F04DFD024666
:1045000001A9649800F0D2FC484665B0BDE8F08F80
:104510002DE9F8430020ADF800000FF2AC4600AAE8
:104520000DF102013046FFF7D7FEDFF84444DFF813
:10453000448450B1BDF80010FFF704FF98F8101044
:10454000084343D000F01CF940E04FF418512046D6
:1045500000F01EFD04F580600ECE0EC00FF27466F2
:1045600006223146204600F0B1FC0622314604F511
:10457000007000F0ABFC0025002608EB8607D7F89A
:104580001490484600F008FD00F02EF8786900F01D
:1045900003FD4519D7F82490484600F0FDFC00F0D3
:1045A00023F8786A00F0F8FC4519761C042EE4D351
:1045B000002084F80B04DFF8C403C4F8160404F2E6
:1045C000164002210171857100F003F942F60C00DA
:1045D00001190022CA760A774A76025100208860C3
:1045E0000861C860BDE8F28302464946281900F513
:1045F000C06000F05BBC2DE9F04186B004460E4679
:10460000DFF86C73B6F5805F0AD14FF4007239465B
:1046100000F08CFC002871D000F075F838460EE0F0
:10462000B6F5205F0ED107F500754FF400722946EC
:1046300000F07CFC002861D000F065F8284600F00E
:1046400035FC5BE0CB4DB6F5804F30D107F200462C
:104650004FF40072314600F069FC00284ED000F0A3
:1046600052F8304600F022FC0120687010260FF24C
:1046700058370C22214600A800F018FC0B223946BE
:1046800000A800F053FC40B9A07E68820120687445
:10469000207F40B10120287030E02034761EE8D120
:1046A000687C0028F6D000206874288026E0A6F5F3
:1046B0000048B8F5005F21D8F019A0F5F4474FF491
:1046C00000723946204600F031FC20B100F01BF8A2
:1046D000384600F0EBFB688A4FEA5821891C81427A
:1046E00006D1811E89B23846FFF72CFE40B905E09D
:1046F000A6F5FC4005EB90200121417000F040F848
:1047000006B0BDE8F0814FF400722146704738B51D
:1047100004460D46FFF70CFD25B94FF400720FF269
:10472000B42121E09249B5F5805F08BF4FF40072D3
:104730001AD0B5F5205F04D14FF4007201F5007175
:1047400012E0B5F5804F04D14FF4007201F580619D
:104750000AE0A5F50040B0F5005F0AD84FF40072FA
:1047600005F1006101F58C412046BDE8384000F0BC
:104770009DBB4FF400712046BDE8344000F028BCDA
:10478000F8B500F03BFA00207A49425CD2B1002231
:1047900042548402754D2819FFF7DDFC7448261831
:1047A000002736F8021B38192818FFF7C2FC042826
:1047B00003D000F02DFA0420F2BDBF1CB7F5806FC6
:1047C000EFD302E0401C1028DFD300F021FA0020D4
:1047D000F2BD70B5664C00F011FA0025634E06EB91
:1047E0008520FFF7B8FC6D1C082DF8DB002534F898
:1047F000021B7019FFF79DFC042801D0042070BD36
:10480000AD1CB5F5006FF2DB00F002FA002070BDC0
:104810002DE9F04142F61804554D6619584F327A89
:104820002AB9400238604802786001203072307A3C
:10483000012831D1605978B905F5185839684046D2
:10484000FFF765FF40229821404600F0D2FB4FF46D
:10485000E070605140200CE040229821B868401977
:1048600000F5185000F0C5FB605940386051B86839
:104870004030B8604021012000F067FC3021012069
:1048800000F0EDFB38684030386078684038786078
:104890003C48816840398160786838B96051B860B7
:1048A000386039480321017000203072BDE8F08182
:1048B0002DE9F04142F61C042D4D62594032661933
:1048C000324F33792BB940023860480278600120BA
:1048D0003071307901282FD100202D490AE05B1971
:1048E00003F5185310F801C083F800C0401C635949
:1048F0005B1C635163599342F1D3DFF89880B8F899
:1049000000003968411839607A68101A7860C0056B
:1049100007D100206051A1F5007105F51850FFF78F
:104920006AFE18488168B8F80020891A81604FF43F
:104930004051022000F0A4FB786800281EBF1248F6
:104940000078042806D100206051012100F064FDA8
:1049500000203071BDE8F081A086010000E8000869
:1049600078040020FC2D00205804002000C000081E
:10497000C0050020F403002000000020188DDD4059
:104980005431002034310020D0300020603100202C
:1049900070300020D23000205374617274416E6711
:1049A0006C653D2564000000476561723D2564002B
:1049B0004D6F746F7254696D65436E743D2564006C
:1049C0005665723D25730000434F4E4649472020EF
:1049D00054585400EB3C904D53444F53352E300007
:1049E000020108000200025000F80C000100010062
:1049F0000000000000000000000029A298E46C45BF
:104A000053313230202020202020464154313220A2
:104A1000202033C98ED1BCF07B8ED9B800208EC047
:104A2000FCBD007C384E247D248BC199E83C01728A
:104A30001C83EB3A66A11C7C26663B07268A57FC42
:104A4000750680CA0288560280C31073EB33C98A88
:104A5000461098F7661603461C13561E03460E139F
:104A6000D18B7611608946FC8956FEB82000F7E6A6
:104A70008B5E0B03C348F7F30146FC114EFE61BF8A
:104A80000000E8E600723926382D741760B10BBEBD
:104A9000A17DF3A66174324E740983C7203BFB727B
:104AA000E6EBDCA0FB7DB47D8BF0AC9840740C4849
:104AB0007413B40EBB0700CD10EBEFA0FD7DEBE649
:104AC000A0FC7DEBE1CD16CD19268B551A52B00115
:104AD000BB0000E83B0072E85B8A5624BE0B7C8B6F
:104AE000FCC746F03D7DC746F4297D8CD9894EF23E
:104AF000894EF6C606967DCBEA030000200FB6C8A5
:104B0000668B46F86603461C668BD066C1EA10EBDE
:104B10005E0FB6C84A4A8A460D32E4F7E20346FC05
:104B20001356FEEB4A525006536A016A10918B46A7
:104B300018969233D2F7F691F7F64287CAF7761AAB
:104B40008AF28AE8C0CC020ACCB80102807E020E4A
:104B50007504B4428BF48A5624CD136161720B4004
:104B6000750142035E0B497506F8C341BB00006046
:104B7000666A00EBB04E544C445220202020202086
:104B80000D0A52656D6F7665206469736B73206FD3
:104B900072206F74686572206D656469612EFF0D07
:104BA0000A4469736B206572726F72FF0D0A50724E
:104BB00065737320616E79206B657920746F207244
:104BC0006573746172740D0A00000000000000AC8F
:104BD000CBD855AAF8FFFFFFFFFF0000DFF8D41085
:104BE0000A6802F0380206E0DFF8C8100A6822F00E
:104BF00010020A600A68104308607047FFE7DFF898
:104C0000B800DFF8B8100160DFF8B4100160704739
:104C1000FFE7DFF8B000016841F0800101607047F4
:104C200038B5054600F015F804280DD1DFF894409A
:104C3000206840F002002060656000F006F82168FE
:104C400041F6FD721140216032BD206840F0400005
:104C500020604FF4302039E070B504460D4600F076
:104C600011F804280CD1174E306840F00100306074
:104C7000258000F007F8316841F6FE72114031607E
:104C800070BD08804FF4005020E00F490860704765
:104C900004200D490A68D20701D5012070470A682F
:104CA000520701D5022070470968C90648BF032092
:104CB00070470000002002400420024023016745A5
:104CC000AB89EFCD102002400C20024010B5FFE769
:104CD0000446FFF7DDFF03E02CB1FFF7D9FF641EA8
:104CE0000128F9D004B9052010BD50F8041B61B1AA
:104CF00050F8042BD30744BFA9F101039A180023ED
:104D000042F8043B091FFAD1EFE770472DE9F04F55
:104D100085B080460D4614461E001CBF0020306042
:104D2000474600E07F1C387800F0B7FB0028F9D137
:104D300038782D2816BF2B2817F8019B4FF02B0928
:104D4000002C44D4012C42D0252C40DA012C0ADB63
:104D5000102C04BF3878302802BF787840F020004B
:104D600078280ED10AE03878302818BF0A2408D1F4
:104D7000787840F02000782802D11024BF1C00E091
:104D80000824039700E07F1C38783028FBD04FF0D0
:104D9000000A02970FF290008DF8040009E0CDF8A8
:104DA00000A09DF80410401A5FFA80FB04FB0ABAC9
:104DB0007F1C387800F07BFB224601460FF268002A
:104DC00000F080FB0028EAD10398B84204D10DB16D
:104DD000C5F80080002022E00298381A0FF2700116
:104DE000615C401A13D4012807DABAEB0B0004D334
:104DF000B0FBF4F00099884209D000F08FFB22212B
:104E000001600EB1012030604FF0FF3A04E0B9F1CB
:104E10002D0F08BFCAF1000A05B12F60504605B03A
:104E2000BDE8F08F002371E7303132333435363747
:104E300038396162636465666768696A6B6C6D6E58
:104E40006F707172737475767778797A00000000EC
:104E500000002115110E0D0C0B0B0A0A0909090996
:104E600009080808080808080707070707070707C9
:104E700007070707070000000CB41CB5044604A888
:104E80000190009401AB0A4600A907487844183005
:104E900000F04AFB009900220A7000285CBF0098CD
:104EA000001B16BC5DF80CFB7B00000062B38B0797
:104EB00008D0521E11F8013B00F8013B00F024809D
:104EC0008B07F6D1830740F0208000BF103A07D34C
:104ED00030B4B1E83810103AA0E83810F9D230BC3C
:104EE000530724BFB1E80810A0E8081044BF51F8E8
:104EF000043B40F8043BD20724BF31F8022B20F8D2
:104F0000022B44BF0B7803707047083A07D3B1E80F
:104F10000810083A40F8043B40F804CBF7D2530796
:104F2000E4E70268531C036011707047030000201F
:104F300013F0030F09D0521E22BF13F8010B11F812
:104F400001CBB0EB0C00F3D07047121F22BF53F817
:104F5000040B51F804CB6045F7D0121D0AD200BAF9
:104F60009CFA8CFCB0EB0C0038BF6FF0000088BFDF
:104F700001207047521E22BF13F8010B11F801CB1C
:104F8000B0EB0C00F6D0521C08BF10467047000072
:104F9000002200F057BB000000F10103810704D09C
:104FA00010F8011B89B18107FAD10268B2F1013111
:104FB000914311F0803F04BF50F8042FF6E710F83A
:104FC000011B11B110F8011BFBE7C01A704700006C
:104FD000002200F051BB024600E0521C1378002B67
:104FE000FBD111F8013B137012F8013B002BF8D1F3
:104FF000704710B5490001F1804101F5C041521CD4
:10500000521009E010F8013B10F8014B43EA042369
:1050100021F8023B891C521EF4D110BD490001F158
:10502000804101F5C041521C521004E051F8043B8C
:1050300020F8023B521EF9D1704700004FF6F8717C
:105040000840DFF890110860704710B5DFF888213C
:1050500052F8203048F68F142340194324E010B54D
:10506000DFF8742152F8203048F6BF742340CC0694
:1050700048BF83F01003890648BF83F020030FE088
:1050800010B5DFF8542152F820304BF68F742340CE
:10509000CC0448BF83F48053890448BF83F4005391
:1050A00043F4004141F0800142F8201010BDDFF8C8
:1050B000281151F820204BF68F731A4082F4405289
:1050C00042F4004209E0DFF8101151F8202048F6C0
:1050D0008F631A4042F40042FFE742F0800241F839
:1050E00020207047DFF8F01051F8202052040AD534
:1050F00051F8202048F68F731A4042F4404242F0A3
:10510000800241F820207047334951F82020520690
:105110000AD551F8202048F68F731A4042F4004215
:1051200042F0C00241F82020704738E0294A126856
:1051300092B202EBC000294A37E03BE025490968FA
:1051400089B201EBC00025493AE0224A126892B2C6
:1051500002EBC000224A2AE01E4A126892B202EB19
:10516000C000204A02EB40003F2909D34A091F230F
:10517000194208BF521E1204910941F4004105E092
:105180004A08C90748BF521C1204910901607047C0
:105190001049096889B201EBC000124914E00D4AB8
:1051A000126892B202EBC0000F4A4908490042F867
:1051B000101070470749096889B201EBC0000A491D
:1051C00051F8100080B2704751F810008005800D32
:1051D00070470000505C0040005C004008600040E8
:1051E000046000400C600040006000400106090CB3
:1051F00041EA10207047000080B5964890F82010D2
:10520000022909D018D3042902D00ED3052913D1BD
:10521000002180F820100CE0C17B28290CD1816A84
:10522000406ABDE8044000F09ABA0121002000F075
:10523000F3F84FF440512BE101BD38B5854CE57BC7
:105240000220FFF7A5FF60840246D8218248FFF7BD
:10525000E5FE94F8200010B1012803D00AE0BDE873
:10526000314013E02A2D06D1A16A606ABDE83440BE
:1052700000F09FBA022000F0F9F82421052000F088
:1052800069FA00210220BDE83440C5E010B5714C38
:10529000628C1AB170492046FFF718FE6F486168AA
:1052A0004160A1688160608C1F2806D0022000F058
:1052B000DDF8002020601A218DE0E27B282A18BF4B
:1052C0002A2A0FD1607CA17C090441EA0060E17CBC
:1052D00040EA0120217D08436062A07DE17D41EA32
:1052E0000020A06220685E49884270D15D48006855
:1052F000617B884204D3A07B401EC0B2102804D337
:10530000022000F0B3F8242165E0606AA16A002A57
:1053100049D0032A2BD0082A18BF0A2A53D0122AB0
:1053200029D0152A4FD01A2A2DD01B2A27D01D2A62
:1053300049D01E2A23D0232A2DD0252A2FD0282A2F
:1053400035D02A2A37D02F2A39D0552A3BD05A2A8D
:105350001DD0882A18BF8A2A35D08F2A18BF9E2AC6
:1053600031D0A82A1CBFAA2AAF2A2CD02FE0BDE832
:10537000104000F0E7B9BDE8104000F0ADB9BDE85D
:10538000104000F0EBB9BDE8104000F0D3B9BDE823
:10539000104000F0D3B9BDE8104000F0ACB9BDE852
:1053A000104000F0B7B9BDE8104000F041BABDE8C8
:1053B000104000F0D4B9BDE8104000F0FAB9BDE8E3
:1053C000104000F01FBABDE8104000F036BA0220CD
:1053D00000F04CF82021052000F0BCF9002101204C
:1053E000BDE8104018E010B50C4622469821FFF7A2
:1053F00000FE21460120FFF7A8FE30210120FFF723
:105400002EFE1448032180F8201014488168091BDF
:1054100081600021017310BD10B50C460F4B12497D
:10542000196018730D2298211846FFF7E2FD0D212F
:105430000120FFF78AFE0748052180F8201044B1BB
:10544000042180F8201030210120BDE81040FFF732
:1054500006BE10BDB0300020703000203431002076
:1054600055534243783100205553425380B518B10B
:10547000022807D00AD301BD10210120BDE8044055
:10548000FFF7EDBD10210120FFF7E9FD4FF480513A
:105490000220BDE80440FFF7F3BD10B5044601202B
:1054A00000F026FA2046BDE8104000F02DBA10B5F5
:1054B0000446012000F01CFA2046BDE8104000F030
:1054C0002DBA0000C9B2830706D0521E22D310F8AD
:1054D000013B9942F7D11FE0083A13D302F10402CD
:1054E00041EA012141EA014150F8043B121F21BF6A
:1054F0004B40A3F1013C2CEA030C1CF0803FF3D09D
:10550000C9B2001F083210F8013B521E28BF91EAB1
:10551000030FF8D818BF0120401E7047014800F063
:1055200003BA0000883100202DE9F04784B081469D
:10553000884614461E460DF1000A04E014F8011BCB
:105540004046C8478046207810B904B0BDE8F087CF
:105550002528F3D1641C14F8015B252D6FD0582D3C
:1055600052D0632D0ED0642D18BF692D10D06F2D31
:105570004AD0702D4DD0732D51D0752D18BF782D78
:1055800042D0E0E73068011D31600168C9B2D7E759
:105590003068011D31600768002F03D52D2140467A
:1055A000C84780466F2D08BF082105D045F0200070
:1055B000782814BF0A2110210B203A46642D02D10D
:1055C000002F48BF5242431E1846B2FBF1FC01FBBC
:1055D0001C223032D2B23A2A24BFA5F1510E7244B5
:1055E00003F80A205FEA0C0201D00128EBDAC0F1CF
:1055F0000B0500A947184046002DA3D017F8011B42
:10560000C8476D1EFAD19DE73068011D31600768FB
:10561000C8E73068011D316007687825C2E7306847
:10562000011D316005682846FFF7B6FC07004046BB
:1056300088D015F8011BC8477F1EFAD182E72521C3
:105640007EE7000000B500BF13009646944610396F
:1056500028BFA0E80C50FAD85FEA417C28BF0CC0F4
:1056600048BF40F8042BC90728BF20F8022B48BFC9
:1056700000F8012B00BD0000401810F0030308D013
:10568000C91A1FD3DB0748BF00F8012D28BF20F837
:10569000022D130030B414461546103928BF20E9F6
:1056A0003C00FAD8490728BF20E90C0048BF40F861
:1056B000042D890028BF20F8022D48BF00F8012DD5
:1056C00030BC7047C91818BF00F8012DCB0728BFA0
:1056D00000F8012D704700007449087CC00702D50E
:1056E0007348052105E00FF2E410C97C252928BF85
:1056F0002421FFF778BE6F4800218180022181714B
:105700000021C1714172022181720021C1720C21FC
:10571000FFF769BE6848002101800F218170FF21D9
:10572000C17000218180022181710021C171082195
:10573000FFF759BE04216148FFF755BE08216048B4
:10574000FFF751BE5948C17C132928BF12215D487B
:10575000FFF749BE5B4A90701173704769E070B5FE
:1057600004460D46584E3078C0B92A4621462820B6
:1057700000F076F8C8B14D48007B000603D5022042
:10578000307029460CE00220FFF770FE00F00EF8A2
:1057900001210120BDE87040FFF73EBE022804D180
:1057A0002046BDE87040FFF733B870BD24210520C6
:1057B000D0E710B5444C2278EAB90A4601462A20BF
:1057C00000F04EF8E8B13948007B000608D401200B
:1057D00020704FF440510220BDE81040FFF750BC4C
:1057E0000020FFF743FEFFF7E1FF00210120BDE8A5
:1057F0001040FFF711BE012A04BFBDE81040FFF7BB
:1058000057B810BD80B52948816829B9007C400788
:1058100002D40121002006E00220FFF727FEFFF757
:10582000C5FF00210120FFE7BDE80440FFF7F4BDFC
:1058300000BF01210020FFF7EFBD80B51B48816844
:1058400009B9002004E0007B00064CBF00200220C4
:10585000FFF70CFE2021FFF7AAFF00210120E3E75C
:1058600080B55118B1F5805F09D92A2804BF0220FC
:10587000FFF7FCFD0020FFF7F9FD21210BE00B49AC
:105880008968B1EB422F0ED02A280CBF02200020DD
:10589000FFF7ECFD2421FFF78AFF00210120FFF72D
:1058A000BBFD002002BD012002BD0000B030002081
:1058B000683100209005002070310020B8050020DC
:1058C000AC0500207C050020D030002000800202C2
:1058D000200000004D696E692044534F4469736B8A
:1058E00020202020202020202020202020202020B8
:1058F00010B50446DFF80C0000F016F850F824004C
:1059000010BD000004300020A0F10901052901D3D9
:10591000202801D10120704700207047A0F14101EB
:105920001A2938BF2030704770470000DFF82C0874
:105930000021C1764FF48061DFF8240800F008BD33
:1059400080B52021D62000F0E8FE0F2801D10120EB
:1059500002BD002002BD10B5DFF80848DFF80818C6
:105960000978002902BFDFF8F417497C002907D124
:105970004FF416614843642190FBF1F0062103E0E7
:105980004FF416614843642190FBF1F189B225E0A0
:1059900038B50546DFF8CC470021204600F0D6FF99
:1059A000DFF8C4070078002802BFDFF8B007407CAA
:1059B000002807D14FF416606843642190FBF1F092
:1059C000062103E04FF416606843642190FBF1F177
:1059D00089B22046BDE8344000F0BABF204600F04E
:1059E000B5FF00212046BDE8104000F0B1BF10B562
:1059F000FFF79CFFDFF86C474FF41661204600F07C
:105A0000A5FF4FF41661EDE70128084608BFFFF730
:105A1000A2BFBDE770B5DFF84447DFF850576868AC
:105A200080B101F044F9802809D1607C401CC0B2EB
:105A3000062808BF00206074002001F035F9607C62
:105A400001F021FA01F036F940F2DC56E18B884290
:105A500002D296206860AE6001F029F948F2800118
:105A6000884202D100206860AE606868E0B9DFF863
:105A7000005701202870FEF74BFD00202870012000
:105A8000207601F0EDF9607C012818BF002802D0D3
:105A900000F01AFA01E04FF4E160E062002180B208
:105AA000BDE8704001F003BF70BD2DE9F84F01F073
:105AB000D8FF8246DFF8BC46DFF8A066DFF8B806FC
:105AC000017849B90120307601F0CAF9002020613F
:105AD000606120716071E6E100780028FBD0DFF89A
:105AE0009C06217921B90121A171217101686161AF
:105AF0000FF2DC6B00686169401A42F6E16188428E
:105B000007D30120607100F0D9F9FFF770FF00F0B2
:105B1000CDF9DFF8587640F2DC50B860DFF86086E7
:105B2000707E012817D10220707600F0C7F9A8F81E
:105B30000000142038600020F86032203861002016
:105B40007861607910B100F0B1F904E001F0D3F9A7
:105B5000012001F04DFA707C002818BF01280FD1F8
:105B60005046DFF8201601F0B1FF03D8002101F004
:105B7000BFFF18D3DFF8101601F0BAFF14D20EE001
:105B80005046DFF8081601F0A1FF03D8002101F00C
:105B9000AFFF08D3DFF8F81501F0AAFF04D2002107
:105BA00001F094FF00D28A462069514601F0B2FF0D
:105BB0002061DFF8E01501F089FF98BF216107D966
:105BC000DFF8D41501F094FF3CBFDFF8D005206169
:105BD000B07E38B9A07828B10120B07600F0FFFE81
:105BE0007062B0626079002817D1307C01F0DEFF6E
:105BF0008246216901F06AFF10D8307C404201F0F2
:105C0000CBFF0146206901F061FF07D80020A0709A
:105C1000FFF7EDFE022001F0EBF990E094F801B0FF
:105C20005046216901F064FF08D2BBF1000F04BFA8
:105C30000120A07101206070894612E0307C404252
:105C400001F0AAFF0146206901F052FF09D2BBF121
:105C5000000F1CBF0120A07100206070206980F03F
:105C60000049A0794FF4E16A717C61B348B300F058
:105C700032F9A089401CA08180B2642804BF0020B2
:105C8000A0716078002839D1707C012802D000F022
:105C90001BF912E04846DFF8081501F017FF98BF1E
:105CA00050460AD9DFF8FC04494601F08FFFDFF8BF
:105CB000F81401F02FFF01F0F5FFF062002180B22F
:105CC00020E0642031E0DFF8E4B4F0B100F003F943
:105CD000A089401CA08180B200904846594601F03E
:105CE000F3FFDFF8CC1401F071FF02F06BF800F164
:105CF0000F010098884204BF0020A071C6F82CA0B4
:105D00000021504601F0D3FD10E04846594601F00D
:105D1000DDFE98BF642008D901F0D6FFDFF89014AB
:105D200001F054FF02F04EF80F30A081A07820B9A6
:105D3000F076142038600120A070A089E070022065
:105D400001F02EFE4EF660214843C11200EB1150C7
:105D5000001320814FF4167A012001F021FE0AFB86
:105D600000F040F2622BC11200EB11500001000C58
:105D70000BFB00F090FBFAF060816089B0F5A57F25
:105D80008941C90FA078627982F00102104200F0C7
:105D90008A803868002804BFF07E00280BD10120DB
:105DA000F07611B10020F07605E04FF48061DFF865
:105DB000B00300F0CBFAE1786078FFF725FE012010
:105DC00001F0EEFD0AFB00F0C11200EB11500001E2
:105DD000000C0BFB00F090FBFAF060816189B1F5DB
:105DE000A57F8041C00F2070786930B901F083F839
:105DF000607801F09AF805207861022001F0D0FD6A
:105E00004EF660214843C11200EB1150001320816F
:105E1000707C70B3012823D1DFF89823DFF8983322
:105E20004846DFF87C1301F051FE0AD8FA251146E6
:105E300001F04CFE0AD8194601F05AFE1AD29625F6
:105E400018E0194601F042FEF1D8C825002101F002
:105E50003DFE0FD8114601F04BFE0BD2642509E040
:105E6000801E64214843C0F5FA7000EBD0704510E5
:105E700000E0FA253868B0B9B8F80000ADB2854244
:105E800011D20421CD4800F063FAFFF7B0FD0020E5
:105E9000A8F80000F076052030764FF49670F86090
:105EA0004FF4A07038602069BDE8F28FCDF800B0E3
:105EB000102360220021002001F0B8BF00202061E3
:105EC000F076A070A0817047801E4FF49671484311
:105ED000C0F5E1607047012803D10020A0810220B5
:105EE000A071042001F0FBBF2DE9F0419B4D687EBD
:105EF00001281CBF01206876FFF779FDA87E0128E4
:105F000011D100F06CFD68620146A86A00F06BFDDB
:105F1000296A401828620021A9766421B0FBF1F0BB
:105F20006861FEF73EF901F02BFC4FF41676012074
:105F300001F036FD7043C11200EB11500001000C5E
:105F400040F26221484390FBF6F81FFA88F8874E2A
:105F5000706900286BD1B8F5C57F04DDB8F5CA7F3C
:105F6000CCBF0A240924A8F5B7701D2804D241101B
:105F700000EB91708010841CB8F5B77F05DAB8F596
:105F8000A07FCCBF0124002403E0B8F5CF7FC8BFB9
:105F9000641C754F002001F003FDB0F5FA7F3878DE
:105FA0001CD2012813D1002000F0F7FC002038702B
:105FB00001F0DDFF01F082FF00F03AFE0022002137
:105FC0004FF4C87000F0D8FD4FF49670E883B8F530
:105FD000A07FB8BF4FF4A078002120E0C8B900F03E
:105FE000DCFC0120387001F0C2FF01F067FF00F017
:105FF0001FFE002200214FF4166000F0BDFD32208C
:10600000E883C82001F06BFF012000F0C6FC01F01E
:10601000EFFF6B480068400654BF01210221E0B247
:1060200000F041FF002000F0E3FF3220706165487E
:106030000178032910D1297E04290DD00321297666
:10604000002101707068972824BF9620706000209E
:1060500000F02AFE00F004FFB8F5A07F3ABF287FC9
:10606000401C00202877287F972813D3002001F0B8
:1060700097FCB0F5FA7F0DD23F48007850B9042064
:1060800028764FF4FA70B060FFF7B1FCBDE8F0413C
:1060900000F0E6BEBDE8F08110B5354C012020705F
:1060A000FEF736FA0020207000F0DAFE464800784D
:1060B000002819BF0121454810214048BDE8104083
:1060C00000F046B92948C06800281EBF2A48007859
:1060D000002802D1214802210176704738B5234DAE
:1060E0001E4C207E401E052837D8DFE800F003163E
:1060F0001C1F1933FFF7F8FE1F48007828B101F084
:106100003FFB01F0AEFC02202076A86828BB01F01E
:1061100047FCB0F5FA7F20D219E0BDE83140C4E475
:10612000BDE83140CEE7BDE8314073E400F0B2FE97
:10613000002001F035FC40F2F511884205D3012022
:106140002076BDE8314000F08BBEA86828B9062053
:10615000207631BDBDE831409EE731BD58040020B6
:1061600000080140002C0140BF050020083100203C
:10617000040400204C0500200431002020310020C0
:106180008E310020DF4F8DBDE04F8D3D560E2DBE70
:10619000570E2D3E0000A042FFFF9FC20000A0C28C
:1061A000000070420000884100803B4400003442FF
:1061B0000000AA420000A04100002042000C014063
:1061C000080C0140443100209431002000140140AB
:1061D000000000345292929292523C0000007E8065
:1061E000807E80807E800000FE00000C0202FC00A9
:1061F00000008040207E8000345292929292523C65
:1062000000C020180402041820C00000F008040296
:10621000020202020408F000000000384482020278
:1062200002020202DADA02020202020282443800A8
:10623000000000000000000000000000000000005E
:1062400000000000000000000200020202023F0203
:10625000020200000000000000000000000000003A
:106260000000000000000000000000000F102040AF
:106270004040404020100F000000000000000102DC
:10628000040810204F4F20100804020100000000F5
:106290002DE9F0410022CC7804F00F03E40644BF5E
:1062A0008C7823430C8801250F26E7B217B3D0F86A
:1062B00000C005FA02F7BE460EEA0408F04514D104
:1062C0004FEA820E06FA0EF82CEA080C03FA0EFECC
:1062D0004EEA0C0C91F803E0BEF1280F08BF4761AD
:1062E00003D0BEF1480F08BF0761521C082AE0D353
:1062F000C0F800C0B4F5807F26D3D0F804C00022D7
:1063000002F1080705FA07F7BE460EEA0408F04551
:1063100015D14FEA820E06FA0EF82CEA080C03FAA1
:106320000EFE4EEA0C0C91F803E0BEF1280F08BFF8
:10633000476191F803E0BEF1480F08BF0761521CA6
:10634000082ADDD3C0F804C0BDE8F08101617047C0
:106350004161704770B5144A00284CBF94691468B5
:10636000C0F3034583B2460D3601B34000F4401636
:10637000B6F5401F06D124F07064156825F07065ED
:10638000156008E0C60243BF032606FA05F5AC43D4
:106390009C4344F0706401B11C43002801D5946112
:1063A00070BD146070BD00000400014081B0012088
:1063B00002E09DF80000401E8DF800009DF80000EE
:1063C0000028F6D101B07047704738B500F0D3F817
:1063D00070B11020A06000F01EF820681020E0606E
:1063E000FFF7E4FF2068C00610D41020E06011E041
:1063F000B44D01202860B44800F0BAF820680007C6
:1064000004D500F00BF82068000701D5002032BD4C
:1064100000202860DCE00820A060C7E7002028609A
:10642000C4E70000F8B50446A64DA848007878B146
:1064300008200021296014F0800218BF01226A6040
:10644000640001212960401EF3D128602960F1BD5C
:1064500008269D4F0020386000BF00BF200604D5ED
:106460000120286000BF00BF01E00020286000BFBD
:1064700000BF6400FFF79AFF0120386000BF00BF33
:10648000FFF794FF761EE5D10020386000BF00BF03
:10649000FFF78CFF0120386000BF00BFBDE8F1406E
:1064A00084E710B50446FFF790FF7820FFF7BAFFA6
:1064B0000020FFE7FFF7B6FF2046FFF7B3FFBDE878
:1064C000104014E038B504460D46FFF77EFF7820F3
:1064D000FFF7A8FF402001E014F8010BFFF7A2FF2F
:1064E0002846451EC0B20028F6D1BDE8314038B577
:1064F00000F042F850B100F01CF810206060FFF787
:1065000055FF00F013F81020206009E000F00BF8B0
:106510006C4DFFF783FF012000F006F80120286092
:10652000BDE8314042E7684C20603FE7082020602A
:106530003CE7674C0820606038E710B500F01CF8B5
:1065400048B1FFF7F6FF1020FFF7EEFFFFF7EEFF71
:106550000820606008E0FFF7E6FF00F008F801207F
:10656000FFF7E2FF00202060BDE810401EE755481D
:10657000012101601AE7574C54480078704738B53C
:10658000FFF7F9FF88B10820E060FFF70FFF102048
:10659000FFF742FFFFF73FFF2068C00602D5082043
:1065A000E0600FE00820E06012E0474DFFF737FFA2
:1065B000FFF7DDFF0120FFF732FF2068000705D558
:1065C00000202860FFF7F2FE002032BD0020286086
:1065D000FFF7ECFE012032BD70B5044608253B48AC
:1065E000007840B9384E2AE06400FFF7DFFE08204B
:1065F0003060FFF7DBFE2846451E354EC0B250B175
:1066000008207060FFF7D2FE200647BF10203060E0
:1066100010207060E8E70820706070BD00203060D6
:10662000FFF7C4FE14F0800118BF01212548016066
:106630006400FFF7BBFE01203060FFF7B7FE28467D
:10664000451EC0B20028E9D1306070BDF8B50824FD
:106650000025204E1D480078C0B11020B0600DE02C
:106660006D000820F060FFF7A1FE0820B060FFF782
:106670009DFE3068C00648BF45F001052046441E17
:10668000C0B20028ECD10820F06018E00D480121CC
:1066900001600D4F0DE06D0000203860FFF786FEB1
:1066A00001203860FFF782FE3068000748BF45F0E0
:1066B00001052046441EC0B20028ECD13860E8B283
:1066C000F2BD00008C812142BC01214294310020A6
:1066D000100C0140080C014070B504460D461646EA
:1066E000FFF773FEC0B12046FFF776FFFFF747FFC5
:1066F00018B9FFF7FCFE002070BD2846FFF76CFFBD
:10670000FFF73DFF3046FFF767FFFFF738FFFFF762
:10671000EEFEFFF759FE012070BD38B504460D4668
:10672000FFF753FEF0B12046FFF756FFFFF727FFB4
:1067300018B9FFF7DCFE002032BD2846FFF74CFFFA
:10674000FFF71DFFFFF741FE601CC0B2FFF744FFDB
:10675000FFF715FFFFF77AFF0446FFF7EEFEFFF79E
:10676000C6FE204632BD000030B50488DFF80422A2
:10677000DFF8E831984218BF90420ED0B0F1804F58
:106780001CBFDFF8DC51A84207D0DFF8D851A8427F
:106790001CBFDFF8D451A84204D14FF68F752C40AE
:1067A0004D882C43DFF8C451A8421CBFDFF8C0510C
:1067B000A84204D04FF6FF452C40CD882C430480DE
:1067C0008C8884850C880485984218BF90420AD032
:1067D000DFF8A42190421FBFDFF8A0219042DFF82C
:1067E000A021904201D1097A01860121818230BD28
:1067F00030B5028C4FF6FE731A400284048C8288F6
:10680000038B4FF68C752B400D882B434FF6FD758F
:106810002C400D892C434D882C43DFF84051A84271
:106820001CBFDFF85051A8420AD0DFF84C51A842F3
:106830001FBFDFF84851A842DFF84451A84210D1E9
:106840004FF6F7752C404D892C434FF6FB752C40C5
:106850008D882C434FF6FF452A408D892A43CD89E8
:106860002A4382800383C9888186048430BD70B541
:10687000028C4FF6EF731A400284048C8288038BDB
:1068800048F6FF452B400D8843EA05234FF6DF7598
:106890002C400D894E88354344EA0514DFF8BC507E
:1068A000A8421CBFDFF8CC50A84213D14FF67F7529
:1068B0002C404D8944EA05144FF6BF752C408D8855
:1068C00044EA05144FF2FF352A408D89CE893543BD
:1068D00042EA850282800383C9880187048470BDEF
:1068E0000029018812BF41F001014FF6FE721140EC
:1068F000018070470029B0F8441012BF41F40041F4
:106900004904490CA0F844107047002A828914BF3A
:10691000114322EA0101818170470029018812BFD9
:1069200041F080014FF67F72114001807047028B69
:106930004FF6F7731A40114301837047028B4FF2F1
:10694000FF731A4042EA0121018370478186704734
:106950000187704700BFC94301827047002C014086
:106960000004004000080040000C004000100040FF
:106970000014004000340140004001400044014048
:106980000048014010B5DFF8A8441821201DFEF78B
:106990001FFB40F2DC50E06010BDDFF898144FF4AC
:1069A00000620A614FF480520A61002808680AD127
:1069B00020F4404040F440500860086820F4402033
:1069C00040F4403009E020F4804040F4304008605A
:1069D000086820F4802040F4302008607047DFF819
:1069E0005004C0697047814204D24FF0FF32101A40
:1069F00008187047081A704738B501210D2001F0BA
:106A00003EFB00F08DF800F086F800F0A7F80420B7
:106A100000F041F804212046FFF79AFC102000F016
:106A20003AF800F02DF8DFF8105400F070F800F09C
:106A300082F800F06DF8802000F076F82046FFF72D
:106A400027FC00F081F8082000F010F82046FFF73E
:106A50001FFC4FF4004000F009F800F059F8102135
:106A60002046FFF773FCFEF761FF31BDADF8000073
:106A700010208DF8030003208DF8020000A9704754
:106A80004FF44070ADF8000003208DF80200102094
:106A90008DF803007047ADF8000003208DF8020068
:106AA00010208DF8030000A92046FFF7F1BB70B558
:106AB00082B001212D2001F0E2FA00F031F800F05F
:106AC0002AF800F04BF80120FFF7DCFFDB4D00F067
:106AD0001EF8FFF7D5FFD84E00A93046FFF7D8FBC8
:106AE00000F029F83046FFF7D3FB022000F01CF835
:106AF0003046FFF7CDFB00F027F801212846FFF7CD
:106B000025FC4FF480613046FFF722FC73BD00A9DD
:106B10002846FFF7BDBB01214FF40040FFF71ABC28
:106B20000121C748FFF716BCADF8000004208DF81E
:106B3000030000A970474FF48060ADF800001020FA
:106B40008DF8030000A970474020ADF800004820F0
:106B50008DF8030000A92046FFF79ABB0120ADF88D
:106B6000000003208DF8020010208DF80300B54CC2
:106B700000A92046FFF78CBB30B589B005460C460E
:106B800052B100F050F80121052001F078FA0121FE
:106B90000220FFF7DFFB01E000F045F84FF4407002
:106BA000ADF8000018208DF8030003208DF80200D6
:106BB00000A9A148FFF76CFB681EADF81800ADF8FE
:106BC00014400020ADF81A00ADF816009E4C05A93F
:106BD0002046FFF7C9FD6020ADF804000120ADF8A4
:106BE0000600042000F05AF8039001A92046FFF7A0
:106BF000FFFD01A92046FFF73AFE08212046FFF7D6
:106C000096FE08212046FFF799FE01212046FFF756
:106C100084FE01212046FFF763FE01212046FFF795
:106C200069FE09B030BD01214FF4006001F030BAB7
:106C300000B585B00121012001F02AFA83480078CF
:106C4000002814BF2F200720ADF8040042F20F7077
:106C500000F024F8ADF8060001A94FF08040FFF7DE
:106C600083FD00F08BF8FFF758FE012200F086F854
:106C7000FFF74BFE00F082F8FFF732FE1C208DF884
:106C8000000000208DF8010001208DF802008DF831
:106C9000030000A801F03FFA05B000BDADF8080000
:106CA0000020ADF80A00704769498860704768485D
:106CB000806870476648C068704766480178002958
:106CC00004D16548006800F0800203E06348006872
:106CD00000F002025E48438802D0022A05D101E09A
:106CE000802A02D1002181805B1C9BB2192B24BF1A
:106CF00048F28001816001787AB98288192B05D227
:106D000023B1802383600A2A38BF491C521C828029
:106D100092B20A2A28BF0021002301704380818893
:106D200014225143C160704710B500F027F8FFF7F7
:106D300011FE3F4C6078411C022802D1FFF7BDFFD5
:106D4000002161704348007818B943480068C009C1
:106D500002E042480068400800F001002070002076
:106D600004EB80014A6812B14A68521E4A60401C16
:106D70000628F5DBE069401CE06110BD01214FF001
:106D80008040704710B5044645F2555001F010FAA6
:106D9000032001F010FA0A2060434003000C01F0C8
:106DA0000DFA01F00EFA01F011FA012010BD80B5C4
:106DB00001F007FA012002BD80B501F0D8F801F01A
:106DC0007DF8FFF774FE01F0A7F800F0D9FC002071
:106DD00000F0E6FD40F2F51188420AD30020FFF7EB
:106DE000DCFDC82001F07BF80120FFF7D6FD01F0A3
:106DF000FFF8FDF751FAFDF78BFB00F0EDFDFFF713
:106E000017FF012200214FF41660FFF7B5FE01F0D5
:106E100034F800F025F8FDF7B1F9FFF7B3FD0C48A1
:106E20000021816040F6B830BDE80240AAE70000CA
:106E30000431002004080140000801400014014012
:106E400000023000000C0140002C0140BF05002072
:106E50004431002094310020080C01400808014012
:106E600000B5A1B0802101A8FEF792F800F059F812
:106E700080220021002000F0D9FF00F052F880228B
:106E80001946002049E080B5C0210FF2302201FBF5
:106E9000002002E080B50FF6280000901023602249
:106EA00000F0A2F801BD10B582B06A4A137814242C
:106EB0000B2806D329B90A20834234BF1846107024
:106EC0000BE00029F8D0834238BF03461370012934
:106ED00007D104FB0020CC3007E004FB0020001D9C
:106EE00003E0022906D102F5D470009010230A2293
:106EF00000F07AF813BD00B5A1B0802101A8FEF71B
:106F000047F800F00EF8512200210B2000F08EFF10
:106F100000F007F8512208210B2000F087FF21B074
:106F200000BD01A800900823704710B582B001464B
:106F3000494C20786278904218BF6070A0780FF2B8
:106F4000FC5202EB801260780B3069B9009210237A
:106F50002022C0B200F06AFF6078401C6070401EC2
:106F6000312813D3002010E001290FD10092102303
:106F700020220021C0B200F059FF6078401E6070EE
:106F8000401EC0B2312801D33120607000F059F8A2
:106F9000009000F027F860782070A078401CC0B204
:106FA000042808BF0020A070A078C00719D52B487E
:106FB00000880FF2CC0140F20972904228BF01F123
:106FC000380007D208B9009105E0552290FBF2F095
:106FD00001EB800000901023022200215D2000F0D0
:106FE00025FF13BD10230B220021002000F01EBF3F
:106FF00038B5044600F025F80FF27405002C009017
:1070000009D0FFF7EFFF05F10800009000F02AF823
:10701000022C09D131BD10230B2200214B2000F09E
:1070200005FF009500F01EF80FF21050009010239D
:10703000202200211B2000F0F9FE074811210170D9
:1070400031BD0748407C16210FF2F05201FB0020B1
:107050007047000010020020BC05002054050020ED
:10706000580400201023042200215C2000F0DEBE22
:10707000FEFFFFFE7FFFFF7FFE0101FE7F80807F1E
:10708000010180800101C0C00101E0E00101F0F0D8
:107090000101F8F80101FCFC0101FEFE0101FFFF06
:1070A0008181FFFFC1C1FFFFE1E1FFFFF1F1FFFFC0
:1070B000F9F9FFFFFDFDFFFFFFFFFFFF00E0C080CC
:1070C00080808E9EBEFEBE9E8E808080808080806E
:1070D00080808080808080808080808080808080B0
:1070E00080808080808080808080808080808080A0
:1070F0008080808080808080808080808080808090
:10710000808080808080808080808080808080807F
:10711000808080808080808080C0E000000301004B
:10712000000020508989F98888880000000000004C
:1071300000F0888989F18080800000000000000054
:10714000206021212120207000000000000000703C
:10715000880911214080F8000000000000007088BC
:10716000093109088870000000000000001030514B
:107170009191F810100000000001030000E0C080B1
:1071800080808080808080808080808080808080FF
:10719000808E9EBEFEBE9E8E80808080808080809D
:1071A00080808080808080808080808080808080DF
:1071B00080808080808080808080808080808080CF
:1071C00080808080808080808080808080808080BF
:1071D000808080808080808080C0E000000301008B
:1071E000000020508989F98888880000000000008C
:1071F00000F0888989F18080800000000000000094
:10720000206021212120207000000000000000707B
:10721000880911214080F8000000000000007088FB
:10722000093109088870000000000000001030518A
:107230009191F810100000000001030000E0C080F0
:10724000808080808080808080808080808080803E
:107250008080808080808080808080808080828626
:107260008E9EBEFEBE9E8E868280808080808080C4
:10727000808080808080808080808080808080800E
:1072800080808080808080808080808080808080FE
:10729000808080808080808080C0E00000030100CA
:1072A000000020508989F9888888000000000000CB
:1072B00000F0888989F180808000000000000000D3
:1072C00020602121212020700000000000000070BB
:1072D000880911214080F80000000000000070883B
:1072E00009310908887000000000000000103051CA
:1072F0009191F810100000000001030000E0C08030
:10730000808080808080808080808080808080807D
:10731000808080808080808080808080808080806D
:107320008080808080808080808080808080848C4D
:107330009CBCFCBC9C8C8480808080808080808011
:10734000808080808080808080808080808080803D
:10735000808080808080808080C0E0000003010009
:10736000000020508989F98888880000000000000A
:1073700000F0888989F18080800000000000000012
:1073800020602121212020700000000000000070FA
:10739000880911214080F80000000000000070887A
:1073A0000931090888700000000000000010305109
:1073B0009191F810100000000001030000E0C0806F
:1073C00080808080808080808080808080808080BD
:1073D00080808080808080808080808080808080AD
:1073E000808080808080808080808080808080809D
:1073F000808080808080808080808080808088986D
:10740000B8F8B89888808080808080808080808074
:10741000808080808080808080C0E0000003010048
:10742000000020508989F988888800000000000049
:1074300000F0888989F18080800000000000000051
:107440002060212121202070000000000000007039
:10745000880911214080F8000000000000007088B9
:107460000931090888700000000000000010305148
:107470009191F810100000000001030000E0C080AE
:1074800080808080808080808080808080808080FC
:1074900080808080808080808080808080808080EC
:1074A00080808080808080808080808080808080DC
:1074B00080808080808080808080808080808080CC
:1074C000808080808080808080808080808090B07C
:1074D000F0B090808080808080C0E00000030100D8
:1074E000000020508989F988888800000000000089
:1074F00000F0888989F18080800000000000000091
:107500002060212121202070000000000000007078
:10751000880911214080F8000000000000007088F8
:107520000931090888700000000000000010305187
:107530009191F8101000000000010300F008FE0215
:10754000FE50A0202060A0202060A0202060A0206D
:107550002060A0202060A060404080800F107F400D
:107560007F08050604040506040405060404050650
:10757000040405060404050602020101F008FE02E7
:10758000FE1060A0202060A0202060A0202060A02D
:10759000202060A0202060E0404080800F107F40CD
:1075A0007F08040506040405060404050604040512
:1075B000060404050604040702020101F008FE02A5
:1075C000FE102060A0202060A0202060A02020606D
:1075D000A0202060A0202060C04080800F107F404D
:1075E0007F0A0404050604040506040405060404D1
:1075F000050604040506040603020101F008FE0264
:10760000FE90202060A0202060A0202060A02020EC
:1076100060A0202060A0206040C080800F107F40CC
:107620007F0906040405060404050604040506048F
:10763000040506040405060602030101F01010907B
:107640005050D0505010F01F101112141417141471
:10765000101FF0109050505090101010F01F101785
:10766000141414171414101FF01010101010101010
:107670009010F01F1011131111111113101FF010A1
:10768000905050901010D010F01F101314101011C3
:107690001217101FF0109050509050509010F01F83
:1076A0001013141011101413101FF01090909090DC
:1076B000D0909010F01F1010111214171010101FFE
:1076C000000000000000000030300000000000005A
:1076D0001010F01010002010101010E00000C0304A
:1076E000C000C030C000E010101010E0000000002A
:1076F000000010F010000000000000000000C0308A
:10770000C000C030C000E010101010E000003010C9
:10771000101010F010000000000000000000000039
:107720000000000000000000007F000000000604D0
:10773000040207040400030505050503000407040B
:1077400000070004070003040404040300003C4293
:107750004242427F40000000000000000004070495
:1077600000070004070003040404040300000000F1
:107770000000407F4000000000000000000000000A
:1077800070B592B00121012000F070FC01214FF48E
:10779000007000F074FC0D20ADF8000000208DF8A2
:1077A000030000A98348FEF773FD834C204600F0D8
:1077B00019FD7F4D814E3078002814BF0320022030
:1077C00068800020019001208DF809008DF80800E4
:1077D0004FF4602003900020049068888DF8140016
:1077E00001A9204600F027FD307850B100F059F88B
:1077F000072302220221204600F071FD0723032205
:1078000003E000F04EF8072302221146204600F064
:1078100066FD0121204600F035FD0121204600F0E3
:1078200028FD204600F040FD204600F042FD0028E3
:10783000FAD1204600F040FD204600F042FD00282D
:10784000FAD15F4E304600F0B7FD5E480690281D25
:107850000790002008906888099000200A908020F6
:107860000B904FF480700C904FF480600D902020AE
:107870000E904FF400500F900020109006A9304653
:1078800000F0E7FD0121304600F0FEFD012202215B
:10789000304600F003FE0121204600F017FD12B033
:1078A00070BD072301220021204600F018BD10B54D
:1078B000414C4EF66023090391FBF3F292B20003B0
:1078C00090FBF3F189B2204600F04EFD03212046E3
:1078D00000F04DFD3C49204600F040FD01224FF4F0
:1078E000A0712046BDE8104000F0D5BC10B5324C68
:1078F0004FF4A071204600F04DFD98B13348018847
:10790000491C01803248006808B9FEF70FF80421CD
:107910003048FEF71BFD4FF4A0712046BDE8104033
:1079200000F045BD10BD70B524480078002819BF8F
:1079300010200321012002211D4A13786BB100237E
:1079400007E002EB4304A488444302EB8305AC61E7
:107950005B1C8B42F5DB00231370002310E002EB6D
:107960008304A569A669B6FBF0F6AD1B02EB4306DE
:10797000B6887519A561A569B5FBF0F5E5605B1CD6
:107980008B42ECDB70BD80B5022000F08FFD30B182
:10799000FFF7C9FF0220BDE8024000F092BD01BD23
:1079A000034901EB8000C06880B27047000000000E
:1079B000D4040020000801400024014004310020CC
:1079C000080002404C240140000280008E3100205B
:1079D00008310020000C014080B53648007868B1BD
:1079E00048F20800ADF8000010208DF803000320D5
:1079F0008DF8020000A93048FEF74AFC0F22202132
:107A000000F011F80022212100F00DF800222221BF
:107A100000F009F80022232100F005F802222421B9
:107A200000F001F801BDD620FEF756BE30B583B098
:107A30002721D620FEF771FE80B12A21D620FEF73D
:107A40006CFE044600ADAC702B21D620FEF765FE1F
:107A5000E87044EA002000B200F09EF81749086080
:107A600037BD70B5FEF7BBFF144E70600146B068BD
:107A7000FEF7B9FFF0607068B060FFF7D7FF3068BD
:107A800000F046FD0E4A0F4B00F06AFD04460D461D
:107A9000F06800F08BF800F03BFD22462B4600F02A
:107AA0005FFD0022084B00F02DFEBDE8704000F0A5
:107AB0004DBF000094310020000C01402431002013
:107AC000EC51B81E85EB813F000059404FF0807C9F
:107AD0001CEB400F94BF1CEB410F05E040EA010C8A
:107AE0005FEA4C0C01D28142704718BF8842704750
:107AF0004FF0807C1CEB400F94BF1CEB410F05E066
:107B000040EA010C5FEA4C0C01D28842704718BF72
:107B10008142704790EA010F44BF81F0004100F0BC
:107B20005DBF00BF421A3CBF801A89184FF0004C5D
:107B3000C0F3C752FF2A24D0C1F3C75313B3D21ADC
:107B4000D2F1190327DD4CEA01214CFA03F321EAB3
:107B50000303D140C20D4CEA0020401834BF20EA94
:107B60000C004CEA5000D20553EA006373EB0C0C96
:107B700052EB1020420012F1807F38BF7047C00DD9
:107B8000C0057047490212BF9A4200EB5120F8E746
:107B9000D2F11703D9D57047002840F10980F44687
:107BA000404200F005F850F000406047002800BF58
:107BB0000AD0B0FA80F18840D1F19D01C9050206D2
:107BC00072F1004241EB102070470000FF2212EAE0
:107BD000D05C1DBF12EAD153944593422BE09C44E4
:107BE000D30780EA01021A4043EA002043EA012158
:107BF000A1FB0030410038BF40007CF17F010BDB6E
:107C0000FE294ADA5B0842EAC15153EA006373F184
:107C1000004C51EB10207047D1F1080CDCF1200131
:107C20002FDB5B0810FA01F10B4373F1004120FADE
:107C30000CF05041704794451CBF02EAD153934267
:107C400080EA010202F000421DD0400019D0490034
:107C500017D05BB9634514D00902B1FA81F399409A
:107C6000BCEB030CC00140F00040C1E70002B0FAD9
:107C700080FC10FA0CF0B3EB0C0CC90141F0004190
:107C8000B6E71000704740000AD0490008D010F154
:107C9000807F94BF11F1807F02E042F0FF40704787
:107CA000D043704740000DD2010E7F390AD4D1F184
:107CB0001F0104D4C00140F00040C84070477FF06D
:107CC000000070470020704710B5FF2313EAD0541E
:107CD0001DBF13EAD1529C429A4239E0A41ADA0736
:107CE00080EA0103134042EA012142EA0020421ADD
:107CF0003CBF641E01EB4202090AB2FBF1FE01FB2C
:107D00001E221202B2FBF1F001FB10226EF30F20D3
:107D10001202B2FBF1FE4EEA00207F3406DDFE2C9B
:107D200024DA53EA500050EBC45010BDD4F10204E1
:107D300001FB1E2240F08071192C1DDC21FA04F099
:107D4000C4F12004A140114371F10042584110BD1B
:107D50009C421ABF03EAD1529A420FE080EA010E18
:107D60000EF00043400004D0490016D143F0FF401C
:107D700010BD490008BFD343180010BD9C4205D177
:107D8000D21AF7D001F00041484010BD4A0212BF9C
:107D90000846484000F0004010BD4AB90902B1FA57
:107DA00081F2914044B1A418C00140F000409EE728
:107DB000C90141F0004152420002B0FA80F4A040F3
:107DC000141B94E74100090E7F3915D4D1F11F012E
:107DD00014D4400007D2C00140F00040C84048BF62
:107DE0006FF000407047C00140F00040C8404CBFF9
:107DF0004FF00040404270470020704700424FF073
:107E0000004058BFC043704710B50446A1F1500070
:107E1000C0B2FEF746FB200940F01000FEF741FB20
:107E200004F00F00BDE81040FEF73BBB2DE9F04128
:107E3000044690465818C0B2CE080722114218BF17
:107E4000761C811000EB5171CA10B0EBC2011ABF51
:107E5000501CC5B2D5B2069F09E031462046FFF757
:107E6000D3FF41463846FEF72DFB4744761CF6B259
:107E7000AE42F2DB3846BDE8F08138B50D4C012149
:107E80002046FEF765FA022000F029F8012120467D
:107E9000FEF75CFA022000F022F8692000F01FF8DB
:107EA0000024054D605DFEF7FCFA641C172CF9D325
:107EB00031BD0000000C01406405002080B56FF06A
:107EC000040000F05AF91148007801280CBF062080
:107ED00001204FF47A7148430D49088001BD0D49D6
:107EE0000B4A12885043486000208860086840F0C0
:107EF00001000860086800F001100128FAD0086845
:107F0000400840000860002088607047BF050020DE
:107F10009031002010E000E080B54FF480414FF038
:107F2000006000F024F94FF4A06000F0EFF8142096
:107F30008DF80000022000F00FF80B208DF80000F3
:107F4000032000F009F812208DF8000000208DF8C1
:107F5000010000F004F801BD8DF8010000208DF84B
:107F6000020001208DF8030000A800F0D4B838B555
:107F700000F04EF81020FCF737FE1A4C207820B1A4
:107F80000120FCF72BFE082502E0FCF727FE002568
:107F900015484168154A11434160016841F08071FC
:107FA0000160012000F04DF8012000F04DF839206B
:107FB00000F080F80028FAD0207800B1022000F00C
:107FC00046F800F04BF8A842FBD10121052000F053
:107FD0004DF8207820B10120BDE8324000F043B8D0
:107FE00031BD0000BF050020001002400A84680077
:107FF0000448C0610221017203490162034A4262DE
:1080000008680047DC30002028040020B00400206D
:108010003348016841F0010101604168314A114073
:1080200041600168304A11400160016821F48021FB
:108030000160416821F4FE0141604FF41F0181603D
:1080400070472A49086070472A49086070472849E4
:108050000A68920850EA8200086070472448006865
:1080600000F00C007047244908607047234A00293B
:10807000116814BF084321EA000010607047204ACD
:108080000029116814BF084321EA000010607047FE
:108090001C4A0029116814BF084321EA000010603F
:1080A0007047194A0029116814BF084321EA0000EB
:1080B0001060704700214209094B012A08BF1A6865
:1080C00003D0022A0CBF1A6A5A6A012300F01F006B
:1080D00003FA00F0024218BF012108467047000071
:1080E000001002400000FFF8FFFFF6FE00004242D1
:1080F0000410024060004242D80042421410024084
:10810000181002401C1002400C1002402049084385
:1081100020490860704770B503781A460121C47879
:10812000ECB11C4B1B6803F4E063C3F5E0631B0A6E
:108130004478C3F10405AC4085780F2626FA03F392
:108140002B4023431B01144C135500784211134B51
:1081500000F01F0001FA00F043F8220070BD50113A
:108160000F4A03F01F03994042F8201070BD0D4ADA
:10817000114008430C49086070470C4904280868FE
:108180000CBF40F0040020F00400086070470000BD
:108190000000FA050CED00E000E400E000E100E082
:1081A00080E100E080FFFF1F08ED00E010E000E04C
:1081B0000949086070470949086070470849086024
:1081C000704705484AF6AA210160704702484CF6FC
:1081D000CC41016070470000003000400430004096
:1081E0000830004080B56549884208D101214FF42C
:1081F0000070FFF756FF00214FF4007016E0604951
:10820000884208D101214FF48060FFF74AFF002126
:108210004FF480600AE05B4988420BD101214FF4A2
:108220000040FFF73EFF00214FF40040BDE804404E
:10823000FFF737BF01BD4268534B1A400B681A4322
:108240000B7942EA032242608268504B1A40CB68A5
:108250001A438B681A434B7942EA43028260C26A2E
:1082600022F47002097C491EC9B242EA0151C1627E
:1082700070470029816812BF41F001014908490097
:10828000816070470029816814BF41F4807121F436
:10829000807181607047C9B2002A426814BF1143DF
:1082A00022EA010141607047816841F00801816064
:1082B00070478068C00806E0816841F00401816071
:1082C00070478068800800F00100704700298168CD
:1082D00014BF41F4A00121F4A0018160704770B582
:1082E00007240A290BD3A1F10A0505EB4505C66849
:1082F000AC4026EA0404AB402343C36008E001EB32
:1083000041050669AC4026EA0404AB4023430361FF
:108310001F23072A0AD2521E02EB8202446B9340AB
:1083200024EA030391401943416370BD0D2A0AD228
:10833000D21F02EB8202046B934024EA03039140B4
:108340001943016370BD0D3A02EB8202C46A934087
:1083500024EA030391401943C16270BD42680C4B8B
:108360001A4011434160704741628262704742681F
:10837000520951EA42114160704700000024014057
:1083800000280140003C0140FFFEF0FFFDF7F1FF37
:10839000FFFD3FFF10B500224368CCB223400068C8
:1083A00010EA112F1CBF002B0122104610BD090A34
:1083B000C94301607047000001684FF6FE7211402A
:1083C00001600021016041608160C1604049414A13
:1083D00090421DD0404A904221D0404A904225D040
:1083E0003F4A904229D03F4A90422DD03E4A904287
:1083F00003D1086840F4700029E03C4A904203D160
:10840000086840F0706022E039493A4A904203D14E
:10841000086840F00F001AE0374A904203D108681C
:1084200040F0F00013E0354A904203D1086840F470
:1084300070600CE0324A904203D1086840F470400A
:1084400005E0304A904203D1086840F4702008608B
:10845000704702686FF30E128B681A430B6A1A4357
:108460000B691A434B691A438B691A43CB691A4348
:108470004B6A1A438B6A1A430260CA6842600A68F0
:1084800082604968C16070470029016812BF41F0ED
:1084900001014FF6FE72114001607047002A026828
:1084A00014BF114322EA0101016070470021C2009C
:1084B0004CBF154A154A1268024218BF01210846EE
:1084C0007047C1004CBF0A4901490860704700006D
:1084D00004000240080002401C000240300002403C
:1084E00044000240580002406C00024080000240FC
:1084F00004040240080402401C040240300402400C
:1085000044040240580402400004024000000240BB
:108510005FF0FF0C1CEAD05114BF614506E0C110AA
:10852000400721F0E04101F16051704779B900F056
:10853000004100020AD0B0FA80FC00FA0CF001F110
:108540006051A1EB0C5101EBD02140057047410275
:108550000CBF40F4E0016FF0000100207047000004
:10856000B0B581EA030C0CF0004C40F2FF7515EA3F
:1085700011541DBF15EA1357AC42AF4239E0E4195C
:1085800023EA455343F48013C90241F0004141EA14
:10859000505EC7021100A7FB020200284FF0000046
:1085A000EEFB01204FF00001E3FB072118BF42F072
:1085B0000102401800214941E3FB0E01A4F580644B
:1085C0000F0302D252004041494154F101046CDDD5
:1085D000470872F1004250F1000051EB0451A1F53F
:1085E00080115CBF41EA0C01B0BD4CEA055100208E
:1085F000B0BD05EA1357AC4214BFAF4241E050EAA8
:10860000410E1CBF52EA430E02E061460020B0BD9D
:1086100024423C441BD15FEA070EF6D0090302BF97
:1086200001460020AEF1140EB1FA81F7AEEB07045B
:1086300001FA07FE0C37C7F1200100FA07F7C8401E
:108640004EEA000E23EA455343F48013A2E733F0C9
:108650000043B3FA83F704BFB2FA82FE77440B3FBC
:10866000E41BB7F1200E2FBF02FA0EF3BB40C7F197
:10867000200E22FA0EFE38BF43EA0E03BA40641CF5
:1086800082E750EA410E14BF52EA430E6FF0000138
:108690004FF4001717EB430F8ABF194617EB410F32
:1086A000B5E74CEA05510020B0BDD4F10104B4F1A6
:1086B00020070FDAC4F12007520828BF42F0010258
:1086C00010FA07F501FA07F7E1BF2A43E040384303
:1086D000E1400FE0352C98DCC7F1200452EA40025B
:1086E00020FA07F218BF42F0010231FA07F0A14068
:1086F0000A43002172F1004250F1000051EB0C01DD
:10870000B0BD0000F0B540F2FF7581EA030C0CF03B
:10871000004C15EA11541DBF15EA1357AC42AF4285
:10872000E5E0BC41C1F31301C3F31303801A99417F
:1087300043F4801304D2641E40004941801859411B
:10874000C90241EA5051B1FBF3F603FB1611A2FB3B
:108750000675D7EBC020A94102D2761E8018594178
:10876000C90241EA5051B1FBF3FE03FB1E11A2FB0B
:108770000E75D7EBC020A94103D2AEF1010E8018CF
:108780005941890241EA9051760546EA8E2EB1FBA5
:10879000F3F603FB1611A2FB0675D7EB8020A94167
:1087A00002D2761E80185941C90241EA50514EEA60
:1087B000060EB1FBF3F603FB1611A2FB0675D7EB11
:1087C000C020A94102D2761E80185941C90241EA4F
:1087D0005051B1FBF3F703FB1711A2FB0735D3EBA5
:1087E000C020A94167F100070CBF004247F0010714
:1087F00066F3D5274FEA1E31B80814F5806412DD00
:10880000BD0775F1004250EB0E5051EB045111F5CC
:10881000801F5CBF41EA0C01F0BD4CF07F6141F06C
:10882000E0410020F0BDBD076D0840EA0E5041F464
:108830008011D4F10104B4F120060ADAC4F1200653
:108840000200E04001FA06F3E1401843B24015434C
:108850000EE0342C13DCC6F1200445EA40056D0817
:1088600020FA06F2154321FA06F0A1400D4300213B
:1088700075F1004250F1000051EB0C01F0BD0020F9
:108880005FEA0C01F0BDCFB992185B41B3FA83F7F0
:1088900004BFB2FA82F6BF190B3FB7F120062FBF13
:1088A00002FA06F3BB40C7F1200622FA06F638BFEB
:1088B0003343BA401CB1E419641E33E77F4231F000
:1088C0000041B1FA81F404BFB0FA80F6A4190B3C60
:1088D000B4F120062FBF00FA06F1A140C4F1200632
:1088E00020FA06F638BF3143A0403C1B1AE7AC42E1
:1088F0001ABF05EA1357AF4212E050EA41061CBF07
:1089000052EA4306BFE750EA4107304661461CBFC2
:1089100041EA0551F0BD52EA430C08BFC143F0BD26
:1089200000204FF4001616EB410F98BF16EB430FD3
:1089300008BF16EB410F24BFC14305E016EB430F00
:108940000CBF61464CEA0551F0BD00004FEAF17CD6
:10895000BCF1E04C2CBFBCF5001F11E05FEA4C0CF1
:1089600034BFBCF17F5F2EE05FEA9C0C4FEA0C1C29
:108970004FEA3C0CC10071F100414CEB5070704764
:10898000C90241EA5051C00218BF41F0010141F053
:1089900000414FEA6C50C0F10900212810D240EA92
:1089A000CC7CCCF1200C11FA0CF070F10040CCF131
:1089B000200C21FA0CF00CF0004C40EB0C0070473E
:1089C0004FEACC707047490011F5001F04D84FEAF8
:1089D000CC10FF30C0057047C8177047431A4FF0DE
:1089E00000423EBF5340C01AC91800BFD3095FEA16
:1089F000D05C13EB400F34BFB3EB410F40E07CEB96
:108A0000D1530CD342EA012122D8D1EB402009D323
:108A1000400A28BF5FEA500140EBCC507047401A33
:108A200015D04002B0FA80F2521C9040400A4FEA42
:108A30003C23B3EB026384BF00EB730007E040F418
:108A400000001A16DB07C2F10102D040184370473C
:108A5000182BFCDC31FA03F202FA03F3591A38BF7F
:108A600042F00102D2EB40203CBF4000ACF1010CCF
:108A70005FEACC5CC20572F100414CEB50207047BC
:108A800013EB400F0FD24B0009D0ACEBD153022BAC
:108A900003DB4902172BDDDD70479143401A430089
:108AA000D5D10020704713EB410FD0D36FF00000F9
:108AB0007047000010B5DFF8884700B92BE000F0E0
:108AC00096F80068804720680A3010BD80B5DFF84E
:108AD00070070068C178DFF86C2752788A420CD39F
:108AE0008278002A04BF8288002A06D1817200F0B1
:108AF0007EF840688047002002BD022002BD10B50C
:108B0000DFF83C4700B906E000F071F88068804764
:108B100020680C3010BD206801210182002010BDAA
:108B200010B5DFF81C472068C1784079DFF81827B6
:108B300012689269904721688A7A92B1002804BF2E
:108B4000087900280DD1887858B900F050F8C0682D
:108B5000804720684179C1722068C1780173002084
:108B600010BD022010BD1CB5DFF8D416096810B97D
:108B70000220088239E0DFF8D446002020800878FF
:108B800000227F23184215D1487A81064CBF42F05B
:108B9000020102F0FD0121702178400654BF01F06E
:108BA000FE0041F00100207000F021F800698047CC
:108BB000204616BD00F07F03012BF9D000F07F00A6
:108BC000022812D1487900F00F0142F0010200F0B2
:108BD00088FA05D500F030001028E5D12270E3E7CF
:108BE00000F44050B0F5805FF7E7002016BDDFF8D5
:108BF000600600687047F8B5DFF844060068017841
:108C000011F07F0104D1417A01F0DF0141724FE0A0
:108C1000022901BF41880029017900294AD14179FF
:108C200021F08005DFF82C460A0654F825204CBFB9
:108C300002F0300202F44052DFF808361B789D4201
:108C400038D2002A1CBF807A002833D0080654F896
:108C500025000BD500F03000102825D12846FCF760
:108C600053FA30212846FCF7FAF91DE000F4405091
:108C7000B0F5805F18D148F280064BF68F7745B982
:108C800000F0BDFA2068384080F440503043206046
:108C90000AE02846FCF726FA54F82500384080F40C
:108CA0004050304344F82500FFF7A1FF406980475A
:108CB0000020F2BD0220F2BD38B5DFF8840502685D
:108CC000537923F08000DFF88C151C0651F8204002
:108CD0004CBF04F0300404F44054DFF868552D789C
:108CE000A84206D2558825B9002C1CBF927A002ACA
:108CF00001D1022032BD48F280021B0651F820301B
:108D000005D548F6BF74234083F0100304E04BF60A
:108D10008F74234083F480531A4341F82020FFF7D7
:108D200066FF80698047002032BD80B5DFF81005FE
:108D30000068417A41F020014172FFF758FFC06995
:108D40008047002002BDDFF8F8241268538A20B95A
:108D50008888C01A10820020704708681818704769
:108D6000F8B5DFF8DC54286800F110042688A16803
:108D7000080018BF002E14D0A088864288BF06467F
:108D80003046884707462088801B2080608830183E
:108D900060800020FCF7D2F9324601463846FCF7E5
:108DA0003DF9DFF8B464208850B1DFF8B0044FF427
:108DB0004051018000210020FCF7C7F930203080AD
:108DC00028682188A288914228BF032101D211B1CD
:108DD00005210172F1BD06210172DFF884040068EB
:108DE00080B2DFF88014002241F81020302030805B
:108DF000F1BD2DE9F843DFF84844206800F1100682
:108E00003188DFF85454002904BF007A042816D1B1
:108E1000DFF85404017801290DD1DFF84414096802
:108E200089B2DFF84024002342F811303021298034
:108E3000042703702CE007271020288028E0B6F8CC
:108E40000480884505D30427414588BF41468846AC
:108E500000E002274046B168884781460020FCF7C1
:108E60006CF9424601464846FCF7C3F841460020EB
:108E7000FCF76BF93088A0EB080030807088404424
:108E8000708030202880DFF8D4034FF440510180F7
:108E900020680772BDE8F18338B5DFF8A443206885
:108EA000457801787F22114238D1092D02D1FFF790
:108EB0000DFE47E0052D1BD1C17880294FD2817866
:108EC000002901BF81880029807A002847D1062027
:108ED000DFF88C13096889B2DFF88823002342F891
:108EE0001130DFF8741330220A802168087231BD16
:108EF000032D08D1C178012904BF8088002823D11F
:108F0000FFF713FF1EE0012D04BFC17801291BD11B
:108F10008188C9B9407A80060DD415E001F07F0040
:108F2000012804D10B2D0FD1FFF7FAFD0AE002282A
:108F30000AD1012D02D1FFF75EFE03E0032D03D11C
:108F4000FFF7BAFE0028C2D02846BF490968496920
:108F50008847032808BF0920C7D00028B7D00820B9
:108F6000C3E738B5B64D28684178B74C062913D108
:108F700001787F2211422AD18078012802D120680D
:108F8000C16968E0022802D12068016A63E0032811
:108F90001DD12068416A5EE000293DD14188002949
:108FA00004BFC188022912D1017981B901787F22D9
:108FB000114204BF8288002A2CD001F07F02012ACE
:108FC00010D100F089F810B92868807A10BB2868A1
:108FD0004078216809698847032845D12868092114
:108FE000017231BD01F07F010229F0D1407900F01A
:108FF0000F0100F0700200F074F84CBF00F0300078
:1090000000F440508F4B1B789942E0D2002ADED109
:109010000028DCD095491EE0082905D100787F2181
:109020000842D4D1924916E00A2902BF017801F022
:109030007F010129CBD1817A0029C8D0418800293C
:1090400001BF01790029C1880129C0D100F044F88D
:109050000028BCD187490800B9D028680022428284
:10906000816100208847002029680A8A4FF6FF7333
:109070009A4208BF092004D0022818BF002A02D152
:109080000820087231BD087800061ED5C8880090F7
:109090002368009C944202D2009808820FE082422A
:1090A0000DD293F82C00704C824238BF002005D3BB
:1090B00092FBF0F500FB152008B90120207093F811
:1090C0002C008882BDE8314093E603200872634893
:1090D0004FF44051018031BD0021407922689269EE
:1090E00010475C4B000653F82100704738B55C48C8
:1090F000006880B2604931F81000400000F1804003
:1091000000F5C0404E4C21680A7A092A14D010F8A4
:10911000012B0A70216810F8012B4A70851C35F864
:10912000040BFCF763F8216848802888FCF75EF898
:1091300021688880A888C880206801210172206881
:10914000C08810B9FFF7A8FE01E0FFF70AFFBDE8ED
:1091500031403EE010B53A4C2068017A022918BF30
:10916000042904D1FFF745FE2068007A14E006299F
:1091700011D14178052902BF01787F22114206D121
:10918000C07800F042F8FFF732FD006A80472E48B1
:10919000006880688047082017E010B5284C2068D8
:1091A000007A022818BF04280ED0032818BF05280B
:1091B00004D1FFF7D5FD2068007A06E0072803D127
:1091C00021480068C0688047082021680872BDE80F
:1091D000104080B500F013F819480068017A08299A
:1091E00006D11E494FF480520A801B4910220A8082
:1091F000007A092801D1012002BD002002BD1F48CC
:1092000090F82C100020FBF7A7BF70B50D49097826
:109210000022104B48F68F760BE0D4B253F824505E
:109220003540254345F4004545F0800543F824507A
:10923000521C8A42F1D340F080001149086070BD91
:10924000F8300020B4050020FC30002080310020E0
:1092500000310020005C0040863100208431002075
:10926000505C00400460004095310020678B00088E
:10927000B58A0008FF8A0008086000402804002022
:109280004C5C00407047000080B500F0F8F88B4857
:1092900000680021817200F031F9894800214160A5
:1092A0004FF40441874A1180016087480021016022
:1092B00001BD10B58548002181728048006884494D
:1092C000C97941720020FBF7B9FE4FF4007100200C
:1092D000FBF7BBFE20210020FBF7C1FE1821002078
:1092E000FBF724FF7B4C00F042F858210020FBF7ED
:1092F0001CFF0020FBF7E7FE0020FBF7D8FE002153
:109300000120FBF7A2FE98210120FBF70EFF202190
:109310000120FBF7A4FE00210120FBF7B1FE002194
:109320000220FBF792FED8210220FBF7FFFE94F803
:109330002C100220FBF710FF4FF440510220FBF7E6
:109340009FFE00210220FBF78AFE00F010F80020AB
:10935000FBF7ADFE0020FFF758FF5B4801210160DD
:109360005D485E4901605E480021017010BD94F8BF
:109370002C100020FBF7F0BE50480068807A00B93E
:10938000704780B55048052101600120FBF7BCFE05
:109390000220FBF7A7FE52480021017001BD4E4894
:1093A00000684E4988421CBF0220FCF75FB8704736
:1093B00045480421016070477047704780B53F49B8
:1093C00009680A7802F07F02212A08BFFE280BD123
:1093D0004888002801BF88880028C888012803D150
:1093E0000FF28900020001D1022002BD8861002035
:1093F000488200F03BF8002002BD80B52F49096883
:109400000A7802F07F02212A08BFFF2815D1488878
:10941000002804BF888800280FD1C88868B90120B7
:10942000FBF772FE0220FBF75DFE2B482B49016023
:109430002B4800210170002002BD022002BD00293E
:109440000CBF0028022070472649FFF77CBC264944
:10945000FFF779BC19490968C978062901DB0020A2
:109460007047224A02EBC101FFF76DBC28B91348CF
:10947000006801210182002070471D4870471D4887
:1094800001684268806801B9704710B51A4B99703D
:109490000C0A1C710C0C9C71090E19729A72110A3B
:1094A0001973110C9973110E19749874010A1975B6
:1094B000010C9975000E187610BD0000F8300020E0
:1094C000405C0040923100207C310020DC300020E4
:1094D0004C9A000828040020B03000205553424325
:1094E000D03000209C050020A40500208804002026
:1094F00078310020E8F7FF1FF8040020064801211A
:1095000001600021016041604FF4E051034A118085
:10951000FFE7016000207047405C0040923100206E
:109520008168C26891420BD107E00268116889180E
:1095300053685B18C36008320260C2689142F4D07D
:109540004A1C8260087870472DE9F04D88B000F120
:109550000801039101684A08039B03EBC2020492CD
:1095600000220592069200EB810101F10806406895
:1095700000F001010291400806EBC00001900024B8
:10958000154601E0AC4205D10198864202D108B0EF
:10959000BDE8F08D00F077F8074617F0030803D117
:1095A00000F071F800F10308381100900F2819D16C
:1095B00000F069F80F30009014E000F064F8824683
:1095C000AC420DD10198864208BF00F05EF83468C5
:1095D000029800B14C44706805190836AC42F1D0CD
:1095E00004F801ABB8F10108E7D100980028C9D010
:1095F00000F049F88046B81000F00300032804BFCB
:1096000003A8FFF78DFF37462146AB4608EB002045
:1096100006E0801A083F79683A6801EB020B594668
:109620003A688A1A8242F4D3404200EB010A4FF0B2
:10963000000805E09DF81C0004F8010B08F1010882
:109640000098801C80459DD0DA4507D157F804ABBF
:1096500057F8040B00EB0A0BDA45F7D01AF8010BA8
:109660008DF81C00AC42E5D10198864208BF00F09D
:109670000CF83468029800B14C447068051908363B
:10968000AC42F1D0D6E703A84AE7012000F000B8C9
:10969000C046C046024A11001820ABBEFBE700BF1F
:1096A000260002002DE9F84F0020ADF8000040F63A
:1096B0008F7848F60F7B48F28006444F444CDFF821
:1096C0001491DFF814A14BF6BF7525E054F8201073
:1096D000ADF80010BDF8001009040BD554F82010A7
:1096E00008EA010144F820103C4901EB800050F8E1
:1096F000040C8047BDF8000000060DD599F8000065
:1097000054F820100BEA010144F82010344901EB11
:10971000800050F8040C8047606CAAF80000000438
:1097200052D5BAF8000010F00F0089F80000CDD132
:1097300020683880388800F030007880388800F45D
:10974000405038802068284080F4005080F020008D
:1097500030432060BAF80000C006206805D40BEA48
:1097600000002060FFF7F6FC16E0ADF80000BDF841
:109770000000000506D5206808EA00002060FFF719
:10978000B5FC09E0BDF800000004C5D5206808EA72
:1097900000002060FFF701FD206828403988C904D7
:1097A00048BF80F480503988890448BF80F4005055
:1097B0007988C90648BF80F010007988890648BFBB
:1097C00080F0200030432060BDE8F18F843100201C
:1097D000005C0040963100208C31002030050020D4
:1097E0001405002000F005F8FDF7E1FAFCF776FC1F
:1097F000FAE710B5FEF7BBFBFEF760FBFDF7FCF8E0
:10980000FEF78AFBFDF7BCFF0A20FEF768FB00208D
:10981000FEF7C6F840F2F51188420AD30020FDF7A2
:10982000BCF8C820FEF75BFB0120FDF7B6F8FEF799
:10983000DFFBFAF731FDFAF76BFEFEF7CDF8FDF727
:10984000F7F9002200214FF41660FDF795F9FEF7B5
:1098500014FBFDF705FBFAF791FCFDF793F80020E8
:10986000FDF722FA40F6B830FDF78CFA104CFCF701
:1098700067F810B10020207003E001202070FDF790
:109880009BFA0C48407C012818BF002806D0801E97
:109890004FF496714843C0F5E16001E04FF4E16098
:1098A000054A1060002180B2BDE81040FDF7FFBFFF
:1098B0009431002058040020840400202E480168C0
:1098C00041F00101016041682C4A1140416001688A
:1098D0002B4A11400160016821F480210160416838
:1098E00021F4FE0141604FF41F01816000210268F4
:1098F00042F4803202600268491C920302D4B1F53E
:10990000A06FF8D10168890330D51E490A6842F07A
:1099100010020A600A68920892000A600A6842F01F
:1099200002020A604168416041684160416841F457
:1099300080614160416821F47C114160416841F4DB
:1099400080314160016841F08071016001688901E6
:10995000FCD54168890889004160416841F00201F5
:109960004160416801F00C010829FAD106484FF026
:109970000061016070470000001002400000FFF825
:10998000FFFFF6FE0020024008ED00E05374617214
:1099900074416E676C6500004765617200000000ED
:1099A0004D6F746F7254696D65436E7400000000F2
:1099B000566572005374617274416E676C653D3216
:1099C00000000000476561723D3000004D6F746F0C
:1099D0007254696D65436E743D3000005665723D8A
:1099E000312E3130000000002020202020202328AC
:1099F000327E39290D0A000020202020202020203E
:109A0000202020202328307E35290D0A0000000068
:109A10002020202023526561644F6E6C790D0A006E
:109A20002020202020202020202023526561644F08
:109A30006E6C790D0A000000120100020000004067
:109A400083042057000201020301000009022000E4
:109A5000010100C032090400000208065004070595
:109A600081024000000705020240000004030904CF
:109A70002603530054004D006900630072006F001C
:109A800065006C0065006300740072006F006E007A
:109A900069006300730000002603530054004D006A
:109AA0003300320020004D0061007300730020007D
:109AB000530074006F0072006100670065000000D1
:109AC00010035300540020004D0061007300730028
:109AD00070B50D4C0D4D286820800D4E20883188C2
