:020000040800F2
:10400000783C002045F60008A9F30008ABF300084F
:10401000ADF30008AFF30008B1F3000800000000A2
:10402000000000000000000000000000B3F30008E2
:10403000B5F3000800000000B7F30008B9F300086A
:10404000A5F70008A9F70008ADF70008B1F70008C8
:10405000B5F70008B9F70008BDF70008C1F7000878
:10406000C5F70008C9F70008CDF70008D1F7000828
:10407000D5F70008D9F70008DDF70008E1F70008D8
:10408000E5F70008E9F70008E9770008F1F700080C
:10409000BBF30008F9F70008FDF70008C7F30008B4
:1040A00005F8000809F800080DF8000811F80008E4
:1040B000BFF30008C3F300081DF8000821F800084A
:1040C00025F8000829F800082DF8000831F8000844
:1040D00035F8000839F800083DF8000841F80008F4
:1040E00045F8000849F800084DF8000851F80008A4
:1040F00055F8000859F800085DF8000861F8000854
:1041000065F8000869F800086DF8000871F8000803
:1041100075F8000879F800087DF8000881F80008B3
:1041200085F8000889F800088DF8000891F8000863
:104130000A225143002807D101EBC101052091FB60
:10414000F0F101F5486106E001EB8101A1F57A513A
:10415000092091FBF0F1104691FBF0F002FB1012E8
:10416000052A02DB401C00B2704700B2704770B5F0
:10417000DFF8D44A00206060606101F07EFC0A250F
:10418000DFF8C86AF16A6943814206D20420DFF889
:10419000C01A0870082001F045FB012001F042FB25
:1041A000F0694543256170BD80B501F0D2FA04285D
:1041B00009D100BF14A0009008231A4611464420DC
:1041C00002F019FC01BD01F0C4FA022803D001F08D
:1041D000C0FA012809D100BF0DA0009008231A469B
:1041E0001146442002F007FC01BD01F0B2FA052897
:1041F00008D100BF08A0009008231A4611464420A9
:1042000002F0F9FB01BD0000FFFF81EDEDF3FFFFC0
:10421000FFC3BDBD9D83BFFFFFFF81BDBDDBE7FFCA
:1042200018B585B0002819D0DFF8284A01F025FC20
:104230002080208802F096FDDFF81C1A02F0A0FD15
:1042400002F01CFE02460B460BA1684602F03AFE45
:104250006A460021422000F0ABFC0BE001F00DFCAF
:10426000024664A1684602F07CFE002269461046C0
:1042700000F0F3FB06B010BD252E31663A3B00007E
:10428000401E072815D8DFE800F00406080A0C0EC7
:10429000101280207047C0207047E0207047F02047
:1042A0007047F8207047FC207047FE207047FF20C1
:1042B000704700207047000030B585B001F0DDFB8D
:1042C00002F050FD044601F0D8FB02F04BFD214600
:1042D00002F0DEFE044602F047FF0546DFF87C09E7
:1042E000006802F03FFD0146204602F049FD2946E4
:1042F00002F0CEFE03F0FAFADFF86419088080B20B
:1043000002F030FDDFF8501902F03AFD02F0B6FD80
:1043100002460B4605A1684602F0D4FD6A4600211C
:10432000422000F045FC05B030BD0000252E31666E
:104330003C3B00007FB502F017FF4FF0834102F0D5
:10434000A7FE03F0D3FA0446E4B200252A4608216A
:1043500002A803F0FDFA112C24DA082C07DBFF2653
:10436000A4F10800C0B2FFF78BFF054603E020462A
:10437000FFF786FF064656EA050000D1802600209A
:1043800004E002A90D5401440E71401C0428F8DB1E
:104390000420019002A800901023042200213B2059
:1043A00002F061FB7FBD1CB504460A469BA168462E
:1043B00002F0D7FD684603F0EDFA0146DFF88C08FD
:1043C000806A002801D1432000E045206A460B4660
:1043D0009BB2D054491C202301E01354491C0846C9
:1043E00080B20428F9DB002111546946204600F010
:1043F000FBFA13BD2566560010B4014600200246A4
:104400000EE0E41FE34008E0012393400B4054001A
:10441000042AF6DAC4F10704A340DBB21818521CD0
:10442000072AF1DDC0B210BC70472DE9F84F98465D
:10443000DFF8C05B05F5D076002B12D1DFF8B84B62
:104440002378002B08D10023B361F361012323708B
:1044500000236370A3701DE03368B361F368F361F8
:1044600018E0012B12D1DFF8904B6378002B08D1B4
:104470000023B361F3612370012363700023A370F1
:1044800008E07368B3613369F36103E0B368B36153
:104490007369F3614FF0000982468B46144609E0C8
:1044A0001AF80900FFF7A8FFDFF8581B01F8090008
:1044B00009F1010921465F464F43B9EB470FEFD39E
:1044C000002301E003EB4103B3EB470F39D2002295
:1044D00016E02AFA00FA25F81CA007E0F069002887
:1044E000F7D1B0690AFA00FA25F81CA035F81C00CB
:1044F00082464FEA1A2A0EF80CA00EF80900521C48
:10450000A1464A45DED203EB020CE144DFF8F4EAAF
:104510001EF80C001EF809A04AEA002A25F81CA083
:1045200040460128DAD1B069002805D1F0690AFABD
:1045300000FA25F81CA0D9E72AFA00FA25F81CA0F1
:10454000D4E70024DFF8BC5A04E0285DFFF754FFED
:104550002855641CB4EB470FF7D3F069002806D147
:10456000B069102803D10020B0611020F061F0691B
:10457000002803D1B069401CB06101E0401EF06129
:10458000B069F1694246002A02D1F160306007E06B
:10459000B8F1010F02D17060316101E0B06071616A
:1045A000BDE8F18F1CB5DFF8844A207800280AD1D5
:1045B000DFF87C0A0090102360220021084602F0F8
:1045C0001AFA606021E0012809D160680090102388
:1045D00060220021084602F00EFA606015E0022811
:1045E00009D1DFF84C0A0090102360220021084610
:1045F00002F001FA09E0032807D160680090102357
:1046000060220021084602F0F6F92078401C207054
:10461000C0B2042801D10020207013BD2564000021
:10462000F8B582781646303E0A2E02D2A2F1300545
:10463000EDB2C2781646303E0A2E02D2A2F1300404
:10464000E4B200780246303A0A2A02D2A0F13003DE
:10465000DBB2002619E0DFF8D47BDFF8D40B182298
:1046600002FB036C10F80CC007EB060E8EF860C05E
:104670003744903702FB056C10F80CC087F800C077
:1046800002FB0462805C3876761C182EE3DB002780
:104690000C460FE0009610230C220021284600EB68
:1046A0004006B000C0B202F0A6F906466D1C082D07
:1046B000F0DB7F1C102F0CDADFF8706B200006D1C6
:1046C00002230C2208213046FFF7AFFED836002522
:1046D000EDE7002C09D14FF47A7002F064FD02F08E
:1046E0004CFABDE8F14003F0B1BCF1BD2DE9FF414A
:1046F00002460E46B5A7394601A802F032FC01A8D1
:1047000003F048F90146DFF84445A06A002801D1CA
:10471000432000E0452001AD0A4692B2A854491C4E
:10472000202201E02A54491C084680B20328F9DB04
:104730000021295401A9002000F056FADFF8F48A7C
:1047400098F80000411C88F80010DFF8FC1B01EB12
:104750004010009010231A460021292002F04BF946
:1047600098F80000032802D1002088F800003246A3
:10477000394601A802F0F5FB01A803F00BF9014648
:10478000A06A002801D1432000E045200A4692B2E9
:10479000A854491C202201E02A54491C084680B232
:1047A0000328F9DD0021295401A9382000F01CFA62
:1047B000BDE8FF817CB503F02CF9801E03280ED8DC
:1047C000DFE800F00205080BDFF8804B07E0DFF8B8
:1047D000804B04E0DFF87C4B01E0DFF87C4BDFF836
:1047E0007C0B009010231A460021084602F003F9C2
:1047F000022510E005EB850004EB800028380090CE
:1048000010230A220021284600EB80067000C0B267
:1048100002F0F1F86D1C092DECDB4FF4FA7002F098
:10482000C2FC50211020BDE87C4002F056B9F0B522
:10483000DFF8C467B17800290AD10121F1700021A5
:1048400031710821B1710021317071700121B17095
:10485000F17800292BD100237371DFF8A85713E0FA
:104860001C4600EB070CA4449CF833C005F804C0B8
:10487000944600EB0C0EA644774497F83370A4449A
:1048800005F80C705B1C737137797379B4799C42AD
:10489000E6D2641CB4717B1E3371E4B20B2C06D1DA
:1048A0000A20B071002030710120F070F0BD337922
:1048B000002B27D10123737113E01F468C46BC44A3
:1048C000DFF8404700F13305ED5D04F80C50154664
:1048D00000EB050E774497F83370654467555B1C11
:1048E0007371B4797379A342E7D3601EB071491C28
:1048F000F170C0B2002805D10120B07109203071DB
:104900000020F070F0BD00007CB504460D46DFF8D5
:10491000F46600221421304603F01AF8002C07D167
:1049200000230A220121DFF8F80BFFF77EFD11E0DA
:10493000012C07D101230A221946DFF8E80BFFF703
:1049400074FD07E0022C05D10A220121DFF8D00B0B
:10495000FFF76DFF00960A231A460621562002F043
:104960004AF800F05BFF042809D100BF1BA00090AB
:104970000A2306221146502002F03DF814E0002DD3
:1049800009D1DFF8A40B00900A230622114650201B
:1049900002F031F808E000BF0DA000900A230622C3
:1049A0001146502002F027F8FFF7FEFBA748406BA6
:1049B000002803D10120FFF733FC03E0012801D1D7
:1049C000FFF77AFCBDE87340B4E400002564000002
:1049D00000F0FEFFF000007F7F7F7F00FF0FE1E02F
:1049E0000FFFFF80BFBF80FFFEB504460D462401C8
:1049F0001CE00A2001E0363810263746FFB2C7F126
:104A0000100110220192DFF8242BC0B201EBD1710A
:104A1000491001EB40115018009010233246D2B2D9
:104A200000212046C0B202F01EF83C192878002868
:104A300012D015F8010B2028DBD02D2801D10C2035
:104A4000DBE7A0F130010A2902D230380E26D4E784
:104A5000A0F141010629CED3F7BD38B504460D4675
:104A6000002A27D12878002827D015F8010B2038F4
:104A7000DFF86C1CC0B201EB00100090102308227C
:104A80000021E000C0B201F0B6FF641CEAE715F8AF
:104A9000010B3038DFF8481CC0B201EB001000F504
:104AA000BE600090102308220021E000C0B201F097
:104AB000A2FF641C28780028E9D131BD1CB502464C
:104AC000DFF8204C04F5087051EA020317D10024E6
:104AD000012C6CDC002C09D0012C0ED1009010238D
:104AE0001A460021502001F086FF06E000901023B6
:104AF0001A460021084601F07EFF641CE8E7130017
:104B00002AD00B0028D11146012912D104F51070CA
:104B1000009010231A460021502001F06CFF04F58C
:104B20001870009010231A460021084601F063FF18
:104B300013BD022A3BD1009010231A4600210846DB
:104B400001F059FF04F52070009010231A4600214F
:104B5000502001F050FF13BD002A28D10A0026D0B2
:104B6000012A12D104F51070009010231A4600217A
:104B7000502001F040FF04F52870009010231A46E1
:104B80000021084601F037FF13BD02290FD1009024
:104B900010231A460021084601F02DFF04F530705D
:104BA000009010231A460021502001F024FF13BD6D
:104BB0007CB504460D46164612E016F8010B2E3859
:104BC000DFF8241BC0B200EB400201EB4200009072
:104BD0000523062229462046C0B201F00CFFA41D81
:104BE00030780028E9D173BDF8B504460D4600269B
:104BF0001CE00A2004E0A0F130010A29F9D2303883
:104C0000DFF8E81AC0B200EB800201EB82000090EE
:104C100010230A22002120463746FFB207EB870CFB
:104C200000EB4C00C0B201F0E6FE761C28780028AC
:104C300009D015F8010B432801D10B20E0E74528E6
:104C4000D9D10C20DCE7F1BD080000207400002061
:104C5000B0040020623400200000C8424C34002020
:104C6000643400202DE9F8438AB005460C46164608
:104C70000022142101A802F06BFE002202216846E6
:104C800003F0EAF908A80FF6A021D1E90023C0E952
:104C9000002306A80FF69821D1E90023C0E90023DC
:104CA000DFF84C8A0022284608EB80004168104655
:104CB000FFF7D3FE28460A2800F2F580DFE800F06F
:104CC000061524337A89A8B9CADCEE00DFF8240A75
:104CD00040690A2190FBF1F2C4A101A802F041F958
:104CE00001A802F057FE0746DDE0DFF8080A006978
:104CF0000A2190FBF1F2BDA101A802F032F901A84E
:104D000002F048FE0746CEE0DFF8E809C0696421FA
:104D1000B0FBF1F2B5A101A802F023F901A802F05D
:104D200039FE0746BFE000F014FD022803D000F072
:104D300010FD012807D1DFF8BC09026AABA101A868
:104D400002F00FF931E000F098FE0746BFB202F022
:104D50003DFE00EB8001B7EB410F20D300F019FEC0
:104D6000642148437F43B7FBF0F7BFB2B8F80000B7
:104D700000280DD101F033F8002809D0B8F8000060
:104D8000811CB94202DB801E874201DAA8F800705C
:104D9000B8F8002095A101A802F0E3F805E0B8F802
:104DA000002093A101A802F0DCF801A802F0F2FDB6
:104DB000074678E0DFF83C0980690A21B0FBF1F290
:104DC0008AA101A802F0CDF801A802F0E3FD074690
:104DD00069E086A7DFF81C89D8F82C000A21B0FB0F
:104DE000F1F2394601A802F0BCF8D8F82C200A20CC
:104DF000B2FBF0F000EB8001A2EB410239466846BD
:104E000002F0AFF801A802F0C5FD07467F1C4AE09A
:104E1000DFF8E008806A002805D1032277A101A805
:104E200003F05EF938E0032275A101A803F058F9F8
:104E300032E0DFF8C008406A002805D1042272A1E0
:104E400001A803F04DF915E0042270A101A803F0B8
:104E500047F90FE0DFF89C08006B002805D1042219
:104E60006BA101A803F03CF904E0042269A101A8A8
:104E700003F036F9032716E0DFF87808406B0028C6
:104E800005D1032264A101A803F02AF904E003225A
:104E900062A101A803F024F9022704E00FF69801AB
:104EA00001A802F05EF8012E5CD107F10808DFF8D6
:104EB00048687069B0F5167F48D2207801280BD178
:104EC000002257A10720FFF7C8FD002255A1404648
:104ED000C0B2FFF7C2FD1AE00FF24C1902280BD145
:104EE000002250A10720FFF7B8FD002249464046A6
:104EF000C0B2FFF7B2FD0AE0002249A10720FFF788
:104F0000ACFD002249464046C0B2FFF7A6FD052D84
:104F10000CD1002201A90820FFF79FFD012269465C
:104F2000FF1D3846C0B2FFF798FD04E0002201A93A
:104F30000820FFF792FD7069002853D14FF47A7072
:104F40007061002C4ED0002020704BE0002235A173
:104F50000720FFF782FD0022B3A14046C0B2FFF751
:104F60007CFD3FE028460A2805D1002201A9104611
:104F7000FFF773FD36E000222AA10720FFF76DFD41
:104F8000284605280BD1002201A90820FFF765FD5E
:104F900001226946F81DC0B2FFF75FFD04E0002260
:104FA00001A90820FFF759FD280001D0012D12D1D9
:104FB00008373846DFF83C17896A002905D10022F6
:104FC00008A9C0B2FFF749FD0CE0002206A9C0B253
:104FD000FFF743FD06E0002293A108373846C0B230
:104FE000FFF73BFD0BB0BDE8F08300BF2564000078
:104FF0002D2D000004070020A00A0020207B0000C7
:10500000207D0000B005002020524800204C4800C0
:105010004F464600204F4E00205600002050000012
:105020003C000000200000003E000000283400206A
:10503000B0E600082DE9F84F074600208DF8000083
:105040004FF47A74DFF8B0566C614FF47A60E86020
:1050500038460A280FD8DFE800F0068C95989B9E0A
:10506000A1A4A7AAAD00DFF88C0600F1140880699E
:10507000DFF8881688606C614FF47A60E8604FF45E
:10508000967002F090F8DFF87406394601EB4102A1
:1050900000EB8201D1F80090D1F804A0B1F808B07B
:1050A000DFF85066B16A012907D1390001D0012922
:1050B00003D1D0F87890D0F87CA001226946384618
:1050C000FFF7D0FD02F086FC002844D0D8F800207D
:1050D0001146B0F5014F02D0B0F5807F73D19245F3
:1050E00009DAA2EB0B02C8F800201046824500DB6B
:1050F0005046C8F80000D8F8000081421AD039465E
:1051000006295AD1002815D1716909B20120FFF78B
:105110000FF87061316909B20120FFF709F83061B9
:105120007069B0F57A7F00DA74613069B0F57A7F22
:1051300000DA346101208DF80000322002F033F8EB
:105140004FF47A60E8604FF4C870686101226946E4
:105150003846FFF787FD02F079FFE8680028ACD1F8
:105160004FF4FA50E860002F01D100F0EDFABDE8ED
:10517000F18FDFF8800500F110088069DFF87C15F9
:10518000486178E7DFF8788575E7DFF8788572E7BA
:10519000DFF874856FE7DFF874856CE7DFF87085FA
:1051A00069E7DFF8708566E7DFF86C8563E7DFF8AD
:1051B0006C8560E703F08AFED9E738460728B9D145
:1051C00001F0B4FCB6E7402803D048F2400398420F
:1051D000B3D14A4508DA5A44C8F800201046814540
:1051E00000DC4846C8F80000D8F80000814216D01C
:1051F000394606290ED1012811D1716909B2002062
:10520000FEF796FF7061316909B20020FEF790FF4A
:10521000306104E03846072801D101F087FC022004
:105220008DF8000089E7000020202000D80400202D
:1052300094EC0008703400202DE9F843002637462E
:105240004FF01408B14601F098FC3246114608466A
:10525000FFF708FDDFF8A05442F21070E86000F09C
:1052600084FA002802D1012000F0FAFE02F0B2FB1D
:105270000446403810D0C03806D047F64071401A76
:105280005DD0C03810D029E03046C0B2002801D02F
:10529000761E21E00A261FE03046C0B20A2801DA55
:1052A000761C19E0002617E002F0A6FB3046C0B2DB
:1052B000032807D100F04DFA04280DD000F049FA78
:1052C000052809D03046C0B2FFF7B4FE00221146CF
:1052D0003046C0B2FFF7C6FC4FF00109002C0AD0DF
:1052E00001F04BFC4FF4FA50E860002211463046C2
:1052F000C0B2FFF7B7FC02F0A9FE0A2001F053FF8D
:105300006869002805D1002211463046C0B2FFF777
:10531000A9FCA8680028A9D14FF47A70A8607F1C66
:105320004846002803D04FF0000907F1140838461A
:10533000414680B289B2884298D3BDE8F18302F039
:105340005BFB0020E860F8E744F0000860E4000838
:105350000CE5000898E5000824E60008ECE40008E5
:105360007CB504460D4650262D0110E0102106F1B3
:10537000100001F0B2FB009410231A4600213046C1
:10538000C0B201F038FB103E192001F00CFF284696
:10539000C0B28642EADA73BDF8B50C460A2093FB28
:1053A000F0F000B2642190FBF1F3DBB20E4606FB95
:1053B00013010A2291FBF2F7FFB206FB13063846EF
:1053C00000EB8001A6EB4106F6B2DFF854532878D3
:1053D000012805D10120A8600020E860287007E0BE
:1053E000022805D10020A8601020E8600020287065
:1053F0000020686026E092F8A02181F838211FE0A3
:1054000001444A4A02EB431C1CF800C081F8D8C092
:1054100002EB471C1CF800C081F8F8C002EB461CE8
:105420001CF800C081F818C10244DFF8C8C2DCF8DB
:1054300028C0BCF1010FDED192F8E02181F83821BB
:10544000401C68606868B7492246B0EB420FD7DB62
:1054500001F1D800012169600AE0009010231A468A
:1054600000212001C0B201F0C6FA6968491C6960D8
:105470006C68042CF1DDAA68E86852EA000103D0E8
:10548000002803D1102A01D10020F2BD002802D14A
:10549000521CAA6001E0401EE8600120F2BD70B518
:1054A0000546224C002104F50870FFF759FF4FF420
:1054B0007A7095FBF0F6F6B2012104EB4610FFF787
:1054C0004FFF4FF47A7000FB1655642095FBF0F601
:1054D000F6B2022104EB4610FFF742FF03216420DD
:1054E00000FB16550A2095FBF0F0C0B204EB40100B
:1054F000FFF736FF7F48806A012805D1042104F5B3
:10550000F070FFF72DFF04E0042104F5D070FFF7E1
:1055100027FF052104F51070BDE8704020E700006A
:10552000D8F10008F8F10008ECF10008C0DE00082E
:1055300010B44FF47A7392FBF3F3642492FBF4F407
:10554000A4B2002912D18018642190FBF1F14FF42C
:105550007A7290FBF2F080B29BB2984212D189B27B
:10556000A14201D0022015E0012013E0101A6421AD
:1055700090FBF1F14FF47A7290FBF2F080B29BB2A3
:10558000984201D0032005E089B2A14201D0022057
:1055900000E0012010BC70472DE9F84F0546B5F931
:1055A0000040544ED6F818805449B06A002804D1FF
:1055B000D1F80090D1F804A008E0D1F87890D1F8A3
:1055C0007CA021460020FEF7B3FD044601F0D5FA89
:1055D0002046FFF764FF484F42F21070F8606FE01A
:1055E000402803D048F24001884267D1204600B2EB
:1055F000484525DADFF828B101208BF80000224663
:1056000012B20021404680B2FFF792FF4444214687
:1056100009B2894500DA4C4623461BB2002210210C
:10562000FFF7BAFE02208BF800000021FFF746FAD0
:10563000204600B2484503D102210020FFF73EFA80
:10564000322001F0B0FD4FF47A60F86036E002F0ED
:10565000C1F9B0F5807F02D0B0F5014FC0D120462E
:1056600000B2824527DADFF8B8B001208BF80000DD
:10567000224612B20146404680B2FFF759FFA4EB22
:105680000804214609B2514500DA544623461BB2AC
:1056900000221021FFF780FE02208BF8000000217D
:1056A0000120FFF70BFA204600B2504503D101213B
:1056B0000020FFF703FA4FF47A60F86002F0C6FCAE
:1056C000F8680028C3D12146B06A012805D109B283
:1056D0000120FEF72DFD288000E02980BDE8F18F34
:1056E00030D80008C0DE0008F8F200089CED000881
:1056F000C00600207400002008000020C40800201C
:1057000090000020940000208C000020A0000020C9
:105710009C00002098000020A4000020A800002089
:10572000F4060020D80400207B2020200000000088
:105730007D20202000000000526573746F72652088
:1057400044464C54000000000020DFF8B418888460
:105750007047DFF8B00800787047DFF8A8180870C5
:105760007047DFF8A41808707047DFF89C080078CD
:1057700070472DE9FE4F0026DFF8907801223B4666
:1057800003F032FC06D834463D4606460F46CDE9C6
:10579000000104E004460D46F9E746464F46304610
:1057A000394622462B4603F01FFC33D832463B468F
:1057B0002046294603F030FC0022DFF8543803F07D
:1057C000E9FC8046894642464B4603F0E3FC8246AC
:1057D0008B46DDE9002303F0AFFDDFF83828DFF862
:1057E000383803F01BFE0BD2DFF83028DFF83038F2
:1057F00003F0FAFB04D84046494603B0BDE8F08FF9
:10580000DDE9000152465B4603F008FEC5D344467D
:105810004D46C4E70020DFF80C18EEE7DFF8E0079C
:1058200000787047DFF8D8170A784A7008700120AE
:1058300088707047DFF8F007008870473822DFF87B
:10584000EC17DFF8EC0702F03BBC38B50446FFF775
:1058500080FF022803D0FFF77CFF012873D1204688
:10586000012812D10821DFF8D00703F046FEDFF847
:10587000C4474FF48061204603F03FFE4FF480712F
:105880002046BDE8344003F038BE200012D1DFF8D6
:10589000A4474FF48071204603F02FFE0821DFF863
:1058A000980703F028FE4FF480612046BDE834409D
:1058B00003F021BE022821D1DFF87C5708212846B9
:1058C00003F01BFEDFF86C474FF48071204603F0B5
:1058D00012FE4FF48061204603F00DFE1E2001F001
:1058E00062FC0821284603F006FE1E2001F05BFC46
:1058F00008212846BDE8344003F0FFBD032C22D127
:105900000821DFF8340703F0F8FDDFF828474FF4EB
:105910008071204603F0EFFD4FF48061204603F0D4
:10592000EAFD1E2001F03FFC4FF48071204603F099
:10593000E4FD1E2001F037FC4FF480712046BDE8E5
:10594000344003F0D8BD31BD10B5032400F021F878
:10595000FFF70BFF00281BD100F08FF8B0F5167F82
:1059600002D30520FFF7F9FEFFF7F3FE002808D168
:105970002046441EC0B2002803D003F0D0FF002808
:10598000F6D100F05FFA0020BDE8104001F01FBC26
:1059900010BD2DE9F0410024254601F0F2FB06463A
:1059A00000F01DFA002803D1DFF89006006862E0DD
:1059B000204601F0E2FBDFF87C7640207861A046CB
:1059C00023E00121384603F096FD022001F0EBFBB5
:1059D000012001F0E8FB002001F0CAFB02F0E7F82B
:1059E00004190121384603F088FD022001F0DBFB99
:1059F000012001F0D8FB002001F0BAFB02F0D7F83B
:105A0000451902F023FB08F101084046C0B20A28FC
:105A1000D7DBDFF82C76DFF82486204601F0A2F9E8
:105A2000DFF8201601F0ACF90446284601F09AF997
:105A3000DFF8101601F0A4F90146204604F02AF818
:105A4000DFF8041601F024FB394601F021FB39464A
:105A500001F01EFBDFF8F41501F092F9DFF8F01504
:105A600001F08EF904F056F8C8F80000304601F055
:105A700084FBD8F80000BDE8F08138B50024254645
:105A800005E0DFF8D00504F023F904196D1C0A2D98
:105A9000F7D30A20B4FBF0F040F2BC714843000B8E
:105AA00032BDDFF85C0500218181C1810182418224
:105AB000016241610F2101830221418332218183EF
:105AC0007047F0B400210122DFF83435D881B3F9F2
:105AD0000C500646AC1B1C822F4607F11E0C844559
:105AE00005DA93F803C00CF1010C83F803C093F8B6
:105AF00003C0BCF10B0F02DB8C46C3F820C0783723
:105B0000874201DA0846D870AE4201DA0846D870FA
:105B100027463FB2B7F5967F06DA1146D8780028B7
:105B200002D1186A38181862B54207DA751B2DB20F
:105B3000332D03DB002018620146986607F11E0032
:105B40003D2800D20022B3F912507D1B1E2F02DD2A
:105B5000002D00D5002217F11E0F02DA002D00DD06
:105B600000221E8B588B4143186A414307FB0611E4
:105B7000988B454302FB051159615C82002902DCC8
:105B80000020586105E0B1F5FA6F02DD4FF4FA60CC
:105B90005861586980B2F0BC704710B402460B4699
:105BA000DFF88444884208DA9A1A192A02DB0020B6
:105BB00020800AE00220208007E0D21A192A02DCA5
:105BC0000220208001E00120208010BC7047DFF817
:105BD0003024918175E770B5064600242546C8201B
:105BE00001F0E1FA2046FFF730FEC82001F0DBFAB1
:105BF000002E2BD0DFF80804006DDFF84014096890
:105C0000484304F097F8FFF7B4FD2246DFF8483424
:105C100003F0C0FA04460D46002606E00220FFF716
:105C200014FE1E2001F0BFFA761C304680B2042814
:105C3000F4DBFFF78EFD022808D1FFF71EFF40F2CC
:105C4000A331884202D30120FFF787FDFFF781FDD2
:105C500001285AD1FFF711FF143004F06BF82246E7
:105C60002B4603F0DBFB25D2FFF707FF04F062F8B9
:105C700002460B462046294603F05EFB0022DFF871
:105C8000DC3303F0C9F904F063F880B2142190FB0F
:105C9000F1F4204680B2102800DB0F24204680B2A9
:105CA00000283CD00220FFF7D0FD1E2001F07BFA37
:105CB000641EF3E7FFF7E1FE04F03CF802460B46F2
:105CC0002046294603F0AAFB29D2FFF7D6FE14305E
:105CD00004F030F822462B4603F02EFB04F038F88F
:105CE00080B2142190FBF1F4204680B2102800DB32
:105CF0000F24204680B2002811D00320FFF7A5FD15
:105D00001E2001F050FA641EF3E71E2001F04BFA4A
:105D10000120FFF79AFD0020BDE8704095E570BDB9
:105D20001CB5C648006801F01DF8C54901F028F807
:105D30000146684603F09BFC0098002806D00199B4
:105D400089B280B2BDE81C4003F035BC03F02AFCE8
:105D5000044603F01FFC214689B280B2BDE81C4016
:105D600003F029BC10B5012802D1BDE81040D7E7E7
:105D700003F018FC044603F00DFC214689B280B202
:105D8000BDE8104003F017BC38B5FFF776FE0446B7
:105D9000A4B20A2501F01AFE6843844201D2012010
:105DA00032BDDFF8880BC06D4543A54201D2022009
:105DB00032BD002032BDDFF8781B0870002801D109
:105DC000002088607047884208D3DFF8642B506059
:105DD0009060D160002801D100201070704780B51C
:105DE000DFF84C1B087801280CD14868002809D03E
:105DF0008868B0F5FA7F03D301F0C3F9002801D019
:105E0000002002BD012002BDDFF8242B10780128FC
:105E100010D1516800290DD09068002803D09068F7
:105E20006438906070479160D06800EB8001880012
:105E300001F0A3B9704700221021DFF8F40A01F045
:105E400087BD00007CB5DFF8EC5A2E783046062876
:105E500080F2B480FFF77DFC042801D0032802D132
:105E60000720287073BDDFF8D04AE069002840F0B1
:105E7000A580761C2E70F6B2761E042E00F29E804F
:105E8000DFE806F00344657B9400FFF762FC00281E
:105E900002D00720287073BDFFF7EFFD40F25921B3
:105EA000884204D30520FFF758FC072028704FF4E0
:105EB000A060ADF8000004208DF8030003208DF8E9
:105EC00002005C4D6946284603F0C0FA0820ADF890
:105ED000000010208DF8030003208DF80200564EBC
:105EE0006946304603F0B2FA0821304603F005FB5C
:105EF0004FF48061284603F000FB4FF48071284680
:105F000003F0FBFA4FF49660E06173BD4FF4A060BC
:105F1000ADF8000010208DF8030003208DF802007A
:105F2000444D6946284603F091FA0821424803F09F
:105F3000E4FA4FF48061284603F0DFFA4FF48071F1
:105F4000284603F0DAFA4FF49670E06173BDFFF76C
:105F500094FD40F2592188421CD2FFF7FAFB002839
:105F600002D00720287073BD0220FFF7F6FB002047
:105F7000FFF76BFCC820E06173BDFFF7EAFB022866
:105F800002D00720287073BDFFF777FD40F259213A
:105F9000884205D20520FFF7E0FB0720287073BD7B
:105FA0000120FFF752FCC820E06173BDFFF765FDDB
:105FB00040F25921884201D30720287073BD38B5BB
:105FC000DFF8744940F214502062FFF7C2FB042846
:105FD00002D14FF4C870206202F038F801F0F6FCEC
:105FE0000546FFF74AFD05EB85014900814204D3D0
:105FF000206A0028F0D1012032BD002032BD00000F
:10600000440000206C3400206D3400200000F03F7C
:106010000000E03FFDA9F1D24D62503FFCA9F1D252
:106020004D6250BF0000F0BF60340020E8F300086C
:106030007400002000080140000C01404C34002096
:106040000000C8420000204100404E450000B64814
:10605000000034420028014000002440000034C009
:1060600038B504460225FFF774FB002828D0FFF757
:1060700070FB052824D0012C02D0022C21D031BD88
:106080002846C0B2002800D06D1EFFF762FB022830
:1060900003D0FFF75EFB012803D10120FFF79BFD32
:1060A00006E0FFF756FB042802D10120FFF75AFE55
:1060B000FFF785FF002803D02846C0B20028DFD1B3
:1060C00031BDFFF746FB042803D12846BDE8324026
:1060D00048E6FFF73EFB022803D0FFF73AFB012812
:1060E000EED10120BDE83240FFF7AFBB2DE9FF4103
:1060F00000270324FFF7A6FEDFF83058DFF83868E2
:10610000706A002804D1C820706203F0E1FEA87212
:10611000FFF784FB01280CD0032800F02681042817
:1061200000F07782052800F07B83082800F0C08308
:10613000FAE3A878002820D03846A870E86C00EB75
:106140008001480030613320A8850120A866286EB0
:10615000002802D00120FFF72EFE6878002817D112
:1061600000F00BFD00F022FD394605F13000FEF78E
:1061700057FA4FF4FA70B0600AE07069002807D14E
:10618000687A002804D1FEF70DFA4FF47A70706136
:106190003069002806D101F0CDFEB0F5FA7F01DAB2
:1061A0000120687200F0EDFF002801D1FFF7F1FB3C
:1061B00001F010FC0446A4B2002C00F0AE8030695F
:1061C000002800F0AA802046402861D0B0F5807FEA
:1061D00003D0B0F5014F5FD09FE0FFF7BAFA002877
:1061E00000F09B80FFF7D5FBDFF8500700686421C3
:1061F000B0FBF1F0801E09280ED300F0BEFC3A4639
:106200000FF248711046FEF728FC40F2DC5000F017
:10621000CAFF00F0B2FC80E0B84601E008F10108D6
:10622000404680B2042812DC01F0E4FC00B240F6E3
:10623000A171884200DB7F1C3846C0B20428EDDD26
:106240000320DFF8FC1608700820FFF7EBFAFFF7D1
:106250008CFA002806D1FFF77CFA052802D001202D
:10626000FFF7FEFEB5F92400002801D028850BE0D9
:10627000A86D012806D1696C09B20120FDF758FF0D
:10628000288501E0686C28850320FFF7CBFA44E0FD
:106290000520FFF7C7FA40E001F0AEFB00F06DFC0F
:1062A000DFF89886D8F80000002803D06421B0FBFE
:1062B000F1F200E03A460FF2A061684600F051FEAC
:1062C0003A4669461046FEF7C8FB684601F062FB95
:1062D0000746D8F8000000280CD06421B0FBF1F28A
:1062E00001FB1200002803D00A21B0FBF1F202E00A
:1062F000002200E0002247A1684600F032FE0122A1
:1063000069463846C0B2FEF7A8FB01F09FFE4FF485
:106310007A7000F048FF01F099FE687A002809D0F1
:1063200000F02BFC00F039FB286E002802D0002082
:10633000FFF741FDA87A002802D1002C00F0F4827A
:10634000E86C00EB8001480030613320A88500F044
:1063500009FB00F013FB00206872286E002800F093
:10636000E3820120FFF727FDDEE2A878002810D0A5
:106370003846A87000F001FC38463060E86C00EB4D
:10638000800148003061286E002802D03846FFF7AF
:1063900012FDFFF7F9FC00283ED0287901283BD0F8
:1063A000E88D401CE885384600F0E7FEFFF7D1F99C
:1063B000042807D0FFF7CDF9022803D0FFF7C9F969
:1063C00001280FD12046441EC0B200280AD0FFF792
:1063D000CCF9002802D10120FFF742FEFFF7D4FCE0
:1063E0000028EFD1FFF7D0FC012807D10520DFF806
:1063F000501508700820FFF715FA95E2FFF7C4FC66
:10640000022809D10420DFF8381508700820FFF7AA
:1064100009FA89E225640000FFF70CFA2871B5F942
:106420002810B5F9260000F06DFD122801D2288D44
:10643000E88400F0A6FE002811D101F07BFDE8847D
:10644000B5F92840B5F9267021463846FFF7A5FB77
:1064500021463846FFF7BBFB00B200F08EFE2879DC
:1064600001280BD0287A012808D100202872FFF7D4
:106470007CF9002802D10120FFF7F2FD01F0AAFA11
:106480000446A4B2204648F24001401A0ED0C0385B
:106490001BD101F0B1FA002000F06FFE00F06DFB9F
:1064A0000520FFF7BFF9002070600EE001F0A4FAAC
:1064B000002000F062FE0120FFF7B4F9FFF755F964
:1064C000002802D10220FFF7CBFD2879012802D154
:1064D0006979012902D04FF47A71B1606871B068AE
:1064E000002831D1706900282ED1A879002803D165
:1064F0000120A87100F041FBB5F92810A86D012812
:1065000013D10020FDF714FE0746B5F92610002030
:10651000FDF70EFE0A2197FBF1F109B20A2290FB6A
:10652000F2F000B2FEF7E2F80BE00A2091FBF0F186
:1065300009B2B5F926000A2290FBF2F000B2FEF78C
:10654000D5F84FF4FA707061306800282FD1B06828
:1065500000282CD0A879002803D00020A87100F0D2
:106560000CFBB5F926006885B5F928100A4602F13A
:106570001203834203DB123A904200DB6985A86D67
:10658000012805D1B5F92A100020FDF7D1FD688555
:10659000B5F92A000A2190FBF1F109B20020FDF7BC
:1065A00002FFA97A2879FEF7AFF9C8203060A87AEF
:1065B000002801D1002C04D0E86C00EB80014800D9
:1065C00030613069002816D1002000F0D6FD04208B
:1065D000FFF728F901202872288DA884FFF7C5F855
:1065E000002802D10220FFF73BFD286E002802D0D0
:1065F0000120FFF7E0FB01F00CFA012840F3948141
:1066000001F007FA042880F28F810820FFF70AF9C9
:106610008AE1A878002834D03846A8703060E86C49
:1066200000EB8001480030610120A866A86D0128B8
:1066300006D1296C09B20120FDF77AFD288501E019
:10664000286C2885286CB5F9241000290DD1696CB7
:10665000814216DAA86D012805D109B20120FDF7A3
:1066600067FD28850DE029850BE00A46824208DA9D
:10667000A86D012804D10120FDF75AFD288500E00E
:106680002985FFF7D7F8287100F07BFD00282CD171
:1066900001F050FCE884B5F92840B5F92670214690
:1066A0003846FFF77AFA287901281ED02146384665
:1066B000FFF78DFA00B200F060FD287A012814D1AE
:1066C000B5F92600B5F9281088420EDA00202872A4
:1066D000FFF74BF8002802D10120FFF7C1FC286E1C
:1066E000002802D00020FFF766FBB5F92810B5F9A5
:1066F000260000F007FC122801D2288DE8842879B2
:10670000012802D16979012902D04FF47A71B16070
:106710006871B068002834D17069002831D101F067
:1067200009FCE884A879002803D10120A87100F0B1
:1067300024FAB5F92810A86D012813D10020FDF71F
:10674000F7FC0446B5F926100020FDF7F1FC0A21FC
:1067500094FBF1F109B20A2290FBF2F000B2FDF7CE
:10676000C5FF0BE00A2091FBF0F109B2B5F9260054
:106770000A2290FBF2F000B2FDF7B8FF4FF4FA7076
:106780007061E88C68853068002821D1B0680028E5
:106790001ED0A879002803D00020A87100F0EDF9E0
:1067A000A86D012805D1B5F92A100020FDF7C0FC1D
:1067B0006885B5F92A000A2190FBF1F109B20020A1
:1067C000FDF7F1FDA97A2879FEF79EF8C820306020
:1067D00001F01FF9012803DD0820FFF723F8A3E0EB
:1067E000A87A002803D101F0F5F8002805D003208D
:1067F000FFF718F8A88C288596E03069002840F04B
:106800009380002000F0B9FC0120FFF70BF8FEF7A1
:10681000ACFF002840F088800220FFF721FC83E0D5
:106820006878012830D1286E002802D00120FFF7B7
:10683000C2FAFEF701FD434C3A464FF4A0712046E0
:1068400003F0DDF901F09CFC01F03BFF286E00280D
:1068500005D01E2141F28830FFF7B5FA03E0394632
:106860000846FFF7B0FA01224FF4A071204603F06A
:10687000C6F90120FEF7D6FFFEF777FF002853D1B7
:106880000220FFF7EDFB4FE003284DD1286E0028D2
:1068900002D00120FFF78FFA05F12800FEF77CFEF9
:1068A000288DA8842046FEF7BDFF0120A8663BE0A6
:1068B000A87800280ED03846A87000F05EF94FF492
:1068C000FA7070610120A866286E002802D0384650
:1068D000FFF771FA00F055FC002805D0384600F0AB
:1068E0004CFC40201849086001F093F8401E05D088
:1068F000401E012805D801F01DFB02E02046FEF7EE
:1069000091FF706900280FD1FDF754FF4FF4FA7022
:106910007061E879401CE871C0B2032804D13846A0
:10692000E8710120FEF77EFFBDE8FF8144000020F2
:10693000E43300206E340020080000204C34002096
:10694000B004002000280140140801402020204EFF
:106950006F2054697021000054697020523A2564F8
:106960000000000010B504463C21812003F025FC06
:106970003C212046BDE8104003F01FBC80B53C21FF
:106980008D2003F01AFC3C21142003F016FC3C215E
:10699000AF20BDE8044003F010BC80B53C218D2041
:1069A00003F00BFC3C21102003F007FC3C21AE203F
:1069B000BDE8044003F001BC10B504460A46DFF808
:1069C0008403406A002800D020343C21A2F150000A
:1069D000C0B203F0F2FB3C212046C0B2000940F0F7
:1069E000100003F0EAFB3C2104F00F042046BDE850
:1069F000104003F0E2BB2DE9F04105460C46164677
:106A00001B19DBB22046E408891000EB5171C91054
:106A1000B0EBC10000D0641C1846801003EB507826
:106A20004FEAE808069FB3EBC80302D15FFA88F883
:106A300012E008F101085FFA88F80DE02146C9B2BA
:106A40002846FFF7B9FF01233C223146384603F0C0
:106A500095FB30460744641C2046C0B24045EDDB40
:106A60003846BDE8F0812DE9F84305460F46164645
:106A7000DB19DBB23846FF08891000EB5171C910F1
:106A8000B0EBC10000D07F1C1846801003EB50799A
:106A90004FEAE909DDF82080099CB3EBC90302D174
:106AA0005FFA89F912E009F101095FFA89F90DE04D
:106AB0003946C9B22846FFF77FFF01233C22314601
:106AC000404603F05BFB204680447F1C3846C0B242
:106AD0004845EDDB4046BDE8F28378B5A1B00446F9
:106AE0000D46002201A800F033FF00260AE001A8AD
:106AF000009008232A46F100C9B22046C0B2FFF731
:106B00007AFF761C012EF2DD22B070BD80B54FF405
:106B10000040ADF8000003208DF8020010208DF831
:106B200003006946884802F091FC01BD10B5874C0E
:106B30004FF40041204602F0E0FC022000F033FB5D
:106B40004FF40041204602F0D6FC022000F02BFB5F
:106B50007F487C49496A002904D1C8214171A1219B
:106B6000417203E0C0214171A021417200233C2207
:106B70001721BDE8104003F001BB18B5A1B00022F9
:106B8000802101A800F0E4FE002409E001A80090A3
:106B900008238022E100C9B20020FFF72CFF641C0B
:106BA0002046C0B20228F1DB22B010BD2DE9F04131
:106BB000A2B001240022802102A800F0C9FE002218
:106BC0000DF1040164A001F0FDFA050000F0A880B9
:106BD0002878422840F0B28068784D2840F0AE8096
:106BE00005F136000178FF2906D14178FF2903D14C
:106BF0008078FF2800D1002400227F210DF10900B8
:106C000001F02AFA01230F2203E05B00DBB2521EDF
:106C1000D2B2082A2EDB0026374601E00C467F1C44
:106C20003846C0B20C28F0DA02EB420100EB8100DA
:106C3000284490F83EC04FF0800E4FF000082146E7
:106C40004046C0B20828E9DA704600EA0C00002984
:106C500002D1002807D001E0002804D10DF109007D
:106C6000845D1C438455761CF6B24FEA5E0E08F133
:106C70000108E5E702A800900823602200210846E9
:106C8000FFF7B9FE01F0E2F900227F210DF10900C2
:106C900001F0E2F90123002202E05B00DBB2521CAA
:106CA000082A2EDA0026374601E00C467F1C3846BB
:106CB000C0B20C28F1DAA2EB820100EB810028447B
:106CC00090F892C04FF0800E4FF0000821464046E9
:106CD000C0B20828E9DA704600EA0C00002902D1A7
:106CE000002807D001E0002804D10DF10900845DDF
:106CF0001C438455761CF6B24FEA5E0E08F101087B
:106D0000E5E702A800900823602219460020FFF75B
:106D100072FE4FF47A7000F046FA01F097F90DE038
:106D20000C4800901023602200210846FFF763FE04
:106D30004FF47A7000F037FA01F088F922B0BDE81C
:106D4000F081000074000020000C014000080140A8
:106D5000C004002084EF00084C4F474F494E2020CC
:106D6000424D500000280AD0B0FA80F18840D1F19D
:106D70009D01C905020672F1004241EB10207047E7
:106D800010B5FF2313EAD0541DBF13EAD1529C4221
:106D90009A4239E0A41ADA0780EA0103134042EA72
:106DA000012142EA0020421A3CBF641E01EB42026C
:106DB000090AB2FBF1FE01FB1E221202B2FBF1F046
:106DC00001FB10226EF30F201202B2FBF1FE4EEA1D
:106DD00000207F3406DDFE2C24DA53EA500050EB0D
:106DE000C45010BDD4F1020401FB1E2240F080719A
:106DF000192C1DDC21FA04F0C4F12004A140114338
:106E000071F10042584110BD9C421ABF03EAD152B1
:106E10009A420FE080EA010E0EF00043400004D0D9
:106E2000490016D143F0FF4010BD490008BFD343CD
:106E3000180010BD9C4205D1D21AF7D001F00041D4
:106E4000484010BD4A0212BF0846484000F00040CA
:106E500010BD4AB90902B1FA81F2914044B1A418B7
:106E6000C00140F000409EE7C90141F0004152429C
:106E70000002B0FA80F4A040141B94E7C0F3C7519D
:106E800081B1FF2906D0C110400721F0E04101F196
:106E90006051704741020CBF40F4E0016FF00041C7
:106EA0000020704700F0004100020AD0B0FA80FCD8
:106EB00000FA0CF001F16051A1EB0C5101EBD02173
:106EC000400570470CB430B583B00A4606A902915C
:106ED000044600250194009502AB01A908487844B6
:106EE0001E3003F0ADF9019A157000284EBF04461C
:106EF0000198041B204603B030BC5DF80CFB00BFBA
:106F00008B0A0000814201DA401A7047081A704764
:106F100030B40024002803D52D220A7001244042F9
:106F20000A2290FBF2F3012205E00A2593FBF5F318
:106F300002EB82056A00002BF7D1002A0CD090FBEF
:106F4000F2F303F130050D55641C02FB13031846E0
:106F50000A2392FBF3F2F0E700200855084630BC04
:106F600070470CB42DE9FC4104468846002637469C
:106F7000002C01D1304687E008AD2BE018F8060060
:106F8000E0557F1C25E0A0F57A7142F2283291424B
:106F90001FD20A2190FBF1F10A2202FB11003030CE
:106FA0002071104691FBF0F002FB10113031E170BE
:106FB0002E21A170114690FBF1F102FB110030303F
:106FC0006070104691FBF0F002FB1011303121701F
:106FD0000527761C18F80600002852D02528CDD1A8
:106FE000761C18F80600632806D0642813D066289B
:106FF0001FD0732805D0C1E755F8040BE0557F1C5E
:10700000E7E755F8041B0022885C0028E1D0E05532
:10701000521C7F1CF8E755F8040B6946FFF778FF10
:1070200000216846405C0028D3D0E055491C7F1CF5
:10703000F7E755F8040B411E0929CAD3A0F10A014C
:107040005A29C6D3A0F16401B1F5617F9BD20A2110
:1070500090FBF1F10A2202FB11003030E070104683
:1070600091FBF0F002FB10113031A1702E21617004
:10707000114690FBF1F102FB110030302070042723
:10708000A7E70020E0552046BDE8F6015DF80CFBBF
:10709000FF2212EAD05C1DBF12EAD15394459342FD
:1070A0002BE09C44D30780EA01021A4043EA002007
:1070B00043EA0121A1FB0030C04238BF40007CF10F
:1070C0007F010BDBFE294ADA5B0842EAC15153EA31
:1070D000006373F1004C51EB10207047D1F1080CA4
:1070E000DCF120012FDB5B0810FA01F10B4320FAE1
:1070F0000CF073F100415041704794451CBF02EA07
:10710000D153934280EA010202F000421DD04000B8
:1071100019D0490017D05BB9634514D00902B1FA00
:1071200081F39940BCEB030CC00140F00040C1E783
:107130000002B0FA80FC10FA0CF0B3EB0C0CC901A1
:1071400041F00041B6E71000704740000AD0490006
:1071500008D010F1807F94BF11F1807F02E042F0EF
:10716000FF407047D0437047DFF83807006B704727
:10717000DFF8341731F810007047DFF828178863FC
:107180007047DFF82007806B704700200246DFF869
:10719000143703E003EB81018A60401C0146C9B249
:1071A0000A29F7DB7047DFF8FC1600EB800290003D
:1071B0004863486B0028FCD17047DFF8E81600EB05
:1071C000800250004863486B0028FCD17047DFF80C
:1071D000DC16002808680BD120F4304040F48040D1
:1071E0000860086820F4302040F480200860704770
:1071F00020F4804040F430400860086820F480208B
:1072000040F430200860704780B503F0FDFF102087
:1072100004F084F8012004F079F8DFF8940641685E
:1072200041F4D00141F404414160016841F08071B2
:107230000160012004F001F8012004F001F8392078
:1072400004F03CF80028FAD0022003F0FCFF04F020
:1072500001F80828FBD10121052004F003F80121E1
:1072600040F20C6004F009F80121032004F010F84A
:107270000120BDE8024003F0F2BF80B501464FF0A7
:10728000006004F003F94FF4A06004F0CDF814207E
:107290008DF8000002208DF8010000208DF802001A
:1072A00001208DF80300684604F0C3F812208DF821
:1072B000000000208DF801008DF8020001208DF8FB
:1072C0000300684604F0B5F817208DF80000002090
:1072D0008DF801008DF8020001208DF8030068464A
:1072E00004F0A7F801BD38B50121DFF8C80502F0A8
:1072F00006F92020ADF8000048208DF80300DFF8E3
:10730000B8456946204602F0A1F81020ADF800000B
:1073100004208DF803006946204602F097F8052105
:10732000012002F021F91020ADF8000000208DF8B6
:107330000300DFF888556946284602F087F84FF4C5
:107340000040ADF8000003208DF8020010208DF8F9
:1073500003006946204602F079F84020ADF80000AD
:1073600003208DF8020010208DF80300694628469E
:1073700002F06CF80820ADF8000000208DF8030042
:107380006946284602F062F80420ADF800000020AB
:107390008DF803006946284602F058F80320ADF83E
:1073A000000048208DF803006946204602F04EF8A0
:1073B0000120ADF8000010208DF8030003208DF8A7
:1073C00002006946284602F041F80121284602F0F1
:1073D00094F84FF40060ADF8000003208DF802002F
:1073E00004208DF803006946284602F02FF84FF478
:1073F0008050ADF8000003208DF8020004208DF8C5
:1074000003006946284602F021F84FF40050ADF819
:10741000000003208DF8020004208DF80300694667
:10742000284602F013F84FF48040ADF80000032026
:107430008DF8020004208DF803006946284602F00A
:1074400005F84FF40070ADF8000003208DF802003D
:1074500010208DF803006946284601F0F7FF31BD82
:10746000F8B590B04FF42044DFF85454284604F0A7
:1074700021F8DFF850040590DFF82C040690002076
:107480000790022008900020099080200A904FF475
:1074900080700B904FF480600C9020200D904FF482
:1074A00000500E9000200F9005A9284604F078F8AF
:1074B0000121284604F08FF801220221284604F019
:1074C00097F8DFF80454284602F036FB00200090BD
:1074D00001208DF804008DF805004FF46027029715
:1074E0000020039002208DF810006946284602F023
:1074F00052FBDFF8D863304602F01EFB00200090FC
:1075000001208DF804008DF80500029700200390FB
:1075100001208DF810006946304602F03CFB07233D
:1075200002220421284602F094FB072301220321B2
:10753000284602F08EFB052301220221304602F08C
:1075400088FB0121284602F04FFB0121284602F06A
:1075500040FB0121304602F03CFB284602F05AFB7A
:10756000284602F05CFB002804D02046441E002878
:10757000F6D117E0304602F04DFB304602F04FFBEB
:107580000028FAD1304602F04FFB304602F051FBA2
:107590000028FAD10121284602F050FB0121304693
:1075A00002F04CFB11B0F0BDF8B54FF4E06003F011
:1075B0003BFF2F20ADF8040040F2E730ADF80800A3
:1075C0000020ADF80A00ADF8060001A94FF0804098
:1075D00004F034F801214FF0804004F08EF80122CD
:1075E00011464FF0804004F07EF801214FF08040BA
:1075F00004F06CF81C208DF8000000208DF80100CC
:1076000001208DF802008DF80300684603F011FF99
:1076100005B000BD1FB54FF4E06003F005FF2F205B
:10762000ADF804003120ADF808004FF48070ADF8DB
:107630000A000020ADF80600A54C01A9204603F081
:10764000FDFF0121204604F058F801221146204692
:1076500004F049F80121204604F038F81D208DF887
:10766000000000208DF8010001208DF802008DF847
:107670000300684603F0DDFE1FBD10B501214FF089
:10768000804004F047F80021864C08E004EB8102BA
:107690009068002802D09068401E9060491C0A291A
:1076A000F4DB8C480168491C01606078411C617002
:1076B000142803DB00F0B1F900206070A088411CA1
:1076C000A18040F2E931884203DB0020A080012044
:1076D0002070E088411CE180652815DB0020E080F7
:1076E0007D48006B00280FD0FEF73FF800280BD133
:1076F000FEF72FF8042803D0022801D0012803D177
:10770000BDE81040FEF780BB10BD70B50121704888
:1077100004F000F8634C606B002802D0606B401EE0
:1077200060636E480078002806D00020FFF720FD37
:1077300000F03DFA6A490860256C6D1C25646949B2
:10774000A06B002810D0A06B401EA063E06B401C13
:10775000E063A078002802D040224A6001E0402285
:107760000A60C043A07003E0402048600020A07081
:107770002078002812D000202070E06B00280DD067
:10778000FFF7F0FA06462846FFF7ECFA01463046C6
:10779000FFF7F6FA20630020E063206470BD10B5A7
:1077A0004A4C4FF45843594345F64D0291FBF2F1D0
:1077B0000A4692B2584345F64D0190FBF1F001465E
:1077C00089B2204602F08DFA0221204602F08CFA9E
:1077D0004549204602F07FFA01224FF4A07120466D
:1077E000BDE8104002F00BBA38B5384C4FF4A07128
:1077F000204602F08BFA00280FD0A56A204602F03E
:1078000067FA854202D30020FFF7B7FC4FF4A0715E
:107810002046BDE8344002F089BA31BD1CB5274C82
:10782000002815D00821244801F067FE4FF480613C
:10783000204601F062FE4FF48071204601F05DFEAB
:107840000121204601F059FE6420FFF7ACFC13BD76
:107850004FF48060ADF8000010208DF80300032085
:107860008DF802006946204601F0F0FD4FF480706B
:10787000ADF8000010208DF8030003208DF8020001
:107880006946204601F0E2FD4FF48071204601F088
:1078900034FE4FF48061204601F02FFE6420FFF794
:1078A00082FC13BD00000020403400200408014089
:1078B0000010024000023000000C014000080140AE
:1078C000080002404C2401400024014000280140EF
:1078D00000040040443400207400002010340020D4
:1078E000143400201008014000028000C0F3C7518A
:1078F0007E390EDDC217D1F1200106DD000240F015
:107900000040C840104450407047D04380F00040D1
:1079100070470020704730B4002513E050F8042B66
:10792000D30744BFA9F101039A18091F042942F89B
:10793000045BFAD213468C0744BF15809B1CC90711
:1079400048BF1D7050F8041B0029E7D130BC7047B8
:1079500062F30F2262F31F4200B500BF1300964688
:107960009446103928BFA0E80C50FAD85FEA417C51
:1079700028BF0CC048BF40F8042BC90728BF20F817
:10798000022B48BF00F8012B00BD0268531C0360A6
:107990001170704700F10103810704D010F8011B3A
:1079A000820781B1FAD10268A2F10131914311F04D
:1079B000803104BF50F8042FF6E709BAB1FA81F11B
:1079C00000EBD100401CC01A70470000DFF8100621
:1079D00000687047DFF80C16086800220A607047DC
:1079E000DFF8001608607047401E8041C043C00F9A
:1079F000DFF8F4150870704710B5DFF8EC4500208B
:107A00002070FFF7EDFF3220FFF7CDFB0120207043
:107A100010BDDFF8D805007870472DE9F84FDFF882
:107A2000D0050668F64306F00106DFF8BC85A8F825
:107A300004600768FF4307F00207A8F8067098F88B
:107A4000011098F80000014088F8011098F80290A1
:107A500098F8000000EA090988F80290012E07D181
:107A60000020A8F80C00B8F80800401CA8F808008E
:107A7000022F07D10020A8F80C00B8F80A00401C1B
:107A8000A8F80A00B8F80840A246BAF1190F1ADBA4
:107A900098F80000002816D0002914D0B8F80A0081
:107AA000002810D1DFF84C05406A002804D04FF4BC
:107AB0000140FFF795FF03E048F24000FFF790FF19
:107AC0000120A8F80E00B8F80A50AB46BBF1190F18
:107AD00019DB98F80000002815D0B9F1000F12D07A
:107AE000002C10D1DFF80C05406A002804D048F2C1
:107AF0004000FFF775FF03E04FF40140FFF770FF10
:107B00000120A8F81000002E26D1B8F80E00002899
:107B100017D1BAF1190F0EDA002C0CD0DFF8D4040B
:107B2000406A002804D04FF48070FFF759FF02E04C
:107B30004020FFF755FFB8F80C00401CA8F80C00D7
:107B400002E00020A8F80E00002C02D1012088F8E5
:107B500001000020A8F80800002F26D1B8F8100076
:107B6000002817D1BBF1190F0EDA002D0CD0DFF869
:107B70008404406A002803D04020FFF731FF03E06F
:107B80004FF48070FFF72CFFB8F80C00401CA8F8E9
:107B90000C0002E00020A8F81000002D02D1012006
:107BA00088F802000020A8F80A00BDE8F18F30B480
:107BB000DFF8442453681C46E4082546ADB211782A
:107BC000002905D1C000506001211170C0080FE0EC
:107BD000854201D2451B00E02D1AADB23D2D02DBDE
:107BE000C000506002E0C018001B50605068C00820
:107BF00030BC704710B50020FFF7BFFA4020DFF817
:107C0000FC1308600A20FFF7D8FADFF8F4430120DC
:107C100020700220FFF7D1FA00202070606810BDAC
:107C2000DFF8E0231178002909D1C000506001215C
:107C300011700146891000EB5170C01070475168F7
:107C400040180B469B1001EB5371A0EBE100506014
:107C50000146891000EB5170C01070472DE9F041CA
:107C600003460F464FF0640C38464008BE460021DC
:107C70001C881546AC4207D314469D1E35F8175094
:107C8000AC4201D3164609E00020BDE8F0818646EB
:107C90000A46101800EBD070401080B26246A2F184
:107CA000010C92B2002AEFD08742EDDB33F810408E
:107CB00022463546AA423DD203EB400232F8025C2E
:107CC0003246AE46724527D24FF07C57FFF74AF84E
:107CD0003946FFF7DDF9CC4903F034FD80463046E4
:107CE000FFF740F806462046FFF73CF801463046CD
:107CF00001F0D0FE3946FFF7CBF906462C1B204693
:107D000003F092FD01463046FFF73AF8014640463F
:107D1000BDE8F04101F0BEBE9542B8D1401E03F06F
:107D200083FD4FF07C51FFF7B3F9B749BDE8F0414F
:107D300003F008BD32460ED003EB40014D882946C2
:107D4000914213D33BD001467246101800EBD0701D
:107D5000401080B2A2E7FFF705F84FF07C51FFF723
:107D600097F9A949BDE8F04103F0ECBC4FF07C570E
:107D7000401C03F059FD3946FFF78AF9A24903F088
:107D8000E1FC80463046FEF7EDFF06462846FEF74A
:107D9000E9FF0146304601F07DFE3946FFF778F9EC
:107DA0000646641B204603F03FFD01463046FEF7C1
:107DB000E7FF01464046BDE8F04101F06BBE401CC4
:107DC00003F032FD4FF07C51FFF762F98E49BDE8B8
:107DD000F04103F0B7BC2DE9F041054600274FF014
:107DE0000A088A4C32E00120FFF7C2F901462068F8
:107DF0000818206022465268914200D30A46626009
:107E000022469268914200D91146A160414689B24A
:107E1000012919D16168401AA168401AC008403090
:107E2000FFF7FEFE0646280007D1324692B2A32194
:107E300004F10C00FFF712FF07460020206041F21A
:107E40008830A06000206060A8F10108404680B240
:107E50000028C8D1002D04D03046BDE8F041FEF71F
:107E600081BF3846BDE8F08170B50446684948884E
:107E70000A1D034622F81340401C488080B208289F
:107E800003DB01200870002048800878002825D0F6
:107E9000002002460D1D03E035F813301818521C5F
:107EA0001346DBB2082BF7DBFEF75CFF05464FF00D
:107EB00078563146FFF7ECF80146284601F0EAFD16
:107EC00005462046FEF74EFF294603F03BFC3146AF
:107ED000FFF7DEF8FFF70AFD80B270BD00252A46E5
:107EE00006E0081D1346DBB230F813004519521C9A
:107EF00048881346DBB20646B342F2D3FEF732FFA0
:107F000006462846FEF72EFF05463146FEF738FFA7
:107F10000146284601F0BEFD05462046FEF722FF39
:107F2000294603F00FFC3146FEF72AFFFFF7DEFC7F
:107F300080B270BD2DE9F0412C4CFDF750FF0028B8
:107F400006D1A068002803D000EB8001480044E07F
:107F5000FFF750FE05460020FFF73DFF064660682C
:107F6000281A03F061FC07462A483946FFF790F8C3
:107F70003946FFF78DF8804627483946FFF788F8DD
:107F8000414603F0DFFB254903F0DCFB314603F0FB
:107F9000D9FBFFF7ABFCA060A5F6116140F28F1290
:107FA000914203D26188491C618001E00021618017
:107FB0006188042902DD0221217001E00121217084
:107FC00040F6A1718D4201DB0321217080B2FFF7E1
:107FD0004BFFA06000EB80014800BDE8F08100008D
:107FE000BC040020483400208C0A0020B00400208B
:107FF000080C0140740000201834002014080140CF
:108000001034002020340020000080BF5C030020DA
:10801000D03300209C5349B66B9AF73DB9FC074119
:1080200010B5044645F2555003F010FC032003F050
:1080300010FC04EB84004000C00880B203F00CFC8C
:1080400003F00DFC03F010FC012010BD80B503F01F
:1080500006FC012002BD2E0062F30F2262F31F42D4
:10806000401810F0030308D0C91A1FD3DB0748BF1C
:1080700000F8012D28BF20F8022D130030B414465B
:108080001546103928BF20E93C00FAD8490728BF17
:1080900020E90C0048BF40F8042D890028BF20F8D3
:1080A000022D48BF00F8012D30BC7047C91818BF19
:1080B00000F8012DCB0728BF00F8012D7047000004
:1080C00062B38B0708D0521E11F8013B00F8013B48
:1080D00000F024808B07F6D1830740F0208000BF9A
:1080E000103A07D330B4B1E83810103AA0E838108D
:1080F000F9D230BC530724BFB1E80810A0E808103B
:1081000044BF51F8043B40F8043BD20724BF31F888
:10811000022B20F8022B44BF0B7803707047121F0C
:1081200017D35B0009D151F8043B20F8023B1B0C2C
:10813000121F20F8023BF6D20BE051F8043B00F886
:10814000013B1B0A20F8023B1B0C121F00F8013BED
:10815000F3D238BF121D521E24BF11F8013B00F8A4
:10816000013BF8D870470000002003E0491C642957
:10817000FCDB401CB0F57A7F01DA0021F7E770479D
:1081800080B54FF41852DFF8981CDFF8980CFFF711
:10819000A7FF00221021DFF8900CBDE80840FFF790
:1081A000D7BB10B4002208E0835C1C46613C1A2C4B
:1081B00001D2203B8354521C92B20B469A42F3DB0D
:1081C00010BC70472DE9FF4104460D46DFF8546CA2
:1081D00006F580674FF0000802E0203708F101083B
:1081E000404680B2102824DA0B22394601A8FFF756
:1081F00067FF0B2101A8FFF7D4FF0B22214601A83E
:1082000003F03EFB0028E8D1022207F11C012846BA
:10821000FFF756FF022207F11A016846FFF750FFE9
:10822000BDF8000006EB402000F5007004B0BDE88A
:10823000F0810020FAE70146202903D00D2901D062
:108240000A2801D1012070470020704730380A28E1
:108250008041C00F7047F8B5044600E0641C2078E8
:10826000FFF7E9FF0028F9D114F8015B2E462D2D08
:1082700001D02B2D01D114F8015B002707E007EB9B
:10828000870005EB4005303D2F4614F8015B28467A
:10829000FFF7DCFF0028F2D12D2E02D17F423846B5
:1082A000F2BD3846F2BD30B40023154604E011F8A3
:1082B000014B00F8014B5B1C1C46A4B2AC42F6D348
:1082C00030BC704770B50446FFF764FB80B20028ED
:1082D00020D02044451E00E06D1EA54204D328781E
:1082E000FFF7A9FF0028F7D100206870264600E0BC
:1082F000761C3078002803D0FFF79DFF0028F7D1C7
:10830000B44207D0AD1BAD1C2A4692B2314620467E
:10831000FFF7C9FF204670BD30B410F8013BA3F150
:1083200041041A2C00D2203311F8014BA4F141056D
:108330001A2D00D22034521E1546ADB2002D01D0A8
:10834000A342EAD01B1B06D0104680B2401E8041DB
:10835000C043C00F00E0002030BC7047F8B50646AF
:108360000F463D2106F5F07003F0BEFA002832D02A
:10837000401CFFF770FF80B2002801D001282AD1ED
:108380000446B86200250FE078610BE0A0F1D4014B
:1083900040F21D2291421ED200EB80014800002DC8
:1083A000F2D138616D1CADB2012D16DC3D2105EB1B
:1083B000850006EB001003F097FA00280BD0401C54
:1083C000FFF749FF80B2002CE0D1A0F1640140F238
:1083D0002D129142E0D30020F2BD3D2106F1A00014
:1083E00003F082FA0028F6D0401CFFF734FF80B279
:1083F000A0F13C01B1F56B7FEDD264214843F861F7
:108400003D2106F1F00003F06FFA0028E3D0401C94
:10841000FFF721FF80B2A0F110010929DBD23862F9
:108420003D2106F5A07003F05FFA0028D3D0401C70
:10843000FFF711FF80B20028CDD01A28CBDA00EB6D
:1084400080014800B8613D2106F5C87003F04CFA80
:108450000028C0D0401CFFF7FEFE80B2A0F16401EE
:108460002929B8D2F8623D2106F50C7003F03CFAD8
:108470000028B0D0401CFFF7EEFE80B2002801D0EB
:108480000128A8D178623D2106F5207003F02CFA6E
:108490000028A0D0401CFFF7DEFE80B2002801D0EB
:1084A000012898D138633D2106F5347003F01CFA99
:1084B000002890D0401CFFF7CEFE80B2002801D0EB
:1084C000012888D178630120F2BD2DE9F043ADF594
:1084D0006B7D80460D460024274622464FF44871A6
:1084E00023A8FFF735FADFF8306A4FF400724146EF
:1084F0003046FFF7E5FD1DE008F101081FFA88F896
:10850000B8F10A0F16DA06EB8800D0F80092484658
:10851000FFF740FA024692B249460EA8FFF7FCFE6A
:108520000028E9D10EA923A808EB880200EB02106D
:1085300003F0E6F9B7F5007F25DAA046224651217F
:108540000EA8FFF705FA0EA903E008F101081FFACB
:1085500088F8B8F1500FEDDAB7F5007FEADAF05D90
:1085600001F808007F1C0A2801D00D28EDD1204613
:1085700001F808000EA8FFF7A5FE9DF838000028B6
:10858000D8D0A046BCE7214601E0491C89B20A299F
:1085900007DA23A801EB81021201805C0028F4D1E4
:1085A0000124002C58D1694623A8FFF7D7FE0028E4
:1085B00000D10124002C4FD1DFF86069282204A9E2
:1085C00006F11000FFF78CFD30690A2190FBF1F2F3
:1085D0000FF6781123A8FEF7C4FC70690A2190FBFE
:1085E000F1F20FF6741137A8FEF7BBFCF0696421B5
:1085F000B0FBF1F20FF66C114BA8FEF7B2FC326A39
:108600000FF66C115FA8FEF7ACFCB0690A21B0FB55
:10861000F1F20FF6681173A8FEF7A3FCF26A0FF6E9
:10862000681187A8FEF79DFCB26A0FF668119BA837
:10863000FEF797FC726A0FF66411AFA8FEF791FC83
:10864000326B0FF66011C3A8FEF78BFC726B0FF64E
:108650006011D7A8FEF785FC00224FF4FA71284676
:10866000FFF7FAFC002C13D00026DFF8BC770A2EA7
:1086700022DA07EB8600816C284603F04DF907F1FA
:10868000140050F82610284603F046F9761CEEE751
:1086900000260FE023A806EB860100EB0111284617
:1086A00003F03AF9DFF8780850F82610284603F06E
:1086B00033F9761C0A2EEDDB20460DF56B7DBDE807
:1086C000F0832DE9F047ADF5127D0020ADF80000F4
:1086D00002464FF4FA7115A8FFF73AF9DFF83C4863
:1086E00020690A2190FBF1F20FF6600101A8FEF764
:1086F00038FC01A915A803F00FF9DFF82C576969B8
:1087000003F00AF960690A2190FBF1F20FF64801C3
:1087100001A8FEF726FC01A915A803F0FDF8A96938
:1087200003F0FAF8E0696421B0FBF1F20FF63401CE
:1087300001A8FEF716FC01A915A803F0EDF8E969F8
:1087400003F0EAF8226A0FF6280101A8FEF709FCF7
:1087500001A915A803F0E0F8296A03F0DDF8A06983
:108760000A21B0FBF1F20FF6140101A8FEF7F9FBA4
:1087700001A915A803F0D0F8696A03F0CDF8E26A00
:108780000FF6040101A8FEF7ECFB01A915A803F000
:10879000C3F8A96A03F0C0F8A26A0FF2F87101A841
:1087A000FEF7DFFB01A915A803F0B6F8E96A03F0AC
:1087B000B3F8626A0FF2E47101A8FEF7D2FB01A9D7
:1087C00015A803F0A9F8296B03F0A6F8226B0FF2A5
:1087D000D47101A8FEF7C5FB01A915A803F09CF808
:1087E000696B03F099F8626B0FF2C47101A8FEF790
:1087F000B8FB01A915A803F08FF8A96B03F08CF85A
:108800000FF2B8776A460DF102013846FFF7DAFC3D
:108810000400DFF8106622D015A8FFF7BBF8BDF8FA
:10882000001006EB411101F21C410870000A48706B
:1088300006F58060201A00F500700146491200EB31
:10884000915080120121295415A8FFF7A3F8024680
:1088500015A92046FFF734FC00F03FFA5EE00FF266
:1088600068796A460DF102014846FFF7ABFC014604
:1088700006F21644DFF8AC864FF4185A00291FD0D0
:10888000FE2215A8FFF71CFC002251463046FFF7D8
:108890005FF80C22494606F58460FFF721FCFE22B2
:1088A00015A906F50060FFF71BFC00206075C4F8F1
:1088B000208006F23A4003210170FE21817004E01D
:1088C000002251463046FFF743F80C22394606F5A0
:1088D0008060FFF705FC0FF2087706223946304624
:1088E000FFF7FEFB0622394606F50070FFF7F8FB9E
:1088F00015A8FFF74FF807463A4615A906F5C060D8
:10890000FFF7EEFB002086F80B04C4F8008002207D
:108910002071A7713F0AE77100F00CFA286C002162
:10892000C17101724171E86BC1604161C1618161D6
:1089300008460DF5127DBDE8F0872DE9F843FEB03D
:108940000020ADF800000FF274666A460DF10201D6
:108950003046FFF737FC0400DFF8C8542AD001A9DD
:10896000FFF7B3FD002800F0A48001A8FFF712F87C
:10897000BDF8001005EB411101F21C410870000A1E
:10898000487005F58060201A00F50070DFF8981433
:108990000246521200EB9250801201220A5401A8A2
:1089A000FEF7F8FF024601A92046FFF789FB00F019
:1089B00094F97EE00FF210646A460DF10201204640
:1089C000FFF700FC01004FF4185722D0FE2201A847
:1089D000FFF776FB002239462846FEF7B9FF0C2246
:1089E000214605F58460FFF77BFBFE2201A905F512
:1089F0000060FFF775FB05F2164000214175DFF8B6
:108A00002415016205F23A4003210170FE218170B4
:108A100004E0002239462846FEF79AFF0C22314630
:108A200005F58060FFF75CFB0FF2B4540622214687
:108A30002846FFF755FB0622214605F50070FFF793
:108A40004FFB0024264605F5C06921E0DFF8D80376
:108A500000EB8607D7F848804046FEF79BFF0246AA
:108A6000414609EB0400FFF72BFB4046FEF792FF5F
:108A700004197F693846FEF78DFF0246394609EB37
:108A80000400FFF71DFB3846FEF784FF0419761C2F
:108A90000A2EDBD3002085F80B0405F21640DFF820
:108AA00084140160022101718471240AC47100F0F0
:108AB00041F9DFF87403016C0022CA710A724A712D
:108AC000C06B1146C1604161C161816108467FB0E0
:108AD000BDE8F0832DE9F041ADF5027D04460E4678
:108AE0000025B6F5805F10D1DFF838534FF40072DF
:108AF000294602F0C5FE002800F0A4804FF4007261
:108B000021462846FFF7DCFA9CE0B6F5205F10D13D
:108B1000DFF814544FF40072294602F0B1FE002829
:108B200000F090804FF4007221462846FFF7C8FA03
:108B300088E0B6F5804F37D1DFF8F0634FF400726C
:108B4000314602F09DFE00287CD04FF40072214691
:108B50003046FFF7B5FAB44E012070702F4601E0A1
:108B600020347F1C3846C0B2102811DA0C2221466E
:108B70006846FFF7A5FA0B220FF24041684602F063
:108B80007FFE0028ECD1A07E7082257F012030740A
:108B9000002D06D1307C012803D1002030743080B4
:108BA00050E0012030704DE0A6F5004842F201008F
:108BB000804547D29B4FB819A0F5F4454FF4007299
:108BC0002946204602F05CFE002805D04FF40072D2
:108BD00021462846FFF774FA934C4FEA582808F1CB
:108BE0000208608A804527D105A92846FFF76DFC59
:108BF000002829D105A8FEF7CDFE618A07EB4111B7
:108C000001F577710870000A487007F58060281A2E
:108C100000F500700146491200EB915080120121CD
:108C2000215405A8FEF7B6FE024605A92846FFF71F
:108C300047FA00F052F807E0601CA6F5FC46B60AB9
:108C40000121815500F049F80DF5027DBDE8F08164
:108C500038B505460C46FFF787FA4FF40071002C33
:108C600006D10A46B2492846BDE83840FFF728BA7F
:108C7000B4F5805F06D10A466A492846BDE8384007
:108C8000FFF71EBAB4F5205F06D10A46A64928466A
:108C9000BDE83840FFF714BAB4F5804F06D10A4654
:108CA000A2492846BDE83840FFF70ABAA4F50040BB
:108CB00042F2010290420AD20A4604F1006404F52D
:108CC000064421462846BDE83840FFF7F9B900229E
:108CD0002846BDE83840FFF7BFB9F8B502F028FBD9
:108CE0000024514900E0641C102C1FD2085D0028AC
:108CF000F9D0002008554A4D15EB842002F02DFED6
:108D0000484810EB8426002700E0BF1CB7F5806FB1
:108D10000CD236F8021B17EB8420281802F00CFE48
:108D20000428F2D002F00DFB0420F2BD02F009FB92
:108D30000020F2BD38B53B4C02F0FAFA002505E000
:108D4000374800EB852002F008FE6D1C092DF7DB8B
:108D5000002501E0AD1CADB2B5F5185F09DA34F8B5
:108D6000021B2F48401902F0E7FD0428F2D004202E
:108D700032BD02F0E6FA002032BD10B52A4C236C59
:108D80001A78002A05D14002206749026167012054
:108D900018701878012833D1636CE06B8069002863
:108DA0000FD1216F1846FFF753FF40229821606CC6
:108DB00002F0E8FD4FF4E070E16B88614020A067AD
:108DC0000CE040229821A06F184402F0DBFDE06B1C
:108DD000816940398161A06F4030A0674021012046
:108DE00002F0B0FE3021012002F002FE206F403080
:108DF0002067606F403860674E4881684039816005
:108E0000606F00280AD10020E16B8861A0672067AD
:108E10000320494908700020216C087010BD000033
:108E200000000108A80A0020B000002070B5434CE3
:108E3000E36BDD694035266C3278002A06D14002AA
:108E4000E0674902C4F880100120307030780128B2
:108E500029D1002007E03A4A125C666C7254401C2B
:108E6000D969491CD961D969A942F4D3354D2888FB
:108E7000E16F4118E167D4F88020101AC4F880002F
:108E8000C00506D10020D861A1F50071606CFFF724
:108E900021FE28498A682888121A8A604FF44051B6
:108EA000022002F0BEFDD4F88000002803D0224842
:108EB0000078042808D10020E16BC861012102F08C
:108EC000C6FF0020216C087070BD000010B5FCF7D3
:108ED000B5FCFDF752FEFDF729FEFDF74EFE1A4CDC
:108EE00001202070FFF74CF9FFF7EBFB002020700A
:108EF000FFF7ACF85FF0000236A11046FBF7ADFDBE
:108F00004FF47A70FEF74FF9FFF7A0F84FF47A703C
:108F1000BDE81040FEF747B934010020740000207E
:108F2000C4000020188DDD40A80C0020A80E0020F1
:108F3000F0E80008F433002078330020B00000206F
:108F4000E43200207A3300206F34002053746254DE
:108F5000656D703D25640000576B54656D703D254F
:108F600064000000536C7054696D653D2564000019
:108F700052617465645F503D2564000054656D70F6
:108F80005374703D256400004F6666566F6C743DE7
:108F90002564000054656D703D25640048616E6471
:108FA0003D2564004C6F774375723D2564000000D9
:108FB00053686F77547970653D256400434F4E4682
:108FC00049472020545854004C4F474F494E2020C9
:108FD000424D5000436F6D706C657465642E0000E7
:108FE000F8FFFFFFFFFF00004FF4001C1CEB410FD8
:108FF00094BF1CEB430F09E041EA030C50EA4C0C10
:1090000052EA0C0C03D28B4208BF8242704714BF55
:10901000994290427047000070B44FF0004591EAC9
:10902000030F40F191816B40841A71EB030604D267
:109030006E40001BB141121973414FF4001C1CEB30
:10904000410F34BF7CEB430683E00C0DA4EB1356B9
:10905000362E00F37C80012E45EAC32341DC43EA2F
:10906000525312BFD20292025B08240545EAC12185
:1090700041EA5051D2EBC020994125D407D1B0FA32
:1090800080F610FA06F162D00020203608E0B1FA2E
:1090900081F6B140C6F1200220FA02F21143B0403D
:1090A0004FEAF474B4EB465434F001064FEA74040A
:1090B0000AD8D6F50016760D04F00044F04061FAA7
:1090C00006F25040F1404840C00A40EA415021F0C9
:1090D000004128BF5FEA500550F1000044EBD12168
:1090E00035E0DB0A45EAC121C90AB6F120050EDDEB
:1090F00042EA0242120CC5F1200603FA06F6EB40E2
:1091000042EA06056D42984161F100010DE062FA04
:1091100006F5F240554063FA06FC82EA0C02F34081
:109120005A406D42904161EB030111F4801F05D15B
:10913000641E620502D06D004041494121F4801156
:10914000430875F1004350F1000041EB045170BC3D
:1091500070471CEB410F15D223F0004352EA43063F
:109160000BD04FEA4C0CBCEB410F04D80C0D661E23
:10917000342EB7DDEBE7801A994150EA410608BF6B
:109180000021E4E708BF1CEB430F28BF6FF000018C
:10919000DDE70000B0B581EA030C0CF0004C40F2B2
:1091A000FF7515EA11541DBF15EA1357AC42AF42C3
:1091B00039E0E41923EA455343F48013C90241F02E
:1091C000004141EA505EC7021100A7FB02020028DD
:1091D0004FF00000EEFB01204FF00001E3FB072100
:1091E00018BF42F00102401800214941E3FB0E0183
:1091F000A4F580640F0302D252004041494154F16A
:1092000001046CDD470872F1004250F1000051EB9F
:109210000451A1F580115CBF41EA0C01B0BD4CEADC
:1092200005510020B0BD05EA1357AC4214BFAF4250
:1092300041E050EA410E1CBF52EA430E02E0614693
:109240000020B0BD24423C441BD15FEA070EF6D09B
:10925000090302BF01460020AEF1140EB1FA81F7F6
:10926000AEEB070401FA07FE0C37C7F1200100FA44
:1092700007F7C8404EEA000E23EA455343F4801333
:10928000A2E733F00043B3FA83F704BFB2FA82FED9
:1092900077440B3FE41BB7F1200E2FBF02FA0EF309
:1092A000BB40C7F1200E22FA0EFE38BF43EA0E0380
:1092B000BA40641C82E750EA410E14BF52EA430EE2
:1092C0006FF000014FF4001717EB430F8ABF1946E8
:1092D00017EB410FB5E74CEA05510020B0BDD4F1C2
:1092E0000104B4F120070FDAC4F12007520828BFA7
:1092F00042F0010210FA07F501FA07F7E1BF2A432D
:10930000E0403843E1400FE0352C98DCC7F1200401
:1093100052EA400220FA07F218BF42F0010231FA85
:1093200007F0A1400A43002172F1004250F1000011
:1093300051EB0C01B0BD000070B44FF0004591EA54
:10934000030F7FF571AE6B40841A71EB030603D2F5
:10935000001BB141121973414FF4001C1CEB410F6B
:1093600034BF7CEB430442E00C0DA4EB1356352EC6
:109370004FDC45EAC323DB0A45EAC121C912B6F135
:1093800020050DDD63FA05F6EB4086EA030512427F
:1093900018BF45F00105C01851F100010CD213E0CF
:1093A00062FA06F5F2405540F3415A40B340F340AB
:1093B0005A408018594107D349085FEA30005FEAF4
:1093C000350528BF45F0010501F58011420875F10A
:1093D000004250F1000041EB04514E0016F5001F11
:1093E00070BC38BF70470020090D090570471CEBA1
:1093F000410F10D252EA43060BD0BCEB410F05D807
:109400000C0DAB43661E342EB6DD02E0AB43801874
:10941000594170BC704770BC704700004FF4001C8D
:109420001CEB410F94BF1CEB430F09E041EA030C16
:1094300050EA4C0C52EA0C0C03D2994208BF9042FD
:10944000704714BF8B42824270470000F0B4002482
:10945000CA78134603F00F03D20601D58A78134366
:109460000A88D2B2002A1AD0026815E0482D12D11B
:10947000066110E00126A6400D883540B5420AD1AC
:10948000A5000F27AF40BA4303FA05F52A43CD786C
:10949000282DEBD14661641C082CEBD302600A88AE
:1094A000B2F5807F1EDB4468002218E0012602F13D
:1094B000080506FA05F50E882E40AE420ED196003C
:1094C0000F27B740BC4303FA06F63443CE78282E64
:1094D00000D14561CE78482E00D10561521C082A82
:1094E000E4D34460F0BC70470246002092680A4210
:1094F00000D001207047016170474161704770B42E
:10950000224A002801D5936900E01368C0F30344A0
:1095100085B200F44016B6F5401F06D123F0706303
:10952000146824F07064146010E0C60206D50326A7
:1095300006FA04F4A34343F0706307E00446640DA5
:10954000240105FA04F4A34343F07063002904D016
:109550000146490D09018D402B43002801D5936137
:1095600000E0136070BC704730B48A0002F00C0257
:1095700021F00301064B5C580F259540AC435C502D
:109580005C5890402043585030BC70470400014064
:1095900008000140DFF8E4048068C0F3892032212C
:1095A00048437047DFF8D4048068C0F3090000EB3B
:1095B000800148007047F8B5322290FBF2F50A208E
:1095C00091FBF0F6B6B2DFF8B444A088002801D1D0
:1095D0000220F2BD0022042104F13000FEF73CFD20
:1095E000012001E0401CC0B2A18881421ADB04EBDB
:1095F000800253681A46C2F309029B0AC3F30903A7
:109600002F46BFB2BB42EDD1236B60F31E732363C1
:10961000B2420BDB226B66F309022263226B66F314
:1096200093222263814203DA0320F2BD0420F2BDBB
:109630000320216B60F31B61216361780846E28897
:1096400060F34B22E2800120E28860F30E32E28078
:10965000E2884FF61060024042F04202E280491C6C
:1096600001F00701617000F0DFF80020F2BD2DE984
:10967000FE4F05460F46002208216846FEF768F9AE
:10968000DFF8F883B8F80400441EE4B2322601E0A3
:10969000641EE4B2002C3FD008EB8400D0F80890A0
:1096A0004846800FF4D1C9F3892A06FB0AF042F636
:1096B000E1618842ECDADFF8C803C06A64214843FC
:1096C00006FB0AF18842E3D3C9F309095046FDF7C6
:1096D00049FB0146DFF8AC03FDF7DAFC3946FDF73C
:1096E0004FFB01468B464846FDF73CFB0146DFF841
:1096F0009803FDF7CDFC594602F0F4FBC8D809EBFE
:1097000089004000019006FB0AF60096DDE90001A1
:10971000C5E90001BDE8F78FDDE90001C5E90001F9
:10972000F8E718B599B00CAA0221422000F0E7F83A
:109730000CAC6078E02801D0012073E00DF102024A
:109740000221432000F0DBF8BDF80200C0F3023133
:10975000002907D00CAA000B810001F01C01432056
:1097600000F0CDF80CA8BDF80210C1F3023100EBF7
:1097700081020421432000F0C2F80421072000F0F8
:10978000C3F8BDF80200C0F30230010011D0ADF8FB
:109790000000002007E054F820106A4602EB800227
:1097A0005160401CC0B2BDF80210C1F302318842C2
:1097B000F1DBBDF80200C0F302310A0019D100F05C
:1097C0000F02012A06D0032A08D0042A0AD0062A4A
:1097D0000CD00EE00122A94B1A700AE00222A74B1E
:1097E0001A7006E00322A54B1A7002E00422A34B74
:1097F0001A70002915D000F00F00012811D1302275
:109800006946A248FEF75CFC0420FBF7A6FFFFF7C1
:10981000C9FE0446FFF7BEFE214689B280B2FFF7BB
:10982000CAFE00201AB010BDF0B585B00022142188
:109830006846FEF78DF812208DF800006846122168
:109840004170817013218DF803108C4CE1880A4619
:10985000120B930003F01C039B1C43F08003037165
:1098600001F0EF0343710B461B0A03F001030D46A1
:109870006D0A6D0005F00E052B43120102F0700217
:109880001A43827107220023C1F3023704E0266BDA
:109890002E60121DD2B25B1C85181E46F6B2BE4267
:1098A000F5DBFF20287014206870FE20A8700F21BF
:1098B0000B2000F029F84021062000F025F8432372
:1098C0002222E088C0F3023080000A300146C9B28B
:1098D000684602F06CFC0521062000F015F807210F
:1098E0000B2000F011F805B0F0BD80B50346222230
:1098F0000121684602F026FC9DF8000002BD0346E7
:109900001046222202F01EBC80B58DF800008DF8B2
:10991000011022220221684602F0F8FB01BD38B591
:1099200000242546224630215848FEF795FB0321A6
:109930000C20FFF7E9FF3220FDF735FC03210C2056
:10994000FFF7E2FF0A20FDF72EFC0F210B20FFF7A7
:10995000DBFF641EA441E40F08D003210220FFF7BF
:10996000D3FF07210220FFF7CFFF07E003210220EA
:10997000FFF7CAFF0B210220FFF7C6FF0120FDF70A
:1099800012FC4020FFF7B1FF00F00F00022808DAB8
:109990006D1C284680B240F22D118842D9DB01208F
:1099A00032BD07210920FFF7AFFFEF210A20FFF7A3
:1099B000ABFFEF210E20FFF7A7FF01210F20FFF7DC
:1099C000A3FF002C1ED10B210220FFF79DFF2621B3
:1099D0000320FFF799FF02210C20FFF795FF0021DC
:1099E0000620FFF791FF0F210B20FFF78DFF3E2090
:1099F000FFF77BFF3F20FFF778FF4220FFF775FF5F
:109A0000002032BD07210220FFF77EFF2521032021
:109A1000FFF77AFFDFE71FB50121052001F02DFCDC
:109A200048208DF807004FF400742046ADF804007C
:109A300003208DF8060001A91548FFF707FD09214D
:109A40000020FFF791FD029401208DF80E00002008
:109A50008DF80C000C208DF80D0002A802F0CAFB56
:109A600017208DF8000001208DF801008DF802000C
:109A70008DF80300684601F0DCFC1FBD2433002094
:109A800074000020000048420000204128330020DC
:109A90000008014090EA010F41F15A8681F000412F
:109AA000421A3CBF801A89184FF0004CC0F3C752CD
:109AB000FF2A24D0C1F3C75313B3D21AD2F119032A
:109AC00027DD4CEA01214CFA03F321EA0303D140DC
:109AD000C20D4CEA0020401834BF20EA0C004CEACA
