:020000040800F2
:104000004036002055BA000899B900089BB900084D
:104010009DB900089FB90008A1B900080000000080
:10402000000000000000000000000000A3B900082C
:10403000A5B9000800000000A7B90008A9B9000848
:1040400095BA000899BA00089DBA0008A1BA0008FC
:10405000A5BA0008A9BA0008ADBA0008B1BA0008AC
:10406000B5BA0008B9BA0008BDBA0008C1BA00085C
:10407000C5BA0008C9BA0008CDBA0008D1BA00080C
:10408000D5BA0008D9BA00081F7E0008E1BA0008B6
:10409000ABB90008E9BA0008EDBA0008B7B90008E2
:1040A000F5BA0008F9BA0008FDBA000801BB00081B
:1040B000AFB90008B3B900080DBB000811BB000878
:1040C00015BB000819BB00081DBB000821BB000878
:1040D00025BB000829BB00082DBB000831BB000828
:1040E00035BB000839BB00083DBB000841BB0008D8
:1040F00045BB000849BB00084DBB000851BB000888
:1041000055BB000859BB00085DBB000861BB000837
:1041100065BB000869BB00086DBB000871BB0008E7
:1041200075BB000879BB00087DBB000881BB000897
:1041300038B901EBC100052190FBF1F000F5A0704A
:1041400006E001EB8100A0F5C860092190FBF1F0C9
:1041500000B2704710B5DFF8144C00206060A06119
:1041600002F0E1F8012804BF082002F0C1FA0120A2
:1041700002F0BEFADFF8F80BC0690A21484360611B
:1041800010BD00B585B050B102F064FB024692A1AB
:1041900000F03DF800A9422001F0C1F90AE002F068
:1041A00059FB02468DA100F032F8002200A9002040
:1041B00000F0E8FD05B000BDF0B583B004460A4646
:1041C00087A100F024F800A803F02EF8DFF8A01B68
:1041D000896A00290CBF4321452100AD82B25155A7
:1041E000461CC0F10400471EB6B2042E07D220229E
:1041F000BFB2394600A8301803F042F8BE19B6B273
:104200000020705500A9204600F078FDF7BD00A8F9
:1042100003F091B810B50021002201239340034020
:104220005400042AB9BFC4F10704A340E41FE340CB
:104230005918C9B2521C082AEFDB084610BD2DE9F7
:10424000F54F81B05FEA0308DFF8289B09F5D076C7
:10425000DFF8240B0BD102782AB9002700240122B1
:10426000027047700DE0D9F8A071F46810E0B8F161
:10427000010F0BD1427832B90027002402700122CD
:104280004270877004E07768346901E0B768746948
:1042900000259DF80800484340000090DFF8DCAAA4
:1042A00008E00198285CFFF7B5FF05EB0A0181F8EB
:1042B000D8006D1C00988542F3D300219DF80800BA
:1042C00003E09DF8082001EB4201009A91422FD2B1
:1042D00000250AE029F81CE039F81CC04FEA1C2E22
:1042E00082F8D8E083F8D8C06D1C8542E9D20A185C
:1042F000AA1802EB0A0301EB050C0CEB0A0292F878
:10430000D8E093F8D8B04BEA0E2E29F81CE0B8F1AB
:10431000010F06D1002F14BF2EFA07FE0EFA04FE7D
:10432000D8E7002C0CBF0EFA07FE2EFA04FED1E7E8
:10433000002508E005EB0A0B9BF8D800FFF76AFFA1
:104340008BF8D8006D1C00988542F3D31CB9102F50
:1043500009D100271024641EB8F1000F05D1F460C4
:10436000C9F8A07108E07F1CF6E7B8F1010F07BF9C
:1043700077603461B7607461BDE8F78F10B582B0C3
:10438000DFF8FC4920780FF25C0120B9009110237E
:104390006022002107E06268012808D10092102302
:1043A00060220021002003F097F860600CE00228F2
:1043B00008BF009102D0032806D10092102360228A
:1043C0000021002003F088F82078401CC0B20428A7
:1043D00008BF0020207013BD25663A0025665600F0
:1043E0002564000000806010080464940404B44C48
:1043F00004848484848484040404040404048444BD
:104400002464A42424242424242424E40408106000
:10441000800000000000806010080484C4E4E4E42C
:10442000E4C484040404040404040404040404042C
:1044300004040404040484C4E4E4E4E4C48408102C
:104440006080000000071820408082818082828581
:1044500085888F8888888F858585858585858D95D4
:10446000A7B0AFA0A0A0A0A0A0A0A0BF804020188F
:104470000700000000000718204080848C9C9C9C52
:104480009F8F8783838383838383838383838383D0
:10449000838383838383878F9F9C9C9C8C84402011
:1044A0001807000000806010080464940404B44CF1
:1044B00004848484848484040404040404048444FC
:1044C0002464A42424242424242424E40408106040
:1044D00080000000000000F8F8808080F800804034
:1044E000404040800080404040408000004040F814
:1044F00040400000D000408040404080008040406C
:1045000040800000000718204080828180828285E0
:1045100085888F8888888F858585858585858D9513
:10452000A7B0AFA0A0A0A0A0A0A0A0BF80402018CE
:10453000070000000000001F1F0101011F000F12F3
:104540001212120B000C121212120F100000000FA8
:10455000100800001F00001F0000001F004788888F
:10456000887F000000E0F010102000008080808034
:1045700000008080F08080008080F0808000A000BB
:1045800080008080808000000080808080000000AB
:10459000000000000000806010080484C4E4E4E42B
:1045A000E4C48404040404040404040404040404AB
:1045B00004040404040484C4E4E4E4E4C4840810AB
:1045C00060800000000811111F0E000F121212125D
:1045D0000B0000000F10080000000F1008001F0063
:1045E000001F000000001F004F909090907F00007F
:1045F0000000000000000718204080848C9C9C9CD8
:104600009F8F87838383838383838383838383834E
:10461000838383838383878F9F9C9C9C8C8440208F
:1046200018070000F8B50C468578303DEDB20A2D2C
:1046300038BF2A46C578303DEDB20A2D38BF2B462B
:1046400000783038C0B20A2838BF01460026DFF8AB
:104650002C5718200FF2780700FB016C1CF807C0DC
:1046600006EB050E8EF860C000FB026C1CF807C05C
:104670008EF890C000FB036C1CF807C08EF8A8C031
:10468000761C182EE8DB102744B902230C220821DF
:104690002846FFF7D4FD05F1D80000E028460026A3
:1046A000009010230C2200210C20704300F0AAFF80
:1046B000761C082EF4DB7F1EE6D13CB901F0EDF943
:1046C00002F0B2FFBDE8F14001F0A3BFF1BD000070
:1046D00000E010080810E00000000000000F1020AB
:1046E00020100F0000000000001010F80000000073
:1046F000000000000020203F2020000000000000FB
:1047000000700808088870000000000000302824AD
:104710002221300000000000003008888848300066
:10472000000000000018202020110E0000000000F2
:104730000000C02010F80000000000000007042462
:10474000243F24000000000000F8088888080800C2
:10475000000000000019212020110E0000000000C0
:1047600000E010888818000000000000000F1120F1
:1047700020110E000000000000380808C8380800AA
:10478000000000000000003F0000000000000000EA
:10479000007088080888700000000000001C2221BA
:1047A00021221C000000000000E010080810E000BA
:1047B000000000000000312222110F000000000064
:1047C0000000000000000000000000000030300089
:1047D00000000000000000002DE9FE430E460FF22D
:1047E000F018024600F0BFF801F03EF8DFF880450F
:1047F000A16A00290CBF4321452101AD82B2515568
:10480000411CC0F10300401E8FB2032F08D22022AA
:104810001FFA80F9494601A8381802F031FD4F44CB
:10482000B9B20020485501A900F0BCFEDFF8C87DF0
:104830003878411C39700FF2640101EB401000F030
:104840008DF8292002F048FE3878032804BF0020A4
:104850003870324600F087F801F006F8A16A0029A6
:104860000CBF4321452182B25155441CC0F10400C4
:10487000461EA4B2042C07D22022B6B2314601A8AB
:10488000201802F0FDFC3419A4B20020605501A9E3
:10489000382000F087FEBDE8F7830000000030609C
:1048A000C080000000000000000000000000180CA4
:1048B000060301000000000000000000000030605E
:1048C000C0803060C0800000000000000000180CB4
:1048D0000603190C06030100000000000000306010
:1048E000C0803060C0803060C08000000000180CC4
:1048F0000603190C0603190C06030100000018300A
:1049000060C08000000000000000000000000C06F5
:10491000030100000000000000000000000018304B
:1049200060C0983060C080000000000000000C06ED
:1049300003010C0603010000000000000000183015
:1049400060C0983060C0983060C0800000000C06E5
:1049500003010C0603010C06030100000090102364
:10496000102200217047414601A802F0E4BC38B58E
:10497000DFF8885C01F0D4FC022808D00ED30428AC
:104980000AD006D3052808BF0FF2480406E02C46DB
:1049900004E0DFF86C4C01E00FF2C40405F18C0078
:1049A00001F0CDFA0225142000FB054001F0C0FA09
:1049B000684300F027FE6D1C092DF4DB4FF4FA70FC
:1049C00002F072FF50211020BDE8344002F0D7BD44
:1049D0002564000001FF0100000000000000101F1E
:1049E000101010101018040000C02010101010201B
:1049F000C0000007081010101008070010F0001089
:104A0000F01000F0100000031C0300031C03000062
:104A10000020202020202020200000000000000096
:104A20000000000001077980008079070100000084
:104A300000071C070000000000C02010101010200C
:104A4000C000000708101010100807000000101028
:104A5000FE1010100000000000000F1010080000F1
:104A600001FF4140404041FF0100101F10000000C5
:104A7000101F100000001013F300000000000000E1
:104A800010101F10100000000000E010101010F0B7
:104A9000100000609D8A8A8A8A91700001FF2010B0
:104AA000101010E00000101F10000000101F100078
:104AB00000202020202020202000000000000000F6
:104AC00000000000010779800080790701000000E4
:104AD00000071C070000000000001010FE1010105E
:104AE0000000000000000F10100800002DE9F04148
:104AF0001318DFF88882A0498D785DB90125CD7043
:104B000000250D7108254D7100250D704D70012592
:104B10008D7028E0CD7825BB0E794F7906EB000E1D
:104B2000AE449EF833E005EB080484F8D8E002EBCD
:104B3000050EC644F4182C1994F833408EF8D8406A
:104B40006D1CEDB2AF42E9D27D1C4D71761E0E7127
:104B5000EDB20B2D05D10A2048710020087101200B
:104B600025E00D7925BB0125CE784F7911E006EBC4
:104B7000050EC6442C1894F833408EF8D84006EB46
:104B8000020EAE44C644EC1894F833408EF8D84078
:104B90006D1CEDB2BD42EAD3781E4871721CCA701A
:104BA000C0B228B901204871092008710020C870DE
:104BB000BDE8F081F8B504460D46DFF89C6C142181
:104BC000304603F09FF90FF2740724B900230A223C
:104BD0000121384606E0012C07D101230A220121D8
:104BE00007F12000FFF72BFB06E0022C04D10A227C
:104BF00001213846FFF77AFF00960A230A22062190
:104C0000562002F069FC0FF2DC0401F06DFD04286F
:104C100003D104F10C00009005E0002D06BF07F160
:104C20001400009000940A2306220621502002F06E
:104C300053FC0120BDE8F240FFF7A3BA10188CC660
:104C40006363C68C1810426331180C0C1831634230
:104C500000F01E1FF00000FF8080FF0042C68C188D
:104C60003030188CC64208183163C6C66331180844
:104C70008C8CC6C68C8CC6C68C8C313118183131E0
:104C800018183131008C8C8C8C8C8C8C8C8C8C8C8E
:104C90008C8C8C0000313131313131313131313155
:104CA0003131310080C0603098CC66333366CC98A7
:104CB0003060C08088CC6633190C060303060C19DB
:104CC0003366CC88113366CC983060C0C0603098B1
:104CD000CC6633110103060C193366CCCC6633194C
:104CE0000C06030100F0FEFFF000007F7F7F7F00D5
:104CF000FF0FE1E00FFFFF80BFBF80FFF0B583B083
:104D00000C460501DFF8786D16E03638C0B2102782
:104D1000FFB2C7F110011022019201EBD1714910CD
:104D200001EB40108019009010233A460021E8B2B0
:104D300002F0FBFB7D19ADB22078A8B114F8010B8D
:104D4000202808BF0A20E3D02D2808BF0C20DFD080
:104D5000A0F130010A2903D23038C0B20E27D7E7BC
:104D6000A0F141010629D0D3F7BD00009C310020FD
:104D700070060020100400207D080020280200207A
:104D80000032002038B505460C46A2B92078A8B1FB
:104D900014F8010B2038C0B20FF2240100F058FBC8
:104DA0006D1CF3E714F8010B3038C0B20FF200614C
:104DB00000F04EFB6D1C20780028F3D131BD0000BF
:104DC00000000000000000000000000000000000E3
:104DD000000070F8F87000000000000D0D000000E9
:104DE00000383800003838000000000000000000E3
:104DF0000020F8F820F8F82000020F0F020F0F0231
:104E0000003078CE8E18100000040C38390F0600E0
:104E1000183C24BCD86030000006030D1E121E0C86
:104E200000B0F8487830000000070F0809070F09A4
:104E30000000003838000000000000000000000002
:104E40000000C0F0380800000000071F38200000F4
:104E500000000838F0C00000000020381F070000E4
:104E60000080A0E0C0E0A080000002030103020077
:104E7000008080E0E080800000000003030000006C
:104E800000000000000000000000002C3C1C00009E
:104E90000080808080808000000000000000000012
:104EA00000000000000000000000000C0C0C0000DE
:104EB00000000080E078180000181E0701000000C4
:104EC0000000F0F80868F8F00000070F0B080F0763
:104ED00000202030F8F80000000000000F0F000054
:104EE0000030380888F87000000C0E0B0908080024
:104EF0000030388888F8700000060E08080F070098
:104F00000000F8F800E0E00000030302020F0F02C7
:104F100000F8F88888880800000808080C070300D3
:104F200000C0E07858C8800000070F08080F07008D
:104F300000080888E878180000000E0F0100000043
:104F40000070F8C888F8700000070F08090F070004
:104F500000F0F80808F8F0000000090D0F03010048
:104F600000000060606000000000000C0C0C0000FD
:104F700000000060606000000000002C3C1C00008D
:104F80000080C0603018080000000103060C080013
:104F9000004040404040400000010101010101008B
:104FA0000008183060C0800000080C0603010000F3
:104FB00000303888C87830000000000D0D00000077
:104FC000F0F80888C848F8F0070F08090B0A0B0B1F
:104FD00000E0F01818F0E000000F0F01010F0F00C3
:104FE00000F8F88888F87000000F0F08080F070015
:104FF00000F0F8080838300000070F08080E060017
:1050000000F8F80818F0E000000F0F080C07030084
:1050100000F8F88888880800000F0F0808080800C2
:1050200000F8F88888880800000F0F0000000000D2
:1050300000F0F8080838300000070F08090F0F00CB
:1050400000F8F88080F8F800000F0F00000F0F0044
:10505000000008F8F80800000000080F0F08000022
:105060000000000000F8F80000060E08080F070016
:1050700000F8F880E0781800000F0F00030F0C0014
:1050800000F8F80000000000000F0F0808080800F2
:1050900000F8F820C020F8F8000F0F0001000F0FF3
:1050A00000F8F860C080F8F8000F0F0000010F0F43
:1050B00000F0F80808F8F00000070F08080F0700D4
:1050C00000F8F88888F87000000F0F00000000005A
:1050D00000F0F80808F8F00000070F08183F270054
:1050E00000F8F88888F87000000F0F00010F0E001C
:1050F000003078C88818100000040C08090F06005A
:10510000000808F8F80808000000000F0F00000071
:1051100000F8F80000F8F80000070F08080F070073
:1051200000F8F80000F8F8000003070C0C07030073
:1051300000F8F800C000F8F800010F0E010E0F0192
:10514000001838E0C0381800000E0F00010F0E00E4
:105150000078F88080F878000000000F0F00000051
:1051600000080888C8783800000E0F0908080800F1
:105170000000F8F80808000000007F7F40400000B1
:10518000001878E08000000000000001071E1800F1
:1051900000000808F8F80000000040407F7F000091
:1051A00030180818302030180000000000000000FF
:1051B00000000000000000004040404040404040EF
:1051C000000002060E0800000000000000000000C1
:1051D0000000202020E0C00000060F09090F0F008A
:1051E00000F8F82020E0C000000F0F08080F0700AB
:1051F00000C0E0202060400000070F08080C0400F9
:1052000000C0E02020F8F80000070F08080F0F008A
:1052100000C0E02020E0C00000070F0909090100DC
:105220000080F0F88888880000000F0F0000000060
:1052300000C0E02020E0E00000474F48487F3F00EA
:1052400000F8F82020E0C000000F0F00000F0F0052
:10525000002020ECEC0000000008080F0F080800F8
:1052600000002020ECEC0000004040407F3F0000A8
:1052700000F8F80080E06000000F0F01030E0C0042
:10528000000808F8F80000000008080F0F080800E0
:1052900000E0E020E020E0C0000F0F0007000F0F4B
:1052A00000E0E02020E0C000000F0F00000F0F0022
:1052B00000C0E02020E0C00000070F08080F070032
:1052C00000E0E02020E0C000007F7F08080F07001A
:1052D00000C0E02020E0E00000070F08087F7F000A
:1052E00000E0E08040606000000F0F000000000060
:1052F00000C0E0202020200000080909090F060056
:105300000020F8F8202020000000070F08080800FF
:1053100000E0E00000E0E00000070F08080F0F00C9
:1053200000E0E00000E0E0000003070C0C070300D1
:1053300000E0E000C000E0E000030F0C030C0F03EE
:105340000060E08080E06000000C0E03030E0C00A3
:1053500000E0E00000E0E00040474F68381F070031
:1053600000202020A0E06000000C0E0B09080800BF
:105370001C14DCE02020E0C000000F1F10101C0CEB
:1053800000000000FF00000000000000FF0000001F
:105390001C141CE0E02020200000001F1F01010061
:1053A00000060101020204040000000000000000E9
:1053B0000000F0F80868F8F00C00070F0B080F0762
:1053C0000000202030F8F8000C000000000F0F0053
:1053D000000030380888F8700C000C0E0B09080823
:1053E000000030388888F8700C00060E08080F0797
:1053F000000000F8F800E0E00C00030302020F0FC9
:105400000000F8F8888888080C000808080C0703D2
:105410000000C0E07858C8800C00070F08080F078C
:105420000000080888E878180C00000E0F01000042
:10543000000070F8C888F8700C00070F08090F0703
:105440000000F0F80808F8F00C0000090D0F030147
:1054500001EB00100090102308220021E800C0B2E8
:1054600002F03AB810231022002102F035B838B506
:105470000FF6980451EA000213D100250CE0012D2B
:1054800005D1009400F046F802F026F804466D1CA1
:10549000022D3DDA002DF2D10094FFF760FA0846A4
:1054A000F2E7C8B1002933D101280AD104F1200064
:1054B000009010231022502002F00EF804F140005A
:1054C00015E0022824D1009410231022002002F0BD
:1054D00003F804F1600017E0D1B101290DD104F106
:1054E000200000F016F801F0F7FF04F180000090B2
:1054F00010231A460021084608E0022908D100942A
:10550000FFF7B0FF04F1A00000F003F801F0E4FFA2
:1055100031BD00901023102200215020704770B53B
:1055200082B004460D460FF22C060EE015F8010B72
:105530002E38C0B2062101FB006000900523062230
:105540000021E0B201F0C8FFA41D28780028EDD1A9
:1055500073BD0000000000100000101010101010AB
:10556000001F1115111F0000111F1000001D15153F
:10557000151700151515151F000F08081F0800172F
:105580001515151D001F1515151D00010101011F21
:10559000001F1515151F00171515151F00070810FA
:1055A00008070000F8B504460D460026DFF85479D8
:1055B0000DE0142101FB0070009010230A2200214D
:1055C000F6B20A2000FB064000F01CF8761C287892
:1055D00088B115F8010B432808BF0B20E9D04528F6
:1055E00008BF0C20E5D0A0F130010A293ABF3038BD
:1055F000C0B20A20DDE7F1BD39320020B8610008F1
:1056000064620008C0B201F067BF00002DE9F04FEE
:1056100089B004468846914601A8142102F072FC24
:105620000020ADF800000022DFF8DC0850F824105C
:105630001046FFF7A7FB4FF00A0A80A7DFF8CC5807
:105640000A2C51D8DFE804F006080C11131D2F3B7B
:1056500041504B00686900E0286990FBFAF209E0CC
:10566000E8696421B0FBF1F204E02A6A02E0A8696B
:10567000B0FBFAF23946FFF777F900F0F5F8064685
:1056800032E0E86AB0FBFAF23946FFF76DF9E86AF2
:10569000B0FBFAF10AFB11023946FEF7B8FD00F043
:1056A000E3F8461C20E0A86A002807BF032264A193
:1056B000032264A101A802F039FC022614E0686A02
:1056C000002814BF60A061A004E0686B00280CBF34
:1056D0005FA060A001A902680A60032604E00FF63B
:1056E0006C0101A801F027FEF01D8DF8020006F103
:1056F00008070FF2681BDFF81868B9F1010F3CD1F9
:10570000B069B0F5167F35D298F8000054A1012891
:1057100006D100220720FFF735FB002259460BE097
:105720000FF24019022806BF002259460022072026
:10573000FFF728FB00224946F8B2FFF723FB052CB0
:1057400006D100F094F8012200A99DF8020002E0C1
:10575000002201A90820FFF715FBB069002869D1D4
:105760004FF47A70B061B8F1000F63D0002088F870
:1057700000005FE000F080F857E0092C3DD1B069EF
:10578000002857D100F0A7FE044600F0EDFE07B256
:1057900024B22146A86A0128384612D101F0A3FD9F
:1057A00032280BD2394600F07DF90546214600F03B
:1057B00079F995FBFAF20FF2A4710AE00FF2A471E5
:1057C0000DE001F090FD322807D297FBFAF20FF2BC
:1057D0009C7106A801F0AFFD04E00FF2987106A8D5
:1057E00001F0A9FD002206A90720FFF7CBFA00204F
:1057F000FEF7C7FCC820B0611CE00A2C05D10022CE
:1058000001A90020FFF7BEFA14E000F035F8052CDE
:1058100006D100F02CF8012200A99DF8020002E058
:10582000002201A90820FFF7ADFA0022CCA1F8B2AE
:10583000FFF7A8FA09B0BDE8F08F0000256400006A
:10584000207B0000207D0000204C480020524800B2
:105850004F464600204F4E0000030020200000006D
:105860003C0000003E00000001A801F0DDBC002269
:1058700001A90820FFF786BA002259460720FFF742
:1058800081BA00002DE9F84F044600208DF8000091
:10589000DFF87C6600F0FAF8DFF878B6DFF86C76AF
:1058A0000A2C0CD8DFE804F0065D6366696C6F7241
:1058B0007578A70007F11405B869CBF8080000F067
:1058C000E5F84FF4967001F0EFFF0C20604350F8BC
:1058D0000B805844D0F80490B0F808A0B86A0128AA
:1058E00009D1002C18BF012C05D1DBF86C80DBF846
:1058F0007090BBF874A000F0C5F800F0FCFC002824
:1059000000F0B28029680A46B0F5014F18BFB0F523
:10591000807F79D18945BEBFA1EB0A01494549463F
:1059200029608A426ED0062C68D100296AD1796933
:1059300009B20120FEF7FCFB8346396909B2012058
:10594000FEF7F6FB3861BBF57A7FB8BF4FF47A7B80
:10595000C7F814B0B0F57A7F54DA4FF47A70386132
:1059600050E007F11005B869CBF81400A7E707F17C
:105970001C05A4E707F12005A1E707F118059EE73C
:1059800007F12C059BE707F1280598E707F12405A7
:1059900095E707F1340592E701F046FE00F039FE85
:1059A00000F0CEFD00F0A4FC012807D1DFF8680567
:1059B0000068386302F0E7FA02F016FDDFF85C4594
:1059C0002078002859D0012807BF00220FF2AC51DF
:1059D00000220FF2B4510020FFF7D4F900F019FEB5
:1059E00000F05BF800F015FE00F057F80020207082
:1059F00001F01AFE41E003F090F83EE0072C08BFEA
:105A000001F0E4FD012022E040281CBF48F24003E1
:105A100098421ED1414505DA0AEB01004146804516
:105A2000C8BF014629608A4210D0062C0AD101293C
:105A30000CD1796900F035F87861396900F031F8F6
:105A4000386103E0072C08BF01F0C0FD02208DF88B
:105A50000000322001F028FF4FF47A60F0604FF42C
:105A6000C870B06100F00EF800F0D3FDF0680028B7
:105A70007FF441AF4FF4FA50F060BDE8F18F0000C1
:105A8000985F0008012200A92046BFE54FF47A7014
:105A9000B0614FF47A60F06070474FF47A7001F0B3
:105AA00003BF09B20020FEF743BB70B500250026F6
:105AB00001F0BAFD2A4611460846FFF7A7FDDFF8B8
:105AC000504442F21070E06000F015FCB0F140016B
:105AD0000ED0C03906D047F64072891A18D0C039A6
:105AE0000DD01AE0F6B2002E0CBF0A26761E0DE08D
:105AF000F6B20A2E38BF761C08D3002606E000F066
:105B000004FCF0B2FFF7BEFE00F02CF8002505E023
:105B100000F0FBFB0020E06070BD30B101F084FDBF
:105B20004FF4FA50E06000F01DF800F072FD0A201A
:105B300001F0BAFEA06908B900F014F8A06858B9DD
:105B4000282D09D20DB900F0E2FD462001F09FFE9C
:105B50004FF4FA70A0606D1C282DB5D170BD000007
:105B60002020200000220021F0B24FE570B582B065
:105B7000044650250E01F6B20EE0102105F110008A
:105B800001F0FDFC0094FEF7EAFEE8B201F0A4FC8F
:105B9000103D192001F088FEB542EEDA73BD2DE903
:105BA000F04182B00A24D948B0F9142092FBF4F5F0
:105BB0002DB2642695FBF6F2D2B206FB125393FB8C
:105BC000F4F3DBB206FB125504FB1355EDB2D44CD3
:105BD0002678012E03D1A6600026E66006E0022E9C
:105BE00005D10026A6601026E66000262670002754
:105BF0000FF2A43602E08CF838E17F1CDFF824C3F2
:105C0000B7EB410F20DA06EB421E17F80EE007EB68
:105C10000C0888F8D8E006EB431E17F80EE088F869
:105C2000F8E006EB451E17F80EE088F818E1D0F80A
:105C300028E0BEF1010FBC4407EB060E0CBF9EF836
:105C4000E0E19EF8A0E1D6E767600CF1D800012101
:105C50006160FEF783FE60680007000E01F03CFC07
:105C60006168491C61600529F3DBA068E16850EABE
:105C7000010202D019B9102804D1002005E0481E05
:105C8000E06001E0401CA0600120BDE8F6812DE944
:105C9000F8439E4CB4F914900FF270050021284689
:105CA000FFF764FF4FF47A7699FBF6F7FFB20FF235
:105CB000E828012108EB4710FFF758FF06FB17996A
:105CC000642699FBF6F7FFB2022108EB4710FFF7B5
:105CD0004DFF032106FB17900A2290FBF2F0C0B2A1
:105CE00008EB4010FFF742FFA06A012807BF04211C
:105CF00008F5F070042108F5D070FFF737FF052193
:105D000005F12000BDE8F44330E70000808040400A
:105D10002020101008080404FE000000000001010B
:105D200002020404080810103F0000000000FE04F6
:105D300004080810102020404080800000003F1020
:105D4000100808040402020101000000008080C065
:105D5000C06060303018180C0CFE00000001010318
:105D60000306060C0C181830307F00000000FE0CF3
:105D70000C181830306060C0C080800000007F3098
:105D80003018180C0C060603030101008080C0C007
:105D9000E0E0F0F0F8F8FCFCFE000000000001017B
:105DA000030307070F0F1F1F3F0000000000FEFC4A
:105DB000FCF8F8F0F0E0E0C0C080800000003F1F79
:105DC0001F0F0F07070303010100000070B54F4AC2
:105DD000B2F914204FF47A7392FBF3F4642592FB2A
:105DE000F5F6B6B249B9801890FBF5F190FBF3F0E7
:105DF00080B2A4B2A04209D10AE0101A90FBF5F1DA
:105E000090FBF3F080B2A4B2A04201D0032070BD99
:105E100089B2B14201D0022070BD012070BD2DE9D0
:105E2000FC4D3A4CA5693B48A16A002907BF0668AA
:105E3000D0F804B0C66ED0F870B001F0F5FBFFF7F3
:105E400026FFDFF8CC8042F21070C8F80C00ADB22B
:105E50004FF47A6A324F29E040281CBF48F24001D3
:105E6000884221D16069B04219DA012038700021DE
:105E70002846FFF7ABFF6169691861618E42D8BFA0
:105E8000314600F051F8022038700021FFF7EFFA98
:105E90006069B04203D102210020FFF7E8FA322006
:105EA00001F002FDC8F80CA000F0B3FBD8F80C001C
:105EB00030B300F020FAB0F5807F18BFB0F5014F85
:105EC000CAD160698345EDDA012038700121284686
:105ED000FFF77CFF6169491B61615945B8BF5946AD
:105EE00000F022F80220387000210120FFF7BFFAED
:105EF00060695845D6D101210020FFF7B8FAD1E7F3
:105F0000BDE8F38DE0B400084407002070060020CF
:105F10009C310020C80500205408002050080020B3
:105F2000600800202802002061610022102136E66E
:105F30002838009010230A2200210A207047009080
:105F4000102310220021084601F0C6BA526573746E
:105F50006F72652044464C540000000025647D208B
:105F6000000000002D2D7D200000000025647B2016
:105F7000000000002D2D7B2000000000436F6D709D
:105F80006C657465642E00005265747279206C61D2
:105F90007465722E00000000000000E0F8180C0C80
:105FA0000C8CCC78F8E000000000001F7F78CCC695
:105FB000C3C1C0607F1F000000000000303038FC0B
:105FC000FC0000000000000000000000C0C0C0FF96
:105FD000FFC0C0C00000000000000070781C0C0C66
:105FE0000C0C8CDCF8700000000000C0E0F0F8DC65
:105FF000CEC7C3C1C0C0000000000070781C0C0CEC
:106000000C0C0C9CF8F000000000003878E0C3C3D2
:10601000C3C3C3E77D3800000000000080C0E0700B
:10602000381CFCFC000000000000000F0F0D0C0CE1
:106030000C0CFFFF0C0C0000000000FCFC8C8C8C96
:106040008C8C8C8C0C0C00000000003171E1C1C103
:10605000C1C1C1E37F3E000000000000C0E0703815
:106060001C0C0C0C000000000000003F7FE7C3C3C5
:10607000C3C3C3E77E3C00000000000C0C0C0C0CFA
:106080000C0CCCFC3C0C0000000000000000C0F038
:106090003C0F03000000000000000000F0F89C0C22
:1060A0000C0C9CF8F00000000000003C7EE7C3C32D
:1060B000C3C3C3E77E3C0000000000F0F89C0C0C5A
:1060C0000C0C0C9CF8F000000000000001C3C3C3DE
:1060D000E3733B1F0F0300000000000000000000FE
:1060E00000000000000000000000000000000000B0
:1060F00000000000000000000000000000000000A0
:10610000F000000000000000000001010101010199
:106110001F0101010101010000000000000000005A
:106120000000000000000000000101010101010168
:1061300001010101010101000038283880C06060C0
:106140006060604080000000000000001F3F606051
:106150006060602010000000000000000000C0C06F
:10616000C0C000000000000000000000000030304F
:1061700030300000000000000038283800FCFC8CA3
:106180008C8C8C8C8C00000000000000007F7F0154
:106190000101010101000000FCFC0000000000C042
:1061A000C00000000000FCFC7F7F30180C060301DB
:1061B0000103060C18307F7F01FF00E11FE000FFA4
:1061C000010000011E0100011E010000006010100E
:1061D0009090E0000000000E111110081F18000040
:1061E0001010F04020101030000010101F10100090
:1061F0000000000010F02010101010E00000101F30
:1062000010000000101F100000001013F300000029
:106210000000000010101F101000000010F02010EF
:10622000101010E00000101F10000000101F1000E0
:1062300000E010101010F0100000007D8A8A8A8A99
:106240009170000000000080E0F8FE0707FEF8E013
:1062500080000000101C1F1F1F1F1F12121F1F1F76
:106260001F1F1C10001C2221414141820700001EFB
:10627000081010101008070000C0A090909090A087
:10628000C0000007081010101008040010F02010C3
:10629000101010E00000101F10000000101F100070
:1062A00000202020202020202000000000000000EE
:1062B0000000000001FF21212121F9030400101F2B
:1062C0001010101010180400001010F040201010D2
:1062D00030000010101F101000000000001010F01F
:1062E0004020101030000010101F1010000000009F
:1062F000B44800787047B449086900220A617047C1
:1063000000B10120B0490870704710B5AE4C0020B4
:1063100020702061322001F0C7FA0120207010BDEA
:10632000A8484078704780B500F094FA0A21A54A41
:1063300093684B43834203D204205070012002BD76
:10634000D3685943884203D205205070022002BD11
:1063500001205070002002BD2DE9F0419B490868E2
:10636000C0430968C94301F00201974A5378147881
:106370002340537094781578254095709488C6070B
:1063800002D500261681641CD688022902D1002776
:106390001781761C48F2400C4FF4014E8C4FA4B28A
:1063A000192C12D392F80080B8F1000F18BF002BFF
:1063B0000BD0B6B24EB97B6A002B14BFC2F810E006
:1063C000C2F810C00123538111E0B6B2192E0ED3CA
:1063D0001378002B18BF002D09D044B97B6A002B1D
:1063E00014BFC2F810C0C2F810E0012393814FF42B
:1063F0008073C00714D4508960B9192C06D22CB10F
:10640000786A002812BF1361402010611089401C77
:10641000108101E0002050810CB90120507000244F
:106420009480A1B9908960B9192E06D22EB1786AEC
:1064300000281ABF4020106113611089401C108190
:1064400001E0002090810EB9012090700026D680D6
:10645000BDE8F08170B55F494A68D3089CB2C500B9
:106460000E781EB94D600120087009E0844234BFE7
:10647000041B241AA4B23D2C3CBF8018C51A4D60E1
:10648000E80870BD10B5002001F001FA5248402123
:1064900001600A2001F00AFA504C0120207002200D
:1064A00001F004FA00202070606810BD4C490A78A1
:1064B00022B9C000486001220A7007E04A688018CB
:1064C000931002EB5372A0EBE2004860811000EBE6
:1064D0005170C01070472DE9F04104464FF000089C
:1064E0000A27404E012001F0CDF931684118726849
:1064F000824238BF02467260B268904288BF10463E
:10650000B060012F13D17068081AB168401AC00832
:10651000FFF7CCFF05462CB940F6E4406843000B7A
:10652000A0F5FA78002141F28830B06071603160E6
:106530007F1ED7D1002C14BF28464046BDE8F0810D
:1065400010B5FFF79FFF04460020FFF7C4FF1D4969
:10655000B4F5C87F05D2B0F5967F02DA4C60012011
:1065600000E00220087010BD38B5FFF78BFF04462D
:106570000020FFF7B0FFB0F5967FC8BF4FF49670CC
:1065800010494A68A21A122392FBF3F303F28A23FA
:106590004FF462756A4392FBF3F28018A4F611621D
:1065A000B2F5C77F9ABF4A88521C00224A804A88A7
:1065B000052A2CBF02220122B4F57A6FC8BF03223C
:1065C0004A7032BD5008002028080020080C014005
:1065D00070060020E831002014080140E03100205E
:1065E000F03100209008002010B5044645F25550C7
:1065F00002F024FC032002F024FC0A206043400344
:10660000000C02F021FC02F022FC02F025FC01202B
:1066100010BD80B502F01BFC012002BDDFF8E00ACE
:1066200000687047DFF8D81A0A68824205D24FF036
:10663000FF32101A0968081870470968081A70476D
:106640002DE9F04F83B004460D460026DFF8B47AFA
:1066500001223B4602F00CFC8FBFCDE90045CDE99D
:10666000006726462F4630463946DDE9002302F012
:10667000FFFB33D8DDE9000132463B4602F010FC57
:106680000022DFF8843A02F07FFC804689464246C9
:106690004B4602F079FC82468B4622462B4602F09E
:1066A00045FDDFF8682ADFF8683A02F0FFFD09D2FD
:1066B000DFF8602ADFF8603A02F0DAFB02D84046E1
:1066C00049460EE02046294652465B4602F0EEFD62
:1066D0002EBFCDE9008946464F46C4E70020DFF8CB
:1066E0003C1A03B0BDE8F08FDFF8340A0078704739
:1066F000DFF82C1A0A784A700870012088707047F9
:1067000038220FF6EC21DFF81C0A01F0FFBB38B588
:10671000DFF8144ADFF8145A012808D100F053F8C2
:106720004FF4806100F048F800F044F80FE098B9A9
:10673000DFF8EC09C07820B100F041F84FF4806137
:1067400032E000F037F800F03AF800F040F81E2090
:10675000BDE8324001F0A8B8022813D100F033F8A8
:106760004FF4807100F035F800F031F800F0AFF927
:1067700000F025F800F0ABF908212846BDE83440C8
:1067800002F013BE032814D100F01DF84FF48071FD
:1067900000F01FF800F01BF800F099F900F00AF87B
:1067A00000F095F94FF480712046BDE8344002F0C6
:1067B000FABD31BD4FF48071204602F0F6BD0821CC
:1067C000284602F0F0BD0821284602F0EEBD4FF445
:1067D0008061204602F0E7BD2DE9F04100270C243E
:1067E000DFF84C59DFF84C69DFF83C89012140465D
:1067F00002F0D9FD022001F057F80020307001208E
:1068000001F052F82868C7190121404602F0CDFD79
:10681000022001F049F80120307001F045F82868A5
:106820003F1AFFF7F6FE641EE0D1DFF80C0978434B
:1068300040F22A31B0FBF1F0000BDFF80049206094
:106840006421B0FBF1F00B2828BFFFF7C5FF2068DB
:10685000BDE8F08138B500240A25DFF8E40802F02D
:10686000A1FE04196D1EF8D10A20B4FBF0F04FF41C
:10687000A5714843000B892148431B21B0FBF1F06F
:1068800032BDDFF89C0800218181C18101824182F3
:10689000016241610F2101830421418332218183FF
:1068A0007047F0B500220123DFF87418C881B1F9F0
:1068B0000C00B1F90E40051B0D820D7900F11E068A
:1068C000A642B8BF6D1CEDB20B2D28BF0A6200F1C5
:1068D0005A07A742B8BF00258442B8BF00250D71F2
:1068E000B1F91000B0F5967F05DA01220C7914B9E0
:1068F0000C6A04190C62B1F90E40B1F90C50A542B2
:106900000DDA641B24B28D6E012D04D11F2C02DB25
:1069100000220A628A66972CA4BF00220A6200F154
:106920001E04A4B23D2C38BF00231F2804DBB1F99C
:106930001240041B0AD508E06FF01D04A04205DADE
:10694000B1F91240041B012C00DB00230C8B4D8B92
:106950006A430D6A6A4300FB04228C8BB1F9125022
:10696000451B6C4303FB04224882012AB8BF002266
:1069700004DBB2F5FA6FC8BF4FF4FA624A6190B215
:10698000F0BDDFF89C279181884204DA091A1229A8
:1069900004DB002105E0411A132901DA022100E09D
:1069A000012191847DE7F8B507460024002500F019
:1069B00007FC2046FFF7ABFEC82000F075FFDFF8AC
:1069C00060675FB3306DDFF874170968484302F001
:1069D00019FEFFF735FE0022DFF8683702F0D4FA1F
:1069E00004460D4604270220FFF791FE00F06FF8E1
:1069F0007F1EF8D1FFF72EFF40F2A331884202D369
:106A00000020F0700DE00120F07000F060F800F060
:106A1000D7FB0020BDE8F24079E6F1BDF078002810
:106A2000F3D11426FFF716FF143002F0EBFD2246D7
:106A30002B4602F03BFC22D2FFF70CFF02F0E2FDF6
:106A400002460B462046294602F070FB0022DFF882
:106A5000F83602F025FA02F0E3FD80B290FBF6F47E
:106A6000A4B2102C28BF0F2402D2A4B2002CD4D080
:106A70000220FFF74CFE00F02AF8641EF5E7FFF74E
:106A8000E9FE02F0BFFD02460B462046294602F011
:106A90000DFCC2D2FFF7DEFE143002F0B3FD224639
:106AA0002B4602F043FB02F0BBFD80B290FBF6F4F4
:106AB000A4B2102C28BF0F2402D2A4B2002CACD058
:106AC0000320FFF724FE00F002F8641EF5E71E2005
:106AD00000F0EABE000000002DE9F04F85B04FF055
:106AE000000BDFF83C466078A1780A254FF47A7AEB
:106AF000DFF858664FF4FA782278012A0CD0032A7E
:106B000000F03681042A00F00A82052A00F08D8206
:106B1000082A00F0A982EFE288B981B100F084FD73
:106B200000F099FD002104F13000FDF77BFD58468F
:106B300000F041FBC6F808800120A06607E0B069BC
:106B400028B9706918B1FDF719FCC6F818A0606E75
:106B50000028B0681CD088B9E06EB0F5966F0DD2F1
:106B600008B900F02DFB0020FFF7D1FD322000F026
:106B70008EFEC6F80880E06E401CE066E06EB0F560
:106B8000966F1FD100F01CFBE06E401CE06619E020
:106B900080B9A07A3C280DD208B900F011FB002082
:106BA000FFF7B5FD322000F072FEC6F80880A07A2B
:106BB000401CA072A07A3C2804D100F001FBA07A0E
:106BC000401CA072A07848B1002000F0F4FA3320F5
:106BD000A0855846E066A0720120A066FFF7FCFD84
:106BE000FFF789FB5FEA00091CBF706900280CD021
:106BF000DFF848754FF064084846402843D0B0F5A8
:106C0000807F03D0B0F5014F41D086E0FFF7E4FD6F
:106C10003868B0FBF8F0801E09280ED300F004FDA0
:106C200000220FF2B4511046FEF7ACF840F2DC50EF
:106C300000F03AFE00F0F8FC6FE04FF0050AFFF7B5
:106C400021FCB0F57A6FC8BF0BF1010BBBF1050F4A
:106C500007DBDFF8FC04032101700820FFF748FD83
:106C600002E0BAF1010AEAD1FFF7F4FDB0F5167FB0
:106C70008041C00FE0720120FFF795FE002000F078
:106C80001EFE032000E00520FFF732FD45E0FFF780
:106C90003CFB00F0C9FC3868002814BFB0FBF8F2D8
:106CA00000220FF2405100F07FFA002200A91046A6
:106CB000FEF768F800A800F0B7FA824638680028A6
:106CC0001EBFB0FBF8F108FB1100002814BFB0FB99
:106CD000F5F200220FF2940800F065FA012200A9F3
:106CE0005FFA8AF0FEF74EF8386800281ABFB0FB4A
:106CF000F5F105FB1102002200F055FA002200A96F
:106D00000AF10100C0B2FEF73DF8FFF782FC4FF434
:106D10007A7000F0C9FDFFF77CFC706990B9A08D16
:106D200080B1E18D491CE18589B232290AD1411E29
:106D3000A185C0B200F092FB0020E085A08D08B9CB
:106D400000F0A1FB02F092FC002808BFB9F1000F8F
:106D50000BD0E06C68437061A08D002805D1332012
:106D6000A08500F07BFB00F082FBC5E125640000FC
:106D700039B10020A07000F057FC5846306000F098
:106D80001BFA207A20B100F01BFA0020FFF7BFFCAD
:106D9000FFF7C9FA08B9E0712072E07A68B1FFF72D
:106DA000C2FA40B1E079401CE071C0B2C828DCD121
:106DB0000020E071B1E0E0711AE03069C0B9FFF77E
:106DC000B2FAA8B1E079401CE071C0B20A280FD134
:106DD0000020E071207A401C207240F6B831316109
:106DE000C0B2032804D10820FFF782FC00202072E3
:106DF000FFF781FA814648F24001401A0ED0C038B0
:106E000016D1FFF782FA002000F041FD00F00CFCE3
:106E10000520FFF76DFC5846706009E0FFF775FA32
:106E2000002000F034FD0120FFF762FC00F0C8F9FB
:106E3000616CA06D012803D109B2FDF779F9014613
:106E4000218500F028FD30B9FFF78EFB00F0A4F992
:106E500000B200F01CFD00F099F912283CBF208D13
:106E6000E084A08CC7B2012F06BF60790128C6F864
:106E700008A06771B068002804BFB069002817D166
:106E8000A07910B9012000F093F9B4F92810A06D91
:106E9000012807D100F097F900F098F99AFBF5F175
:106EA00009B201E000F067F900F06BF9C6F818804C
:106EB0003068C0B9B068B0B1A07908B100F077F916
:106EC000B4F926106185A06D012802D100F07BF98C
:106ED000608500F048F902F0C9FB01463846FDF72D
:106EE00069FEC820306002F0C1FB002808BFB9F17C
:106EF000000F01D000F060F9706920B900F0C7FC04
:106F00000420FFF7F5FBFFF70BFA0228C0F0F4802E
:106F1000FFF706FA042880F0EF800820EAE031B19C
:106F20000020A070306000F047F90120A066206CBE
:106F3000A16D012903D101B20120FDF7F9F82085E7
:106F4000616C206C814208DAA06D012804D109B27D
:106F5000FDF7EEF8208500E02185706848B9FFF75D
:106F600003FB00F019F900B200F091FC4FF49670A9
:106F7000706000F00BF912283CBF208DE084A08CDB
:106F8000C7B2012F06BF60790128C6F808A0677153
:106F9000B068002804BFB069002816D1A07908B9EC
:106FA0000120A071B4F92810A06D012807D100F0CC
:106FB0000AF900F00BF99AFBF5F109B201E000F0D3
:106FC000DAF800F0DEF8C6F81880E08C60853068EA
:106FD000B8B9B068A8B1A07908B100F0E8F8A06D20
:106FE000012804D1B4F92A1000F0EDF8608500F012
:106FF000BAF802F03BFB01463846FDF7DBFDC8203E
:107000003060FFF78DF9022828BF082072D202F005
:107010002DFB10B9FFF76FF908B103206AE0706922
:10702000002869D100F033FC63E0012812D1FEF79B
:107030003CFD434C002200F091F800F0A4FF01F069
:10704000D3F9012200F08AF80120FFF751FB00F08C
:10705000B7F851E003284FD1FEF7E1FE0320FFF718
:1070600047FB0120A06647E039B10020A07000F086
:10707000DBFAC6F818800120A066364828B1002047
:1070800000F005FC344840210160FFF749F9012870
:107090001ED020D3032804D003D3052808D003D35F
:1070A00019E0FFF761FA16E0FFF73DF998B90FE034
:1070B00001250120FFF777FCFFF7CCFB40F28B2185
:1070C000884224BF0320FFF713FB6D1EF1D102E0BD
:1070D0000320FFF70DFBB06970B9FDF748FCC6F857
:1070E0001880607A401C6072C0B2032804D100206E
:1070F00060720120FFF7FCFA05B0BDE8F08F0000D8
:107100001C3200200000F03F0000E03FFDA9F1D25A
:107110004D62503FFCA9F1D24D6250BF0000F0BF5C
:10712000400600207006002000080140000C0140CD
:10713000E4310020E031002070640800203200209B
:107140000028014000002440000034C09C31002091
:107150005108002097780008140801404FF4A071EE
:10716000204602F0BCB9B4F92A0090FBF5F109B24F
:107170000020FDF721B891FBF5F109B2B4F9260022
:10718000704790FBF5F000B2FDF726BBB4F928106C
:10719000B4F9260000F0A7B8E084B4F92810B4F9D7
:1071A0002600FFF7EEBB414600A800F0C4B800205F
:1071B000A07100F039BAA070E06C6843706170474C
:1071C0000120FFF7A4BA0020FCF7B2BF8246B4F951
:1071D00026105846FCF7ACBF2020204E6F20546983
:1071E0007021000054697020523A256400000000AC
:1071F000312E3037000000000000000000000000C9
:10720000D0070000B80B00006400000050460000EA
:1072100012000000000000000000000082000000DA
:10722000660000000100000000F10103810704D0A6
:1072300010F8011B89B18107FAD10268B2F101315E
:10724000914311F0803F04BF50F8042FF6E710F887
:10725000011B11B110F8011BFBE7C01A704750F871
:10726000041B61B150F8042BD30744BFA9F10103FB
:107270009A18002342F8043B091FFAD1EFE7704740
:1072800062F30F2262F31F42401810F0030308D08C
:10729000C91A1FD3DB0748BF00F8012D28BF20F80B
:1072A000022D130030B414461546103928BF20E9CA
:1072B0003C00FAD8490728BF20E90C0048BF40F835
:1072C000042D890028BF20F8022D48BF00F8012DA9
:1072D00030BC7047C91818BF00F8012DCB0728BF74
:1072E00000F8012D7047814201DA401A7047081AF0
:1072F000704770B50022002803D52D220A700122A4
:1073000040420A2390FBF3F4012502E094FBF3F4DE
:107310005D43002CFAD155B190FBF5F404F1300631
:107320005654521C05FB140095FBF3F5F3E70020BF
:107330005054084670BD0CB42DE9F04383B00446A8
:107340000D4600270026002C00F083800DF1280850
:107350004FF00A0903E0795D315506467F1C795DDF
:10736000002973D0701C2529F5D17F1C795D632914
:1073700006D0642914D0662921D0732905D0EAE704
:1073800008F1040818F8041CE6E758F8040B00217B
:107390000A5C002A1EBF3255491C761CF8D1DDE775
:1073A00000A958F8040BFFF7A4FF002100A8085C0F
:1073B00000281EBF3055491C761CF7D1CEE758F87F
:1073C000040B411E092924BFA0F10A015A29C5D383
:1073D000A0F16401B1F5617F15D290FBF9F109FBD1
:1073E00011003030E07091FBF9F009FB10113031E1
:1073F000A1702E21617090FBF9F109FB1100303072
:1074000020700426AAE7A0F57A7142F22832914250
:10741000A4D290FBF9F109FB11003030207191FBEF
:10742000F9F009FB10113031E1702E21A1700146F5
:1074300091FBF9F009FB10113031617090FBF9F10B
:1074400009FB110030302070052687E700203055F9
:107450002046BDE8FE035DF80CFB000010B50446B5
:107460003C21812002F067FA3C21204630E080B5C3
:107470003C218D2002F05FFA3C21142002F05BFADF
:107480003C21AF200AE080B53C218D2002F053FA68
:107490003C21102002F04FFA3C21AE20BDE8044010
:1074A00002F049BA10B5044608465B49496A01B181
:1074B00020343C215038C0B202F03DFA3C21E4B205
:1074C000200940F0100002F036FA3C2104F00F00D1
:1074D000BDE8104002F02FBA2DE9F0410446904675
:1074E0005818C0B2CE080722114218BF761C81106E
:1074F00000EB5171CA10B0EBC2011ABF501CC5B2EB
:10750000D5B2069F0BE031462046FFF7CBFF0123A3
:107510003C224146384602F0F5F94744761CF6B263
:10752000AE42F0DB3846BDE8F0812DE9F8438046F5
:1075300091465818C0B2CF080722114218BF7F1CCD
:10754000811000EB5171CA10B0EBC2011ABF501C80
:10755000C6B2D6B2089D099C0BE039464046FFF7FB
:10756000A1FF01233C224946284602F0CBF96519C8
:107570007F1CFFB2B742F0DB2846BDE8F28330B58E
:10758000A1B004460D4601A800F0BCFC00F05FF875
:107590002A460021E0B2FFF79FFF00F058F82A4684
:1075A0000821E0B2FFF798FF21B030BD80B54FF45D
:1075B0000040ADF8000003208DF8020010208DF887
:1075C000030000A9154801F089FE01BD10B5144C57
:1075D0004FF40041204601F0E8FE022000F064F97B
:1075E0004FF40041204601F0DEFE022000F05CF97D
:1075F0000C480949496A19B9C8214171A12102E021
:10760000C0214171A021417200233C221721BDE815
:10761000104002F077B9000070060020000C014015
:10762000000801401008002000B5A1B0802101A889
:1076300000F068FC00F00BF8802200F0B9F800F0D0
:1076400006F88022194600F0B4F821B000BD01A868
:107650000090082370472DE9F041A2B00125802158
:1076600002A800F04FFC002201A90FF24C1000F01C
:10767000AAFC040000F07F802078422804BF6078D4
:107680004D2840F0878094F83600FF2804BF94F816
:107690003700FF2804D194F83800FF2808BF0025E0
:1076A00000F081F801260F27002000210C2202FBA8
:1076B0000712121992F83E2080234FF0080C03EABB
:1076C000020E1DB1BEF1000F0CD102E0BEF1000FA1
:1076D00008D00DF1080E86449EF8018046EA08089D
:1076E0008EF8018000F059F8E9D1491C0C29DDD34E
:1076F0007606360E7F1E082FD6DA02A800900823E1
:10770000602200F055F8FEF784FF00F04CF80126E7
:107710000027002000216FF00B0202FB0712121954
:1077200092F8922080234FF0080C03EA020E1DB15C
:10773000BEF1000F0CD102E0BEF1000F08D00DF138
:10774000080E86449EF8018046EA08088EF80180FB
:1077500000F023F8E9D1491C0C29DCD37606360E5B
:107760007F1C082FD5DB02A8009008236022082187
:1077700000F01FF808E00FF24C0000901023602288
:1077800000210020FFF7A8FE4FF47A7000F08CF87B
:10779000FEF73FFF22B0BDE8F081401CC0B25B089D
:1077A000BCF1010C70477F210DF1090002F0FCB81B
:1077B0000021002090E600004C4F474F494E20200A
:1077C000424D5000000000000000000000000000DA
:1077D00000000000000000000000000080C0E0F099
:1077E000F8FCFEFEFCF8F0E0C080C0E0F0F8FCFE23
:1077F000FEFEFC783080C0C000189CCEE6F0F8FC9D
:10780000FEFEFCF8F0E0C0E0F0F87C0000000000B4
:107810000000000000000000000000000000000068
:107820000000000000000000000000000000000058
:1078300000000000000000000000001F0F0703010F
:1078400003070F1F3F7F7F3F1F0F0703010307073A
:1078500003191C0E6773391C0E07030103070F1F62
:107860003F7F7F3F1F0F0703010000000000000063
:107870000000000000000000000000000000000008
:1078800000000000DFF80C1631F810007047DFF838
:10789000081688607047DFF800068068704720216E
:1078A000DFF8F80502F080B8142100E00A2148430F
:1078B000DFF8E415486048680028FCD17047DFF81D
:1078C000E0154FF400620A614FF480520A6100280B
:1078D00008680AD120F4404040F44050086008682D
:1078E00020F4402040F4403009E020F4804040F48F
:1078F00030400860086820F4802040F430200860A0
:10790000704738B502F054F8102002F0D5F8DFF8CF
:107910008845207820B1012002F0C8F8082502E04F
:1079200002F0C4F80025DFF87C05416841F4D0017D
:1079300041F404414160016841F08071016001201F
:1079400002F04FF8012002F04FF8392002F082F8DF
:107950000028FAD0207800B1022002F048F802F0A6
:107960004DF8A842FBD10121052002F04FF801217A
:1079700040F20D6002F053F80121032002F058F8A4
:10798000207820B10120BDE8324002F03CB831BD82
:1079900080B501464FF0006002F041F94FF4A0605D
:1079A00002F00CF914208DF8000002208DF801007F
:1079B00000208DF8020001208DF8030000A802F0DD
:1079C00002F9122000F004F8172000F001F801BDC0
:1079D0008DF8000000208DF801008DF802000120D4
:1079E0008DF8030000A802F0EEB83EB50121DFF8E3
:1079F000B80401F0DCFC2020ADF8000048208DF830
:107A00000300DFF8A84400A9204601F067FC10201D
:107A1000ADF80000042000F066F80521012001F017
:107A2000EFFC2020019000208DF808000C208DF83C
:107A3000090001208DF80A0001A802F005F91020C4
:107A4000ADF8000000208DF80300DFF8645400A9B1
:107A5000284601F043FC4FF40040ADF8000003203D
:107A60008DF80200102000F03EF8402000F041F8B0
:107A7000082000F02FF8042000F02CF80320ADF8C7
:107A80000000482000F02FF84FF4806000F03DF82F
:107A9000082000F02AFA4FF4807000F036F8012038
:107AA000ADF80000102000F033F84FF4006000F053
:107AB00038F84FF4805000F034F84FF4005000F0E4
:107AC00030F84FF4804000F02CF84FF4007000F0D4
:107AD00010F837BDADF8000000208DF8030000A9B4
:107AE000284601F0FBBB8DF8030000A9204601F0F9
:107AF000F5BBADF8000003208DF8020010208DF8D2
:107B0000030000A9284601F0E9BBADF800000420FD
:107B10008DF8030003208DF8020000A9284601F02B
:107B2000DDBBADF8000003208DF8020004208DF8C5
:107B3000030000A9284601F0D1BBF0B591B04FF485
:107B40002044DC4D284602F0C5F8DB480590D148BA
:107B500006900020079002200890002009908020C5
:107B60000A904FF480700B904FF480600C902020AE
:107B70000D904FF400500E9000200F9005A928465C
:107B800002F0F5F80121284602F00CF90122022149
:107B9000284602F011F9C94D284601F047FC00F0D3
:107BA00060F84FF4602702970020039002208DF8C0
:107BB000100000A9284601F062FCC14E304601F0D9
:107BC00035FC00F04EF802970020039001208DF85C
:107BD000100000A9304601F052FC072302220421C4
:107BE000284601F0A0FC072301220321284601F0CA
:107BF0009AFC052301220221304601F094FC012168
:107C0000284601F063FC0121284601F056FC0121C1
:107C1000304601F052FC284601F06AFC284601F08B
:107C20006CFC20B12046441E0028F7D117E03046F6
:107C300001F05EFC304601F060FC0028FAD13046CD
:107C400001F05EFC304601F060FC0028FAD1012111
:107C5000284601F05FFC0121304601F05BFC11B0C9
:107C6000F0BD0020009001208DF804008DF8050083
:107C7000704700B585B04FF4E06001F09FFF864883
:107C80000078002814BF2F200720ADF8040040F230
:107C9000E730ADF808000020ADF80A00ADF80600A6
:107CA00001A94FF0804002F0ABF800F069F802F053
:107CB000FDF8012200F064F802F0F0F800F060F83E
:107CC00002F0E2F81C2000F02FF805B000BD1FB54F
:107CD0004FF4E06001F072FF6F480078002814BF95
:107CE0002F200720ADF804003120ADF808004FF434
:107CF0008070ADF80A000020ADF80600714C01A9B3
:107D0000204602F07DF80121204602F0CFF8012242
:107D10000121204602F0C2F80121204602F0B4F809
:107D20001D2000F001F81FBD8DF8000000208DF827
:107D3000010001208DF802008DF8030000A801F079
:107D400042BF10B500F01CF802F0BAF800205E4CFB
:107D500004EB80014A6812B14A68521E4A60401C16
:107D60000828F5DB59480168491C01602078411C4E
:107D70002170142803D3FEF7EFFA0020207010BD05
:107D800001214FF08040704710B501214D4802F0AD
:107D900097F8414C606810B16068401E60604C48C4
:107DA000007830B10020FFF76DFDFEF753FB494925
:107DB0000860A0686178484A48B1A068401EA06089
:107DC000002919BF4020506040201060C943A068BE
:107DD00010B9402050600021617010BD38B5384C9A
:107DE00045F64D034FF45845694391FBF3F292B2C7
:107DF000684390FBF3F189B2204601F0DCFB0221DD
:107E0000204601F0DBFB3549204601F0CEFB012284
:107E10004FF4A0712046BDE8384001F060BB38B592
:107E2000274C4FF4A071204601F0DAFB78B1A56A27
:107E3000204601F0B7FB854202D31748002181603C
:107E40004FF4A0712046BDE8344001F0D6BB31BDEF
:107E500010B582B0164C58B10821144801F0A5FAAB
:107E60004FF4806100F03EF800F03AF801210BE099
:107E70004FF4806000F039F84FF4807000F035F86E
:107E800000F02EF84FF4806100F02CF86420FFF72A
:107E90000BFD13BD18320020840800209C31002007
:107EA000040801400010024000023000000C0140B4
:107EB00000080140080002404C2401400024014019
:107EC0000028014000040040983100201C320020AE
:107ED000E0310020E4310020100801400002800061
:107EE0004FF48071204601F060BAADF80000102018
:107EF0008DF8030003208DF8020000A9204601F050
:107F0000EDB90000002201F0F3BF000062B38B075F
:107F100008D0521E11F8013B00F8013B00F024800C
:107F20008B07F6D1830740F0208000BF103A07D3BB
:107F300030B4B1E83810103AA0E83810F9D230BCAB
:107F4000530724BFB1E80810A0E8081044BF51F857
:107F5000043B40F8043BD20724BF31F8022B20F841
:107F6000022B44BF0B7803707047083A07D3B1E87F
:107F70000810083A40F8043B40F804CBF7D2530706
:107F8000E4E70000704710B54FF41852DFF8D81B33
:107F9000DFF8D80BFFF7CAFFDFF8D40B002100226F
:107FA0000B460C461EC010BD10B5002208E0135C45
:107FB000A3F16104E4B21A2C3CBF203B1354521CC1
:107FC0008A42F4DB10BD2DE9FF4180460E46DFF802
:107FD0009C4B04F2004710250B22394601A8FFF7FD
:107FE00095FF0B2101A8FFF7DFFF0B22414601A8F7
:107FF00001F098FF98B907F11C00017831704178C1
:10800000717007F11A0000A902780A7042784A706C
:10801000BDF8000004EB402000F5007003E02037BD
:108020006D1ED9D1002004B0BDE8F08120281CBF0E
:108030000D280A2801D1012070470020704710B593
:10804000044600E0641C2078FFF7F0FF0028F9D117
:1080500014F8011B0A462D2906D02B2906D103E06E
:108060000A2303FB0010303814F8011BA1F1300380
:10807000DBB20A2BF4D32D2A08BF404210BD2DE9F4
:10808000F04180460D463D2108F1D80001F07CFF0B
:10809000002811D000F091F880B2002818BF012804
:1080A00014D10746A86200240A263D21242000FBA3
:1080B000048001F069FF002879D000F07EF880B2DA
:1080C0002FB9A0F16401B1F5967F05D96FE0A0F159
:1080D000D401B1F5077F6AD87043002C0CBF28612A
:1080E0006861641C022CE0DB3D2108F1480001F0CE
:1080F0004BFF00285BD000F060F880B2A0F13C019B
:10810000B1F56B7F53D264214843E8613D2108F10A
:108110006C0001F039FF002849D000F04EF880B221
:10812000A0F11001092942D228623D2108F19000F6
:1081300001F02AFF00283AD000F03FF880B2411E3B
:10814000192934D27043A8613D2108F1B40001F02F
:108150001BFF60B300F031F880B2A0F16401332955
:1081600025D2E8623D2108F1FC0001F00DFFF0B1DD
:1081700000F023F880B2002818BF012817D16862E8
:108180003D2108F5907001F0FFFE80B100F015F878
:1081900080B228633D2108F5A27001F0F5FE30B1F0
:1081A00000F00BF880B2002818BF012801D0002091
:1081B00001E068630120BDE8F081401C3FE72DE944
:1081C000F047F2B00446884600264FF4B47118A870
:1081D000FFF798FEDFF89C7900F074FB4FF024095C
:1081E00000AC0025252100A8FFF78CFEB6F5007F26
:1081F0003EDAF05D2855761C0A2818BF0D286AD192
:108200000020285500A8FFF70FF880B268B300A936
:108210004018A0F1010A01E0AAF1010A00A8824574
:1082200005D39AF80000FFF701FF0028F4D10020E1
:108230008AF8010000AD00E06D1C287818B1FFF746
:10824000F5FE0028F8D100A8A8420ED0AAEB050040
:10825000801C80B200A9002204E015F8013B01F85F
:10826000013B521C92B28242F7D39DF8000048B9FC
:10827000B6F5007FB5DB002018A909FB00110978CD
:1082800069BB34E0002507EB8500D0F800A250461A
:10829000FEF7CAFF00A911F8012BA2F141031A2B26
:1082A00038BF20321AF8013BA3F1410CBCF11A0F80
:1082B00038BF2033401E80B230B19A42EBD003D099
:1082C0006D1C0A2DD4DADEE700A918A809FB050009
:1082D00001F066FECCE76D1C242D87DBC8E7401C4F
:1082E0000A28C9DB0AA918A8FFF7C9FE08B90126A0
:1082F0004FE00026DFF8807828220EA907F1100051
:10830000FFF704FE0A24386990FBF4F20FF690019F
:1083100018A8FFF710F8786990FBF4F20FF68C01BB
:1083200021A8FFF708F8F86900F065F92AA8FFF717
:1083300002F83A6A0FF68C0133A8FEF7FCFFB86921
:10834000B0FBF4F20FF688013CA8FEF7F4FFFA6ADE
:108350000FF6880145A8FEF7EEFFBA6A0FF688010E
:108360004EA8FEF7E8FF7A6A0FF6840157A8FEF7D9
:10837000E2FF3A6B0FF6800160A8FEF7DCFF7A6B34
:108380000FF6800169A8FEF7D6FF386BDFF8EC170F
:1083900008604FF49671404601F006FBDFF8D07795
:1083A00076B1002407EB8405E96B404601F01AFE24
:1083B0006969404601F016FE641C0A2CF2DB0FE0EE
:1083C000002418A809FB0401404601F00BFE07EB4E
:1083D00084004169404601F005FE641C0A2CF0DB74
:1083E000304672B0BDE8F0872DE9F043D5B00020EB
:1083F000ADF800004FF496710AA8FFF783FD0A2438
:10840000DFF87457286990FBF4F20FF2947100F0D2
:10841000F8F800F0ECF8DFF85867716900F0E8F858
:10842000686990FBF4F20FF2847100F0EAF800F052
:10843000DEF8B16900F0DCF8E86900F0DCF800F083
:10844000E0F800F0D4F8F16900F0D2F82A6A0FF2EF
:10845000747100F0D6F800F0CAF8316A00F0C8F87C
:10846000A869B0FBF4F20FF2687100F0CAF800F0EE
:10847000BEF8716A00F0BCF8EA6A0FF2607100F0B1
:10848000C0F800F0B4F8B16A00F0B2F8AA6A0FF2CE
:10849000587100F0B6F800F0AAF8F16A00F0A8F8F8
:1084A0006A6A0FF24C7100F0ACF800F0A0F8316B82
:1084B00000F09EF82A6B0FF2407100F0A2F800F075
:1084C00096F8716B00F094F86A6B0FF2387100F057
:1084D00098F800F08CF8B16B00F08AF80FF2307861
:1084E00000F045F94046FFF76EFD00F03AF918D06C
:1084F0000AA8FEF799FE0246BDF8000004EB401002
:1085000080F81C24110A00F067F881550AA8FEF7CC
:108510008BFE02460AA93846FFF7F8FC00F011FA74
:108520004BE00FF2F86900F022F94846FFF74BFDE7
:10853000010004F21646DFF8487616D0FE220AA89B
:10854000FFF7E4FC00F008F904F58460B9E80E00D8
:108550000EC0FE220AA904F50060FFF7E7FC002028
:108560007075376200F0F1F801E000F0F5F8B8E856
:10857000070007C50FF6BC05062229462046FFF76F
:10858000D5FC0622294604F50070FFF7CFFC0AA8A7
:10859000FEF74AFE05462A460AA904F5C060FFF721
:1085A000C5FC002084F80B04C4F816740220307156
:1085B000B571280AF07100F0EDF942F60C000119CE
:1085C0000022CA760A774A76025100208860086144
:1085D000C86055B0BDE8F08380F81D14781B00F525
:1085E0000070411200EB915080120121704701A9E7
:1085F0000AA801F0F7BC6421B0FBF1F20FF2B85108
:10860000704701A8FEF797BE2DE9F04FCDB00020CE
:10861000ADF800000FF2F85600F0A9F83046FFF769
:10862000D2FC00F09EF8DFF848951ED001A9FFF7B4
:10863000C6FD00287AD001A8FEF7F6FD0646BDF873
:10864000000004EB401080F81C64310AFFF7C4FFFF
:1086500000F8091001A8FEF7E7FD024601A9384617
:10866000FFF754FC00F06DF960E00FF2B05A00F033
:108670007EF85046FFF7A7FC010004F21647DFF82A
:10868000008517D0FE2201A8FFF740FC00F064F837
:1086900004F58460BAE80E000EC0FE2201A904F5BC
:1086A0000060FFF743FC00207875C7F8208000F0D9
:1086B0004CF801E000F050F807CE07C50FF27476D1
:1086C000062231462046FFF731FC0622314604F5EA
:1086D0000070FFF72BFC0026002509EB850ADAF86D
:1086E0003CB05846FEF7A0FD00F045F8DAF83C0033
:1086F000FEF79AFD8619DAF814B05846FEF794FD95
:1087000000F039F8DAF81400FEF78EFD86196D1CBA
:108710000A2DE2D3002084F80B04C4F8168402204A
:108720003871BE71300AF87100F034F942F60C006D
:1087300001190022CA760A774A7602510020886021
:108740000861C8604DB0BDE8F08F032084F83A049A
:10875000FE2084F83C0470474FF418512046FFF780
:10876000D1BB0700DFF8044404F20045704700AABB
:108770000DF10201704702465946301900F5C060FC
:10878000FFF7C4BB2DE9F047D0B004468846DFF8B8
:10879000DC93B8F5805F0BD14FF40072494601F0CD
:1087A000C1FB00280FD04FF40072214648460FE06D
:1087B000B8F5205F0FD109F500754FF40072294616
:1087C00001F0B0FB002878D04FF400722146284613
:1087D000FFF79CFB71E009F20047DFF89453B8F50E
:1087E000804F2BD14FF40072394601F09BFB0028DB
:1087F00063D000F067F80120687010260FF2104770
:108800000C22214600A8FFF781FB0B22394600A865
:1088100001F088FB40B9A07E688201202874207F87
:1088200040B10120287048E02034761EE8D1287C31
:108830000028F6D00020287428803EE0A8F5004AE1
:10884000BAF5005F39D808EB0900A0F5F4464FF4FB
:1088500000723146204601F065FB28B14FF40072EA
:1088600021463046FFF752FB4FEA5A20801C698AA6
:1088700088421CD105A93046FFF7A1FCF8B905A82C
:10888000FEF7D2FC698A09EB411181F8DC03000A8A
:1088900081F8DD03F01BFFF7A2FE415505A8FEF7A6
:1088A000C3FC024605A93046FFF730FB05E0A8F5FA
:1088B000FC4005EB90200121417000F042F850B0DF
:1088C000BDE8F0874FF4007221463846FFF71EBB23
:1088D00038B504460D46FFF755FB25B94FF4007235
:1088E0000FF2503121E0A149B5F5805F08BF4FF488
:1088F00000721AD0B5F5205F04D14FF4007201F573
:10890000007112E0B5F5804F04D14FF4007201F50B
:1089100080610AE0A5F50040B0F5005F0AD84FF489
:10892000007205F1006101F58C412046BDE8384038
:10893000FFF7ECBA4FF400712046BDE8344001F077
:1089400033B8F8B501F0C2F800208949425CD2B1D1
:10895000002242548402844D281901F062FB8348AE
:108960002618002736F8021B3819281801F048FB92
:10897000042803D001F0B4F80420F2BDBF1CB7F501
:10898000806FEFD302E0401C1028DFD301F0A8F87D
:108990000020F2BD70B5754C01F098F80025724EBC
:1089A00006EB852001F03DFB6D1C092DF8DB002551
:1089B00034F8021B701901F023FB042801D00420B5
:1089C00070BDAD1CB5F5185FF2DB01F089F8002031
:1089D00070BD2DE9F04142F61804644D6619694FE7
:1089E000327A2AB940023860480278600120307239
:1089F000307A012831D1605978B905F518583968AD
:108A00004046FFF765FF40229821404601F01EFBDB
:108A10004FF4E070605140200CE040229821B8688B
:108A2000401900F5185001F011FB605940386051B1
:108A3000B8684030B8604021012001F0B2FB30211D
:108A4000012001F038FB38684030386078684038E1
:108A500078604D48816840398160786838B96051E4
:108A6000B860386049480321017000203072BDE8C9
:108A7000F0812DE9F04142F61C043C4D6259403230
:108A80006619434F33792BB9400238604802786049
:108A900001203071307901282FD100203D490AE0B2
:108AA0005B1903F5185310F801C083F800C0401C8F
:108AB00063595B1C635163599342F1D3DFF8D8804B
:108AC000B8F800003968411839607A68101A78607F
:108AD000C00507D100206051A1F5007105F51850BF
:108AE000FFF750FE28488168B8F80020891A816095
:108AF0004FF44051022001F0EFFA786800281EBFC1
:108B000022480078042806D100206051012101F09C
:108B1000AFFC00203071BDE8F08110B5FDF7F0FD2D
:108B2000FEF782FDFEF752FDFEF77EFD1B4C012095
:108B30002070FFF728FAFFF757FC00202070FDF7A0
:108B400068FD00220FF2E0010020FCF71BF94FF452
:108B50007A70FEF7A9FEFDF75CFD4FF47A70BDE870
:108B60001040FEF7A1BE000000C00008C8080020A9
:108B7000B0060020000000207006002054080020ED
:108B8000188DDD40CC310020BC3100206431002044
:108B9000D831002004310020663100205008002028
:108BA00053746254656D703D25640000576B5465C5
:108BB0006D703D2564000000536C7054696D653D17
:108BC0002564000052617465645F503D25640000B7
:108BD00054656D705374703D256400004F66665691
:108BE0006F6C743D2564000054656D703D25640014
:108BF00048616E643D2564005A65726F505F416440
:108C00003D256400506F727461626C653D2564009F
:108C1000434F4E4649472020545854004C4F474F2D
:108C2000494E2020424D5000436F6D706C65746555
:108C3000642E0000EB3C904D53444F53352E3000D2
:108C4000020108000200025000F80C0001000100BF
:108C50000000000000000000000029A298E46C4E13
:108C60004F204E414D452020202046415431322096
:108C7000202033C98ED1BCF07B8ED9B800208EC0A5
:108C8000FCBD007C384E247D248BC199E83C0172E8
:108C90001C83EB3A66A11C7C26663B07268A57FCA0
:108CA000750680CA0288560280C31073EB33C98AE6
:108CB000461098F7661603461C13561E03460E13FD
:108CC000D18B7611608946FC8956FEB82000F7E604
:108CD0008B5E0B03C348F7F30146FC114EFE61BFE8
:108CE0000000E8E600723926382D741760B10BBE1B
:108CF000A17DF3A66174324E740983C7203BFB72D9
:108D0000E6EBDCA0FB7DB47D8BF0AC9840740C48A6
:108D10007413B40EBB0700CD10EBEFA0FD7DEBE6A6
:108D2000A0FC7DEBE1CD16CD19268B551A52B00172
:108D3000BB0000E83B0072E85B8A5624BE0B7C8BCC
:108D4000FCC746F03D7DC746F4297D8CD9894EF29B
:108D5000894EF6C606967DCBEA030000200FB6C802
:108D6000668B46F86603461C668BD066C1EA10EB3C
:108D70005E0FB6C84A4A8A460D32E4F7E20346FC63
:108D80001356FEEB4A525006536A016A10918B4605
:108D900018969233D2F7F691F7F64287CAF7761A09
:108DA0008AF28AE8C0CC020ACCB80102807E020EA8
:108DB0007504B4428BF48A5624CD136161720B4062
:108DC000750142035E0B497506F8C341BB000060A4
:108DD000666A00EBB04E544C4452202020202020E4
:108DE0000D0A52656D6F7665206469736B73206F31
:108DF00072206F74686572206D656469612EFF0D65
:108E00000A4469736B206572726F72FF0D0A5072AB
:108E100065737320616E79206B657920746F2072A1
:108E20006573746172740D0A00000000000000ACEC
:108E3000CBD855AAF8FFFFFFFFFF000009490860E3
:108E4000704709490860704708490860704705483D
:108E50004AF6AA210160704702484CF6CC410160F5
:108E600070470000003000400430004008300040EF
:108E70004FF4001C1CEB410F94BF1CEB430F09E0A7
:108E800041EA030C50EA4C0C52EA0C0C03D28B4220
:108E900008BF8242704714BF994290427047000059
:108EA00070B44FF0004591EA030C44BF6B4000F0F2
:108EB00047B900BF841A71EB030603D2001BB1410E
:108EC000121973414FF4001C1CEB410F34BF7CEBB3
:108ED000430443E00C0DA4EB1356352E50DC45EA59
:108EE000C323DB0A45EAC121C912B6F120050DDD15
:108EF00063FA05F6EB4086EA0305124218BF45F017
:108F00000105C01851F100010CD213E062FA06F518
:108F1000F2405540F3415A40B340F3405A40801864
:108F2000594107D349085FEA30005FEA350528BF99
:108F300045F0010501F58011420875F1004250F13C
:108F4000000041EB045170BC4FF4001C1CEB410FBE
:108F500038BF70470020090D090570471CEB410F11
:108F600010D252EA43060BD0BCEB410F05D80C0DD2
:108F7000AB43661E342EB5DD02E0AB438018594189
:108F800070BC704770BC7047B0B581EA030C0CF040
:108F9000004C40F2FF7515EA11541DBF15EA135736
:108FA000AC42AF4239E0E41923EA455343F480135D
:108FB000C90241F0004141EA505EC7021100A7FB1F
:108FC000020200284FF00000EEFB01204FF00001EC
:108FD000E3FB072118BF42F001024018002149417C
:108FE000E3FB0E01A4F580640F0302D2520040415E
:108FF000494154F101046CDD470872F1004250F11F
:10900000000051EB0451A1F580115CBF41EA0C0155
:10901000B0BD4CEA05510020B0BD05EA1357AC4283
:1090200014BFAF4241E050EA410E1CBF52EA430E6A
:1090300002E061460020B0BD24423C441BD15FEAFF
:10904000070EF6D0090302BF01460020AEF1140E50
:10905000B1FA81F7AEEB070401FA07FE0C37C7F14E
:10906000200100FA07F7C8404EEA000E23EA4553F4
:1090700043F48013A2E733F00043B3FA83F704BF4D
:10908000B2FA82FE77440B3FE41BB7F1200E2FBFEC
:1090900002FA0EF3BB40C7F1200E22FA0EFE38BFD3
:1090A00043EA0E03BA40641C82E750EA410E14BF43
:1090B00052EA430E6FF000014FF4001717EB430F15
:1090C0008ABF194617EB410FB5E74CEA055100205E
:1090D000B0BDD4F10104B4F120070FDAC4F12007C8
:1090E000520828BF42F0010210FA07F501FA07F70B
:1090F000E1BF2A43E0403843E1400FE0352C98DCE3
:10910000C7F1200452EA400220FA07F218BF42F0E9
:10911000010231FA07F0A1400A43002172F1004236
:1091200050F1000051EB0C01B0BD000070B44FF0E5
:10913000004591EA030F44BF6B40FFF7BBBE00BF81
:10914000841A71EB030604D26E40001BB141121960
:1091500073414FF4001C1CEB410F34BF7CEB430602
:1091600084E00C0DA4EB1356362E7DDC012E43DC7F
:1091700045EAC32343EA525312BFD20292025B086C
:10918000240545EAC12141EA5051D2EBC020994162
:1091900025D407D1B0FA80F610FA06F164D0002089
:1091A000203608E0B1FA81F6B140C6F1200220FA7B
:1091B00002F21143B0404FEAF474B4EB465434F079
:1091C00001064FEA74040AD8D6F50016760D04F0AD
:1091D0000044F04061FA06F25040F1404840C00AB5
:1091E00040EA415021F0004128BF5FEA500550F1AC
:1091F000000044EBD12137E045EAC323DB0A45EA0E
:10920000C121C90AB6F120050EDD42EA0242120C64
:10921000C5F1200603FA06F6EB4042EA06056D4268
:10922000984161F100010DE062FA06F5F240554007
:1092300063FA06FC82EA0C02F3405A406D42904108
:1092400061EB030111F4801F05D1641E620502D099
:109250006D004041494121F48011430875F10043FC
:1092600050F1000041EB045170BC70471CEB410F02
:1092700015D223F0004352EA43060BD04FEA4C0CC0
:10928000BCEB410F04D80C0D661E342EB7DDEBE7A6
:10929000801A994150EA410608BF0021E4E708BF5F
:1092A0001CEB430F28BF6FF00001DDE74FF4001CFB
:1092B0001CEB410F94BF1CEB430F09E041EA030C88
:1092C00050EA4C0C52EA0C0C03D2994208BF90426F
:1092D000704714BF8B428242704700002DE9F04175
:1092E0000022CC7804F00F03E40644BF8C782343BB
:1092F0000C8801250F26E7B217B3D0F800C005FA95
:1093000002F7BE460EEA0408F04514D14FEA820E79
:1093100006FA0EF82CEA080C03FA0EFE4EEA0C0CC4
:1093200091F803E0BEF1280F08BF476103D0BEF1FA
:10933000480F08BF0761521C082AE0D3C0F800C0DC
:10934000B4F5807F26D3D0F804C0002202F10807CC
:1093500005FA07F7BE460EEA0408F04515D14FEAB4
:10936000820E06FA0EF82CEA080C03FA0EFE4EEAFC
:109370000C0C91F803E0BEF1280F08BF476191F88B
:1093800003E0BEF1480F08BF0761521C082ADDD375
:10939000C0F804C0BDE8F08100228068084218BF10
:1093A000012210467047016170474161704770B5F6
:1093B0001C4A00284CBF94691468C0F3034583B26B
:1093C000460D3601B34000F44016B6F5401F06D1F5
:1093D00024F07064156825F07065156008E0C60219
:1093E00043BF032606FA05F5AC439C4344F0706482
:1093F00001B11C43002801D5946170BD146070BD9B
:1094000030B501F00302920021F00301064BCC5865
:109410000F259540AC43CC50CC5890402043C850C9
:1094200030BD0000040001400800014080B56649DD
:10943000884208D101214FF4007000F002FB0021A6
:109440004FF4007016E06149884208D101214FF4C1
:10945000806000F0F6FA00214FF480600AE05C4979
:1094600088420BD101214FF4004000F0EAFA0021BC
:109470004FF40040BDE8044000F0E3BA01BD42688B
:10948000544B1A400B681A430B7942EA032242609C
:109490008268514B1A40CB681A438B681A434B7948
:1094A00042EA43028260C26A22F47002097C491EC9
:1094B000C9B242EA0151C16270470029816812BFF6
:1094C00041F0010149084900816070470029816825
:1094D00014BF41F4807121F4807181607047C9B27A
:1094E000002A426814BF114322EA0101416070471B
:1094F000816841F00801816070478068C00806E01B
:10950000816841F00401816070478068800800F044
:10951000010070470029816814BF41F4A00121F4C3
:10952000A0018160704770B507240A290BD3A1F10F
:109530000A0505EB4505C668AC4026EA0404AB40C5
:109540002343C36008E001EB41050669AC4026EA0D
:109550000404AB40234303611F23072A0AD2521E8F
:1095600002EB8202446B934024EA030391401943C7
:10957000416370BD0D2A0AD2D21F02EB8202046B36
:10958000934024EA030391401943016370BD0D3AEF
:1095900002EB8202C46A934024EA03039140194318
:1095A000C16270BDC06C80B2704742680B4B1A40FC
:1095B00011434160704741628262704742685209BC
:1095C00051EA4211416070470024014000280140E7
:1095D000003C0140FFFEF0FFFDF7F1FFFFFD3FFF04
:1095E00010B500224368CCB22340006810EA112F66
:1095F0001CBF002B0122104610BD090AC94301609F
:1096000070470000010000BF09D0B0FA80F1884027
:10961000C91CC1F58461090501EBD02140057047E3
:10962000F446400D40EAC120490006D200F00EF891
:10963000004248BF6FF00040604700F007F84FF06D
:10964000004188428CBF08464042604740F00040DD
:10965000490DA1F58061491C05D4D1F11F0154BF0A
:10966000C840C01770474FF0000070473E48008860
:10967000704738B53C4C3D4D287848B101202080DA
:10968000FCF7CCFF606000202870312000F01AF851
:109690006068FCF7C7FF102824BF0020208031BD80
:1096A00038B504460D4600F08AF8322000F0C0F8C4
:1096B000204600F0BDF8284600F0BAF8BDE8314079
:1096C00000F0A0B800B585B08DF800002849097BEE
:1096D0000029034614BF19221D22012100A800F011
:1096E0003CF99DF8000005B000BD80B52048007B26
:1096F000D0B100212120FFF7D3FF40212220FFF726
:10970000CFFF00212320FFF7CBFF7F213020FFF781
:10971000C7FF2A213220FFF7C3FF03213320FFF7C1
:10972000BFFF3721202011E000212A20FFF7B8FFDA
:1097300002210E20FFF7B4FF03212A20FFF7B0FF1C
:1097400000212B20FFF7ACFF01212A20BDE80440B7
:10975000A6E780B50F20FFF7B5FF33280CBF012027
:1097600000200349087301BDF83100203832002081
:1097700070080020002800E0401EFDD1704780B531
:10978000FDF714FFC020ADF8000003208DF80200A3
:109790001C208DF8030000F001F801BD00A9584815
:1097A000FFF79CBD564A012903D101461046FFF739
:1097B000FABD19B901461046FFF7F7BD704780B5ED
:1097C0000121082000F02BF9C020ADF80000142082
:1097D0008DF8030003208DF80200FFF7DFFF00F093
:1097E0000EF800F057F800F058F800F051F800219A
:1097F00000F051F800F04CF800F001F801BD002134
:109800004020CFE780B5FFF7FAFF002100F043F8D2
:1098100000F03EF800F041F800F03AF800F03AF8B5
:1098200000F036F8FFF7EBFF0220BDE80240A1E7A9
:1098300038B50446082508E000F02DF800F028F8B7
:1098400000F02BF800F024F864002846451EC0B252
:1098500030B1FFF7D4FF20064CBF01210021EBE718
:10986000FFF7CDFF00F016F8FF2400F011F800F02C
:1098700043F848B900F011F800F00AF8FFF7BFFF0D
:1098800000F006F8012032BD641EEED1002032BD8A
:1098900002206FE70121802084E70121402081E739
:1098A00070B5044608250026FFF7F4FF0DE0FFF72A
:1098B000A6FFFFF7EDFFFFF7F0FFFFF7E9FF7600E8
:1098C00000F01AF808B146F001062846451EC0B25D
:1098D0000028ECD1FFF793FF002C0CBF01210021E1
:1098E000FFF7D9FFFFF7D4FFFFF7D7FFFFF7D0FF50
:1098F000FFF785FFF0B270BD80210148FFF74CBD36
:10990000000C0140F8B504460D461646002703B189
:109910004027FFF754FF7000C0B2FFF789FF3846B9
:1099200001E014F8010BFFF783FF2846451EC0B283
:109930000028F6D134E038B504460D46FFF73FFF66
:109940006800C0B2FFF774FF0020FFF771FF2046E8
:10995000FFF76EFFBDE8314054E7F8B504460D4609
:1099600016461F46FFF72BFF7600F0B2FFF760FFA9
:109970003846FFF75DFFFFF722FF46F00100C0B257
:10998000FFF756FF03E0FFF78BFF04F8010B2846B3
:10999000451E28B1EDB2002D0CBF00200120F2E7DA
:1099A000BDE8F1402EE700000022FDF76DBC00008D
:1099B0003348016841F0010101604168314A1140BA
:1099C00041600168304A11400160016821F4802142
:1099D0000160416821F4FE0141604FF41F01816084
:1099E00070472A49086070472A490860704728492B
:1099F0000A68920850EA82000860704724480068AC
:109A000000F00C007047244908607047234A002981
:109A1000116814BF084321EA000010607047204A13
:109A20000029116814BF084321EA00001060704744
:109A30001C4A0029116814BF084321EA0000106085
:109A40007047194A0029116814BF084321EA000031
:109A50001060704700214209094B012A08BF1A68AB
:109A600003D0022A0CBF1A6A5A6A012300F01F00B1
:109A700003FA00F0024218BF0121084670470000B7
:109A8000001002400000FFF8FFFFF6FE0000424217
:109A90000410024060004242D800424214100240CA
:109AA000181002401C1002400C100240DFF8D410C5
:109AB0000A6802F0380206E0DFF8C8100A6822F0EF
:109AC00010020A600A68104308607047FFE7DFF879
:109AD000B800DFF8B8100160DFF8B410016070471B
