:020000040800F2
:10800000C87B00209B210108C91F0108CB1F010864
:10801000CD1F0108CF1F0108D11F0108000000007B
:10802000000000000000000000000000D51F010853
:10803000D31F010800000000D71F0108D91F010845
:10804000DB1F0108DD1F0108DF1F0108E11F010818
:10805000E31F0108E51F0108E71F0108E91F0108E8
:10806000EB1F0108ED1F0108EF1F0108F11F0108B8
:10807000F31F0108F51F0108F71F0108F91F010888
:10808000FB1F0108FD1F0108FF1F01080120010857
:1080900005200108092001080B2001080D20010816
:1080A0000F200108112001081320010815200108E4
:1080B00017200108192001081D2001081F200108B0
:1080C000212001082320010825200108272001087C
:1080D000292001082B2001082D2001082F2001084C
:1080E000312001083320010835200108372001081C
:1080F000392001083B2001083D2001083F200108EC
:1081000041200108432001084520010847200108BB
:10811000492001084B2001084D2001084F2001088B
:10812000512001085320010855200108572001085B
:108130002DE9F041002440F22F150FF250060FF206
:10814000540838F8141001F0BCFBA75D0FF254007E
:1081500000EB8403DFF8C40A407AA0420BD101226D
:108160003946284602F0C6F90E230222394628462F
:1081700000F028F804E000223946284602F0BAF957
:10818000641C082CDDDBBDE8F0810000C8AF967DE3
:10819000644B3219E0FFFF07E007FFFF1FF810FCF8
:1081A0001F05E0FF596E0000586E00005472000079
:1081B0004D65000045780000466E0000536E0000DB
:1081C000537400002DE9F84304460D4691461F46BE
:1081D00002F0E6FE43F6E71801F0BEFD7819461EF0
:1081E000B1B2204602F0DCFE01F0B6FD0B2F2CBF31
:1081F00008270627294600F00AF801F0ADFDB1B2C4
:1082000000F005F84046BDE8F24302F0BFBE07FBB0
:10821000094080B202F0C4BE2DE9F04F85B0DFF80E
:10822000FC49607A0FF2BC01415C0FF2C006825D2E
:108230008D18ADB2DFF8E8290FF2B803C35CA2F8DD
:10824000443044320FF2B403C35C5B0093800FF2FE
:10825000B403C05C5080481C4001D0804FF6FF78CA
:1082600043F6E71A5146404601F07CFE01F0B8FEA5
:10827000607A865D0FF2940928E05146404601F08D
:1082800071FE0027A81B00EB0010A0F10A0B01A84B
:10829000002100220B460EC00A2202FB069101A813
:1082A00002F08EFE01AB3A461FFA8BF1042001F07A
:1082B0000AFF01A802F0D0FE0A210091C3B21FFA02
:1082C0008BF20421002001F040FF761CAE4205DA5B
:1082D000607A005D8642D0D10127D3E702F05CF9D5
:1082E00001F043BC070606070307030500070D134B
:1082F0001A1D2427DCDCDCE6DCDCDCDC4646431E25
:108300003E130B034646462C46464646205920520D
:10831000616E6765732020436F75706C696E6720AE
:108320002050726F6265417474202059204F666638
:108330007365742020437572736F72563120204329
:108340007572736F7256322020486964655F566E8D
:108350005F202054696D6542617365202056696510
:1083600077506F73692020536D706C44707468206F
:1083700020437572736F7254312020437572736F8E
:108380007254322020486964655F546E5F20205328
:10839000796E634D6F64652020547269674D6F6418
:1083A0006520204175746F204669742020546872DE
:1083B0006573686F6C202053656E736974697620ED
:1083C00020486964652D54726920204672657120C9
:1083D0000000000020447574792000000000205641
:1083E000726D732000000000205661766720000047
:1083F00000002056702D70200000000020566D6196
:1084000078200000000020566D696E2000000000FA
:1084100020457874205265666E202045787420507F
:108420006F73692020457874204869646520205363
:1084300061766520426D702020536176652044612D
:108440007420205361766520427566202053617642
:10845000652043737620205361766520537667202C
:10846000204C6F61642044617420204C6F61642053
:1084700042756620204F7574205470796520204F16
:108480007574204672657120204F75742044757490
:10849000792020422D4C6967687420202041757432
:1084A0006F2043616C2020526573746F72652020C9
:1084B000205374616E646279202020506F7765725A
:1084C0004F66662020426174746572792000000056
:1084D0002DE9F04F87B0DFF84C67B6F90400B6F924
:1084E00014100A2202FB0107BFB2DFF83007407AFE
:1084F000DFF82817405C039006EBC00001904FF0B6
:108500000609B0F90400039956F8311009FB001070
:108510000290DFF814070178012940F0C58200219C
:108520000170DFF8F806C07806EBC000817941F0F1
:1085300020018171DFF8E846B4F9080020F001025B
:1085400040F00100ADF80000B4F9003006F5B47A4F
:10855000DFF8D8B64FF61F0040F21F51DFF8D056B3
:1085600043F6E718DDF80CE0BEF12B0F00F296821F
:10857000DFE81EF064006400640088009100910050
:10858000CA00DF00ED00F80013011301620177015A
:108590008901C801D8018901D8019402940294028A
:1085A0009402940294029402E701E001E7012C0096
:1085B0002C002C002C002C002C002C000702140294
:1085C000260248025D02650275027C024FF61041E8
:1085D00000F050FB01988188C9B2504602F06FFE4E
:1085E0000398DFF8501631F8107000F030FBF91ED8
:1085F00089B200F0F3FA0398C0B222282CBFDFF84A
:108600003836DFF838362A780321384601F004FE80
:1086100053462A78032107F1180080B201F0FCFDCF
:108620000398014656F8311009FB0010A0F1AE0383
:108630002A78032107F12A0080B22DE200F018FB0E
:108640002A2000F0CEFA2C2100F0C8FA306809FB8D
:1086500007032A78E1212F2001F0DEFDB6F90C0096
:10866000B16809FB00132A78E121472001F0D4FD0D
:10867000B6F91400002814BFE0A3E1A31022E12101
:1086800020204CE12878002814BF43F0010023F09B
:108690000100208002E20398C0B204280CBF05202C
:1086A000062034F910202B78002B14BF42F0010172
:1086B00022F0010124F81010B4F91E00B4F92010C2
:1086C000401A00EBD07046104FEAE67900F042FA0B
:1086D000CDE9040101200290032000F088FA02FB9A
:1086E0000911DDE90469A6FB002306FB013309FB40
:1086F000003300F0BCFF00F0BBFA00F0AFFA00F06E
:108700005FFADFF8F83C90E0B4F90A002978002914
:1087100014BF40F0010020F001006081B4F90C00AA
:108720002978002914BF40F0010020F00100A08149
:10873000B4E140F2FF7100F09DFA01F039FA00F067
:108740004DFA00F05DFF2A78E1217020A4E1B4F930
:108750000E002978002914BF40F0010020F001002C
:10876000E0819BE140F2FF7100F084FA00F06FFAC3
:10877000F52100F033FADFF8883C2A780321F8204D
:1087800001F04AFDB6F94C00DFF8781C09FB001334
:108790002A7803214FF497707EE10398C0B20A282B
:1087A0000CBF0820092034F910202B78002B14BFAF
:1087B00042F0010122F0010124F81010B4F9260062
:1087C000B4F92410401AC117CDE9040101F0D7F91A
:1087D000CDE90001DDE9040100F00CFF06460B467F
:1087E000A2FB060102FB0311DDE90023A2FB0069E5
:1087F00002FB019903FB00990FF68C40B9F1000FC1
:10880000ACBF012100210291032101910090324669
:108810004B4600F02CFF40F2FF7100F02BFA00F005
:108820001DFA00F0CDF9DFF8603D00F0B2F95346D3
:108830002A78032119202FE1B4F9100029780029A2
:1088400014BF40F0010020F001002082B4F91200B2
:108850002978002914BF40F0010020F00100608257
:108860001CE1EE48807AC007FAD44FF4FC6100F0B6
:1088700001FA01F01BF800F0B1F9029B2A78E1211E
:1088800040F2211008E14FF4FC6100F0F3F93020D0
:1088900000F0A7F9DA2100F0A1F9B6F97400002878
:1088A00014BFCCA3CCA300F085F900F071FEB6F99B
:1088B0008C604FEAE67800F04DF9CDE90401012023
:1088C0000290022000F093F902FB0811DDE9048711
:1088D000A8FB002308FB013307FB003300F0C7FEB1
:1088E000DFF8DC3D2A78E121F02001F095FCC5A3FA
:1088F00000F060F9E72002F01BF853462A78E121E6
:10890000F020C9E04FF4FC6100F0B4F9B6F97C0046
:10891000002814BFBCA33AA31022E121CF2002F00B
:1089200007F8BBE0287800280EBF2281BDF80000C0
:108930002081B3E0B4F902002978F1B140F00100E0
:108940001DE0014600F096F91E20019001200090E4
:108950000B23E122A52100F041F9B6F9E40000283B
:108960001ABFB6F9D40009FB00B30BF124032A782F
:10897000E121A82001F050FC608820F00100608017
:108980008CE000F077F900F069F900F007F900F0E9
:10899000F9F8B6F924010FF218110BE000F06AF9AA
:1089A00000F05CF900F0FAF800F0ECF8B6F92C01F0
:1089B0000FF2141109FB00132A7803211F206BE02A
:1089C00000F058F90120029002200190D6F8300101
:1089D0000090B6F9340100F033F900F03FF90FF2DE
:1089E000481300F0DDF889A32A7803212B2001F039
:1089F00013FC53462A7803212B204DE04100000050
:108A00004200000000F034F90120029002200190A1
:108A10000FF21C100090B6F93C0100F011F900F0C3
:108A20001DF90FF2101300F0BBF8534631E028781F
:108A3000002814BF43F0040023F00400208000F05D
:108A400017F900F00BF90FF2F80300F0A9F870A382
:108A5000287800F11002D2B203212F201CE000F090
:108A600007F900F07CF8B6F9542105E000F000F9B0
:108A700000F075F8B6F95C21D31700F0F8FD00F0AE
:108A8000EDF864A300F08CF8534600F082F80FF282
:108A9000BC032A780321252001F0BEFB0398C0B255
:108AA00003281CBF0220208007B0BDE8F08F000023
:108AB00053515520200053494E2020005452492044
:108AC00020005341572020003130487A00003230D6
:108AD000487A00003530487A0000313030487A005A
:108AE000323030487A00353030487A00314B487A9D
:108AF0002000324B487A0000354B487A0000313074
:108B00004B487A0032304B487A0035304B487A0077
:108B10002E314D487A002E324D487A002E354D4880
:108B20007A00314D487A0000447574793A2000008B
:108B30002500000020424C3A202020202000000088
:108B400050726573733A2020200000006D696E201A
:108B500000000000DFF8740D385C02F099BA0120C3
:108B60000290022001900FF2080000907047000070
:108B70002020000000002020000000002020000035
:108B800000000000DFF8383B2A7803211F2001F0A5
:108B900043BB2A7803210D2001F03EBB0FF20C03EA
:108BA0002A780321072001F037BB0000464F3A2006
:108BB00000000000287800F11002D2B2E1217047D5
:108BC00015A3287800F11002D2B20321072001F08A
:108BD00023BB00004400000043000000287801F09F
:108BE000DEBD0190002000900B23E1227047019030
:108BF000DFF8E00C0090DFF8800D3A5CA2FB060184
:108C000070470000450000004600000020202000C2
:108C10007B7C0000200000005D000000FC0F0020B5
:108C2000C4090020180A0020BA0F0020C8950008C7
:108C3000B90F00206097000838940008849D000850
:108C40000A2101FB00F2D317504602F034BA422049
:108C50000190002000900B230322704736200190E2
:108C6000002000900B2303220421287801F097BDF7
:108C70004FF6E071404601F07CB900002DE9F04F5D
:108C80008BB0DFF8F80C007800B10120DFF8F01CA1
:108C900009784018DFF8EC1C096831F910008000F1
:108CA000DFF8E41C0978DFF8E42C895C90FBF1F034
:108CB0000490DFF8DC0C0068DFF8D81C096808189D
:108CC00080B20690DFF8D06CB088B18A0A2202FB2D
:108CD0000100C0B205900027DFF8C05CDFF8C00CCF
:108CE000408806F5B47A11E0DFF8B40C4088132F01
:108CF0000CD10B2809D30020DFF8A41C097841F01F
:108D00002001DFF89C2C117000E0401CDFF8901C63
:108D1000488006EBC704A079810640F1618300F02A
:108D2000DF00A071B6F92C01B6F924112C2F3AD826
:108D3000DFE817F03A003A003A003A003A003A0009
:108D40003A002B022B022B022B022B022B02D80102
:108D5000D801D801D801D801D801A102BA02C602AF
:108D6000F802D90206031C03A901A901C2013601B8
:108D700036013601360136013601360167016901D7
:108D8000A4012D003503350335033503DF00DFF87B
:108D9000100C4078002806D1B6F93C010A2148435E
:108DA000DFF8001C0860FAE24FF6E07100F089FD80
:108DB000002F1CBF012F022F14D100F00BFF0598CC
:108DC0000621326800F017FFB6F90C000621B268E0
:108DD00000F00AFFB6F91400002814BFA6A3DCA314
:108DE00000F0D9FEB08B401C4000A88200B2B6F95A
:108DF0008410491C00EB4100A883B08C401C40004B
:108E0000E883B18D491C49002984B6F9342002B1A8
:108E100002226A81AA8100B209B2441A0598DFF8D9
:108E2000AC1A405C8DF80C0002F032F9059ADFF8BC
:108E3000483BD25C0023CDE90823012202920322A1
:108E40000192DFF8902A009204EBD47254104FEA9A
:108E5000E47B00F0FEFB00F016FC00F0E6FB0FF2F6
:108E6000A85300F02FFC00F024FC00F01CFC00F0E4
:108E700026FDB6F98C404FEAE47B9DF80C0002F029
:108E800007F900F0BFFE00F0E4FB00F0C3FE53461C
:108E900000F0C2FE00F084FEB6F90400DFF8E81A24
:108EA0000870C1B2022908D3DFF8D41A01220A706F
:108EB000C0B2062805D3042004E0DFF8C40A00216C
:108EC00001700020DFF8B41A0870B6F90C00002811
:108ED00014BF0020022000F04BFEDFF8A01A097832
:108EE00009180A2002F0FCFBB08BC0B202F0DAFFD6
:108EF00055E202F07CFA50B102F081FA4FF6E071CF
:108F000000F0DFFC00F0B6FB0FF2215344E002F06A
:108F100076FA0446002140F63D70894209DB01DC07
:108F2000844206D300F0CBFC00F0A4FB0FF2F84320
:108F300032E040F67560894209DB01DC844206D3E9
:108F400000F0BDFC00F096FB0FF2D74324E040F6A2
:108F50004950894209DB01DC844206D300F0AFFCB2
:108F600000F088FB0FF2B64316E040F6E540894278
:108F70000BDB01DC844208D340F2FF7100F0A1FC5E
:108F800000F078FB0FF2914306E01F2100F099FCFE
:108F900000F070FB0FF27C431122E12108209EE0DB
:108FA0004FF6104100F08DFCA188C9B2504602F086
:108FB00086F90FF2AC7030F81740FFF748FE00F06A
:108FC0003AFB222FACBF0FF27043DFF8E03B0122E7
:108FD0000321204601F020F953460122032104F128
:108FE000180080B201F018F9062056F8371000FB7F
:108FF0000710A0F1AE030122032104F12A0080B280
:109000006DE009B10BE051B900F08AFAB6F82C0115
:10901000C0B202F09CF902F085F9042128E00A2888
:10902000A4BF0920A6F82C0100F07AFAB6F92C01A9
:109030000FF20C4131F81000401EDFF8B01C088020
:10904000B6F92C010FF2104131F81000411E022038
:1090500002F046FBB421032002F042FBB6F82401E3
:10906000C0B202F026FB0146042002F039FB0221C7
:1090700000F057FA93E100BF41000000002901D140
:1090800002F050F98BE14FF61F0100F01AFC1A2F85
:1090900018BF1B2F05D100F0D3FA00F083FA01F0BE
:1090A000BBF8B6F9D4000628B4BFB6F8DC00B08B24
:1090B000401C4000E88272E1B5F90200B6F9E41004
:1090C00000290CBF40F0040020F0040068804FF637
:1090D0001F0100F0F6FB00F0B3FA00F063FA01F0B4
:1090E0009BF85CE100F0BCFB00F0E9FB0E2F18BF21
:1090F000112F09D100F064FDB6F97400002814BFE7
:10910000BBA3BCA300F042FA0F2F11D1B6F97C002B
:10911000002814BFB8A30EA300F038FDB6F97C00F8
:109120000028DFF8D80B14BF4FF49671002101809E
:10913000B5F91400B6F9841000EB4100A883B6F924
:109140008C404FEAE47B0598DFF8801702E000BF0F
:109150004200000000F017FD00F054FD059ADFF812
:109160001838D25CA2FB048902FB0B9900F079FA53
:1091700000F016FD00F04EFD534600F04DFDB6F92F
:10918000940000B10220288109E140F2FF7100F053
:1091900098FB072F12D10FF2C85030F817401E204D
:1091A0000190022000900B23E12200F044FA00F02D
:1091B00027FA0122E121204601F02EF8092F12D1D1
:1091C00000F09FFB0FF6C43300F0A5FBB6F94C008E
:1091D00006210FF29C2201FB0023012203214FF400
:1091E000977001F019F800F01CFDDFF8B407B0F932
:1091F0000400801CB6F84410401A6884E88920F006
:109200000100E881288A20F001002882B6F8540085
:10921000401CA884B6F85C10491CE984B6F96420A7
:1092200002B102222A826A8209B200B20C1A4FEA03
:10923000E47B00F0A4FC01220292032201920FF2CF
:109240004822009200F0D6F9A2FB048902FB0B9998
:1092500000F007FA00F017FA00F0E7F90FF63833DC
:1092600000F030FA00F025FA00F01DFAB08FC0B21D
:1092700002F07FF893E000F0CAF9B8BFDFF8848A03
:1092800003DB122C03DA4FF47A7800F084F900F053
:109290000DF903F0FDFA00F03BF903F0F9FA03468B
:1092A00001220121132078E0DFF8E4060068642140
:1092B0004843069990FBF1F30122C9B214206CE0F7
:1092C000DFF8440A006803F05BFB00F0E6F903F006
:1092D0006DFB3ED300F033F9DFF82C0A00680499E7
:1092E000484300133BE0DFF8240A006803F048FB22
:1092F00021F000410022DFF8183A03F057FB28D391
:1093000000F02EF9805EA0F5006004994843001338
:10931000DFF8001A895EA1F50061049A5143A0EBC1
:1093200021301CE0DFF8F00900F0EEF800F0B5F9AC
:1093300003F03CFB0DD300F002F9DFF8DC090CE090
:10934000DFF8D80900F0E0F800F0A7F903F02EFBF1
:1093500001D2002405E000F003F900F0E5F800F088
:109360009FF8234601220121F8B216E0DFF8A40994
:1093700000F0CAF800F091F903F018FB38BF0024A0
:1093800007D300F0DCF8DFF88C0900F0CDF800F02E
:1093900087F8234600220121192000F098F9DFF810
:1093A00000060078E0B1DFF8F8050021017000F058
:1093B0002EF9B8BFDFF84C8903DB122C03DA4FF427
:1093C0007A7800F0E8F800F071F803F061FA00F044
:1093D0009FF803F05DFA02460121012000F0EEF94A
:1093E0007F1C2D2FFFF680AC0BB0BDE8F08F000086
:1093F00044000000430000004600000008940008FC
:109400008C9D000870940008563A202020202020CF
:10941000000000003B3C3D00003B3C3D00003B2683
:109420004000003B2A4000003E6040000022232410
:1094300000002223240000004C6F61640000000043
:10944000040002000200020002000200020002000A
:10945000020002000200000010271027A00FD00712
:10946000E8039001C8006400280014000A0000000E
:10947000314B00000000324B00000000344B000074
:109480000000384B000000007553000000007553C9
:10949000000000006D530000000053200000000099
:1094A0002822A2FB0489A8FB004B70470FF2080298
:1094B00052F8242000237047190000001900000012
:1094C000190000001900000019000000320000001F
:1094D00064000000C8000000F4010000010000006A
:1094E00002000000050000000A0000001400000057
:1094F0003200000064000000C8000000F401000019
:109500000100000002000000B0F9000003F038BACA
:10951000B6F94C200FF6380333F8122000237047B9
:109520000021012002F0DCB8805EA0F50060049903
:10953000484300136430B6F91C10401A7047B6F95E
:109540000400B6F9141031B1DFF8541401EBC00077
:10955000D0E9024070470FF6C40151F8204070472F
:10956000B6F90400B6F9141031B1DFF8341401EB88
:10957000C000D0E9024003E00FF6A00151F82040FE
:10958000DFF8980770470000989D00081122E1213C
:10959000DD2001F0CDB9A8FB002308FB0133104604
:1095A00019467047B6F9E40038B1B6F9D40006217F
:1095B0000FF2140201FB002301E00FF2300301223D
:1095C000E121A820704700004461746120002D440F
:1095D00061746100496E702B4400442D496E700027
:1095E000496E702D44002D496E70200048696465F5
:1095F00020000000B6F93C200FF2E473D25C704703
:10960000B6F93C000FF63C0101EBC0037047DFF8F0
:109610001007008846F2A811484300EBD0704010B4
:10962000C117B6F93C40092C7047A9A311220321A8
:10963000072000F0F1BDE11E89B2012001F0AFB8B2
:109640001E200190012000900B23E122A52101F0B2
:10965000A6B8DDE90823A2FB048902FB0B9903FBF2
:109660000499A0FB082300FB093301FB0833504693
:1096700001F021BD12200190012000900B23E12276
:10968000052101F08CB836200190002000900B23BA
:1096900003220421012001F082B821F000410022C0
:1096A000DFF880367047534601220321192000F06D
:1096B000B3BDB0A301220321312000F0ADBD0000F5
:1096C000A49D0008012203210D2000F0A5BD2DE975
:1096D000FE4381460D4617461C464FF6FF7100F0CB
:1096E000F0F80FF27C0030F819604820FFF7B0FA6C
:1096F000F11EFFF7A1FF06200FF2381100FB091041
:10970000A0F1720301220321304600F085FDA2483A
:1097100000F5B47802970321019150F839000090C8
:109720002246E317404601F0C6FC06F1180065B179
:109730000FF278630122032180B200F06DFD4346F1
:109740000122032106F11E0003E00FF26C630122E7
:10975000032180B203B0BDE8F04300F05DBD00001E
:109760002F0047002000780007000700000070006D
:109770006400F8000700070000002101DD00CF00B1
:109780000000E7000000A200A200A200A200A200C8
:10979000A200A200A8000000A800F800F800F8004D
:1097A000F800F800F800F8000700070007000700BD
:1097B000070007000700070008000000FEB5054687
:1097C0000F4614464FF6FF7100F07BF84820FFF774
:1097D0003FFA4921012000F0E2FF0FF25803012275
:1097E00003214C2000F018FD6B4800F5B476029779
:1097F00003210191D0F8980000902246E3173046EB
:1098000001F059FC5DB10FF2A45301220321642041
:1098100000F002FD3346012203216A2004E00FF22A
:10982000A45301220321642003B0BDE8F04000F0FE
:10983000F3BC000046726571000044757479000045
:1098400056726D73000056617667000056705F7047
:109850000000566D61780000566D696E00000000D2
:109860001CB5DFF8C444A07AC0074CBF1F214FF4D9
:10987000FC6100F026F8A07AC00748BF0FF27C64B4
:1098800006D44548B0F96C100622806E02FB010434
:1098900000F00CF800F083FF23460122E12140F2A2
:1098A000211002B0BDE8104000F0B6BC18200190B5
:1098B000012000900B23E1224FF48F7170474FF489
:1098C000FC6143F6E71000F054BB0000089E00085E
:1098D0005D000000E49E00081CB504464FF61041F0
:1098E000FFF7EFFF00F00DF80E200FF2306100FBE4
:1098F000041300F010F84FF4FA60BDE8164001F0D0
:1099000009BD42200190002000900B230322F52185
:10991000012000F044BF01220321F82000F07CBCAC
:1099200030B583B04FF61041FFF7CBFFDFF8FC43B3
:1099300004F5B475B4F8EC10C9B2284601F0BFFCC8
:10994000FFF7DFFF0FF23C43FFF7E5FF2B46012255
:1099500003214FF4887000F05FFCD4F8E830012256
:1099600003214FF4917003B0BDE8304000F054BCC7
:109970000000000020200000CC9D0008A80E002060
:10998000AA0E0020DC0E0020A90E002040C800080E
:10999000CC0E0020C80E0020180A0020C4090020A8
:1099A000500E0020400800402DE9F04F85B0DF4CFC
:1099B000A088A18A0A2202FB0100C0B20390002005
:1099C00004EBC0018A7942F020028A71401C2D28E4
:1099D000F6DB0025D64F04F5B47A04EBC500817997
:1099E0008A060AD501F0DF018171032D06D9E81F2F
:1099F00000F09F80801F05284DD9B2E04FF6E0713E
:109A0000FFF75FFF002D1CBF012D022D14D100F0C8
:109A1000E1F803980621226800F0EDF8B4F90C0093
:109A20000621A26800F0E0F8B4F91400002814BF81
:109A3000ACA3ADA300F0AFF8A08B401C4000B882EF
:109A400000B2B4F98410491C00EB4100B883B4F9AA
:109A50000400C1B206292CBF04210021B54A1170AF
:109A6000B5490870C0B202288941C943C90FB3483B
:109A70000170B4F90C00002814BF0020022000F08F
:109A800077F8117809180A2001F02AFEA08BC0B2DD
:109A900002F008FA65E0FFF7E3FEFFF710FF0E2D76
:109AA00018BF112D09D100F08BF8B4F9740000280B
:109AB00014BF8FA38FA3FFF769FD0F2D10D1B4F949
:109AC0007C00002814BF8CA387A300F05FF8B4F9D2
:109AD0007C000028894814BF4FF496710021018052
:109AE000B7F91400B4F9841000EB4100B883B4F95D
:109AF0008C604FEAE67B03980FF20C3100F043F8DC
:109B000000F080F8039A0FF2C423D25CA2FB06890E
:109B100002FB0B99FFF7A5FD00F042F800F07AF880
:109B2000534600F079F8B4F9940000B1022038816E
:109B300017E040F2FF71FFF7C4FE00F039F8012092
:109B400000F02DFEB4F93C000FF2F82101EBC00348
:109B50000122E121702000F05FFBA08FC0B201F074
:109B600008FC6D1C2D2DFFF638AF05B0BDE8F08F59
:109B70007349087071480078097808187047B6F979
:109B80003C000FF27021405C01F082BA1022E1210A
:109B9000CF2000F0CDBE1022E121202000F0C8BE71
:109BA00057A31122E121E72000F0C2BE849D0008E6
:109BB0001E200190022000900B23E1226D217047AE
:109BC00030200190002000900B23E122DA210120B7
:109BD00000F0E5BD2A200190002000900B23E12237
:109BE0002C21012000F0DBBD01FB00230122E1213B
:109BF000472000F011BB01FB00230122E1212F20AF
:109C000000F00ABB01220292022201920FF2D4223A
:109C1000009270470FF28C130122E121F02000F036
:109C2000FBBA2DE9F047414CB4F94C000FF220117A
:109C300031F81000434991FBF0FA1FFA8AFA3A4FC3
:109C4000797A01294CD143F6E7183F490978890709
:109C500040D5012139724FF49679B4F9441009FBCB
:109C600001F191FBF0F0861C02250F21A8B201F052
:109C700097F96D1C00F070F81F2001F087F91F2084
:109C800001F084F900F068F8B9F10109EDD1787AB2
:109C9000012804BF787809280AD12C4801780629C0
:109CA0001CBF0078052803D10020A4F84400022638
:109CB0000024A4B2544513DA0F21B0B201F070F9B8
:109CC000761C04274FF4FC6001F060F97F1EF9D187
:109CD000641CEEE7002038724046BDE8F0473EE0E5
:109CE000BDE8F08741000000420000002814004059
:109CF000440000004300000046000000BE0F0020AA
:109D00004500000040420F00C00E0020C40E00209D
:109D100000001C40B00E0020B40E0020AE0E00204B
:109D2000D00E002000001040FC0F0020180A002078
:109D3000C4090020A80E0020A90E0020AA0E0020B1
:109D4000C3750020905F0100CE0F0020B80F0020E7
:109D50000004000800100020404601F017B9F8B5D3
:109D6000044602254FF496760E21A8B201F018F9A8
:109D70006D1C0627204601F009F97F1EFAD1761ED8
:109D8000F2D1F1BD5361766500000000536D706C37
:109D9000447074683A202000543A2020202020206B
:109DA0000000000020202020200000003A20202079
:109DB00020202020000000003A202D2D2D2D2D20C8
:109DC000000000003A202D2D2D2D20000408020453
:109DD0000802040802040408020408020408020439
:109DE0000408020408020408020408020408020429
:109DF000080204080101020202030303040404052B
:109E00000505060606070707020203030304040408
:109E10000505030304040405050506060A00000001
:109E2000140000003200000064000000C8000000C0
:109E3000F4010000E8030000D007000088130000D0
:109E400010270000312E307553000000322E30757F
:109E500053000000352E307553000000313075532B
:109E6000200000003230755320000000353075535B
:109E700020000000302E316D53000000302E326D76
:109E800053000000302E356D53000000312E306D30
:109E900053000000322E306D53000000352E306D1F
:109EA0005300000031306D532000000032306D53FC
:109EB0002000000035306D5320000000302E31535B
:109EC00020000000302E325320000000302E355389
:109ED00020000000312E305320000000322E30537D
:109EE000200000007556000000006D5600000000C4
:109EF0005620000000006B560000000053544F50E5
:109F000000005343414E00004155544F00004E4F56
:109F1000524D0000534E474C0000000046696C65EE
:109F200020522F57204F4B00000046696C65205689
:109F300065722045720000004E6F7420466F756E8A
:109F400064212000000046696C6520522F5720458F
:109F5000720000004469736B204275737921200000
:109F600000000000DFF8D82AA2F8120AA2F8141A9A
:109F70007047DFF8D02A9080D180704770B5DFF845
:109F8000C81A0B88DFF8B82AB2F90A4A93FBF4F52D
:109F900004FB15330B804B8802F60A24B4F9044005
:109FA00093FBF4F504FB15334B804B880D88261189
:109FB00004EBD66464111E0904FB0564A4B203F02B
:109FC0000F0502EB44020124AC400028B2F88403E0
:109FD00014BF2043A043A2F88403581C488070BDDE
:109FE0002DE9F047DFF8586A4FF4C86106F5617053
:109FF00002F0F4FCDFF8505A00202880032068802B
:10A000004FF0000806F60A20B0F9044003E000F023
:10A0100058F808F1010804EBD4704710A7F1060ABC
:10A020001FFA88F8D045F2DB0120288000F047F8BD
:10A0300001202880FC1E6C80FFF7A0FF02202880F2
:10A0400001206880FFF79AFF02202880A7F102090B
:10A05000A5F8029000F035F803202880B6F90A6AC6
:10A0600008E0002000F02CF8781E00F029F828887D
:10A07000401C28802888B11E8842F2DBF71E2F8002
:10A0800001206880FFF77AFF2F80A5F8029000F08A
:10A0900018F8B71E2F8000F012F82F806C8000F0A7
:10A0A00010F8701E288003206880002502E000F070
:10A0B00008F86D1CADB25545F9DBBDE8F08702200C
:10A0C000688001205AE72DE9F84F14469946DFF8D9
:10A0D0007869308071800FF2E81A99F8000090B327
:10A0E00019F8018B0025E00604D42946404600F00B
:10A0F00022FA05E0062000FB0850504410F8C60C78
:10A10000A10606D5E9074CBF4AF6AA2145F25551EA
:10A110000840800087B24FF00E0BF80704F00100F2
:10A1200048BF80F00100FFF729FF7F08BBF1010B5A
:10A13000F3D13088401C308070880E3870806D1CE0
:10A14000062DCAD2CFE7BDE8F18F2DE9F8430D46C1
:10A150001446994608990E1DDFF8EC783D807C8006
:10A1600000F001084046FFF709FF3D80F1B20819F1
:10A17000461E7E804046FFF701FF062000FB095087
:10A18000451E3D807C804046FFF7F8FE3D807E8086
:10A190004046BDE8F243F1E62DE9F0470446894622
:10A1A0000026DFF8A0780FF6EC08E00602D500F0F4
:10A1B0002BF804E03146484600F0F4FE0546A006C0
:10A1C00006D5F0074CBF4AF6AA2045F25550054087
:10A1D00000F044FC4FF00E0A00F03CFC03D5E2070F
:10A1E00004D5084602E0E20758BF084600F0CEFE5C
:10A1F0006D08BAF1010AEFD13888401C3880761C0E
:10A20000082ED2D3BDE8F08706EBC90008EB40006A
:10A21000A0F58060058870472DE9F84F14469946EF
:10A2200000F083F90FF2980A99F80000002843D053
:10A2300019F8018B0025E00605D42946404600F0B8
:10A240007AF9074605E0062000FB0850504410F854
:10A25000C67CA00606D5E8074CBF4AF6AA2045F200
:10A26000555007407188308800F09AFEE0074CBFD7
:10A27000F088B08800F08AFE7088411C89B230886E
:10A2800000F08EFE4FF00A0BF088B188FA0703D574
:10A29000E20704D5084602E0E20758BF084600F08E
:10A2A00075FE7F08BBF1010BEED13088401C308079
:10A2B0006D1C062DB8D2BEE7BDE8F18F000000008E
:10A2C0000000FAFA0000183838101030509098D476
:10A2D000D21217131038301000666C18366682825E
:10A2E0008282BABA00113376DC98007E81FFB19980
:10A2F000B1FF817E000082BABABABABA0010107CEF
:10A3000010100000010706000010101010100000CF
:10A310000006060000060C183060007CFE82FE7C01
:10A32000000042FEFE020046CE9AF2660044C6924B
:10A33000FE6C00182848FEFE00E2A2A2BE9C007C33
:10A34000FEA2BE1C00808EBEF0C0006CFE92FE6CB1
:10A350000070FA8AFE7C0000002424000038EE829F
:10A36000828282828282828282828282FE0000389F
:10A37000EE82BABA0040CA9AF060BABABA82FE0057
:10A38000003E7EC87E3E00FEFE92FE6C007CFE8299
:10A39000C64400FEFE82FE7C00FEFE92929200FE0B
:10A3A000FE909090007CFE82925C00FEFE10FEFE0D
:10A3B0000082FEFE8200000482FEFC8000FEFE3869
:10A3C000EEC600FEFE02020200FE703C70FE00FEC1
:10A3D000FE7038FE007CFE82FE7C00FEFE888870E7
:10A3E0000078FC86FE7A00FEFE98FC660064F69219
:10A3F000DE4C8080FEFE808000FCFE02FEFC00F849
:10A40000FC06FCF800FE1C781CFE00C6EE38EEC60A
:10A4100000E0F21EF2E000C68E9AF2E6007E81A510
:10A42000F3D3CFA5817E0000000C1C3C1C0C005017
:10A43000487E0A120048507E120ABABABABABABAAC
:10A4400000042E2A2A1E007E7E121E0C001C3E22B4
:10A450002222000C1E127E7E001C3E2A3A1800109A
:10A460003E7E5050001A3D253F1E007E7E101E0E7F
:10A470000000125E5E02000001015F5E007E7E0849
:10A480001C3600FCFE020200003E301E303E003E44
:10A490003E203E1E001C3E223E1C003F3F243C1836
:10A4A00000183C243F3F003E3E10202000143A2A72
:10A4B0002E0400207C7E2202003C3E023E3E0038FC
:10A4C0003C063C38003E0C180C3E0022361C36225E
:10A4D0000000FEFE603E3E60FEFE00000000FE7CCE
:10A4E000381000FE00FE0000001C3E6301F901630D
:10A4F0003E1C0000F8B514461D4600F016F80E2765
:10A50000E0074CBFF088B08800F040FD7F1EF7D117
:10A510003088401C308004E015F8011B2046FFF70E
:10A520003BFE28780028F7D1F1BDDFF818653080B0
:10A53000718000F035BDA0F12102D2B25E2A38BF91
:10A54000062908D2062202FB00100FF248714018BB
:10A5500010F8C60C704700207047A0F12102D2B25B
:10A560005E2A38BF0A290AD20A2202FB00100FF223
:10A57000140101EB4000A0F5257000887047002011
:10A580007047000000000000000000000000000014
:10A590000000000000000000DFF8B004017841F086
:10A5A00002010170DFF8980400210CE0DFF89C0440
:10A5B000017801F0F9010170080748BF00F006B802
:10A5C000DFF87C040121A0F8101A704738B5DFF8D5
:10A5D000705405F60824282060806020E08040F256
:10A5E0001F510020FFF7BEFCFFF7FAFC0FF2744387
:10A5F00000221A210820FFF766FD0FF270430022A7
:10A600000A210820FFF75FFD00202081B5F9081A14
:10A61000DFF83C04042905DBB4F902205218B2F536
:10A62000967F03DDB0F90020524202800288511863
:10A63000A5F8081AB4F90410072905DBB4F90620B7
:10A640005218B2F5C97F03DBB0F9022052424280B2
:10A6500040884018A08031BD38B500F053F8802103
:10A6600069806021E980502100F02BF8FFF7B8FCE9
:10A67000234600221C210820FFF725FDB4A3112248
:10A6800008210C20FFF71FFD00F082F80C2100F0DC
:10A6900084F80FF2E033002208211820FFF713FDA1
:10A6A000ACA3112208214820FFF70DFD00F070F83F
:10A6B000482100F072F80FF2C43300220821542020
:10A6C0001BE0A0F8081AC820A88043F6E7114FF64F
:10A6D000FF7047E438B500F015F8C82169804021C3
:10A6E000E9803221A0F8081AE620FFF7EDFFFFF716
:10A6F00077FC234600220A211020FFF7E4FC00200B
:10A70000288131BD0446D148017841F0040101702F
:10A71000CB4800F60825704738B5FFF7F3FFD02186
:10A7200069806021E9801E21FFF7CBFFFFF758FC0D
:10A730000FF2503300221C210620FFF7C4FC2346F1
:10A7400000221C215A20FFF7BEFC81A31122082100
:10A750001E20FFF7B8FC00F01BF81E2100F01DF8CA
:10A760000FF21033002208212A20FFF7ACFC79A356
:10A77000112208217820FFF7A6FC00F009F87821C3
:10A7800000F00BF80FF2F423002208218420B4E734
:10A790000A2000900223082270470020D5E42DE90A
:10A7A000F04F83B00446904699460D9A0C98ADF848
:10A7B0003000BDF830004000401D8018ADF80000AA
:10A7C000BDF83000A1EB000B08F10207B9B21FFA87
:10A7D0008BF000F0E5FB0026A9F104000190994DF3
:10A7E00002E000F0D3FB761CB6B20198864204DA90
:10A7F000E0074CBFE888A888F3E7BDF8000000EB4D
:10A800000B06B9B2B0B200F0CBFB002702E000F0BB
:10A81000BDFB7F1CBFB20198874204DAE0074CBF42
:10A82000E888A888F3E708F10100ADF80000BDF85A
:10A8300000100BF1010000F078F80027A9F1020ADE
:10A8400002E000F0A3FB7F1CBFB2574504DAE0072B
:10A850004CBFE888A888F4E7BDF80010701E00F02F
:10A8600064F8002702E000F091FB7F1CBFB257455F
:10A8700004DAE0074CBFE888A888F4E741460BF10A
:10A88000020000F052F84FF0000A03E000F07EFBF7
:10A8900007F1010A1FFA8AF74F4504D2E0074CBFBF
:10A8A000E888A888F2E74146B01E00F03EF800278D
:10A8B00002E000F06BFB7F1CBFB24F4504D2E00703
:10A8C0004CBFE888A888F4E74FF0000A01E00AF1DD
:10A8D000010ABDF83000824525DA41460AEB0B003B
:10A8E000C01C00F022F8002702E000F04FFB7F1CA4
:10A8F000BFB24F4504D2E0074CBFE888A888F4E710
:10A900004146F01EA0EB0A0000F00FF8002702E01D
:10A9100000F03CFB7F1CBFB24F45D8D2E0074CBFD4
:10A92000E888A888F4E7BDE8F78F80B200F038BB6C
:10A9300038B514461D46434A1080518004E015F88E
:10A94000011B204600F008F828780028F7D131BD17
:10A950007B7C0000797A00002DE9F04704468946A7
:10A960004FF0000A374F0FF26058E00608D50A2072
:10A9700000FB09A008EB4000A0F5A060058804E0FA
:10A9800051464846FFF7E9FD0546A00607D55FEAB0
:10A99000CA704CBF4AF6AA2045F25550054000F057
:10A9A0005DF8E00631D5B9F1430F1CBFB9F1440F92
:10A9B000B9F1450F10D10B2600F04CF803D5E20792
:10A9C00004D5084602E0E20758BF084600F0DEFA68
:10A9D0006D08761EF0D128E0B9F14C0F18BFB9F11F
:10A9E000480F12D100F03AF80B2600F033F803D5E7
:10A9F000E20704D5084602E0E20758BF084600F027
:10AA0000C5FA6D08761EF0D10FE00E2600F022F890
:10AA100003D5E20704D5084602E0E20758BF08461E
:10AA200000F0B4FA6D08761EF0D13888401C3880EA
:10AA30000AF1010ABAF10A0F97D3BDE8F0870000C6
:10AA4000000000208475002028100020CE0F002078
:10AA50002C100020F888B9886A07704779883888F0
:10AA600000F09EBA44656D6F000000006F6E6C7957
:10AA7000000000003A205965730000003A204E6F34
:10AA800000000000436F6D706C6574652043616C5D
:10AA90002C000000F87F0840E85F08520852085078
:10AAA0000840F87FC00F4008787808400840084008
:10AAB0000840084008400840084008400840084056
:10AAC0000840084008400840084008400840084046
:10AAD0000840F87F10003000500090011003100C67
:10AAE000F03F0000C00F400878780840E85FE85F5A
:10AAF000E85FE85FE85FE85FE85FE85FE85FE85F1E
:10AB0000E85FE85FE85FE85FE85FE85FE85FE85F0D
:10AB10000840F87F100110021006F03F00260022C6
:10AB200000210000F07FF07F0001800000010002A2
:10AB3000000400080004000200018000000100027F
:10AB4000000400080004000200018000000100026F
:10AB5000F07FF07F002200218021F03F9001100162
:10AB60001002000000000000F03F0840E85F0848C5
:10AB70000844C84308440848E85F0840F03F000024
:10AB800000000000300F9019F0100010F010901924
:10AB9000300F000000000000F03F0840E85FC84FA1
:10ABA000884708430840E85F0840E85F0840F03FF6
:10ABB0000000000000000000F03F08400843084388
:10ABC0000843E85FE85F0843084308430840F03F54
:10ABD0000000000000000000F03F08400843084368
:10ABE0000843084308430843084308430840F03F2C
:10ABF0000000000000000000F03F084008438847C4
:10AC0000C84FE85F08438847C84FE85F0840F03FF7
:10AC100000000000000040048002000180024004A7
:10AC20000000000000000000F03F0840E85FC84F4F
:10AC300088470843E85FC84F884708430840F03F0B
:10AC400000000000C00F4008787808400840884F96
:10AC5000484048404840884F08404844484A484A8D
:10AC6000484A88490840C84F484A484A484A88459F
:10AC70000840F87F000020042004201F2004200446
:10AC800000000000000000000000000000000000C4
:10AC9000000000000000FAFA00000000E000E00000
:10ACA0000028FE28FE28002474D6D64C00666C18B6
:10ACB0003666004CFE929E6A000020E0C000000054
:10ACC000387CC682000082C67C3800547C387C54B4
:10ACD0000010107C1010000001070600001010107A
:10ACE000101000000006060000060C183060007C02
:10ACF000FE82FE7C000042FEFE020046CE9AF26614
:10AD00000044C692FE6C00182848FEFE00E2A2A293
:10AD1000BE9C007CFEA2BE1C00808EBEF0C0006CFB
:10AD2000FE92FE6C0070FA8AFE7C00000024240073
:10AD30000000012726000010386CC6820028282851
:10AD400028280082C66C38100040CA9AF060007C47
:10AD5000FE82B274003E7EC87E3E00FEFE92FE6C15
:10AD6000007CFE82C64400FEFE82FE7C00FEFE9257
:10AD7000929200FEFE909090007CFE82925C00FE1B
:10AD8000FE10FEFE0082FEFE8200000482FEFC80B9
:10AD900000FEFE38EEC600FEFE02020200FE703C1F
:10ADA00070FE00FEFE7038FE007CFE82FE7C00FE1F
:10ADB000FE8888700078FC86FE7A00FEFE98FC66AD
:10ADC0000064F692DE4C8080FEFE808000FCFE0275
:10ADD000FEFC00F8FC06FCF800FE1C781CFE00C619
:10ADE000EE38EEC600E0F21EF2E000C68E9AF2E601
:10ADF0000000FE828200006030180C060000828293
:10AE0000FE00003060C0603000020202020200401A
:10AE10007030000000042E2A2A1E007E7E121E0CB6
:10AE2000001C3E222222000C1E127E7E001C3E2AA6
:10AE30003A1800103E7E5050001A3D253F1E007EFD
:10AE40007E101E0E0000125E5E02000001015F5EB9
:10AE5000007E7E081C3600FCFE020200003E301E12
:10AE6000303E003E3E203E1E001C3E223E1C003F67
:10AE70003F243C1800183C243F3F003E3E10202059
:10AE800000143A2A2E0400207C7E2202003C3E025E
:10AE90003E3E00383C063C38003E0C180C3E00227A
:10AEA000361C362200393D053F3E0032262E3A360A
:10AEB000001931FFB098000000FE000000B098FFBC
:10AEC0001931003060301830000000000000000030
:10AED000600C600C0000000000000000C07FA0902B
:10AEE000A0BFA080209FA0B1A0B1209F2080C07FE4
:10AEF0000000000000000000000000000000000052
:10AF0000000000000000480088008801F80F800958
:10AF10008008400800000000000000098008C00808
:10AF2000F80FC800880008010000000000000000C1
:10AF300010011001D00710011001000000000000F6
:10AF40000000E03F1040D05F1052105210521040ED
:10AF5000E03F00000000E85FE85FE85FE85FE85F6F
:10AF6000E85F0840F87F0000F5F7F2B8F5F7F2B8AF
:10AF7000F5F7F2B8F5F7F2B8F5F7F2B8F5F7F2B879
:10AF8000F5F7F2B8F5F7F2B8F5F7F2B8F5F7F2B869
:10AF9000F5F7F2B8F5F7F2B8F5F7F2B8F5F7F2B859
:10AFA000F5F7F2B8F5F7F2B8F5F7F2B8F5F7F2B849
:10AFB000F5F7F2B8F5F7F2B8F5F7F2B8F5F7F2B839
:10AFC00062B38B0708D0521E11F8013B00F8013B19
:10AFD00000F024808B07F6D1830740F0208000BF6B
:10AFE000103A07D330B4B1E83810103AA0E838105E
:10AFF000F9D230BC530724BFB1E80810A0E808100C
:10B0000044BF51F8043B40F8043BD20724BF31F859
:10B01000022B20F8022B44BF0B7803707047083ACC
:10B0200007D3B1E80810083A40F8043B40F804CBD5
:10B03000F7D25307E4E750F8041B61B150F8042B32
:10B04000D30744BFA9F101039A18002342F8043B37
:10B05000091FFAD1EFE7704700F10103810704D01F
:10B0600010F8011B89B18107FAD10268B2F10131F0
:10B07000914311F0803F04BF50F8042FF6E710F819
:10B08000011B11B110F8011BFBE7C01A704700004B
:10B0900078B5012400250A2605E022462B46A6FBAA
:10B0A000024506FB03550146481EC9B20029F4D1EA
:10B0B0002046294674BD2DE9FC47804614461D46AE
:10B0C0000C9A0027204629460526B9464FF00A0A61
:10B0D000F2B9002D08BF002C03D1202008F8010B85
:10B0E0001BE0002D06DB01DC012C03D32B2208F82A
:10B0F000012B0DE0002D10DA2D2008F8010B644221
:10B1000065EB450509E00A224B4601F09FFB7F1CD9
:10B110000029F8DC01DB0A28F5D23FB20B988DF844
:10B120002C00032097FBF0F000EB4000381A0228B7
:10B1300001BF9DF92C00022803208DF82C00204629
:10B14000294600270FE00A22002301F07FFB7F1C25
:10B150009DF92C203FB2BA4205DAAAFB06230AFB6E
:10B160000933164699460029EDDC01DB0A28EAD2AC
:10B170009DF92C00874202DBA41945EB0905204606
:10B180002946002704E00A22002301F05FFB7F1C10
:10B190000029F8DC01DB0A28F5D23FB2032097FB37
:10B1A000F0FA13E0F8B2FFF773FF0646894620462F
:10B1B000294632464B4601F06BFBA6FB002306FBFB
:10B1C000013309FB0033A41A9D417F1E9DF92C0019
:10B1D000411E8DF82C10F8B1F8B2FFF759FF024666
:10B1E0000B462046294601F053FB303008F8010B8E
:10B1F0009DF92C0050B13FB2032097FBF0F000EB1B
:10B200004000381A04BF2E2008F8010B3FB2002F6F
:10B21000C8D500240025D8E706200A9900FB0A10AB
:10B22000017808F8011B10F8011B0029F8D1BDE8CE
:10B23000F38710B542F2107291FBF2F24AB14F213E
:10B240000170762100F8011F652100F8011F7221AD
:10B2500049E04FF47A7291FBF2F303F13004047089
:10B2600002FB131189B2642291FBF2F303F1300463
:10B2700000F8014F02FB131189B20A2291FBF2F38D
:10B2800003F1300400F8014F02FB1311303100F8D4
:10B29000011F002100F8011F10F8041C30290DD1F6
:10B2A000202100F8041C001F4178302901BF202113
:10B2B00041708178302904BF2021817010BD10B504
:10B2C000642291FBF2F303F13004047002FB1311CA
:10B2D000C9B20A2291FBF2F303F1300400F8014FE6
:10B2E00002FB1311303100F8011F002100F8011F8B
:10B2F00010BD10B5040001D1002010BDA008FFF75B
:10B30000F8FF4000401C00FB00F18C4238BF401E9B
:10B3100080B210BD0249088008880028FCD170471F
:10B32000CA0F0020DFF88405B0F92C11DFF8802562
:10B3300032F81110491CB0F93401C0F10A00484339
:10B340000A2190FBF1F0DFF86C1508607047DFF818
:10B350006815DFF8682532F810200A60DFF85025FC
:10B3600032F810004860401C00EBD070401048617B
:10B370007047DFF84C15DFF84C2532F810200A60D2
:10B38000DFF8442532F810004860401C00EBD07014
:10B390004010C8607047DFF83415DFF81025908F33
:10B3A00021F8040BDFF8280503685B085B000360E5
:10B3B000C16002F13C01B1F93030052B18BF012BFF
:10B3C00009D1B2F93C200C2A05DB4FF49772426098
:10B3D00000220A8106E0B1F91010DFF8F82432F8F3
:10B3E00011104160016841F0010101607047DFF810
:10B3F000EC04006810F0010018BF0120704710B580
:10B40000DFF8E00481894900CA1001EB12710903D9
:10B41000C289090C01F10A049442A6BFA1F10A03F2
:10B420009A42C181C08910BD70B5DFF8BC0400210B
:10B430000160DFF8B044A08A401CA082DFF8AC04B1
:10B44000007820B1DFF8A8040188491C0180E08A57
:10B4500010B1E08A401EE082DFF8500400F5AA75C2
:10B46000618A002942D0608A401E6082608A14216D
:10B4700090FBF1F201FB1200E0B9A07810B1A078C6
:10B48000401EA070607810B16078401E607000F0BF
:10B4900062F800B12071208A18B1208A401E2082F3
:10B4A00008E00C2020826179481E8041C00F607145
:10B4B0000120A071608A642190FBF1F201FB12006F
:10B4C000002847D1DFF82C04008840F6B831484303
:10B4D000A189C21200EB125001EB2030A0EB111039
:10B4E000A081A87C40F02000A87470BD4FF47A7150
:10B4F0006182B0F9540100281EBFDFF8FC03018807
:10B5000000291CBF491E0180B5F9080000281EBF94
:10B51000DFF8E8532E88002E04D0FFF768FF08B943
:10B52000701E2880208B38B1DFF8D403007888B9EA
:10B53000208B401E208370BDFFF738F8DFF8C4036E
:10B54000017839B10021017043F6E710BDE8704081
:10B55000FEF705BC70BDF8B500220020DFF88013AF
:10B560000B68DB43DB0448BF0122DFF89C331C6817
:10B57000E443640648BF42F002020C68E443A404BA
:10B5800048BF42F004020C68E443240448BF42F080
:10B5900008020968C943490448BF42F0100219680B
:10B5A000C943090648BF42F0200202F00803CD4C0F
:10B5B000658902F00206CD4F97F800C0DFF830E34E
:10B5C000E178C9430A4228D03221A1700321617079
:10B5D000D10744BF0121E1719EB1BCF1000F0AD037
:10B5E0003870BEF80000A84234BF0A2002200021B3
:10B5F000AEF8001005E0AEF800000121397002211C
:10B600002170510748BF032003B10420D10648BF71
:10B61000052091064BD5062049E0E1780A4229D061
:10B62000A178192911D2617879B9510748BF03204F
:10B6300003B10420D10648BF0520910648BF06206B
:10B6400012F03C011CBF03216170A178002904BFE6
:10B65000617800292BD1D10702D508200021E171A2
:10B6600016B109200021217212F003011FD03221EE
:10B6700061701CE0E17911B1E0790021E17121787C
:10B68000002918BFBCF1000F0AD0BEF800108D428F
:10B6900006D22078002121703970AEF8001004E045
:10B6A000217A11B1207A002121723221A170E27039
:10B6B000F2BD28B102280AD006D303280AD00CE034
:10B6C0008548006880B270470FF27C2070470FF207
:10B6D000E03070470FF24050704700207047000084
:10B6E000F8B5024608464D1E86B2794B8749884F09
:10B6F000884C0C2A1FD8DFE802F0935F525D575543
:10B70000072A33373B50960018B9186840084000A4
:10B710001BE0012810D1186840F0010018607E4835
:10B72000026842F0010202607C48026842F00102B5
:10B73000026081200880F1BD052808BF4FF45650F3
:10B7400003D0062872D14FF46A501860F1BD002072
:10B750008862ADB2CD62C86A401C40084863F1BD42
:10B76000D8606F489860F1BD80220A605860F1BDD2
:10B770006C49820747BF10220A6010224A60C20744
:10B7800047BF20220A6020224A606749400747BF1E
:10B790000120086001204860F1BDFE60F1BD6348F2
:10B7A0000580F1BD3860F1BD41F2B0512160A76064
:10B7B000E060F1BD6660F1BD03218DF802105C4DC3
:10B7C0004FF6FE71C0B1022802D004282ED113E03A
:10B7D0000420ADF8000000F02AF81020ADF80000B9
:10B7E000002000F024F8206840F0010020600121D2
:10B7F000002001F00AF9F1BD206808402060002116
:10B80000002001F002F90420ADF80000182000F03B
:10B810000EF81020ADF80000042000F008F8F1BD8B
:10B82000FFF7A2FBF1BDC0B200F026F8F1BD8DF824
:10B83000030000A9284601F0F7B810B53D4C78B9CF
:10B8400001F085F90028FBD1C820FFF78DFB2068A7
:10B8500040F44C302060206820F44C20206010BD63
:10B86000206840F43B202060206820F4882020607D
:10B87000BDE8104001F078B910B582B003218DF811
:10B8800002102D4C4FF480710128ADF8001003D147
:10B89000042000F053F813BD102000F04FF84FF4CF
:10B8A0008071204601F01EF913BD0000180A002027
:10B8B000EC0E01083C0C0040280C0040CC0E0108A6
:10B8C000282C0140540E01087C0E0108381000207D
:10B8D00008000240509D00080C000240080801408A
:10B8E00008140140B40F002010040040C27500206D
:10B8F000B67500204C3C0140B8750020BA75002098
:10B90000C07500200410002008100140002C0140E8
:10B910000874004044040240082401400828014003
:10B920004C24014010100140100C01402C14004028
:10B930000008014004080140000C01408DF803009C
:10B9400000A9204601F070B88000810083008700C4
:10B950008D0095009E00A900B500C300D200E30051
:10B96000F6000A01200137014F0169018501A1019B
:10B97000BF01DF01FF012102440268028D02B30210
:10B98000DA0202032A0354037F03AA03D603020444
:10B990002F045D048B04B904E804170546057605F9
:10B9A000A505D5050506340664069306C206F1060C
:10B9B0001F074D077B07A807D40700082B08560868
:10B9C0008008A808D008F7081D09420966098909F6
:10B9D000AB09CB09EB09090A250A410A5B0A730A7C
:10B9E0008A0AA00AB40AC70AD80AE70AF50A010BAC
:10B9F0000C0B150B1D0B230B270B290B2A0B290BEB
:10BA0000270B230B1D0B150B0C0B010BF50AE70A7B
:10BA1000D80AC70AB40AA00A8A0A730A5B0A410A4A
:10BA2000250A090AEB09CB09AB098909660942090C
:10BA30001D09F708D008A808800856082B08000838
:10BA4000D407A8077B074D071F07F106C206930618
:10BA5000640634060506D505A505760546051705D1
:10BA6000E804B9048B045D042F040204D603AA037E
:10BA70007F0354032B030203DA02B3028D02680230
:10BA800044022102FF01DF01BF01A101850169011B
:10BA90004F01370120010A01F600E300D200C30084
:10BAA000B500A9009E0095008D00870083008100ED
:10BAB00080009E00BD00DB00F90018013601540132
:10BAC00073019101AF01CE01EC010A022902470284
:10BAD00065028402A202C002DF02FD021B033A03D8
:10BAE000580376039503B303D103F0030E042C042B
:10BAF0004B0469048704A604C404E20401051F057D
:10BB00003D055C057A059805B705D505F3051206D0
:10BB100030064E066D068B06A906C806E606040723
:10BB2000230741075F077E079C07BA07D907F70776
:10BB300015083408520870088F08AD08CB08EA08C9
:10BB400008092609450963098109A009BE09DC091C
:10BB5000FB09190A370A560A740A920AB10ACF0A6F
:10BB6000ED0A0C0B2A0B0C0BED0ACF0AB10A920A54
:10BB7000740A560A370A190AFB09DC09BE09A0092A
:10BB800081096309450926090809EA08CB08AD08B7
:10BB90008F087008520834081508F707D907BA0744
:10BBA0009C077E075F07410723070407E606C806D0
:10BBB000A9068B066D064E0630061206F305D5055E
:10BBC000B70598057A055C053D051F050105E204EA
:10BBD000C404A604870469044B042C040E04F00377
:10BBE000D103B3039503760358033A031B03FD0205
:10BBF000DF02C002A20284026502470229020A0291
:10BC0000EC01CE01AF01910173015401360118011D
:10BC1000F900DB00BD009E0080008F009E00AE009A
:10BC2000BD00CC00DB00EA00F90009011801270182
:10BC30003601450154016401730182019101A001A3
:10BC4000AF01BF01CE01DD01EC01FB010A021A02C6
:10BC500029023802470256026502750284029302E5
:10BC6000A202B102C002D002DF02EE02FD020C030A
:10BC70001B032B033A034903580367037603860328
:10BC80009503A403B303C203D103E103F003FF034D
:10BC90000E041D042C043C044B045A04690478046B
:10BCA00087049704A604B504C404D304E204F20490
:10BCB000010510051F052E053D054D055C056B05AD
:10BCC0007A0589059805A805B705C605D505E405D3
:10BCD000F30503061206210630063F064E065E06F1
:10BCE0006D067C068B069A06A906B906C806D70615
:10BCF000E606F50604071407230732074107500735
:10BD00005F076F077E078D079C07AB07BA07CA0757
:10BD1000D907E807F7070608150825083408430877
:10BD200052086108700880088F089E08AD08BC089A
:10BD3000CB08DB08EA08F9080809170926093609BB
:10BD4000450954096309720981099109A009AF09DC
:10BD5000BE09CD09DC09EC09FB090A0A190A280AFF
:10BD6000370A470A560A650A740A830A920AA20A1F
:10BD7000B10AC00ACF0ADE0AED0AFD0A0C0B1B0B42
:10BD800070B5002600F062F86424DFF8385A00F03D
:10BD900057F80A20FFF7E8F800F058F8A889C0F52E
:10BDA000006000B298B1297801B101214FF42F72DF
:10BDB0005043AA7889182A6B32F81130861200EBAA
:10BDC000565003EBE02022F81100002603E0761C19
:10BDD00036B2052E01DA641ED9D170BD10B5DFF878
:10BDE000E449002060700120A0700420207005212B
:10BDF0000A20FFF775FC00F023F800F023F8FFF7A6
:10BE0000BFFF002060700120A07000202070012181
:10BE10000A20FFF765FC00F013F800F013F8FFF7B5
:10BE2000AFFF00206070A070207000210A20FFF793
:10BE300057FC00F005F800F005F8BDE810409FE75A
:10BE400064202FE04FF47A70FFF78EB810B500240D
:10BE500000210620FFF744FC40F2CF210720FFF726
:10BE60003FFC4FF480510920FFF73AFC01210620E6
:10BE7000FFF736FC0020FFF71CFC0028FAD1022057
:10BE8000DFF8441931F810201419401C40F6A27252
:10BE90009042F7D34FF47A60B4FBF0F0DFF8241946
:10BEA000888110BDF8B5DFF81C190A7812B9002690
:10BEB000002302E00126012213468C780D6B36190F
:10BEC00035F91660643806EBD676761070434E78F6
:10BED0000FF66C17F65D70431219496B31F91210A9
:10BEE00090FBF1F0191935F9111009180B20BDE874
:10BEF000F440FFF7F5BB2DE9F04F91B0DFF8C448EF
:10BF0000207800B10120A1784018616B31F9100050
:10BF1000800061780FF62812895C90FBF1F00190A7
:10BF2000002500200C900B90022307460646079040
:10BF300006900A904FF0FF31099101460246DFF862
:10BF40008C88CDF80080B8F93080DFF884C83CF8E0
:10BF50001880A8F101081FFA88F8CDF81080DDF8E4
:10BF60000080B8F958801FFA88F8DDF800C0BCF8E6
:10BF700020E0ADF840E0BDF940C0DFF858E83EF8F9
:10BF80001CE0CDF820E0DDF800C0BCF850E0ADF8D2
:10BF90000CE0BDF90CE01FFA8EFECDF808E0DFF8EA
:10BFA00038C8BCF8D4E08DF80EE0BCF91C90A9F1BB
:10BFB000640C4FEA0C3CDDF804E09CFBFEFC0CF545
:10BFC000006E0FFA8EFEDDF800C0BCF970B0CDF83F
:10BFD00014B0DFF808C89CF800C0BCF1010F07BF1F
:10BFE000B4F914C0B4F91090DDF800C0BCF968C011
:10BFF000E144A9EB0B0CACF1640C4FEA0C3CDDF80E
:10C0000004B09CFBFBFC0CF5006B0FFA8BFBCDF82E
:10C010003CB0DDF814C0CC44ACF1640C4FEA0C3CED
:10C02000DDF804909CFBF9FC0CF500690FFA89F926
:10C03000CDF83890CDF834E0BDF90CC0BCF1050F57
:10C0400018BFBCF1010F0DD1BDF940C0BCF10C0F00
:10C0500008DB4FF4977ECDF810E0DDF800C086468F
:10C06000ACF828E0814615E0DDF83CC0E3450DDA88
:10C07000012B0AD10B9BC01880B20B9000207F1CB3
:10C08000069B972BB8BFCDF818E0002309F10109F2
:10C090000FFA89F9DDF810C0E1453CDADFF840C756
:10C0A000DCF800A00FFA8AFADDF810C0ACEB0A0C3D
:10C0B000E14530DADFF810C70CEB490CBCF904B0ED
:10C0C000DDF828C0DC4538BFCDF828B0DDF824C045
:10C0D000E34538BFCDF824B05944DDF834C0ABEBAC
:10C0E0000C0C0CFB0C22022B0CBF0020401C1FFA76
:10C0F00089FEDDF838C0DC45B6DA53B90C9BC018B0
:10C1000080B20C900020761C079B972BB8BFCDF80F
:10C110001CE00123BAE7BAF1000F27D10A98E080AA
:10C1200009982081B1FBF9F0A08109F10100B2FB6F
:10C13000F0F0E062FFF7DDF8A061B4F90800B4F9AF
:10C140000610421802EBD27252106281081AE061A6
:10C15000B9B20BA8008890FBF1F06062B6B20CA8EF
:10C16000008890FBF6F020627018A0620298052803
:10C1700018BF01281BD10098B0F920000C28A8BFD7
:10C1800001271BDA5FEAC87054BF07980698A0F130
:10C1900097070298012811D13FB2002F2ED504989D
:10C1A000411000EB91708010484524DB25E05FEAE8
:10C1B000C87054BF07980698A0F19707BAF1000F0E
:10C1C00004BF0298042809D13FB2012F16DBDFF823
:10C1D0000C0601210170FDF743FB0FE002980228D5
:10C1E0000CD13FB2002F09D50498411000EB91709B
:10C1F0008010484501DA012700E00027E781B4F903
:10C200000E000128A4BF01202071607990B1DFF8F1
:10C21000CC05007801280DD1DFF8BC05808B208289
:10C22000DFF8B405B0F8DC0060820098B0F8680070
:10C23000A0826571B4F916603BB2012B7BDB0898D4
:10C240006FF09601DFF89C2501FB00200099098D15
:10C25000421200EB925001EBA020184407B2DFF825
:10C26000680500EB47008088A0F50060019948430D
:10C27000001364300FFA80F8AA463AB2DFF8480596
:10C2800000EB42008088A0F500600199484300134C
:10C2900064300FFA80FB571C02E008982D1A2DB26B
:10C2A000012D3EDBABEB0800C5F580614843411230
:10C2B00000EB915008EBA02000B2DFF820150978C0
:10C2C000012912D1DFF81015898B0818218A461A26
:10C2D00036B2C82EA8BFCA2602DA032EB8BF01267E
:10C2E000DFF804050AF800600AE0C828A8BFCA20E1
:10C2F00002DA0328B8BF0220DFF8EC140AF80100C4
:10C30000DFF8D404828BD2B29DF80E101FFA8AF0A7
:10C3100000F044F85046411C0FFA81FAB0F5967FC0
:10C32000BBDB05F580652DB2D846BAF5967FA4DB58
:10C330000020E07020E0002B1ED50298032804BFE7
:10C34000E078002818D0AA4610E008982D1A2DB2DF
:10C35000012D0BDBDFF89004FF210AF80010504696
:10C36000411C0FFA81FAB0F5967FEEDB05F580658A
:10C370002DB2BAF5967FEBDBE6820498814509D1B0
:10C38000DFF858040078012804D011B0BDE8F04F60
:10C39000FFF701B811B0BDE8F08F00002DE9F041C2
:10C3A000DFF848747C78DFF83064B6F91C80B6F9A1
:10C3B000DC60351BA5EB080EDFF83454A5F800E06F
:10C3C0006E80C519DFF82074052921D8DFE801F057
:10C3D0000306090F151DA97A091B14E0A119AA7AF1
:10C3E00015E0A97AC25D51180EEB010310E0A97A9D
:10C3F000091BC25D891A414405E0C15DA1EB08013A
:10C40000AA7A891A6118731802E0B118C25D8B1AF2
:10C410001BB2C82BA8BFCA2302DA032BB8BF012363
:10C42000C01980F82C31BDE8F0812DE9F84F4FF0AC
:10C430000008DFF8A8030078012800F0C0814FF061
:10C440000909E54C0FF2F835DE4E307800280EBFB2
:10C45000C4464FF0010C01207178495DB278736BCE
:10C46000B6F90670A7F50067944433F91CC04FEA8B
:10C470008C0C9CFBF1FC0CFB07F73F136437B6F9FF
:10C4800008C0ACF5006C00F0BEF900FB0CF0A7EBA7
:10C490002030643800B2B4F90410271D282803DACC
:10C4A00003290ADB481E04E06F2806DB092904DAA9
:10C4B000481C00F0A3F9FDF777FA00F0BDF9B9F1D7
:10C4C0000109C2D13378002B0EBFC4464FF00109D9
:10C4D000CC467078405DB178726BB6F906E0AEF587
:10C4E000006E894432F919904FEA890999FBF0F9F5
:10C4F00009FB0EFE4FEA2E3E0EF1640EB6F90890CF
:10C50000A9F500698C4432F91CC04FEA8C0C9CFBE5
:10C51000F0FC0CFB09FCAEEB2C3CACF1640C4FEADC
:10C520006C0E0CEB9E7C4FEA8C3C5FEA030E18BF4E
:10C530004FF0010EB7F91830B6F90A90A9F5006965
:10C54000B4F984A00EEB010B32F91BB04FEA8B0B50
:10C550009BFBF0FB0BFB09FB4FEA2B3B0BF1640B46
:10C56000ABEB030B0BEB2C4BD34513DB0EEB010BAF
:10C5700032F91BB04FEA8B0B9BFBF0FB0BFB09FB6B
:10C580004FEA2B3B0BF1640BABEB030BABEB2C4CEF
:10C59000E24522DA714432F91110890091FBF0F082
:10C5A00000FB09F000136430C01A0F3000F0E8F906
:10C5B00021F0004100228F4B00F0F8F909D23178C8
:10C5C00001B10121B6F90A0000F024F90F30A4F8F6
:10C5D0008400FFF790FCFDF7E7F98748B0F91410E5
:10C5E000B4F9842001EB4201818304F18400817855
:10C5F00041F020018170FBF79BFD642100F01DF9E3
:10C6000033785FEA030E18BF4FF0010E7078405D7B
:10C61000B178726BB6F90AC0ACF5006C8E4432F991
:10C620001EE04FEA8E0E9EFBF0FE0EFB0CFC4FEA66
:10C630002C3C0CF1640CB7F918E0ACEB0E0CBCF11F
:10C640000B0F29DBFFF757FCFDF7AEF9642100F073
:10C65000F4F84FF00909FFF74EFC317801B10121E0
:10C66000B6F9060000F0D6F800B2B4F90410282894
:10C6700003DA03290ADB481E04E0652806DB0929E2
:10C6800004DA481C00F0BAF8FDF78EF900F0D4F88F
:10C69000B9F10109DFD12FE0002B0EBFC6464FF0E4
:10C6A000010E0123B6F906C0ACF5006C8E4432F9D8
:10C6B0001EE04FEA8E0E9EFBF0FE0EFB0CFC4FEAD6
:10C6C0002C3C0CF1640CB6F908E0AEF5006E59187C
:10C6D00032F91110890091FBF0F000FB0EF0ACEB89
:10C6E000203064380A2807DA0720A080FFF703FC0F
:10C6F000FDF75AF900F0A0F8307800280EBF0024AA
:10C70000012401207178495DB278736BB6F9065047
:10C71000A5F50065A41833F91440A40094FBF1F4C6
:10C720006C4324136434B6F90850A5F5006500F095
:10C730006AF86843A4EB2030A0F164040B25FFF7EE
:10C74000DAFBB8F1000F11D1B06A3C280EDAB7F964
:10C750003800062815DB0520FEF70BFE052038877C
:10C76000FFF7C9FBFDF720F94FF00108B06AB528C3
:10C7700005DBB7F93800032812DB401E06E050281D
:10C780000EDAB7F938000B280ADA401C3887C0B235
:10C79000FEF7EFFDFFF7AFFBFDF706F900F04CF8F1
:10C7A0006D1ECCD124B2142C05DA05203887FEF793
:10C7B000E0FD00F041F8BDE8F14FFDF7F5B8BDE848
:10C7C000F18F0000A80E002038100020340A00204D
:10C7D000509D0008A40E0108180A00200610002031
:10C7E0000C000240005E020000000020F40C00205B
:10C7F000A075002000606840C4090020A08064206B
:10C800003883FFF778BB801833F91000800090FB65
:10C81000F1F07047A0F50060B2788918726B32F9B8
:10C82000111089007278525D91FBF2F148430013B8
:10C830006430398B401A704732210020FEF750BF18
:10C8400002040204081402040A14000013F0004C4D
:10C8500003D55B42524263F100039CEA210C00F0D5
:10C86000178010B5644603D34942404261F100018C
:10C8700000F00EF8640004D34942404261F1000127
:10C88000244203D55B42524263F1000310BD000015
:10C890001B4213D1094236D12AB18446B0FBF2F0D3
:10C8A00002FB10C2704700F06FB9FCD300220023D6
:10C8B00070470B000200002100207047904271EB8E
:10C8C000030CF6D370B5B1FA81F4B3FA83F52C1BDF
:10C8D000A340C4F1200532FA05F63343A2405FF0CD
:10C8E0000046E64002E05B085FEA3202841A71EB20
:10C8F000030524BF204629467641F4D302000B00ED
:10C900003000002170BD012ACFD970B5140C20D0A1
:10C91000B1FA81F4B2FA82F5C4F120046419B4F1D9
:10C920002006D6D3B2405FF00044F440002502E078
:10C9300052085FEA3303C61A71EB020E24BF304679
:10C94000714664416D41F3D302000B0020002900C1
:10C9500070BD0C46B1FBF2F102FB11452D0445EA16
:10C960001045B5FBF2F402FB145580B240EA0545D0
:10C97000B5FBF2F002FB105240EA044070BD00002B
:10C98000010040F10780F446404200F003F851F006
:10C990000041604709D0B0FA80F18840C91CC1F558
:10C9A0008461090501EBD021400570474FF4001C5C
:10C9B0001CEB410F94BF1CEB430F09E041EA030C51
:10C9C00050EA4C0C52EA0C0C03D2994208BF904238
:10C9D000704714BF8B42824270470000002200F073
:10C9E000D5B8000030B50F4A136840F6FE74844095
:10C9F000A3430C684D682C438D682C43C9682143C0
:10CA000001FA00F01843106030BD012202FA00F074
:10CA1000044A0029116814BF084321EA000010608D
:10CA200070470000007400402DE9F0410022CC78EE
:10CA300004F00F03E40644BF8C7823430C880125DF
:10CA40000F26E7B217B3D0F800C005FA02F7BE46CA
:10CA50000EEA0408F04514D14FEA820E06FA0EF8E9
:10CA60002CEA080C03FA0EFE4EEA0C0C91F803E0D7
:10CA7000BEF1280F08BF476103D0BEF1480F08BFC1
:10CA80000761521C082AE0D3C0F800C0B4F5807FCB
:10CA900026D3D0F804C0002202F1080705FA07F7F0
:10CAA000BE460EEA0408F04515D14FEA820E06FA9A
:10CAB0000EF82CEA080C03FA0EFE4EEA0C0C91F864
:10CAC00003E0BEF1280F08BF476191F803E0BEF113
:10CAD000480F08BF0761521C082ADDD3C0F804C004
:10CAE000BDE8F081016170474161704770B5114A3E
:10CAF0001468C0F3034583B2460D3601B34000F419
:10CB00004016B6F5401F06D124F07060146824F07A
:10CB10007064146009E0C00243BF0320A84024EA07
:10CB2000000024EA030040F0706001B11843106077
:10CB300070BD00000400014009480121016000218E
:10CB4000016041604FF4E051064A118005E004485D
:10CB50000121016000214160032101600020704734
:10CB6000405C0040BE7500200448C0610221017293
:10CB700003490162034A426208680047E4740020E6
:10CB8000E00E00202C0E00207047000000B500BF12
:10CB9000130096469446103928BFA0E80C50FAD8E6
:10CBA0005FEA417C28BF0CC048BF40F8042BC9078E
:10CBB00028BF20F8022B48BF00F8012B00BD000061
:10CBC0004FF6FF71884201D1002070474FF6E071A7
:10CBD00001EA00028A4201D10120704700F40441B9
:10CBE000B1F5044F01D1022070474105490D40F2D3
:10CBF000FF72914201D10320704700F48261B1F5C8
:10CC0000826F01D1042070474FF61F0101EA000234
:10CC10008A4201D10520704748F2100101EA000262
:10CC20008A4201D10620704700F4FC61B1F5FC6F27
:10CC300001D10720704743F6E71101EA00028A425A
:10CC400001D10920704740F21F5101EA00028A42D7
:10CC500001D10A2070474FF6104101EA00028A42D2
:10CC600001D10B20704700F01F001F2801D10C20BC
:10CC700070470D20704710B582B00C46C1B200A8B5
:10CC8000FEF71DFB9DF8000020719DF8010060710A
:10CC90009DF80200A07113BD70B586B0002400A9F4
:10CCA0000FF2CC0268CA68C1DFF8F8581D2807D017
:10CCB0005AD31F2826D014D3212845D033D353E08C
:10CCC00000F09FFE0FF2B40000F076F8FFF7D3FFFC
:10CCD00000F078F8002802BF641C00A920B2F5D04B
:10CCE00042E000F08EFE0FF2A00000F065F8FFF7C2
:10CCF000C2FF00F067F8002802BF641C00A920B240
:10CD0000F5D031E000F07DFE0FF2880000F054F81D
:10CD1000FFF7B1FF00F056F8002802BF641C00A91D
:10CD200020B2F5D020E000F06CFE0FF2740000F0AD
:10CD300043F8FFF7A0FF00F045F8002802BF641C8D
:10CD400000A920B2F5D00FE000F05BFE0FF25C000E
:10CD500000F032F802E0641C00A920B2FFF78BFF5C
:10CD600000F030F80028F6D020B206B070BD000008
:10CD700046494C452020202020202000494D475F77
:10CD800020202020424D500046494C4520202020A4
:10CD90004441540044415441202020204255460043
:10CDA00044415441202020204353560044415441E3
:10CDB000202020205356470000A94CC84CC100A990
:10CDC0000020704703AB04AA00A9284601F03ABD31
:10CDD00010B5DFF8E44C1D20FFF75EFFA4F8EC006F
:10CDE000EC341E20FFF758FF20811F20FFF754FF6F
:10CDF00020822020FFF750FF20832120FFF74CFFE7
:10CE0000208410BD30B587B003A90FF2940200F062
:10CE1000ADF8DFF890474FF480512046FFF7DEFD74
:10CE200000F00AFA204601F044FD08B1042034E085
:10CE300001202070DFF8805C281D018B6170B5F83F
:10CE4000DC10A170018FE170A988217101896171E5
:10CE5000018AA171B0F87000E0714FF49672DFF8AA
:10CE60001C1D04F10A00FEF7ABF801A9204601F0F1
:10CE700048FC38B900AB01AA4FF40071204601F01C
:10CE80004BFD08B1032008E005F1DC00B0F91810F3
:10CE90006329BCBF491C0183002007B030BD0000DE
:10CEA00046494C45202020204441540030B587B0ED
:10CEB00003A90FF2AC0200F059F8DFF8E84600F0E1
:10CEC000BBF9204601F0BEFC002846D101A920464E
:10CED00001F002FC08B103203FE04FF49B722146B1
:10CEE000DFF88C0CFEF76CF8DFF8CC0B011DE27854
:10CEF0000A872279828062790A81A2790A82E1799D
:10CF0000A0F87410002100EBC102937943F02003D4
:10CF10009371491C0429F6DB90F8D61041F02001EA
:10CF200080F8D61000F2D604217A41F02001217257
:10CF300090F83E1041F0200180F83E1090F87610F5
:10CF400041F0200180F87610FBF798FEB4F93E001E
:10CF50006328BCBF401CE087002007B030BD000044
:10CF600046494C45202020204441540038CA38C14D
:10CF700003A980E62DE9F04F87B0064604A80FF21A
:10CF800070111CC91CC000240025DFF8F40B0078C8
:10CF900002280CBF4FF480504FF400700090002026
:10CFA000FEF74BFCDFF8DC0B0078052807D1FDF716
:10CFB000FDFADFF8D41BDFF8C40B01F011FD04A962
:10CFC0003046FFF758FEDFF8DC6501AB02AA04A982
:10CFD000304601F06EFC08B1042085E036220FF2E5
:10CFE0001C113046FDF7FCFF00200FF2481131F80C
:10CFF000102006EB8003170A07F0F80783F8367055
:10D0000003F23603D70807F0FC075F70D2009A706E
:10D01000DC70401C1028EADB7627A0464FF00009A0
:10D020001FFA88F11FFA89F0FDF7BAFFFDF7ACFF90
:10D0300083461FFA88F109F1010080B2FDF7B0FFC5
:10D04000FDF7A2FF82465846FFF7BAFD83465046D9
:10D05000FFF7B6FD00EB0B10B8557F1C3FB20098F0
:10D06000874210D3002700F0AAFA38BB35B9C4F3C1
:10D0700041020221A82000F04CFE641C6D1CADB2E0
:10D08000022D28BF002509F102090FFA89F0B0F539
:10D09000A07FC5DB08F10108B8F1F00FBEDB2FB1AE
:10D0A00000F08DFA10B1FDF777FA07E001AB02AAA4
:10D0B0004FF41841304601F02FFC08B1032013E073
:10D0C000DFF8C00A0078052808BFFDF765FADFF829
:10D0D000E809B0F9EC106329BCBF491CA0F8EC10BA
:10D0E0000120FEF7AAFB002007B0BDE8F08F00008A
:10D0F000494D475F20202020424D5000424D7696FA
:10D100000000000000007600000028000000400140
:10D110000000F00000000100040000000000820B8D
:10D120000000120B0000120B0000000000000000C5
:10D1300000000000FFFFE0FF0084FF0710041FF85D
:10D140001080E0071004E7391F0510FC1F000000E5
:10D15000E427E7392DE9F04786B003A90FF2CC02A6
:10D1600038CA38C1002500260227DFF84C4904F1EF
:10D170000408B8F94810032908BF042703A9FFF7DA
:10D180007AFDDFF8209400F05BF800F055F848468F
:10D1900001F08FFB0028DFF8ECAB16D0042042E052
:10D1A0004FF48052280340080AEB4000011D484616
:10D1B000FDF706FF01A9484601F0A3FA48BBC6F3F4
:10D1C000410200F07DFC761C6D1CBD42E8D300F0EE
:10D1D00037F8BAF80000A9F80000BAF80200A9F878
:10D1E0000200A088A9F80400B8F81000A9F8060009
:10D1F000B8F84800A9F8080001A9484601F081FAEA
:10D2000038B900AB01AA4FF44051484601F084FB05
:10D2100008B1032007E0B4F9FC006328BCBF401C40
:10D22000A4F8FC00002006B0BDE8F087444154415A
:10D23000202020204255460000AB01AA03A97047D8
:10D240004FF480514846FFF7C9BBDFF83C0B002183
:10D250000180DFF8301B42880A8082884A80DFF82C
:10D26000E41BB0F906208A80B0F908208A82B0F960
:10D270000A00A1F84C0070472DE9F04387B003A9DC
:10D280000FF2DC02FFF772FEC64DFFF7D5FFFFF786
:10D290009CFD002860D1DFF8E8080078022807BF6D
:10D2A0004FF002084FF480574FF010084FF400770A
:10D2B000DFF80448B4F94C00032808BF4FF0040815
:10D2C0004FF00009DFF8BC6A0EE001F005FA90B9F2
:10D2D0003A46294607FB09F0400806EB4000001DCE
:10D2E000FDF76EFE09F10109C14501A92846ECD3FD
:10D2F00001F0F2F908B103202EE0DFF88C0A4AF6BB
:10D30000552101803188418071888180A188C18048
:10D31000211D0A8A0281B4F84C204281288830807D
:10D3200068887080B5F90400A080B5F9060008820D
:10D33000B5F90800A4F84C00DFF80C0B017841F0B7
:10D3400001010170FCF78CFAB4F91C016328BCBF21
:10D35000401CA4F81C01002007B0BDE8F0830000C9
:10D36000444154412020202042554600F0B500237E
:10D370000624DFF84457B5F90420DFF8D06A04FB2F
:10D38000026603E016F8017B1F5413465A1CDBB2F9
:10D390003778002FF6D12A261E54B5F91430DFF85D
:10D3A000B05A04FB035303E013F8015B1554224603
:10D3B000541CD2B21D78002DF6D12C231354101812
:10D3C000002242700C70F0BD2DE9F04F89B0DFF8FB
:10D3D000841A097801B10121DFF87C2A12788918B2
:10D3E000DFF8782A126832F911108900DFF8702A04
:10D3F0001278DFF8703AD25C91FBF2F406A90FF6CE
:10D40000C02268CA68C14FF0000ADFF874170978B3
:10D4100002290CBF4FF480554FF4007506A9FFF7A1
:10D420002AFC604E05AB02AA06A9304601F041FA7B
:10D43000002840F0A880DFF880760522B7F93C008C
:10D44000DFF8241A01EBC0013046FDF7B9FD0322D5
:10D4500052A1701DFDF7B4FD00A906F10800FFF709
:10D4600085FF9DF8000008304DA182190B781370DC
:10D470004B78537000F1020BD046DFF8F09949E089
:10D4800000208DF804009DF8041004A8FDF717FF94
:10D4900000208DF800009DF8000004A9405C98B1C0
:10D4A00000F087F807D300F08AF800285DD100F07B
:10D4B00005FB00F079F89DF80000401C8DF8000095
:10D4C0009DF800000328E6D32C2000F072F807D363
:10D4D00000F075F8002848D100F0F0FA00F064F888
:10D4E0000D2000F066F807D300F069F800283CD161
:10D4F00000F0E4FA00F058F80A2000F05AF807D3D8
:10D5000000F05DF8002830D100F0D8FA00F04CF8B7
:10D5100008F10108B7F94C0039F81000804510D225
:10D52000DFF8600800EB48008088A0F500606043E9
:10D530000013643000B20128A2DBC928A1DBC72098
:10D540009FE7BBF1000F16D00D200BF806000BF182
:10D5500001000A218155431C2022C3F580519819EE
:10D5600001F0B4FC00F02BF808B1032015E000F046
:10D57000A5FA0AF1010A05AB02AA05FB0AF1304639
:10D5800001F0CAF908B1042007E0B7F904016328E3
:10D59000BCBF401CA7F80401002005E220202000A9
:10D5A0000D0A00003C6200200AF1010A4FF0000B56
:10D5B00070470BF806000BF1010BAB45704702A951
:10D5C000304601F09EB800002DE9F04F89B00646C4
:10D5D00005A80FF6F8011CC91CC0DFF87808007810
:10D5E00000B10120DFF8701809784018DFF86C18D6
:10D5F000096831F910008000DFF864180978DFF855
:10D600006428895C90FBF1F7DFF864080022C0E928
:10D61000022202804280DFF8584500F0D3F9DFF89B
:10D62000545800F0EEF905A93046FFF724FB04AB8F
:10D6300000AA05A9284601F03CF9002840F0A6817F
:10D6400000A90FF6940000F0E1F900A90FF6B80068
:10D6500000F0DCF900A90FF61C1000F0D7F9DFF894
:10D66000586406F10408DFF8049800F0C4F900A932
:10D670000FF6101000F0CAF900A90FF6941000F090
:10D68000C5F900F0B8F900A90FF6B01000F0BEF926
:10D6900000A90FF6B81000F0B9F900F0A2F900A93E
:10D6A0000FF6D01000F0B2F900F09BF900A90FF6C8
:10D6B000CC1000F0ABF900A9B8F9400000F5967065
:10D6C00080B200F001FA00A90FF6B81000F09EF940
:10D6D0004FF0000B0FF6D81A00A90FF6B41000F0A7
:10D6E00095F900F082F900A9A9A000F08FF900F0E7
:10D6F00082F900F07DF90BF1190BBBF1C90FEBD3E7
:10D700004FF0000B0CE00FF6B01000F07FF900F0C6
:10D710006CF900A90FF6BC1000F078F90BF1190BA9
:10D7200000F055F900A9EED20FF6B41000F06EF932
:10D730004FF0000B0EE000F052F900F056F900A98E
:10D74000D6A000F063F900A9BDF8080000F0BCF90C
:10D750000BF1010B00F03BF91FD3DFF8280600EBBB
:10D760004B008088A0F5006078430013643000B25D
:10D77000012803DBC92802DBC72000E00020ADF848
:10D780000800BDF80800C0F1C800ADF80800BBF102
:10D79000000F0CBFC2A0C3A0CDE700F029F900A97B
:10D7A0000FF6741000F032F9B6F90400B8F9101051
:10D7B000002914BFDFF8C016DFF8C01601EBC00067
:10D7C00000F00DF900A90FF6B81000F01FF900A93C
:10D7D000B5A000F01BF9B8F91000002814BFB3A0E1
:10D7E000B3A000F0FCF800A9B2A000F00FF900A966
:10D7F000B8F93800DFF8702602EBC00000F006F937
:10D8000000A90FF6841000F001F900A90FF68810A6
:10D8100000F0FCF8B8F91800C0F1C70700A90FF62E
:10D82000E41000F0F3F800A90FF6042000F0EEF881
:10D8300000A90FF6602000F0E9F800A90FF67020AB
:10D8400000F0E4F800A90FF6A82000F0DFF800A926
:10D850000FF6D82000F0DAF80FF2083A00F0C8F816
:10D8600000A90FF6FC2000F0D1F800A90FF6443013
:10D8700000F0CCF800A9BCA000F0C8F800A90FF691
:10D880004C3000F0C3F800A90FF6543000F0BEF899
:10D8900000A90FF6643000F0B9F800F0ACF800A968
:10D8A0000FF6703000F0B2F800A90FF6783000F0F3
:10D8B000ADF800A90FF6783000F0A8F800A90FF62F
:10D8C000BC3000F0A3F80FF2A42900A9484600F0EC
:10D8D0009DF800A90FF6C43000F098F800A90FF6E3
:10D8E000004000F093F800A9484600F08FF800A926
:10D8F0000FF6384000F08AF8B6F9040006214843D4
:10D90000B8F91010002914BFDFF87415DFF874158A
:10D91000401800F064F800A996A000F077F800A97C
:10D92000B8B200F0D1F800A90FF2840000F06EF850
:10D9300000A9B8F93800DFF8502502EBC00000F06C
:10D9400065F800A98CA000F061F800F051F800A97A
:10D950000FF6204000F05AF800A90FF6284000F01A
:10D9600055F800A9284600F0CCFE08B103201BE0C2
:10D97000002200F0A5F804AB00AADFF8F474D7E9A0
:10D9800002010146284600F0C7FF18B104200BE051
:10D9900020480000B6F90C016328BCBF401CA6F863
:10D9A0000C0100F00FF8002009B0BDE8F08F000076
:10D9B00029202B20222022202B20666D74542878C9
:10D9C0002C2000004FF49B71204601F0B3BAB8F947
:10D9D000480039F810001FFA8BFB5845704700A922
:10D9E00014E000A9B8F840006EE000A958466BE0CA
:10D9F00000A950460AE000A9B8F9480039F810001B
:10DA000062E04FF480512846FEF7E8BF2DE9F0416F
:10DA100004460D46DFF85864FDF71EFB7080DFF802
:10DA200054847288214630884044FDF7C9FA7288D0
:10DA3000308817183780D6E9020100238018594131
:10DA4000C6E90201B8B2B0F5805F25D32946404649
:10DA500000F057FE3069411C3161C0F3410200F013
:10DA60002FF83088A0F58055ADB27088471B002094
:10DA700030804FF480514046FEF7B0FF00F06DF863
:10DA80002A46B8B2011930884044FDF799FA308827
:10DA90002818308000207080BDE8F0812C00000044
:10DAA0004D000000204C00002800000058313000DC
:10DAB0005831000029200000180A0020CAF3410252
:10DAC00002214FF4847024E1F8B50E46DFF8A0433C
:10DAD00004F1140100220A60014604F11400FDF76C
