:020000040800F2
:10800000384500200181000875DB000855BE0008D6
:10801000BDDA0008678F00081303010800000000A4
:108020000000000000000000000000005DED0008FE
:10803000C9A4000800000000EDE0000869FE000887
:1080400017810008178100081781000817810008B0
:1080500017810008178100081781000817810008A0
:108060001781000817810008178100081781000890
:108070001781000817810008178100081781000880
:108080001781000817810008178100081781000870
:10809000850201081781000817810008F5AD000866
:1080A0001781000817810008178100081781000850
:1080B00017810008178100086DFE0008178100086D
:1080C0001781000817810008178100081781000830
:1080D0001781000817810008178100081781000820
:1080E000178100081781000817810008DFF80CD0FD
:1080F00000F0FEFC00480047FD190108384500204B
:1081000005480047FEE7FEE7FEE7FEE7FEE7FEE77D
:10811000FEE7FEE7FEE7FEE7ED80000840EA010328
:108120009B0703D009E008C9121F08C0042AFAD22D
:1081300003E011F8013B00F8013B521EF9D27047F1
:10814000D2B201E000F8012B491EFBD27047002299
:10815000F6E710B513460A4604461946FFF7F0FF46
:10816000204610BD421E12F8013F002BFBD111F832
:10817000013B02F8013B002BF9D17047CAB2401E07
:1081800010F8011F8A4202D00029F9D1002070475F
:10819000421C10F8011B0029FBD1801A704730B532
:1081A00004460020034600E05B1C934203D2E05CDF
:1081B000CD5C401BF8D030BD034611F8012B00F810
:1081C000012B002AF9D118467047F0B480EA010269
:1081D000D40F4200B2EB410F02D2024608461146CC
:1081E0004A0042D0C30DDDB2C1F3C752AD1A202DF3
:1081F00035DAC1F3160141F4000204B15242C5F16F
:10820000200602FA06F12A411044B3EBD05F23D0D6
:10821000C4B1012DA0EBC35009DCF0BC4FF000420B
:1082200002EAC352DBB200F5000000F03FBA4000A2
:1082300000F1807000EBC350A0F1807040EAD17073
:10824000490009E0490841EAC071A0EBC35000F5BC
:108250000000400800EBC350F0BC00F01EBA6142C1
:10826000012202EB4101001BF6E7F0BC704781F0F0
:108270000041AAE780F00040A7E780EA010210B5BC
:1082800002F00043400022D04A001FD0010E01EB53
:108290001261C0F35600C2F3560240F4000042F4EB
:1082A0000002A0FB022000047F39140400D0401C0F
:1082B00050EA124001D44000491EC2B20C0604EB41
:1082C000D010401C4008802A02D003E0002010BDDE
:1082D00020F00100002900DA0020184310BD30B45E
:1082E00080EA010202F0004530F0004221F0004037
:1082F00013D090B1C30DD40DC2F31601C0F3160014
:10830000E41A41F4000140F400027D34914201D3AB
:10831000641C00E04900002C02DA30BC00207047E9
:108320004FF400000023914201D3891A034340080F
:108330004FEA4101F7D151B1914202D14FF00041D2
:1083400005E002D24FF0010101E06FF0010103EB03
:10835000C450284430BC00F0A0B9420005D0C0F39E
:10836000C7525242914201DC0020704700EBC150DD
:1083700070472DE9FE4F81EA030404F0004421F028
:10838000004100944FF0000B23F0004350EA010439
:108390005ED052EA03045BD0C3F30A54C1F30A551A
:1083A0002C44A4F2F3340194A0FB0254C1F3130152
:1083B00041F48011C3F3130343F4801301FB02441F
:1083C00000FB034E840A970A44EA815447EA835724
:1083D000A4FB076802958D0A05FB07854FEA932CDD
:1083E00004FB0C542705029D4FEA065847EA16374E
:1083F000B5EB08056EEB070C870E920E47EA811766
:1084000042EA8312A7FB0201B6EB0B0164EB000406
:108410002B0D43EA0C335E1844EB1C50DA465146F0
:10842000E7FB0201C5F313044FEA0B3343EA14538D
:108430004FEA0432019C43EA0603A4F10C040294BF
:10844000009CCDE900B400F06EF903B0BDE8F08FF8
:1084500000200146F9E7C10F80EAE0700844CA072E
:108460009623002100F022B996230022114600F045
:108470001DB90EB5C10F80EAE0700844CA0700219B
:1084800040F233438DE80E000A460B4600F04BF9EC
:1084900003B000BD0EB540F2334102910021CDE999
:1084A00000110A460B4600F03EF903B000BD00F093
:1084B000004220F00040C10DC0F3160040F400005F
:1084C0007F2901DA00207047962903DCC1F196016B
:1084D000C84001E096398840002AF4D040427047F5
:1084E00020F00040C10DC0F3160040F400007F29C9
:1084F00001DA00207047962903DCC1F19601C840DB
:10850000704796398840704770B5C1F30A5201F040
:1085100000450024C1F3130140F2FF3341F4801100
:108520009A4201DA002070BD40F233439A42A2F22F
:10853000334203DC524200F0A0F800E090402C43AC
:10854000F1D0404270BDC1F30A5210B5C1F313011E
:1085500040F2FF3341F480119A4201DA002010BD4D
:1085600040F233439A42A2F2334203DC524200F01B
:1085700084F810BD904010BD00F0004230F0004083
:108580000AD0C10D01F56071C0F3160042EA015135
:10859000C20840071143704700200146704701F0B0
:1085A000004330B421F0004150EA010206D00A0D28
:1085B000A2F56072C1F31301002A02DC30BC002076
:1085C0007047440F44EAC104C100E01830BC00EB1E
:1085D000C25000F062B80000002801DBC0F100408A
:1085E000002901DBC1F100418142704730B50B46E3
:1085F000014600202022012409E021FA02F59D42D3
:1086000005D303FA02F5491B04FA02F52844151EA6
:10861000A2F10102F1DC30BD2DE9F05F054600203A
:1086200092469B4688460646814640241BE02846E3
:1086300041464746224600F020F853465A46C01AA3
:10864000914110D311461846224600F063FA2D1AC4
:1086500067EB01084F4622460120002100F05AFA3C
:1086600017EB00094E41201EA4F10104DFDC48464F
:1086700031462A464346BDE8F09F202A04DB203AD3
:1086800021FA02F00021704721FA02F3D040C2F132
:10869000200291400843194670470029A8BF70473F
:1086A000401C490008BF20F00100704710B4B0FA28
:1086B00080FC00FA0CF050EA010404BF10BC7047C3
:1086C00049B1CCF1200421FA04F411FA0CF118BFDD
:1086D000012121430843A3EB0C01CB1D4FEA0061AC
:1086E0004FEA102042BF002010BC704700EBC3507F
:1086F00010440029A4BF10BC7047401C490008BFAB
:1087000020F0010010BC704710B5141E73F1000476
:1087100008DA401C41F1000192185B411A4301D173
:1087200020F0010010BD2DE9F04D92469B4611B19D
:10873000B1FA81F202E0B0FA80F22032904600F005
:10874000E9F904460F4640EA0A0041EA0B015346A4
:108750005A46084313D0114653EA010019D0C8F114
:1087600040025046FFF789FF05460E4650465946DF
:10877000424600F0CFF9084305D0012004E020462E
:108780003946BDE8F08D0020054346EAE0762C43EB
:1087900037430A986305E40AA0EB08000022FD0AAB
:1087A00044EA47540A3002D500200146E9E70105B2
:1087B00010196941DDE9084500196941BDE8F04D2E
:1087C000A2E72DE9FE4F804681EA0300C00F0C4668
:1087D000009021F0004123F00045B8EB0200A941D0
:1087E00005D24046214690461C460B46024623F0E1
:1087F0000040104347D0270DC7F30A00C3F30A51C6
:108800000290401A019040286BDAC3F3130040F441
:10881000801B0098924620B10023D2EB030A63EB41
:108820000B0B01985946C0F14002504600F072F916
:1088300006460D4650465946019A00F07AF910EB6B
:1088400008006141002487EA115284EAE7731A4361
:1088500040D0009A62B3019A012A4FEA075215DC10
:10886000001B61EB02014FF0004202EA0752CDE922
:108870000042001C41F5801132462B46FFF753FFA2
:1088800003B0BDE8F08F40462146F9E7001B61EBDD
:108890000201001C41F5801300185B412018A2F56D
:1088A000001747EB030140EAD570B6196D4111E09E
:1088B0006D084FEA360645EAC0754FEA0752001BBD
:1088C00061EB0201001C41F5801149084FEA3000BC
:1088D0000019514132462B4603B0BDE8F04FFFF777
:1088E00013BF0098012240000023D0EB020263EB8B
:1088F000E073009821464FEAE074B8EB000061EBAA
:108900000401E9E783F000435BE781F0004158E7A9
:108910002DE9F04D81EA030404F0004B21F00045FD
:1089200014464FF0000A23F0004150EA050220D01F
:1089300054EA01021DD0C5F30A570246C5F31303DA
:10894000C1F31300C1F30A5640F4801543F48013B9
:10895000A7EB0608101BD64608F2FD3873EB05009E
:1089600002D308F1010801E092185B41B8F1000F51
:1089700003DA00200146BDE8F08D00204FF480119D
:10898000064684460EE0171B73EB050705D3121B42
:1089900063EB050306434CEA010C49084FEA30003B
:1089A00092185B4150EA0107EDD152EA030012D060
:1089B00082EA040083EA0501084305D0101BAB419D
:1089C00006D20122002306E000224FF0004302E01D
:1089D0006FF0010253101AEB06004CEB085110EB3C
:1089E0000A0041EB0B01BDE8F04DFFF78DBE2DE90C
:1089F000F04D00231A461B1A8A4103DB0020014672
:108A0000BDE8F08DC1F30A52C1F3130141F48015A2
:108A10004FF0000BD10702D100186D41521E002704
:108A2000044640F2FF11384601EB620A3E4680469A
:108A3000024600204FF48011FFF71FFEC21971415A
:108A4000BB1846EB0100B4EB030C75EB000C04D330
:108A5000E41A65EB000517460E46241908F10100DB
:108A60006D4180463428E3DDF91946EB0600091B09
:108A7000A84103D24FF0FF32134601E00022134613
:108A80001BEB070046EB0A51BDE8F04DFFF73CBE7B
:108A9000C1F30A52C1F3130140F2FF3341F48011D4
:108AA0009A4202DA00200146704740F233439A426C
:108AB000A2F2334202DC5242FFF7DFBD00F02AB8D7
:108AC00030B5041E71F1000404DB4FF00044404255
:108AD00064EB0101141E73F1000405DB1C464FF02A
:108AE0000043524263EB0403994208BF904230BDF9
:108AF000064C074D06E0E06840F0010394E80700EB
:108B000098471034AC42F6D3FFF7F4FA5435010815
:108B100074350108202A04DB203A00FA02F1002013
:108B200070479140C2F1200320FA03F319439040AB
:108B30007047202A06DBCB17203A41FA02F043EABD
:108B4000E07306E041FA02F3D040C2F12002914006
:108B500008431946704770B521F0004303430CD019
:108B6000C1F30A550024D5EB040564EB0403D617C2
:108B7000AD1AB34102DB0020014670BD201841EB65
:108B8000025170BD70B58C1810F8015B15F0070329
:108B900001D110F8013B2A1106D110F8012B03E096
:108BA00010F8016B01F8016B5B1EF9D12B0705D49E
:108BB0000023521E0DD401F8013BFAE710F8013BE7
:108BC000CB1A921C03E013F8015B01F8015B521E03
:108BD000F9D5A142D8D3002070BDC94301607047C8
:108BE0000029816802D041F0010101E021F001017A
:108BF0008160704730B587B0012140F2044005F034
:108C0000B7FD4FF4804005F09DFD5C20ADF81400E9
:108C100000248DF8174005A9164802F0FBFB164DFD
:108C2000284600F02BF84FF46020CDE90204012023
:108C30008DF804408DF8100000948DF805406946C9
:108C4000284600F055F801212846FFF7C9FF2846BD
:108C500000F0ACF8284600F044F80028FAD1284685
:108C600000F0B3F8284600F02BF80028FAD107B03E
:108C700030BD000000080140002801400D4910B53A
:108C8000884202D1012144150AE00B49884202D1F1
:108C90000121041504E0094988420AD10121CC03CD
:108CA000204605F071FD2046BDE81040002105F08A
:108CB0006BBD10BD0024014000280140003C014074
:108CC000014600208968490700D501207047C06C23
:108CD00080B270470246002012680A4200D001208C
:108CE0007047014600208968090700D501207047B8
:108CF00010B542680E4B0C791A400B6842EA042208
:108D00001343436082680B4B1A40D1E9024323436B
:108D10004C7942EA440213438360C26A097C22F41C
:108D20007002491EC9B242EA0151C16210BD000081
:108D3000FFFEF0FFFDF7F1FF70B5072609290AD9FC
:108D4000C568A1F10A0404EB4404A640B543A3405E
:108D50001D43C56007E0056901EB4104A640B5432A
:108D6000A3401D4305611F23072A09D2446B521EED
:108D700002EB820293409C4391400C43446370BDDC
:108D80000D2A09D2046BD21F02EB820293409C434E
:108D900091400C43046370BDC46A0D3A02EB820239
:108DA00093409C4391400C43C46270BD816841F084
:108DB0000801816070470029816802D041F4A00158
:108DC00001E021F4A00181607047816841F0040155
:108DD000816070477CB506461421684602F054FE57
:108DE0000098152184B2684602F04EFE00998DB2BB
:108DF00054B102F037FE012806D16C43C83CA0B242
:108E0000864201D201207CBD00207CBD2DE9F047C7
:108E100015460A4606886421540813464FF0000C94
:108E2000AE427DD300EB4206DFF8048136F8026CD7
:108E30004FF0FF37AE4278D874E0944275D830F8DE
:108E40001460AE422BD200EB440333F8023CAB4239
:108E50001CD900EB4401B0B231F8021CA1EB0000B8
:108E6000FFF7F9FA81463046FFF7FEFA0646284634
:108E7000FFF7FAFA3146FFF7FAF93946FFF76DFACC
:108E80004946FFF72CFA054620462CE004D1A4F110
:108E90000100FFF7E0FA38E0234664443FE001D1E7
:108EA000204630E000EB44067688AE4228D230F807
:108EB000141000EB44004088A1EB0000FFF7CBFA50
:108EC00081463046FFF7D0FA06462846FFF7CCFA2F
:108ED0003146FFF7CCF93946FFF73FFA4946FFF72D
:108EE000FEF90546601CFFF7BFFA3946FFF735FA71
:108EF0004146FFF76AF92946BDE8F047FFF7B7B9E1
:108F00000BD104F10100FFF7AFFA3946FFF725FA5C
:108F10004146BDE8F047FFF758B9A4461C4400E0BD
:108F200003E06408491E89B287D20020BDE8F087BB
:108F3000000080BF10B578B14FF48054012805D0EF
:108F400002280FD11021012006F096F82146BDE835
:108F50001040022006F048B81021BDE81040012062
:108F600006F08AB810BDFEE7C1B2000A40EA01204F
:108F70007047000070B55E4B5E4C00205988A4F12C
:108F8000400202E0155C2554401C8842FAD359483F
:108F9000626820301F294260A268826006D00220E9
:108FA000FFF7C8FF00201A21206020E0E07B28287E
:108FB00001D02A280AD1D4F81110227D09BA21F053
:108FC000FF0111435960E18A49BA99604A4A216810
:108FD000914253D1494A617B1268914203D8A17BE7
:108FE00009B110290CD90220FFF7A4FF2421052084
:108FF00006F028FABDE870400021012006F0FEB915
:10900000282860D01DDC1A2849D00DDC0A286AD037
:1090100005DC70B3032836D008282FD163E012286E
:1090200035D015282AD15EE01E2834D004DC1B2858
:1090300031D01D2822D156E0232838D025281DD133
:1090400039E08A284FD00CDC55284CD004DC2A2883
:109050003FD02F2812D142E05A2824D088280DD1A1
:1090600041E0A8283FD005DC8F283CD09E2805D1C0
:1090700039E024E0AA2836D0AF2834D00220FFF708
:1090800059FF2021B3E7BDE8704005F007BEBDE8F9
:10909000704005F079BDBDE8704005F00BBEBDE83D
:1090A000704005F0A3BDBDE8704005F099BDBDE876
:1090B000704005F0E3BDBDE8704005F0CDBDBDE8F2
:1090C000704005F0FBBDD3E90101BDE8704005F03B
:1090D00093BDD3E90101BDE8704005F00DBEBDE8C8
:1090E000704005F0EFBDBDE8704005F061BD0000C7
:1090F000CC010020A8340020555342433402002004
:10910000FEB500270E4604460097880801901E48C9
:109110004169490603D4416941F0400141611B4D59
:109120000120A86008E054F8040B0090009808F0B3
:109130005FFD0090009828600198411E0191F2D2D5
:10914000286808F055FD009006F0030010490190D2
:1091500013E014F8010B009A504000900297009819
:10916000C007009802D081EA500000E0400800905B
:109170000298401C02900828F1D30198421E0192E7
:10918000E7D20098C043FEBD00100240003002400C
:109190002083B8ED2DE9F84F0020ADF800004BF624
:1091A000BF7648F280084A4D4A4C40F68F7ADFF885
:1091B000289148F60F7B494F2FE0088810F00F00E8
:1091C00089F8000032D007EB8001D1F8002CADF80F
:1091D0000020BDF8002012040BD5D1F8002C02EAC3
:1091E0000A02C1F8002C3E4901EB800050F8040C43
:1091F0008047BDF8000000060FD599F8000007EB86
:109200008001D1F8002C02EA0B02C1F8002C35498C
:1092100001EB800050F8040C80472D484430006872
:10922000314908800004C8D4BDE8F88F2868208040
:10923000208800F030006080208800F440502080BA
:109240002868304080F4005080F0200040EA080098
:1092500028600888C00617D4296801EA0B01296034
:1092600003F058F828E02188890401D580F40050E3
:109270006188C90628D46188890601D580F020005C
:1092800040EA08002860CFE72868ADF80000BDF884
:109290000000000506D5296801EA0A01296006F0E8
:1092A000F9F809E0BDF800000004B6D5286800EA26
:1092B0000A00286004F09CFD286821883040C90419
:1092C000D1D580F48050CEE780F01000D3E70000C5
:1092D000005C0040220300201003002000500040EA
:1092E00010020020F40100202C0200202DE9F041A2
:1092F0003C4C20793C4F0126C7F88461042007F5D7
:10930000C27701F0F1F8032002F092F900258046BF
:109310003D60042001F0E8F8032002F089F9FFF72E
:10932000A3F807464046FFF79FF83946FEF79FFF30
:109330002E49FEF7A2FF2E49FEF79FFF2D49FEF7AB
:109340009CFF6FF00B01FFF708F82B49FEF7C7FFF2
:109350002A49FEF7C4FFFFF7AAF800B2002801DA95
:10936000002004E0B0F5C87F01DDA67003E0A57021
:10937000E179491CE171A178012902D1A179012982
:1093800001D06571A582A178A1711D4BA18A23F836
:109390001100491C88B2A082052801D3A5826671FC
:1093A00061790020002901460BD033F81120491CB7
:1093B0001044C9B200B20529F7D3052190FBF1F0A2
:1093C0000BE0A28A05E033F81150491C284400B292
:1093D000C9B29142F7D390FBF2F060820120BDE860
:1093E000F08100001C0000200000214200404E459A
:1093F00000007A440000C84200B0314500005041EE
:109400002C03002070B50E4800250078012802D0FA
:10941000022802D002E0022600E006260024F0B274
:1094200002F006F9641CE4B20544032CF7D30320D0
:10943000B5FBF0F048F6CC514843000B70BD00007E
:109440006000002040434FF47A72514390FBF1F0EA
:1094500080B2704770B5040018D00846FFF704F8D2
:1094600005462046FFF700F82946FEF706FF0949A2
:10947000FEF735FFFFF780F808F0C8FB0022064B27
:10948000FEF777FFFFF75FF880B270BD46F66050D9
:1094900070BD00000000C84200408F4002F058BB81
:1094A00010B501280BD0022810D13C21A12002F0D8
:1094B00077FD3C21C020BDE8104002F071BD3C2189
:1094C000A02002F06DFD3C21C820F4E710BD000093
:1094D0000749012806D0022808D10871C870002069
:1094E00002F0CABC012008710020C870704700005B
:1094F0001C00002003490020086034394870C881EE
:109500007047000050000020810008480844D0F84F
:10951000001C490409D5D0F8001C48F68F72114090
:109520004CF280021143C0F8001C7047005000400C
:10953000810008480844D0F8001C490609D5D0F835
:10954000001C48F68F72114048F2C0021143C0F867
:10955000001C704700500040F0B5A3B020258021CA
:1095600002A8FEF7F4FD0024264602AFE006CDE98E
:109570000076010E08238022002004F001FC641C08
:10958000E4B2B4EBD50FF1D323B0F0BD81000648AF
:109590000844D0F8001C48F68F62114048F280025F
:1095A0001143C0F8001C7047005000400A280BD23D
:1095B000064B00EB400203EB82000021416041704A
:1095C000418003F822108160704700005C03002096
:1095D0003CB50225059C09B200B2CDE9004506F074
:1095E00025F83CBD02464FF400710148FEF7A8BDC6
:1095F0004C3100200A2806D2034A00EB400002EB5F
:1096000080000021417070475C03002008B10448CD
:10961000704704490820096808820020704700004C
:10962000380200201403002008B1044870470449A0
:1096300008200968088200207047000038020020D6
:10964000140300202DE9F34F4FF00008ADF2D44D84
:1096500004464FF480664546C146314609A8FEF7E8
:1096600076FD32462146B148FEF758FD34210DF50E
:109670008D60FEF76CFDDFF8B8B2B24600244421DD
:109680000DF22440FEF763FDA84A0DF224414AE0A2
:10969000505D6D1C0855ADB20A2807D008194078F6
:1096A0000D2803D0B8F1000F3FD138E00020085555
:1096B000084606F04FFB9DF8240418B300240DF271
:1096C00024475BF824603046FEF762FD82B217F84B
:1096D000011BA1F14100192800D8203116F8010B17
:1096E000A0F14103192B00D82030521E1204120C95
:1096F00001D08142EBD0081A104308D0641CA4B2F8
:10970000102CDCD309F1010000F0FF090DE009A8DD
:1097100000EB84100DF22441FEF74EFDF2E7641CCD
:10972000A4B2402C01D25545B2D3B9F1100F01D2E9
:109730005545A3D3B8F1000F0CD1002009A901EBC6
:10974000801212783AB1401C80B21028F7D3B8F1D9
:10975000000F03D0ABE04FF00108A8E00DF58D61DC
:1097600009A807F0DFFF20B100205FEA000802D05F
:109770009DE00120F9E729220DF58D610DF29C4055
:10978000FEF7CCFC9DF891048DF8C504DDF8940437
:10979000CDF8C804DDF89804CDF8CC0424220DF2ED
:1097A000AC416846FEF7BAFC0DF29C4494E80F0009
:1097B00000F052FBBDF86C040A25B0FBF5F35C46E3
:1097C0005CA109A8DBF8002008F07EF9BDF86E0462
:1097D00058A1B0FBF5F319A8626808F075F9BDF857
:1097E000700454A1B0FBF5F329A8A26808F06CF945
:1097F000BDF872044FA1B0FBF5F339A8E26808F098
:1098000063F9BDF886044BA1B0FBF5F349A82269C2
:1098100008F05AF9BDF87A3446A159A8626908F0EF
:1098200053F9BDF87C3443A169A8A26908F04CF94A
:10983000BDF878343FA179A8E26908F045F9BDF890
:1098400080343CA189A8226A08F03EF9BDF87E3434
:1098500038A199A8626A08F037F9BDF8883435A1B3
:10986000A9A8A26A08F030F9BDF8823431A1B9A8DC
:10987000E26A08F029F9BDF884342EA1C9A8226B48
:1098800008F022F9BDF88A342AA1D9A8626B08F041
:109890001BF9BDF88C3427A1E9A8A26B08F014F9D4
:1098A000BDF88E3423A1F9A8E26B08F00DF95146FA
:1098B000DDF8D804FEF74BFC1D4D4FF00004803559
:1098C000B8F1000F12D0A5F14006DDF8D80456F823
:1098D0002410FEF747FC55F82410DDF8D804FEF7F5
:1098E00041FC641CA4B2102CEFD310E009AE06EBCF
:1098F0008411DDF8D804FEF735FC55F82410DDF8A6
:10990000D804FEF72FFC641CA4B2102CEFD3DDF8B2
:10991000D804FEF73DFC094981F81C04000A81F8CF
:109920001D040DF2DC4D4046BDE8F08F802A00207A
:109930008800002025733D2564000000800400207D
:1099400070B5ADF5816D0024ADF8004405F080FDE3
:109950000DF58062111D1AA005F0B6FA1B4E050028
:1099600002D01B48854202D901F0D2FC1BE03470C2
:1099700069462846FFF766FEA8B116480121281A55
:10998000A0F50070C21700EB9250134A02EBA02022
:1099900001706846FEF7FCFB024669462846FEF762
:1099A000BDFB04F0D5FFB068C471047244717068E7
:1099B000C4604461C46184610DF5816D002070BD97
:1099C000434F4E464947202054585400640000201D
:1099D000802A002080040020802E00202DE9F04104
:1099E000ADF58A6D0026ADF840644FF4806168469D
:1099F000FEF7ADFB02210DF5896002F045F8DDF8B8
:109A000048040A2780B2B0FBF7F3FE4CFEA10DF527
:109A10008060226808F058F80DF580616846FEF70E
:109A2000A1FB04F1800568462968FEF79BFB032132
:109A30000DF5896002F028F8DDF84804F2A180B243
:109A4000B0FBF7F30DF58060626808F03DF80DF5A6
:109A500080616846FEF786FB68466968FEF782FB10
:109A600004210DF5896002F00FF8DDF84804E6A145
:109A700080B2B0FBF7F30DF58060A26808F024F81F
:109A80000DF580616846FEF76DFB6846A968FEF734
:109A900069FB05210DF5896001F0F6FFDDF848044A
:109AA000D9A180B2B0FBF7F30DF58060E26808F051
:109AB0000BF80DF580616846FEF754FB6846E968CF
:109AC000FEF750FB16210DF5896001F0DDFFDDF892
:109AD0004804CDA180B2B0FBF7F30DF58060226998
:109AE00007F0F2FF0DF580616846FEF73BFB684624
:109AF0002969FEF737FB07210DF5896001F0C4FFE6
:109B0000DDF84804C0A183B20DF58060626907F0FA
:109B1000DBFF0DF580616846FEF724FB6846696946
:109B2000FEF720FB08210DF5896001F0ADFFDDF89F
:109B30004804B5A183B20DF58060A26907F0C4FFA7
:109B40000DF580616846FEF70DFB6846A969FEF7D2
:109B500009FB09210DF5896001F096FFDDF8480445
:109B6000A9A183B20DF58060E26907F0ADFF0DF5A4
:109B700080616846FEF7F6FA6846E969FEF7F2FA90
:109B800010210DF5896001F07FFFDDF848049EA1EA
:109B900083B20DF58060226A07F096FF0DF58061B3
:109BA0006846FEF7DFFA6846296AFEF7DBFA0A2103
:109BB0000DF5896001F068FFDDF8480492A183B2D9
:109BC0000DF58060626A07F07FFF0DF580616846E1
:109BD000FEF7C8FA6846696AFEF7C4FA13210DF564
:109BE000896001F051FFDDF8480487A183B20DF5CB
:109BF0008060A26A07F068FF0DF580616846FEF795
:109C0000B1FA6846A96AFEF7ADFA14210DF589602C
:109C100001F03AFFDDF848047BA183B20DF58060C6
:109C2000E26A07F051FF0DF580616846FEF79AFA87
:109C30006846E96AFEF796FA15210DF5896001F08C
:109C400023FFDDF8480470A183B20DF58060226B1C
:109C500007F03AFF0DF580616846FEF783FA684623
:109C6000296BFEF77FFA12210DF5896001F00CFFD8
:109C7000DDF8480464A183B20DF58060626B07F0E3
:109C800023FF0DF580616846FEF76CFA6846696B44
:109C9000FEF768FA11210DF5896001F0F5FEDDF897
:109CA000480459A183B20DF58060A26B07F00CFF48
:109CB0000DF580616846FEF755FA6846A96BFEF718
:109CC00051FA17210DF5896001F0DEFEDDF8480438
:109CD0004DA183B20DF58060E26B07F0F5FE0DF546
:109CE00080616846FEF73EFA6846E96BFEF73AFA8D
:109CF0000DF58862111D46A005F0E6F8474D0400F9
:109D000022D06846FEF744FABDF8401405EB411135
:109D100081F81C04000A81F81D04601BA0F5007086
:109D2000C21700EB925005F5285202EBA02001214A
:109D300001706846FEF72CFA024669462046FEF797
:109D4000EDF904F005FE57E00DF58862111D34A011
:109D500005F0BAF8354C364F4FF4185800B30146A9
:109D6000FE226846FEF7DAF941462C48FEF7EFF985
:109D70002BA0FE2201682162416861628068A062B6
:109D8000694604F58060FEF7C9F985F82B64C5F8CB
:109D90003674032085F83A04FE2085F83C0403E07D
:109DA00041461E48FEF7D3F919A0016821604168B9
:109DB00061608068A0601F4801682960416869602F
:109DC0001D4902680A60406848606846FEF7E0F98D
:109DD0000446024669461948FEF7A0F985F80B6467
:109DE000C5F81674022085F81A0485F81C44200A68
:109DF00085F81D0404F0E0FD024924398868C67125
:109E000006721DE08800002025733D2564000000D7
:109E1000434F4E46494720205458540080040020A8
:109E20004C4F474F494E2020424D500080080020A3
:109E3000188DDD401C20010880060020800A0020CB
:109E400046714868C6604661C66186610DF58A6DD7
:109E50000020BDE8F08100000FB4292210B502A94E
:109E60000748FEF75BF99DF83110054880F8291086
:109E70000D99C1620E991838816410BC5DF814FB0D
:109E8000E430002010B5044629220749FEF746F9C0
:109E9000054890F8291084F82910C06AE062024849
:109EA0001838806C206310BDE430002010B586B0F7
:109EB000044614216846FEF74AF9C5F30E0164F31F
:109EC00004011A4B21F49070122219788DF80020A9
:109ED0008DF8012020F4E0408DF8022061F34B2042
:109EE00013228DF80320020B022404EB820444F0B9
:109EF00080048DF804408DF80500000A8DF80600F6
:109F0000FF208DF8070014208DF80800FE208DF842
:109F10000900491C01F0070018700A2000EB8201BB
:109F2000684601F07BFF06B0002010BDC001002094
:109F30002DE9F0475DA088B0D0E90010CDE906100A
:109F40000C21684601F0A0FD00980024DFF8648130
:109F5000C5B24FF00509A24606AF6846395D01F06B
:109F600055FE9DF800008DF80C009DF801008DF85D
:109F70000D00DDF80200CDF80E00DDF80600CDF88A
:109F80001200BDF80A00ADF816009DF80D0000287B
:109F900078D0385D062872D2DFE800F059655C7130
:109FA00003440DB1022D2CD198F80B00401CC0B217
:109FB00088F80B0002280BD988F80BA0FFF722FACB
:109FC00080B2FEF767FA02460B46002005F0B4F8AF
:109FD00001F048FD022812D11221684601F054FD1B
:109FE0000098002186B2684601F04EFD009880B2CC
:109FF0002EB141F66411884201D806F009FA022D0B
:10A000003DD098F80A00464610B12B4946220A7006
:10A0100005F042FC86F80AA0012D30D1012005F0A0
:10A020007FF82CE098F80A00464618B9002001F0A5
:10A0300077FAB072B07810BB012001F071FAF0B17C
:10A04000317888421BD03070FFF72AFA17E003F00E
:10A050004FFE14E0012D12D001F092FC02280ED127
:10A06000FFF744F90BE0012D09D001F089FC02282B
:10A0700005D101F067FD01280CD0FFF73BFA385DF0
:10A08000FFF7B8FA641CE4B24C45FFF466AF08B0C1
:10A09000BDE8F087FFF702FA05F062FFFEF7E9F985
:10A0A00002460B46012005F047F8E8E700040502E8
:10A0B00001000000480100209E0100207CB5FFF750
:10A0C000A1F986B21121684601F0DEFC0098002457
:10A0D00085B201F0CDFC002813DD642190FBF1F086
:10A0E00081B23046FFF7AEF9084941F288324D435C
:10A0F00095FBF0F0064980B29042488000D94A8032
:10A100007CBD641CE4B2032CE3D37CBD404B4C000B
:10A110006000002018B50023009308E003780C7855
:10A12000A34208D1009B401C5B1C491C0093934236
:10A13000F4D3012018BD002018BD70B586B00546C7
:10A14000072414216846FEF702F812208DF800005B
:10A150008DF801008DF8020013208DF80300288887
:10A160000221C0F3023001EB800040F080008DF846
:10A17000040028788DF8050028886B46000A8DF8C1
:10A18000060000210EE005EB810002791A551A192C
:10A19000467956708679241D9670C079491CD07016
:10A1A000E4B2C9B22888C0F302308842EBD8FF205D
:10A1B0001855181914214170FE21817028880A2130
:10A1C000C0F3023001EB8001184601F027FE06B013
:10A1D000002070BD2DE9F047DFF89490254F4FF037
:10A1E0003008D9F8001001F11005088A0E7A08B974
:10A1F000042E04D0AC88A04215D8042614E01E48D2
:10A200000178012903D00726102038802BE01B4A53
:10A21000002112681A4B120403EBD2325160A7F8E6
:10A22000008001701FE00226844200D90446A9681C
:10A23000204688478246002001F0FAFA014622466D
:10A24000504606F0A1F82146002004F007FF2888B8
:10A25000001B2880688820446880A7F8008009498E
:10A260004FF440500880D9F800000672BDE8F0872E
:10A2700014030020240300200C030020505C004045
:10A2800000600040220300202DE9F047224EDFF855
:10A290008C803027346834F8100FA168A9B100B35E
:10A2A000A588854200D905462846884781462088EA
:10A2B000401B2080608828446080002001F098FACC
:10A2C00001462A46484603F001FF208848B1144958
:10A2D0004FF4405008800021084604F0BFFEA8F863
:10A2E00000702088A188884201D3032001E020B1BA
:10A2F000052031680872BDE8F087316806200872D1
:10A30000084900200968084A090402EBD131486075
:10A31000A8F80070EFE700001403002024030020D9
:10A3200022030020505C004000600040F8B55D4C06
:10A330005D4D09262068002729684278062A05D045
:10A34000AAB1082A4DD00A2A50D06BE002785206F2
:10A3500068D18078012804D0022804D0032804D0D2
:10A3600060E0C96956E0096A54E0496A52E04288EF
:10A37000B2BBC288022A55D102798ABB0278530641
:10A3800001D1838833B102F07F02012A04D0022A6E
:10A390000CD047E045493DE08A694079002190476B
:10A3A000F0B92068807A0028F4D13BE0417901F0CF
:10A3B0000F0001F070020B063D4901EB8001D1F85E
:10A3C000001C03D5C1F30111090102E0C1F3013101
:10A3D0000903384B1B78834224D90AB90029D9D103
:10A3E00020E0007840061DD1334913E0027802F0E6
:10A3F0007F02012A16D1827AA2B1428892B90279EB
:10A4000082B9C288012A0DD18A694079002190471A
:10A4100040B92A4931B120684782816100208847CC
:10A42000002006E0296820680969407888470328E9
:10A4300013D021680A8AA2F57F43FF3B0BD0022884
:10A440000ED06AB10878000626D5C88800908242EE
:10A450000AD9088218E00E72F8BD20680672F8BDAD
:10A460004FF008000872F8BD0ED22868144B90F81F
:10A470002C00824201D21F7006E0B2FBF0F400FB18
:10A48000142008B901201870286890F82C008882E0
:10A49000BDE8F840FFF79EBE03200872094900039B
:10A4A0000880F8BD140300201803002095FB000865
:10A4B00000500040A802002029FB00086DFB0008A6
:10A4C0000C030020220300207047000010B501217A
:10A4D000084604F04DF9BDE810400121014800F0A4
:10A4E000E7BF00000002300008494A6810444A688B
:10A4F000824203D84A688242FCD370474A680A2ADB
:10A50000FCD84A688242FCD370470000000000205B
:10A5100008B5ADF80000BDF80000411EADF8001010
:10A52000F9D208BD08B50090411E009101D308463C
:10A53000FAE708BD10B54FF4185205490548FDF774
:10A54000EDFDBDE8104010210348FDF700BE0000FE
:10A550000090010880040020802E002010B50B46DA
:10A56000044605F057FA4FF400718BB1B3F5805FE4
:10A5700011D0B3F5205F12D0B3F5804F13D0A3F5FF
:10A580000042B2F5005F15D80D480A46191804E0DC
:10A590000A460C4901E00A460B49204606E00A46F5
:10A5A0000A49204602E00A4609492046BDE8104013
:10A5B000FDF7B4BD2046BDE81040FDF7C8BD000062
:10A5C00000160108242001088004002080060020D5
:10A5D000800800202DE9F04F0026ADF2144D0D4605
:10A5E00004466FF007074FF6FF794FF40078B1F596
:10A5F000805F4AD0B5F5205F52D0DFF858A1564FA2
:10A600004FF00109B5F5804F5BD0A5F5004BBBF5C8
:10A61000005F39D8AAF528504619A6F5F4464246F7
:10A6200031462046FDF7BBFD20B13046424621466B
:10A63000FDF774FD022101EB5B20798888427CD113
:10A64000464C69463046FEF7FDFF00287DD168463E
:10A65000FDF79EFD798804EB411181F8DC03000AC7
:10A6600081F8DD03301BA0F50070C21700EB925299
:10A670000AEBA22080F800906846FDF789FD0246AB
:10A6800069463046FDF74AFD5DE042463349FDF735
:10A6900086FD002857D0314D42462146284608E025
:10A6A0002F4942460D46FDF77AFD80B342462146CA
:10A6B0002846FDF733FD2F60686840EA09006860AE
:10A6C00041E0284942460D46FDF769FDF8B1424692
:10A6D00021462846FDF722FDD0468AF80190002544
:10A6E0002068CDF800046068CDF80404A068CDF8B7
:10A6F00008040B221CA10DF58060FDF750FD40B150
:10A700006D1CEDB22034102DEAD346B10AE01AE0F8
:10A7100013E0A07E7880267F87F80190F5E77878AF
:10A72000012802D088F800900DE00020787088F8A9
:10A73000010088F8000006E007E0A5F5FC450AEBFB
:10A74000952181F8019004F003F90DF2144DBDE854
:10A75000F08F0000802E0020640000208004002084
:10A760008006002080080020434F4E4649472020A5
:10A77000545854007CB5102A069C0DD1102B0BD1D7
:10A780002402E51704EB5574044D05EBE4040025A1
:10A79000CDE9004504F04AFF7CBD000044220108D9
:10A7A0002DE9FC4114460F460546002615E02028F9
:10A7B00018D02D2818D03038C0B20C49C0EB00108A
:10A7C00001EB8000CDE90006182314223946284603
:10A7D00004F02CFF14352DB2641C20780028E6D13B
:10A7E000BDE8FC810A20E8E70D20E6E7FC2A010825
:10A7F0002DE9FC4114460F460546002611E020389D
:10A80000C0B20A4900EB400001EB4000CDE9000670
:10A810000823062239462846641C04F007FFAD1DB4
:10A820002DB220780028EAD1BDE8FC81C4220108BD
:10A830002DE9FC4114460F46054600260FE020385E
:10A840000949C0B201EB0010CDE90006102308222F
:10A8500039462846641C04F0E9FE08352DB22078FC
:10A860000028ECD1BDE8FC810C2501082DE9F04F52
:10A87000B7B08020349000200246339004203290FC
:10A880004FF0100A002435A93EA004F01DFB5FEA3A
:10A89000000974D099F8000042286CD199F80100A1
:10A8A0004D2868D199F83600FF2809D199F837006A
:10A8B000FF2805D199F83800FF2801D101203390F5
:10A8C000FEF74AFE3220FFF70FFE0DF1080B02A83B
:10A8D0003499FDF73CFC01250026002002462CE0BF
:10A8E000C6EBC401C91D01FB0A9302F13E015F5C86
:10A8F00080210023DDF8CCC0BCF1000F07EA010C79
:10A9000009D0BCF1000F0FD11BF800C04CEA050CB8
:10A910000BF800C008E0BCF1000F05D01BF8008068
:10A9200048EA05080BF80080401C5B1C4908DBB2B4
:10A93000C0B2082BDED3521CD2B25245D0D3680627
:10A94000761C050EF6B2082EC7D30021CDE900B162
:10A9500032980823001BC0000838C1B20020349A86
:10A9600003F00EFA641C3298E4B28442AFD34FF481
:10A970009670FFF7B9FD37B0BDE8F08FFFE700F044
:10A9800007F8F8E74C4F474F494E2020424D500002
:10A99000F0B5124DADF5037D002001242E2102AB50
:10A9A000A5F50076670204EB4002B2FBF1FC01FB67
:10A9B0001C2216F800C0AA5C82EA0C021A54401C41
:10A9C00080B2B842EFD30020CDE9003020238022AE
:10A9D000014603F0D5F90DF5037DF0BD7C1E01089D
:10A9E00002F0F0BF03F018B87047000010B504493A
:10A9F000052005F06DFCBDE81040052004F00CBBFF
:10AA0000D83400200EB51A49487801282ED00020ED
:10AA1000009001900290BDF8000020F4E04040F466
:10AA20000042087802F5805260F34B2222F4F07263
:10AA3000803222F01F021032ADF80020BDF8042051
:10AA400022F4F8426FF3080242F40042921CADF87F
:10AA500004200322401CADF8062000F00700087017
:10AA6000012048706846FFF768FB0EBD04200EBD4C
:10AA7000C00100200EB515494878012823D00020D8
:10AA8000009001900290BDF80000142320F4704261
:10AA9000087802F5805260F34B2222F4F072803283
:10AAA00022F01F020A32ADF8002001228DF80720A3
:10AAB000401C8DF8063000F0070008704A706846A8
:10AAC000FFF73BFB0EBD04200EBD0000C0010020BF
:10AAD0000EB50021009101910291BDF8001041F4E2
:10AAE0000042134960F30E32087860F34B2222F4DF
:10AAF000E072803222F03F021132ADF80020BDF842
:10AB00000420401C22F4F04242F4004202F50062AC
:10AB10006FF3080242F48062ADF8042000F00700F1
:10AB20000870012048706846FFF707FB0EBD000063
:10AB3000C00100202DE9F04F0746061D00880024C3
:10AB4000C0F302318A0000F01F03C1B0112B7CD189
:10AB500000047AD5A548921E95B2828807F10208B2
:10AB60004FF001094FF0000A52B1A14F9F4B07F17E
:10AB700058004FF0070B914268D3A3F804A0A2E05D
:10AB8000AC216846FDF7E3FA58212BA8FDF7DFFA60
:10AB9000B8F800009549C0F30800401BC01CC0F382
:10ABA0008F00888080463888ADF8B00000206B4662
:10ABB00045E02BA901EBC00156F82020CA600831FE
:10ABC000970F2DD197052BD081F800909DF8AE20DE
:10ABD0004F460AB98DF8AE70BDF808204FF0320C20
:10ABE000521CADF8082003EB001217734968C1F33B
:10ABF000892707FB0CF7C1F3090101EB810C4FEA30
:10AC00004C0CC2E9047C4FF47A72B7FBF2F24A436F
:10AC100002EB82014900A1420FD90C4601910CE0E0
:10AC20000327B7EB927F08D112F0405F26D0C2F322
:10AC30000172012A22D081F800A0401C80B2B0EB42
:10AC4000950FB6D3BDF8080001E0CDE039E0ADF8CE
:10AC5000AC009DF8AE008DF800006548AC221946A6
:10AC60005830FDF75BFA58222BA96148FDF756FAD8
:10AC7000B8F100007ED0FFF72BFF4CE002270F70E9
:10AC80009DF8AE20032A01D08DF8AE70BDF80820E3
:10AC90004FF0640C521CADF8082003EB0012177340
:10ACA0004968C1F3072707FB0CF75761C1F3474712
:10ACB00007FB0CF7176101F07F013227794391619F
:10ACC000BBE7511A9980002220E006EB820102EBDB
:10ACD0000B0C4B88898803EB014307EBCC0141F84F
:10ACE0000C3F51F804395FEA937818D04FF003080D
:10ACF000B8EB937F08D113F0405F45D0C3F30173E5
:10AD0000012B41D081F800A0521C92B2B2EB950FFA
:10AD1000DBD3008938803548808858B360E00389E8
:10AD2000082B01D8082300E05B1C038100EB0C1307
:10AD30004FF0320883F80C90D1F804C0CCF3892C82
:10AD40000CFB08FCC3F810C0B1F804C0CCF3090C2C
:10AD50000CEB8C0C4FEA4C0CC3F814C049684FF450
:10AD60007A7CC1F3892303FB08F3B3FBFCF3C1F343
:10AD7000090100E02EE04B4303EB83014900A142AF
:10AD8000C2D90C464160BFE74FF0020881F800804D
:10AD900003895B1C038100EB0C1383F80C80B1F872
:10ADA00004C04FF06408CCF3072C0CFB08FCC3F87C
:10ADB00014C0D1F804C0CCF3474C0CFB08FCC3F81A
:10ADC00010C009794FF0320C01F07F0101FB0CF14A
:10ADD000996199E70548042108300170A0F80290B4
:10ADE000002041B0BDE8F08F0120FAE7C00100204B
:10ADF0004C33002010B500F001FA002805D000F017
:10AE0000C1F9BDE8104000F0BFB910BD01490860AC
:10AE10007047000014040140064A014600201268F1
:10AE2000044B0A4014331B680B4202D0002A00D0A6
:10AE3000012070470004014030B51A4A8379016847
:10AE400053B313688B431360111D0B680468A3434D
:10AE50000B60017911440B68046823430B60114BAC
:10AE6000083319680468A14319601C1D216805682E
:10AE7000A94321604179102905D011440A6800686E
:10AE800002430A6030BD19680268114319602168E5
:10AE900000680143216030BD0079104402688A4394
:10AEA000026030BD0004014010B502000C464FF0B6
:10AEB000FF0006D0012A03D100F038FE20600020F8
:10AEC00010BD0020FEF78EFB03A200210C20FFF72F
:10AED000AFFC02F00DFFFEE744656D6F204D6F641F
:10AEE000650000000149C860704700000020024072
:10AEF00010B5044680050CD1064800F081F80528FD
:10AF000002D03420FFF7EEFF2046BDE8104000F0ED
:10AF100003B810BDA086010070B505464FF4302679
:10AF2000304600F06DF8042811D1094C206940F03A
:10AF3000020020616561206940F0400020613046D8
:10AF400000F05EF8216941F6FD721140216170BD8B
:10AF50000020024008490420CA68D20701D001201D
:10AF60007047CA68520701D502207047C968C906F0
:10AF7000FBD5032070470000002002400248016911
:10AF800041F08001016170470020024070B5054624
:10AF90000C46074800F034F8052802D03420FFF7AB
:10AFA000A1FF21462846BDE8704000F003B800002C
:10AFB000A0860100F0B506464FF400570D4638460E
:10AFC00000F01EF804280CD1064C206940F0010066
:10AFD00020613580384600F013F82169BA1E11400F
:10AFE0002161F0BD0020024003480249416003494D
:10AFF000416070472301674500200240AB89EFCDD7
:10B0000000B50346FFF7A6FF02E0FFF7A3FF5B1EB4
:10B01000012803D0002B00D1052000BD002BF4D166
:10B02000FAE700000148407870470000C0010020A6
:10B03000AC220149FDF772B8A43300202DE9F84F86
:10B040004D4F4FF0000AA7F10C080646ADF800A0DE
:10B05000B8F8000014460D4610B325B3DFF81C9174
:10B0600099F80100012820D033466A462146284637
:10B0700002F0E2FE002814D107F1F4010A1DC1F824
:10B0800014A0C1F818A0C1F81CA0C1F820A0167027
:10B09000C2E901545046012E09D0022E17D02CE0EF
:10B0A0000220BDE8F88F0320FBE70420F9E7BDF894
:10B0B000003063F31F700A23B4FBF3F5B4FBF3F322
:10B0C00065F3090063F3932020F070600FE0142310
:10B0D000B5FBF3F363F354203223B4FBF3F363F3D0
:10B0E0000600BDF8003063F31F7020F0F0601061BF
:10B0F0003B68DB0D63F39650106199F8033090893B
:10B100004C46042B20F4E0401ED000F5805020F087
:10B110001F00801C908198F804008109908961F3D8
:10B12000871020F4004020F49071207860F34B21C8
:10B13000401C918100F0070020700320607099F896
:10B14000020001280DD012E000F5005020F01F0091
:10B1500009309081BDF8005008EBC5004068886157
:10B16000D9E7042B03D105490520083108700448AC
:10B17000FEF7E3FF002094E758330020C0010020D1
:10B180005C34002000F08BBD10B58EB06A46022101
:10B19000422000F092FD9DF8010000F0E000402800
:10B1A00002D805200EB010BD6A460221432000F0EF
:10B1B00084FD00980D90BDF834006C4610F4E04F0B
:10B1C00006D0C0F3023081004320A21C00F075FDC0
:10B1D000BDF834000421C0F3023004EB80024320A8
:10B1E000921C00F06AFD0421072000F05EFD684615
:10B1F00002F066FC0020D5E700F06CBD00F04CBD0D
:10B20000054910B54978012903D002F043FE2046D4
:10B2100010BD042010BD0000C0010020FCB428496E
:10B2200000260B460A781D8903F10C01022A07D07B
:10B23000012A24D123486F46D0E9002300202BE0C7
:10B240006A4641F28833344600200EE00F78022F20
:10B2500008D18F689F4205D84F689F4202D31E468F
:10B26000CC6804E0401C80B21031A842EED3C2E9A1
:10B270000064DDE9001209B102201CE00320FCBCDF
:10B2800070470C78012C04D14C68944201D28B6831
:10B290002246401C80B21031A842F2D36FF07040B9
:10B2A000824201D132463346C7E90023DDE900126C
:10B2B0000029E3D0012002B0F0BCFFF7BFBE0000C0
:10B2C000A43300208C3001082DE9F04106461746D2
:10B2D0000D46800502D00120BDE8F081FFF784FE15
:10B2E00000240FE0A00502D13019FFF701FE2988E4
:10B2F0003019FFF74BFE042802D0FFF73FFEEAE7C4
:10B30000A41CAD1CBC42EDD3FFF738FE0020E3E7E0
:10B310002DE9F0474FF418512C48FCF718FF2C4842
:10B320002CA12A4E0A6802604A68426089688160DE
:10B330002B48DFF8B08000250168316041687160FA
:10B3400006F5007102680A60406848602C4608F102
:10B350004009474658F82400FCF71AFF02467019C6
:10B3600057F8241000F5C060FCF7D8FE57F8240009
:10B37000FCF70EFF05444F4659F82400FCF708FF80
:10B380000246701957F8241000F5C060FCF7C6FE9D
:10B3900057F82400FCF7FCFE641C0544102CD8D39D
:10B3A000002086F80B041048C6F81604022086F820
:10B3B0001A0486F81C54280A86F81D0404F048F87C
:10B3C00003F0FAFA0020BDE8F087000080040020B6
:10B3D00080080020434F4E464947202054585400CF
:10B3E0001C200108C8000020188DDD4010B58A0718
:10B3F00021F003040649120F21440F238C68934067
:10B400009C438C608B68904003438B6010BD0000B0
:10B4100000000140F0B5CC78002204F00F03E406F0
:10B4200001D58C7823430C784FF00F0C14F0FF0FEC
:10B430004FF0010E1BD005680E880EFA02F426406C
:10B44000A64210D196000CFA06F725EA070703FA80
:10B4500006F5CE783D43282E02D0482E02D002E0D9
:10B46000446100E00461521C082AE5D305600A88A3
:10B47000FF2A1CD94468002202F108060EFA06F5DC
:10B480000E882E40AE420ED196000CFA06F7BC4351
:10B4900003FA06F7CE783C43282E00D14561CE78DA
:10B4A000482E00D10561521C082AE5D34460F0BD46
:10B4B000F0B5144C002801DAE36900E06368450D3B
:10B4C0002E0185B2C0F30157B540C0F30342032FEC
:10B4D00005D0C6020AD503269640B34307E023F001
:10B4E0007062636823F07063636002E0AB4343F013
:10B4F000706201B12A43002801DAE261F0BD6260A6
:10B50000F0BD0000000001400246002092680A429F
:10B5100000D0012070474161704701617047000011
:10B52000F0B506463F4889B003AB07C883E807007B
:10B530000024172106A800F0A7FA0698C0B2411E01
:10B54000042905D803A901EB400010F8020C01E022
:10B55000BDF812000C22C5B26946032000F014F9B0
:10B56000DDE900014042CDE90010024606A8029B39
:10B5700000F09CF99DE80E0006A800F097F92A4F0C
:10B580002A4B97F805C0BCF1000F0DF1180C9CE890
:10B59000070007D04FF0000C87F805C003F10C0C32
:10B5A0008CE8070016B1012E22D035E01F4F0C3772
:10B5B0003E68A6EB050C604503DB06EB050C604519
:10B5C00000DD01247E68A6EB050C614503DB06EB7C
:10B5D000050C614500DD641CBE68771BBA4202DBC6
:10B5E0003544AA4200DD641C022C15D2002413E06D
:10B5F000B7F910506E42B14206DAB7F90E607642E2
:10B60000B04201DA022407E0A94205DDB7F90E5085
:10B610006D42A84200DA01240C3383E8070009B028
:10B620002046F0BD442E010848010020CC30002007
:10B6300070B50D4C0146072301222046FDF77CFB27
:10B6400001212046FDF7B7FB02212046FDF742FB12
:10B650000028F9D02046FDF73AFB05460221204696
:10B66000FDF7BBFA284670BD002801400FB4002149
:10B670002DE9F04F8246BDF830C0DDF8D4B00E465B
:10B680000DA8BCF10A0F02D9CAF800602CE000270F
:10B6900026E00278022A20D1C268642402FB0BF360
:10B6A000B3FBF4F5D0E9014399460B9B4FF47A784C
:10B6B00003FB08F3B3FBF4F3A54205D3A1420CD27C
:10B6C000214606E0164608E04D4506D3A94204D2BD
:10B6D00029469342F6D81A46F4E77F1CBFB21030D1
:10B6E0006745D6D3CAF80010CAF80460BDE8F00F69
:10B6F0005DF814FB014880787047000008000020C6
:10B7000070B500220546104611461346012606FA7A
:10B7100003F42C4204D1012906D0032906D006E007
:10B7200041B1022908D008E0022100E00421521CA6
:10B73000D2B206E0012100E00321824200D9104686
:10B7400000225B1CDBB2202BE1D3E90702D182424D
:10B7500000D9104670BD000070B500252C460420AD
:10B76000FFF766FF641CE4B20544032CF7D3032003
:10B77000B5FBF0F0BDE8704082B2A3210148FDF7AF
:10B7800045BB0000D41E01082DE9FC410546002000
:10B7900016460F460190FF24042201A90120FFF75D
:10B7A00083FBDFF844C035B1012D04D0022D09D050
:10B7B000032D0FD111E0019800900C4B3246394611
:10B7C000012005E001980090084B324639460220DE
:10B7D000E04704462046BDE8FC8101980090034BF9
:10B7E000324639460320F3E701200008BC0100205F
:10B7F0000549096889B201EBC000044901EB40002A
:10B80000008980B270470000505C0040006000403A
:10B810000549096889B201EBC000044901EB400009
:10B820008089C0F309007047505C00400060004010
:10B830000449096889B201EBC000034931F81000DE
:10B8400080B27047505C0040006000400FB400239D
:10B850002DE9F0431E46DDE9338CBDF828700A2F30
:10B8600005D906604660BDE8F0035DF814FB0022D0
:10B870000DF1200914E009EB0215297B01290DD1F6
:10B88000D5E90414884509D364254D43B5FBFCF57F
:10B89000A54203D88B4201D20B462646521C92B2D7
:10B8A000BA42E8D3C0E90036DDE700002DE9FF5FCA
:10B8B000DFF8B4A099460024BAF81400DFF8ACB061
:10B8C00000EB40030F460BEB8301401C9046AAF8A7
:10B8D000140081E8800325469AF804002E4638B308
:10B8E0002348244905F0D0FEFCF759FE0A21FCF755
:10B8F00034FDFCF7DCFDAAF80E001F481F4905F0D7
:10B90000C3FEFCF74CFE0A21FCF727FDFCF7CFFD38
:10B91000AAF8100000205A4600EB400102EB81011A
:10B92000401C81E8800310F0FF00F5D08AF8044045
:10B93000BAF8141009B1AAF8144000205A4600EBD6
:10B940004001401C52F8213002EB81011C444B683D
:10B95000896800041D440E44000CF0D0009880E873
:10B960007000BDE8FF9F000048010020CC3000209F
:10B97000EA9DF7ECA6F1F43F557E2C5752C1F03FFB
:10B9800001480079704700001C0000200148C07881
:10B99000704700001C0000200148B0F910007047FB
:10B9A0001C00002003490878002801D000220A70FA
:10B9B00070470000080000200FB40023F0B53C25BC
:10B9C000129EDDE913100122F61F40F2E734102E1B
:10B9D00034D2DFE806F0080808210818181B1F1DDC
:10B9E0000823251F2B2FBDF82C2022B14FF43C72C9
:10B9F0000A807A2103E04FF4C8720A803221018064
:10BA0000F0BC5DF814FB0C800580F9E70A2312E016
:10BA1000022310E00A800BE019230CE00622F9E76C
:10BA20004FF47A620A8040F6B831E8E72D22F1E758
:10BA30000380E5E705230B800280E1E70B80F7E751
:10BA40000148006870470000380300200148408822
:10BA500070470000600000200148408A70470000E5
:10BA60004801002001480078704700006000002075
:10BA70000148B0F9120070471C0000200148C0784E
:10BA8000704700004801002010B504460020182926
:10BA900036D2254A34D2DFE801F00C0E1214161803
:10BAA0001A27292B2D1D1F22242F363A383C3E40C1
:10BAB0004244118800E0518861F30F0020E0918832
:10BAC000FAE7D188F8E71189F6E75189F4E7FFF73B
:10BAD000B7FF15E0D06813E092F829100EE0D06AA5
:10BAE0000EE0114830300BE0518AE5E7918AE3E738
:10BAF000118AE1E7D18ADFE792F8281061F30700A5
:10BB0000C4E9000510BD118BD6E7518CD4E7918CA8
:10BB1000D2E7118CD0E7518BCEE7918BCCE7D18B5C
:10BB2000CAE7D18CC8E70000E43000200148406833
:10BB300070470000000000200148007870470000B6
:10BB40001C00002001488078704700001C00002085
:10BB50002DE9F0410025FFF7FFFD064600240320F4
:10BB6000FFF766FD641CE4B20544082CF7D31848BF
:10BB7000EC088088201A00B2FCF76DFC05461549D8
:10BB8000FCF77BFB074628461349FCF776FB294662
:10BB9000FCF773FB3946FCF718FB1049FCF715FB63
:10BBA0003146FCF712FB0E4F3946FCF766FBFCF7FB
:10BBB0007EFC05B239463046FCF75FFBFCF777FCAC
:10BBC00003493839C8820C832846BDE8F08100005B
:10BBD00054000020CDCC0C3EACC5A7B6AC1CC6C0F2
:10BBE0000000204170B500252C460320FFF720FD02
:10BBF00005440A20FEF778FC641CE4B2052CF4D35B
:10BC00000520B5FBF0F080B270BD00000A290DD30D
:10BC100000210A7802704978417002210A68C0F850
:10BC200002204A68C0F80620098911E001EB4102B0
:10BC3000084901EB82010A7802704A784270D1F813
:10BC40000220C0F80220D1F80620C0F80620498959
:10BC5000418170475C0300201CB501000AD0012916
:10BC60000AD0022805D104216846FFF70DFF00988D
:10BC700080B21CBD0221F7E70321F5E708B10448B3
:10BC800070470449012009680882002070470000BD
:10BC900034020020140300208020FFF7BDB810B547
:10BCA0008020FFF7B3F8002010BD0A4610B501460A
:10BCB000222000F0D7FA002010BD10B5144603462C
:10BCC0002222204600F012FA002010BD0146222058
:10BCD00000F0EAB97FB5002400F0B2F90121092093
:10BCE00002F046FD48208DF80F008025ADF80C507D
:10BCF00003208DF80E0003A94748FFF78BFB0721AF
:10BD00000120FFF773FB009501258DF806500020F8
:10BD10008DF804000C208DF805006846FFF78CF8BC
:10BD200017208DF808008DF809508DF80A508DF80D
:10BD30000B5002A801F02CFF03210C20FFF7B5FFE8
:10BD40003220FEF7D1FB03210C20FFF7AEFF0A20C3
:10BD5000FEF7CAFB0F210B20FFF7A7FF4FF49676E3
:10BD60000AE04DB100254FF003014FF002002DB164
:10BD7000FFF79BFF072104E00125F4E7FFF795FF9C
:10BD80000B210220FFF791FF0120FEF7ADFB4020C1
:10BD9000FFF79CFF00F00F00012806D8641CA4B236
:10BDA000B442DED9012004B070BD07210920FFF79D
:10BDB0007CFFEF210A20FFF778FFEF210E20FFF72D
:10BDC00074FF01210F20FFF770FF2DB10721022022
:10BDD000FFF76BFF252104E00B210220FFF765FF31
:10BDE00026210320FFF761FF02210C20FFF75DFFF2
:10BDF00000210620FFF759FF0F210B20FFF755FF09
:10BE00003E20FFF763FF3F20FFF760FF4220FFF770
:10BE10005DFF0020C7E70000000C014070B50C4634
:10BE200005460F210B20FFF740FF40210620FFF7BA
:10BE30003CFFE1B243232222284600F02DFA0521DF
:10BE40000620FFF732FFBDE8704007210B20FFF707
:10BE50002CBF00000020FDF7C5FB04A208211C2018
:10BE6000FEF7E6FC01F044FFFEE700004861726463
:10BE7000204661756C740000024900B10120C1F8D0
:10BE8000800170470000214238B50121042002F0F2
:10BE90006FFC0120ADF8000010208DF80300032096
:10BEA000054C8DF8020069462046FFF7B3FA0121E0
:10BEB0002046FFF730FB38BD000801400020FFF7A7
:10BEC000DBBF00002DE9FC41334CC8B102283AD158
:10BED0000F216846FFF7D8FD0C216846FFF7D4FD17
:10BEE00000980026C5B2207B401CC0B220730328F6
:10BEF0003FD3FDF7FBF9608A012D80B225D037E0F2
:10BF0000FFF726FE054602F00FF92082284604F0CE
:10BF100027F8FCF7AEFA02460B46012003F00CF9B5
:10BF2000208A80B202F038FFFFF700FE216B401A32
:10BF300002F02AFFFFF7FAFD2063208A08B10120F2
:10BF400000E00220E070BDE8FC81B0F5C87F0ED2B1
:10BF5000E07A401CC0B2E072022809D3E67202F017
:10BF6000D8FD00220D4B0D2003F0E6F800E0E6724C
:10BF70002673FDF747FA87B23846FCF78BFA02467C
:10BF80000B46002003F0D8F8012D02D1384604F00A
:10BF9000E3FAE670D7E700001C0000200000104024
:10BFA00070B50C46054603F0F9FB6006000E03F081
:10BFB0002BFC002003F028FC284603F025FCBDE8FC
:10BFC000704003F003BC2DE9F0419046069E0D46FB
:10BFD0000446002703B1402703F0E0FB4FEA486026
:10BFE000000E03F011FC384603E0012E0AD014F8CD
:10BFF000010B03F009FC6D1EEDB2F6D2BDE8F04175
:10C0000003F0E4BB2078C043C0B203F0FDFB641C26
:10C01000F1E7000010B5094A0024C2F89841C2F8BF
:10C020009441204602F5CA72FEF77CFA0120506066
:10C030000020FEF777FA546010BD00000080214216
:10C0400008B50121082002F093FB6020ADF8000044
:10C0500014208DF8030003208DF80200694605487E
:10C06000FFF7D8F904480121C0F89811C0F89411DD
:10C0700008BD0000000C01400080214230B5094A93
:10C080000025C2F898510124C2F89441284602F5CF
:10C09000CA72FEF747FA54600020FEF743FA556073
:10C0A00030BD00000080214230B50D46044600F04E
:10C0B00093F86006000E00F071F800F0B7F828461B
:10C0C00000F06CF800F0B2F800F086F8012000EB08
:10C0D0004400C0B200F062F800F0A8F8002000F0C0
:10C0E00031F8044600F08EF8204630BDF0B51F460A
:10C0F00016460D46044600F06FF87006000E00F07C
:10C100004DF800F093F8384600F048F800F08EF84B
:10C1100000F062F8012000EB4600C0B200F03EF8EB
:10C1200000F084F807E00DB1012000E0002000F0ED
:10C1300009F804F8010B6D1EEDB2F4D2BDE8F04031
:10C1400000F060B82DE9F041134D0024012680462F
:10C15000C5F8946122462746C5F898710020FEF77D
:10C16000E1F9C5F898616006040ED5F8140108B12C
:10C17000641CE4B20020FEF7D5F9521CD2B2082AA2
:10C18000EAD3B8F1000F04D0FFF744FF2046BDE822
:10C19000F081FFF773FFF9E700802142F0B50D4D04
:10C1A00000260446C5F8986132460127E009C5F823
:10C1B00094016006040E0020FEF7B4F9C5F89871EA
:10C1C0000020FEF7AFF9C5F89861521CD2B2082AD8
:10C1D000ECD3F0BD00802142094A10B50120C2F81D
:10C1E0009401C2F89801002002F5CA72FEF79AF98C
:10C1F000002414602046FEF795F9546010BD00003D
:10C2000000802142084A10B50020C2F89801C2F807
:10C21000940102F5CA72FEF785F9012454600020EA
:10C22000FEF780F9146010BD0080214230B50C4C3F
:10C2300001221546C4F894210020FEF773F9D4F8C2
:10C24000140100B90022C4F898510020FEF76AF9E1
:10C250000020C4F89801FEF765F9104630BD0000D3
:10C260000080214270B515460E460446FFF7B4FF24
:10C270006006000EFFF792FFFFF7D8FF3046FFF78A
:10C280008DFFFFF7D3FF2846FFF788FFFFF7CEFFAC
:10C29000BDE87040FFF7B6BFF0B51E4617460C4626
:10C2A0000546FFF799FF7806000EFFF777FFFFF7C7
:10C2B000BDFF304601E015F8010BFFF76FFFFFF7F8
:10C2C000B5FF641EE4B2F6D2BDE8F040FFF79ABFB6
:10C2D00002494CF6CC400860704700000030004036
:10C2E00002494AF6AA20086070470000003000406A
:10C2F00001494860704700000030004001498860F3
:10C30000704700000030004001490860704700009D
:10C310000030004010B5134C2068017A022904D087
:10C32000042902D0062905D015E0FDF753FF206847
:10C33000007A11E04178052909D10178490606D132
:10C34000C07802F0FDFD08480068006A8047074891
:10C35000006880688047082021680872BDE81040A6
:10C3600001F0C0BF140300201C03002018030020AC
:10C3700070B50024FDF746F885B22846FCF78AF828
:10C3800002460B46002002F0D7FE42F23410114E56
:10C39000854205D2002233460D2002F0CDFE012455
:10C3A00047F61810854207D900224FF080430D2030
:10C3B00002F0C2FE44F004042846FCF70BFD30B145
:10C3C000002233460D2002F0B7FE44F00804204658
:10C3D00070BD00000000F03F7FB50C46054601210E
:10C3E000042002F0B9F9ADF80040ADF80450002483
:10C3F000114DADF80640ADF802406946284603F0FD
:10C4000061FD0121284603F03DFD01221146284629
:10C4100003F04FFD0121284603F041FD1E208DF859
:10C420000C008DF80D4001208DF80E008DF80F00E6
:10C4300003A801F0ADFB7FBD000800401CB5044619
:10C440000C216846FFF720FB092C0AD2FFF716FBE8
:10C45000012801D003480470BDE81C40022002F00E
:10C4600065BE1CBD080000202DE9F04FA7B0824634
:10C470001220FE4E24900621F47B6846FFF7C6FB8F
:10C4800000982922C0F30728F94917A8FBF746FEB0
:10C49000F74F97F829008DF88500F86A2290386BDD
:10C4A000239026A825A9CDE90A10242209941BA9C6
:10C4B0006846FBF733FE17AD95E80F00FFF77CFAEF
:10C4C000F079002518B1F5713846FDF7DBFC4FF027
:10C4D0000109182C19D0172C17D03079022814D044
:10C4E0000020FDF77FF8307901280ED110231A467D
:10C4F000194602200095FEF73DF910231A46194609
:10C500007020CDF80090FEF735F9E01F014600904D
:10C5100014204FF00A0B122974D2DFE801F0091A37
:10C520003445546574829DACBBCCDBEFFEECEBEA8A
:10C53000307830B13570388CB082B988B1FBFBF0FF
:10C540007082CCA200210220FEF772F90122249B06
:10C550000FE0307830B13570388CB082F988B1FB9B
:10C56000FBF07082C5A200210220FEF761F9249B36
:10C570000222C4A10CA804F077F80CAA00215820CC
:10C58000FEF756F91FE2307830B13570388CB08242
:10C590003989B1FBFBF07082BCA200210220FEF7BA
:10C5A00047F90322249BE4E7307820B13570A6F8E0
:10C5B0001490388C7082B7A200210220FEF738F95F
:10C5C0000422249BD5E7307830B13570388CB082A6
:10C5D0007989B1FBFBF07082B1A200210220FEF745
:10C5E00027F90522249BC4E7317819B13570B08250
:10C5F000788A7082ADA200210220FEF719F9062286
:10C60000249BB6E7DDE1317819B13570B082B88A84
:10C610007082A9A200210220FEF70AF90722249BBA
:10C62000A7E7307820B13570A6F81490388A708268
:10C630003079012808D1317AB6F91200814203D04D
:10C64000C0B2307201F062FB9EA200210220FEF710
:10C65000EFF80822249B8CE7307820B13570A6F8DB
:10C660001490388B70829AA200210220FEF7E0F825
:10C670000922249B7DE7307820B13570A6F814900C
:10C68000F88A708295A200210220FEF7D1F80A22D2
:10C69000249B6EE7307830B13570388CB082F98BDE
:10C6A000B1FBFBF0708290A200210220FEF7C0F8DF
:10C6B0000B22249B5DE7307820B13570A6F81490EA
:10C6C000788B70828BA200210220FEF7B1F80C2239
:10C6D000249B4EE7307820B135706420B082B88B4F
:10C6E000708287A200210220FEF7A2F80D22249B6F
:10C6F0003FE7A0E02FE01FE00FE0FFE7307820B138
:10C700003570A6F81490788C70827FA200210220E8
:10C71000FEF78EF80E22249B2BE7307820B135707F
:10C72000A6F81490B88C70827AA200210220FEF73D
:10C730007FF80F22249B1CE7307820B13570A6F8D3
:10C740001490F88C708275A200210220FEF770F818
:10C750001022249B0DE7307800B1357072A20021C1
:10C760000220FEF765F8112246A10CA8249B03F0D5
:10C770007BFF0CAA00215820FEF75AF830790128D7
:10C7800002D0022822D021E1B8F1000FFBD0B0790D
:10C79000401CB071707918B1102166A21C2002E013
:10C7A00067A210211420FEF743F8707940B10020F1
:10C7B0007071B079062805D201234FF4FA722AE08D
:10C7C0000120F5E7B5717571357121E0B8F1000F01
:10C7D0004AD0B079401CB071707930B3B07A01287A
:10C7E00002D0022804D00AE0102158A21C2002E046
:10C7F00059A210212C20FEF71BF87079C8B1002037
:10C800007071B0790628D7D3B57175713571B5726D
:10C81000012342F21072062101A802F08BFD4FF0B5
:10C8200000080620FCF7E6FECDE0102144A214200B
:10C83000E1E70120E4E7307800B1357048A200213B
:10C840000220FDF7F5FF12220EA10CA8249B03F095
:10C850000BFF0CAA00215820FDF7EAFF30790128D0
:10C8600002D1B8F1000F7FE0AAE000009C01002097
:10C870001831002054312054656D7000543220541A
:10C88000656D70002532642F2564000054332054F8
:10C89000656D700054656D70205374657000000004
:10C8A000536C6565702054656D700000536C656550
:10C8B000702054696D65000049646C652054696D91
:10C8C000650000004261636B6C696768740000007A
:10C8D00054656D70556E6974000000004469737092
:10C8E0006C61794469720000426F6F737454656DB6
:10C8F00070000000506F7765725372630000000093
:10C900004D696E566F6C74004C6F7743757272652B
:10C910006E740000504450774D6178004D73656E21
:10C92000556E69740000000054656D7043616C6958
:10C9300062000000436F6D706C65746564000000F8
:10C940002020202020202020202020004F766572EB
:10C950002074656D700000004E6F207469702100B6
:10C96000526573746F7265002AD0B079401CB07143
:10C97000707920B1AFF2440210211C2002E0FEA227
:10C9800010211420FDF754FF707940B10020707120
:10C99000B079062805D201234FF4FA7207E001208E
:10C9A000F5E7B57175713571012342F210720621F8
:10C9B000684602F0BFFC4FF000080620FCF71AFEA4
:10C9C00056E0182C54D03079022851D00098ED4907
:10C9D000009111287CD2DFE800F00909097B0912D7
:10C9E000127B1C2909347B3B6F7B4200388BB6F9E4
:10C9F000122088BB53E04E2002F018FE05E0B6F985
:10CA00001220E1A10FA803F02FFE10210FAA36205B
:10CA100012E0708A40B10320102300901A46194694
:10CA20003820FDF7A7FE23E00220F5E7708A0128F1
:10CA300005D0D7A210212C20FDF7FAFE18E0D6A2CF
:10CA4000F8E7B6F912200AB1D5A13AE0D5A23CE048
:10CA5000708A10B1D4A238E016E0D4A235E00121EA
:10CA600002A8FFF711F8029801B27182307910B173
:10CA7000B07988B35FE1388B78B1012003F0A8FA70
:10CA800000B290FBFBF27082C9A10FA803F0ECFD8D
:10CA90001023082219460195ADE791FBFBF2C4A1D2
:10CAA0000FA803F0E1FDB74810231038CDE90005C9
:10CAB000082219469FE70BE0B6F91220002ACCD0D5
:10CAC000BCA10FA803F0D0FD0FAA10213820B3E7B6
:10CAD000B6F91220B9A195E7FFE741F28832BAF121
:10CAE000010F0DD0BAF1020F3AD01221BAF1040FA2
:10CAF0007ED0BAF1050F7CD0BAF1070F7AD014E1DD
:10CB00003079012801D0E8B112E1708AB18A401A67
:10CB100001B27182BDF89800814200DA7082122C55
:10CB200002D0152C07D00BE0B6F91200012806D070
:10CB3000022804D004E0B6F91200122800DA758247
:10CB4000012311E1641EE4B2062C00D8182486F8F3
:10CB500000900020FCF746FD204602F0D3FA00E1E9
:10CB60003079012801D018B3E2E0708AB18A401A06
:10CB700001B27182BDF89800814200DA7082122CF5
:10CB800002D0152C07D00BE0B6F91200012806D010
:10CB9000022804D004E0B6F91200122800DA7582E7
:10CBA00001230621684602F0C5FB01F0A1F8BCE0B4
:10CBB000172C23D086F8049001230621684602F042
:10CBC000B9FB182C41D186F80990B57186F805900B
:10CBD000F98A4846012906D07A4908707A490870CE
:10CBE0000120FCF75DFC794801F071FF012302E0B0
:10CBF00035E056E0A9E04FF4FA72B5E0B6F912A0BC
:10CC0000FEF736FF0390B5714FF4FA7B86F8059076
:10CC100001235A460621684602F08CFB388B012816
:10CC200005D15146002003F0D3F90FFA80FADA4516
:10CC30000CDA0398B0F5C87F08DDFEF7D3FF86F85D
:10CC4000049002F0AFFB02F023F96EE00220307195
:10CC5000DA4502DB86F80A906AE0B07268E0307963
:10CC6000012821D0B0B163E0122C0AD0152C7FF43A
:10CC70005AAFB6F91200401E1128BFF454AF7182AA
:10CC80005EE7B6F91200012801D00228F8D103208E
:10CC9000708255E7641CE4B2192CFFF458AF0724E6
:10CCA00055E7307901280AD1708AB38A184403B253
:10CCB0007382BDF894008342D6DD7082D4E7B8BB9E
:10CCC00086F8079086F800900020FCF78BFC29225C
:10CCD0003E4917A8FBF722FA97F829008DF885003E
:10CCE000F86A2290386B239024221BA96846FBF730
:10CCF00015FA0DF15C0A9AE80F00FDF7ADF8FCF7A4
:10CD00006DFE707A012802D1757202F029F80020B8
:10CD100002F0F8F9002213460C2002F00DFA06206A
:10CD2000FCF768FC0620FCF741FC3079012800D0B4
:10CD3000002002F0E1F9B8F1000F72D03079C0B1F3
:10CD400001285BD0B079A8B16BE030790128B6D169
:10CD50003571182C05D0708A214682B21B4802F02A
:10CD600023F8012342F210720621684602F0E2FA2B
:10CD7000DBE72DE04DE000002020202020202020B7
:10CD800020200000FC24010825336453200000000B
:10CD90004C656674200000005269676874000000EA
:10CDA00025645300444300004F4E00004F464600A8
:10CDB00025336400256457200000000025336420DB
:10CDC000000000004A010020480100201831002026
:10CDD00086F8079086F800900020FCF703FC0020FE
:10CDE00002F090F9002213460C2002F0A5F906206B
:10CDF000FCF700FC0620FCF7D9FB12E03571708AC5
:10CE0000214682B2094801F0CFFF0020FCF7EAFB7F
:10CE100000E03571012342F210720621684602F0EB
:10CE200089FA00F065FF27B0BDE8F08F18310020C7
:10CE3000F0B58F4C97B00546E67B062110A8FEF7AB
:10CE4000E5FE072113A8FEF7E1FE0027002E45D0DE
:10CE5000022E7DD0012E7CD1207800287AD0FEF7DA
:10CE600007FEFBF7F8FA064601216846FEF70CFEBE
:10CE70000098277005B2FCF7C5FA07B23846FBF7F1
:10CE8000F8FA02460B46002002F056F9FEF75AFE69
:10CE9000784C002877D078493046FBF720FAFBF72A
:10CEA0006BFB02460B4675A102A803F0DDFB02AA4C
:10CEB00000210220FDF7BCFC3846FBF7CCFA2146E6
:10CEC000FBF70DFAFBF758FB0A2295FBF2F2CDE9CE
:10CED00000016DA102A803F0C7FBC2E008210AA867
:10CEE000FEF794FE9DF84D0038B1A07B401C00F089
:10CEF0000300A0730820FCF77DFB07210DA8FEF7B7
:10CF000085FE9DF834008DF828009DF835008DF8D9
:10CF10002900DDF83600CDF82A00DDF83A00CDF81A
:10CF20002E00BDF83E00ADF832009DF8290010B982
:10CF3000E078012809D1E7700020FCF753FBA07BC3
:10CF400002F0DCFA0720FCF755FB0126012D02E078
:10CF500057E016E064E017D040F6B837022D4AD00B
:10CF6000042D37D0052D0CD126700020FCF73AFB9C
:10CF7000022002F0C7F801233A4606210DA802F06C
:10CF8000D9F917B0F0BD59E00220FCF7A1FAFCF77F
:10CF9000ADF9FEF76DFDB0F5C87F05DA00223E4B16
:10CFA0000D2002F0C9F8ECE7022001F081FDFFF747
:10CFB000DFF90028E5D12670FCF714FB032002F00E
:10CFC000A1F80022354B0C2002F0B6F8012002F047
:10CFD00093F8D6E726700020FCF704FB072002F048
:10CFE00091F800224FF080430C2002F0A5F80123B5
:10CFF00041F28832C1E726700020FCF7F3FA0120E5
:10D00000B7E7207860B127700020FCF7EBFA24A284
:10D0100025A102A803F028FB102102AA0F2023E07B
:10D020009DF841000028ACD00020FCF7DBFA00207E
:10D0300002F068F80620FCF7DDFAA2E71CA2002146
:10D040000220FDF7F5FB3846FBF705FA2146FBF712
:10D0500046F9FBF791FA02460B4617A102A803F026
:10D0600003FB02AA10210220FDF7E2FBD8E7000033
:10D070009C01002000007A440000C84254697052AC
:10D080003A252E316600000054656D703A25642003
:10D09000563A252E31665600000010400000F03F41
:10D0A00056322E30300000005665723A257300006B
:10D0B000546970523A2D2D0054656D703A2D2D2013
:10D0C000563A252E316656002DE9F04FDFF87CA444
:10D0D00091B004469AF80F6006210AA8FEF796FD63
:10D0E00010216846FEF7D0FC00980B2105B2684677
:10D0F000FEF7CAFC4FF00A084FF0010B4FF0000991
:10D10000032E20D0042E6FD113216846FEF7BCFCFD
:10D110000098002D86B268D04FF47A61012002F0A9
:10D1200057FF81B2B1FBF8F74FF4FA71012002F01A
:10D130004FFF81B2B1FBF8F0BAF81010B9427CD9B8
:10D14000AAF8107076E1FEF7F1FC01216846FEF7BF
:10D150009BFC009806B2012001F0CEFFFC4800784D
:10D16000A8B105216846FEF78FFC009807B2BDB153
:10D170003146012002F02CFF06B207F13200864250
:10D180000ADA6438864207DD97FBF8F206E0FEF71C
:10D1900063FCFEF761FDE9E796FBF8F2EDA10CE018
:10D1A00007F11200864205DA2438864202DD97FB39
:10D1B000F8F201E096FBF8F2E8A102A803F054FAB5
:10D1C00042F22830864204DA022102AA0846FDF71C
:10D1D000E7FADF48007848B105216846FEF754FCBD
:10D1E0000098E0A286B20EE010E112E1FEF734FCF6
:10D1F000FEF732FD0646FEF72FFC421CDAA102A81C
:10D2000003F032FA02AA18215620FDF7F1FA474638
:10D21000B6FBF7F2D5A102A803F026FA02AA102164
:10D220006420FDF705FB9AF80200564648B1401EFF
:10D23000B0701021CEA2582000E0F7E0FDF7D8FA38
:10D2400007E00823062210215820CDF80090FCF7B3
:10D25000BFF9F0694FF00001002868462CD0FEF7B6
:10D2600013FCF0690099B0FBF7F2801A89B2084408
:10D27000F061B0FBF7F04FF47A7100F5FA70B0FB93
:10D28000F1F2BCA102A803F0EFF902AA0021642088
:10D29000FDF7AEFA707830B186F8019001F06CF8C5
:10D2A000F08201F07DF8042C0ED0052C24D0012C46
:10D2B00048D0022C5DD092E0FEF7E6FB009880B2E9
:10D2C00000EB80004000D3E7FEF7C6FBFEF7C4FC8E
:10D2D000B0FBF7F030820020FCF784F90220FCF765
:10D2E000F7F8042001F00EFF012341F288320621F5
:10D2F0000DA802F01FF872E0002001F0FDFE0020F2
:10D30000FCF770F9002001F0FDFE0220FCF7E0F8C8
:10D31000002213460C2001F00FFF012001F0C8FB92
:10D32000FCF770F880B2FBF7B5F802460B46002018
:10D3300001F002FF3220FDF7D7F8FEF733FB86F845
:10D3400003B04CE0FEF788FB401C07B2022F00DD63
:10D350000027B8B201F0DEFEB8B2FEF77DFC00B2E5
:10D3600025B10146002002F033FE00B201F0B6FE06
:10D3700035E0F07A88B116216846FEF785FB009DFE
:10D3800086F80B9006216846FEF77EFB0098FBF7B7
:10D39000A7F8308328B201F0A1FE708B401C80B248
:10D3A00070830F281BD3A6F81A90717B484649B1A9
:10D3B0007249CDE9001010230C220021562002F002
:10D3C00035F906E0009010230C2200215620FCF7CE
:10D3D000FFF800F08DFC707B28B100207073FEF721
:10D3E00089F910B111E00120F8E7F07A68B986F800
:10D3F0000BB0308B00B201F071FE10230C22002123
:10D400005620CDF80090FCF7E3F8347311B0BDE876
:10D41000F08FBAF810004FF4C872904202D9AAF8FF
:10D42000102007E0322805D2322001E0814201D2EB
:10D43000AAF8100052A200211C20FDF7F9F9574666
:10D44000BAF8102049A102A803F00EF902AA10218F
:10D450003220FDF7EDF910231A4619460220CDF8C7
:10D460000090FDF787F910231A4619467020CDF871
:10D4700000B0FDF77FF900F03BFC4FF6FF78042C7D
:10D4800008D0052C06D0012C07D0022C05D0072C83
:10D490000ED02FE0388A304401E0388A801B388271
:10D4A000012341F2883206210DA801F043FF21E05B
:10D4B0003C8A0020FCF796F825B12146002002F0B6
:10D4C00087FD84B204EB8400400000B201F006FE48
:10D4D000FEF7C2FA398A01EB810208EA420101F043
:10D4E0006DFF0120FBF7F4FF032001F00BFE00208D
:10D4F00001F002FE9DF82900002887D0388A4646B0
:10D5000000EB800008EA400425B12146002002F02B
:10D510005FFD84B20020FCF765F820B201F0DEFD6B
:10D52000FEF79AFA398A01EB810106EA410101F01E
:10D5300045FF0120FBF7CCFF032001F0E3FD0620AF
:10D54000FCF758F8002001F0D7FD5FE79C010020B0
:10D55000490100202533643C000000002533643B72
:10D56000000000007A5A000054256400253364004E
:10D570004D000000253264560000000074300108A0
:10D58000576F726B2054656D7000000008B5012163
:10D59000042001F0EDF84FF4A060ADF80000482041
:10D5A0008DF8030003208DF8020069460148FDF75D
:10D5B00031FF08BD000801402DE9F0474B49D1F883
:10D5C00020014B4D2A6840EA42002860D1F828111A
:10D5D0006A684FF0000A41EA4201A5F10807696054
:10D5E000401C01D187F802A0414E00244FF00109F0
:10D5F000361F4FF0FF3855F82400FEF781F83055FC
:10D60000F87858B12878C00708D02879C00705D025
:10D6100087F803A0C5F80080C5F804803078022898
:10D6200013D97078022810D92878C0070DD028792E
:10D63000C0070AD00720FEF701FFC5F80080C5F833
:10D64000048086F800A086F801A0305D20282FD342
:10D65000F87810BB14B1012C12D01FE030782028CC
:10D660001FD3707805281FD80220FEF7E7FE7878D0
:10D6700008B987F80390B87878B987F802902FE056
:10D68000707820280AD33078052807D80520FEF7BF
:10D69000D5FE787808B987F8039021E03078202803
:10D6A00002D2707820281BD30820FEF7C7FEF2E7CD
:10D6B000B0B115F82400C00712D01CB12868401C76
:10D6C00009D00DE06868401C0AD10120FEF7B6FEC3
:10D6D000C5F8008004E00420FEF7B0FEC5F8048021
:10D6E000641CE4B2022C86D3BDE8F087000021421E
:10D6F00010000020164A10B5126800212128137866
:10D7000003F07F0302D0202804D009E0212B1DD193
:10D71000104914E0212B00D10F49104C2023237015
:10D72000137803F07F03212B09D1FE2807D15088FD
:10D7300028B9908818B9D088012800D1084929B1A2
:10D740000020916150828847002010BD022010BD4A
:10D75000140300200D9600082996000830020020CE
:10D760007DBC0008014902F0F3B900004802002026
:10D77000014902F0EDB900004002002005490968A6
:10D78000C978052901D900207047034A02EBC1017D
:10D7900002F0DEB9140300208002002009B900283D
:10D7A00000D0022070470000124910B509680A78BD
:10D7B00002F07F02212A0CD1FF2804D0022816D0C3
:10D7C000222814D005E0488818B9888808B9C88884
:10D7D00008B1022010BD0120FBF7AAFE0220FBF7D2
:10D7E00093FE06490448086005490020087000209F
:10D7F00010BD00001403002055534243A8340020FC
:10D80000CC01002070B54C4800254D4985724B482D
:10D810000968C0794872284601F08AFB4FF400710C
:10D82000002001F041FC2021002001F025FC4021D6
:10D83000002001F0A9FB434C002014F82C1F01F03C
:10D84000B3FB8021002001F0F9FB0020FBF79EFED6
:10D85000002001F0E1FB0021012001F025FCC021A6
:10D86000012001F0EBFB2021012001F005FC00214B
:10D87000012001F0B9FB0021022001F015FC4FF45A
:10D880008071022001F080FB2178022001F08CFBE6
:10D890004FF440563146022001F0A6FB0021022041
:10D8A00001F0EAFB0021032001F0FEFB4FF4A07120
:10D8B000032001F0C3FB2021032001F0DDFB002148
:10D8C000032001F091FBF110042001F0EDFB711138
:10D8D000042001F0B3FB0021042001F085FB20218E
:10D8E000042001F0C9FB0021052001F0DDFB4FF40D
:10D8F000C871052001F048FB4021052001F054FBD0
:10D900003146052001F070FB0021052001F0B4FB39
:10D910002178002001F048FB002001F07DFB002071
:10D9200001F00EFB0849012008600949074808601A
:10D930000848057070BD000018350020A6300108A9
:10D940001403002050020020D0020020555342430F
:10D95000A8340020CC01002003480178202901D1FF
:10D960000021017070470000300200207047000065
:10D97000094810B500680024847200F0EBFC0748E9
:10D98000046007494FF4044008800449091F0860F7
:10D990000448046010BD000014030020445C0040F3
:10D9A00020030020D0020020044805490068884276
:10D9B00002D00220FBF7BEBA70470000A834002056
:10D9C00055534243124A10B5107802280AD04FF43A
:10D9D0004054032810D0042801D0052816D1002077
:10D9E00010700DE00B48C07B28280FD1D2E901014F
:10D9F000BDE8104001F000B90121002001F0FEFC5B
:10DA00002146BDE81040022001F0EEBA10BD000032
:10DA1000CC010020A834002070B51648C47B022039
:10DA2000FDF7F6FE144D02464FF4807168801148F0
:10DA3000403800F04BFB287818B1012805D00220AF
:10DA400006E0BDE87040FBF795BA2A2C0CD0012007
:10DA5000FBF770FA2421052001F0F4FCBDE87040CA
:10DA60000021022001F0CABCD5E90101BDE87040E7
:10DA700001F042B9A8340020CC010020094810B5BB
:10DA80000068807A00280BD0074905200860012033
:10DA9000FBF74EFD0220FBF737FD0449002008701C
:10DAA00010BD000014030020D0020020CC01002093
:10DAB0000149042008607047D0020020FEE7000002
:10DAC0002DE9F04101880B0401F01F0249D4284BD5
:10DAD00011F4E04F03F108044FF0050C21784FF0EA
