:020000040800F2
:1080000038450020018100080BD300080DB7000897
:1080100009D30008678F00089BFC000800000000DF
:10802000000000000000000000000000F9E6000869
:1080300051A40008000000009DD80008F1F70008D6
:1080400017810008178100081781000817810008B0
:1080500017810008178100081781000817810008A0
:108060001781000817810008178100081781000890
:108070001781000817810008178100081781000880
:108080001781000817810008178100081781000870
:108090000DFC0008178100081781000879A9000865
:1080A0001781000817810008178100081781000850
:1080B0001781000817810008F5F7000817810008EC
:1080C0001781000817810008178100081781000830
:1080D0001781000817810008178100081781000820
:1080E000178100081781000817810008DFF80CD0FD
:1080F00000F0FEFC00480047351301083845002019
:1081000005480047FEE7FEE7FEE7FEE7FEE7FEE77D
:10811000FEE7FEE7FEE7FEE7ED80000840EA010328
:108120009B0703D009E008C9121F08C0042AFAD22D
:1081300003E011F8013B00F8013B521EF9D27047F1
:10814000D2B201E000F8012B491EFBD27047002299
:10815000F6E710B513460A4604461946FFF7F0FF46
:10816000204610BD421E12F8013F002BFBD111F832
:10817000013B02F8013B002BF9D17047CAB2401E07
:1081800010F8011F8A4202D00029F9D1002070475F
:10819000421C10F8011B0029FBD1801A704730B532
:1081A00004460020034600E05B1C934203D2E05CDF
:1081B000CD5C401BF8D030BD034611F8012B00F810
:1081C000012B002AF9D118467047F0B480EA010269
:1081D000D40F4200B2EB410F02D2024608461146CC
:1081E0004A0042D0C30DDDB2C1F3C752AD1A202DF3
:1081F00035DAC1F3160141F4000204B15242C5F16F
:10820000200602FA06F12A411044B3EBD05F23D0D6
:10821000C4B1012DA0EBC35009DCF0BC4FF000420B
:1082200002EAC352DBB200F5000000F03FBA4000A2
:1082300000F1807000EBC350A0F1807040EAD17073
:10824000490009E0490841EAC071A0EBC35000F5BC
:108250000000400800EBC350F0BC00F01EBA6142C1
:10826000012202EB4101001BF6E7F0BC704781F0F0
:108270000041AAE780F00040A7E780EA010210B5BC
:1082800002F00043400022D04A001FD0010E01EB53
:108290001261C0F35600C2F3560240F4000042F4EB
:1082A0000002A0FB022000047F39140400D0401C0F
:1082B00050EA124001D44000491EC2B20C0604EB41
:1082C000D010401C4008802A02D003E0002010BDDE
:1082D00020F00100002900DA0020184310BD30B45E
:1082E00080EA010202F0004530F0004221F0004037
:1082F00013D090B1C30DD40DC2F31601C0F3160014
:10830000E41A41F4000140F400027D34914201D3AB
:10831000641C00E04900002C02DA30BC00207047E9
:108320004FF400000023914201D3891A034340080F
:108330004FEA4101F7D151B1914202D14FF00041D2
:1083400005E002D24FF0010101E06FF0010103EB03
:10835000C450284430BC00F0A0B9420005D0C0F39E
:10836000C7525242914201DC0020704700EBC150DD
:1083700070472DE9FE4F81EA030404F0004421F028
:10838000004100944FF0000B23F0004350EA010439
:108390005ED052EA03045BD0C3F30A54C1F30A551A
:1083A0002C44A4F2F3340194A0FB0254C1F3130152
:1083B00041F48011C3F3130343F4801301FB02441F
:1083C00000FB034E840A970A44EA815447EA835724
:1083D000A4FB076802958D0A05FB07854FEA932CDD
:1083E00004FB0C542705029D4FEA065847EA16374E
:1083F000B5EB08056EEB070C870E920E47EA811766
:1084000042EA8312A7FB0201B6EB0B0164EB000406
:108410002B0D43EA0C335E1844EB1C50DA465146F0
:10842000E7FB0201C5F313044FEA0B3343EA14538D
:108430004FEA0432019C43EA0603A4F10C040294BF
:10844000009CCDE900B400F06EF903B0BDE8F08FF8
:1084500000200146F9E7C10F80EAE0700844CA072E
:108460009623002100F022B996230022114600F045
:108470001DB90EB5C10F80EAE0700844CA0700219B
:1084800040F233438DE80E000A460B4600F04BF9EC
:1084900003B000BD0EB540F2334102910021CDE999
:1084A00000110A460B4600F03EF903B000BD00F093
:1084B000004220F00040C10DC0F3160040F400005F
:1084C0007F2901DA00207047962903DCC1F196016B
:1084D000C84001E096398840002AF4D040427047F5
:1084E00020F00040C10DC0F3160040F400007F29C9
:1084F00001DA00207047962903DCC1F19601C840DB
:10850000704796398840704770B5C1F30A5201F040
:1085100000450024C1F3130140F2FF3341F4801100
:108520009A4201DA002070BD40F233439A42A2F22F
:10853000334203DC524200F0A0F800E090402C43AC
:10854000F1D0404270BDC1F30A5210B5C1F313011E
:1085500040F2FF3341F480119A4201DA002010BD4D
:1085600040F233439A42A2F2334203DC524200F01B
:1085700084F810BD904010BD00F0004230F0004083
:108580000AD0C10D01F56071C0F3160042EA015135
:10859000C20840071143704700200146704701F0B0
:1085A000004330B421F0004150EA010206D00A0D28
:1085B000A2F56072C1F31301002A02DC30BC002076
:1085C0007047440F44EAC104C100E01830BC00EB1E
:1085D000C25000F062B80000002801DBC0F100408A
:1085E000002901DBC1F100418142704730B50B46E3
:1085F000014600202022012409E021FA02F59D42D3
:1086000005D303FA02F5491B04FA02F52844151EA6
:10861000A2F10102F1DC30BD2DE9F05F054600203A
:1086200092469B4688460646814640241BE02846E3
:1086300041464746224600F020F853465A46C01AA3
:10864000914110D311461846224600F063FA2D1AC4
:1086500067EB01084F4622460120002100F05AFA3C
:1086600017EB00094E41201EA4F10104DFDC48464F
:1086700031462A464346BDE8F09F202A04DB203AD3
:1086800021FA02F00021704721FA02F3D040C2F132
:10869000200291400843194670470029A8BF70473F
:1086A000401C490008BF20F00100704710B4B0FA28
:1086B00080FC00FA0CF050EA010404BF10BC7047C3
:1086C00049B1CCF1200421FA04F411FA0CF118BFDD
:1086D000012121430843A3EB0C01CB1D4FEA0061AC
:1086E0004FEA102042BF002010BC704700EBC3507F
:1086F00010440029A4BF10BC7047401C490008BFAB
:1087000020F0010010BC704710B5141E73F1000476
:1087100008DA401C41F1000192185B411A4301D173
:1087200020F0010010BD2DE9F04D92469B4611B19D
:10873000B1FA81F202E0B0FA80F22032904600F005
:10874000E9F904460F4640EA0A0041EA0B015346A4
:108750005A46084313D0114653EA010019D0C8F114
:1087600040025046FFF789FF05460E4650465946DF
:10877000424600F0CFF9084305D0012004E020462E
:108780003946BDE8F08D0020054346EAE0762C43EB
:1087900037430A986305E40AA0EB08000022FD0AAB
:1087A00044EA47540A3002D500200146E9E70105B2
:1087B00010196941DDE9084500196941BDE8F04D2E
:1087C000A2E72DE9FE4F804681EA0300C00F0C4668
:1087D000009021F0004123F00045B8EB0200A941D0
:1087E00005D24046214690461C460B46024623F0E1
:1087F0000040104347D0270DC7F30A00C3F30A51C6
:108800000290401A019040286BDAC3F3130040F441
:10881000801B0098924620B10023D2EB030A63EB41
:108820000B0B01985946C0F14002504600F072F916
:1088300006460D4650465946019A00F07AF910EB6B
:1088400008006141002487EA115284EAE7731A4361
:1088500040D0009A62B3019A012A4FEA075215DC10
:10886000001B61EB02014FF0004202EA0752CDE922
:108870000042001C41F5801132462B46FFF753FFA2
:1088800003B0BDE8F08F40462146F9E7001B61EBDD
:108890000201001C41F5801300185B412018A2F56D
:1088A000001747EB030140EAD570B6196D4111E09E
:1088B0006D084FEA360645EAC0754FEA0752001BBD
:1088C00061EB0201001C41F5801149084FEA3000BC
:1088D0000019514132462B4603B0BDE8F04FFFF777
:1088E00013BF0098012240000023D0EB020263EB8B
:1088F000E073009821464FEAE074B8EB000061EBAA
:108900000401E9E783F000435BE781F0004158E7A9
:108910002DE9F04D81EA030404F0004B21F00045FD
:1089200014464FF0000A23F0004150EA050220D01F
:1089300054EA01021DD0C5F30A570246C5F31303DA
:10894000C1F31300C1F30A5640F4801543F48013B9
:10895000A7EB0608101BD64608F2FD3873EB05009E
:1089600002D308F1010801E092185B41B8F1000F51
:1089700003DA00200146BDE8F08D00204FF480119D
:10898000064684460EE0171B73EB050705D3121B42
:1089900063EB050306434CEA010C49084FEA30003B
:1089A00092185B4150EA0107EDD152EA030012D060
:1089B00082EA040083EA0501084305D0101BAB419D
:1089C00006D20122002306E000224FF0004302E01D
:1089D0006FF0010253101AEB06004CEB085110EB3C
:1089E0000A0041EB0B01BDE8F04DFFF78DBE2DE90C
:1089F000F04D00231A461B1A8A4103DB0020014672
:108A0000BDE8F08DC1F30A52C1F3130141F48015A2
:108A10004FF0000BD10702D100186D41521E002704
:108A2000044640F2FF11384601EB620A3E4680469A
:108A3000024600204FF48011FFF71FFEC21971415A
:108A4000BB1846EB0100B4EB030C75EB000C04D330
:108A5000E41A65EB000517460E46241908F10100DB
:108A60006D4180463428E3DDF91946EB0600091B09
:108A7000A84103D24FF0FF32134601E00022134613
:108A80001BEB070046EB0A51BDE8F04DFFF73CBE7B
:108A9000C1F30A52C1F3130140F2FF3341F48011D4
:108AA0009A4202DA00200146704740F233439A426C
:108AB000A2F2334202DC5242FFF7DFBD00F02AB8D7
:108AC00030B5041E71F1000404DB4FF00044404255
:108AD00064EB0101141E73F1000405DB1C464FF02A
:108AE0000043524263EB0403994208BF904230BDF9
:108AF000064C074D06E0E06840F0010394E80700EB
:108B000098471034AC42F6D3FFF7F4FA7C2E0108F4
:108B10009C2E0108202A04DB203A00FA02F10020F2
:108B200070479140C2F1200320FA03F319439040AB
:108B30007047202A06DBCB17203A41FA02F043EABD
:108B4000E07306E041FA02F3D040C2F12002914006
:108B500008431946704770B521F0004303430CD019
:108B6000C1F30A550024D5EB040564EB0403D617C2
:108B7000AD1AB34102DB0020014670BD201841EB65
:108B8000025170BD70B58C1810F8015B15F0070329
:108B900001D110F8013B2A1106D110F8012B03E096
:108BA00010F8016B01F8016B5B1EF9D12B0705D49E
:108BB0000023521E0DD401F8013BFAE710F8013BE7
:108BC000CB1A921C03E013F8015B01F8015B521E03
:108BD000F9D5A142D8D3002070BDC94301607047C8
:108BE0000029816802D041F0010101E021F001017A
:108BF0008160704730B587B0012140F2044005F034
:108C00008FF94FF4804005F075F95C20ADF8140041
:108C100000248DF8174005A9164802F029F9164DD1
:108C2000284600F02BF84FF46020CDE90204012023
:108C30008DF804408DF8100000948DF805406946C9
:108C4000284600F055F801212846FFF7C9FF2846BD
:108C500000F0ACF8284600F044F80028FAD1284685
:108C600000F0B3F8284600F02BF80028FAD107B03E
:108C700030BD000000080140002801400D4910B53A
:108C8000884202D1012144150AE00B49884202D1F1
:108C90000121041504E0094988420AD10121CC03CD
:108CA000204605F049F92046BDE81040002105F0B6
:108CB00043B910BD0024014000280140003C0140A0
:108CC000014600208968490700D501207047C06C23
:108CD00080B270470246002012680A4200D001208C
:108CE0007047014600208968090700D501207047B8
:108CF00010B542680E4B0C791A400B6842EA042208
:108D00001343436082680B4B1A40D1E9024323436B
:108D10004C7942EA440213438360C26A097C22F41C
:108D20007002491EC9B242EA0151C16210BD000081
:108D3000FFFEF0FFFDF7F1FF70B5072609290AD9FC
:108D4000C568A1F10A0404EB4404A640B543A3405E
:108D50001D43C56007E0056901EB4104A640B5432A
:108D6000A3401D4305611F23072A09D2446B521EED
:108D700002EB820293409C4391400C43446370BDDC
:108D80000D2A09D2046BD21F02EB820293409C434E
:108D900091400C43046370BDC46A0D3A02EB820239
:108DA00093409C4391400C43C46270BD816841F084
:108DB0000801816070470029816802D041F4A00158
:108DC00001E021F4A00181607047816841F0040155
:108DD000816070477CB506461421684602F08EFB20
:108DE0000098152184B2684602F088FB00998DB284
:108DF00054B102F071FB012806D16C43C83CA0B20B
:108E0000864201D201207CBD00207CBD2DE9F047C7
:108E100015460A4606886421540813464FF0000C94
:108E2000AE427DD300EB4206DFF8048136F8026CD7
:108E30004FF0FF37AE4278D874E0944275D830F8DE
:108E40001460AE422BD200EB440333F8023CAB4239
:108E50001CD900EB4401B0B231F8021CA1EB0000B8
:108E6000FFF7F9FA81463046FFF7FEFA0646284634
:108E7000FFF7FAFA3146FFF7FAF93946FFF76DFACC
:108E80004946FFF72CFA054620462CE004D1A4F110
:108E90000100FFF7E0FA38E0234664443FE001D1E7
:108EA000204630E000EB44067688AE4228D230F807
:108EB000141000EB44004088A1EB0000FFF7CBFA50
:108EC00081463046FFF7D0FA06462846FFF7CCFA2F
:108ED0003146FFF7CCF93946FFF73FFA4946FFF72D
:108EE000FEF90546601CFFF7BFFA3946FFF735FA71
:108EF0004146FFF76AF92946BDE8F047FFF7B7B9E1
:108F00000BD104F10100FFF7AFFA3946FFF725FA5C
:108F10004146BDE8F047FFF758B9A4461C4400E0BD
:108F200003E06408491E89B287D20020BDE8F087BB
:108F3000000080BF10B578B14FF48054012805D0EF
:108F400002280FD11021012005F064FD2146BDE863
:108F50001040022005F016BD1021BDE81040012090
:108F600005F058BD10BDFEE7C1B2000A40EA01207D
:108F70007047000070B55E4B5E4C00205988A4F12C
:108F8000400202E0155C2554401C8842FAD359483F
:108F9000626820301F294260A268826006D00220E9
:108FA000FFF7C8FF00201A21206020E0E07B28287E
:108FB00001D02A280AD1D4F81110227D09BA21F053
:108FC000FF0111435960E18A49BA99604A4A216810
:108FD000914253D1494A617B1268914203D8A17BE7
:108FE00009B110290CD90220FFF7A4FF2421052084
:108FF00005F0F6FEBDE870400021012005F0CCBE72
:10900000282860D01DDC1A2849D00DDC0A286AD037
:1090100005DC70B3032836D008282FD163E012286E
:1090200035D015282AD15EE01E2834D004DC1B2858
:1090300031D01D2822D156E0232838D025281DD133
:1090400039E08A284FD00CDC55284CD004DC2A2883
:109050003FD02F2812D142E05A2824D088280DD1A1
:1090600041E0A8283FD005DC8F283CD09E2805D1C0
:1090700039E024E0AA2836D0AF2834D00220FFF708
:1090800059FF2021B3E7BDE8704005F0D5BABDE82F
:10909000704005F047BABDE8704005F0D9BABDE8A8
:1090A000704005F071BABDE8704005F067BABDE8E0
:1090B000704005F0B1BABDE8704005F09BBABDE85C
:1090C000704005F0C9BAD3E90101BDE8704005F070
:1090D00061BAD3E90101BDE8704005F0DBBABDE833
:1090E000704005F0BDBABDE8704005F02FBA000031
:1090F000C4010020A8340020555342432C02002014
:10910000FEB500270E4604460097880801901E48C9
:109110004169490603D4416941F0400141611B4D59
:109120000120A86008E054F8040B0090009808F0B3
:10913000FBF90090009828600198411E0191F2D23D
:10914000286808F0F1F9009006F00300104901903A
:1091500013E014F8010B009A504000900297009819
:10916000C007009802D081EA500000E0400800905B
:109170000298401C02900828F1D30198421E0192E7
:10918000E7D20098C043FEBD00100240003002400C
:109190002083B8ED2DE9F84F0020ADF800004BF624
:1091A000BF7648F280084A4D4A4C40F68F7ADFF885
:1091B000289148F60F7B494F2FE0088810F00F00E8
:1091C00089F8000032D007EB8001D1F8002CADF80F
:1091D0000020BDF8002012040BD5D1F8002C02EAC3
:1091E0000A02C1F8002C3E4901EB800050F8040C43
:1091F0008047BDF8000000060FD599F8000007EB86
:109200008001D1F8002C02EA0B02C1F8002C35498C
:1092100001EB800050F8040C80472D484430006872
:10922000314908800004C8D4BDE8F88F2868208040
:10923000208800F030006080208800F440502080BA
:109240002868304080F4005080F0200040EA080098
:1092500028600888C00617D4296801EA0B01296034
:1092600002F0B6FC28E02188890401D580F4005082
:109270006188C90628D46188890601D580F020005C
:1092800040EA08002860CFE72868ADF80000BDF884
:109290000000000506D5296801EA0A01296005F0E9
:1092A000C7FD09E0BDF800000004B6D5286800EA53
:1092B0000A00286004F068F9286821883040C90451
:1092C000D1D580F48050CEE780F01000D3E70000C5
:1092D000005C00401A0300200803002000500040FA
:1092E00008020020EC010020240200202DE9F041BA
:1092F0003C4C20793C4F0126C7F88461042007F5D7
:10930000C27701F0B5F8032001F0C0FE00258046C9
:109310003D60042001F0ACF8032001F0B7FEFFF738
:10932000A3F807464046FFF79FF83946FEF79FFF30
:109330002E49FEF7A2FF2E49FEF79FFF2D49FEF7AB
:109340009CFF6FF00B01FFF708F82B49FEF7C7FFF2
:109350002A49FEF7C4FFFFF7AAF800B2002801DA95
:10936000002004E0B0F5C87F01DDA67003E0A57021
:10937000E179491CE171A178012902D1A179012982
:1093800001D06571A582A178A1711D4BA18A23F836
:109390001100491C88B2A082052801D3A5826671FC
:1093A00061790020002901460BD033F81120491CB7
:1093B0001044C9B200B20529F7D3052190FBF1F0A2
:1093C0000BE0A28A05E033F81150491C284400B292
:1093D000C9B29142F7D390FBF2F060820120BDE860
:1093E000F08100001C0000200000214200404E459A
:1093F00000007A440000C84200B0314500005041EE
:109400002403002070B50E4800250078012802D002
:10941000022802D002E0022600E006260024F0B274
:1094200001F034FE641CE4B20544032CF7D303209E
:10943000B5FBF0F048F6CC514843000B70BD00007E
:109440006000002040434FF47A72514390FBF1F0EA
:1094500080B2704770B5040018D00846FFF704F8D2
:1094600005462046FFF700F82946FEF706FF0949A2
:10947000FEF735FFFFF780F808F064F80022064B8E
:10948000FEF777FFFFF75FF880B270BD44F620600B
:1094900070BD00000000C84200408F4002F092B84A
:1094A00010B501280BD0022810D13C21A12002F0D8
:1094B000D3F93C21C020BDE8104002F0CDB93C21D9
:1094C000A02002F0C9F93C21C820F4E710BD00003B
:1094D0000749012806D0022808D10871C870002069
:1094E00002F026B9012008710020C8707047000002
:1094F0001C00002003490020086034394870C881EE
:109500007047000050000020810008480844D0F84F
:10951000001C490409D5D0F8001C48F68F72114090
:109520004CF280021143C0F8001C7047005000400C
:10953000810008480844D0F8001C490609D5D0F835
:10954000001C48F68F72114048F2C0021143C0F867
:10955000001C704700500040F0B5A3B020258021CA
:1095600002A8FEF7F4FD0024264602AFE006CDE98E
:109570000076010E08238022002003F0CDFF641C3A
:10958000E4B2B4EBD50FF1D323B0F0BD81000648AF
:109590000844D0F8001C48F68F62114048F280025F
:1095A0001143C0F8001C7047005000400B280BD23C
:1095B000064B00EB400203EB82000021416041704A
:1095C000418003F82210816070470000540300209E
:1095D0003CB50225059C09B200B2CDE9004505F075
:1095E000F3FC3CBD02464FF400710148FEF7A8BDF4
:1095F000503100200B2806D2034A00EB400002EB5A
:1096000080000021417070475403002008B10448D5
:10961000704704490820096808820020704700004C
:10962000300200200C03002008B1044870470449B0
:1096300008200968088200207047000030020020DE
:109640000C0300202DE9F34F4FF00008ADF2D44D8C
:1096500004464FF480664546C146314609A8FEF7E8
:1096600076FD32462146B148FEF758FD34210DF50E
:109670008D60FEF76CFDDFF8B8B2B24600244421DD
:109680000DF22440FEF763FDA84A0DF224414AE0A2
:10969000505D6D1C0855ADB20A2807D008194078F6
:1096A0000D2803D0B8F1000F3FD138E00020085555
:1096B000084606F01DF89DF8240418B300240DF2A6
:1096C00024475BF824603046FEF762FD82B217F84B
:1096D000011BA1F14100192800D8203116F8010B17
:1096E000A0F14103192B00D82030521E1204120C95
:1096F00001D08142EBD0081A104308D0641CA4B2F8
:10970000102CDCD309F1010000F0FF090DE009A8DD
:1097100000EB84100DF22441FEF74EFDF2E7641CCD
:10972000A4B2402C01D25545B2D3B9F1100F01D2E9
:109730005545A3D3B8F1000F0CD1002009A901EBC6
:10974000801212783AB1401C80B21028F7D3B8F1D9
:10975000000F03D0ABE04FF00108A8E00DF58D61DC
:1097600009A807F07BFC20B100205FEA000802D0C6
:109770009DE00120F9E729220DF58D610DF29C4055
:10978000FEF7CCFC9DF891048DF8C504DDF8940437
:10979000CDF8C804DDF89804CDF8CC0424220DF2ED
:1097A000AC416846FEF7BAFC0DF29C4494E80F0009
:1097B00000F052FBBDF86C040A25B0FBF5F35C46E3
:1097C0005CA109A8DBF8002007F01AFEBDF86E04C2
:1097D00058A1B0FBF5F319A8626807F011FEBDF8B7
:1097E000700454A1B0FBF5F329A8A26807F008FEA5
:1097F000BDF872044FA1B0FBF5F339A8E26807F099
:10980000FFFDBDF886044BA1B0FBF5F349A8226922
:1098100007F0F6FDBDF87A3446A159A8626907F051
:10982000EFFDBDF87C3443A169A8A26907F0E8FD0B
:10983000BDF878343FA179A8E26907F0E1FDBDF8F1
:1098400080343CA189A8226A07F0DAFDBDF87E3495
:1098500038A199A8626A07F0D3FDBDF8883435A114
:10986000A9A8A26A07F0CCFDBDF8823431A1B9A83D
:10987000E26A07F0C5FDBDF884342EA1C9A8226BA9
:1098800007F0BEFDBDF88A342AA1D9A8626B07F0A3
:10989000B7FDBDF88C3427A1E9A8A26B07F0B0FD95
:1098A000BDF88E3423A1F9A8E26B07F0A9FD51465B
:1098B000DDF8D804FEF74BFC1D4D4FF00004803559
:1098C000B8F1000F12D0A5F14006DDF8D80456F823
:1098D0002410FEF747FC55F82410DDF8D804FEF7F5
:1098E00041FC641CA4B2102CEFD310E009AE06EBCF
:1098F0008411DDF8D804FEF735FC55F82410DDF8A6
:10990000D804FEF72FFC641CA4B2102CEFD3DDF8B2
:10991000D804FEF73DFC094981F81C04000A81F8CF
:109920001D040DF2DC4D4046BDE8F08F842A002076
:109930008800002025733D25640000008404002079
:1099400070B5ADF5816D0024ADF8004405F04EFA18
:109950000DF58062111D1AA004F084FF1B4E050056
:1099600002D01B48854202D901F000FA1BE0347096
:1099700069462846FFF766FEA8B116480121281A55
:10998000A0F50070C21700EB9250134A02EBA02022
:1099900001706846FEF7FCFB024669462846FEF762
:1099A000BDFB04F0ADFBB068C47104724471706813
:1099B000C4604461C46184610DF5816D002070BD97
:1099C000434F4E464947202054585400640000201D
:1099D000842A002084040020842E00202DE9F041F8
:1099E000ADF58A6D0026ADF840644FF4806168469D
:1099F000FEF7ADFB02210DF5896001F07FFDDDF87A
:109A000048040A2780B2B0FBF7F3FE4CFEA10DF527
:109A10008060226807F0F4FC0DF580616846FEF76F
:109A2000A1FB04F1800568462968FEF79BFB032132
:109A30000DF5896001F062FDDDF84804F2A180B205
:109A4000B0FBF7F30DF58060626807F0D9FC0DF507
:109A500080616846FEF786FB68466968FEF782FB10
:109A600004210DF5896001F049FDDDF84804E6A107
:109A700080B2B0FBF7F30DF58060A26807F0C0FC80
:109A80000DF580616846FEF76DFB6846A968FEF734
:109A900069FB05210DF5896001F030FDDDF8480412
:109AA000D9A180B2B0FBF7F30DF58060E26807F052
:109AB000A7FC0DF580616846FEF754FB6846E9682F
:109AC000FEF750FB16210DF5896001F017FDDDF85A
:109AD0004804CDA180B2B0FBF7F30DF58060226998
:109AE00007F08EFC0DF580616846FEF73BFB68468B
:109AF0002969FEF737FB07210DF5896001F0FEFCAF
:109B0000DDF84804C0A183B20DF58060626907F0FA
:109B100077FC0DF580616846FEF724FB68466969AD
:109B2000FEF720FB08210DF5896001F0E7FCDDF868
:109B30004804B5A183B20DF58060A26907F060FC0E
:109B40000DF580616846FEF70DFB6846A969FEF7D2
:109B500009FB09210DF5896001F0D0FCDDF848040E
:109B6000A9A183B20DF58060E26907F049FC0DF50B
:109B700080616846FEF7F6FA6846E969FEF7F2FA90
:109B800010210DF5896001F0B9FCDDF848049EA1B3
:109B900083B20DF58060226A07F032FC0DF580611A
:109BA0006846FEF7DFFA6846296AFEF7DBFA0A2103
:109BB0000DF5896001F0A2FCDDF8480492A183B2A2
:109BC0000DF58060626A07F01BFC0DF58061684648
:109BD000FEF7C8FA6846696AFEF7C4FA13210DF564
:109BE000896001F08BFCDDF8480487A183B20DF594
:109BF0008060A26A07F004FC0DF580616846FEF7FC
:109C0000B1FA6846A96AFEF7ADFA14210DF589602C
:109C100001F074FCDDF848047BA183B20DF580608F
:109C2000E26A07F0EDFB0DF580616846FEF79AFAEF
:109C30006846E96AFEF796FA15210DF5896001F08C
:109C40005DFCDDF8480470A183B20DF58060226BE5
:109C500007F0D6FB0DF580616846FEF783FA68468B
:109C6000296BFEF77FFA12210DF5896001F046FCA1
:109C7000DDF8480464A183B20DF58060626B07F0E3
:109C8000BFFB0DF580616846FEF76CFA6846696BAC
:109C9000FEF768FA11210DF5896001F02FFCDDF85F
:109CA000480459A183B20DF58060A26B07F0A8FBB0
:109CB0000DF580616846FEF755FA6846A96BFEF718
:109CC00051FA17210DF5896001F018FCDDF8480400
:109CD0004DA183B20DF58060E26B07F091FB0DF5AD
:109CE00080616846FEF73EFA6846E96BFEF73AFA8D
:109CF0000DF58862111D46A004F0B4FD474D040027
:109D000022D06846FEF744FABDF8401405EB411135
:109D100081F81C04000A81F81D04601BA0F5007086
:109D2000C21700EB925005F5285202EBA02001214A
:109D300001706846FEF72CFA024669462046FEF797
:109D4000EDF904F0DDF957E00DF58862111D34A03E
:109D500004F088FD354C364F4FF4185800B30146D7
:109D6000FE226846FEF7DAF941462C48FEF7EFF985
:109D70002BA0FE2201682162416861628068A062B6
:109D8000694604F58060FEF7C9F985F82B64C5F8CB
:109D90003674032085F83A04FE2085F83C0403E07D
:109DA00041461E48FEF7D3F919A0016821604168B9
:109DB00061608068A0601F4801682960416869602F
:109DC0001D4902680A60406848606846FEF7E0F98D
:109DD0000446024669461948FEF7A0F985F80B6467
:109DE000C5F81674022085F81A0485F81C44200A68
:109DF00085F81D0404F0B8F9024924398868C67151
:109E000006721DE08800002025733D2564000000D7
:109E1000434F4E46494720205458540084040020A4
:109E20004C4F474F494E2020424D5000840800209F
:109E3000188DDD405419010884060020840A002092
:109E400046714868C6604661C66186610DF58A6DD7
:109E50000020BDE8F08100000FB4292210B502A94E
:109E60000748FEF75BF99DF83110054880F8291086
:109E70000D99C1620E991838816410BC5DF814FB0D
:109E8000E830002010B5044629220749FEF746F9BC
:109E9000054890F8291084F82910C06AE062024849
:109EA0001838806C206310BDE83000202DE9F043A5
:109EB00055A089B0D0E90010CDE906100C21684604
:109EC00001F01CFB0098DFF84891C5B24FF006087E
:109ED000002406AF6846395D01F0D2FB9DF8000012
:109EE0008DF80C009DF801008DF80D00DDF80200E2
:109EF000CDF80E00DDF80600CDF81200BDF80A001E
:109F0000ADF816009DF80D00002875D0385D0828C2
:109F10006FD2DFE800F04652496E04316E6C0DB12D
:109F2000022D18D101F0D8FA022812D11221684668
:109F300001F0E4FA0098002186B2684601F0DEFAEA
:109F4000009880B22EB141F66411884201D805F024
:109F5000FBFE022D4DD099F80A004E4610B12D4A55
:109F60004621117005F066F90020B072012D40D134
:109F7000012004F0A3FD3CE099F80A004E4618B910
:109F8000002000F0FBFFB072B07810BB012000F0A1
:109F9000F5FFF0B1317888422BD03070FFF780FAAE
:109FA00027E003F071FA24E0012D22D001F0A8F996
:109FB00002281ED1FFF79AF91BE0012D19D001F0FC
:109FC0009FF9022815D101F0F7FA012802D0FFF716
:109FD00091FA0EE0FFF762FA05F086FCFEF749FA07
:109FE00002460B46012004F075FD02E004E003F098
:109FF0002DFC385DFFF7FEFA641CE4B24445FFF423
:10A0000069AF09B0BDE8F083000405020107000054
:10A01000480100209E0100207CB5FFF7F3F986B2CD
:10A020001121684601F06AFA0098002485B201F017
:10A0300059FA002813DD642190FBF1F081B230461B
:10A04000FFF700FA084941F288324D4395FBF0F0E2
:10A05000064980B29042488000D94A807CBD641C89
:10A06000E4B2032CE3D37CBD404B4C0060000020E5
:10A0700018B50023009308E003780C78A34208D1B8
:10A08000009B401C5B1C491C00939342F4D30120AD
:10A0900018BD002018BD0000F0B585B007241421BC
:10A0A0006846FEF754F812208DF800008DF8010084
:10A0B0008DF80200274913208DF8030088890222B9
:10A0C000C0F3023702EB870242F080028DF80420D1
:10A0D0008DF80500000A8DF806000020EC460E7C85
:10A0E0004D7C8B7CCA7C0AE00CF804600CEB04010C
:10A0F000241D4D708B70401CCA70E4B2C0B2874200
:10A10000F2D8FF200CF804000CEB0400142141707D
:10A11000FE2181700F210B2000F07AFD40210620E6
:10A1200000F076FD0C480A21432380882222C0F3E8
:10A13000023001EB8001684601F00CFD052106208C
:10A1400000F066FD07210B2000F062FD05B0002045
:10A15000F0BD000054340020503300202DE9F047BA
:10A16000DFF89490254F4FF03008D9F8001001F136
:10A170001005088A0E7A08B9042E04D0AC88A042D3
:10A1800015D8042614E01E480178012903D00726BB
:10A19000102038802BE01B4A002112681A4B120451
:10A1A00003EBD2325160A7F8008001701FE0022655
:10A1B000844200D90446A968204688478246002088
:10A1C00001F026F801462246504605F0A9FD214639
:10A1D000002004F011FC2888001B28806888204497
:10A1E0006880A7F8008009494FF440500880D9F8EA
:10A1F00000000672BDE8F0870C0300201C0300205D
:10A2000004030020505C0040006000401A0300205E
:10A210002DE9F047224EDFF88C803027346834F87F
:10A22000100FA168A9B100B3A588854200D90546E1
:10A230002846884781462088401B20806088284423
:10A240006080002000F0C4FF01462A46484603F023
:10A2500015FB208848B114494FF440500880002174
:10A26000084604F0C9FBA8F800702088A18888423D
:10A2700001D3032001E020B1052031680872BDE858
:10A28000F087316806200872084900200968084AEA
:10A29000090402EBD1314860A8F80070EFE7000034
:10A2A0000C0300201C0300201A030020505C004017
:10A2B00000600040F8B55D4C5D4D09262068002720
:10A2C00029684278062A05D0AAB1082A4DD00A2A60
:10A2D00050D06BE00278520668D18078012804D013
:10A2E000022804D0032804D060E0C96956E0096A56
:10A2F00054E0496A52E04288B2BBC288022A55D172
:10A3000002798ABB0278530601D1838833B102F007
:10A310007F02012A04D0022A0CD047E045493DE0E3
:10A320008A69407900219047F0B92068807A002836
:10A33000F4D13BE0417901F00F0001F070020B060F
:10A340003D4901EB8001D1F8001C03D5C1F3011197
:10A35000090102E0C1F301310903384B1B78834244
:10A3600024D90AB90029D9D120E0007840061DD1AE
:10A37000334913E0027802F07F02012A16D1827A73
:10A38000A2B1428892B9027982B9C288012A0DD15C
:10A390008A6940790021904740B92A4931B1206843
:10A3A0004782816100208847002006E029682068F4
:10A3B000096940788847032813D021680A8AA2F5E2
:10A3C0007F43FF3B0BD002280ED06AB1087800060D
:10A3D00026D5C888009082420AD9088218E00E72F9
:10A3E000F8BD20680672F8BD4FF008000872F8BD8D
:10A3F0000ED22868144B90F82C00824201D21F70B4
:10A4000006E0B2FBF0F400FB142008B9012018703C
:10A41000286890F82C008882BDE8F840FFF79EBEBF
:10A4200003200872094900030880F8BD0C030020CE
:10A430001003002031F5000800500040A002002069
:10A44000C5F4000809F50008040300201A030020E1
:10A450007047000010B50121084603F061FDBDE81A
:10A4600010400121014800F051BD00000002300001
:10A4700008494A6810444A68824203D84A688242BE
:10A48000FCD370474A680A2AFCD84A688242FCD347
:10A49000704700000000002008B50090411E0091A8
:10A4A00001D30846FAE708BD10B54FF41852054924
:10A4B0000548FDF733FEBDE8104010210348FDF7C5
:10A4C00046BE00000090010884040020842E002075
:10A4D00010B50B46044604F06BFF4FF400718BB1CE
:10A4E000B3F5805F11D0B3F5205F12D0B3F5804F84
:10A4F00013D0A3F50042B2F5005F15D80D480A4607
:10A50000191804E00A460C4901E00A460B492046A6
:10A5100006E00A460A49204602E00A460949204662
:10A52000BDE81040FDF7FABD2046BDE81040FDF73C
:10A530000EBE0000001601085C190108840400200A
:10A5400084060020840800202DE9F04F0026ADF29B
:10A55000144D0D4604466FF007074FF6FF794FF490
:10A560000078B1F5805F4AD0B5F5205F52D0DFF8B2
:10A5700058A1564F4FF00109B5F5804F5BD0A5F5B6
:10A58000004BBBF5005F39D8AAF528504619A6F54F
:10A59000F446424631462046FDF701FE20B13046E2
:10A5A00042462146FDF7BAFD022101EB5B20798886
:10A5B00088427CD1464C69463046FFF743F8002874
:10A5C0007DD16846FDF7E4FD798804EB411181F8FF
:10A5D000DC03000A81F8DD03301BA0F50070C21710
:10A5E00000EB92520AEBA22080F800906846FDF73B
:10A5F000CFFD024669463046FDF790FD5DE04246DC
:10A600003349FDF7CCFD002857D0314D4246214655
:10A61000284608E02F4942460D46FDF7C0FD80B3AD
:10A62000424621462846FDF779FD2F60686840EADA
:10A630000900686041E0284942460D46FDF7AFFD3C
:10A64000F8B1424621462846FDF768FDD0468AF813
:10A65000019000252068CDF800046068CDF804045E
:10A66000A068CDF808040B221CA10DF58060FDF751
:10A6700096FD40B16D1CEDB22034102DEAD346B1E9
:10A680000AE01AE013E0A07E7880267F87F8019028
:10A69000F5E77878012802D088F800900DE00020D6
:10A6A000787088F8010088F8000006E007E0A5F55A
:10A6B000FC450AEB952181F8019003F021FD0DF294
:10A6C000144DBDE8F08F0000842E002064000020AF
:10A6D000840400208406002084080020434F4E4656
:10A6E00049472020545854007CB5102A069C0DD1AF
:10A6F000102B0BD12402E51704EB5574044D05EB28
:10A70000E4040025CDE9004504F05EFC7CBD0000BA
:10A710007C1B01082DE9FC4114460F460546002626
:10A7200015E0202818D02D2818D03038C0B20C4998
:10A73000C0EB001001EB8000CDE9000618231422C5
:10A740003946284604F040FC14352DB2641C2078AC
:10A750000028E6D1BDE8FC810A20E8E70D20E6E705
:10A76000342401082DE9FC4114460F460546002615
:10A7700011E02038C0B20A4900EB400001EB400074
:10A78000CDE900060823062239462846641C04F059
:10A790001BFCAD1D2DB220780028EAD1BDE8FC815C
:10A7A000FC1B01082DE9FC4114460F460546002616
:10A7B0000FE020380949C0B201EB0010CDE90006D6
:10A7C0001023082239462846641C04F0FDFB083596
:10A7D0002DB220780028ECD1BDE8FC81441E010890
:10A7E0002DE9F04FB7B0802034900020024633901E
:10A7F000042032904FF0100A002435A93EA004F046
:10A8000031F85FEA000974D099F8000042286CD151
:10A8100099F801004D2868D199F83600FF2809D130
:10A8200099F83700FF2805D199F83800FF2801D1A1
:10A8300001203390FEF790FE3220FFF719FE0DF154
:10A84000080B02A83499FDF782FC012500260020A0
:10A8500002462CE0C6EBC401C91D01FB0A9302F1BC
:10A860003E015F5C80210023DDF8CCC0BCF1000F0D
:10A8700007EA010C09D0BCF1000F0FD11BF800C092
:10A880004CEA050C0BF800C008E0BCF1000F05D045
:10A890001BF8008048EA05080BF80080401C5B1C90
:10A8A0004908DBB2C0B2082BDED3521CD2B25245EB
:10A8B000D0D36806761C050EF6B2082EC7D3002149
:10A8C000CDE900B132980823001BC0000838C1B29E
:10A8D0000020349A02F020FE641C3298E4B28442D4
:10A8E000AFD34FF49670FFF7C3FD37B0BDE8F08FDC
:10A8F000FFE700F007F8F8E74C4F474F494E20209C
:10A90000424D5000F0B5124DADF5037D00200124FD
:10A910002E2102ABA5F50076670204EB4002B2FBE4
:10A92000F1FC01FB1C2216F800C0AA5C82EA0C02B2
:10A930001A54401C80B2B842EFD30020CDE9003059
:10A9400020238022014602F0E7FD0DF5037DF0BDD6
:10A95000B417010802F05CBC02F084BC7047000030
:10A9600010B50449052005F077F9BDE81040052031
:10A9700004F020B8D834002010B5802000F010F882
:10A98000002806D0802000F005F8BDE8104003F054
:10A9900067BC10BD01490860704700001404014005
:10A9A000064A014600201268044B0A4014331B6813
:10A9B0000B4202D0002A00D0012070470004014061
:10A9C00030B51A4A8379016853B313688B43136017
:10A9D000111D0B680468A3430B60017911440B68D7
:10A9E000046823430B60114B083319680468A143C2
:10A9F00019601C1D21680568A9432160417910294F
:10AA000005D011440A68006802430A6030BD196825
:10AA1000026811431960216800680143216030BD5C
:10AA20000079104402688A43026030BD000401408E
:10AA300010B502000C464FF0FF0006D0012A03D1EA
:10AA400000F0AEFD2060002010BD0020FEF7CAFD22
:10AA500003A200210C20FFF7A5FE02F015FDFEE782
:10AA600044656D6F204D6F64650000000149C8604A
:10AA7000704700000020024010B5044680050CD14C
:10AA8000064800F081F8052802D03420FFF7EEFFD9
:10AA90002046BDE8104000F003B810BDA0860100BC
:10AAA00070B505464FF43026304600F06DF80428A6
:10AAB00011D1094C206940F00200206165612069D4
:10AAC00040F040002061304600F05EF8216941F618
:10AAD000FD721140216170BD002002400849042030
:10AAE000CA68D20701D001207047CA68520701D551
:10AAF00002207047C968C906FBD5032070470000D3
:10AB0000002002400248016941F080010161704764
:10AB10000020024070B505460C46074800F034F8A6
:10AB2000052802D03420FFF7A1FF21462846BDE8C2
:10AB3000704000F003B80000A0860100F0B50646A2
:10AB40004FF400570D46384600F01EF804280CD18B
:10AB5000064C206940F0010020613580384600F045
:10AB600013F82169BA1E11402161F0BD0020024096
:10AB7000034802494160034941607047230167452A
:10AB800000200240AB89EFCD00B50346FFF7A6FFDA
:10AB900002E0FFF7A3FF5B1E012803D0002B00D1CA
:10ABA000052000BD002BF4D1FAE700001FB50121FC
:10ABB000092003F0B5F948208DF80F008024ADF886
:10ABC0000C4003208DF80E0003A9104800F050F946
:10ABD0000721012000F038F9009401248DF8064087
:10ABE00000208DF804000C208DF805006846FFF762
:10ABF000E7FE17208DF808008DF809408DF80A400F
:10AC00008DF80B4002A802F08FFB1FBD000C014025
:10AC10000A460146222000F083BF30B414460346A2
:10AC2000204630BC222200F0BDBE0146222000F0AA
:10AC300097BE000070B50024FFF7B8FF58213848D0
:10AC4000FDF785FA03210C20FFF7E2FF3220FFF722
:10AC50000FFC03210C20FFF7DBFF0A20FFF708FCA5
:10AC60000F210B20FFF7D4FF4FF496760AE04DB189
:10AC700000254FF003014FF002002DB1FFF7C8FF90
:10AC8000072104E00125F4E7FFF7C2FF0B210220B2
:10AC9000FFF7BEFF0120FFF7EBFB4020FFF7C5FFEA
:10ACA00000F00F00012805D8641CA4B2B442DED91C
:10ACB000012070BD07210920FFF7AAFFEF210A201C
:10ACC000FFF7A6FFEF210E20FFF7A2FF01210F20C3
:10ACD000FFF79EFF2DB107210220FFF799FF2521E5
:10ACE00004E00B210220FFF793FF26210320FFF74A
:10ACF0008FFF02210C20FFF78BFF00210620FFF7BA
:10AD000087FF0F210B20FFF783FF3E20FFF78DFF0A
:10AD10003F20FFF78AFF4220FFF787FF002070BD2A
:10AD2000503300202DE9F041064617460D468005B8
:10AD300002D00120BDE8F081FFF71AFF00240FE0E8
:10AD4000A00502D13019FFF797FE29883019FFF7C7
:10AD5000E1FE042802D0FFF7D5FEEAE7A41CAD1CF3
:10AD6000BC42EDD3FFF7CEFE0020E3E72DE9F0472C
:10AD70004FF418512C48FDF7EAF92C482CA12A4E23
:10AD80000A6802604A684260896881602B48DFF87F
:10AD9000B0800025016831604168716006F500717E
:10ADA00002680A60406848602C4608F1400947463E
:10ADB00058F82400FDF7ECF90246701957F82410F2
:10ADC00000F5C060FDF7AAF957F82400FDF7E0F997
:10ADD00005444F4659F82400FDF7DAF90246701988
:10ADE00057F8241000F5C060FDF798F957F82400D3
:10ADF000FDF7CEF9641C0544102CD8D3002086F84A
:10AE00000B041048C6F81604022086F81A0486F8C7
:10AE10001C54280A86F81D0403F0E8FF03F0A4F987
:10AE20000020BDE8F0870000840400208408002092
:10AE3000434F4E46494720205458540054190108A6
:10AE4000C8000020188DDD4010B58A0721F00304EA
:10AE50000649120F21440F238C6893409C438C6059
:10AE60008B68904003438B6010BD000000000140E0
:10AE7000F0B5CC78002204F00F03E40601D58C78FD
:10AE800023430C784FF00F0C14F0FF0F4FF0010E1E
:10AE90001BD005680E880EFA02F42640A64210D197
:10AEA00096000CFA06F725EA070703FA06F5CE78AE
:10AEB0003D43282E02D0482E02D002E0446100E03B
:10AEC0000461521C082AE5D305600A88FF2A1CD9B0
:10AED0004468002202F108060EFA06F50E882E409C
:10AEE000AE420ED196000CFA06F7BC4303FA06F701
:10AEF000CE783C43282E00D14561CE78482E00D133
:10AF00000561521C082AE5D34460F0BDF0B5144C2D
:10AF1000002801DAE36900E06368450D2E0185B27F
:10AF2000C0F30157B540C0F30342032F05D0C6025A
:10AF30000AD503269640B34307E023F070626368A6
:10AF400023F07063636002E0AB4343F0706201B1D1
:10AF50002A43002801DAE261F0BD6260F0BD000022
:10AF6000000001400246002092680A4200D0012001
:10AF7000704741617047016170470000F0B50646B7
:10AF80003F4889B003AB07C883E8070000241721B6
:10AF900006A800F0B3FA0698C0B2411E042905D8ED
:10AFA00003A901EB400010F8020C01E0BDF812000B
:10AFB0000C22C5B26946032000F0D6F8DDE9000195
:10AFC0004042CDE90010024606A8029B00F02EF98F
:10AFD0009DE80E0006A800F029F92A4F2A4B97F8A1
:10AFE00005C0BCF1000F0DF1180C9CE8070007D05C
:10AFF0004FF0000C87F805C003F10C0C8CE807003B
:10B0000016B1012E22D035E01F4F0C373E68A6EB5B
:10B01000050C604503DB06EB050C604500DD0124F3
:10B020007E68A6EB050C614503DB06EB050C61456C
:10B0300000DD641CBE68771BBA4202DB3544AA42BD
:10B0400000DD641C022C15D2002413E0B7F9105067
:10B050006E42B14206DAB7F90E607642B04201DACA
:10B06000022407E0A94205DDB7F90E506D42A8425F
:10B0700000DA01240C3383E8070009B02046F0BD54
:10B080007C27010848010020D030002070B50D4C0D
:10B090000146072301222046FDF74EFE01212046EE
:10B0A000FDF789FE02212046FDF714FE0028F9D0A5
:10B0B0002046FDF70CFE054602212046FDF78DFDDA
:10B0C000284670BD00280140014880787047000084
:10B0D000080000200148407870470000C0010020AF
:10B0E00070B500220546104611461346012606FAA1
:10B0F00003F42C4204D1012906D0032906D006E02E
:10B1000041B1022908D008E0022100E00421521CCC
:10B11000D2B206E0012100E00321824200D91046AC
:10B1200000225B1CDBB2202BE1D3E90702D1824273
:10B1300000D9104670BD000070B500252C460420D3
:10B14000FFF7A4FF641CE4B20544032CF7D30320EB
:10B15000B5FBF0F0BDE8704082B2A3210148FDF7D5
:10B1600055BE00000C1801082DE9FC4105460020E1
:10B1700016460F460190FF24042201A90120FFF783
:10B1800057FCDFF844C035B1012D04D0022D09D0A1
:10B19000032D0FD111E0019800900C4B3246394637
:10B1A000012005E001980090084B32463946022004
:10B1B000E04704462046BDE8FC8101980090034B1F
:10B1C000324639460320F3E701200008BC01002085
:10B1D0000549096889B201EBC000044901EB400050
:10B1E000008980B270470000505C00400060004061
:10B1F0000549096889B201EBC000044901EB400030
:10B200008089C0F309007047505C00400060004036
:10B210000449096889B201EBC000034931F8100004
:10B2200080B27047505C0040006000402DE9FF5F35
:10B23000DFF8B4A099460024BAF81400DFF8ACB0E7
:10B2400000EB40030F460BEB8301401C9046AAF82D
:10B25000140081E8800325469AF804002E4638B38E
:10B260002348244905F0ACFEFDF799F90A21FDF7C2
:10B2700074F8FDF71CF9AAF80E001F481F4905F0E5
:10B280009FFEFDF78CF90A21FDF767F8FDF70FF92E
:10B29000AAF8100000205A4600EB400102EB8101A1
:10B2A000401C81E8800310F0FF00F5D08AF80440CC
:10B2B000BAF8141009B1AAF8144000205A4600EB5D
:10B2C0004001401C52F8213002EB81011C444B68C4
:10B2D000896800041D440E44000CF0D0009880E8FA
:10B2E0007000BDE8FF9F000048010020D030002022
:10B2F000EA9DF7ECA6F1F43F557E2C5752C1F03F82
:10B3000001480079704700001C0000200148C07807
:10B31000704700001C0000200148B0F91000704781
:10B320001C00002003490878002801D000220A7080
:10B3300070470000080000200FB40023F0B53C2542
:10B34000129EDDE913100122F61F40F2E734102EA1
:10B3500034D2DFE806F0080808210818181B1F1D62
:10B360000823251F2B2FBDF82C2022B14FF43C724F
:10B370000A807A2103E04FF4C8720A8032210180EA
:10B38000F0BC5DF814FB0C800580F9E70A2312E09D
:10B39000022310E00A800BE019230CE00622F9E7F3
:10B3A0004FF47A620A8040F6B831E8E72D22F1E7DF
:10B3B0000380E5E705230B800280E1E70B80F7E7D8
:10B3C0000FB400232DE9F0431E46DDE9338CBDF8B0
:10B3D00028700A2F05D906604660BDE8F0035DF8C5
:10B3E00014FB00220DF1200914E009EB0215297B62
:10B3F00001290DD1D5E90414884509D364254D43AD
:10B40000B5FBFCF5A54203D88B4201D20B4626467C
:10B41000521C92B2BA42E8D3C0E90036DDE70FB45D
:10B4200000212DE9F04F8246BDF830C0DDF8D4B0E0
:10B430000E460DA8BCF10A0F02D9CAF800602CE034
:10B44000002726E00278022A20D1C268642402FB89
:10B450000BF3B3FBF4F5D0E9014399460B9B4FF492
:10B460007A7803FB08F3B3FBF4F3A54205D3A142BA
:10B470000CD2214606E0164608E04D4506D3A94207
:10B4800004D229469342F6D81A46F4E77F1CBFB28D
:10B4900010306745D6D3CAF80010CAF80460BDE87A
:10B4A000F00F5DF814FB00000148006870470000D1
:10B4B00030030020014840887047000060000020F1
:10B4C000AC220149FCF72ABEA83300200148408A7B
:10B4D00070470000480100200148007870470000D4
:10B4E000600000200148B0F9120070471C000020E5
:10B4F0000148C078704700004801002010B504469C
:10B500000020182936D2254A34D2DFE801F00C0E8B
:10B51000121416181A27292B2D1D1F22242F363AF4
:10B52000383C3E404244118800E0518861F30F00EE
:10B5300020E09188FAE7D188F8E71189F6E7518988
:10B54000F4E7FFF7B1FF15E0D06813E092F8291097
:10B550000EE0D06A0EE0114830300BE0518AE5E78A
:10B56000918AE3E7118AE1E7D18ADFE792F82810B0
:10B5700061F30700C4E9000510BD118BD6E7518CBB
:10B58000D4E7918CD2E7118CD0E7518BCEE7918B29
:10B59000CCE7D18BCAE7D18CC8E70000E8300020A7
:10B5A0000148406870470000000000200148007812
:10B5B000704700001C0000200148807870470000A0
:10B5C0001C0000202DE9F0410025FFF7B5FD0646DF
:10B5D00000240320FFF75AFD641CE4B20544082C44
:10B5E000F7D31848EC088088201A00B2FCF733FF24
:10B5F00005461549FCF741FE074628461349FCF766
:10B600003CFE2946FCF739FE3946FCF7DEFD1049C1
:10B61000FCF7DBFD3146FCF7D8FD0E4F3946FCF751
:10B620002CFEFCF744FF05B239463046FCF725FEF8
:10B63000FCF73DFF03493839C8820C832846BDE832
:10B64000F081000054000020CDCC0C3EACC5A7B664
:10B65000AC1CC6C00000204170B500252C4603205C
:10B66000FFF714FD05440A20FEF702FF641CE4B254
:10B67000052CF4D30520B5FBF0F080B270BD0000BE
:10B680000B290DD300210A780270497841700221FC
:10B690000A68C0F802204A68C0F80620098911E04B
:10B6A00001EB4102084901EB82010A7802704A78F5
:10B6B0004270D1F80220C0F80220D1F80620C0F86C
:10B6C0000620498941817047540300201CB50100C0
:10B6D0000AD001290AD0022805D104216846FFF7C3
:10B6E0000DFF009880B21CBD0221F7E70321F5E7AA
:10B6F00008B1044870470449012009680882002005
:10B70000704700002C0200200C0300200020FDF7F1
:10B7100069FF04A208211C20FFF744F801F0B4FEE1
:10B72000FEE7000048617264204661756C74000099
:10B73000024900B10120C1F8800170470000214298
:10B7400038B50121042002F0EBFB0120ADF8000028
:10B7500010208DF803000320054C8DF80200694687
:10B760002046FFF785FB01212046FFF702FC38BD8C
:10B77000000801400020FFF7DBBF00002DE9FC417D
:10B78000334CC8B102283AD10F216846FFF7B6FE04
:10B790000C216846FFF7B2FE00980026C5B2207B58
:10B7A000401CC0B2207303283FD3FDF79FFD608A81
:10B7B000012D80B225D037E0FFF704FF054602F0E7
:10B7C0008BF82082284604F08FF8FCF752FE0246E0
:10B7D0000B46012003F07EF9208A80B202F0AAFF16
:10B7E000FFF7DEFE216B401A02F09CFFFFF7D8FE48
:10B7F0002063208A08B1012000E00220E070BDE84B
:10B80000FC81B0F5C87F0ED2E07A401CC0B2E07275
:10B81000022809D3E67202F04AFE00220D4B0D20E9
:10B8200003F058F900E0E6722673FDF7EBFD87B2EE
:10B830003846FCF72FFE02460B46002003F04AF97B
:10B84000012D02D1384604F023FBE670D7E7000053
:10B850001C0000200000104070B50C46054603F0A7
:10B860006BFC6006000E03F09DFC002003F09AFCC8
:10B87000284603F097FCBDE8704003F075BC2DE945
:10B88000F0419046069E0D460446002703B140272E
:10B8900003F052FC4FEA4860000E03F083FC384688
:10B8A00003E0012E0AD014F8010B03F07BFC6D1E9F
:10B8B000EDB2F6D2BDE8F04103F056BC2078C043AB
:10B8C000C0B203F06FFC641CF1E7000010B5094A38
:10B8D0000024C2F89841C2F89441022002F5CA72CD
:10B8E000FEF7DAFD012050600220FEF7D5FD54601E
:10B8F00010BD00000080214208B50121082002F09F
:10B900000FFB6020ADF8000014208DF80300032029
:10B910008DF8020069460548FFF7AAFA044801219C
:10B92000C0F89811C0F8941108BD0000000C014047
:10B930000080214230B5094A0025C2F898510124FF
:10B94000C2F89441022002F5CA72FEF7A5FD5460C8
:10B950000220FEF7A1FD556030BD000000802142AD
:10B9600030B50D46044600F093F86006000E00F076
:10B9700071F800F0B9F8284600F06CF800F0B4F85F
:10B9800000F086F8012000EB4400C0B200F062F83D
:10B9900000F0AAF8002000F031F8044600F08EF81C
:10B9A000204630BDF0B51F4616460D46044600F051
:10B9B0006FF87006000E00F04DF800F095F838466C
:10B9C00000F048F800F090F800F062F8012000EB79
:10B9D0004600C0B200F03EF800F086F807E00DB176
:10B9E000012000E0002000F009F804F8010B6D1EB2
:10B9F000EDB2F4D2BDE8F04000F060B82DE9F041BE
:10BA0000134D002401268046C5F89461224627463E
:10BA1000C5F898710220FEF73FFDC5F898616006F1
:10BA2000040ED5F8140108B1641CE4B20220FEF73C
:10BA300033FD521CD2B2082AEAD3B8F1000F04D069
:10BA4000FFF744FF2046BDE8F081FFF773FFF9E7F9
:10BA500000802142F0B50D4D00260446C5F89861DE
:10BA600032460127E009C5F894016006040E022061
:10BA7000FEF712FDC5F898710220FEF70DFDC5F81E
:10BA80009861521CD2B2082AECD3F0BD008021424A
:10BA9000094A10B50120C2F89401C2F898010220A9
:10BAA00002F5CA72FEF7F8FC002414600220FEF7CB
:10BAB000F3FC546010BD000000802142094A10B51B
:10BAC0000020C2F89801C2F89401022002F5CA725F
:10BAD000FEF7E2FC012454600220FEF7DDFC146056
:10BAE00010BD00000080214230B50C4C01221546EB
:10BAF000C4F894210220FEF7CFFCD4F8140100B959
:10BB00000022C4F898510220FEF7C6FC0020C4F8B9
:10BB100098010220FEF7C0FC104630BD0080214293
:10BB200070B515460E460446FFF7B2FF6006000EDC
:10BB3000FFF790FFFFF7D8FF3046FFF78BFFFFF7C7
:10BB4000D3FF2846FFF786FFFFF7CEFFBDE8704022
:10BB5000FFF7B4BFF0B51E4617460C460546FFF783
:10BB600097FF7806000EFFF775FFFFF7BDFF304621
:10BB700001E015F8010BFFF76DFFFFF7B5FF641E3D
:10BB8000E4B2F6D2BDE8F040FFF798BF02494CF6A8
:10BB9000CC400860704700000030004002494AF67F
:10BBA000AA2008607047000000300040014948604A
:10BBB0007047000000300040014988607047000075
:10BBC000003000400149086070470000003000402C
:10BBD00010B5134C2068017A022904D0042902D040
:10BBE000062905D015E0FEF7B9FA2068007A11E0C1
:10BBF0004178052909D10178490606D1C07802F0BB
:10BC00006DFE08480068006A804707480068806841
:10BC10008047082021680872BDE8104001F03ABF53
:10BC20000C030020140300201003002070B5002432
:10BC3000FDF7E8FB85B22846FCF72CFC02460B46D4
:10BC4000002002F047FF42F23410114E854205D227
:10BC5000002233460D2002F03DFF012447F6181064
:10BC6000854207D900224FF080430D2002F032FFB9
:10BC700044F004042846FDF7ADF830B10022334605
:10BC80000D2002F027FF44F00804204670BD00009C
:10BC90000000F03F7FB50C4605460121042002F06C
:10BCA00033F9ADF80040ADF804500024114DADF863
:10BCB0000640ADF802406946284603F0C7FD012161
:10BCC000284603F0A3FD01221146284603F0B5FDE6
:10BCD0000121284603F0A7FD1E208DF80C008DF8E9
:10BCE0000D4001208DF80E008DF80F0003A801F023
:10BCF0001BFB7FBD000800401CB504460C216846B4
:10BD0000FFF7FCFB092C0AD2FFF7F2FB012801D058
:10BD100003480470BDE81C40022002F0D5BE1CBDE3
:10BD2000080000202DE9F04FA7B082461220FC4EFB
:10BD300024900621B47B6846FFF7A2FC00982922D4
:10BD4000C0F30728F74917A8FCF7E8F9F54F97F86B
:10BD500029008DF88500F86A2290386B239026A878
:10BD600025A9CDE90A10242209941BA96846FCF7ED
:10BD7000D5F917AD95E80F00FFF7DEFAF079002549
:10BD800018B1F5713846FEF77DF84FF00109182C0F
:10BD900019D0172C17D03079022814D00020FDF7C5
:10BDA00021FC307901280ED110231A4619460220B1
:10BDB0000095FEF799FC10231A4619467020CDF81D
:10BDC0000090FEF791FCE01F14214FF00A0B009049
:10BDD000122874D2DFE800F0091A344554657482E1
:10BDE0009DACBBCCDBEAFDFBFAF9307830B13570A5
:10BDF000388CB082B988B1FBFBF07082CAA20021F6
:10BE00000220FEF7CFFC0122249B0FE0307830B1F6
:10BE10003570388CB082F988B1FBFBF07082C4A217
:10BE200000210220FEF7BEFC249B0222C2A10CA826
:10BE300004F0B6F80CAA00215820FEF7B3FC03E288
:10BE4000307830B13570388CB0823989B1FBFBF075
:10BE50007082BBA200210220FEF7A4FC0322249BD7
:10BE6000E4E7307820B13570A6F81490388C7082F1
:10BE7000B5A200210220FEF795FC0422249BD5E701
:10BE8000307830B13570388CB0827989B1FBFBF0F5
:10BE90007082B0A200210220FEF784FC0522249BC0
:10BEA000C4E7307818B13570B182788A7082ACA25C
:10BEB00000210220FEF776FC0622249BB6E7C1E1B2
:10BEC000307818B13570B182B88A7082A7A200218B
:10BED0000220FEF767FC0722249BA7E7307820B1F9
:10BEE0003570A6F81490388A70823079012808D10C
:10BEF000317AB6F91200814203D0C0B2307201F03B
:10BF0000D1FA9DA200210220FEF74CFC0822249BBE
:10BF10008CE7307820B13570A6F81490388B708299
:10BF200098A200210220FEF73DFC0922249B7DE718
:10BF3000307820B13570A6F81490F88A708294A2F7
:10BF400000210220FEF72EFC0A22249B6EE73078A7
:10BF500030B13570388CB082F98BB1FBFBF0708258
:10BF60008EA200210220FEF71DFC0B22249B5DE720
:10BF7000307820B13570A6F81490788B70828AA240
:10BF800000210220FEF70EFC0C22249B4EE73078A5
:10BF900020B135706420B082B88B708285A20021F8
:10BFA0000220FEF7FFFB0D22249B3FE7307820B1F3
:10BFB0003570A6F81490788C708280A2002102203F
:10BFC000FEF7F0FB0E22249B30E772E01FE00FE04B
:10BFD000FFE7307820B13570A6F81490B88C7082E5
:10BFE00079A200210220FEF7DDFB0F22249B1DE732
:10BFF000307820B13570A6F81490F88C708274A255
:10C0000000210220FEF7CEFB1022249B0EE73078A1
:10C0100000B1357071A200210220FEF7C3FB11228E
:10C0200045A10CA8249B03F0BBFF0CAA00215820BB
:10C03000FEF7B8FB3079012802D0022829D006E1AA
:10C04000B8F1000F67D0B079401CB071707960B35F
:10C0500065A227E0FEF7A6FB707908B1002000E09A
:10C0600001207071B079062803D201234FF4FA72CF
:10C0700005E0B57175713571012342F21072062128
:10C0800001A802F025FE4FF000080620FDF7B2FAE5
:10C09000DAE0B8F1000F40D0B079401CB07170798F
:10C0A00018B154A210211C20D4E7102154A214204E
:10C0B000D0E7307800B1357054A200210220FEF79D
:10C0C00071FB12221CA10CA8249B03F069FF0CAA8F
:10C0D00000215820FEF766FB307901281DD1B8F108
:10C0E000000F1AD0B079401CB071707918B11021CE
:10C0F0003DA21C2002E047A210211420FEF752FBB3
:10C10000707948B100207071B079062806D20123F9
:10C110004FF4FA728CE09AE082E0C5E082E0000021
:10C120009C0100201C31002054312054656D7000AA
:10C1300054322054656D70002532642F2564000050
:10C1400054332054656D700054656D7020537465D0
:10C1500070000000536C6565702054656D700000C0
:10C16000536C6565702054696D65000049646C65A9
:10C170002054696D650000004261636B6C696768FB
:10C180007400000054656D70556E69740000000005
:10C19000446973706C61794469720000426F6F7317
:10C1A0007454656D70000000506F77657253726350
:10C1B000000000004D696E566F6C74004C6F774341
:10C1C000757272656E740000504450774D6178004E
:10C1D0004D73656E556E69740000000054656D7096
:10C1E00043616C6962000000436F6D706C6574653B
:10C1F000640000004F7665722074656D7000000069
:10C200002020202020202020202020005265737430
:10C210006F72650020202020202020202020000098
:10C22000012070E7B57175713571012342F210720A
:10C230000621684602F04CFD4FF000080620FDF78D
:10C24000D9F956E0182C54D03079022851D00098F2
:10C25000F949009111287CD2DFE800F00909097B37
:10C260000912127B1C2909347B3B6F7B4200388BFF
:10C27000B6F9122088BB53E04E2002F0A5FE05E07F
:10C28000B6F91220EDA10FA803F08AFE10210FAA23
:10C29000362012E0708A40B10320102300901A4625
:10C2A00019463820FEF720FA23E00220F5E7708ACD
:10C2B000012805D0E3A210212C20FEF773FA18E024
:10C2C000E2A2F8E7B6F912200AB1E2A13AE0E2A24E
:10C2D0003CE0708A10B1E1A238E016E0E0A235E05F
:10C2E000012102A8FFF70AF9029801B271823079A0
:10C2F00010B1B07988B352E1388B78B1012003F0E6
:10C300002BFB00B290FBFBF27082D6A10FA803F0CA
:10C3100047FE1023082219460195ADE791FBFBF279
:10C32000D0A10FA803F03CFEC34810231038CDE97C
:10C330000005082219469FE70BE0B6F91220002AF3
:10C34000CCD0C9A10FA803F02BFE0FAA10213820D2
:10C35000B3E7B6F91220C6A195E7FFE741F28832AC
:10C36000BAF1010F0DD0BAF1020F3AD01221BAF191
:10C37000040F7DD0BAF1050F7BD0BAF1070F79D049
:10C3800007E13079012801D0E8B105E1708AB18A6E
:10C39000401A01B27182BDF89800814200DA7082C1
:10C3A000122C02D0152C07D00BE0B6F91200012890
:10C3B00006D0022804D004E0B6F91200122800DAF0
:10C3C0007582012304E1641EE4B2062C00D818240F
:10C3D00086F800900020FDF705F9204602F060FB8A
:10C3E000F3E03079012801D018B3D5E0708AB18A22
:10C3F000401A01B27182BDF89800814200DA708261
:10C40000122C02D0152C07D00BE0B6F9120001282F
:10C4100006D0022804D004E0B6F91200122800DA8F
:10C42000758201230621684602F052FC01F02CF8C7
:10C43000AFE0172C23D086F804900123062168462C
:10C4400002F046FC182C3AD186F80990B57186F8AE
:10C450000590F98A4846012906D08749087087491E
:10C4600008700120FDF71CF8854801F0FEFF02E08E
:10C4700029E04AE09DE001234FF4FA72A8E0B6F902
:10C4800012A0B5714FF4FA7B86F8059001235A4645
:10C490000621684602F01CFC388B012805D1514664
:10C4A000002003F059FA0FFA80FADA4508DAFFF7AC
:10C4B000D3F886F8049002F043FC02F0B7F968E084
:10C4C0000220307168E03079012821D0B0B163E0FA
:10C4D000122C0AD0152C7FF467AFB6F91200401E5B
:10C4E0001128BFF461AF71826BE7B6F91200012821
:10C4F00001D00228F8D10320708262E7641CE4B204
:10C50000192CFFF465AF072462E7307901280AD1BE
:10C51000708AB38A184403B27382BDF894008342D0
:10C52000D6DD7082D4E7B8BB86F8079086F8009015
:10C530000020FDF757F82922514917A8FBF7EEFD17
:10C5400097F829008DF88500F86A2290386B2390BF
:10C5500024221BA96846FBF7E1FD0DF15C0A9AE86D
:10C560000F00FDF779FCFDF739FA707A012802D146
:10C57000757202F0C3F8002002F092FA002213460E
:10C580000C2002F0A7FA0620FDF734F80620FDF78C
:10C590000DF83079012800D0002002F07BFAB8F1C4
:10C5A000000F44D03079C0B101282CD0B079A8B3A5
:10C5B0003DE030790128B6D13571182C05D0708A4C
:10C5C000214682B22E4802F0BDF8012342F21072D9
:10C5D0000621684602F07CFBDBE786F8079086F8C8
:10C5E00000900020FCF7FEFF002002F059FA002224
:10C5F00013460C2002F06EFA0620FCF7FBFF062023
:10C60000FCF7D4FF13E03571708A214682B21C48D2
:10C6100002F098F80020FCF7E5FF01E0FFE7357134
:10C62000012342F210720621684602F051FB00F02D
:10C630002BFF27B0BDE8F08F341E0108253364536B
:10C64000200000004C656674200000005269676895
:10C650007400000025645300444300004F4E000066
:10C660004F46460025336400256457200000000033
:10C6700025336420000000004A010020480100200A
:10C680001C310020F0B58D4C97B00546A67B0621E5
:10C6900010A8FEF7F5FF082113A8FEF7F1FF002709
:10C6A000002E45D0022E7DD0012E7CD1207800288E
:10C6B0007AD0FEF717FFFBF7CEFE0646012168464B
:10C6C000FEF71CFF0098277005B2FCF79BFE07B22F
:10C6D0003846FBF7CEFE02460B46002002F0FAF980
:10C6E000FEF76AFF764C002877D076493046FBF794
:10C6F000F6FDFBF741FF02460B4673A102A803F0CB
:10C700004FFC02AA00210220FEF74CF83846FBF746
:10C71000A2FE2146FBF7E3FDFBF72EFF0A2295FB65
:10C72000F2F2CDE900016BA102A803F039FCBFE0F1
:10C7300009210AA8FEF7A4FF9DF84D0038B1607BDF
:10C74000401C00F0030060730920FCF753FF082130
:10C750000DA8FEF795FF9DF834008DF828009DF890
:10C7600035008DF82900DDF83600CDF82A00DDF817
:10C770003A00CDF82E00BDF83E00ADF832009DF82D
:10C78000290010B9E078012809D1E7700020FCF7F2
:10C7900029FF607B02F080FB0820FCF72BFF0126BD
:10C7A000012D02E054E016E061E017D040F6B83702
:10C7B000022D47D0042D34D0052D0CD12670002039
:10C7C000FCF710FF022002F06BF901233A46062124
:10C7D0000DA802F07DFA17B0F0BD56E0FCF786FD1B
:10C7E000FEF780FEB0F5C87F05DA00223D4B0D2034
:10C7F00002F070F9EFE7022001F028FEFFF716FAC9
:10C800000028E8D12670FCF7EDFE032002F048F97D
:10C810000022354B0C2002F05DF9012002F03AF9BC
:10C82000D9E726700020FCF7DDFE072002F038F97A
:10C8300000224FF080430C2002F04CF9012341F21A
:10C840008832C4E726700020FCF7CCFE0120BAE74E
:10C85000207860B127700020FCF7C4FE23A225A138
:10C8600002A803F09DFB102102AA0F2023E09DF8EF
:10C8700041000028AFD00020FCF7B4FE002002F0F9
:10C880000FF90620FCF7B6FEA5E71CA20021022046
:10C89000FDF788FF3846FBF7DEFD2146FBF71FFD5D
:10C8A000FBF76AFE02460B4616A102A803F078FBCE
:10C8B00002AA10210220FDF775FFD8E79C01002095
:10C8C00000007A440000C842546970523A252E3163
:10C8D0006600000054656D703A256420563A252E96
:10C8E00031665600000010400000F03F56312E31F6
:10C8F000310000005665723A257300005469705289
:10C900003A2D2D0054656D703A2D2D20563A252E66
:10C91000316656002DE9F04FDFF87CA491B0044653
:10C920009AF80E6006210AA8FEF7AAFE10216846B2
:10C93000FEF7E4FD00980B2105B26846FEF7DEFD28
:10C940004FF00A084FF0010B4FF00009032E20D0E2
:10C95000042E6FD113216846FEF7D0FD0098002DFC
:10C9600086B268D04FF47A61012002F0F5FF81B2FF
:10C97000B1FBF8F74FF4FA71012002F0EDFF81B23C
:10C98000B1FBF8F0BAF81010B9427CD9AAF81070CF
:10C9900076E1FEF705FE01216846FEF7AFFD00983F
:10C9A00006B2012002F076F8FC480078A8B1052113
:10C9B0006846FEF7A3FD009807B2BDB131460120DD
:10C9C00002F0CAFF06B207F1320086420ADA643882
:10C9D000864207DD97FBF8F206E0FEF777FDFEF7EB
:10C9E00075FEE9E796FBF8F2EDA10CE007F1120005
:10C9F000864205DA2438864202DD97FBF8F201E030
:10CA000096FBF8F2E8A102A803F0CAFA42F2283035
:10CA1000864204DA022102AA0846FDF77BFEDF48BF
:10CA2000007848B105216846FEF768FD0098E0A24D
:10CA300086B20EE010E112E1FEF748FDFEF746FE79
:10CA40000646FEF743FD421CDAA102A803F0A8FA4D
:10CA500002AA18215620FDF785FE4746B6FBF7F2DD
:10CA6000D5A102A803F09CFA02AA10216420FDF7C8
:10CA700099FE9AF80200564648B1401EB070102147
:10CA8000CEA2582000E0F7E0FDF76CFE07E0082397
:10CA9000062210215820CDF80090FCF799FDF0698E
:10CAA0004FF00001002868462CD0FEF727FDF06902
:10CAB0000099B0FBF7F2801A89B20844F061B0FB2C
:10CAC000F7F04FF47A7100F5FA70B0FBF1F2BCA107
:10CAD00002A803F065FA02AA00216420FDF742FED5
:10CAE000707830B186F8019001F01EF8F08201F004
:10CAF0002FF8042C0ED0052C24D0012C48D0022C69
:10CB00005DD092E0FEF7FAFC009880B200EB800066
:10CB10004000D3E7FEF7DAFCFEF7D8FDB0FBF7F0F4
:10CB200030820020FCF75EFD0220FCF7D1FC0420DF
:10CB300001F0B6FF012341F2883206210DA802F070
:10CB4000C7F872E0002001F0A5FF0020FCF74AFDC5
:10CB5000002001F0A5FF0220FCF7BAFC00221346DA
:10CB60000C2001F0B7FF012001F070FCFCF74AFC3B
:10CB700080B2FBF78FFC02460B46002001F0AAFFB3
:10CB80003220FDF775FCFEF7CDFB86F803B04CE0D4
:10CB9000FEF79CFC401C07B2022F00DD0027B8B254
:10CBA00001F086FFB8B2FEF791FD00B225B1014653
:10CBB000002002F0D1FE00B201F05EFF35E0B07A55
:10CBC00088B116216846FEF799FC009D86F80A9008
:10CBD00006216846FEF792FC0098FBF781FC308343
:10CBE00028B201F049FF708B401C80B270830F287F
:10CBF0001BD3A6F81A90317B484649B17249CDE95A
:10CC0000001010230C220021562002F0DDF906E06E
:10CC1000009010230C2200215620FCF7D9FC00F0D4
:10CC200033FC307B28B100203073FEF74DFA10B191
:10CC300011E00120F8E7B07A68B986F80AB0308BC5
:10CC400000B201F019FF10230C2200215620CDF86C
:10CC50000090FCF7BDFCF47211B0BDE8F08FBAF89B
:10CC600010004FF4C872904202D9AAF8102007E0D1
:10CC7000322805D2322001E0814201D2AAF8100008
:10CC800052A200211C20FDF78DFD5746BAF8102056
:10CC900049A102A803F084F902AA10213220FDF76D
:10CCA00081FD10231A4619460220CDF80090FDF7A9
:10CCB0001BFD10231A4619467020CDF800B0FDF771
:10CCC00013FD00F0E1FB4FF6FF78042C08D0052C93
:10CCD00006D0012C07D0022C05D0072C0ED02FE057
:10CCE000388A304401E0388A801B3882012341F2BF
:10CCF000883206210DA801F0EBFF21E03C8A0020DC
:10CD0000FCF770FC25B12146002002F025FE84B21C
:10CD100004EB8400400000B201F0AEFEFEF7D6FB4B
:10CD2000398A01EB810208EA420102F015F801207C
:10CD3000FCF7CEFB032001F0B3FE002001F0AAFEB9
:10CD40009DF82900002887D0388A464600EB8000ED
:10CD500008EA400425B12146002002F0FDFD84B21E
:10CD60000020FCF73FFC20B201F086FEFEF7AEFB90
:10CD7000398A01EB810106EA410101F0EDFF012052
:10CD8000FCF7A6FB032001F08BFE0620FCF732FC2B
:10CD9000002001F07FFE5FE79C0100204901002098
:10CDA0002533643C000000002533643B0000000094
:10CDB0007A5A000054256400253364004D000000B9
:10CDC0002532645600000000AC290108576F726BD1
:10CDD0002054656D7000000008B50121042001F0A9
:10CDE0009FF84FF4A060ADF8000048208DF80300D4
:10CDF00003208DF8020069460148FEF739F808BDA6
:10CE0000000801402DE9F0474B49D1F820014B4D76
:10CE10002A6840EA42002860D1F828116A684FF079
:10CE2000000A41EA4201A5F108076960401C01D1EE
:10CE300087F802A0414E00244FF00109361F4FF041
:10CE4000FF3855F82400FEF74BF93055F87858B103
:10CE50002878C00708D02879C00705D087F803A034
:10CE6000C5F80080C5F804803078022813D970789E
:10CE7000022810D92878C0070DD02879C0070AD019
:10CE80000720FEF739FFC5F80080C5F8048086F852
:10CE900000A086F801A0305D20282FD3F87810BBC1
:10CEA00014B1012C12D01FE0307820281FD37078E5
:10CEB00005281FD80220FEF71FFF787808B987F8E9
:10CEC0000390B87878B987F802902FE0707820281E
:10CED0000AD33078052807D80520FEF70DFF7878AB
:10CEE00008B987F8039021E03078202802D27078C2
:10CEF00020281BD30820FEF7FFFEF2E7B0B115F89B
:10CF00002400C00712D01CB12868401C09D00DE0D5
:10CF10006868401C0AD10120FEF7EEFEC5F80080CB
:10CF200004E00420FEF7E8FEC5F80480641CE4B2C7
:10CF3000022C86D3BDE8F0870000214210000020BB
:10CF4000164A10B5126800212128137803F07F03D8
:10CF500002D0202804D009E0212B1DD1104914E073
:10CF6000212B00D10F49104C20232370137803F09C
:10CF70007F03212B09D1FE2807D1508828B990883A
:10CF800018B9D088012800D1084929B10020916141
:10CF900050828847002010BD022010BD0C030020E5
:10CFA0000D9600082996000828020020F1B6000816
:10CFB000014902F09BBA000040020020014902F042
:10CFC00095BA00003802002005490968C97805298A
:10CFD00001D900207047034A02EBC10102F086BA72
:10CFE0000C0300207802002009B9002800D002209C
:10CFF00070470000124910B509680A7802F07F02F4
:10D00000212A0CD1FF2804D0022816D0222814D0BF
:10D0100005E0488818B9888808B9C88808B102208E
:10D0200010BD0120FCF784FA0220FCF76DFA0649D6
:10D0300004480860054900200870002010BD000069
:10D040000C03002055534243A8340020C4010020A3
:10D0500070B54C4800254D4985724B480968C07928
:10D060004872284601F032FC4FF40071002001F0B4
:10D07000E9FC2021002001F0CDFC4021002001F03E
:10D0800051FC434C002014F82C1F01F05BFC802164
:10D09000002001F0A1FC0020FCF778FA002001F04C
:10D0A00089FC0021012001F0CDFCC021012001F00C
:10D0B00093FC2021012001F0ADFC0021012001F0B2
:10D0C00061FC0021022001F0BDFC4FF480710220C0
:10D0D00001F028FC2178022001F034FC4FF4405686
:10D0E0003146022001F04EFC0021022001F092FCAA
:10D0F0000021032001F0A6FC4FF4A071032001F0F1
:10D100006BFC2021032001F085FC0021032001F0AD
:10D1100039FCF110042001F095FC7111042001F09C
:10D120005BFC0021042001F02DFC2021042001F0F3
:10D1300071FC0021052001F085FC4FF4C871052029
:10D1400001F0F0FB4021052001F0FCFB31460520F9
:10D1500001F018FC0021052001F05CFC2178002082
:10D1600001F0F0FB002001F025FC002001F0B6FBEF
:10D170000849012008600949074808600848057007
:10D1800070BD000018350020DE2901080C030020C6
:10D1900048020020C802002055534243A834002012
:10D1A000C401002003480178202901D10021017029
:10D1B000704700002802002070470000094810B5A1
:10D1C00000680024847200F09DFC07480460074951
:10D1D0004FF4044008800449091F086004480460B3
:10D1E00010BD00000C030020445C00401803002028
:10D1F000C8020020044805490068884202D0022085
:10D20000FBF798BE70470000A834002055534243F6
:10D21000124A10B5107802280AD04FF4405403285F
:10D2200010D0042801D0052816D1002010700DE080
:10D230000B48C07B28280FD1D2E90101BDE810407E
:10D2400001F0A8B90121002001F0A6FD2146BDE8AA
:10D250001040022001F096BB10BD0000C401002068
:10D26000A834002070B51648C47B0220FDF7C0FF2B
:10D27000144D02464FF4807168801148403800F028
:10D28000FDFA287818B1012805D0022006E0BDE893
:10D290007040FBF76FBE2A2C0CD00120FBF74AFE32
:10D2A0002421052001F09CFDBDE8704000210220F2
:10D2B00001F072BDD5E90101BDE8704001F0EAB9A5
:10D2C000A8340020C4010020094810B50068807A05
:10D2D00000280BD00749052008600120FCF728F939
:10D2E0000220FCF711F904490020087010BD00006D
:10D2F0000C030020C8020020C401002001490420C2
:10D3000008607047C8020020FEE77047704710B5FC
:10D3100001464FF0006000F043F8BDE810404FF4C4
:10D32000A06000F033B8000030B50F23C278017858
:10D330000125F2B1144A126801F1E02102F4E06221
:10D34000C2F5E062120AC2F10404D3404278A2405E
:10D3500084781C401443220181F80024007800F0F6
:10D360001F018D404009800000F1E020C0F800510D
:10D3700030BD01F01F0085404809800000F1E02029
:10D38000C0F8805130BD00000CED00E002490843B8
:10D3900002490860704700000000FA050CED00E04B
:10D3A000024A1140014302480160704780FFFF1F9D
:10D3B00008ED00E070B52F4D296808784C784206DA
:10D3C00006D000F07F00012828D002282BD035E0BD
:10D3D000092C06D0052C07D0032C0ED0012C14D01C
:10D3E0002CE002F0EFF828E0C8787F282ED8887863
:10D3F00060BB888850BB887A27E0C87801281DD197
:10D400008888D8B902F0FAF817E0C878012815D151
:10D41000888898B9487A80060AD40FE00B2C0DD181
:10D4200002F042F909E0012C02D0032C03D005E000
:10D4300001F0CAFF01E002F0F3F858B10E492046AE
:10D44000096849698847032802D018B108200DE00F
:10D4500009200BE0094A062000211268084B12043B
:10D4600003EBD2325160074A3021118029680872DB
:10D4700070BD00000C03002010030020505C004031
:10D48000006000401C0300201CB500210448CDE9C9
:10D49000000120238022084600F03EF800201CBD39
:10D4A000503100200A2805D800EB80008006000ECD
:10D4B00000F026B87047000010B500281DDB0029D9
:10D4C0001BDB802819DC202917DCCB1701EB5373F9
:10D4D000C3F3C70423F00703C91A01238B4000EBF1
:10D4E000C410D9B2B0F5007F07DC044B002A1A5CE7
:10D4F00001D00A4300E08A431A5410BD5031002085
:10D5000010B504463C218120FEF7A6F92046BDE86F
:10D5100010403C21FEF7A0B92DE9F8430546DDE9AE
:10D520000879C8189046C0B24B074FF0010206D0E8
:10D5300002EBD104410704D002EBD0061FE0CC0877
:10D54000F8E7C6081BE004F1B000C0B23C21FEF7CA
:10D5500083F9102040EA15103C21FEF77DF905F013
:10D560000F003C21FEF778F901233C224146384662
:10D57000CDF80090FEF783F9641C4744E4B2B4424E
:10D58000E1D33846BDE8F88310B50F4C2068007A27
:10D59000022811D004280FD0032804D0052802D077
:10D5A000072805D008E0FCF733FE2068007A04E085
:10D5B00006480068C0688047082021680872BDE8F6
:10D5C000104000F067BA00000C0300201003002098
:10D5D0002DE9F84307463A480025ADF80050008889
:10D5E00014460E46C8B1DEB1DFF8D88098F80100C5
:10D5F000012817D03B466A462146304600F0EAF83B
:10D6000000280BD13048011D45610F70C1E901644C
:10D61000012F09D0022F1ED035E00220BDE8F8838B
:10D620000320FBE70420F9E7BDF8000060F31E7556
:10D630000A20B4FBF0F2B4FBF0F062F3090560F3EA
:10D64000932525F0406040F040700861888920F003
:10D65000C000403016E01420B6FBF0F060F3542513
:10D660003220B4FBF0F060F30605BDF8000060F373
:10D670001F7525F0986040F040700861888920F09F
:10D68000C00080308881888920F4004020F01F008D
:10D69000801C20F4907020F4E04398F8000003F51B
:10D6A000805360F34B23401C8B8100F0070088F807
:10D6B0000000012088F80100FCF7EEFC0020ADE737
:10D6C00050330020C0010020503400202DE9F041EB
:10D6D0003F4F002507F108043E780A2E02D90120A9
:10D6E000BDE8F0813A48AC215830FAF730FD384BAC
:10D6F000B87858331870002035E014F8301001293C
:10D7000004D0022933D003294BD02AE003EB0012C6
:10D710000121117304EBC0014FF0320C4F68C7F3C5
:10D72000892707FB0CF717618F88C7F3090707EBF9
:10D7300087077F00576149684FF47A77C1F38922E0
:10D7400002FB0CF2B2FBF7F2C1F309014A4302EB10
:10D7500082014900A94201D90D4659601989491C25
:10D760001981401CC0B2B042C7D30020B8E703EB18
:10D77000001102220A7304EBC0024FF0640C978878
:10D78000C7F3072707FB0CF74F615768C7F34747F5
:10D7900007FB0CF70F611279322702F07F027A4300
:10D7A00014E003EB001103220A7304EBC0024FF0F4
:10D7B000640C9788C7F3072707FB0CF74F6157687E
:10D7C000C7F3484707FB0CF70F6112798A61C5E779
:10D7D000503300202DE9F0431B4F994600243E8929
:10D7E0002DE007EB04131D7B4D4526D1012D04D000
:10D7F000022D0AD0032D20D112E0D3E90453E5B164
:10D8000085421AD18B4206D217E0D3E9045C9B69AA
:10D810000FE0994211D8641C14800020BDE8F08309
:10D82000D3E9045C9B694FF47A7803FB08F3B3FBFC
:10D83000F0F3854201D38445EBD9641CE4B2B442D1
:10D84000CFD30320EAE70000A8330020094810B531
:10D850004078012804D008480178022902D006E067
:10D86000042010BDD0E901120220FFF7B1FE002014
:10D8700010BD0000C001002054340020064B521C93
:10D88000520803EB410105D031F8043B20F8023B7C
:10D89000521EF9D170470000006000407047000040
:10D8A0001CB50B216846FDF729FE084800210160E0
:10D8B00041608160C16001620161054941610549C2
:10D8C00081614FF07E51C1611CBD0000300300201A
:10D8D00000007A43333333402DE9F05F4FF0000905
:10D8E0000126DFF88C81634DB346CA46FAF7B3FDD3
:10D8F000686004462F6821463846FAF7B8FCA860ED
:10D900005D493846FAF761FC2146FAF765FE04D214
:10D9100098F80810491C88F8081098F8080047463D
:10D920004FF000080A2801D9C5F82080534928681B
:10D93000FAF74BFC6968FAF74FFE01D287F80880C6
:10D94000D5E90010FAF748FE01D287F808804C4864
:10D95000A96881420CDA387A4FF0010918B9286AAF
:10D96000FAF733FC28624748296A814200DD2862C1
:10D97000D5E90001FAF730FE0CD2D5E90010FAF72C
:10D9800076FCFAF794FD00B2322803DD4FF000096F
:10D99000C5F820803C49AC688C4203DC3B4884429B
:10D9A00000D800263848844207DD2046E968FAF7A7
:10D9B0005EFC10F1FF4F00D300263448844207D9A3
:10D9C0002046E968FAF753FCB0F5000F00DB0026AB
:10D9D0002D48844206DC2D48844203D8DFF8B0A0ED
:10D9E0004FF0000B5846FAF73FFD83462146686921
:10D9F000FAF743FC5946FAF740FC834678624846FA
:10DA0000FAF732FD81465146A869FAF730FC4946DB
:10DA1000FAF733FC296AFAF730FC8146B8623046DF
:10DA2000FAF722FD06462046E968FAF720FCE96984
:10DA3000FAF723FC3146FAF720FC0646F86249461D
:10DA40005846FAF7C2FB3146FAF7BFFBFAF72FFD4B
:10DA5000C5E90340002802DCC5F8108004E041F26B
:10DA60008831884200DD2961288A80B2BDE8F09FB4
:10DA70001C000020300300200000F0410000F042B4
:10DA8000000048440050434700008C4200008CC214
:10DA9000000020400C4810B590F82C10002000F039
:10DAA00051FF0A480068007A082802D0092809D0E6
:10DAB00006E007494FF4805008800649102008808E
:10DAC000002010BD012010BD480200200C030020E2
:10DAD0001A0300201C03002010B50220FDF7D6FA1F
